Component: ARM Compiler 5.06 update 6 (build 750) Tool: armlink [4d35ed]

==============================================================================

Section Cross References

    startup_stm32f103xe.o(RESET) refers to startup_stm32f103xe.o(STACK) for __initial_sp
    startup_stm32f103xe.o(RESET) refers to startup_stm32f103xe.o(.text) for Reset_Handler
    startup_stm32f103xe.o(RESET) refers to stm32f1xx_it.o(i.NMI_Handler) for NMI_Handler
    startup_stm32f103xe.o(RESET) refers to stm32f1xx_it.o(i.HardFault_Handler) for HardFault_Handler
    startup_stm32f103xe.o(RESET) refers to stm32f1xx_it.o(i.MemManage_Handler) for MemManage_Handler
    startup_stm32f103xe.o(RESET) refers to stm32f1xx_it.o(i.BusFault_Handler) for BusFault_Handler
    startup_stm32f103xe.o(RESET) refers to stm32f1xx_it.o(i.UsageFault_Handler) for UsageFault_Handler
    startup_stm32f103xe.o(RESET) refers to port.o(.emb_text) for SVC_Handler
    startup_stm32f103xe.o(RESET) refers to stm32f1xx_it.o(i.DebugMon_Handler) for DebugMon_Handler
    startup_stm32f103xe.o(RESET) refers to port.o(i.SysTick_Handler) for SysTick_Handler
    startup_stm32f103xe.o(RESET) refers to stm32f1xx_it.o(i.EXTI0_IRQHandler) for EXTI0_IRQHandler
    startup_stm32f103xe.o(RESET) refers to stm32f1xx_it.o(i.EXTI1_IRQHandler) for EXTI1_IRQHandler
    startup_stm32f103xe.o(RESET) refers to stm32f1xx_it.o(i.DMA1_Channel2_IRQHandler) for DMA1_Channel2_IRQHandler
    startup_stm32f103xe.o(RESET) refers to stm32f1xx_it.o(i.DMA1_Channel3_IRQHandler) for DMA1_Channel3_IRQHandler
    startup_stm32f103xe.o(RESET) refers to stm32f1xx_it.o(i.DMA1_Channel4_IRQHandler) for DMA1_Channel4_IRQHandler
    startup_stm32f103xe.o(RESET) refers to stm32f1xx_it.o(i.DMA1_Channel5_IRQHandler) for DMA1_Channel5_IRQHandler
    startup_stm32f103xe.o(RESET) refers to stm32f1xx_it.o(i.DMA1_Channel6_IRQHandler) for DMA1_Channel6_IRQHandler
    startup_stm32f103xe.o(RESET) refers to stm32f1xx_it.o(i.DMA1_Channel7_IRQHandler) for DMA1_Channel7_IRQHandler
==============================================================================

Removing Unused input sections from the image.

    Removing roter.o(.rev16_text), (4 bytes).
    Removing roter.o(.revsh_text), (4 bytes).
    Removing roter.o(.rrx_text), (6 bytes).
    Removing control.o(.rev16_text), (4 bytes).
    Removing control.o(.revsh_text), (4 bytes).
    Removing control.o(.rrx_text), (6 bytes).
    Removing control.o(i.RoterTimeAdd), (180 bytes).
    Removing main.o(.rev16_text), (4 bytes).
    Removing main.o(.revsh_text), (4 bytes).
    Removing main.o(.rrx_text), (6 bytes).
    Removing main.o(.data), (1 bytes).
    Removing main.o(.data), (1 bytes).
    Removing main.o(.data), (1 bytes).
    Removing main.o(.data), (1 bytes).
    Removing main.o(.data), (1 bytes).
    Removing main.o(.data), (1 bytes).
    Removing main.o(.data), (1 bytes).
    Removing main.o(.data), (1 bytes).
==============================================================================

Image Symbol Table

    Local Symbols

    Symbol Name                              Value     Ov Type        Size  Object(Section)

    ../Core/Src/adc.c                        0x00000000   Number         0  adc.o ABSOLUTE
    ../Core/Src/dma.c                        0x00000000   Number         0  dma.o ABSOLUTE
    ../Core/Src/freertos.c                   0x00000000   Number         0  freertos.o ABSOLUTE
    ../Core/Src/gpio.c                       0x00000000   Number         0  gpio.o ABSOLUTE
    ../Core/Src/main.c                       0x00000000   Number         0  main.o ABSOLUTE
    ../Core/Src/stm32f1xx_hal_msp.c          0x00000000   Number         0  stm32f1xx_hal_msp.o ABSOLUTE
    ../Core/Src/stm32f1xx_hal_timebase_tim.c 0x00000000   Number         0  stm32f1xx_hal_timebase_tim.o ABSOLUTE
    ../Core/Src/stm32f1xx_it.c               0x00000000   Number         0  stm32f1xx_it.o ABSOLUTE
    ../Core/Src/system_stm32f1xx.c           0x00000000   Number         0  system_stm32f1xx.o ABSOLUTE
    ../Core/Src/usart.c                      0x00000000   Number         0  usart.o ABSOLUTE
    ../Drivers/STM32F1xx_HAL_Driver/Src/stm32f1xx_hal.c 0x00000000   Number         0  stm32f1xx_hal.o ABSOLUTE
    ../Drivers/STM32F1xx_HAL_Driver/Src/stm32f1xx_hal_adc.c 0x00000000   Number         0  stm32f1xx_hal_adc.o ABSOLUTE
    ../Drivers/STM32F1xx_HAL_Driver/Src/stm32f1xx_hal_adc_ex.c 0x00000000   Number         0  stm32f1xx_hal_adc_ex.o ABSOLUTE
    ../Drivers/STM32F1xx_HAL_Driver/Src/stm32f1xx_hal_cortex.c 0x00000000   Number         0  stm32f1xx_hal_cortex.o ABSOLUTE
    ../Drivers/STM32F1xx_HAL_Driver/Src/stm32f1xx_hal_dma.c 0x00000000   Number         0  stm32f1xx_hal_dma.o ABSOLUTE
    ../Drivers/STM32F1xx_HAL_Driver/Src/stm32f1xx_hal_exti.c 0x00000000   Number         0  stm32f1xx_hal_exti.o ABSOLUTE
    ../Drivers/STM32F1xx_HAL_Driver/Src/stm32f1xx_hal_flash.c 0x00000000   Number         0  stm32f1xx_hal_flash.o ABSOLUTE
    ../Drivers/STM32F1xx_HAL_Driver/Src/stm32f1xx_hal_flash_ex.c 0x00000000   Number         0  stm32f1xx_hal_flash_ex.o ABSOLUTE
    ../Drivers/STM32F1xx_HAL_Driver/Src/stm32f1xx_hal_gpio.c 0x00000000   Number         0  stm32f1xx_hal_gpio.o ABSOLUTE
    ../Drivers/STM32F1xx_HAL_Driver/Src/stm32f1xx_hal_gpio_ex.c 0x00000000   Number         0  stm32f1xx_hal_gpio_ex.o ABSOLUTE
    ../Drivers/STM32F1xx_HAL_Driver/Src/stm32f1xx_hal_pwr.c 0x00000000   Number         0  stm32f1xx_hal_pwr.o ABSOLUTE
    ../Drivers/STM32F1xx_HAL_Driver/Src/stm32f1xx_hal_rcc.c 0x00000000   Number         0  stm32f1xx_hal_rcc.o ABSOLUTE
    ../Drivers/STM32F1xx_HAL_Driver/Src/stm32f1xx_hal_rcc_ex.c 0x00000000   Number         0  stm32f1xx_hal_rcc_ex.o ABSOLUTE
    ../Drivers/STM32F1xx_HAL_Driver/Src/stm32f1xx_hal_tim.c 0x00000000   Number         0  stm32f1xx_hal_tim.o ABSOLUTE
    ../Drivers/STM32F1xx_HAL_Driver/Src/stm32f1xx_hal_tim_ex.c 0x00000000   Number         0  stm32f1xx_hal_tim_ex.o ABSOLUTE
    ../Drivers/STM32F1xx_HAL_Driver/Src/stm32f1xx_hal_uart.c 0x00000000   Number         0  stm32f1xx_hal_uart.o ABSOLUTE
    ../Middlewares/Third_Party/FreeRTOS/Source/CMSIS_RTOS/cmsis_os.c 0x00000000   Number         0  cmsis_os.o ABSOLUTE
    ../Middlewares/Third_Party/FreeRTOS/Source/croutine.c 0x00000000   Number         0  croutine.o ABSOLUTE
    ../Middlewares/Third_Party/FreeRTOS/Source/event_groups.c 0x00000000   Number         0  event_groups.o ABSOLUTE
    ../Middlewares/Third_Party/FreeRTOS/Source/list.c 0x00000000   Number         0  list.o ABSOLUTE
    ../Middlewares/Third_Party/FreeRTOS/Source/portable/MemMang/heap_4.c 0x00000000   Number         0  heap_4.o ABSOLUTE
    ../Middlewares/Third_Party/FreeRTOS/Source/portable/RVDS/ARM_CM3/port.c 0x00000000   Number         0  port.o ABSOLUTE
    ../Middlewares/Third_Party/FreeRTOS/Source/queue.c 0x00000000   Number         0  queue.o ABSOLUTE
    ../Middlewares/Third_Party/FreeRTOS/Source/stream_buffer.c 0x00000000   Number         0  stream_buffer.o ABSOLUTE
    ../Middlewares/Third_Party/FreeRTOS/Source/tasks.c 0x00000000   Number         0  tasks.o ABSOLUTE
    ../Middlewares/Third_Party/FreeRTOS/Source/timers.c 0x00000000   Number         0  timers.o ABSOLUTE
    ../clib/../cmprslib/zerorunl2.c          0x00000000   Number         0  __dczerorl2.o ABSOLUTE
    ../clib/microlib/ctype/ctype.c           0x00000000   Number         0  isalpha_o.o ABSOLUTE
    ../clib/microlib/ctype/ctype.c           0x00000000   Number         0  isalnum_o.o ABSOLUTE
    ../clib/microlib/ctype/ctype.c           0x00000000   Number         0  ctype_o.o ABSOLUTE
    ../clib/microlib/ctype/ctype.c           0x00000000   Number         0  isgraph_o.o ABSOLUTE
    ../clib/microlib/ctype/ctype.c           0x00000000   Number         0  ctype_c.o ABSOLUTE
    ../clib/microlib/ctype/ctype.c           0x00000000   Number         0  isspace_c.o ABSOLUTE
    ../clib/microlib/ctype/ctype.c           0x00000000   Number         0  isxdigit_o.o ABSOLUTE
    ../clib/microlib/ctype/ctype.c           0x00000000   Number         0  isupper_o.o ABSOLUTE
    ../clib/microlib/ctype/ctype.c           0x00000000   Number         0  isprint_o.o ABSOLUTE
    ../clib/microlib/ctype/ctype.c           0x00000000   Number         0  isblank_o.o ABSOLUTE
    ../clib/microlib/ctype/ctype.c           0x00000000   Number         0  isspace_o.o ABSOLUTE
    ../clib/microlib/ctype/ctype.c           0x00000000   Number         0  ispunct_o.o ABSOLUTE
    ../clib/microlib/ctype/ctype.c           0x00000000   Number         0  islower_o.o ABSOLUTE
    ../clib/microlib/ctype/ctype.c           0x00000000   Number         0  iscntrl_o.o ABSOLUTE
    ../clib/microlib/ctype/ctype.c           0x00000000   Number         0  isdigit_o.o ABSOLUTE
    ../clib/microlib/division.c              0x00000000   Number         0  uldiv.o ABSOLUTE
    ../clib/microlib/division.c              0x00000000   Number         0  uidiv.o ABSOLUTE
    ../clib/microlib/errno.c                 0x00000000   Number         0  errno.o ABSOLUTE
    ../clib/microlib/init/entry.s            0x00000000   Number         0  entry7a.o ABSOLUTE
    ../clib/microlib/init/entry.s            0x00000000   Number         0  entry.o ABSOLUTE
    ../clib/microlib/init/entry.s            0x00000000   Number         0  entry9b.o ABSOLUTE
    ../clib/microlib/init/entry.s            0x00000000   Number         0  entry10a.o ABSOLUTE
    ../clib/microlib/init/entry.s            0x00000000   Number         0  entry11a.o ABSOLUTE
    ../clib/microlib/init/entry.s            0x00000000   Number         0  entry11b.o ABSOLUTE
    ../clib/microlib/init/entry.s            0x00000000   Number         0  entry2.o ABSOLUTE
    ../clib/microlib/init/entry.s            0x00000000   Number         0  entry5.o ABSOLUTE
    ../clib/microlib/init/entry.s            0x00000000   Number         0  entry9a.o ABSOLUTE
    ../clib/microlib/init/entry.s            0x00000000   Number         0  entry8a.o ABSOLUTE
    ../clib/microlib/init/entry.s            0x00000000   Number         0  entry10b.o ABSOLUTE
    ../clib/microlib/init/entry.s            0x00000000   Number         0  entry7b.o ABSOLUTE
    ../clib/microlib/init/entry.s            0x00000000   Number         0  entry8b.o ABSOLUTE
    ../clib/microlib/longlong.c              0x00000000   Number         0  llsshr.o ABSOLUTE
    ../clib/microlib/longlong.c              0x00000000   Number         0  llushr.o ABSOLUTE
    ../clib/microlib/longlong.c              0x00000000   Number         0  llshl.o ABSOLUTE
    ../clib/microlib/malloc/malloc.c         0x00000000   Number         0  malloca.o ABSOLUTE
    ../clib/microlib/malloc/malloc.c         0x00000000   Number         0  mallocra.o ABSOLUTE
    ../clib/microlib/malloc/malloc.c         0x00000000   Number         0  malloc.o ABSOLUTE
    ../clib/microlib/malloc/malloc.c         0x00000000   Number         0  mallocr.o ABSOLUTE
    ../clib/microlib/malloc/mvars.c          0x00000000   Number         0  mvars.o ABSOLUTE
    ../clib/microlib/printf/printf.c         0x00000000   Number         0  printf3.o ABSOLUTE
    ../clib/microlib/printf/printf.c         0x00000000   Number         0  printf2.o ABSOLUTE
    ../clib/microlib/printf/printf.c         0x00000000   Number         0  printf4.o ABSOLUTE
    ../clib/microlib/printf/printf.c         0x00000000   Number         0  printf5.o ABSOLUTE
    ../clib/microlib/printf/printf.c         0x00000000   Number         0  printfb.o ABSOLUTE
    ../clib/microlib/printf/printf.c         0x00000000   Number         0  printf0.o ABSOLUTE
    ../clib/microlib/printf/printf.c         0x00000000   Number         0  printfa.o ABSOLUTE
    ../clib/microlib/printf/printf.c         0x00000000   Number         0  printf1.o ABSOLUTE
    ../clib/microlib/printf/printf.c         0x00000000   Number         0  printf8.o ABSOLUTE
    ../clib/microlib/printf/printf.c         0x00000000   Number         0  printf7.o ABSOLUTE
    ../clib/microlib/printf/printf.c         0x00000000   Number         0  printf6.o ABSOLUTE
    ../clib/microlib/printf/stubs.s          0x00000000   Number         0  stubs.o ABSOLUTE
    ../clib/microlib/stdio/streams.c         0x00000000   Number         0  stdout.o ABSOLUTE
    ../clib/microlib/string/memcpy.c         0x00000000   Number         0  memmovea.o ABSOLUTE
    ../clib/microlib/string/memcpy.c         0x00000000   Number         0  memcpya.o ABSOLUTE
    ../clib/microlib/string/memcpy.c         0x00000000   Number         0  memcpyb.o ABSOLUTE
    ../clib/microlib/string/memcpy.c         0x00000000   Number         0  memmoveb.o ABSOLUTE
    ../clib/microlib/string/memset.c         0x00000000   Number         0  memseta.o ABSOLUTE
    ../clib/microlib/string/memset.c         0x00000000   Number         0  memset.o ABSOLUTE
    ../clib/microlib/string/strcpy.c         0x00000000   Number         0  strcpy.o ABSOLUTE
    ../clib/microlib/string/strlen.c         0x00000000   Number         0  strlen.o ABSOLUTE
    ../clib/microlib/string/strncmp.c        0x00000000   Number         0  strncmp.o ABSOLUTE
    ../clib/microlib/string/strncpy.c        0x00000000   Number         0  strncpy.o ABSOLUTE
    ../clib/microlib/string/strtok.c         0x00000000   Number         0  strtok.o ABSOLUTE
    ../clib/microlib/string/strtok.c         0x00000000   Number         0  strtok_r.o ABSOLUTE
    ../clib/microlib/stubs.s                 0x00000000   Number         0  iusefp.o ABSOLUTE
    ../clib/scanf.c                          0x00000000   Number         0  scanf_fp.o ABSOLUTE
    ../clib/scanf.c                          0x00000000   Number         0  _scanf_int.o ABSOLUTE
    ../clib/scanf.c                          0x00000000   Number         0  atoi.o ABSOLUTE
    ../clib/scanf.c                          0x00000000   Number         0  strtod.o ABSOLUTE
    ../clib/scanf.c                          0x00000000   Number         0  _strtoul.o ABSOLUTE
    ../clib/scanf.c                          0x00000000   Number         0  strtol.o ABSOLUTE
    ../clib/scanf.c                          0x00000000   Number         0  _scanf.o ABSOLUTE
    ../clib/scanf.c                          0x00000000   Number         0  _chval.o ABSOLUTE
    ../clib/scanf.c                          0x00000000   Number         0  scanf_char.o ABSOLUTE
    ../clib/scanf.c                          0x00000000   Number         0  __0sscanf.o ABSOLUTE
    ../clib/scanf.c                          0x00000000   Number         0  _sgetc.o ABSOLUTE
    ../fplib/microlib/d2f.c                  0x00000000   Number         0  d2f.o ABSOLUTE
    ../fplib/microlib/f2d.c                  0x00000000   Number         0  f2d.o ABSOLUTE
    ../fplib/microlib/fpadd.c                0x00000000   Number         0  dadd.o ABSOLUTE
    ../fplib/microlib/fpadd.c                0x00000000   Number         0  fadd.o ABSOLUTE
    ../fplib/microlib/fpdiv.c                0x00000000   Number         0  ddiv.o ABSOLUTE
    ../fplib/microlib/fpepilogue.c           0x00000000   Number         0  fepilogue.o ABSOLUTE
    ../fplib/microlib/fpepilogue.c           0x00000000   Number         0  depilogue.o ABSOLUTE
    ../fplib/microlib/fpfix.c                0x00000000   Number         0  ffixui.o ABSOLUTE
    ../fplib/microlib/fpfix.c                0x00000000   Number         0  dfixi.o ABSOLUTE
    ../fplib/microlib/fpfix.c                0x00000000   Number         0  dfixul.o ABSOLUTE
    ../fplib/microlib/fpfix.c                0x00000000   Number         0  dfixui.o ABSOLUTE
    ../fplib/microlib/fpflt.c                0x00000000   Number         0  dfltul.o ABSOLUTE
    ../fplib/microlib/fpflt.c                0x00000000   Number         0  dfltui.o ABSOLUTE
    ../fplib/microlib/fpflt.c                0x00000000   Number         0  dflti.o ABSOLUTE
    ../fplib/microlib/fpmul.c                0x00000000   Number         0  dmul.o ABSOLUTE
    ../fplib/microlib/fpscalb.c              0x00000000   Number         0  dscalb.o ABSOLUTE
    ../mathlib/atof.c                        0x00000000   Number         0  atof.o ABSOLUTE
    ../mathlib/strtod.c                      0x00000000   Number         0  strtod.o ABSOLUTE
    ..\Core\Src\Roter.c                      0x00000000   Number         0  roter.o ABSOLUTE
    ..\Core\Src\adc.c                        0x00000000   Number         0  adc.o ABSOLUTE
    ..\Core\Src\control.c                    0x00000000   Number         0  control.o ABSOLUTE
    ..\Core\Src\dma.c                        0x00000000   Number         0  dma.o ABSOLUTE
    ..\Core\Src\freertos.c                   0x00000000   Number         0  freertos.o ABSOLUTE
    ..\Core\Src\gpio.c                       0x00000000   Number         0  gpio.o ABSOLUTE
    ..\Core\Src\gps.c                        0x00000000   Number         0  gps.o ABSOLUTE
    ..\Core\Src\lqueue.c                     0x00000000   Number         0  lqueue.o ABSOLUTE
    ..\Core\Src\main.c                       0x00000000   Number         0  main.o ABSOLUTE
    ..\Core\Src\stm32f1xx_hal_msp.c          0x00000000   Number         0  stm32f1xx_hal_msp.o ABSOLUTE
    ..\Core\Src\stm32f1xx_hal_timebase_tim.c 0x00000000   Number         0  stm32f1xx_hal_timebase_tim.o ABSOLUTE
    ..\Core\Src\stm32f1xx_it.c               0x00000000   Number         0  stm32f1xx_it.o ABSOLUTE
    ..\Core\Src\system_stm32f1xx.c           0x00000000   Number         0  system_stm32f1xx.o ABSOLUTE
    ..\Core\Src\usart.c                      0x00000000   Number         0  usart.o ABSOLUTE
    ..\Drivers\STM32F1xx_HAL_Driver\Src\stm32f1xx_hal.c 0x00000000   Number         0  stm32f1xx_hal.o ABSOLUTE
    ..\Drivers\STM32F1xx_HAL_Driver\Src\stm32f1xx_hal_adc.c 0x00000000   Number         0  stm32f1xx_hal_adc.o ABSOLUTE
    ..\Drivers\STM32F1xx_HAL_Driver\Src\stm32f1xx_hal_adc_ex.c 0x00000000   Number         0  stm32f1xx_hal_adc_ex.o ABSOLUTE
    ..\Drivers\STM32F1xx_HAL_Driver\Src\stm32f1xx_hal_cortex.c 0x00000000   Number         0  stm32f1xx_hal_cortex.o ABSOLUTE
    ..\Drivers\STM32F1xx_HAL_Driver\Src\stm32f1xx_hal_dma.c 0x00000000   Number         0  stm32f1xx_hal_dma.o ABSOLUTE
    ..\Drivers\STM32F1xx_HAL_Driver\Src\stm32f1xx_hal_exti.c 0x00000000   Number         0  stm32f1xx_hal_exti.o ABSOLUTE
    ..\Drivers\STM32F1xx_HAL_Driver\Src\stm32f1xx_hal_flash.c 0x00000000   Number         0  stm32f1xx_hal_flash.o ABSOLUTE
    ..\Drivers\STM32F1xx_HAL_Driver\Src\stm32f1xx_hal_flash_ex.c 0x00000000   Number         0  stm32f1xx_hal_flash_ex.o ABSOLUTE
    ..\Drivers\STM32F1xx_HAL_Driver\Src\stm32f1xx_hal_gpio.c 0x00000000   Number         0  stm32f1xx_hal_gpio.o ABSOLUTE
    ..\Drivers\STM32F1xx_HAL_Driver\Src\stm32f1xx_hal_gpio_ex.c 0x00000000   Number         0  stm32f1xx_hal_gpio_ex.o ABSOLUTE
    ..\Drivers\STM32F1xx_HAL_Driver\Src\stm32f1xx_hal_pwr.c 0x00000000   Number         0  stm32f1xx_hal_pwr.o ABSOLUTE
    ..\Drivers\STM32F1xx_HAL_Driver\Src\stm32f1xx_hal_rcc.c 0x00000000   Number         0  stm32f1xx_hal_rcc.o ABSOLUTE
    ..\Drivers\STM32F1xx_HAL_Driver\Src\stm32f1xx_hal_rcc_ex.c 0x00000000   Number         0  stm32f1xx_hal_rcc_ex.o ABSOLUTE
    ..\Drivers\STM32F1xx_HAL_Driver\Src\stm32f1xx_hal_tim.c 0x00000000   Number         0  stm32f1xx_hal_tim.o ABSOLUTE
    ..\Drivers\STM32F1xx_HAL_Driver\Src\stm32f1xx_hal_tim_ex.c 0x00000000   Number         0  stm32f1xx_hal_tim_ex.o ABSOLUTE
    ..\Drivers\STM32F1xx_HAL_Driver\Src\stm32f1xx_hal_uart.c 0x00000000   Number         0  stm32f1xx_hal_uart.o ABSOLUTE
    ..\Middlewares\Third_Party\FreeRTOS\Source\CMSIS_RTOS\cmsis_os.c 0x00000000   Number         0  cmsis_os.o ABSOLUTE
    ..\Middlewares\Third_Party\FreeRTOS\Source\portable\RVDS\ARM_CM3\port.c 0x00000000   Number         0  port.o ABSOLUTE
    ..\\Core\\Src\\Roter.c                   0x00000000   Number         0  roter.o ABSOLUTE
    ..\\Core\\Src\\control.c                 0x00000000   Number         0  control.o ABSOLUTE
    cdrcmple.s                               0x00000000   Number         0  cdrcmple.o ABSOLUTE
    dc.s                                     0x00000000   Number         0  dc.o ABSOLUTE
    handlers.s                               0x00000000   Number         0  handlers.o ABSOLUTE
    init.s                                   0x00000000   Number         0  init.o ABSOLUTE
    startup_stm32f103xe.s                    0x00000000   Number         0  startup_stm32f103xe.o ABSOLUTE
    RESET                                    0x08000000   Section      304  startup_stm32f103xe.o(RESET)
    .ARM.Collect$$$$00000000                 0x08000130   Section        0  entry.o(.ARM.Collect$$$$00000000)
    .ARM.Collect$$$$00000001                 0x08000130   Section        4  entry2.o(.ARM.Collect$$$$00000001)
    .ARM.Collect$$$$00000004                 0x08000134   Section        4  entry5.o(.ARM.Collect$$$$00000004)
    .ARM.Collect$$$$00000008                 0x08000138   Section        0  entry7b.o(.ARM.Collect$$$$00000008)
    .ARM.Collect$$$$0000000A                 0x08000138   Section        0  entry8b.o(.ARM.Collect$$$$0000000A)
    .ARM.Collect$$$$0000000B                 0x08000138   Section        8  entry9a.o(.ARM.Collect$$$$0000000B)
    .ARM.Collect$$$$0000000D                 0x08000140   Section        0  entry10a.o(.ARM.Collect$$$$0000000D)
    .ARM.Collect$$$$0000000F                 0x08000140   Section        0  entry11a.o(.ARM.Collect$$$$0000000F)
    .ARM.Collect$$$$00002712                 0x08000140   Section        4  entry2.o(.ARM.Collect$$$$00002712)
    __lit__00000000                          0x08000140   Data           4  entry2.o(.ARM.Collect$$$$00002712)
    .emb_text                                0x08000144   Section      150  port.o(.emb_text)
    .text                                    0x080001dc   Section       36  startup_stm32f103xe.o(.text)
    .text                                    0x08000200   Section        0  llushr.o(.text)
    .text                                    0x08000220   Section        0  memmovea.o(.text)
    .text                                    0x08000260   Section        0  memseta.o(.text)
    .text                                    0x08000284   Section        0  strncpy.o(.text)
    .text                                    0x0800029c   Section        0  strlen.o(.text)
    .text                                    0x080002aa   Section        0  strcpy.o(.text)
    .text                                    0x080002bc   Section        0  strncmp.o(.text)
    .text                                    0x080002dc   Section        0  strtok.o(.text)
    .text                                    0x08000320   Section        0  __0sscanf.o(.text)
    .text                                    0x08000358   Section        0  _scanf_int.o(.text)
    .text                                    0x080004a4   Section        0  strtol.o(.text)
    .text                                    0x08000514   Section        0  atoi.o(.text)
    .text                                    0x0800052e   Section        0  fadd.o(.text)
    .text                                    0x080005de   Section        0  dadd.o(.text)
    .text                                    0x0800072c   Section        0  dmul.o(.text)
    .text                                    0x08000810   Section        0  ddiv.o(.text)
    .text                                    0x080008ee   Section        0  dscalb.o(.text)
    .text                                    0x0800091c   Section        0  dflti.o(.text)
    .text                                    0x0800093e   Section        0  dfltui.o(.text)
    .text                                    0x08000958   Section        0  ffixui.o(.text)
    .text                                    0x08000980   Section        0  dfixi.o(.text)
    .text                                    0x080009be   Section        0  dfixui.o(.text)
    .text                                    0x080009f0   Section        0  f2d.o(.text)
    .text                                    0x08000a16   Section        0  d2f.o(.text)
    .text                                    0x08000a4e   Section        0  uidiv.o(.text)
    .text                                    0x08000a7a   Section        0  llshl.o(.text)
    .text                                    0x08000a98   Section        0  llsshr.o(.text)
    .text                                    0x08000abc   Section        0  ctype_o.o(.text)
    .text                                    0x08000ac4   Section        0  isspace_o.o(.text)
    .text                                    0x08000ad6   Section        0  _chval.o(.text)
    .text                                    0x08000af4   Section        0  scanf_char.o(.text)
    _scanf_char_input                        0x08000af5   Thumb Code    12  scanf_char.o(.text)
    .text                                    0x08000b1c   Section        0  _sgetc.o(.text)
    .text                                    0x08000b5c   Section        0  _strtoul.o(.text)
    .text                                    0x08000bfc   Section        0  strtod.o(.text)
    _local_sscanf                            0x08000bfd   Thumb Code    54  strtod.o(.text)
    .text                                    0x08000c98   Section        0  fepilogue.o(.text)
    .text                                    0x08000c98   Section        0  iusefp.o(.text)
    .text                                    0x08000d06   Section        0  depilogue.o(.text)
    .text                                    0x08000dc0   Section       36  init.o(.text)
    .text                                    0x08000de4   Section        0  _scanf.o(.text)
    .text                                    0x08001110   Section        0  scanf_fp.o(.text)
    _fp_value                                0x08001111   Thumb Code   296  scanf_fp.o(.text)
    .text                                    0x08001470   Section        0  dfltul.o(.text)
    .text                                    0x08001488   Section        0  __dczerorl2.o(.text)
    i.ADC_BAT_Test                           0x080014e0   Section        0  control.o(i.ADC_BAT_Test)
    i.ADC_ConversionStop_Disable             0x08001578   Section        0  stm32f1xx_hal_adc.o(i.ADC_ConversionStop_Disable)
    i.ADC_Enable                             0x080015d0   Section        0  stm32f1xx_hal_adc.o(i.ADC_Enable)
    i.BlueHostConnect                        0x0800164c   Section        0  control.o(i.BlueHostConnect)
    i.BlueSlaveConnect                       0x080016a0   Section        0  control.o(i.BlueSlaveConnect)
    i.BlueStart                              0x08001740   Section        0  control.o(i.BlueStart)
    i.BlueWeakUp                             0x08001824   Section        0  control.o(i.BlueWeakUp)
    i.BusFault_Handler                       0x080018a0   Section        0  stm32f1xx_it.o(i.BusFault_Handler)
    i.ControlFuntion                         0x080018a4   Section        0  control.o(i.ControlFuntion)
    i.CopyAngleDataToUsart1                  0x080019a4   Section        0  control.o(i.CopyAngleDataToUsart1)
    i.CopyGpsDataToUsart1                    0x080019d4   Section        0  control.o(i.CopyGpsDataToUsart1)
    i.Create_Empty_Queue                     0x08001a40   Section        0  lqueue.o(i.Create_Empty_Queue)
    i.DMA1_Channel2_IRQHandler               0x08001a64   Section        0  stm32f1xx_it.o(i.DMA1_Channel2_IRQHandler)
    i.DMA1_Channel3_IRQHandler               0x08001a70   Section        0  stm32f1xx_it.o(i.DMA1_Channel3_IRQHandler)
    i.DMA1_Channel4_IRQHandler               0x08001a7c   Section        0  stm32f1xx_it.o(i.DMA1_Channel4_IRQHandler)
    i.DMA1_Channel5_IRQHandler               0x08001a88   Section        0  stm32f1xx_it.o(i.DMA1_Channel5_IRQHandler)
    i.DMA1_Channel6_IRQHandler               0x08001a94   Section        0  stm32f1xx_it.o(i.DMA1_Channel6_IRQHandler)
    i.DMA1_Channel7_IRQHandler               0x08001aa0   Section        0  stm32f1xx_it.o(i.DMA1_Channel7_IRQHandler)
    i.DMA2_Channel3_IRQHandler               0x08001aac   Section        0  stm32f1xx_it.o(i.DMA2_Channel3_IRQHandler)
    i.DMA2_Channel4_5_IRQHandler             0x08001ab8   Section        0  stm32f1xx_it.o(i.DMA2_Channel4_5_IRQHandler)
    i.DMA_SetConfig                          0x08001ac4   Section        0  stm32f1xx_hal_dma.o(i.DMA_SetConfig)
    DMA_SetConfig                            0x08001ac5   Thumb Code    42  stm32f1xx_hal_dma.o(i.DMA_SetConfig)
    i.DataParseCondition                     0x08001af0   Section        0  roter.o(i.DataParseCondition)
    i.DataParseFunction                      0x08001b90   Section        0  control.o(i.DataParseFunction)
    i.DataParseLocation                      0x08001d08   Section        0  roter.o(i.DataParseLocation)
    i.DataParsePolice                        0x08001d64   Section        0  roter.o(i.DataParsePolice)
    i.DataParseRoter1                        0x08001de0   Section        0  control.o(i.DataParseRoter1)
    i.DataParseRoter5                        0x08001e88   Section        0  control.o(i.DataParseRoter5)
    i.DebugMon_Handler                       0x08001f30   Section        0  stm32f1xx_it.o(i.DebugMon_Handler)
    i.Dequeue                                0x08001f32   Section        0  lqueue.o(i.Dequeue)
    i.EXTI0_IRQHandler                       0x08001f62   Section        0  stm32f1xx_it.o(i.EXTI0_IRQHandler)
    i.EXTI1_IRQHandler                       0x08001f68   Section        0  stm32f1xx_it.o(i.EXTI1_IRQHandler)
    i.EXTI9_5_IRQHandler                     0x08001f6e   Section        0  stm32f1xx_it.o(i.EXTI9_5_IRQHandler)
    i.Enqueue                                0x08001f84   Section        0  lqueue.o(i.Enqueue)
    i.Enqueue_Bytes                          0x08001fb2   Section        0  lqueue.o(i.Enqueue_Bytes)
    i.Error_Handler                          0x08001fdc   Section        0  main.o(i.Error_Handler)
    i.FireGun                                0x08001fe0   Section        0  control.o(i.FireGun)
    i.FireGunControl                         0x08001ff8   Section        0  control.o(i.FireGunControl)
    i.HAL_ADCEx_Calibration_Start            0x0800202c   Section        0  stm32f1xx_hal_adc_ex.o(i.HAL_ADCEx_Calibration_Start)
    i.HAL_ADC_ConfigChannel                  0x08002104   Section        0  stm32f1xx_hal_adc.o(i.HAL_ADC_ConfigChannel)
    i.HAL_ADC_GetValue                       0x08002200   Section        0  stm32f1xx_hal_adc.o(i.HAL_ADC_GetValue)
    i.HAL_ADC_Init                           0x08002208   Section        0  stm32f1xx_hal_adc.o(i.HAL_ADC_Init)
    i.HAL_ADC_MspInit                        0x08002328   Section        0  adc.o(i.HAL_ADC_MspInit)
    i.HAL_ADC_PollForConversion              0x08002380   Section        0  stm32f1xx_hal_adc.o(i.HAL_ADC_PollForConversion)
    i.HAL_ADC_Start                          0x080024bc   Section        0  stm32f1xx_hal_adc.o(i.HAL_ADC_Start)
    i.HAL_DMA_Abort                          0x0800257c   Section        0  stm32f1xx_hal_dma.o(i.HAL_DMA_Abort)
    i.HAL_DMA_Abort_IT                       0x080025c4   Section        0  stm32f1xx_hal_dma.o(i.HAL_DMA_Abort_IT)
    i.HAL_DMA_IRQHandler                     0x080026f4   Section        0  stm32f1xx_hal_dma.o(i.HAL_DMA_IRQHandler)
    i.HAL_DMA_Init                           0x0800293c   Section        0  stm32f1xx_hal_dma.o(i.HAL_DMA_Init)
    i.HAL_DMA_Start_IT                       0x080029b8   Section        0  stm32f1xx_hal_dma.o(i.HAL_DMA_Start_IT)
    i.HAL_Delay                              0x08002a28   Section        0  stm32f1xx_hal.o(i.HAL_Delay)
    i.HAL_GPIO_EXTI_Callback                 0x08002a4c   Section        0  stm32f1xx_it.o(i.HAL_GPIO_EXTI_Callback)
    i.HAL_GPIO_EXTI_IRQHandler               0x08002a9c   Section        0  stm32f1xx_hal_gpio.o(i.HAL_GPIO_EXTI_IRQHandler)
    i.HAL_GPIO_Init                          0x08002ab4   Section        0  stm32f1xx_hal_gpio.o(i.HAL_GPIO_Init)
    i.HAL_GPIO_TogglePin                     0x08002cac   Section        0  stm32f1xx_hal_gpio.o(i.HAL_GPIO_TogglePin)
    i.HAL_GPIO_WritePin                      0x08002cbc   Section        0  stm32f1xx_hal_gpio.o(i.HAL_GPIO_WritePin)
    i.HAL_GetTick                            0x08002cc8   Section        0  stm32f1xx_hal.o(i.HAL_GetTick)
    i.HAL_IncTick                            0x08002cd4   Section        0  stm32f1xx_hal.o(i.HAL_IncTick)
    i.HAL_Init                               0x08002ce4   Section        0  stm32f1xx_hal.o(i.HAL_Init)
    i.HAL_InitTick                           0x08002d08   Section        0  stm32f1xx_hal_timebase_tim.o(i.HAL_InitTick)
    i.HAL_MspInit                            0x08002d94   Section        0  stm32f1xx_hal_msp.o(i.HAL_MspInit)
    i.HAL_NVIC_EnableIRQ                     0x08002ddc   Section        0  stm32f1xx_hal_cortex.o(i.HAL_NVIC_EnableIRQ)
    i.HAL_NVIC_SetPriority                   0x08002df8   Section        0  stm32f1xx_hal_cortex.o(i.HAL_NVIC_SetPriority)
    i.HAL_NVIC_SetPriorityGrouping           0x08002e38   Section        0  stm32f1xx_hal_cortex.o(i.HAL_NVIC_SetPriorityGrouping)
    i.HAL_RCCEx_GetPeriphCLKFreq             0x08002e5c   Section        0  stm32f1xx_hal_rcc_ex.o(i.HAL_RCCEx_GetPeriphCLKFreq)
    i.HAL_RCCEx_PeriphCLKConfig              0x08002f14   Section        0  stm32f1xx_hal_rcc_ex.o(i.HAL_RCCEx_PeriphCLKConfig)
    i.HAL_RCC_ClockConfig                    0x08003000   Section        0  stm32f1xx_hal_rcc.o(i.HAL_RCC_ClockConfig)
    i.HAL_RCC_GetClockConfig                 0x0800312c   Section        0  stm32f1xx_hal_rcc.o(i.HAL_RCC_GetClockConfig)
    i.HAL_RCC_GetPCLK1Freq                   0x0800316c   Section        0  stm32f1xx_hal_rcc.o(i.HAL_RCC_GetPCLK1Freq)
    i.HAL_RCC_GetPCLK2Freq                   0x0800318c   Section        0  stm32f1xx_hal_rcc.o(i.HAL_RCC_GetPCLK2Freq)
    i.HAL_RCC_GetSysClockFreq                0x080031ac   Section        0  stm32f1xx_hal_rcc.o(i.HAL_RCC_GetSysClockFreq)
    i.HAL_RCC_OscConfig                      0x08003200   Section        0  stm32f1xx_hal_rcc.o(i.HAL_RCC_OscConfig)
    i.HAL_TIMEx_BreakCallback                0x08003520   Section        0  stm32f1xx_hal_tim_ex.o(i.HAL_TIMEx_BreakCallback)
    i.HAL_TIMEx_CommutCallback               0x08003522   Section        0  stm32f1xx_hal_tim_ex.o(i.HAL_TIMEx_CommutCallback)
    i.HAL_TIM_Base_Init                      0x08003524   Section        0  stm32f1xx_hal_tim.o(i.HAL_TIM_Base_Init)
    i.HAL_TIM_Base_MspInit                   0x0800357e   Section        0  stm32f1xx_hal_tim.o(i.HAL_TIM_Base_MspInit)
    i.HAL_TIM_Base_Start_IT                  0x08003580   Section        0  stm32f1xx_hal_tim.o(i.HAL_TIM_Base_Start_IT)
    i.HAL_TIM_IC_CaptureCallback             0x080035ec   Section        0  stm32f1xx_hal_tim.o(i.HAL_TIM_IC_CaptureCallback)
    i.HAL_TIM_IRQHandler                     0x080035ee   Section        0  stm32f1xx_hal_tim.o(i.HAL_TIM_IRQHandler)
    i.HAL_TIM_OC_DelayElapsedCallback        0x08003754   Section        0  stm32f1xx_hal_tim.o(i.HAL_TIM_OC_DelayElapsedCallback)
    i.HAL_TIM_PWM_PulseFinishedCallback      0x08003756   Section        0  stm32f1xx_hal_tim.o(i.HAL_TIM_PWM_PulseFinishedCallback)
    i.HAL_TIM_PeriodElapsedCallback          0x08003758   Section        0  main.o(i.HAL_TIM_PeriodElapsedCallback)
    i.HAL_TIM_TriggerCallback                0x0800376c   Section        0  stm32f1xx_hal_tim.o(i.HAL_TIM_TriggerCallback)
    i.HAL_UARTEx_ReceiveToIdle_IT            0x0800376e   Section        0  stm32f1xx_hal_uart.o(i.HAL_UARTEx_ReceiveToIdle_IT)
    i.HAL_UARTEx_RxEventCallback             0x080037bc   Section        0  stm32f1xx_it.o(i.HAL_UARTEx_RxEventCallback)
    i.HAL_UART_ErrorCallback                 0x08003800   Section        0  stm32f1xx_hal_uart.o(i.HAL_UART_ErrorCallback)
    i.HAL_UART_IRQHandler                    0x08003804   Section        0  stm32f1xx_hal_uart.o(i.HAL_UART_IRQHandler)
    i.HAL_UART_Init                          0x08003a70   Section        0  stm32f1xx_hal_uart.o(i.HAL_UART_Init)
    i.HAL_UART_MspInit                       0x08003ad4   Section        0  usart.o(i.HAL_UART_MspInit)
    i.HAL_UART_Receive_DMA                   0x08003e84   Section        0  stm32f1xx_hal_uart.o(i.HAL_UART_Receive_DMA)
    i.HAL_UART_RxCpltCallback                0x08003ea0   Section        0  stm32f1xx_it.o(i.HAL_UART_RxCpltCallback)
    i.HAL_UART_RxHalfCpltCallback            0x08003f48   Section        0  stm32f1xx_it.o(i.HAL_UART_RxHalfCpltCallback)
    i.HAL_UART_Transmit                      0x08003ffc   Section        0  stm32f1xx_hal_uart.o(i.HAL_UART_Transmit)
    i.HAL_UART_TxCpltCallback                0x08004096   Section        0  stm32f1xx_hal_uart.o(i.HAL_UART_TxCpltCallback)
    i.HardFault_Handler                      0x08004098   Section        0  stm32f1xx_it.o(i.HardFault_Handler)
    i.MX_ADC1_Init                           0x0800409c   Section        0  adc.o(i.MX_ADC1_Init)
    i.MX_DMA_Init                            0x080040ec   Section        0  dma.o(i.MX_DMA_Init)
    i.MX_FREERTOS_Init                       0x08004198   Section        0  freertos.o(i.MX_FREERTOS_Init)
    i.MX_GPIO_Init                           0x08004224   Section        0  gpio.o(i.MX_GPIO_Init)
    i.MX_UART4_Init                          0x08004394   Section        0  usart.o(i.MX_UART4_Init)
    i.MX_UART5_Init                          0x080043cc   Section        0  usart.o(i.MX_UART5_Init)
    i.MX_USART1_UART_Init                    0x08004404   Section        0  usart.o(i.MX_USART1_UART_Init)
    i.MX_USART2_UART_Init                    0x0800443c   Section        0  usart.o(i.MX_USART2_UART_Init)
    i.MX_USART3_UART_Init                    0x08004474   Section        0  usart.o(i.MX_USART3_UART_Init)
    i.MemManage_Handler                      0x080044ac   Section        0  stm32f1xx_it.o(i.MemManage_Handler)
    i.NMI_Handler                            0x080044ae   Section        0  stm32f1xx_it.o(i.NMI_Handler)
    i.ProcessCmdBuffer                       0x080044b0   Section        0  roter.o(i.ProcessCmdBuffer)
    i.Queue_Is_Empty                         0x08004564   Section        0  lqueue.o(i.Queue_Is_Empty)
    i.Queue_Is_Full                          0x08004574   Section        0  lqueue.o(i.Queue_Is_Full)
    i.Queue_Size                             0x08004596   Section        0  lqueue.o(i.Queue_Size)
    i.RemovePoliceToRoter                    0x080045b0   Section        0  roter.o(i.RemovePoliceToRoter)
    i.Roter1Error                            0x080045f0   Section        0  control.o(i.Roter1Error)
    i.Roter5Error                            0x08004648   Section        0  control.o(i.Roter5Error)
    i.RoterAngle1                            0x080046a0   Section        0  roter.o(i.RoterAngle1)
    i.RoterAngle5                            0x0800472c   Section        0  roter.o(i.RoterAngle5)
    i.RoterRelativeAngle1                    0x080047b8   Section        0  roter.o(i.RoterRelativeAngle1)
    i.RoterRelativeAngle5                    0x08004830   Section        0  roter.o(i.RoterRelativeAngle5)
    i.STM32_Comm1_Parse                      0x080048a8   Section        0  control.o(i.STM32_Comm1_Parse)
    i.STM32_Comm2_Parse                      0x080048f4   Section        0  control.o(i.STM32_Comm2_Parse)
    i.STM32_Comm3_Parse                      0x08004944   Section        0  control.o(i.STM32_Comm3_Parse)
    i.STM32_Comm4_Parse                      0x08004994   Section        0  control.o(i.STM32_Comm4_Parse)
    i.STM32_Control                          0x08004a14   Section        0  control.o(i.STM32_Control)
    i.STM32_Queue_Init                       0x08004a3c   Section        0  control.o(i.STM32_Queue_Init)
    i.SendCmdToBuf                           0x08004a70   Section        0  roter.o(i.SendCmdToBuf)
    i.SendDataByUART                         0x08004b28   Section        0  control.o(i.SendDataByUART)
    i.SendRoterPolice                        0x08004be4   Section        0  control.o(i.SendRoterPolice)
    i.SetInching                             0x08004c24   Section        0  roter.o(i.SetInching)
    i.SetPeriodicity                         0x08004c2c   Section        0  roter.o(i.SetPeriodicity)
    i.SetRestoration                         0x08004c7c   Section        0  roter.o(i.SetRestoration)
    i.SetRoterInit                           0x08004ca8   Section        0  roter.o(i.SetRoterInit)
    i.StartDefaultTask                       0x08004dbc   Section        0  freertos.o(i.StartDefaultTask)
    i.StartTask02                            0x08004de0   Section        0  freertos.o(i.StartTask02)
    i.StartTask03                            0x08004e14   Section        0  freertos.o(i.StartTask03)
    i.StartTask04                            0x08004e48   Section        0  freertos.o(i.StartTask04)
    i.StartTask05                            0x08004e7c   Section        0  freertos.o(i.StartTask05)
    i.SysTick_Handler                        0x08004eb0   Section        0  port.o(i.SysTick_Handler)
    i.SystemClock_Config                     0x08004edc   Section        0  main.o(i.SystemClock_Config)
    i.SystemInit                             0x08004f54   Section        0  system_stm32f1xx.o(i.SystemInit)
    i.TIM1_UP_IRQHandler                     0x08004f58   Section        0  stm32f1xx_it.o(i.TIM1_UP_IRQHandler)
    i.TIM_Base_SetConfig                     0x08004f64   Section        0  stm32f1xx_hal_tim.o(i.TIM_Base_SetConfig)
    i.UART2DataParse                         0x08004ff0   Section        0  roter.o(i.UART2DataParse)
    i.UART4_IRQHandler                       0x080050c8   Section        0  stm32f1xx_it.o(i.UART4_IRQHandler)
    i.UART5_IRQHandler                       0x080050e0   Section        0  stm32f1xx_it.o(i.UART5_IRQHandler)
    i.UART_DMAAbortOnError                   0x080050ec   Section        0  stm32f1xx_hal_uart.o(i.UART_DMAAbortOnError)
    UART_DMAAbortOnError                     0x080050ed   Thumb Code    16  stm32f1xx_hal_uart.o(i.UART_DMAAbortOnError)
    i.UART_DMAError                          0x080050fc   Section        0  stm32f1xx_hal_uart.o(i.UART_DMAError)
    UART_DMAError                            0x080050fd   Thumb Code    74  stm32f1xx_hal_uart.o(i.UART_DMAError)
    i.UART_DMAReceiveCplt                    0x08005146   Section        0  stm32f1xx_hal_uart.o(i.UART_DMAReceiveCplt)
    UART_DMAReceiveCplt                      0x08005147   Thumb Code   134  stm32f1xx_hal_uart.o(i.UART_DMAReceiveCplt)
    i.UART_DMARxHalfCplt                     0x080051cc   Section        0  stm32f1xx_hal_uart.o(i.UART_DMARxHalfCplt)
    UART_DMARxHalfCplt                       0x080051cd   Thumb Code    30  stm32f1xx_hal_uart.o(i.UART_DMARxHalfCplt)
    i.UART_EndRxTransfer                     0x080051ea   Section        0  stm32f1xx_hal_uart.o(i.UART_EndRxTransfer)
    UART_EndRxTransfer                       0x080051eb   Thumb Code    78  stm32f1xx_hal_uart.o(i.UART_EndRxTransfer)
    i.UART_EndTxTransfer                     0x08005238   Section        0  stm32f1xx_hal_uart.o(i.UART_EndTxTransfer)
    UART_EndTxTransfer                       0x08005239   Thumb Code    28  stm32f1xx_hal_uart.o(i.UART_EndTxTransfer)
    i.UART_Receive_IT                        0x08005254   Section        0  stm32f1xx_hal_uart.o(i.UART_Receive_IT)
    UART_Receive_IT                          0x08005255   Thumb Code   194  stm32f1xx_hal_uart.o(i.UART_Receive_IT)
    i.UART_SetConfig                         0x08005318   Section        0  stm32f1xx_hal_uart.o(i.UART_SetConfig)
    UART_SetConfig                           0x08005319   Thumb Code   178  stm32f1xx_hal_uart.o(i.UART_SetConfig)
    i.UART_Start_Receive_DMA                 0x080053d0   Section        0  stm32f1xx_hal_uart.o(i.UART_Start_Receive_DMA)
    i.UART_Start_Receive_IT                  0x08005460   Section        0  stm32f1xx_hal_uart.o(i.UART_Start_Receive_IT)
    i.UART_WaitOnFlagUntilTimeout            0x08005496   Section        0  stm32f1xx_hal_uart.o(i.UART_WaitOnFlagUntilTimeout)
    UART_WaitOnFlagUntilTimeout              0x08005497   Thumb Code   120  stm32f1xx_hal_uart.o(i.UART_WaitOnFlagUntilTimeout)
    i.USART1_IRQHandler                      0x08005510   Section        0  stm32f1xx_it.o(i.USART1_IRQHandler)
    i.USART2_IRQHandler                      0x08005528   Section        0  stm32f1xx_it.o(i.USART2_IRQHandler)
    i.USART3_IRQHandler                      0x08005540   Section        0  stm32f1xx_it.o(i.USART3_IRQHandler)
    i.USER_UART_IRQHandler                   0x08005558   Section        0  stm32f1xx_it.o(i.USER_UART_IRQHandler)
    i.UsageFault_Handler                     0x08005698   Section        0  stm32f1xx_it.o(i.UsageFault_Handler)
    i.__0printf$1                            0x0800569c   Section        0  printf1.o(i.__0printf$1)
    i.__NVIC_SetPriority                     0x080056bc   Section        0  stm32f1xx_hal_cortex.o(i.__NVIC_SetPriority)
    __NVIC_SetPriority                       0x080056bd   Thumb Code    32  stm32f1xx_hal_cortex.o(i.__NVIC_SetPriority)
    i.__aeabi_errno_addr                     0x080056dc   Section        0  errno.o(i.__aeabi_errno_addr)
    i.__free$realloc                         0x080056e4   Section        0  mallocr.o(i.__free$realloc)
    i.__malloc$realloc                       0x08005740   Section        0  mallocr.o(i.__malloc$realloc)
    i.__read_errno                           0x08005790   Section        0  errno.o(i.__read_errno)
    i.__scatterload_copy                     0x0800579c   Section       14  handlers.o(i.__scatterload_copy)
    i.__scatterload_null                     0x080057aa   Section        2  handlers.o(i.__scatterload_null)
    i.__scatterload_zeroinit                 0x080057ac   Section       14  handlers.o(i.__scatterload_zeroinit)
    i.__set_errno                            0x080057bc   Section        0  errno.o(i.__set_errno)
    i._is_digit                              0x080057c8   Section        0  scanf_fp.o(i._is_digit)
    i._printf_core                           0x080057d8   Section        0  printf1.o(i._printf_core)
    _printf_core                             0x080057d9   Thumb Code   336  printf1.o(i._printf_core)
    i.atof                                   0x0800592c   Section        0  atof.o(i.atof)
    i.calculate_checksum                     0x08005956   Section        0  control.o(i.calculate_checksum)
    i.check_sum                              0x08005970   Section        0  roter.o(i.check_sum)
    i.crc16                                  0x0800598e   Section        0  roter.o(i.crc16)
    i.fputc                                  0x080059c8   Section        0  usart.o(i.fputc)
    i.hexToBinChar                           0x080059e0   Section        0  roter.o(i.hexToBinChar)
    i.hex_to_int                             0x08005a0c   Section        0  roter.o(i.hex_to_int)
    i.inHandlerMode                          0x08005a2c   Section        0  cmsis_os.o(i.inHandlerMode)
    inHandlerMode                            0x08005a2d   Thumb Code    16  cmsis_os.o(i.inHandlerMode)
    i.insertZerosBetweenCommas               0x08005a3c   Section        0  gps.o(i.insertZerosBetweenCommas)
    i.int_to_hex                             0x08005aac   Section        0  roter.o(i.int_to_hex)
    i.internal_alloc                         0x08005abc   Section        0  mallocr.o(i.internal_alloc)
    internal_alloc                           0x08005abd   Thumb Code    76  mallocr.o(i.internal_alloc)
    i.main                                   0x08005b0c   Section        0  main.o(i.main)
    i.makeFreeRtosPriority                   0x08005be8   Section        0  cmsis_os.o(i.makeFreeRtosPriority)
    makeFreeRtosPriority                     0x08005be9   Thumb Code    12  cmsis_os.o(i.makeFreeRtosPriority)
    i.osDelay                                0x08005bf4   Section        0  cmsis_os.o(i.osDelay)
    i.osKernelStart                          0x08005c04   Section        0  cmsis_os.o(i.osKernelStart)
    i.osMutexCreate                          0x08005c0e   Section        0  cmsis_os.o(i.osMutexCreate)
    i.osMutexRelease                         0x08005c20   Section        0  cmsis_os.o(i.osMutexRelease)
    i.osMutexWait                            0x08005c70   Section        0  cmsis_os.o(i.osMutexWait)
    i.osThreadCreate                         0x08005cd8   Section        0  cmsis_os.o(i.osThreadCreate)
    i.prvAddCurrentTaskToDelayedList         0x08005d34   Section        0  tasks.o(i.prvAddCurrentTaskToDelayedList)
    prvAddCurrentTaskToDelayedList           0x08005d35   Thumb Code   110  tasks.o(i.prvAddCurrentTaskToDelayedList)
    i.prvAddNewTaskToReadyList               0x08005dac   Section        0  tasks.o(i.prvAddNewTaskToReadyList)
    prvAddNewTaskToReadyList                 0x08005dad   Thumb Code   124  tasks.o(i.prvAddNewTaskToReadyList)
    i.prvCheckTasksWaitingTermination        0x08005e34   Section        0  tasks.o(i.prvCheckTasksWaitingTermination)
    prvCheckTasksWaitingTermination          0x08005e35   Thumb Code    56  tasks.o(i.prvCheckTasksWaitingTermination)
    i.prvCopyDataFromQueue                   0x08005e74   Section        0  queue.o(i.prvCopyDataFromQueue)
    prvCopyDataFromQueue                     0x08005e75   Thumb Code    36  queue.o(i.prvCopyDataFromQueue)
    i.prvCopyDataToQueue                     0x08005e98   Section        0  queue.o(i.prvCopyDataToQueue)
    prvCopyDataToQueue                       0x08005e99   Thumb Code   110  queue.o(i.prvCopyDataToQueue)
    i.prvDeleteTCB                           0x08005f06   Section        0  tasks.o(i.prvDeleteTCB)
    prvDeleteTCB                             0x08005f07   Thumb Code    64  tasks.o(i.prvDeleteTCB)
    i.prvGetDisinheritPriorityAfterTimeout   0x08005f46   Section        0  queue.o(i.prvGetDisinheritPriorityAfterTimeout)
    prvGetDisinheritPriorityAfterTimeout     0x08005f47   Thumb Code    20  queue.o(i.prvGetDisinheritPriorityAfterTimeout)
    i.prvHeapInit                            0x08005f5c   Section        0  heap_4.o(i.prvHeapInit)
    prvHeapInit                              0x08005f5d   Thumb Code    70  heap_4.o(i.prvHeapInit)
    i.prvIdleTask                            0x08005fac   Section        0  tasks.o(i.prvIdleTask)
    prvIdleTask                              0x08005fad   Thumb Code    30  tasks.o(i.prvIdleTask)
    i.prvInitialiseMutex                     0x08005fd4   Section        0  queue.o(i.prvInitialiseMutex)
    prvInitialiseMutex                       0x08005fd5   Thumb Code    24  queue.o(i.prvInitialiseMutex)
    i.prvInitialiseNewQueue                  0x08005fec   Section        0  queue.o(i.prvInitialiseNewQueue)
    prvInitialiseNewQueue                    0x08005fed   Thumb Code    24  queue.o(i.prvInitialiseNewQueue)
    i.prvInitialiseNewTask                   0x08006004   Section        0  tasks.o(i.prvInitialiseNewTask)
    prvInitialiseNewTask                     0x08006005   Thumb Code   122  tasks.o(i.prvInitialiseNewTask)
    i.prvInitialiseTaskLists                 0x08006080   Section        0  tasks.o(i.prvInitialiseTaskLists)
    prvInitialiseTaskLists                   0x08006081   Thumb Code    66  tasks.o(i.prvInitialiseTaskLists)
    i.prvInsertBlockIntoFreeList             0x080060e0   Section        0  heap_4.o(i.prvInsertBlockIntoFreeList)
    prvInsertBlockIntoFreeList               0x080060e1   Thumb Code    84  heap_4.o(i.prvInsertBlockIntoFreeList)
    i.prvIsQueueEmpty                        0x0800613c   Section        0  queue.o(i.prvIsQueueEmpty)
    prvIsQueueEmpty                          0x0800613d   Thumb Code    26  queue.o(i.prvIsQueueEmpty)
    i.prvIsQueueFull                         0x08006156   Section        0  queue.o(i.prvIsQueueFull)
    prvIsQueueFull                           0x08006157   Thumb Code    30  queue.o(i.prvIsQueueFull)
    i.prvResetNextTaskUnblockTime            0x08006174   Section        0  tasks.o(i.prvResetNextTaskUnblockTime)
    prvResetNextTaskUnblockTime              0x08006175   Thumb Code    30  tasks.o(i.prvResetNextTaskUnblockTime)
    i.prvTaskExitError                       0x08006198   Section        0  port.o(i.prvTaskExitError)
    prvTaskExitError                         0x08006199   Thumb Code    42  port.o(i.prvTaskExitError)
    i.prvUnlockQueue                         0x080061c8   Section        0  queue.o(i.prvUnlockQueue)
    prvUnlockQueue                           0x080061c9   Thumb Code   104  queue.o(i.prvUnlockQueue)
    i.pvPortMalloc                           0x08006230   Section        0  heap_4.o(i.pvPortMalloc)
    i.pvTaskIncrementMutexHeldCount          0x08006314   Section        0  tasks.o(i.pvTaskIncrementMutexHeldCount)
    i.pxPortInitialiseStack                  0x08006330   Section        0  port.o(i.pxPortInitialiseStack)
    i.realloc                                0x08006354   Section        0  mallocr.o(i.realloc)
    i.receive_gps_data                       0x080063c0   Section        0  gps.o(i.receive_gps_data)
    i.strGga_parse                           0x08006554   Section        0  gps.o(i.strGga_parse)
    i.strGll_parse                           0x080067f4   Section        0  gps.o(i.strGll_parse)
    i.strGsa_parse                           0x080069fc   Section        0  gps.o(i.strGsa_parse)
    i.strGsv_parse                           0x08006afc   Section        0  gps.o(i.strGsv_parse)
    i.strRHXZ_parse                          0x08006b88   Section        0  gps.o(i.strRHXZ_parse)
    i.strRmc_parse                           0x08006c00   Section        0  gps.o(i.strRmc_parse)
    i.strVtg_parse                           0x08006ea0   Section        0  gps.o(i.strVtg_parse)
    i.strtod                                 0x08006f48   Section        0  strtod.o(i.strtod)
    i.uxListRemove                           0x08006f64   Section        0  list.o(i.uxListRemove)
    i.vApplicationGetIdleTaskMemory          0x08006f8c   Section        0  freertos.o(i.vApplicationGetIdleTaskMemory)
    i.vListInitialise                        0x08006fa0   Section        0  list.o(i.vListInitialise)
    i.vListInitialiseItem                    0x08006fb6   Section        0  list.o(i.vListInitialiseItem)
    i.vListInsert                            0x08006fbc   Section        0  list.o(i.vListInsert)
    i.vListInsertEnd                         0x08006ff2   Section        0  list.o(i.vListInsertEnd)
    i.vPortEnterCritical                     0x0800700c   Section        0  port.o(i.vPortEnterCritical)
    i.vPortExitCritical                      0x0800704c   Section        0  port.o(i.vPortExitCritical)
    i.vPortFree                              0x08007078   Section        0  heap_4.o(i.vPortFree)
    i.vPortSetupTimerInterrupt               0x080070d4   Section        0  port.o(i.vPortSetupTimerInterrupt)
    i.vPortValidateInterruptPriority         0x080070f8   Section        0  port.o(i.vPortValidateInterruptPriority)
    i.vTaskDelay                             0x0800714c   Section        0  tasks.o(i.vTaskDelay)
    i.vTaskInternalSetTimeOutState           0x0800719c   Section        0  tasks.o(i.vTaskInternalSetTimeOutState)
    i.vTaskMissedYield                       0x080071ac   Section        0  tasks.o(i.vTaskMissedYield)
    i.vTaskPlaceOnEventList                  0x080071b8   Section        0  tasks.o(i.vTaskPlaceOnEventList)
    i.vTaskPriorityDisinheritAfterTimeout    0x080071ec   Section        0  tasks.o(i.vTaskPriorityDisinheritAfterTimeout)
    i.vTaskStartScheduler                    0x080072a0   Section        0  tasks.o(i.vTaskStartScheduler)
    i.vTaskSuspendAll                        0x08007328   Section        0  tasks.o(i.vTaskSuspendAll)
    i.vTaskSwitchContext                     0x08007338   Section        0  tasks.o(i.vTaskSwitchContext)
    i.xPortStartScheduler                    0x08007398   Section        0  port.o(i.xPortStartScheduler)
    i.xQueueCreateMutex                      0x0800744c   Section        0  queue.o(i.xQueueCreateMutex)
    i.xQueueCreateMutexStatic                0x08007464   Section        0  queue.o(i.xQueueCreateMutexStatic)
    i.xQueueGenericCreate                    0x08007480   Section        0  queue.o(i.xQueueGenericCreate)
    i.xQueueGenericCreateStatic              0x080074ca   Section        0  queue.o(i.xQueueGenericCreateStatic)
    i.xQueueGenericReset                     0x0800753c   Section        0  queue.o(i.xQueueGenericReset)
    i.xQueueGenericSend                      0x080075cc   Section        0  queue.o(i.xQueueGenericSend)
    i.xQueueGiveFromISR                      0x0800773c   Section        0  queue.o(i.xQueueGiveFromISR)
    i.xQueueReceiveFromISR                   0x080077dc   Section        0  queue.o(i.xQueueReceiveFromISR)
    i.xQueueSemaphoreTake                    0x08007878   Section        0  queue.o(i.xQueueSemaphoreTake)
    i.xTaskCheckForTimeOut                   0x080079fc   Section        0  tasks.o(i.xTaskCheckForTimeOut)
    i.xTaskCreate                            0x08007a7c   Section        0  tasks.o(i.xTaskCreate)
    i.xTaskCreateStatic                      0x08007ae8   Section        0  tasks.o(i.xTaskCreateStatic)
    i.xTaskGetSchedulerState                 0x08007b48   Section        0  tasks.o(i.xTaskGetSchedulerState)
    i.xTaskIncrementTick                     0x08007b64   Section        0  tasks.o(i.xTaskIncrementTick)
    i.xTaskPriorityDisinherit                0x08007c34   Section        0  tasks.o(i.xTaskPriorityDisinherit)
    i.xTaskPriorityInherit                   0x08007cd8   Section        0  tasks.o(i.xTaskPriorityInherit)
    i.xTaskRemoveFromEventList               0x08007d74   Section        0  tasks.o(i.xTaskRemoveFromEventList)
    i.xTaskResumeAll                         0x08007dec   Section        0  tasks.o(i.xTaskResumeAll)
    .constdata                               0x08007eb8   Section       21  control.o(.constdata)
    .constdata                               0x08007ed0   Section      140  freertos.o(.constdata)
    .constdata                               0x08007f5c   Section       18  stm32f1xx_hal_rcc.o(.constdata)
    aPredivFactorTable                       0x08007f5c   Data           2  stm32f1xx_hal_rcc.o(.constdata)
    aPLLMULFactorTable                       0x08007f5e   Data          16  stm32f1xx_hal_rcc.o(.constdata)
    .constdata                               0x08007f6e   Section       18  stm32f1xx_hal_rcc_ex.o(.constdata)
    aPredivFactorTable                       0x08007f6e   Data           2  stm32f1xx_hal_rcc_ex.o(.constdata)
    aPLLMULFactorTable                       0x08007f70   Data          16  stm32f1xx_hal_rcc_ex.o(.constdata)
    .constdata                               0x08007f80   Section       16  system_stm32f1xx.o(.constdata)
    .constdata                               0x08007f90   Section        8  system_stm32f1xx.o(.constdata)
    .constdata                               0x08007f98   Section      129  ctype_o.o(.constdata)
    .constdata                               0x0800801c   Section        4  ctype_o.o(.constdata)
    table                                    0x0800801c   Data           4  ctype_o.o(.constdata)
    .conststring                             0x08008020   Section       60  freertos.o(.conststring)
    .data                                    0x20000000   Section        6  gps.o(.data)
    .data                                    0x20000008   Section      342  roter.o(.data)
    .data                                    0x2000015e   Section       13  roter.o(.data)
    .data                                    0x2000016b   Section       13  roter.o(.data)
    .data                                    0x20000178   Section       13  roter.o(.data)
    .data                                    0x20000185   Section       13  roter.o(.data)
    .data                                    0x20000192   Section       11  control.o(.data)
    .data                                    0x200001a0   Section        4  lqueue.o(.data)
    .data                                    0x200001a4   Section        4  lqueue.o(.data)
    .data                                    0x200001a8   Section        4  lqueue.o(.data)
    .data                                    0x200001ac   Section        4  lqueue.o(.data)
    .data                                    0x200001b0   Section        1  main.o(.data)
    .data                                    0x200001b1   Section        1  main.o(.data)
    .data                                    0x200001b2   Section        1  main.o(.data)
    .data                                    0x200001b3   Section        1  main.o(.data)
    .data                                    0x200001b4   Section        1  main.o(.data)
    .data                                    0x200001b5   Section        1  main.o(.data)
    .data                                    0x200001b6   Section        1  main.o(.data)
    .data                                    0x200001b7   Section        8  main.o(.data)
    .data                                    0x200001bf   Section        8  main.o(.data)
    .data                                    0x200001c7   Section        8  main.o(.data)
    .data                                    0x200001cf   Section        8  main.o(.data)
    .data                                    0x200001d8   Section       24  freertos.o(.data)
    .data                                    0x200001f0   Section        4  stm32f1xx_it.o(.data)
    lastDebounceTime                         0x200001f0   Data           4  stm32f1xx_it.o(.data)
    .data                                    0x200001f4   Section       12  stm32f1xx_hal.o(.data)
    .data                                    0x20000200   Section        4  system_stm32f1xx.o(.data)
    .data                                    0x20000204   Section       60  tasks.o(.data)
    pxDelayedTaskList                        0x20000208   Data           4  tasks.o(.data)
    pxOverflowDelayedTaskList                0x2000020c   Data           4  tasks.o(.data)
    uxDeletedTasksWaitingCleanUp             0x20000210   Data           4  tasks.o(.data)
    uxCurrentNumberOfTasks                   0x20000214   Data           4  tasks.o(.data)
    xTickCount                               0x20000218   Data           4  tasks.o(.data)
    uxTopReadyPriority                       0x2000021c   Data           4  tasks.o(.data)
    xSchedulerRunning                        0x20000220   Data           4  tasks.o(.data)
    uxPendedTicks                            0x20000224   Data           4  tasks.o(.data)
    xYieldPending                            0x20000228   Data           4  tasks.o(.data)
    xNumOfOverflows                          0x2000022c   Data           4  tasks.o(.data)
    uxTaskNumber                             0x20000230   Data           4  tasks.o(.data)
    xNextTaskUnblockTime                     0x20000234   Data           4  tasks.o(.data)
    xIdleTaskHandle                          0x20000238   Data           4  tasks.o(.data)
    uxSchedulerSuspended                     0x2000023c   Data           4  tasks.o(.data)
    .data                                    0x20000240   Section       24  heap_4.o(.data)
    pxEnd                                    0x20000240   Data           4  heap_4.o(.data)
    xFreeBytesRemaining                      0x20000244   Data           4  heap_4.o(.data)
    xMinimumEverFreeBytesRemaining           0x20000248   Data           4  heap_4.o(.data)
    xBlockAllocatedBit                       0x2000024c   Data           4  heap_4.o(.data)
    xStart                                   0x20000250   Data           8  heap_4.o(.data)
    .data                                    0x20000258   Section       12  port.o(.data)
    ucMaxSysCallPriority                     0x20000258   Data           1  port.o(.data)
    uxCriticalNesting                        0x2000025c   Data           4  port.o(.data)
    ulMaxPRIGROUPValue                       0x20000260   Data           4  port.o(.data)
    .data                                    0x20000264   Section        4  strtok.o(.data)
    state                                    0x20000264   Data           4  strtok.o(.data)
    .data                                    0x20000268   Section        4  stdout.o(.data)
    .data                                    0x2000026c   Section        4  mvars.o(.data)
    .data                                    0x20000270   Section        4  mvars.o(.data)
    .data                                    0x20000274   Section        4  errno.o(.data)
    _errno                                   0x20000274   Data           4  errno.o(.data)
    .bss                                     0x20000278   Section      608  gps.o(.bss)
    .bss                                     0x200004d8   Section     7667  roter.o(.bss)
    .bss                                     0x200022cb   Section      100  control.o(.bss)
    .bss                                     0x2000232f   Section     2048  main.o(.bss)
    .bss                                     0x20002b30   Section       28  main.o(.bss)
    .bss                                     0x20002b4c   Section       10  main.o(.bss)
    .bss                                     0x20002b58   Section      708  freertos.o(.bss)
    xIdleTaskTCBBuffer                       0x20002b58   Data         196  freertos.o(.bss)
    xIdleStack                               0x20002c1c   Data         512  freertos.o(.bss)
    .bss                                     0x20002e1c   Section       48  adc.o(.bss)
    .bss                                     0x20002e4c   Section      904  usart.o(.bss)
    .bss                                     0x200031d4   Section       72  stm32f1xx_hal_timebase_tim.o(.bss)
    .bss                                     0x2000321c   Section      240  tasks.o(.bss)
    pxReadyTasksLists                        0x2000321c   Data         140  tasks.o(.bss)
    xDelayedTaskList1                        0x200032a8   Data          20  tasks.o(.bss)
    xDelayedTaskList2                        0x200032bc   Data          20  tasks.o(.bss)
    xPendingReadyList                        0x200032d0   Data          20  tasks.o(.bss)
    xTasksWaitingTermination                 0x200032e4   Data          20  tasks.o(.bss)
    xSuspendedTaskList                       0x200032f8   Data          20  tasks.o(.bss)
    .bss                                     0x2000330c   Section     5120  heap_4.o(.bss)
    ucHeap                                   0x2000330c   Data        5120  heap_4.o(.bss)
    HEAP                                     0x20004710   Section     2048  startup_stm32f103xe.o(HEAP)
    STACK                                    0x20004f10   Section     2048  startup_stm32f103xe.o(STACK)

    Global Symbols

    Symbol Name                              Value     Ov Type        Size  Object(Section)

    BuildAttributes$$THM_ISAv4$P$D$K$B$S$PE$A:L22UL41UL21$X:L11$S22US41US21$IEEE1$IW$USESV6$~STKCKD$USESV7$~SHL$OTIME$ROPI$IEEEJ$EBA8$MICROLIB$REQ8$PRES8$EABIv2 0x00000000   Number         0  anon$$obj.o ABSOLUTE
    __ARM_use_no_argv                        0x00000000   Number         0  main.o ABSOLUTE
    _printf_a                                0x00000000   Number         0  stubs.o ABSOLUTE
    _printf_c                                0x00000000   Number         0  stubs.o ABSOLUTE
    _printf_charcount                        0x00000000   Number         0  stubs.o ABSOLUTE
    _printf_d                                0x00000000   Number         0  stubs.o ABSOLUTE
    _printf_e                                0x00000000   Number         0  stubs.o ABSOLUTE
    _printf_f                                0x00000000   Number         0  stubs.o ABSOLUTE
    _printf_flags                            0x00000000   Number         0  stubs.o ABSOLUTE
    _printf_fp_dec                           0x00000000   Number         0  stubs.o ABSOLUTE
    _printf_fp_hex                           0x00000000   Number         0  stubs.o ABSOLUTE
    _printf_g                                0x00000000   Number         0  stubs.o ABSOLUTE
    _printf_i                                0x00000000   Number         0  stubs.o ABSOLUTE
    _printf_int_dec                          0x00000000   Number         0  stubs.o ABSOLUTE
    _printf_l                                0x00000000   Number         0  stubs.o ABSOLUTE
    _printf_lc                               0x00000000   Number         0  stubs.o ABSOLUTE
    _printf_ll                               0x00000000   Number         0  stubs.o ABSOLUTE
    _printf_lld                              0x00000000   Number         0  stubs.o ABSOLUTE
    _printf_lli                              0x00000000   Number         0  stubs.o ABSOLUTE
    _printf_llo                              0x00000000   Number         0  stubs.o ABSOLUTE
    _printf_llu                              0x00000000   Number         0  stubs.o ABSOLUTE
    _printf_llx                              0x00000000   Number         0  stubs.o ABSOLUTE
    _printf_longlong_dec                     0x00000000   Number         0  stubs.o ABSOLUTE
    _printf_longlong_hex                     0x00000000   Number         0  stubs.o ABSOLUTE
    _printf_longlong_oct                     0x00000000   Number         0  stubs.o ABSOLUTE
    _printf_ls                               0x00000000   Number         0  stubs.o ABSOLUTE
    _printf_mbtowc                           0x00000000   Number         0  stubs.o ABSOLUTE
    _printf_n                                0x00000000   Number         0  stubs.o ABSOLUTE
    _printf_o                                0x00000000   Number         0  stubs.o ABSOLUTE
    _printf_p                                0x00000000   Number         0  stubs.o ABSOLUTE
    _printf_percent                          0x00000000   Number         0  stubs.o ABSOLUTE
    _printf_pre_padding                      0x00000000   Number         0  stubs.o ABSOLUTE
    _printf_return_value                     0x00000000   Number         0  stubs.o ABSOLUTE
    _printf_s                                0x00000000   Number         0  stubs.o ABSOLUTE
    _printf_sizespec                         0x00000000   Number         0  stubs.o ABSOLUTE
    _printf_str                              0x00000000   Number         0  stubs.o ABSOLUTE
    _printf_truncate_signed                  0x00000000   Number         0  stubs.o ABSOLUTE
    _printf_truncate_unsigned                0x00000000   Number         0  stubs.o ABSOLUTE
    _printf_u                                0x00000000   Number         0  stubs.o ABSOLUTE
    _printf_wc                               0x00000000   Number         0  stubs.o ABSOLUTE
    _printf_wctomb                           0x00000000   Number         0  stubs.o ABSOLUTE
    _printf_widthprec                        0x00000000   Number         0  stubs.o ABSOLUTE
    _printf_x                                0x00000000   Number         0  stubs.o ABSOLUTE
    __cpp_initialize__aeabi_                  - Undefined Weak Reference
    __cxa_finalize                            - Undefined Weak Reference
    _clock_init                               - Undefined Weak Reference
    _microlib_exit                            - Undefined Weak Reference
    _scanf_longlong                           - Undefined Weak Reference
    _scanf_string                             - Undefined Weak Reference
    __Vectors_Size                           0x00000130   Number         0  startup_stm32f103xe.o ABSOLUTE
    __Vectors                                0x08000000   Data           4  startup_stm32f103xe.o(RESET)
    __Vectors_End                            0x08000130   Data           0  startup_stm32f103xe.o(RESET)
    __main                                   0x08000131   Thumb Code     0  entry.o(.ARM.Collect$$$$00000000)
    _main_stk                                0x08000131   Thumb Code     0  entry2.o(.ARM.Collect$$$$00000001)
    _main_scatterload                        0x08000135   Thumb Code     0  entry5.o(.ARM.Collect$$$$00000004)
    __main_after_scatterload                 0x08000139   Thumb Code     0  entry5.o(.ARM.Collect$$$$00000004)
    _main_clock                              0x08000139   Thumb Code     0  entry7b.o(.ARM.Collect$$$$00000008)
    _main_cpp_init                           0x08000139   Thumb Code     0  entry8b.o(.ARM.Collect$$$$0000000A)
    _main_init                               0x08000139   Thumb Code     0  entry9a.o(.ARM.Collect$$$$0000000B)
    __rt_final_cpp                           0x08000141   Thumb Code     0  entry10a.o(.ARM.Collect$$$$0000000D)
    __rt_final_exit                          0x08000141   Thumb Code     0  entry11a.o(.ARM.Collect$$$$0000000F)
    SVC_Handler                              0x08000145   Thumb Code    32  port.o(.emb_text)
    __asm___6_port_c_39a90d8d__prvStartFirstTask 0x08000169   Thumb Code    28  port.o(.emb_text)
    PendSV_Handler                           0x08000189   Thumb Code    72  port.o(.emb_text)
    vPortGetIPSR                             0x080001d5   Thumb Code     6  port.o(.emb_text)
    Reset_Handler                            0x080001dd   Thumb Code     8  startup_stm32f103xe.o(.text)
    ADC1_2_IRQHandler                        0x080001f7   Thumb Code     0  startup_stm32f103xe.o(.text)
    ADC3_IRQHandler                          0x080001f7   Thumb Code     0  startup_stm32f103xe.o(.text)
    CAN1_RX1_IRQHandler                      0x080001f7   Thumb Code     0  startup_stm32f103xe.o(.text)
    CAN1_SCE_IRQHandler                      0x080001f7   Thumb Code     0  startup_stm32f103xe.o(.text)
    DMA1_Channel1_IRQHandler                 0x080001f7   Thumb Code     0  startup_stm32f103xe.o(.text)
    DMA2_Channel1_IRQHandler                 0x080001f7   Thumb Code     0  startup_stm32f103xe.o(.text)
    DMA2_Channel2_IRQHandler                 0x080001f7   Thumb Code     0  startup_stm32f103xe.o(.text)
    EXTI15_10_IRQHandler                     0x080001f7   Thumb Code     0  startup_stm32f103xe.o(.text)
    EXTI2_IRQHandler                         0x080001f7   Thumb Code     0  startup_stm32f103xe.o(.text)
    EXTI3_IRQHandler                         0x080001f7   Thumb Code     0  startup_stm32f103xe.o(.text)
    EXTI4_IRQHandler                         0x080001f7   Thumb Code     0  startup_stm32f103xe.o(.text)
    FLASH_IRQHandler                         0x080001f7   Thumb Code     0  startup_stm32f103xe.o(.text)
    FSMC_IRQHandler                          0x080001f7   Thumb Code     0  startup_stm32f103xe.o(.text)
    I2C1_ER_IRQHandler                       0x080001f7   Thumb Code     0  startup_stm32f103xe.o(.text)
    I2C1_EV_IRQHandler                       0x080001f7   Thumb Code     0  startup_stm32f103xe.o(.text)
    I2C2_ER_IRQHandler                       0x080001f7   Thumb Code     0  startup_stm32f103xe.o(.text)
    I2C2_EV_IRQHandler                       0x080001f7   Thumb Code     0  startup_stm32f103xe.o(.text)
    PVD_IRQHandler                           0x080001f7   Thumb Code     0  startup_stm32f103xe.o(.text)
    RCC_IRQHandler                           0x080001f7   Thumb Code     0  startup_stm32f103xe.o(.text)
    RTC_Alarm_IRQHandler                     0x080001f7   Thumb Code     0  startup_stm32f103xe.o(.text)
    RTC_IRQHandler                           0x080001f7   Thumb Code     0  startup_stm32f103xe.o(.text)
    SDIO_IRQHandler                          0x080001f7   Thumb Code     0  startup_stm32f103xe.o(.text)
    SPI1_IRQHandler                          0x080001f7   Thumb Code     0  startup_stm32f103xe.o(.text)
    SPI2_IRQHandler                          0x080001f7   Thumb Code     0  startup_stm32f103xe.o(.text)
    SPI3_IRQHandler                          0x080001f7   Thumb Code     0  startup_stm32f103xe.o(.text)
    TAMPER_IRQHandler                        0x080001f7   Thumb Code     0  startup_stm32f103xe.o(.text)
    TIM1_BRK_IRQHandler                      0x080001f7   Thumb Code     0  startup_stm32f103xe.o(.text)
    TIM1_CC_IRQHandler                       0x080001f7   Thumb Code     0  startup_stm32f103xe.o(.text)
    TIM1_TRG_COM_IRQHandler                  0x080001f7   Thumb Code     0  startup_stm32f103xe.o(.text)
    TIM2_IRQHandler                          0x080001f7   Thumb Code     0  startup_stm32f103xe.o(.text)
    TIM3_IRQHandler                          0x080001f7   Thumb Code     0  startup_stm32f103xe.o(.text)
    TIM4_IRQHandler                          0x080001f7   Thumb Code     0  startup_stm32f103xe.o(.text)
    TIM5_IRQHandler                          0x080001f7   Thumb Code     0  startup_stm32f103xe.o(.text)
    TIM6_IRQHandler                          0x080001f7   Thumb Code     0  startup_stm32f103xe.o(.text)
    TIM7_IRQHandler                          0x080001f7   Thumb Code     0  startup_stm32f103xe.o(.text)
    TIM8_BRK_IRQHandler                      0x080001f7   Thumb Code     0  startup_stm32f103xe.o(.text)
    TIM8_CC_IRQHandler                       0x080001f7   Thumb Code     0  startup_stm32f103xe.o(.text)
    TIM8_TRG_COM_IRQHandler                  0x080001f7   Thumb Code     0  startup_stm32f103xe.o(.text)
    TIM8_UP_IRQHandler                       0x080001f7   Thumb Code     0  startup_stm32f103xe.o(.text)
    USBWakeUp_IRQHandler                     0x080001f7   Thumb Code     0  startup_stm32f103xe.o(.text)
    USB_HP_CAN1_TX_IRQHandler                0x080001f7   Thumb Code     0  startup_stm32f103xe.o(.text)
    USB_LP_CAN1_RX0_IRQHandler               0x080001f7   Thumb Code     0  startup_stm32f103xe.o(.text)
    WWDG_IRQHandler                          0x080001f7   Thumb Code     0  startup_stm32f103xe.o(.text)
    __aeabi_llsr                             0x08000201   Thumb Code    32  llushr.o(.text)
    _ll_ushift_r                             0x08000201   Thumb Code     0  llushr.o(.text)
    ___aeabi_memcpy8$move                    0x08000221   Thumb Code     0  memmovea.o(.text)
    __aeabi_memcpy                           0x08000221   Thumb Code    64  memmovea.o(.text)
    __aeabi_memcpy4                          0x08000221   Thumb Code     0  memmovea.o(.text)
    __aeabi_memmove                          0x08000221   Thumb Code     0  memmovea.o(.text)
    __aeabi_memmove4                         0x08000221   Thumb Code     0  memmovea.o(.text)
    __aeabi_memmove8                         0x08000221   Thumb Code     0  memmovea.o(.text)
    __aeabi_memset                           0x08000261   Thumb Code    14  memseta.o(.text)
    __aeabi_memset4                          0x08000261   Thumb Code     0  memseta.o(.text)
    __aeabi_memset8                          0x08000261   Thumb Code     0  memseta.o(.text)
    __aeabi_memclr                           0x0800026f   Thumb Code     4  memseta.o(.text)
    __aeabi_memclr4                          0x0800026f   Thumb Code     0  memseta.o(.text)
    __aeabi_memclr8                          0x0800026f   Thumb Code     0  memseta.o(.text)
    memset                                   0x08000273   Thumb Code    18  memseta.o(.text)
    strncpy                                  0x08000285   Thumb Code    24  strncpy.o(.text)
    strlen                                   0x0800029d   Thumb Code    14  strlen.o(.text)
    strcpy                                   0x080002ab   Thumb Code    18  strcpy.o(.text)
    strncmp                                  0x080002bd   Thumb Code    30  strncmp.o(.text)
    strtok                                   0x080002dd   Thumb Code    62  strtok.o(.text)
    __0sscanf                                0x08000321   Thumb Code    48  __0sscanf.o(.text)
    _scanf_int                               0x08000359   Thumb Code   332  _scanf_int.o(.text)
    strtol                                   0x080004a5   Thumb Code   112  strtol.o(.text)
    atoi                                     0x08000515   Thumb Code    26  atoi.o(.text)
    __aeabi_fadd                             0x0800052f   Thumb Code   164  fadd.o(.text)
    __aeabi_fsub                             0x080005d3   Thumb Code     6  fadd.o(.text)
    __aeabi_frsub                            0x080005d9   Thumb Code     6  fadd.o(.text)
    __aeabi_dadd                             0x080005df   Thumb Code   322  dadd.o(.text)
    __aeabi_dsub                             0x08000721   Thumb Code     6  dadd.o(.text)
    __aeabi_drsub                            0x08000727   Thumb Code     6  dadd.o(.text)
    __aeabi_dmul                             0x0800072d   Thumb Code   228  dmul.o(.text)
    __aeabi_ddiv                             0x08000811   Thumb Code   222  ddiv.o(.text)
    __ARM_scalbn                             0x080008ef   Thumb Code    46  dscalb.o(.text)
    scalbn                                   0x080008ef   Thumb Code     0  dscalb.o(.text)
    __aeabi_i2d                              0x0800091d   Thumb Code    34  dflti.o(.text)
    __aeabi_ui2d                             0x0800093f   Thumb Code    26  dfltui.o(.text)
    __aeabi_f2uiz                            0x08000959   Thumb Code    40  ffixui.o(.text)
    __aeabi_d2iz                             0x08000981   Thumb Code    62  dfixi.o(.text)
    __aeabi_d2uiz                            0x080009bf   Thumb Code    50  dfixui.o(.text)
    __aeabi_f2d                              0x080009f1   Thumb Code    38  f2d.o(.text)
    __aeabi_d2f                              0x08000a17   Thumb Code    56  d2f.o(.text)
    __aeabi_uidiv                            0x08000a4f   Thumb Code     0  uidiv.o(.text)
    __aeabi_uidivmod                         0x08000a4f   Thumb Code    44  uidiv.o(.text)
    __aeabi_llsl                             0x08000a7b   Thumb Code    30  llshl.o(.text)
    _ll_shift_l                              0x08000a7b   Thumb Code     0  llshl.o(.text)
    __aeabi_lasr                             0x08000a99   Thumb Code    36  llsshr.o(.text)
    _ll_sshift_r                             0x08000a99   Thumb Code     0  llsshr.o(.text)
    __rt_ctype_table                         0x08000abd   Thumb Code     4  ctype_o.o(.text)
    isspace                                  0x08000ac5   Thumb Code    18  isspace_o.o(.text)
    _chval                                   0x08000ad7   Thumb Code    28  _chval.o(.text)
    __vfscanf_char                           0x08000b01   Thumb Code    20  scanf_char.o(.text)
    _sgetc                                   0x08000b1d   Thumb Code    30  _sgetc.o(.text)
    _sbackspace                              0x08000b3b   Thumb Code    34  _sgetc.o(.text)
    _strtoul                                 0x08000b5d   Thumb Code   158  _strtoul.o(.text)
    __strtod_int                             0x08000c33   Thumb Code    90  strtod.o(.text)
    __I$use$fp                               0x08000c99   Thumb Code     0  iusefp.o(.text)
    _float_round                             0x08000c99   Thumb Code    18  fepilogue.o(.text)
    _float_epilogue                          0x08000cab   Thumb Code    92  fepilogue.o(.text)
    _double_round                            0x08000d07   Thumb Code    30  depilogue.o(.text)
    _double_epilogue                         0x08000d25   Thumb Code   156  depilogue.o(.text)
    __scatterload                            0x08000dc1   Thumb Code    28  init.o(.text)
    __scatterload_rt2                        0x08000dc1   Thumb Code     0  init.o(.text)
    __vfscanf                                0x08000de5   Thumb Code   808  _scanf.o(.text)
    _scanf_real                              0x08001239   Thumb Code     0  scanf_fp.o(.text)
    _scanf_really_real                       0x08001239   Thumb Code   556  scanf_fp.o(.text)
    __aeabi_ul2d                             0x08001471   Thumb Code    24  dfltul.o(.text)
    __decompress                             0x08001489   Thumb Code     0  __dczerorl2.o(.text)
    __decompress1                            0x08001489   Thumb Code    86  __dczerorl2.o(.text)
    ADC_BAT_Test                             0x080014e1   Thumb Code   120  control.o(i.ADC_BAT_Test)
    ADC_ConversionStop_Disable               0x08001579   Thumb Code    86  stm32f1xx_hal_adc.o(i.ADC_ConversionStop_Disable)
    ADC_Enable                               0x080015d1   Thumb Code   114  stm32f1xx_hal_adc.o(i.ADC_Enable)
    BlueHostConnect                          0x0800164d   Thumb Code    80  control.o(i.BlueHostConnect)
    BlueSlaveConnect                         0x080016a1   Thumb Code   138  control.o(i.BlueSlaveConnect)
    BlueStart                                0x08001741   Thumb Code   156  control.o(i.BlueStart)
    BlueWeakUp                               0x08001825   Thumb Code   100  control.o(i.BlueWeakUp)
    BusFault_Handler                         0x080018a1   Thumb Code     2  stm32f1xx_it.o(i.BusFault_Handler)
    ControlFuntion                           0x080018a5   Thumb Code   214  control.o(i.ControlFuntion)
    CopyAngleDataToUsart1                    0x080019a5   Thumb Code    34  control.o(i.CopyAngleDataToUsart1)
    CopyGpsDataToUsart1                      0x080019d5   Thumb Code    92  control.o(i.CopyGpsDataToUsart1)
    Create_Empty_Queue                       0x08001a41   Thumb Code    34  lqueue.o(i.Create_Empty_Queue)
    DMA1_Channel2_IRQHandler                 0x08001a65   Thumb Code     6  stm32f1xx_it.o(i.DMA1_Channel2_IRQHandler)
    DMA1_Channel3_IRQHandler                 0x08001a71   Thumb Code     6  stm32f1xx_it.o(i.DMA1_Channel3_IRQHandler)
    DMA1_Channel4_IRQHandler                 0x08001a7d   Thumb Code     6  stm32f1xx_it.o(i.DMA1_Channel4_IRQHandler)
    DMA1_Channel5_IRQHandler                 0x08001a89   Thumb Code     6  stm32f1xx_it.o(i.DMA1_Channel5_IRQHandler)
    DMA1_Channel6_IRQHandler                 0x08001a95   Thumb Code     6  stm32f1xx_it.o(i.DMA1_Channel6_IRQHandler)
    DMA1_Channel7_IRQHandler                 0x08001aa1   Thumb Code     6  stm32f1xx_it.o(i.DMA1_Channel7_IRQHandler)
    DMA2_Channel3_IRQHandler                 0x08001aad   Thumb Code     6  stm32f1xx_it.o(i.DMA2_Channel3_IRQHandler)
    DMA2_Channel4_5_IRQHandler               0x08001ab9   Thumb Code     6  stm32f1xx_it.o(i.DMA2_Channel4_5_IRQHandler)
    DataParseCondition                       0x08001af1   Thumb Code   152  roter.o(i.DataParseCondition)
    DataParseFunction                        0x08001b91   Thumb Code   334  control.o(i.DataParseFunction)
    DataParseLocation                        0x08001d09   Thumb Code    86  roter.o(i.DataParseLocation)
    DataParsePolice                          0x08001d65   Thumb Code   118  roter.o(i.DataParsePolice)
    DataParseRoter1                          0x08001de1   Thumb Code   160  control.o(i.DataParseRoter1)
    DataParseRoter5                          0x08001e89   Thumb Code   160  control.o(i.DataParseRoter5)
    DebugMon_Handler                         0x08001f31   Thumb Code     2  stm32f1xx_it.o(i.DebugMon_Handler)
    Dequeue                                  0x08001f33   Thumb Code    48  lqueue.o(i.Dequeue)
    EXTI0_IRQHandler                         0x08001f63   Thumb Code     6  stm32f1xx_it.o(i.EXTI0_IRQHandler)
    EXTI1_IRQHandler                         0x08001f69   Thumb Code     6  stm32f1xx_it.o(i.EXTI1_IRQHandler)
    EXTI9_5_IRQHandler                       0x08001f6f   Thumb Code    22  stm32f1xx_it.o(i.EXTI9_5_IRQHandler)
    Enqueue                                  0x08001f85   Thumb Code    46  lqueue.o(i.Enqueue)
    Enqueue_Bytes                            0x08001fb3   Thumb Code    42  lqueue.o(i.Enqueue_Bytes)
    Error_Handler                            0x08001fdd   Thumb Code     4  main.o(i.Error_Handler)
    FireGun                                  0x08001fe1   Thumb Code    20  control.o(i.FireGun)
    FireGunControl                           0x08001ff9   Thumb Code    44  control.o(i.FireGunControl)
    HAL_ADCEx_Calibration_Start              0x0800202d   Thumb Code   210  stm32f1xx_hal_adc_ex.o(i.HAL_ADCEx_Calibration_Start)
    HAL_ADC_ConfigChannel                    0x08002105   Thumb Code   240  stm32f1xx_hal_adc.o(i.HAL_ADC_ConfigChannel)
    HAL_ADC_GetValue                         0x08002201   Thumb Code     6  stm32f1xx_hal_adc.o(i.HAL_ADC_GetValue)
    HAL_ADC_Init                             0x08002209   Thumb Code   272  stm32f1xx_hal_adc.o(i.HAL_ADC_Init)
    HAL_ADC_MspInit                          0x08002329   Thumb Code    76  adc.o(i.HAL_ADC_MspInit)
    HAL_ADC_PollForConversion                0x08002381   Thumb Code   304  stm32f1xx_hal_adc.o(i.HAL_ADC_PollForConversion)
    HAL_ADC_Start                            0x080024bd   Thumb Code   184  stm32f1xx_hal_adc.o(i.HAL_ADC_Start)
    HAL_DMA_Abort                            0x0800257d   Thumb Code    70  stm32f1xx_hal_dma.o(i.HAL_DMA_Abort)
    HAL_DMA_Abort_IT                         0x080025c5   Thumb Code   296  stm32f1xx_hal_dma.o(i.HAL_DMA_Abort_IT)
    HAL_DMA_IRQHandler                       0x080026f5   Thumb Code   552  stm32f1xx_hal_dma.o(i.HAL_DMA_IRQHandler)
    HAL_DMA_Init                             0x0800293d   Thumb Code   112  stm32f1xx_hal_dma.o(i.HAL_DMA_Init)
    HAL_DMA_Start_IT                         0x080029b9   Thumb Code   112  stm32f1xx_hal_dma.o(i.HAL_DMA_Start_IT)
    HAL_Delay                                0x08002a29   Thumb Code    32  stm32f1xx_hal.o(i.HAL_Delay)
    HAL_GPIO_EXTI_Callback                   0x08002a4d   Thumb Code    60  stm32f1xx_it.o(i.HAL_GPIO_EXTI_Callback)
    HAL_GPIO_EXTI_IRQHandler                 0x08002a9d   Thumb Code    18  stm32f1xx_hal_gpio.o(i.HAL_GPIO_EXTI_IRQHandler)
    HAL_GPIO_Init                            0x08002ab5   Thumb Code   462  stm32f1xx_hal_gpio.o(i.HAL_GPIO_Init)
    HAL_GPIO_TogglePin                       0x08002cad   Thumb Code    16  stm32f1xx_hal_gpio.o(i.HAL_GPIO_TogglePin)
    HAL_GPIO_WritePin                        0x08002cbd   Thumb Code    10  stm32f1xx_hal_gpio.o(i.HAL_GPIO_WritePin)
    HAL_GetTick                              0x08002cc9   Thumb Code     6  stm32f1xx_hal.o(i.HAL_GetTick)
    HAL_IncTick                              0x08002cd5   Thumb Code    12  stm32f1xx_hal.o(i.HAL_IncTick)
    HAL_Init                                 0x08002ce5   Thumb Code    32  stm32f1xx_hal.o(i.HAL_Init)
    HAL_InitTick                             0x08002d09   Thumb Code   118  stm32f1xx_hal_timebase_tim.o(i.HAL_InitTick)
    HAL_MspInit                              0x08002d95   Thumb Code    62  stm32f1xx_hal_msp.o(i.HAL_MspInit)
    HAL_NVIC_EnableIRQ                       0x08002ddd   Thumb Code    26  stm32f1xx_hal_cortex.o(i.HAL_NVIC_EnableIRQ)
    HAL_NVIC_SetPriority                     0x08002df9   Thumb Code    60  stm32f1xx_hal_cortex.o(i.HAL_NVIC_SetPriority)
    HAL_NVIC_SetPriorityGrouping             0x08002e39   Thumb Code    26  stm32f1xx_hal_cortex.o(i.HAL_NVIC_SetPriorityGrouping)
    HAL_RCCEx_GetPeriphCLKFreq               0x08002e5d   Thumb Code   164  stm32f1xx_hal_rcc_ex.o(i.HAL_RCCEx_GetPeriphCLKFreq)
    HAL_RCCEx_PeriphCLKConfig                0x08002f15   Thumb Code   224  stm32f1xx_hal_rcc_ex.o(i.HAL_RCCEx_PeriphCLKConfig)
    HAL_RCC_ClockConfig                      0x08003001   Thumb Code   280  stm32f1xx_hal_rcc.o(i.HAL_RCC_ClockConfig)
    HAL_RCC_GetClockConfig                   0x0800312d   Thumb Code    54  stm32f1xx_hal_rcc.o(i.HAL_RCC_GetClockConfig)
    HAL_RCC_GetPCLK1Freq                     0x0800316d   Thumb Code    20  stm32f1xx_hal_rcc.o(i.HAL_RCC_GetPCLK1Freq)
    HAL_RCC_GetPCLK2Freq                     0x0800318d   Thumb Code    20  stm32f1xx_hal_rcc.o(i.HAL_RCC_GetPCLK2Freq)
    HAL_RCC_GetSysClockFreq                  0x080031ad   Thumb Code    64  stm32f1xx_hal_rcc.o(i.HAL_RCC_GetSysClockFreq)
    HAL_RCC_OscConfig                        0x08003201   Thumb Code   778  stm32f1xx_hal_rcc.o(i.HAL_RCC_OscConfig)
    HAL_TIMEx_BreakCallback                  0x08003521   Thumb Code     2  stm32f1xx_hal_tim_ex.o(i.HAL_TIMEx_BreakCallback)
    HAL_TIMEx_CommutCallback                 0x08003523   Thumb Code     2  stm32f1xx_hal_tim_ex.o(i.HAL_TIMEx_CommutCallback)
    HAL_TIM_Base_Init                        0x08003525   Thumb Code    90  stm32f1xx_hal_tim.o(i.HAL_TIM_Base_Init)
    HAL_TIM_Base_MspInit                     0x0800357f   Thumb Code     2  stm32f1xx_hal_tim.o(i.HAL_TIM_Base_MspInit)
    HAL_TIM_Base_Start_IT                    0x08003581   Thumb Code    88  stm32f1xx_hal_tim.o(i.HAL_TIM_Base_Start_IT)
    HAL_TIM_IC_CaptureCallback               0x080035ed   Thumb Code     2  stm32f1xx_hal_tim.o(i.HAL_TIM_IC_CaptureCallback)
    HAL_TIM_IRQHandler                       0x080035ef   Thumb Code   358  stm32f1xx_hal_tim.o(i.HAL_TIM_IRQHandler)
    HAL_TIM_OC_DelayElapsedCallback          0x08003755   Thumb Code     2  stm32f1xx_hal_tim.o(i.HAL_TIM_OC_DelayElapsedCallback)
    HAL_TIM_PWM_PulseFinishedCallback        0x08003757   Thumb Code     2  stm32f1xx_hal_tim.o(i.HAL_TIM_PWM_PulseFinishedCallback)
    HAL_TIM_PeriodElapsedCallback            0x08003759   Thumb Code    14  main.o(i.HAL_TIM_PeriodElapsedCallback)
    HAL_TIM_TriggerCallback                  0x0800376d   Thumb Code     2  stm32f1xx_hal_tim.o(i.HAL_TIM_TriggerCallback)
    HAL_UARTEx_ReceiveToIdle_IT              0x0800376f   Thumb Code    78  stm32f1xx_hal_uart.o(i.HAL_UARTEx_ReceiveToIdle_IT)
    HAL_UARTEx_RxEventCallback               0x080037bd   Thumb Code    52  stm32f1xx_it.o(i.HAL_UARTEx_RxEventCallback)
    HAL_UART_ErrorCallback                   0x08003801   Thumb Code     2  stm32f1xx_hal_uart.o(i.HAL_UART_ErrorCallback)
    HAL_UART_IRQHandler                      0x08003805   Thumb Code   616  stm32f1xx_hal_uart.o(i.HAL_UART_IRQHandler)
    HAL_UART_Init                            0x08003a71   Thumb Code   100  stm32f1xx_hal_uart.o(i.HAL_UART_Init)
    HAL_UART_MspInit                         0x08003ad5   Thumb Code   888  usart.o(i.HAL_UART_MspInit)
    HAL_UART_Receive_DMA                     0x08003e85   Thumb Code    28  stm32f1xx_hal_uart.o(i.HAL_UART_Receive_DMA)
    HAL_UART_RxCpltCallback                  0x08003ea1   Thumb Code   108  stm32f1xx_it.o(i.HAL_UART_RxCpltCallback)
    HAL_UART_RxHalfCpltCallback              0x08003f49   Thumb Code   118  stm32f1xx_it.o(i.HAL_UART_RxHalfCpltCallback)
    HAL_UART_Transmit                        0x08003ffd   Thumb Code   154  stm32f1xx_hal_uart.o(i.HAL_UART_Transmit)
    HAL_UART_TxCpltCallback                  0x08004097   Thumb Code     2  stm32f1xx_hal_uart.o(i.HAL_UART_TxCpltCallback)
    HardFault_Handler                        0x08004099   Thumb Code     2  stm32f1xx_it.o(i.HardFault_Handler)
    MX_ADC1_Init                             0x0800409d   Thumb Code    72  adc.o(i.MX_ADC1_Init)
    MX_DMA_Init                              0x080040ed   Thumb Code   168  dma.o(i.MX_DMA_Init)
    MX_FREERTOS_Init                         0x08004199   Thumb Code   132  freertos.o(i.MX_FREERTOS_Init)
    MX_GPIO_Init                             0x08004225   Thumb Code   344  gpio.o(i.MX_GPIO_Init)
    MX_UART4_Init                            0x08004395   Thumb Code    48  usart.o(i.MX_UART4_Init)
    MX_UART5_Init                            0x080043cd   Thumb Code    48  usart.o(i.MX_UART5_Init)
    MX_USART1_UART_Init                      0x08004405   Thumb Code    48  usart.o(i.MX_USART1_UART_Init)
    MX_USART2_UART_Init                      0x0800443d   Thumb Code    48  usart.o(i.MX_USART2_UART_Init)
    MX_USART3_UART_Init                      0x08004475   Thumb Code    48  usart.o(i.MX_USART3_UART_Init)
    MemManage_Handler                        0x080044ad   Thumb Code     2  stm32f1xx_it.o(i.MemManage_Handler)
    NMI_Handler                              0x080044af   Thumb Code     2  stm32f1xx_it.o(i.NMI_Handler)
    ProcessCmdBuffer                         0x080044b1   Thumb Code   168  roter.o(i.ProcessCmdBuffer)
    Queue_Is_Empty                           0x08004565   Thumb Code    16  lqueue.o(i.Queue_Is_Empty)
    Queue_Is_Full                            0x08004575   Thumb Code    34  lqueue.o(i.Queue_Is_Full)
    Queue_Size                               0x08004597   Thumb Code    24  lqueue.o(i.Queue_Size)
    RemovePoliceToRoter                      0x080045b1   Thumb Code    60  roter.o(i.RemovePoliceToRoter)
    Roter1Error                              0x080045f1   Thumb Code    68  control.o(i.Roter1Error)
    Roter5Error                              0x08004649   Thumb Code    68  control.o(i.Roter5Error)
    RoterAngle1                              0x080046a1   Thumb Code   120  roter.o(i.RoterAngle1)
    RoterAngle5                              0x0800472d   Thumb Code   120  roter.o(i.RoterAngle5)
    RoterRelativeAngle1                      0x080047b9   Thumb Code   110  roter.o(i.RoterRelativeAngle1)
    RoterRelativeAngle5                      0x08004831   Thumb Code   110  roter.o(i.RoterRelativeAngle5)
    STM32_Comm1_Parse                        0x080048a9   Thumb Code    72  control.o(i.STM32_Comm1_Parse)
    STM32_Comm2_Parse                        0x080048f5   Thumb Code    74  control.o(i.STM32_Comm2_Parse)
    STM32_Comm3_Parse                        0x08004945   Thumb Code    74  control.o(i.STM32_Comm3_Parse)
    STM32_Comm4_Parse                        0x08004995   Thumb Code   118  control.o(i.STM32_Comm4_Parse)
    STM32_Control                            0x08004a15   Thumb Code    36  control.o(i.STM32_Control)
    STM32_Queue_Init                         0x08004a3d   Thumb Code    36  control.o(i.STM32_Queue_Init)
    SendCmdToBuf                             0x08004a71   Thumb Code   164  roter.o(i.SendCmdToBuf)
    SendDataByUART                           0x08004b29   Thumb Code   164  control.o(i.SendDataByUART)
    SendRoterPolice                          0x08004be5   Thumb Code    46  control.o(i.SendRoterPolice)
    SetInching                               0x08004c25   Thumb Code     6  roter.o(i.SetInching)
    SetPeriodicity                           0x08004c2d   Thumb Code    76  roter.o(i.SetPeriodicity)
    SetRestoration                           0x08004c7d   Thumb Code    40  roter.o(i.SetRestoration)
    SetRoterInit                             0x08004ca9   Thumb Code   272  roter.o(i.SetRoterInit)
    StartDefaultTask                         0x08004dbd   Thumb Code    32  freertos.o(i.StartDefaultTask)
    StartTask02                              0x08004de1   Thumb Code    38  freertos.o(i.StartTask02)
    StartTask03                              0x08004e15   Thumb Code    38  freertos.o(i.StartTask03)
    StartTask04                              0x08004e49   Thumb Code    38  freertos.o(i.StartTask04)
    StartTask05                              0x08004e7d   Thumb Code    38  freertos.o(i.StartTask05)
    SysTick_Handler                          0x08004eb1   Thumb Code    38  port.o(i.SysTick_Handler)
    SystemClock_Config                       0x08004edd   Thumb Code   120  main.o(i.SystemClock_Config)
    SystemInit                               0x08004f55   Thumb Code     2  system_stm32f1xx.o(i.SystemInit)
    TIM1_UP_IRQHandler                       0x08004f59   Thumb Code     6  stm32f1xx_it.o(i.TIM1_UP_IRQHandler)
    TIM_Base_SetConfig                       0x08004f65   Thumb Code   120  stm32f1xx_hal_tim.o(i.TIM_Base_SetConfig)
    UART2DataParse                           0x08004ff1   Thumb Code   204  roter.o(i.UART2DataParse)
    UART4_IRQHandler                         0x080050c9   Thumb Code    18  stm32f1xx_it.o(i.UART4_IRQHandler)
    UART5_IRQHandler                         0x080050e1   Thumb Code     6  stm32f1xx_it.o(i.UART5_IRQHandler)
    UART_Start_Receive_DMA                   0x080053d1   Thumb Code   130  stm32f1xx_hal_uart.o(i.UART_Start_Receive_DMA)
    UART_Start_Receive_IT                    0x08005461   Thumb Code    54  stm32f1xx_hal_uart.o(i.UART_Start_Receive_IT)
    USART1_IRQHandler                        0x08005511   Thumb Code    18  stm32f1xx_it.o(i.USART1_IRQHandler)
    USART2_IRQHandler                        0x08005529   Thumb Code    18  stm32f1xx_it.o(i.USART2_IRQHandler)
    USART3_IRQHandler                        0x08005541   Thumb Code    18  stm32f1xx_it.o(i.USART3_IRQHandler)
    USER_UART_IRQHandler                     0x08005559   Thumb Code   224  stm32f1xx_it.o(i.USER_UART_IRQHandler)
    UsageFault_Handler                       0x08005699   Thumb Code     2  stm32f1xx_it.o(i.UsageFault_Handler)
    __0printf$1                              0x0800569d   Thumb Code    22  printf1.o(i.__0printf$1)
    __1printf$1                              0x0800569d   Thumb Code     0  printf1.o(i.__0printf$1)
    __2printf                                0x0800569d   Thumb Code     0  printf1.o(i.__0printf$1)
    __aeabi_errno_addr                       0x080056dd   Thumb Code     4  errno.o(i.__aeabi_errno_addr)
    __rt_errno_addr                          0x080056dd   Thumb Code     0  errno.o(i.__aeabi_errno_addr)
    free                                     0x080056e5   Thumb Code    88  mallocr.o(i.__free$realloc)
    malloc                                   0x08005741   Thumb Code    64  mallocr.o(i.__malloc$realloc)
    __read_errno                             0x08005791   Thumb Code     6  errno.o(i.__read_errno)
    __scatterload_copy                       0x0800579d   Thumb Code    14  handlers.o(i.__scatterload_copy)
    __scatterload_null                       0x080057ab   Thumb Code     2  handlers.o(i.__scatterload_null)
    __scatterload_zeroinit                   0x080057ad   Thumb Code    14  handlers.o(i.__scatterload_zeroinit)
    __set_errno                              0x080057bd   Thumb Code     6  errno.o(i.__set_errno)
    _is_digit                                0x080057c9   Thumb Code    14  scanf_fp.o(i._is_digit)
    atof                                     0x0800592d   Thumb Code    42  atof.o(i.atof)
    calculate_checksum                       0x08005957   Thumb Code    26  control.o(i.calculate_checksum)
    check_sum                                0x08005971   Thumb Code    30  roter.o(i.check_sum)
    crc16                                    0x0800598f   Thumb Code    56  roter.o(i.crc16)
    fputc                                    0x080059c9   Thumb Code    20  usart.o(i.fputc)
    hexToBinChar                             0x080059e1   Thumb Code    42  roter.o(i.hexToBinChar)
    hex_to_int                               0x08005a0d   Thumb Code    28  roter.o(i.hex_to_int)
    insertZerosBetweenCommas                 0x08005a3d   Thumb Code    90  gps.o(i.insertZerosBetweenCommas)
    int_to_hex                               0x08005aad   Thumb Code    16  roter.o(i.int_to_hex)
    main                                     0x08005b0d   Thumb Code   174  main.o(i.main)
    osDelay                                  0x08005bf5   Thumb Code    16  cmsis_os.o(i.osDelay)
    osKernelStart                            0x08005c05   Thumb Code    10  cmsis_os.o(i.osKernelStart)
    osMutexCreate                            0x08005c0f   Thumb Code    18  cmsis_os.o(i.osMutexCreate)
    osMutexRelease                           0x08005c21   Thumb Code    76  cmsis_os.o(i.osMutexRelease)
    osMutexWait                              0x08005c71   Thumb Code   100  cmsis_os.o(i.osMutexWait)
    osThreadCreate                           0x08005cd9   Thumb Code    92  cmsis_os.o(i.osThreadCreate)
    pvPortMalloc                             0x08006231   Thumb Code   218  heap_4.o(i.pvPortMalloc)
    pvTaskIncrementMutexHeldCount            0x08006315   Thumb Code    22  tasks.o(i.pvTaskIncrementMutexHeldCount)
    pxPortInitialiseStack                    0x08006331   Thumb Code    30  port.o(i.pxPortInitialiseStack)
    realloc                                  0x08006355   Thumb Code   102  mallocr.o(i.realloc)
    receive_gps_data                         0x080063c1   Thumb Code   364  gps.o(i.receive_gps_data)
    strGga_parse                             0x08006555   Thumb Code   660  gps.o(i.strGga_parse)
    strGll_parse                             0x080067f5   Thumb Code   508  gps.o(i.strGll_parse)
    strGsa_parse                             0x080069fd   Thumb Code   250  gps.o(i.strGsa_parse)
    strGsv_parse                             0x08006afd   Thumb Code   134  gps.o(i.strGsv_parse)
    strRHXZ_parse                            0x08006b89   Thumb Code   100  gps.o(i.strRHXZ_parse)
    strRmc_parse                             0x08006c01   Thumb Code   658  gps.o(i.strRmc_parse)
    strVtg_parse                             0x08006ea1   Thumb Code   164  gps.o(i.strVtg_parse)
    strtod                                   0x08006f49   Thumb Code    28  strtod.o(i.strtod)
    uxListRemove                             0x08006f65   Thumb Code    38  list.o(i.uxListRemove)
    vApplicationGetIdleTaskMemory            0x08006f8d   Thumb Code    16  freertos.o(i.vApplicationGetIdleTaskMemory)
    vListInitialise                          0x08006fa1   Thumb Code    22  list.o(i.vListInitialise)
    vListInitialiseItem                      0x08006fb7   Thumb Code     6  list.o(i.vListInitialiseItem)
    vListInsert                              0x08006fbd   Thumb Code    54  list.o(i.vListInsert)
    vListInsertEnd                           0x08006ff3   Thumb Code    24  list.o(i.vListInsertEnd)
    vPortEnterCritical                       0x0800700d   Thumb Code    54  port.o(i.vPortEnterCritical)
    vPortExitCritical                        0x0800704d   Thumb Code    38  port.o(i.vPortExitCritical)
    vPortFree                                0x08007079   Thumb Code    88  heap_4.o(i.vPortFree)
    vPortSetupTimerInterrupt                 0x080070d5   Thumb Code    32  port.o(i.vPortSetupTimerInterrupt)
    vPortValidateInterruptPriority           0x080070f9   Thumb Code    74  port.o(i.vPortValidateInterruptPriority)
    vTaskDelay                               0x0800714d   Thumb Code    70  tasks.o(i.vTaskDelay)
    vTaskInternalSetTimeOutState             0x0800719d   Thumb Code    12  tasks.o(i.vTaskInternalSetTimeOutState)
    vTaskMissedYield                         0x080071ad   Thumb Code     8  tasks.o(i.vTaskMissedYield)
    vTaskPlaceOnEventList                    0x080071b9   Thumb Code    48  tasks.o(i.vTaskPlaceOnEventList)
    vTaskPriorityDisinheritAfterTimeout      0x080071ed   Thumb Code   170  tasks.o(i.vTaskPriorityDisinheritAfterTimeout)
    vTaskStartScheduler                      0x080072a1   Thumb Code   120  tasks.o(i.vTaskStartScheduler)
    vTaskSuspendAll                          0x08007329   Thumb Code    10  tasks.o(i.vTaskSuspendAll)
    vTaskSwitchContext                       0x08007339   Thumb Code    86  tasks.o(i.vTaskSwitchContext)
    xPortStartScheduler                      0x08007399   Thumb Code   168  port.o(i.xPortStartScheduler)
    xQueueCreateMutex                        0x0800744d   Thumb Code    24  queue.o(i.xQueueCreateMutex)
    xQueueCreateMutexStatic                  0x08007465   Thumb Code    28  queue.o(i.xQueueCreateMutexStatic)
    xQueueGenericCreate                      0x08007481   Thumb Code    74  queue.o(i.xQueueGenericCreate)
    xQueueGenericCreateStatic                0x080074cb   Thumb Code   112  queue.o(i.xQueueGenericCreateStatic)
    xQueueGenericReset                       0x0800753d   Thumb Code   138  queue.o(i.xQueueGenericReset)
    xQueueGenericSend                        0x080075cd   Thumb Code   362  queue.o(i.xQueueGenericSend)
    xQueueGiveFromISR                        0x0800773d   Thumb Code   160  queue.o(i.xQueueGiveFromISR)
    xQueueReceiveFromISR                     0x080077dd   Thumb Code   154  queue.o(i.xQueueReceiveFromISR)
    xQueueSemaphoreTake                      0x08007879   Thumb Code   382  queue.o(i.xQueueSemaphoreTake)
    xTaskCheckForTimeOut                     0x080079fd   Thumb Code   122  tasks.o(i.xTaskCheckForTimeOut)
    xTaskCreate                              0x08007a7d   Thumb Code   108  tasks.o(i.xTaskCreate)
    xTaskCreateStatic                        0x08007ae9   Thumb Code    96  tasks.o(i.xTaskCreateStatic)
    xTaskGetSchedulerState                   0x08007b49   Thumb Code    24  tasks.o(i.xTaskGetSchedulerState)
    xTaskIncrementTick                       0x08007b65   Thumb Code   200  tasks.o(i.xTaskIncrementTick)
    xTaskPriorityDisinherit                  0x08007c35   Thumb Code   154  tasks.o(i.xTaskPriorityDisinherit)
    xTaskPriorityInherit                     0x08007cd9   Thumb Code   148  tasks.o(i.xTaskPriorityInherit)
    xTaskRemoveFromEventList                 0x08007d75   Thumb Code   108  tasks.o(i.xTaskRemoveFromEventList)
    xTaskResumeAll                           0x08007ded   Thumb Code   190  tasks.o(i.xTaskResumeAll)
    AHBPrescTable                            0x08007f80   Data          16  system_stm32f1xx.o(.constdata)
    APBPrescTable                            0x08007f90   Data           8  system_stm32f1xx.o(.constdata)
    __ctype_table                            0x08007f98   Data         129  ctype_o.o(.constdata)
    Region$$Table$$Base                      0x0800805c   Number         0  anon$$obj.o(Region$$Table)
    Region$$Table$$Limit                     0x0800807c   Number         0  anon$$obj.o(Region$$Table)
    g_rhxz                                   0x20000000   Data           6  gps.o(.data)
    Roter1Police1                            0x20000008   Data           1  roter.o(.data)
    Roter1Police5                            0x20000009   Data           1  roter.o(.data)
    g_Roter1Cmd_head                         0x2000000a   Data           1  roter.o(.data)
    g_Roter1Cmd_tail                         0x2000000b   Data           1  roter.o(.data)
    g_Roter5Cmd_head                         0x2000000c   Data           1  roter.o(.data)
    g_Roter5Cmd_tail                         0x2000000d   Data           1  roter.o(.data)
    g_Roter1SendCmdOK                        0x2000000e   Data           1  roter.o(.data)
    g_Roter5SendCmdOK                        0x2000000f   Data           1  roter.o(.data)
    HighCheckSum                             0x20000010   Data           1  roter.o(.data)
    LowCheckSum                              0x20000011   Data           1  roter.o(.data)
    g_crc1                                   0x20000012   Data           2  roter.o(.data)
    g_crc5                                   0x20000014   Data           2  roter.o(.data)
    g_num                                    0x20000018   Data           4  roter.o(.data)
    g_ImpulseCount1                          0x2000001c   Data           4  roter.o(.data)
    g_ImpulseCount5                          0x20000020   Data           4  roter.o(.data)
    BiteTo                                   0x20000024   Data           4  roter.o(.data)
    g_AngleValue1                            0x20000028   Data           4  roter.o(.data)
    g_AngleValue5                            0x2000002c   Data           4  roter.o(.data)
    setEnable1                               0x20000030   Data           8  roter.o(.data)
    setEnable5                               0x20000038   Data           8  roter.o(.data)
    setFineFraction1                         0x20000040   Data           8  roter.o(.data)
    setFineFraction5                         0x20000048   Data           8  roter.o(.data)
    setSpeed1                                0x20000050   Data           8  roter.o(.data)
    setSpeed5                                0x20000058   Data           8  roter.o(.data)
    setStartSpeed1                           0x20000060   Data           8  roter.o(.data)
    setStartSpeed5                           0x20000068   Data           8  roter.o(.data)
    setAccTime1                              0x20000070   Data           8  roter.o(.data)
    setAccTime5                              0x20000078   Data           8  roter.o(.data)
    setStopSpeed1                            0x20000080   Data           8  roter.o(.data)
    setStopSpeed5                            0x20000088   Data           8  roter.o(.data)
    setStopTime1                             0x20000090   Data           8  roter.o(.data)
    setStopTime5                             0x20000098   Data           8  roter.o(.data)
    setSave1                                 0x200000a0   Data           8  roter.o(.data)
    setSave5                                 0x200000a8   Data           8  roter.o(.data)
    ReadCondition1                           0x200000b0   Data           8  roter.o(.data)
    ReadCondition5                           0x200000b8   Data           8  roter.o(.data)
    ReadLocation1                            0x200000c0   Data           8  roter.o(.data)
    ReadLocation5                            0x200000c8   Data           8  roter.o(.data)
    ReadPolice1                              0x200000d0   Data           8  roter.o(.data)
    ReadPolice5                              0x200000d8   Data           8  roter.o(.data)
    RemovePolice1                            0x200000e0   Data           8  roter.o(.data)
    RemovePolice5                            0x200000e8   Data           8  roter.o(.data)
    RoterCondition1                          0x200000f0   Data           8  roter.o(.data)
    Police1                                  0x200000f8   Data           8  roter.o(.data)
    RoterCondition5                          0x20000100   Data           8  roter.o(.data)
    Police5                                  0x20000108   Data           8  roter.o(.data)
    setPoint1                                0x20000110   Data          13  roter.o(.data)
    setPoint5                                0x2000011d   Data          13  roter.o(.data)
    setAngle1                                0x2000012a   Data          13  roter.o(.data)
    setAngle5                                0x20000137   Data          13  roter.o(.data)
    setRelativeAngle1                        0x20000144   Data          13  roter.o(.data)
    setRelativeAngle5                        0x20000151   Data          13  roter.o(.data)
    setInching1_1                            0x2000015e   Data          13  roter.o(.data)
    setInching1_2                            0x2000016b   Data          13  roter.o(.data)
    setInching5_1                            0x20000178   Data          13  roter.o(.data)
    setInching5_2                            0x20000185   Data          13  roter.o(.data)
    RecvData1                                0x20000192   Data           1  control.o(.data)
    RecvData2                                0x20000193   Data           1  control.o(.data)
    RecvData3                                0x20000194   Data           1  control.o(.data)
    RecvData4                                0x20000195   Data           1  control.o(.data)
    BlueOKFlag                               0x20000196   Data           1  control.o(.data)
    FireGun1                                 0x20000197   Data           1  control.o(.data)
    FireGun2                                 0x20000198   Data           1  control.o(.data)
    Limit1                                   0x20000199   Data           1  control.o(.data)
    Limit2                                   0x2000019a   Data           1  control.o(.data)
    Roter1CMDFlag                            0x2000019b   Data           1  control.o(.data)
    Roter5CMDFlag                            0x2000019c   Data           1  control.o(.data)
    QUART1                                   0x200001a0   Data           4  lqueue.o(.data)
    QUART2                                   0x200001a4   Data           4  lqueue.o(.data)
    QUART3                                   0x200001a8   Data           4  lqueue.o(.data)
    QUART4                                   0x200001ac   Data           4  lqueue.o(.data)
    g_GpsFlag                                0x200001b0   Data           1  main.o(.data)
    g_RoterTimeFlag                          0x200001b1   Data           1  main.o(.data)
    g_GunFlag                                0x200001b2   Data           1  main.o(.data)
    RX1_Offset                               0x200001b3   Data           1  main.o(.data)
    RX2_Offset                               0x200001b4   Data           1  main.o(.data)
    RX3_Offset                               0x200001b5   Data           1  main.o(.data)
    RX4_Offset                               0x200001b6   Data           1  main.o(.data)
    g_FireGunSucess1                         0x200001b7   Data           8  main.o(.data)
    g_FireGunSucess2                         0x200001bf   Data           8  main.o(.data)
    g_Limit1                                 0x200001c7   Data           8  main.o(.data)
    g_Limit2                                 0x200001cf   Data           8  main.o(.data)
    defaultTaskHandle                        0x200001d8   Data           4  freertos.o(.data)
    myTask02Handle                           0x200001dc   Data           4  freertos.o(.data)
    myTask03Handle                           0x200001e0   Data           4  freertos.o(.data)
    myTask04Handle                           0x200001e4   Data           4  freertos.o(.data)
    myTask05Handle                           0x200001e8   Data           4  freertos.o(.data)
    myMutex01Handle                          0x200001ec   Data           4  freertos.o(.data)
    uwTickFreq                               0x200001f4   Data           1  stm32f1xx_hal.o(.data)
    uwTickPrio                               0x200001f8   Data           4  stm32f1xx_hal.o(.data)
    uwTick                                   0x200001fc   Data           4  stm32f1xx_hal.o(.data)
    SystemCoreClock                          0x20000200   Data           4  system_stm32f1xx.o(.data)
    pxCurrentTCB                             0x20000204   Data           4  tasks.o(.data)
    __stdout                                 0x20000268   Data           4  stdout.o(.data)
    __microlib_freelist                      0x2000026c   Data           4  mvars.o(.data)
    __microlib_freelist_initialised          0x20000270   Data           4  mvars.o(.data)
    g_gga                                    0x20000278   Data         144  gps.o(.bss)
    g_gll                                    0x20000308   Data          88  gps.o(.bss)
    g_gsa                                    0x20000360   Data          80  gps.o(.bss)
    g_gsv                                    0x200003b0   Data          76  gps.o(.bss)
    g_rmc                                    0x20000400   Data         152  gps.o(.bss)
    g_vtg                                    0x20000498   Data          64  gps.o(.bss)
    g_Roter1CmdAddr                          0x200004d8   Data         510  roter.o(.bss)
    g_Roter1CmdBuf                           0x200006d6   Data        3315  roter.o(.bss)
    g_Roter5CmdAddr                          0x200013c9   Data         510  roter.o(.bss)
    g_Roter5CmdBuf                           0x200015c7   Data        3315  roter.o(.bss)
    hexToBin                                 0x200022ba   Data          17  roter.o(.bss)
    Rxbuffer                                 0x200022cb   Data         100  control.o(.bss)
    g_Comm1RxBuffer                          0x2000232f   Data         256  main.o(.bss)
    g_Comm2RxBuffer                          0x2000242f   Data         256  main.o(.bss)
    g_Comm3RxBuffer                          0x2000252f   Data         256  main.o(.bss)
    g_Comm4RxBuffer                          0x2000262f   Data         256  main.o(.bss)
    g_Comm5RxBuffer                          0x2000272f   Data        1024  main.o(.bss)
    g_GpsToHead                              0x20002b30   Data          28  main.o(.bss)
    g_AngleToHead                            0x20002b4c   Data          10  main.o(.bss)
    hadc1                                    0x20002e1c   Data          48  adc.o(.bss)
    huart4                                   0x20002e4c   Data          72  usart.o(.bss)
    huart5                                   0x20002e94   Data          72  usart.o(.bss)
    huart1                                   0x20002edc   Data          72  usart.o(.bss)
    huart2                                   0x20002f24   Data          72  usart.o(.bss)
    huart3                                   0x20002f6c   Data          72  usart.o(.bss)
    hdma_uart4_rx                            0x20002fb4   Data          68  usart.o(.bss)
    hdma_uart4_tx                            0x20002ff8   Data          68  usart.o(.bss)
    hdma_usart1_rx                           0x2000303c   Data          68  usart.o(.bss)
    hdma_usart1_tx                           0x20003080   Data          68  usart.o(.bss)
    hdma_usart2_rx                           0x200030c4   Data          68  usart.o(.bss)
    hdma_usart2_tx                           0x20003108   Data          68  usart.o(.bss)
    hdma_usart3_rx                           0x2000314c   Data          68  usart.o(.bss)
    hdma_usart3_tx                           0x20003190   Data          68  usart.o(.bss)
    htim1                                    0x200031d4   Data          72  stm32f1xx_hal_timebase_tim.o(.bss)
    __heap_base                              0x20004710   Data           0  startup_stm32f103xe.o(HEAP)
    __heap_limit                             0x20004f10   Data           0  startup_stm32f103xe.o(HEAP)
    __initial_sp                             0x20005710   Data           0  startup_stm32f103xe.o(STACK)



==============================================================================

Memory Map of the image

  Image Entry point : 0x08000131

  Load Region LR_IROM1 (Base: 0x08000000, Size: 0x000082f4, Max: 0x00040000, ABSOLUTE, COMPRESSED[0x0000819c])

    Execution Region ER_IROM1 (Exec base: 0x08000000, Load base: 0x08000000, Size: 0x0000807c, Max: 0x00040000, ABSOLUTE)

    Exec Addr    Load Addr    Size         Type   Attr      Idx    E Section Name        Object

    0x08000000   0x08000000   0x00000130   Data   RO            3    RESET               startup_stm32f103xe.o
    0x08000130   0x08000130   0x00000000   Code   RO         5175  * .ARM.Collect$$$$00000000  mc_w.l(entry.o)
    0x08000130   0x08000130   0x00000004   Code   RO         5527    .ARM.Collect$$$$00000001  mc_w.l(entry2.o)
    0x08000134   0x08000134   0x00000004   Code   RO         5530    .ARM.Collect$$$$00000004  mc_w.l(entry5.o)
    0x08000138   0x08000138   0x00000000   Code   RO         5532    .ARM.Collect$$$$00000008  mc_w.l(entry7b.o)
    0x08000138   0x08000138   0x00000000   Code   RO         5534    .ARM.Collect$$$$0000000A  mc_w.l(entry8b.o)
    0x08000138   0x08000138   0x00000008   Code   RO         5535    .ARM.Collect$$$$0000000B  mc_w.l(entry9a.o)
    0x08000140   0x08000140   0x00000000   Code   RO         5537    .ARM.Collect$$$$0000000D  mc_w.l(entry10a.o)
    0x08000140   0x08000140   0x00000000   Code   RO         5539    .ARM.Collect$$$$0000000F  mc_w.l(entry11a.o)
    0x08000140   0x08000140   0x00000004   Code   RO         5528    .ARM.Collect$$$$00002712  mc_w.l(entry2.o)
    0x08000144   0x08000144   0x00000096   Code   RO         5090    .emb_text           port.o
    0x080001da   0x080001da   0x00000002   PAD
    0x080001dc   0x080001dc   0x00000024   Code   RO            4    .text               startup_stm32f103xe.o
    0x08000200   0x08000200   0x00000020   Code   RO         5178    .text               mc_w.l(llushr.o)
    0x08000220   0x08000220   0x00000040   Code   RO         5182    .text               mc_w.l(memmovea.o)
    0x08000260   0x08000260   0x00000024   Code   RO         5186    .text               mc_w.l(memseta.o)
    0x08000284   0x08000284   0x00000018   Code   RO         5188    .text               mc_w.l(strncpy.o)
    0x0800029c   0x0800029c   0x0000000e   Code   RO         5190    .text               mc_w.l(strlen.o)
    0x080002aa   0x080002aa   0x00000012   Code   RO         5192    .text               mc_w.l(strcpy.o)
    0x080002bc   0x080002bc   0x0000001e   Code   RO         5194    .text               mc_w.l(strncmp.o)
    0x080002da   0x080002da   0x00000002   PAD
    0x080002dc   0x080002dc   0x00000044   Code   RO         5196    .text               mc_w.l(strtok.o)
    0x08000320   0x08000320   0x00000038   Code   RO         5495    .text               mc_w.l(__0sscanf.o)
    0x08000358   0x08000358   0x0000014c   Code   RO         5497    .text               mc_w.l(_scanf_int.o)
    0x080004a4   0x080004a4   0x00000070   Code   RO         5499    .text               mc_w.l(strtol.o)
    0x08000514   0x08000514   0x0000001a   Code   RO         5501    .text               mc_w.l(atoi.o)
    0x0800052e   0x0800052e   0x000000b0   Code   RO         5503    .text               mf_w.l(fadd.o)
    0x080005de   0x080005de   0x0000014e   Code   RO         5505    .text               mf_w.l(dadd.o)
    0x0800072c   0x0800072c   0x000000e4   Code   RO         5507    .text               mf_w.l(dmul.o)
    0x08000810   0x08000810   0x000000de   Code   RO         5509    .text               mf_w.l(ddiv.o)
    0x080008ee   0x080008ee   0x0000002e   Code   RO         5511    .text               mf_w.l(dscalb.o)
    0x0800091c   0x0800091c   0x00000022   Code   RO         5513    .text               mf_w.l(dflti.o)
    0x0800093e   0x0800093e   0x0000001a   Code   RO         5515    .text               mf_w.l(dfltui.o)
    0x08000958   0x08000958   0x00000028   Code   RO         5517    .text               mf_w.l(ffixui.o)
    0x08000980   0x08000980   0x0000003e   Code   RO         5519    .text               mf_w.l(dfixi.o)
    0x080009be   0x080009be   0x00000032   Code   RO         5521    .text               mf_w.l(dfixui.o)
    0x080009f0   0x080009f0   0x00000026   Code   RO         5523    .text               mf_w.l(f2d.o)
    0x08000a16   0x08000a16   0x00000038   Code   RO         5525    .text               mf_w.l(d2f.o)
    0x08000a4e   0x08000a4e   0x0000002c   Code   RO         5542    .text               mc_w.l(uidiv.o)
    0x08000a7a   0x08000a7a   0x0000001e   Code   RO         5546    .text               mc_w.l(llshl.o)
    0x08000a98   0x08000a98   0x00000024   Code   RO         5548    .text               mc_w.l(llsshr.o)
    0x08000abc   0x08000abc   0x00000008   Code   RO         5550    .text               mc_w.l(ctype_o.o)
    0x08000ac4   0x08000ac4   0x00000012   Code   RO         5572    .text               mc_w.l(isspace_o.o)
    0x08000ad6   0x08000ad6   0x0000001c   Code   RO         5587    .text               mc_w.l(_chval.o)
    0x08000af2   0x08000af2   0x00000002   PAD
    0x08000af4   0x08000af4   0x00000028   Code   RO         5589    .text               mc_w.l(scanf_char.o)
    0x08000b1c   0x08000b1c   0x00000040   Code   RO         5591    .text               mc_w.l(_sgetc.o)
    0x08000b5c   0x08000b5c   0x0000009e   Code   RO         5593    .text               mc_w.l(_strtoul.o)
    0x08000bfa   0x08000bfa   0x00000002   PAD
    0x08000bfc   0x08000bfc   0x0000009c   Code   RO         5595    .text               mc_w.l(strtod.o)
    0x08000c98   0x08000c98   0x00000000   Code   RO         5597    .text               mc_w.l(iusefp.o)
    0x08000c98   0x08000c98   0x0000006e   Code   RO         5598    .text               mf_w.l(fepilogue.o)
    0x08000d06   0x08000d06   0x000000ba   Code   RO         5600    .text               mf_w.l(depilogue.o)
    0x08000dc0   0x08000dc0   0x00000024   Code   RO         5606    .text               mc_w.l(init.o)
    0x08000de4   0x08000de4   0x0000032c   Code   RO         5610    .text               mc_w.l(_scanf.o)
    0x08001110   0x08001110   0x00000360   Code   RO         5612    .text               mc_w.l(scanf_fp.o)
    0x08001470   0x08001470   0x00000018   Code   RO         5619    .text               mf_w.l(dfltul.o)
    0x08001488   0x08001488   0x00000056   Code   RO         5629    .text               mc_w.l(__dczerorl2.o)
    0x080014de   0x080014de   0x00000002   PAD
    0x080014e0   0x080014e0   0x00000098   Code   RO          360    i.ADC_BAT_Test      control.o
    0x08001578   0x08001578   0x00000056   Code   RO         1255    i.ADC_ConversionStop_Disable  stm32f1xx_hal_adc.o
    0x080015ce   0x080015ce   0x00000002   PAD
    0x080015d0   0x080015d0   0x0000007c   Code   RO         1259    i.ADC_Enable        stm32f1xx_hal_adc.o
    0x0800164c   0x0800164c   0x00000054   Code   RO          361    i.BlueHostConnect   control.o
    0x080016a0   0x080016a0   0x000000a0   Code   RO          362    i.BlueSlaveConnect  control.o
    0x08001740   0x08001740   0x000000e4   Code   RO          363    i.BlueStart         control.o
    0x08001824   0x08001824   0x0000007c   Code   RO          364    i.BlueWeakUp        control.o
    0x080018a0   0x080018a0   0x00000002   Code   RO          968    i.BusFault_Handler  stm32f1xx_it.o
    0x080018a2   0x080018a2   0x00000002   PAD
    0x080018a4   0x080018a4   0x00000100   Code   RO          365    i.ControlFuntion    control.o
    0x080019a4   0x080019a4   0x00000030   Code   RO          366    i.CopyAngleDataToUsart1  control.o
    0x080019d4   0x080019d4   0x0000006c   Code   RO          367    i.CopyGpsDataToUsart1  control.o
    0x08001a40   0x08001a40   0x00000022   Code   RO          568    i.Create_Empty_Queue  lqueue.o
    0x08001a62   0x08001a62   0x00000002   PAD
    0x08001a64   0x08001a64   0x0000000c   Code   RO          969    i.DMA1_Channel2_IRQHandler  stm32f1xx_it.o
    0x08001a70   0x08001a70   0x0000000c   Code   RO          970    i.DMA1_Channel3_IRQHandler  stm32f1xx_it.o
    0x08001a7c   0x08001a7c   0x0000000c   Code   RO          971    i.DMA1_Channel4_IRQHandler  stm32f1xx_it.o
    0x08001a88   0x08001a88   0x0000000c   Code   RO          972    i.DMA1_Channel5_IRQHandler  stm32f1xx_it.o
    0x08001a94   0x08001a94   0x0000000c   Code   RO          973    i.DMA1_Channel6_IRQHandler  stm32f1xx_it.o
    0x08001aa0   0x08001aa0   0x0000000c   Code   RO          974    i.DMA1_Channel7_IRQHandler  stm32f1xx_it.o
    0x08001aac   0x08001aac   0x0000000c   Code   RO          975    i.DMA2_Channel3_IRQHandler  stm32f1xx_it.o
    0x08001ab8   0x08001ab8   0x0000000c   Code   RO          976    i.DMA2_Channel4_5_IRQHandler  stm32f1xx_it.o
    0x08001ac4   0x08001ac4   0x0000002a   Code   RO         1911    i.DMA_SetConfig     stm32f1xx_hal_dma.o
    0x08001aee   0x08001aee   0x00000002   PAD
    0x08001af0   0x08001af0   0x000000a0   Code   RO           97    i.DataParseCondition  roter.o
    0x08001b90   0x08001b90   0x00000178   Code   RO          368    i.DataParseFunction  control.o
    0x08001d08   0x08001d08   0x0000005c   Code   RO           98    i.DataParseLocation  roter.o
    0x08001d64   0x08001d64   0x0000007c   Code   RO           99    i.DataParsePolice   roter.o
    0x08001de0   0x08001de0   0x000000a8   Code   RO          369    i.DataParseRoter1   control.o
    0x08001e88   0x08001e88   0x000000a8   Code   RO          370    i.DataParseRoter5   control.o
    0x08001f30   0x08001f30   0x00000002   Code   RO          977    i.DebugMon_Handler  stm32f1xx_it.o
    0x08001f32   0x08001f32   0x00000030   Code   RO          569    i.Dequeue           lqueue.o
    0x08001f62   0x08001f62   0x00000006   Code   RO          978    i.EXTI0_IRQHandler  stm32f1xx_it.o
    0x08001f68   0x08001f68   0x00000006   Code   RO          979    i.EXTI1_IRQHandler  stm32f1xx_it.o
    0x08001f6e   0x08001f6e   0x00000016   Code   RO          980    i.EXTI9_5_IRQHandler  stm32f1xx_it.o
    0x08001f84   0x08001f84   0x0000002e   Code   RO          570    i.Enqueue           lqueue.o
    0x08001fb2   0x08001fb2   0x0000002a   Code   RO          571    i.Enqueue_Bytes     lqueue.o
    0x08001fdc   0x08001fdc   0x00000004   Code   RO          626    i.Error_Handler     main.o
    0x08001fe0   0x08001fe0   0x00000018   Code   RO          371    i.FireGun           control.o
    0x08001ff8   0x08001ff8   0x00000034   Code   RO          372    i.FireGunControl    control.o
    0x0800202c   0x0800202c   0x000000d8   Code   RO         1435    i.HAL_ADCEx_Calibration_Start  stm32f1xx_hal_adc_ex.o
    0x08002104   0x08002104   0x000000fc   Code   RO         1261    i.HAL_ADC_ConfigChannel  stm32f1xx_hal_adc.o
    0x08002200   0x08002200   0x00000006   Code   RO         1268    i.HAL_ADC_GetValue  stm32f1xx_hal_adc.o
    0x08002206   0x08002206   0x00000002   PAD
    0x08002208   0x08002208   0x00000120   Code   RO         1270    i.HAL_ADC_Init      stm32f1xx_hal_adc.o
    0x08002328   0x08002328   0x00000058   Code   RO          831    i.HAL_ADC_MspInit   adc.o
    0x08002380   0x08002380   0x0000013c   Code   RO         1274    i.HAL_ADC_PollForConversion  stm32f1xx_hal_adc.o
    0x080024bc   0x080024bc   0x000000c0   Code   RO         1276    i.HAL_ADC_Start     stm32f1xx_hal_adc.o
    0x0800257c   0x0800257c   0x00000046   Code   RO         1912    i.HAL_DMA_Abort     stm32f1xx_hal_dma.o
    0x080025c2   0x080025c2   0x00000002   PAD
    0x080025c4   0x080025c4   0x00000130   Code   RO         1913    i.HAL_DMA_Abort_IT  stm32f1xx_hal_dma.o
    0x080026f4   0x080026f4   0x00000248   Code   RO         1917    i.HAL_DMA_IRQHandler  stm32f1xx_hal_dma.o
    0x0800293c   0x0800293c   0x0000007c   Code   RO         1918    i.HAL_DMA_Init      stm32f1xx_hal_dma.o
    0x080029b8   0x080029b8   0x00000070   Code   RO         1922    i.HAL_DMA_Start_IT  stm32f1xx_hal_dma.o
    0x08002a28   0x08002a28   0x00000024   Code   RO         1538    i.HAL_Delay         stm32f1xx_hal.o
    0x08002a4c   0x08002a4c   0x00000050   Code   RO          981    i.HAL_GPIO_EXTI_Callback  stm32f1xx_it.o
    0x08002a9c   0x08002a9c   0x00000018   Code   RO         1847    i.HAL_GPIO_EXTI_IRQHandler  stm32f1xx_hal_gpio.o
    0x08002ab4   0x08002ab4   0x000001f8   Code   RO         1848    i.HAL_GPIO_Init     stm32f1xx_hal_gpio.o
    0x08002cac   0x08002cac   0x00000010   Code   RO         1851    i.HAL_GPIO_TogglePin  stm32f1xx_hal_gpio.o
    0x08002cbc   0x08002cbc   0x0000000a   Code   RO         1852    i.HAL_GPIO_WritePin  stm32f1xx_hal_gpio.o
    0x08002cc6   0x08002cc6   0x00000002   PAD
    0x08002cc8   0x08002cc8   0x0000000c   Code   RO         1542    i.HAL_GetTick       stm32f1xx_hal.o
    0x08002cd4   0x08002cd4   0x00000010   Code   RO         1548    i.HAL_IncTick       stm32f1xx_hal.o
    0x08002ce4   0x08002ce4   0x00000024   Code   RO         1549    i.HAL_Init          stm32f1xx_hal.o
    0x08002d08   0x08002d08   0x0000008c   Code   RO         1180    i.HAL_InitTick      stm32f1xx_hal_timebase_tim.o
    0x08002d94   0x08002d94   0x00000048   Code   RO         1156    i.HAL_MspInit       stm32f1xx_hal_msp.o
    0x08002ddc   0x08002ddc   0x0000001a   Code   RO         2008    i.HAL_NVIC_EnableIRQ  stm32f1xx_hal_cortex.o
    0x08002df6   0x08002df6   0x00000002   PAD
    0x08002df8   0x08002df8   0x00000040   Code   RO         2014    i.HAL_NVIC_SetPriority  stm32f1xx_hal_cortex.o
    0x08002e38   0x08002e38   0x00000024   Code   RO         2015    i.HAL_NVIC_SetPriorityGrouping  stm32f1xx_hal_cortex.o
    0x08002e5c   0x08002e5c   0x000000b8   Code   RO         1809    i.HAL_RCCEx_GetPeriphCLKFreq  stm32f1xx_hal_rcc_ex.o
    0x08002f14   0x08002f14   0x000000ec   Code   RO         1810    i.HAL_RCCEx_PeriphCLKConfig  stm32f1xx_hal_rcc_ex.o
    0x08003000   0x08003000   0x0000012c   Code   RO         1706    i.HAL_RCC_ClockConfig  stm32f1xx_hal_rcc.o
    0x0800312c   0x0800312c   0x00000040   Code   RO         1710    i.HAL_RCC_GetClockConfig  stm32f1xx_hal_rcc.o
    0x0800316c   0x0800316c   0x00000020   Code   RO         1713    i.HAL_RCC_GetPCLK1Freq  stm32f1xx_hal_rcc.o
    0x0800318c   0x0800318c   0x00000020   Code   RO         1714    i.HAL_RCC_GetPCLK2Freq  stm32f1xx_hal_rcc.o
    0x080031ac   0x080031ac   0x00000054   Code   RO         1715    i.HAL_RCC_GetSysClockFreq  stm32f1xx_hal_rcc.o
    0x08003200   0x08003200   0x00000320   Code   RO         1718    i.HAL_RCC_OscConfig  stm32f1xx_hal_rcc.o
    0x08003520   0x08003520   0x00000002   Code   RO         3214    i.HAL_TIMEx_BreakCallback  stm32f1xx_hal_tim_ex.o
    0x08003522   0x08003522   0x00000002   Code   RO         3215    i.HAL_TIMEx_CommutCallback  stm32f1xx_hal_tim_ex.o
    0x08003524   0x08003524   0x0000005a   Code   RO         2510    i.HAL_TIM_Base_Init  stm32f1xx_hal_tim.o
    0x0800357e   0x0800357e   0x00000002   Code   RO         2512    i.HAL_TIM_Base_MspInit  stm32f1xx_hal_tim.o
    0x08003580   0x08003580   0x0000006c   Code   RO         2515    i.HAL_TIM_Base_Start_IT  stm32f1xx_hal_tim.o
    0x080035ec   0x080035ec   0x00000002   Code   RO         2544    i.HAL_TIM_IC_CaptureCallback  stm32f1xx_hal_tim.o
    0x080035ee   0x080035ee   0x00000166   Code   RO         2558    i.HAL_TIM_IRQHandler  stm32f1xx_hal_tim.o
    0x08003754   0x08003754   0x00000002   Code   RO         2561    i.HAL_TIM_OC_DelayElapsedCallback  stm32f1xx_hal_tim.o
    0x08003756   0x08003756   0x00000002   Code   RO         2588    i.HAL_TIM_PWM_PulseFinishedCallback  stm32f1xx_hal_tim.o
    0x08003758   0x08003758   0x00000014   Code   RO          627    i.HAL_TIM_PeriodElapsedCallback  main.o
    0x0800376c   0x0800376c   0x00000002   Code   RO         2601    i.HAL_TIM_TriggerCallback  stm32f1xx_hal_tim.o
    0x0800376e   0x0800376e   0x0000004e   Code   RO         3492    i.HAL_UARTEx_ReceiveToIdle_IT  stm32f1xx_hal_uart.o
    0x080037bc   0x080037bc   0x00000044   Code   RO          982    i.HAL_UARTEx_RxEventCallback  stm32f1xx_it.o
    0x08003800   0x08003800   0x00000002   Code   RO         3507    i.HAL_UART_ErrorCallback  stm32f1xx_hal_uart.o
    0x08003802   0x08003802   0x00000002   PAD
    0x08003804   0x08003804   0x0000026c   Code   RO         3510    i.HAL_UART_IRQHandler  stm32f1xx_hal_uart.o
    0x08003a70   0x08003a70   0x00000064   Code   RO         3511    i.HAL_UART_Init     stm32f1xx_hal_uart.o
    0x08003ad4   0x08003ad4   0x000003b0   Code   RO          897    i.HAL_UART_MspInit  usart.o
    0x08003e84   0x08003e84   0x0000001c   Code   RO         3515    i.HAL_UART_Receive_DMA  stm32f1xx_hal_uart.o
    0x08003ea0   0x08003ea0   0x000000a8   Code   RO          983    i.HAL_UART_RxCpltCallback  stm32f1xx_it.o
    0x08003f48   0x08003f48   0x000000b4   Code   RO          984    i.HAL_UART_RxHalfCpltCallback  stm32f1xx_it.o
    0x08003ffc   0x08003ffc   0x0000009a   Code   RO         3519    i.HAL_UART_Transmit  stm32f1xx_hal_uart.o
    0x08004096   0x08004096   0x00000002   Code   RO         3522    i.HAL_UART_TxCpltCallback  stm32f1xx_hal_uart.o
    0x08004098   0x08004098   0x00000002   Code   RO          985    i.HardFault_Handler  stm32f1xx_it.o
    0x0800409a   0x0800409a   0x00000002   PAD
    0x0800409c   0x0800409c   0x00000050   Code   RO          832    i.MX_ADC1_Init      adc.o
    0x080040ec   0x080040ec   0x000000ac   Code   RO          872    i.MX_DMA_Init       dma.o
    0x08004198   0x08004198   0x0000008c   Code   RO          756    i.MX_FREERTOS_Init  freertos.o
    0x08004224   0x08004224   0x00000170   Code   RO          732    i.MX_GPIO_Init      gpio.o
    0x08004394   0x08004394   0x00000038   Code   RO          898    i.MX_UART4_Init     usart.o
    0x080043cc   0x080043cc   0x00000038   Code   RO          899    i.MX_UART5_Init     usart.o
    0x08004404   0x08004404   0x00000038   Code   RO          900    i.MX_USART1_UART_Init  usart.o
    0x0800443c   0x0800443c   0x00000038   Code   RO          901    i.MX_USART2_UART_Init  usart.o
    0x08004474   0x08004474   0x00000038   Code   RO          902    i.MX_USART3_UART_Init  usart.o
    0x080044ac   0x080044ac   0x00000002   Code   RO          986    i.MemManage_Handler  stm32f1xx_it.o
    0x080044ae   0x080044ae   0x00000002   Code   RO          987    i.NMI_Handler       stm32f1xx_it.o
    0x080044b0   0x080044b0   0x000000b4   Code   RO          100    i.ProcessCmdBuffer  roter.o
    0x08004564   0x08004564   0x00000010   Code   RO          572    i.Queue_Is_Empty    lqueue.o
    0x08004574   0x08004574   0x00000022   Code   RO          573    i.Queue_Is_Full     lqueue.o
    0x08004596   0x08004596   0x00000018   Code   RO          574    i.Queue_Size        lqueue.o
    0x080045ae   0x080045ae   0x00000002   PAD
    0x080045b0   0x080045b0   0x00000040   Code   RO          101    i.RemovePoliceToRoter  roter.o
    0x080045f0   0x080045f0   0x00000058   Code   RO          373    i.Roter1Error       control.o
    0x08004648   0x08004648   0x00000058   Code   RO          374    i.Roter5Error       control.o
    0x080046a0   0x080046a0   0x0000008c   Code   RO          102    i.RoterAngle1       roter.o
    0x0800472c   0x0800472c   0x0000008c   Code   RO          103    i.RoterAngle5       roter.o
    0x080047b8   0x080047b8   0x00000078   Code   RO          104    i.RoterRelativeAngle1  roter.o
    0x08004830   0x08004830   0x00000078   Code   RO          105    i.RoterRelativeAngle5  roter.o
    0x080048a8   0x080048a8   0x0000004c   Code   RO          376    i.STM32_Comm1_Parse  control.o
    0x080048f4   0x080048f4   0x00000050   Code   RO          377    i.STM32_Comm2_Parse  control.o
    0x08004944   0x08004944   0x00000050   Code   RO          378    i.STM32_Comm3_Parse  control.o
    0x08004994   0x08004994   0x00000080   Code   RO          379    i.STM32_Comm4_Parse  control.o
    0x08004a14   0x08004a14   0x00000028   Code   RO          380    i.STM32_Control     control.o
    0x08004a3c   0x08004a3c   0x00000034   Code   RO          381    i.STM32_Queue_Init  control.o
    0x08004a70   0x08004a70   0x000000b8   Code   RO          106    i.SendCmdToBuf      roter.o
    0x08004b28   0x08004b28   0x000000bc   Code   RO          382    i.SendDataByUART    control.o
    0x08004be4   0x08004be4   0x00000040   Code   RO          383    i.SendRoterPolice   control.o
    0x08004c24   0x08004c24   0x00000006   Code   RO          107    i.SetInching        roter.o
    0x08004c2a   0x08004c2a   0x00000002   PAD
    0x08004c2c   0x08004c2c   0x00000050   Code   RO          108    i.SetPeriodicity    roter.o
    0x08004c7c   0x08004c7c   0x0000002c   Code   RO          109    i.SetRestoration    roter.o
    0x08004ca8   0x08004ca8   0x00000114   Code   RO          110    i.SetRoterInit      roter.o
    0x08004dbc   0x08004dbc   0x00000024   Code   RO          757    i.StartDefaultTask  freertos.o
    0x08004de0   0x08004de0   0x00000034   Code   RO          758    i.StartTask02       freertos.o
    0x08004e14   0x08004e14   0x00000034   Code   RO          759    i.StartTask03       freertos.o
    0x08004e48   0x08004e48   0x00000034   Code   RO          760    i.StartTask04       freertos.o
    0x08004e7c   0x08004e7c   0x00000034   Code   RO          761    i.StartTask05       freertos.o
    0x08004eb0   0x08004eb0   0x0000002c   Code   RO         5091    i.SysTick_Handler   port.o
    0x08004edc   0x08004edc   0x00000078   Code   RO          628    i.SystemClock_Config  main.o
    0x08004f54   0x08004f54   0x00000002   Code   RO         3845    i.SystemInit        system_stm32f1xx.o
    0x08004f56   0x08004f56   0x00000002   PAD
    0x08004f58   0x08004f58   0x0000000c   Code   RO          988    i.TIM1_UP_IRQHandler  stm32f1xx_it.o
    0x08004f64   0x08004f64   0x0000008c   Code   RO         2603    i.TIM_Base_SetConfig  stm32f1xx_hal_tim.o
    0x08004ff0   0x08004ff0   0x000000d8   Code   RO          111    i.UART2DataParse    roter.o
    0x080050c8   0x080050c8   0x00000018   Code   RO          989    i.UART4_IRQHandler  stm32f1xx_it.o
    0x080050e0   0x080050e0   0x0000000c   Code   RO          990    i.UART5_IRQHandler  stm32f1xx_it.o
    0x080050ec   0x080050ec   0x00000010   Code   RO         3524    i.UART_DMAAbortOnError  stm32f1xx_hal_uart.o
    0x080050fc   0x080050fc   0x0000004a   Code   RO         3525    i.UART_DMAError     stm32f1xx_hal_uart.o
    0x08005146   0x08005146   0x00000086   Code   RO         3526    i.UART_DMAReceiveCplt  stm32f1xx_hal_uart.o
    0x080051cc   0x080051cc   0x0000001e   Code   RO         3528    i.UART_DMARxHalfCplt  stm32f1xx_hal_uart.o
    0x080051ea   0x080051ea   0x0000004e   Code   RO         3534    i.UART_EndRxTransfer  stm32f1xx_hal_uart.o
    0x08005238   0x08005238   0x0000001c   Code   RO         3535    i.UART_EndTxTransfer  stm32f1xx_hal_uart.o
    0x08005254   0x08005254   0x000000c2   Code   RO         3536    i.UART_Receive_IT   stm32f1xx_hal_uart.o
    0x08005316   0x08005316   0x00000002   PAD
    0x08005318   0x08005318   0x000000b8   Code   RO         3537    i.UART_SetConfig    stm32f1xx_hal_uart.o
    0x080053d0   0x080053d0   0x00000090   Code   RO         3538    i.UART_Start_Receive_DMA  stm32f1xx_hal_uart.o
    0x08005460   0x08005460   0x00000036   Code   RO         3539    i.UART_Start_Receive_IT  stm32f1xx_hal_uart.o
    0x08005496   0x08005496   0x00000078   Code   RO         3540    i.UART_WaitOnFlagUntilTimeout  stm32f1xx_hal_uart.o
    0x0800550e   0x0800550e   0x00000002   PAD
    0x08005510   0x08005510   0x00000018   Code   RO          991    i.USART1_IRQHandler  stm32f1xx_it.o
    0x08005528   0x08005528   0x00000018   Code   RO          992    i.USART2_IRQHandler  stm32f1xx_it.o
    0x08005540   0x08005540   0x00000018   Code   RO          993    i.USART3_IRQHandler  stm32f1xx_it.o
    0x08005558   0x08005558   0x00000140   Code   RO          994    i.USER_UART_IRQHandler  stm32f1xx_it.o
    0x08005698   0x08005698   0x00000002   Code   RO          995    i.UsageFault_Handler  stm32f1xx_it.o
    0x0800569a   0x0800569a   0x00000002   PAD
    0x0800569c   0x0800569c   0x00000020   Code   RO         5251    i.__0printf$1       mc_w.l(printf1.o)
    0x080056bc   0x080056bc   0x00000020   Code   RO         2021    i.__NVIC_SetPriority  stm32f1xx_hal_cortex.o
    0x080056dc   0x080056dc   0x00000008   Code   RO         5580    i.__aeabi_errno_addr  mc_w.l(errno.o)
    0x080056e4   0x080056e4   0x0000005c   Code   RO         5471    i.__free$realloc    mc_w.l(mallocr.o)
    0x08005740   0x08005740   0x00000050   Code   RO         5472    i.__malloc$realloc  mc_w.l(mallocr.o)
    0x08005790   0x08005790   0x0000000c   Code   RO         5581    i.__read_errno      mc_w.l(errno.o)
    0x0800579c   0x0800579c   0x0000000e   Code   RO         5623    i.__scatterload_copy  mc_w.l(handlers.o)
    0x080057aa   0x080057aa   0x00000002   Code   RO         5624    i.__scatterload_null  mc_w.l(handlers.o)
    0x080057ac   0x080057ac   0x0000000e   Code   RO         5625    i.__scatterload_zeroinit  mc_w.l(handlers.o)
    0x080057ba   0x080057ba   0x00000002   PAD
    0x080057bc   0x080057bc   0x0000000c   Code   RO         5582    i.__set_errno       mc_w.l(errno.o)
    0x080057c8   0x080057c8   0x0000000e   Code   RO         5614    i._is_digit         mc_w.l(scanf_fp.o)
    0x080057d6   0x080057d6   0x00000002   PAD
    0x080057d8   0x080057d8   0x00000154   Code   RO         5258    i._printf_core      mc_w.l(printf1.o)
    0x0800592c   0x0800592c   0x0000002a   Code   RO         5168    i.atof              m_ws.l(atof.o)
    0x08005956   0x08005956   0x0000001a   Code   RO          384    i.calculate_checksum  control.o
    0x08005970   0x08005970   0x0000001e   Code   RO          112    i.check_sum         roter.o
    0x0800598e   0x0800598e   0x00000038   Code   RO          113    i.crc16             roter.o
    0x080059c6   0x080059c6   0x00000002   PAD
    0x080059c8   0x080059c8   0x00000018   Code   RO          903    i.fputc             usart.o
    0x080059e0   0x080059e0   0x0000002a   Code   RO          114    i.hexToBinChar      roter.o
    0x08005a0a   0x08005a0a   0x00000002   PAD
    0x08005a0c   0x08005a0c   0x00000020   Code   RO          115    i.hex_to_int        roter.o
    0x08005a2c   0x08005a2c   0x00000010   Code   RO         4660    i.inHandlerMode     cmsis_os.o
    0x08005a3c   0x08005a3c   0x00000070   Code   RO           10    i.insertZerosBetweenCommas  gps.o
    0x08005aac   0x08005aac   0x00000010   Code   RO          116    i.int_to_hex        roter.o
    0x08005abc   0x08005abc   0x00000050   Code   RO         5473    i.internal_alloc    mc_w.l(mallocr.o)
    0x08005b0c   0x08005b0c   0x000000dc   Code   RO          629    i.main              main.o
    0x08005be8   0x08005be8   0x0000000c   Code   RO         4662    i.makeFreeRtosPriority  cmsis_os.o
    0x08005bf4   0x08005bf4   0x00000010   Code   RO         4664    i.osDelay           cmsis_os.o
    0x08005c04   0x08005c04   0x0000000a   Code   RO         4667    i.osKernelStart     cmsis_os.o
    0x08005c0e   0x08005c0e   0x00000012   Code   RO         4682    i.osMutexCreate     cmsis_os.o
    0x08005c20   0x08005c20   0x00000050   Code   RO         4684    i.osMutexRelease    cmsis_os.o
    0x08005c70   0x08005c70   0x00000068   Code   RO         4685    i.osMutexWait       cmsis_os.o
    0x08005cd8   0x08005cd8   0x0000005c   Code   RO         4701    i.osThreadCreate    cmsis_os.o
    0x08005d34   0x08005d34   0x00000078   Code   RO         4348    i.prvAddCurrentTaskToDelayedList  tasks.o
    0x08005dac   0x08005dac   0x00000088   Code   RO         4349    i.prvAddNewTaskToReadyList  tasks.o
    0x08005e34   0x08005e34   0x00000040   Code   RO         4350    i.prvCheckTasksWaitingTermination  tasks.o
    0x08005e74   0x08005e74   0x00000024   Code   RO         4023    i.prvCopyDataFromQueue  queue.o
    0x08005e98   0x08005e98   0x0000006e   Code   RO         4024    i.prvCopyDataToQueue  queue.o
    0x08005f06   0x08005f06   0x00000040   Code   RO         4351    i.prvDeleteTCB      tasks.o
    0x08005f46   0x08005f46   0x00000014   Code   RO         4025    i.prvGetDisinheritPriorityAfterTimeout  queue.o
    0x08005f5a   0x08005f5a   0x00000002   PAD
    0x08005f5c   0x08005f5c   0x00000050   Code   RO         5029    i.prvHeapInit       heap_4.o
    0x08005fac   0x08005fac   0x00000028   Code   RO         4352    i.prvIdleTask       tasks.o
    0x08005fd4   0x08005fd4   0x00000018   Code   RO         4026    i.prvInitialiseMutex  queue.o
    0x08005fec   0x08005fec   0x00000018   Code   RO         4027    i.prvInitialiseNewQueue  queue.o
    0x08006004   0x08006004   0x0000007a   Code   RO         4353    i.prvInitialiseNewTask  tasks.o
    0x0800607e   0x0800607e   0x00000002   PAD
    0x08006080   0x08006080   0x00000060   Code   RO         4354    i.prvInitialiseTaskLists  tasks.o
    0x080060e0   0x080060e0   0x0000005c   Code   RO         5030    i.prvInsertBlockIntoFreeList  heap_4.o
    0x0800613c   0x0800613c   0x0000001a   Code   RO         4028    i.prvIsQueueEmpty   queue.o
    0x08006156   0x08006156   0x0000001e   Code   RO         4029    i.prvIsQueueFull    queue.o
    0x08006174   0x08006174   0x00000024   Code   RO         4355    i.prvResetNextTaskUnblockTime  tasks.o
    0x08006198   0x08006198   0x00000030   Code   RO         5092    i.prvTaskExitError  port.o
    0x080061c8   0x080061c8   0x00000068   Code   RO         4030    i.prvUnlockQueue    queue.o
    0x08006230   0x08006230   0x000000e4   Code   RO         5031    i.pvPortMalloc      heap_4.o
    0x08006314   0x08006314   0x0000001c   Code   RO         4357    i.pvTaskIncrementMutexHeldCount  tasks.o
    0x08006330   0x08006330   0x00000024   Code   RO         5093    i.pxPortInitialiseStack  port.o
    0x08006354   0x08006354   0x0000006c   Code   RO         5474    i.realloc           mc_w.l(mallocr.o)
    0x080063c0   0x080063c0   0x00000194   Code   RO           11    i.receive_gps_data  gps.o
    0x08006554   0x08006554   0x000002a0   Code   RO           12    i.strGga_parse      gps.o
    0x080067f4   0x080067f4   0x00000208   Code   RO           13    i.strGll_parse      gps.o
    0x080069fc   0x080069fc   0x00000100   Code   RO           14    i.strGsa_parse      gps.o
    0x08006afc   0x08006afc   0x0000008c   Code   RO           15    i.strGsv_parse      gps.o
    0x08006b88   0x08006b88   0x00000078   Code   RO           16    i.strRHXZ_parse     gps.o
    0x08006c00   0x08006c00   0x000002a0   Code   RO           17    i.strRmc_parse      gps.o
    0x08006ea0   0x08006ea0   0x000000a8   Code   RO           18    i.strVtg_parse      gps.o
    0x08006f48   0x08006f48   0x0000001c   Code   RO         5172    i.strtod            m_ws.l(strtod.o)
    0x08006f64   0x08006f64   0x00000026   Code   RO         3983    i.uxListRemove      list.o
    0x08006f8a   0x08006f8a   0x00000002   PAD
    0x08006f8c   0x08006f8c   0x00000014   Code   RO          762    i.vApplicationGetIdleTaskMemory  freertos.o
    0x08006fa0   0x08006fa0   0x00000016   Code   RO         3984    i.vListInitialise   list.o
    0x08006fb6   0x08006fb6   0x00000006   Code   RO         3985    i.vListInitialiseItem  list.o
    0x08006fbc   0x08006fbc   0x00000036   Code   RO         3986    i.vListInsert       list.o
    0x08006ff2   0x08006ff2   0x00000018   Code   RO         3987    i.vListInsertEnd    list.o
    0x0800700a   0x0800700a   0x00000002   PAD
    0x0800700c   0x0800700c   0x00000040   Code   RO         5095    i.vPortEnterCritical  port.o
    0x0800704c   0x0800704c   0x0000002c   Code   RO         5096    i.vPortExitCritical  port.o
    0x08007078   0x08007078   0x0000005c   Code   RO         5032    i.vPortFree         heap_4.o
    0x080070d4   0x080070d4   0x00000024   Code   RO         5097    i.vPortSetupTimerInterrupt  port.o
    0x080070f8   0x080070f8   0x00000054   Code   RO         5098    i.vPortValidateInterruptPriority  port.o
    0x0800714c   0x0800714c   0x00000050   Code   RO         4363    i.vTaskDelay        tasks.o
    0x0800719c   0x0800719c   0x00000010   Code   RO         4366    i.vTaskInternalSetTimeOutState  tasks.o
    0x080071ac   0x080071ac   0x0000000c   Code   RO         4367    i.vTaskMissedYield  tasks.o
    0x080071b8   0x080071b8   0x00000034   Code   RO         4369    i.vTaskPlaceOnEventList  tasks.o
    0x080071ec   0x080071ec   0x000000b4   Code   RO         4371    i.vTaskPriorityDisinheritAfterTimeout  tasks.o
    0x080072a0   0x080072a0   0x00000088   Code   RO         4376    i.vTaskStartScheduler  tasks.o
    0x08007328   0x08007328   0x00000010   Code   RO         4378    i.vTaskSuspendAll   tasks.o
    0x08007338   0x08007338   0x00000060   Code   RO         4379    i.vTaskSwitchContext  tasks.o
    0x08007398   0x08007398   0x000000b4   Code   RO         5099    i.xPortStartScheduler  port.o
    0x0800744c   0x0800744c   0x00000018   Code   RO         4037    i.xQueueCreateMutex  queue.o
    0x08007464   0x08007464   0x0000001c   Code   RO         4038    i.xQueueCreateMutexStatic  queue.o
    0x08007480   0x08007480   0x0000004a   Code   RO         4039    i.xQueueGenericCreate  queue.o
    0x080074ca   0x080074ca   0x00000070   Code   RO         4040    i.xQueueGenericCreateStatic  queue.o
    0x0800753a   0x0800753a   0x00000002   PAD
    0x0800753c   0x0800753c   0x00000090   Code   RO         4041    i.xQueueGenericReset  queue.o
    0x080075cc   0x080075cc   0x00000170   Code   RO         4042    i.xQueueGenericSend  queue.o
    0x0800773c   0x0800773c   0x000000a0   Code   RO         4044    i.xQueueGiveFromISR  queue.o
    0x080077dc   0x080077dc   0x0000009a   Code   RO         4050    i.xQueueReceiveFromISR  queue.o
    0x08007876   0x08007876   0x00000002   PAD
    0x08007878   0x08007878   0x00000184   Code   RO         4051    i.xQueueSemaphoreTake  queue.o
    0x080079fc   0x080079fc   0x00000080   Code   RO         4380    i.xTaskCheckForTimeOut  tasks.o
    0x08007a7c   0x08007a7c   0x0000006c   Code   RO         4381    i.xTaskCreate       tasks.o
    0x08007ae8   0x08007ae8   0x00000060   Code   RO         4382    i.xTaskCreateStatic  tasks.o
    0x08007b48   0x08007b48   0x0000001c   Code   RO         4386    i.xTaskGetSchedulerState  tasks.o
    0x08007b64   0x08007b64   0x000000d0   Code   RO         4389    i.xTaskIncrementTick  tasks.o
    0x08007c34   0x08007c34   0x000000a4   Code   RO         4392    i.xTaskPriorityDisinherit  tasks.o
    0x08007cd8   0x08007cd8   0x0000009c   Code   RO         4393    i.xTaskPriorityInherit  tasks.o
    0x08007d74   0x08007d74   0x00000078   Code   RO         4394    i.xTaskRemoveFromEventList  tasks.o
    0x08007dec   0x08007dec   0x000000cc   Code   RO         4395    i.xTaskResumeAll    tasks.o
    0x08007eb8   0x08007eb8   0x00000015   Data   RO          386    .constdata          control.o
    0x08007ecd   0x08007ecd   0x00000003   PAD
    0x08007ed0   0x08007ed0   0x0000008c   Data   RO          764    .constdata          freertos.o
    0x08007f5c   0x08007f5c   0x00000012   Data   RO         1719    .constdata          stm32f1xx_hal_rcc.o
    0x08007f6e   0x08007f6e   0x00000012   Data   RO         1811    .constdata          stm32f1xx_hal_rcc_ex.o
    0x08007f80   0x08007f80   0x00000010   Data   RO         3846    .constdata          system_stm32f1xx.o
    0x08007f90   0x08007f90   0x00000008   Data   RO         3847    .constdata          system_stm32f1xx.o
    0x08007f98   0x08007f98   0x00000081   Data   RO         5551    .constdata          mc_w.l(ctype_o.o)
    0x08008019   0x08008019   0x00000003   PAD
    0x0800801c   0x0800801c   0x00000004   Data   RO         5552    .constdata          mc_w.l(ctype_o.o)
    0x08008020   0x08008020   0x0000003c   Data   RO          765    .conststring        freertos.o
    0x0800805c   0x0800805c   0x00000020   Data   RO         5621    Region$$Table       anon$$obj.o


    Execution Region RW_IRAM1 (Exec base: 0x20000000, Load base: 0x0800807c, Size: 0x00005710, Max: 0x0000c000, ABSOLUTE, COMPRESSED[0x00000120])

    Exec Addr    Load Addr    Size         Type   Attr      Idx    E Section Name        Object

    0x20000000   COMPRESSED   0x00000006   Data   RW           20    .data               gps.o
    0x20000006   COMPRESSED   0x00000002   PAD
    0x20000008   COMPRESSED   0x00000156   Data   RW          118    .data               roter.o
    0x2000015e   COMPRESSED   0x0000000d   Data   RW          119    .data               roter.o
    0x2000016b   COMPRESSED   0x0000000d   Data   RW          120    .data               roter.o
    0x20000178   COMPRESSED   0x0000000d   Data   RW          121    .data               roter.o
    0x20000185   COMPRESSED   0x0000000d   Data   RW          122    .data               roter.o
    0x20000192   COMPRESSED   0x0000000b   Data   RW          387    .data               control.o
    0x2000019d   COMPRESSED   0x00000003   PAD
    0x200001a0   COMPRESSED   0x00000004   Data   RW          575    .data               lqueue.o
    0x200001a4   COMPRESSED   0x00000004   Data   RW          576    .data               lqueue.o
    0x200001a8   COMPRESSED   0x00000004   Data   RW          577    .data               lqueue.o
    0x200001ac   COMPRESSED   0x00000004   Data   RW          578    .data               lqueue.o
    0x200001b0   COMPRESSED   0x00000001   Data   RW          633    .data               main.o
    0x200001b1   COMPRESSED   0x00000001   Data   RW          634    .data               main.o
    0x200001b2   COMPRESSED   0x00000001   Data   RW          635    .data               main.o
    0x200001b3   COMPRESSED   0x00000001   Data   RW          638    .data               main.o
    0x200001b4   COMPRESSED   0x00000001   Data   RW          641    .data               main.o
    0x200001b5   COMPRESSED   0x00000001   Data   RW          644    .data               main.o
    0x200001b6   COMPRESSED   0x00000001   Data   RW          647    .data               main.o
    0x200001b7   COMPRESSED   0x00000008   Data   RW          648    .data               main.o
    0x200001bf   COMPRESSED   0x00000008   Data   RW          649    .data               main.o
    0x200001c7   COMPRESSED   0x00000008   Data   RW          650    .data               main.o
    0x200001cf   COMPRESSED   0x00000008   Data   RW          651    .data               main.o
    0x200001d7   COMPRESSED   0x00000001   PAD
    0x200001d8   COMPRESSED   0x00000018   Data   RW          766    .data               freertos.o
    0x200001f0   COMPRESSED   0x00000004   Data   RW          996    .data               stm32f1xx_it.o
    0x200001f4   COMPRESSED   0x0000000c   Data   RW         1556    .data               stm32f1xx_hal.o
    0x20000200   COMPRESSED   0x00000004   Data   RW         3848    .data               system_stm32f1xx.o
    0x20000204   COMPRESSED   0x0000003c   Data   RW         4398    .data               tasks.o
    0x20000240   COMPRESSED   0x00000018   Data   RW         5037    .data               heap_4.o
    0x20000258   COMPRESSED   0x0000000c   Data   RW         5100    .data               port.o
    0x20000264   COMPRESSED   0x00000004   Data   RW         5197    .data               mc_w.l(strtok.o)
    0x20000268   COMPRESSED   0x00000004   Data   RW         5541    .data               mc_w.l(stdout.o)
    0x2000026c   COMPRESSED   0x00000004   Data   RW         5578    .data               mc_w.l(mvars.o)
    0x20000270   COMPRESSED   0x00000004   Data   RW         5579    .data               mc_w.l(mvars.o)
    0x20000274   COMPRESSED   0x00000004   Data   RW         5583    .data               mc_w.l(errno.o)
    0x20000278        -       0x00000260   Zero   RW           19    .bss                gps.o
    0x200004d8        -       0x00001df3   Zero   RW          117    .bss                roter.o
    0x200022cb        -       0x00000064   Zero   RW          385    .bss                control.o
    0x2000232f        -       0x00000800   Zero   RW          630    .bss                main.o
    0x20002b2f   COMPRESSED   0x00000001   PAD
    0x20002b30        -       0x0000001c   Zero   RW          631    .bss                main.o
    0x20002b4c        -       0x0000000a   Zero   RW          632    .bss                main.o
    0x20002b56   COMPRESSED   0x00000002   PAD
    0x20002b58        -       0x000002c4   Zero   RW          763    .bss                freertos.o
    0x20002e1c        -       0x00000030   Zero   RW          833    .bss                adc.o
    0x20002e4c        -       0x00000388   Zero   RW          904    .bss                usart.o
    0x200031d4        -       0x00000048   Zero   RW         1183    .bss                stm32f1xx_hal_timebase_tim.o
    0x2000321c        -       0x000000f0   Zero   RW         4397    .bss                tasks.o
    0x2000330c        -       0x00001400   Zero   RW         5036    .bss                heap_4.o
    0x2000470c   COMPRESSED   0x00000004   PAD
    0x20004710        -       0x00000800   Zero   RW            2    HEAP                startup_stm32f103xe.o
    0x20004f10        -       0x00000800   Zero   RW            1    STACK               startup_stm32f103xe.o


==============================================================================

Image component sizes


      Code (inc. data)   RO Data    RW Data    ZI Data      Debug   Object Name

       168         20          0          0         48       1625   adc.o
       348          8          0          0          0      28434   cmsis_os.o
      2858        438         21         11        100      21921   control.o
       172          4          0          0          0        838   dma.o
         0          0          0          0          0      18172   event_groups.o
       404         72        200         24        708       4734   freertos.o
       368         24          0          0          0       1079   gpio.o
      3064        208          0          6        608      18749   gps.o
       492         32          0         24       5120       7347   heap_4.o
       144          0          0          0          0       3394   list.o
       244          0          0         16          0       4989   lqueue.o
       364         52          0         39       2086      31464   main.o
       686         72          0         12          0      11129   port.o
      1826         18          0          0          0      17870   queue.o
      2122        144          0        394       7667     523552   roter.o
        36          8        304          0       4096        792   startup_stm32f103xe.o
       100         18          0         12          0       5814   stm32f1xx_hal.o
      1264         58          0          0          0       6536   stm32f1xx_hal_adc.o
       216          6          0          0          0       1422   stm32f1xx_hal_adc_ex.o
       158         14          0          0          0      28150   stm32f1xx_hal_cortex.o
      1236         52          0          0          0       5078   stm32f1xx_hal_dma.o
       554         48          0          0          0       4076   stm32f1xx_hal_gpio.o
        72         10          0          0          0        858   stm32f1xx_hal_msp.o
      1312         96         18          0          0       5725   stm32f1xx_hal_rcc.o
       420         32         18          0          0       2501   stm32f1xx_hal_rcc_ex.o
       706         40          0          0          0       7036   stm32f1xx_hal_tim.o
         4          0          0          0          0       1561   stm32f1xx_hal_tim_ex.o
       140         22          0          0         72       1407   stm32f1xx_hal_timebase_tim.o
      2040         24          0          0          0      14395   stm32f1xx_hal_uart.o
      1078        338          0          4          0      14748   stm32f1xx_it.o
         0          0          0          0          0        392   stream_buffer.o
         2          0         24          4          0       1095   system_stm32f1xx.o
      2506        208          0         60        240      25069   tasks.o
      1248        100          0          0        904       5636   usart.o

    ----------------------------------------------------------------------
     26402       2166        620        612      21656     827588   Object Totals
         0          0         32          0          0          0   (incl. Generated)
        50          0          3          6          7          0   (incl. Padding)

    ----------------------------------------------------------------------

      Code (inc. data)   RO Data    RW Data    ZI Data      Debug   Library Member Name

        42          0          0          0          0         84   atof.o
        28          0          0          0          0         80   strtod.o
        56          8          0          0          0         84   __0sscanf.o
        86          0          0          0          0          0   __dczerorl2.o
        28          0          0          0          0         68   _chval.o
       812          4          0          0          0        112   _scanf.o
       332          0          0          0          0         96   _scanf_int.o
        64          0          0          0          0         84   _sgetc.o
       158          0          0          0          0         92   _strtoul.o
        26          0          0          0          0         80   atoi.o
         8          4        133          0          0         68   ctype_o.o
         0          0          0          0          0          0   entry.o
         0          0          0          0          0          0   entry10a.o
         0          0          0          0          0          0   entry11a.o
         8          4          0          0          0          0   entry2.o
         4          0          0          0          0          0   entry5.o
         0          0          0          0          0          0   entry7b.o
         0          0          0          0          0          0   entry8b.o
         8          4          0          0          0          0   entry9a.o
        32         16          0          4          0        204   errno.o
        30          0          0          0          0          0   handlers.o
        36          8          0          0          0         68   init.o
        18          0          0          0          0         76   isspace_o.o
         0          0          0          0          0          0   iusefp.o
        30          0          0          0          0         68   llshl.o
        36          0          0          0          0         68   llsshr.o
        32          0          0          0          0         68   llushr.o
       360         30          0          0          0        356   mallocr.o
        64          0          0          0          0         76   memmovea.o
        36          0          0          0          0        108   memseta.o
         0          0          0          8          0          0   mvars.o
       372         14          0          0          0        184   printf1.o
        40          8          0          0          0         84   scanf_char.o
       878         12          0          0          0        216   scanf_fp.o
         0          0          0          4          0          0   stdout.o
        18          0          0          0          0         68   strcpy.o
        14          0          0          0          0         68   strlen.o
        30          0          0          0          0         80   strncmp.o
        24          0          0          0          0         76   strncpy.o
       156         12          0          0          0        120   strtod.o
        68          6          0          4          0         80   strtok.o
       112          0          0          0          0         88   strtol.o
        44          0          0          0          0         80   uidiv.o
        56          0          0          0          0         88   d2f.o
       334          0          0          0          0        148   dadd.o
       222          0          0          0          0        100   ddiv.o
       186          0          0          0          0        176   depilogue.o
        62          0          0          0          0         80   dfixi.o
        50          0          0          0          0         76   dfixui.o
        34          0          0          0          0         76   dflti.o
        26          0          0          0          0         76   dfltui.o
        24          0          0          0          0         76   dfltul.o
       228          0          0          0          0         96   dmul.o
        46          0          0          0          0         80   dscalb.o
        38          0          0          0          0         68   f2d.o
       176          0          0          0          0        140   fadd.o
       110          0          0          0          0        168   fepilogue.o
        40          0          0          0          0         68   ffixui.o

    ----------------------------------------------------------------------
      5734        130        136         20          0       4600   Library Totals
        12          0          3          0          0          0   (incl. Padding)

    ----------------------------------------------------------------------

      Code (inc. data)   RO Data    RW Data    ZI Data      Debug   Library Name

        70          0          0          0          0        164   m_ws.l
      4020        130        133         20          0       2920   mc_w.l
      1632          0          0          0          0       1516   mf_w.l

    ----------------------------------------------------------------------
      5734        130        136         20          0       4600   Library Totals

    ----------------------------------------------------------------------

==============================================================================


      Code (inc. data)   RO Data    RW Data    ZI Data      Debug   

     32136       2296        756        632      21656     817340   Grand Totals
     32136       2296        756        288      21656     817340   ELF Image Totals (compressed)
     32136       2296        756        288          0          0   ROM Totals

==============================================================================

    Total RO  Size (Code + RO Data)                32892 (  32.12kB)
    Total RW  Size (RW Data + ZI Data)             22288 (  21.77kB)
    Total ROM Size (Code + RO Data + RW Data)      33180 (  32.40kB)

==============================================================================

