:020000040800F2
:1000000010570020DD010008AF44000899400008A7
:10001000AD440008A118000899560008000000002F
:100020000000000000000000000000004501000882
:10003000311F00080000000089010008B14E0008CF
:10004000F7010008F7010008F7010008F7010008B0
:10005000F7010008F7010008631F0008691F000886
:10006000F7010008F7010008F7010008F701000890
:10007000651A0008711A00087D1A0008891A00081C
:10008000951A0008A11A0008F7010008F7010008F6
:10009000F7010008F7010008F70100086F1F0008CA
:1000A000F7010008594F0008F7010008F7010008A0
:1000B000F7010008F7010008F7010008F701000840
:1000C000F7010008F7010008F7010008F701000830
:1000D000F70100081155000829550008415500088E
:1000E000F7010008F7010008F7010008F701000810
:1000F000F7010008F7010008F7010008F701000800
:10010000F7010008F7010008F7010008F7010008EF
:10011000C9500008E1500008F7010008F701000885
:10012000F7010008F7010008AD1A0008B91A000825
:10013000DFF80CD000F044FE004800470D5B0008DB
:1001400010570020224B19680868B0E8F00F80F3C0
:100150000988BFF36F8F4FF0000080F311884EF0D5
:100160000D0E70470000000006480068006880F32C
:10017000088862B661B6BFF34F8FBFF36F8F00DFA1
:1001800000BF00BF08ED00E0EFF30980BFF36F8F01
:100190000F4B1A6820E9F00F106008B54FF05000BF
:1001A00080F31188BFF34F8FBFF36F8F07F0C4F850
:1001B0004FF0000080F31188BDE808401968086816
:1001C000B0E8F00F80F30988BFF36F8F704700BF6E
:1001D00004020020EFF305807047000006488047C6
:1001E00006480047FEE7FEE7FEE7FEE7FEE7FEE71C
:1001F000FEE7FEE7FEE7FEE7554F00083101000885
:10020000202A04DB203A21FA02F00021704721FA6B
:1002100002F3D040C2F120029140084319467047D2
:1002200010B5431A934209D28318881803E010F8D6
:10023000011D03F8011D521EF9D210BD40EA010351
:100240009B0703D009E008C9121F08C0042AFAD28C
:1002500003E011F8013B00F8013B521EF9D210BD3A
:10026000D2B201E000F8012B491EFBD270470022F8
:10027000F6E710B513460A4604461946FFF7F0FFA5
:10028000204610BD10B5044604E00B7800F8013B91
:1002900003B1491C521EF8D2204610BD421C10F872
:1002A000011B0029FBD1801A7047034611F8012B6E
:1002B00000F8012B002AF9D11846704730B50546E1
:1002C0000020034600E05B1C934205D2EC5CC85C56
:1002D000201A01D1002CF6D130BD000070B50F4DB1
:1002E00000B92868002412E00A4602E09E4203D0CA
:1002F000521C1378002BF9D1DAB2224305D02BB16E
:1003000024B1002100F8011B04E00446401C0678DB
:10031000002EE9D12860204670BD00006402002054
:100320000FB400B58DB010A909900B9000914FF05B
:10033000FF300A9000200C90054806900548079071
:100340006A4609A80F9900F0DBFB0DB05DF814FBBD
:100350001D0B00083B0B00082DE9FF5F1D464FF009
:10036000FF3BD5E9014691465F464FF00008A96979
:100370007F1C01988847296A824688470028F6D161
:10038000BAF1FF3F0CD024F4C064002E19DD6006E2
:1003900014D5BAF12B0F09D0BAF12D0F0ED103E00D
:1003A000584604B0BDE8F09F44F48064A9697F1CFE
:1003B00001988847761E8246002E02DDBAF1300F82
:1003C00003D0B9F1000F26D032E0A969761E44F4BB
:1003D00000747F1C019888478246002E05DDBAF123
:1003E000780F06D0BAF1580F03D0B9F1000F10D032
:1003F0001EE0B9F1000F02D0B9F1100F18D1A969B0
:10040000761E24F400747F1C0198884782461020D1
:1004100002E0082000E00A20814609E008FB090804
:10042000A969761E44F400747F1C019888478246AF
:10043000002E05DD4946504600F04DFB0028EDDA60
:10044000E96901988847A00502D46FF00100A8E788
:10045000E00725D1600613D5600502D5C8F100007C
:1004600000E0404629680A1D2A600968220501D576
:10047000087015E0220701D5088011E008600FE040
:100480002868011D29600068210502D580F80080D8
:1004900006E0210702D5A0F8008001E0C0F8008046
:1004A00038467EE72DE9F04791460F4680460446E0
:1004B000002614F8015B2DB100F000FB0068405DE0
:1004C000C007F6D12B2D02D02D2D18D0641E4A4620
:1004D0003946204600F042FB27B13968A14201D1DC
:1004E000C7F8008071054FF002040BD54042002888
:1004F00003DD05F0F3F80460A007BDE8F08746F4DB
:100500008066E4E70028F8DA05F0E8F804606FF0A8
:100510000040F2E770B5064605F0E0F804680546CD
:100520000A2200213046FFF7BDFF2C6070BDF0B4F9
:1005300080EA0102D40F4200B2EB410F02D2024620
:10054000084611464A0042D0C30DDDB2C1F3C7527E
:10055000AD1A202D35DAC1F3160141F4000204B1C1
:100560005242C5F1200602FA06F12A411044B3EBCB
:10057000D05F23D0C4B1012DA0EBC35009DCF0BC87
:100580004FF0004202EAC352DBB200F5000000F077
:100590008CBB400000F1807000EBC350A0F1807074
:1005A00040EAD170490009E0490841EAC071A0EB76
:1005B000C35000F50000400800EBC350F0BC00F051
:1005C0006BBB6142012202EB4101001BF6E7F0BC6C
:1005D000704781F00041AAE780F00040A7E72DE9CD
:1005E000FE4F804681EA0300C00F0C46009021F0C8
:1005F000004123F00045B8EB0200A94105D2404676
:10060000214690461C460B46024623F0004010430C
:1006100047D0270DC7F30A00C3F30A510290401ACE
:10062000019040286BDAC3F3130040F4801B00985C
:10063000924620B10023D2EB030A63EB0B0B019827
:100640005946C0F14002504600F017FA06460D46E2
:1006500050465946019A00F01FFA10EB080061411C
:10066000002487EA115284EAE7731A4340D0009AC3
:1006700062B3019A012A4FEA075215DC001B61EBB5
:1006800002014FF0004202EA0752CDE90042001C8D
:1006900041F5801132462B4600F044FB03B0BDE823
:1006A000F08F40462146F9E7001B61EB0201001C78
:1006B00041F5801300185B412018A2F5001747EBA5
:1006C000030140EAD570B6196D4111E06D084FEA9B
:1006D000360645EAC0754FEA0752001B61EB02017E
:1006E000001C41F5801149084FEA300000195141C2
:1006F00032462B4603B0BDE8F04F00F004BB009833
:10070000012240000023D0EB020263EBE07300986B
:1007100021464FEAE074B8EB000061EB0401E9E721
:1007200083F000435BE781F0004158E72DE9FE4F7D
:1007300081EA030404F0004421F0004100944FF0EA
:10074000000B23F0004350EA01045ED052EA030498
:100750005BD0C3F30A54C1F30A552C44A4F2F3341A
:100760000194A0FB0254C1F3130141F48011C3F3BF
:10077000130343F4801301FB024400FB034E840A7D
:10078000970A44EA815447EA8357A4FB0768029515
:100790008D0A05FB07854FEA932C04FB0C542705B3
:1007A000029D4FEA065847EA1637B5EB08056EEB8F
:1007B000070C870E920E47EA811742EA8312A7FBC5
:1007C0000201B6EB0B0164EB00042B0D43EA0C3382
:1007D0005E1844EB1C50DA465146E7FB0201C5F3B4
:1007E00013044FEA0B3343EA14534FEA0432019CDB
:1007F00043EA0603A4F10C040294009CCDE900B482
:1008000000F090FA03B0BDE8F08F00200146F9E750
:100810002DE9F04D81EA030404F0004B21F000457E
:1008200014464FF0000A23F0004150EA050220D0A0
:1008300054EA01021DD0C5F30A570246C5F313035B
:10084000C1F31300C1F30A5640F4801543F480133A
:10085000A7EB0608101BD64608F2FD3873EB05001F
:1008600002D308F1010801E092185B41B8F1000FD2
:1008700003DA00200146BDE8F08D00204FF480111E
:10088000064684460EE0171B73EB050705D3121BC3
:1008900063EB050306434CEA010C49084FEA3000BC
:1008A00092185B4150EA0107EDD152EA030012D0E1
:1008B00082EA040083EA0501084305D0101BAB411E
:1008C00006D20122002306E000224FF0004302E09E
:1008D0006FF0010253101AEB06004CEB085110EBBD
:1008E0000A0041EB0B01BDE8F04D00F00CBA70B509
:1008F00021F0004303430CD0C1F30A550024D5EB8B
:10090000040564EB0403D617AD1AB34102DB0020E3
:10091000014670BD201841EB025170BD0EB5C10FEC
:1009200080EAE0700844CA07002140F233438DE8B2
:100930000E000A460B4600F0F5F903B000BD0EB5F7
:1009400040F2334102910021CDE900110A460B46E5
:1009500000F0E8F903B000BD20F00040C10DC0F385
:10096000160040F400007F2901DA00207047962924
:1009700003DCC1F19601C840704796398840704742
:1009800070B5C1F30A5201F000450024C1F3130110
:1009900040F2FF3341F480119A4201DA002070BD29
:1009A00040F233439A42A2F2334203DC5242FFF751
:1009B00027FC00E090402C43F1D0404270BDC1F3D1
:1009C0000A5210B5C1F3130140F2FF3341F4801114
:1009D0009A4201DA002010BD40F233439A42A2F25B
:1009E000334203DC5242FFF70BFC10BD904010BDB8
:1009F00000F0004230F000400AD0C10D01F56071F6
:100A0000C0F3160042EA0151C20840071143704783
:100A100000200146704701F0004330B421F000414E
:100A200050EA010206D00A0DA2F56072C1F313016B
:100A3000002A02DC30BC00207047440F44EAC104A5
:100A4000C100E01830BC00EBC25000F025B930B551
:100A50000B46014600202022012409E021FA02F57C
:100A60009D4205D303FA02F5491B04FA02F5284416
:100A7000151EA2F10102F1DC30BD202A04DB203A70
:100A800000FA02F1002070479140C2F1200320FAE1
:100A900003F3194390407047202A06DBCB17203A16
:100AA00041FA02F043EAE07306E041FA02F3D04073
:100AB000C2F1200291400843194670470048704730
:100AC0001C80000810B50446FFF7F8FF0068005DC1
:100AD00000F0010010BD3A2800D2303820F020028A
:100AE000412A01D3A2F13700884201D34FF0FF30F1
:100AF000704700000268114413780160184670477F
:100B0000D16004495161044911620021116111460B
:100B100000F068B9F50A0008C50A0008426842B149
:100B2000016811F8013B23B1521EC0E900121846BA
:100B300070470121C160881E704742685AB1C3687E
:100B4000016843B983688B4205D0491E521CC0E935
:100B50000012002070474FF0FF3070472DE9F05F22
:100B600082460078002715468B460AF10104B946F3
:100B7000302801D09DB113E014F8010B012778282B
:100B800003D0582801D045B10AE00DB1102D07D18E
:100B90000027102514F8010B02E0082500E00A25C3
:100BA0000026B0460EE005FB080005FB06F1012714
:100BB00001EB10461FFA80F8B6F5803F00D3B94626
:100BC00014F8010B2946FFF786FF0028EBDABBF18A
:100BD000000F05D00FB1641E00E05446CBF8004072
:100BE000B9F1000F06D004F079FD02210160C81EA2
:100BF000BDE8F09F48EA0640FAE700000FB4002382
:100C000000B589B00CA900910B996FF00042CB6040
:100C10001E4B06931E4B07930423CDE901321D4A58
:100C2000089202466B46002000F006FB09B05DF812
:100C300014FB70B586B006464FF0FF300091CDE949
:100C40000101002015460C4604903246694604A86E
:100C5000FFF7D4FF02460498211825B108B10846D1
:100C600000E020462860049800280DD0002A02DD0C
:100C70000098884208D0081B0094CDE90104324650
:100C8000694604A8FFF7BAFF06B070BD1D0B000847
:100C90003B0B0008C50A00080029A8BF7047401C8C
:100CA000490008BF20F00100704710B4B0FA80FC82
:100CB00000FA0CF050EA010404BF10BC704749B1BF
:100CC000CCF1200421FA04F411FA0CF118BF01212F
:100CD00021430843A3EB0C01CB1D4FEA00614FEA0F
:100CE000102042BF002010BC704700EBC3501044DE
:100CF0000029A4BF10BC7047401C490008BF20F069
:100D0000010010BC704710B5141E73F1000408DA1E
:100D1000401C41F1000192185B411A4301D120F0BF
:100D2000010010BD2DE9F04D92469B4611B1B1FA7C
:100D300081F202E0B0FA80F220329046FFF79DFE89
:100D400004460F4640EA0A0041EA0B0153465A4660
:100D5000084313D0114653EA010019D0C8F14002EC
:100D60005046FFF74DFA05460E4650465946424654
:100D7000FFF783FE084305D0012004E020463946F2
:100D8000BDE8F08D0020054346EAE0762C4337436A
:100D90000A986305E40AA0EB08000022FD0A44EA71
:100DA00047540A3002D500200146E9E70105101931
:100DB0006941DDE9084500196941BDE8F04DA2E748
:100DC000064C074D06E0E06840F0010394E8070098
:100DD00098471034AC42F6D3FFF7AEF95C800008B8
:100DE0007C8000082DE9F34F8BB04FF0000801F133
:100DF0000C000C464FF0010B46460DF1080A01901D
:100E00006269012101989047051E2DD0252D2CD017
:100E1000216A8847C0B16269012101989047216A1F
:100E200088470028F7D1411E62690198904700E089
:100E3000761CA1690B988847216A88470028F7D15A
:100E4000E1690B988847DBE7A1690B98884707465B
:100E5000A84201D1761CD3E7E1690B9888477F1C33
:100E600002D1B8F1000F6FD046E1002762693D461C
:100E70003946019890472A2804D1626901210198D6
:100E800090470125DFF8849262690121019890471B
:100E9000A0F130010A290AD24F45E5DC07EB8701B2
:100EA00000EB4107303FDFD445F01005ECE7E906E1
:100EB00001D46FF000476C280AD04C2814D0682861
:100EC00015D06A280DD074281CD07A281AD01DE0BD
:100ED00062690121019890476C2802D045F0040511
:100EE00014E045F002050DE045F020050AE06269D6
:100EF000012101989047682802D045F0080505E0D7
:100F000045F400656269012101989047C4E90157E1
:100F100065283DD019DC58287AD00CDC452837D01C
:100F200004DC252826D0412831D131E046282FD0B5
:100F300047282CD12CE05B2877D0612828D0632863
:100F40007CD0642823D15AE0D0E06F2848D008DC58
:100F500066281DD067281BD0692821D06E2816D19D
:100F600027E0702845D0732868D0752847D07828A6
:100F70000DD14DE0A1690B988847054625283FF41F
:100F800069AFE1690B9888476D1C3FF46AAFB3E025
:100F900023466A466FF001000B9900F04DF99EE080
:100FA00045F040006060A80723464FF0000236D4A9
:100FB0003EE0E8077FF447AF2068011D216000682C
:100FC000290501D506701BE7290701D5068017E71B
:100FD000A90703D5F117C0E9006111E706600FE723
:100FE00045F040006060A80723464FF0080216D481
:100FF0001EE040F60E0125EA0100606016E045F0B3
:1010000040006060A80723464FF00A0207D40FE0B3
:1010100045F040006060A80708D5234610226FF015
:1010200001000B99AFF3008059E007E0234610223E
:101030006FF001000B99FFF78FF950E04FF00009B6
:101040004F464B46632802D05B2806D040E0E806B6
:1010500001D40120A06001273AE0626901210198D2
:1010600090475E2805D14FF0010962694946019811
:101070009047216939B900210A46534643F8212097
:10108000491C0829FADBB0B3216969B9C11700EB23
:10109000D16253110AEB830122F01F02821A012050
:1010A0000B68904003430B606269012101989047EF
:1010B0005D28E8D1B9F1000F09D00020514651F860
:1010C0002020D24341F82020401C0828F7DB02AB47
:1010D000224600976FF001000B99AFF300800028C3
:1010E0000CDA401C08D1BBF1000F05D04FF0FF30E7
:1010F0000DB0BDE8F08FFFE74046F9E7E90701D101
:1011000008F1010806444FF0000B79E6CCCCCC0C7A
:101110002DE9FF4F087883B09946FF2805D0491C78
:101120002D2804D00024002008E000200BE001243A
:10113000F9E700EB800003EB4000491C0B78FF2B24
:10114000F7D104B1404200230293147819461D469A
:101150002D2C01D02B2C04D1521C2D2C13D000246B
:101160000294AA461478FF2C0FD00A25A3FB057819
:1011700001FB05814FF0000C03FB0C11521CE3191D
:101180004AEB0101EEE70124EAE7814453EA01005A
:1011900002D019F5C87F06DA03980021C0E90011D2
:1011A00007B0BDE8F08F0025AE4E2F46DFF8B882BD
:1011B000184600F05DF9CDE90001B9F1000002DA4E
:1011C000C9F1000400E004460023A74A1AEB030B10
:1011D00042EB045A12E0E00707D02A46334638466D
:1011E0004146FFF7A3FA074688462A46334610468B
:1011F0001946FFF79BFA05460E466410002CEAD10B
:10120000DDE90001B9F1000F5A46534606DAFFF74F
:10121000FFFA3A464346FFF7FBFA05E0FFF786FA86
:101220003A464346FFF782FA029A0AB181F000413A
:10123000039AC2E90001B3E72DE9FF4F1F468DB0C5
:10124000D7E901464FF0FF382E2045464FF0000900
:101250000B90B9696D1C0E988847396A8246884799
:101260000028F6D1BAF1FF3F0AD024F4D064002E52
:1012700011DDBAF12B0F08D0BAF12D0F0BD102E01E
:10128000404611B08DE744F48064B9696D1C0E9836
:1012900088478246761E6946600501D52D2000E00C
:1012A0002B208DF8000001F1010B0DF1200809E061
:1012B000B9696D1C0E98884782460F9844F40074F3
:1012C000761E0560002E02DDBAF1300FF0D00B99CA
:1012D0008A453ED144F0800406E00F99681CA9F1CC
:1012E000010944F400740860B9696D1C761E0E98FB
:1012F000884782463028F0D02BE00B998A4505D1EB
:10130000200603D444F08004761E18E0504604F012
:101310005BFA08B30DF11301761E44F400748B459B
:1013200008D2AAF130000BF8010B200607D5A9F16D
:10133000010003E0200602D409F101008146A00566
:1013400002D50F99681C0860B9696D1C0E98884712
:101350008246002ED1DC53E0002E51DDBAF1650F3C
:1013600002D0BAF1450F4BD1A00549D5B9696D1C22
:1013700024F44074761E0E9888478246002E0CDDB9
:101380002B2804D0BAF12D0F07D144F48074B96929
:101390006D1C0E9888478246761EE00501D52D21EA
:1013A00000E02B2108F8011BCDF82C8021E00DF185
:1013B0002901761E44F4007488450CD2AAF130004D
:1013C00010F0FF0088F8000002D10B99884509D978
:1013D00008F1010806E0E00501D5244801E042F2E9
:1013E0000F708146B9696D1C0E98884782460F9828
:1013F0000560002E04DD504604F0E6F90028D6D141
:10140000F9690E988847FF208BF8000088F80000E3
:101410000020069007904B466A4608A906A8FFF7E9
:1014200077FEA00502D46FF001002AE714F0240F24
:101430000AD0E00714D1DDE906123868031D3B60CD
:101440000068C0E900120BE0DDE90601FFF7E3FAEE
:101450000146E00704D13868021D3A600068016067
:1014600028460EE7000014400000F03FF1D8FFFFCF
:101470000EB540F2334202920022CDE9002213461B
:10148000FFF750FC03B000BD70B58C1810F8015B7D
:1014900015F0070301D110F8013B2A1106D110F80D
:1014A000012B03E010F8016B01F8016B5B1EF9D111
:1014B0002B0705D40023521E0DD401F8013BFAE797
:1014C00010F8013BCB1A921C03E013F8015B01F802
:1014D000015B521EF9D5A142D8D3002070BD000097
:1014E00070B500252C461C4800F0E8FF64211A481E
:1014F00000F046FF18B9184800F082FE0544641C4D
:10150000E4B20A2CEFD30A20B5FBF0F0FFF717FA8C
:101510004FF06632114BFFF709F96FF00B02FFF73E
:10152000E6F90F4C0F4B2246FFF700F9FFF773FA6D
:101530000D49FFF74EF8FFF75BFA22460B4BFFF71A
:1015400067F900220A4BFFF7F1F8FFF764FAFFF79B
:1015500003FA0849C88070BD1C2E002066660A4048
:10156000CDCCCCCCCCCC21400000A841CCCC204070
:10157000000059404C2B002070B50446006881687B
:10158000C943C90717D1816821F00101816001F0C9
:101590009BFB05460AE000BF01F096FB401B0228BA
:1015A00004D920688068C043C00706D020688068DE
:1015B000C043C007F0D0002070BDA06A40F010000A
:1015C000A062E06A40F00100E062012070BD00000E
:1015D000F8B500260446009600688168C943C9072B
:1015E0002DD0816841F001018160164816490068DC
:1015F000B0FBF1F000E0401E00900028FBD101F0AC
:1016000063FB054616E000BF01F05EFB401B0228AD
:1016100010D920688068C043C0070BD0A06A40F092
:101620001000A062E06A40F00100E06284F82460EB
:101630000120F8BD20688068C043C007E4D10020C5
:10164000F8BD00000002002040420F0070B50546C2
:1016500000241249284600F06CFC641CE4B2022C01
:10166000F7D30E48C01EC078432802D044280AD0C1
:1016700012E000240949284600F05BFC641CE4B237
:101680001D2CF7D308E000240449284600F051FC43
:10169000641CE4B2202CF7D3012070BD950100201A
:1016A00070B5054600242149284600F042FC01227D
:1016B0001E49104603F038FA641CE4B2022CF2D33F
:1016C0001A4EF61EF078432803D0442820D000207C
:1016D00070BD00241549284600F02BFC641CE4B2C0
:1016E0001D2CF7D34FF47A7001F09EF910A1134826
:1016F000FEF7DBFD1148FEF7D1FD82B20F49042051
:1017000003F012FA40F6B83001F08EF9012009E03A
:1017100000240649284600F00CFC641CE4B2202C8E
:10172000F7D300203071012070BD0000950100202A
:1017300041542B455849540D0A000000CB2200208B
:1017400070B5264E0546F078442817D1F11C28467E
:1017500000F0EFFBF078452811D049280ED1012286
:10176000F11C104603F0E0F900241C492846C91C6E
:1017700000F0DFFB641CE4B20C2CF6D370BD002437
:1017800016492846C91C00F0D4FB641CE4B2062CA0
:10179000F6D3F07853280CD04528EFD100240F4918
:1017A0002846C91C00F0C5FB641CE4B2072CF6D324
:1017B00070BD002409492846C91C00F0BAFB641C0E
:1017C000E4B2062CF6D306A11548FEF76EFDBDE87F
:1017D000704064221249042003F0A6B9920100204F
:1017E00061616161616161616161616161616161E9
:1017F00061616161616161616161616161616161D9
:101800006161616161617765727469766962646260
:1018100068766462766962687666640D0A00000024
:10182000CB22002070B50546174900F082FB164810
:10183000C01EC078412826D100241349284600F054
:1018400078FB641CE4B2072CF7D310A11048FEF714
:101850002CFD0F48FEF722FD82B20D49042003F053
:1018600063F94FF47A7001F0DFF80AA10848FEF737
:101870001CFD0748FEF712FDBDE8704082B2044926
:10188000042003F051B970BD950100202B2B2B00D3
:10189000CB22002041542B4D41433F0D0A00000054
:1018A000FEE7000070B502F0A3FE02F0CDFE03F0EB
:1018B000BDF9FFF715FE00F075F83048007830B933
:1018C00000F088F81C222E49012003F02DF90A228D
:1018D0002C49012003F028F908222B49012003F0AC
:1018E00023F908222949012003F01EF9284C207908
:1018F000B0B11C222249042003F016F90A22214922
:10190000042003F011F908221F49042003F00CF908
:1019100008221E49042003F007F9042003F062F9AD
:101920006079002550B108221A49012003F0FCF823
:1019300008221849042003F0F7F86571A07950B126
:1019400008221549012003F0EFF80822124904206B
:1019500003F0EAF8A571E07928B108220F490420C4
:1019600003F0E2F8E571207A002805D008220C493E
:10197000042003F0D9F8257270BD0000B0010020EA
:10198000302B00204C2B0020F00000200001002014
:1019900092010020B7010020BF010020C7010020F4
:1019A000CF01002010B5084C4AF602200421208007
:1019B00006480088608006480088A080204603F022
:1019C000CAFF208110BD00004C2B00202800002001
:1019D0002C00002010B5164C4AF601202080154836
:1019E000B0F880106180B0F87C10A180B0F8781059
:1019F000E180818A2181018B6181818BA181008CB1
:101A0000E0810D4810F8341F218230F80C1C6182EF
:101A1000017FA1820949008AE082D1E91001FEF725
:101A2000CEFF20830D21204603F095FF608310BD7B
:101A3000302B0020000400207802002060030020EA
:101A400010B54FF4847003F07BFE0446FF20C4F809
:101A50000401411CC4F800012046FEF708FC2046A2
:101A600010BD0000014800F045BE0000903100208C
:101A7000014800F03FBE00004C310020014800F05A
:101A800039BE000080300020014800F033BE000065
:101A90003C300020014800F02DBE0000C430002082
:101AA000014800F027BE000008310020014800F086
:101AB00021BE0000B42F0020014800F01BBE000032
:101AC000F82F002030B590F840500124AC40C56B91
:101AD0006C60046863604368102B036803D09960EE
:101AE0000068C26030BD9A600068C16030BD00000F
:101AF000F0B50027244C1125244E01290ED00529CC
:101B000030D10179C078324603F06AFFB17904F12F
:101B1000F800302927D0312929D025E00179C07873
:101B20001A4A03F05DFF1848B179E830302902D035
:101B3000312904D000E0F1790546477105E0F179DB
:101B40003129F9D12946054641710F4B08335A1CFA
:101B5000062102F1DF0000BF03F00AFF607AA871DE
:101B6000207AE871F0BDF1790546477105E0F17919
:101B70003129F9D1294605464171034B08335A1CD6
:101B8000062102F1EF00E7E708000020BA2200205A
:101B90002DE9F04186B0002451A180468DF8044023
:101BA0008DF80C40D1E90001CDE904014E494046D1
:101BB00000F0BFF94C4E3078411E0D2970D88DF8D9
:101BC0001100002504AF4849404600F0B2F97919E8
:101BD0006D1C3078EDB28870062DF4D301AB03AAEA
:101BE000062104A803F0C4FE9DF816009DF80C1011
:101BF00088426CD19DF817009DF80410884266D188
:101C00009DF81100394D3A4E0E285ED2DFE800F003
:101C10005D070B1727334044494D5151555904A8CE
:101C200000F0DEF953E0314A0B21324803F0AFFEF9
:101C300030482978C1726978017301460AE02B4A5D
:101C40000B212D4803F0A3FE2B482978C172697837
:101C5000017301465FF0050002F0E4FF37E0244A1B
:101C60000B21264803F093FE24483178C172717825
:101C7000017301460AE01E4A0B21214803F087FE4A
:101C80001F483178C1727178017301460120E3E782
:101C900004A802F04BFD1AE004A802F001FD16E0D2
:101CA0001BE004A802F0EAFF11E0164901200870C9
:101CB0000DE004A802F07CFC09E004A802F07CFD21
:101CC00005E004A802F0B4FD01E004940594049436
:101CD0000020059406B0BDE8F0810120FAE700007D
:101CE000BB00000000000000920100201400002052
:101CF0001200002078010020850100205E010020F4
:101D00006B010020B001002010B5154A0129A2F195
:101D10001C0413D0052910D14179117081795170BB
:101D2000C17891700079D070104603F06FFE206981
:101D30004FF4AA6190FBF1F0606210BD417911701F
:101D400081795170C17891700079D070044803F0A6
:101D50005DFE2069842190FBF1F0206210BD00003F
:101D600024000020F0B5002601271C4C012915D0C5
:101D7000052929D104F58075C17829710079687128
:101D800004F108035A1C0621284603F0F1FD607A8D
:101D9000A871207AE8712879D8B918E00F4DC17878
:101DA000F035A5F1E8032971007968715A1C062104
:101DB000284603F0DDFD607AA871207AE871287961
:101DC00008B9687908B12770F0BD2670F0BD687950
:101DD00008B16770F0BD6670F0BD0000080000201B
:101DE000FEB5274A074607CA8DE807002549384649
:101DF00000F09FF8234C641E611C60788DF8010090
:101E0000384600F096F861788DF802109DF80100D0
:101E10006E46032804D0062821D010281FD02AE0BF
:101E2000022902D004290DD025E0002515493846A5
:101E300000F07FF871196D1C6078EDB2C870042D48
:101E4000F4D318E000250F49384600F072F87119F4
:101E50006D1C6078EDB2C870062DF4D30BE0002540
:101E60000849384600F065F871196D1C6078EDB2CC
:101E7000C870052DF4D3684603F0BAF80120FEBD02
:101E8000B87E000893010020FEB5274A074607CA1E
:101E90008DE807002549384600F04BF8234CA41E76
:101EA000A11CA0788DF80100384600F042F8A17816
:101EB0008DF802109DF801006E46032804D0062814
:101EC00021D010281FD02AE0022902D004290DD0E9
:101ED00025E000251549384600F02BF871196D1CD6
:101EE000A078EDB2C870042DF4D318E000250F4996
:101EF000384600F01EF871196D1CA078EDB2C8705C
:101F0000062DF4D30BE000250849384600F011F8FF
:101F100071196D1CA078EDB2C870052DF4D3684618
:101F200003F066F80120FEBDC47E00089401002085
:101F3000704710B50C46034602F014FB10B14FF089
:101F4000FF3010BDD3F80021521CD01702EB1060F7
:101F500020F0FF00101AC3F80001185C2070002068
:101F600010BD012000F09ABD022000F097BD10B511
:101F70004FF4807000F092FDBDE810404FF4007007
:101F800000F08CBD10B50C46034602F0F3FA10B118
:101F90004FF0FF3010BDD3F80421521CD01702EBD4
:101FA000106020F0FF00101AC3F804011C54002038
:101FB00010BDF0B516460D46074600240AE0297804
:101FC0003846FFF7DFFF002802DA4FF0FF30F0BDA0
:101FD000641C6D1CB442F2D30020F0BD72B6FEE763
:101FE0008178222905D1C078222802D10149012017
:101FF00008707047B201002070B50A4C20780028A4
:102000000FD0094E4FF480552946304600F04EFE61
:102010004B2000F009FD2946304600F047FE002025
:10202000207070BDB201002000180140F8B50025F5
:102030000446009590F8240001280BD0012084F874
:1020400024002046FFF798FA2046FFF7C1FA060061
:1020500002D050E00220F8BDA06A20F4885040F081
:102060000200A062022000F0F9FE25490968B1FBD8
:10207000F0F0400000E0401E00900028FBD12068F6
:10208000816841F00801816000F01EFE074608E00B
:1020900000F01AFEC01B0A2803D9206880680007D8
:1020A00015D4206880680007F2D42068816841F068
:1020B0000401816000F008FE074612E000F004FE13
:1020C000C01B0A280DD920688068400709D5A06A7E
:1020D00020F0020040F01000A06284F8245001209B
:1020E000F8BD206880684007E8D4A06A20F00200AC
:1020F00040F00100A06284F824503046F8BD000092
:1021000000020020F8B50024009490F82420254611
:10211000012A12D0012280F824204A681F23072AAE
:102120000DD20668776B521E02EB820293409F43EA
:102130000B6893401F43776319E00220F8BD0668DF
:102140000D2A0AD2376BD21F02EB820293409F43C3
:102150000B6893401F43376309E0F76A0D3A02EBBF
:10216000820293409F430B6893401F43F7620A68C3
:10217000072306680A2A0AD3F7680A3A02EB4202E2
:1021800093409F438B6893401F43F76008E0376993
:1021900002EB420293409F438B6893401F43376199
:1021A0000A68102A01D0112A20D1124B02689A42E3
:1021B00017D193681B0219D4936843F4000393600A
:1021C0000968102912D10C490C4A0968B1FBF2F1D7
:1021D00001EB8101490000E0491E00910029FBD17B
:1021E00004E0816A41F020018162012480F82450DA
:1021F0002046F8BD002401400002002040420F00AC
:102200000068C06C704700002DE9F04104004FF0F9
:1022100000057FD0A06A002628B9E66284F8246011
:10222000204600F081F82046FFF7A6F9A16AC9060A
:1022300000D420B1A06A40F01000A0626AE0A16A58
:1022400021F4885141F00201A162334923688B4295
:10225000E16904D1B1F5402F01D14FF40021277B72
:102260004FF4807C41EA470261680A43A1686145F6
:1022700008D0012906D0002194F814E0BEF1010F26
:1022800002D00AE06146F7E7C7B1A76A47F0200726
:10229000A762E76A47F00107E7625F6827F46947CA
:1022A0000F435F60236899681C4F39401143996060
:1022B000A16861450BD0012909D00CE0DFF860E08E
:1022C000A7690EEB47370F4347F40061E5E7218A22
:1022D0000D05A5F580152168CB6A23F470032B4307
:1022E000CB62216889680F4B1940914208D1E662A0
:1022F000A16A21F0020141F00101A162BDE8F08173
:10230000A06A20F0020040F01000A062E06A40F0F5
:102310000100E0620120F1E7003C0140FDF7E1FF30
:1023200000E0FFFFFE0E1FFF00B585B00021009109
:1023300001910291039100680E49884218D10E481C
:10234000816941F400718161816901F40071049136
:10235000816941F0100181618069694600F01000D7
:1023600004900220009003200190044800F0A2FB9A
:1023700005B000BD002401400010024000100140E3
:102380002DE9F84300270D460446009700F09CFC19
:10239000804620688168C90508D5A06A40F0200001
:1023A000A06284F824700120BDE8F8834168C90563
:1023B00003D4C06A10F4700F2AD0022000F04EFD42
:1023C0003B490968B1FBF0F62068036939490B42C3
:1023D0004FEA61014FEAA1121FD1C3684FEA611CA5
:1023E00013EA0C0F19D103690B4225D1C0681042C2
:1023F00022D1142023E0681C0AD02DB100F064FC27
:10240000A0EB0800A84203D920680068800725D502
:10241000206800688007EED52DE003690B4202D1E9
:10242000C168114206D0026923490A4206D1C06838
:10243000084203D1542002E0292000E0FC2046435A
:10244000009816E0681C11D02DB100F03DFCA0EB07
:102450000800A8420AD90098B04207D2A06A40F00A
:102460000400A06284F8247003209DE70098401CBB
:102470000090B042E6D321686FF012000860A06AB5
:1024800040F40070A06220688068C0F342400728D2
:102490000CD1207B50B9A06A20F48070A062A06AA1
:1024A000C00403D4A06A40F00100A06200207BE7D2
:1024B00000020020244992244992240070B5044669
:1024C00090F8240001280DD0012084F82400204633
:1024D000FFF77EF802004FF0000005D084F82400DA
:1024E000104670BD022070BDA16A40F201239943DD
:1024F00041F48071A1621F4D23681F49AB4218D17E
:102500000E6816F4702F14D0A66A46F48016A662E0
:102510000E68760505D5A66A26F4005646F4805660
:10252000A662A66AF6040AD5E66A26F00606E66200
:1025300006E0A66A26F48016A6625E68E9E7E06215
:1025400084F824006FF00200186020688368C3F3E9
:102550004243072B05D1A84208D1096811F4702F16
:1025600004D0816841F480118160B9E7816841F449
:10257000A001F9E7002801400424014010B590F8BB
:1025800021100022022905D00421816380F8202037
:10259000012010BD01680B6823F00E030B60016879
:1025A0000B6823F001030B6090F84030C46B0121ED
:1025B00001FA03F3636080F8211080F820201046B0
:1025C00010BD00002DE9F05F90F8211000240229D1
:1025D00003D004218163012485E001680A6822F0A8
:1025E0000E020A6001680A6822F001020A603F4E8A
:1025F0003E4FB215DFF8F4C0DFF8F090DFF8ECA042
:10260000DFF8E8B0DFF8E4E00168783F1301150275
:10261000ACF1640CA9F15009AAF13C0AABF1280B0A
:10262000AEF1140E4FF48018B14227D9B9420ED042
:10263000614512D049451DD0514518D0594518D093
:10264000714501D1424615E0294EB14201D1012226
:1026500010E0274E1436B14201D110220AE0244E78
:102660002836B14206D0224A3C32914201D11A4664
:1026700000E02A461E49091F0A602BE0B94213D028
:10268000614517D0494522D051451DD059451DD02F
:10269000714501D142461AE0B14202D14FF0807239
:1026A00015E0134EB14201D1012210E0104E143654
:1026B000B14201D110220AE00D4E2836B14206D0B7
:1026C0000B4A3C32914201D11A4600E02A460749A2
:1026D00080394A60012180F82110002180F8201003
:1026E000416B01B188472046BDE8F09F8000024061
:1026F000080402402DE9F05FC16B0A6801680B68AD
:10270000046C4FF0040808FA04F8844D844E854F99
:10271000DFF814C2DFF81492DFF814A2DFF814B265
:10272000DFF814E218EA020F65D05FEA437862D559
:102730000A68920603D40A6822F004020A60DFF8ED
:10274000F0814FF48062016808F11408130114024B
:10275000414524D9A9420DD0B1420FD0B9421AD077
:10276000614515D0494515D0514501D1120312E0FC
:10277000594501D104220EE0714501D140220AE001
:102780006D4D1435A94206D06B4A2832914201D1D1
:102790001A4600E022466749091F0A6029E0A9425B
:1027A00013D0B14215D0B94220D061451BD0494564
:1027B0001BD0514502D14FF4800217E0414502D1B0
:1027C0004FF0806212E0594501D104220EE07145BC
:1027D00001D140220AE0584D1435A94206D0564A8C
:1027E0002832914201D11A4600E022464B4908396D
:1027F0004A60C16A71E04FF0020808FA04F818EA6A
:10280000020F70D05FEA83786DD50A68920606D40D
:102810000A6822F00A020A60012180F82110DFF81C
:1028200010814FF40072016808F1140813011402BA
:10283000414524D9A9420DD0B1420FD0B9421AD096
:10284000614515D0494515D0514501D1120312E01B
:10285000594501D102220EE0714501D120220AE042
:10286000354D1435A94206D0334A2832914201D160
:102870001A4600E022462F49091F0A6029E0A942B2
:1028800013D0B14215D0B94220D061451BD0494583
:102890001BD0514502D14FF4001217E0414502D13F
:1028A0004FF0007212E0594501D102220EE071454D
:1028B00001D120220AE0204D1435A94206D01E4A3B
:1028C0002832914201D11A4600E0224613490839C4
:1028D0004A60002180F82010816A00291CD0BDE8E0
:1028E000F05F0847FFE70825A540154214D01A07F6
:1028F00012D50A6822F00E020A6090F84020C36BDD
:10290000012101FA02F25A60816380F8211000214E
:1029100080F82010016BE0E7BDE8F09F080002405E
:102920001C000240300002404400024058000240B7
:102930006C000240080402401C04024030B560B143
:102940001A4B026814219A4209D2194B1344B3FB63
:10295000F1F18900016417490AE0012030BD134BF1
:102960005B421344B3FBF1F1890001640F4908395C
:10297000C163022180F82110136843F6F0718B4384
:10298000F0E901142143D0E902452C4321430469B5
:102990002143446921438469214319431160002183
:1029A0004163012242770177084630BD08040240A6
:1029B000F8FFFDBF0000024070B5044690F820000B
:1029C000002501280CD0012084F8200094F8216013
:1029D0000020012E06D084F820000225284670BD74
:1029E000022070BD022684F82160A063206806687A
:1029F00026F0010606602046FFF764F8E06A00282A
:102A00002068016802D041F00E0106E021F00401C7
:102A100001602068016841F00A01016020680168D6
:102A200041F001010160D9E770B5044600F04CF9AE
:102A30000546601C02D004480078044400F044F9C4
:102A4000401BA042FAD370BDF401002010B504462B
:102A500000F03AF90C490A68821A052A0DD3086079
:102A60000120022C0AD0012C0AD0B4F5007F09D035
:102A7000B4F5807F01D10549087010BD0449FBE71A
:102A80000449F9E70449F7E7F00100209A01002022
:102A9000970100209801002099010020044910B5F9
:102AA0000A68024202D00860FFF7D0FF10BD0000A4
:102AB000140401402DE9F84FDFF8C8910024A9F172
:102AC000040B23460F2709F1040AABF1040ED1E0F1
:102AD0000125A54006EA0502AA4276D1DFF8A8C181
:102AE0004E68A6EB0C0866452BD00DDC032E34D0C7
:102AF00005DC36B3012E19D0022E2FD11BE0112E8A
:102B000016D0122E2AD119E0B8F5881F19D006DC8C
:102B1000B8F5803F15D0B8F5801F1FD111E0B8F58A
:102B2000001F0ED0B8F5041F18D10AE0CB6815E0DD
:102B3000CB681B1D12E0CB6808330FE0CB680C3369
:102B40000CE08B682BB1012B4FF0080303D04561DB
:102B500004E0042302E0056100E00023FF2A01D81D
:102B6000064601E000F104064FEA840501D9A5F10B
:102B70002005D6F8008007FA05FC28EA0C0803FABD
:102B800005F548EA0508C6F800804D68ED0070D5E7
:102B90003E4DAE6946F00106AE61AD6924F0030614
:102BA00005F0010500953A4D06EB050CDCF80850E0
:102BB000A607360F07FA06F825EA0805DFF8D480DD
:102BC000404503D14FF0000825E052E0DFF8C8800F
:102BD000404502D14FF001081DE0DFF8C0804045BC
:102BE00002D14FF0020816E0DFF8B480404502D170
:102BF0004FF003080FE0DFF8AC80404502D14FF002
:102C0000040808E0DFF8A080404502D14FF0050835
:102C100001E04FF0060808FA06F848EA0508CCF883
:102C200008804D68D9F80060ED024D4601D5164385
:102C300000E096432E604D68DAF80060AD0255461C
:102C400001D5164300E096432E604D68DBF8006026
:102C5000AD035D4601D5164300E096432E604D68F6
:102C6000DEF80060ED03754601D5164300E096439B
:102C70002E60641C0A681646E2407FF429AFBDE866
:102C8000F88F0000080401400000111000100240FD
:102C90000000014000080140000C0140001001400C
:102CA0000014014000180140001C0140C26821EAE4
:102CB00002030A4043EA0241016170470AB101611F
:102CC00070470904FBE70000014880687047000076
:102CD000F401002002488168027811448160704745
:102CE000F4010020074810B5016841F010010160AF
:102CF000032000F0A1F80F2000F006F800F04AF8D9
:102D0000002010BD0020024030B505461C4887B0A9
:102D1000816941F400618161806906A900F4006065
:102D2000009001A800F002FA00F030FA1549164AA6
:102D3000B0FBF1F11548491E0260416040F2E732F4
:102D40000021C0E903218160816100F0EBFB0400F8
:102D500012D10E4800F014FC04000DD1192000F02F
:102D60003DF8102D07D200222946192000F044F822
:102D70000748056000E0012407B0204630BD000090
:102D80000010024040420F00002C0140D4310020CE
:102D9000F80100200F4808B5816941F00101816107
:102DA000816901F001010091C16941F08051C16167
:102DB000C069002200F0805000900F21901E00F0AA
:102DC0001BF80548416821F0E06141F00071416065
:102DD00008BD00000010024000000140002809DB8F
:102DE00000F01F02012191404009800000F1E02025
:102DF000C0F8001170470000F0B40E4B1B680C4681
:102E0000C3F30223C3F10705042D00D90425191DBE
:102E1000072901D2002300E0DB1E012606FA05F196
:102E2000491E214099409E40761E16403143F0BC19
:102E300002F044BC0CED00E0064900F0070208680F
:102E40004FF6FF03184040EA0220034A104308608F
:102E5000704700000CED00E00000FA0510B50146D7
:102E60000020274C04292FD00BDC012930D0022967
:102E700029D100F08BF96168C1F38131491C490007
:102E80001FE0082920D010291DD161682268D201D5
:102E900019D51C48C1F38342C903805C0AD5616817
:102EA000184AC1F34041921E515C174AB2FBF1F13E
:102EB000484301E0154948436168490203D4400092
:102EC0000321B0FBF1F010BDBDE8104000F06EB979
:102ED000226AC2F30121012903D1920701D5C80357
:102EE00010BD022905D1626A920702D549F6404019
:102EF00010BD0329FCD121688903F9D5044810BD10
:102F000000100240707F0008001BB70000093D0060
:102F1000366E01002DE9F84305460078354CC007B0
:102F200054D0E0690026C00008D4E06940F0805029
:102F3000E061E069012600F0805000902E480168B1
:102F4000C90512D40168804641F480710160FFF721
:102F5000BBFE074605E000BFFFF7B6FEC01B6428B6
:102F600023D8D8F80000C005F6D5206A10F44070C8
:102F700021D0A98801F4407181421CD0206A1F49E8
:102F8000012220F440700A6000220A602062C0071B
:102F900011D0FFF799FE074641F2883808E000BFDC
:102FA000FFF792FEC11B414502D90320BDE8F8831B
:102FB000206A8007F4D5206A696820F440700843CD
:102FC00020621EB1E06920F08050E061287880071F
:102FD00005D56068A96820F44040084360602878FF
:102FE000C00605D56068696920F480000843606008
:102FF0000020DBE700100240007000404004424225
:103000002DE9F0470F46050061D0434E306800F0CF
:103010000700B84209D2306820F00700384330601A
:10302000306800F00700B84251D128683B4C810756
:1030300012D5400703D5606840F4E06060602878EE
:10304000000703D5606840F4605060606068A9685C
:1030500020F0F000084360602878C00728D0686836
:10306000012810D02168022810D0890700292EDA03
:10307000616821F0030101436160FFF725FE80468E
:1030800041F288390DE021688903EFE78901EDE716
:10309000FFF71AFEA0EB0801494502D90320BDE85D
:1030A000F0876068696800F00C00B0EB810FEFD129
:1030B000306800F00700B8420BD9306820F00700F4
:1030C00038433060306800F00700B84201D001207A
:1030D000E5E72878400705D56068E96820F4E060F6
:1030E000084360602878000706D56068296920F4E5
:1030F000605040EAC100606000F058F86168084A1A
:10310000C1F30311515CC8400649086006480068D5
:10311000FFF7FAFD0020C2E7002002400010024045
:10312000807F000800020020F80100200F220260CA
:103130000C4A536803F003034360536803F0F00341
:103140008360536803F4E063C36052684FF4E06344
:1031500003EAD20202610448006800F00700086038
:10316000704700000010024000200240044805495A
:1031700000684968044AC1F30221515CC8407047A5
:103180000002002000100240907F0008044805491A
:1031900000684968044AC1F3C221515CC8407047C5
:1031A0000002002000100240907F00080F4A516882
:1031B00001F00C00042803D0082803D00C48704705
:1031C0000C4870470C48C1F38343C903C05C0AD55F
:1031D0005168094AC1F34041921E515C054A50436F
:1031E000B0FBF1F0704705494843704700100240BA
:1031F00000127A00001BB7005E7F000800093D0046
:103200002DE9F84F040070D02078C04DC00749D098
:103210006868C0F38100012807D06868C0F38100A6
:10322000022809D16868C00306D52868800339D50B
:1032300060680028E7D035E06068B0F5803F0BD0CB
:1032400010B1B0F5A02F11D0286820F4803028608C
:10325000286820F4802002E0286840F4803028604C
:10326000606890B1FFF730FD06460AE0286840F438
:1032700080202860F0E700BFFFF726FD801B642850
:1032800073D828688003F7D50CE0FFF71DFD0646CC
:1032900005E000BFFFF718FD801B6428F0D8286800
:1032A0008003F7D420789A4E80074FF001094FF041
:1032B000000839D5686810F00C0F07D06868C0F3B3
:1032C0008100022809D16868C00306D428688007F5
:1032D00014D52069012808D110E02069B0B1C6F8E2
:1032E0000090FFF7F1FC074605E00AE1FFF7ECFC70
:1032F000C01B0228C4D828688007F7D528686169F0
:1033000020F0F80040EAC10028600DE0C6F8008017
:10331000FFF7DAFC074604E0FFF7D6FCC01B0228E3
:1033200023D828688007F7D4207800072CD579485F
:10333000A169D9B1C0F80090FFF7C6FC074604E0C8
:10334000FFF7C2FCC01B02280FD8686A8007F7D5B8
:1033500071484FF4FA510068B0FBF1F0009000BFE3
:103360000098411E0091FAD20EE080E0C0F8008083
:10337000FFF7AAFC074604E0FFF7A6FCC01B0228E3
:1033800075D8686A8007F7D42078400760D5E86967
:103390000027C00008D4E86940F08050E861E8697F
:1033A000012700F0805000905C480168C90513D4E3
:1033B0000168834641F480710160FFF785FC824615
:1033C00006E000BFFFF780FCA0EB0A0064284ED89F
:1033D000DBF80000C005F5D5E06801280AD008B187
:1033E000052813D0286A20F001002862286A20F0FE
:1033F000040002E0286A40F001002862E06841F21F
:10340000883B98B1FFF760FC82460BE0286A40F0E9
:1034100004002862EEE700BFFFF756FCA0EB0A01AC
:1034200059455AD8286A8007F6D50CE0FFF74CFCBE
:10343000824605E0FFF748FCA0EB0A0159454CD84D
:10344000286A8007F6D41FB1E86920F08050E8614F
:10345000E06988B36968C1F38101022944D0022878
:10346000C6F8608004D0FFF72FFC044638E034E053
:10347000FFF72AFC074604E0FFF726FCC01B0228E2
:103480002BD828688001F7D4206AB0F5803F05D199
:103490006868A16820F4003008436860D4E9080136
:1034A0000843696821F4741108436860C6F86090A5
:1034B000FFF70AFC044606E025E000BFFFF704FC26
:1034C000001B022809D828688001F7D51BE000BF3F
:1034D000FFF7FAFB001B022802D90320BDE8F88F92
:1034E00028688001F4D40EE00128F7D06868226AC9
:1034F00000F48031914204D1616A00F47010884276
:1035000001D00120EAE70020E8E7000000100240B7
:10351000000042428004424200020020007000404D
:103520007047704710B5040003D094F83D0010B107
:1035300007E0012010BD002084F83C00204600F088
:103540001EF8022084F83D00211D206801F00AFDCC
:10355000012084F8460084F83E0084F83F0084F897
:10356000400084F8410084F8420084F8430084F865
:10357000440084F8450084F83D00002010BD7047E9
:1035800090F83D10012901D001207047022180F8F8
:103590003D100168CA6842F00102CA6000680E4925
:1035A00088420ED00D4988420BD0B0F1804F08D030
:1035B0000B49884205D00B49884202D00A4988420B
:1035C00004D1816801F00701062903D0016841F0A8
:1035D0000101016000207047002C014000340140CF
:1035E0000004004000080040000C0040704770B527
:1035F0000446006801694FF00005C943890715D4E6
:10360000C168C943890711D4E91E016101202077EF
:10361000206880698007204602D0FFF7E7FF04E0BA
:1036200000F098F8204600F096F8257720680169A8
:10363000C943490717D4C168C943490713D46FF078
:1036400004010161022020772068806910F4407F26
:10365000204602D0FFF7CAFF04E000F07BF82046C6
:1036600000F079F8257720680169C943090716D465
:10367000C168C943090712D46FF008010161042031
:1036800020772068C0698007204602D0FFF7AEFF90
:1036900004E000F05FF8204600F05DF82577206830
:1036A0000169C943C90617D4C168C943C90613D4FF
:1036B0006FF010010161082020772068C06910F4C4
:1036C000407F204602D0FFF791FF04E000F042F86F
:1036D000204600F040F8257720680169C943C907F2
:1036E00008D1C168C943C90704D1891E01612046B8
:1036F00000F032F820680169C943090609D4C1689D
:10370000C943090605D46FF0800101612046FFF727
:1037100007FF20680169C943490609D4C168C94344
:10372000490605D46FF040010161204600F01EF803
:1037300020680169C94389060BD4C168C943890659
:1037400007D46FF0200101612046BDE87040FFF70B
:10375000E8BE70BD7047704700680349884201D1D8
:10376000FFF7B8BA70470000002C0140704718B549
:10377000034690F84200202801D0022018BD61B114
:103780005AB10120186300205863184601F068FE02
:103790000028F3D1196B012901D0012018BD196847
:1037A0000A684968009119680C3151E8002F42F00D
:1037B000100241E80024002CF5D118BD10B50068B6
:1037C0000B4A904213D10B4802F0FAFD4FF480648B
:1037D00021460848FCF74BFD07480078002806D131
:1037E0002246BDE8104003490448FFF7C0BF10BDA2
:1037F000005000402F270020B0010020942E002010
:1038000070470000F8B5016804460868CA684B694B
:1038100010F00F0F4FF0000559D003F0010602F42D
:103820009077374365D0C10705D0D10503D5616CCA
:1038300041F001016164410705D5D90703D0616CEE
:1038400041F002016164810705D5D90703D0616C9D
:1038500041F004016164010707D502F02001314302
:1038600003D0616C41F008016164616C00293AD0B9
:10387000800604D5900602D5204601F0EBFC2068B6
:103880004069616CC0F38010090700D460B3204622
:1038900001F0ABFC20684069400621D52068143057
:1038A00050E8001F21F0400140E80012002AF5D145
:1038B000E06BA8B16D494163E06BFEF783FE002821
:1038C00011D0E06B416B01B0BDE8F04008478306C2
:1038D0000FD593060DD52046BDE8F84001F0BABCDF
:1038E0002046FFF78DFFF8BD2046FFF789FF65648E
:1038F000F8BD266B2023012E7CD1C6067AD5D606CC
:1039000078D508684868009048694FF0020640067C
:1039100040D5E16B086840680004000CE8D0A28D37
:103920008242E5D9E085886920282DD020680C30B6
:1039300050E8001F21F4807140E80012002AF5D100
:103940002068143050E8001F21F0010140E8001207
:10395000002AF5D12068143050E8001F21F0400102
:1039600040E80012002AF5D184F84230256320682F
:103970000C3050E8001F21F0100140E80012002A2E
:10398000F5D1E06BFEF7FAFD6663A08DE18D401A7C
:1039900081B22AE0A08DE18D401A81B2E08D00282D
:1039A000A6D00029A4D022680C3252E8000F20F4DF
:1039B000907042E80007002FF5D12068143050E8DD
:1039C000002F22F0010240E80027002FF5D184F8F3
:1039D0004230256320680C3050E8002F22F010029E
:1039E00040E80023002BF5D166632046FFF7E6FE92
:1039F000F8BDFFE705062BD5150629D594F841003B
:103A00002128F5D1A068B0F5805F01D12069B0B15F
:103A1000206A411C2162216800784860E08C401EC9
:103A20000004000CE084E3D12068C16821F080012B
:103A3000C1602068C16841F04001C160D8E7206AD8
:103A40000088C0F308004860206A801C2062E5E717
:103A50004006CDD55006CBD5CA68204622F040029C
:103A6000CA6084F8413000F016FBC1E7ED50000851
:103A700070B5040004D094F84100002510B106E0B0
:103A8000012070BD84F84050204600F023F8242027
:103A900084F841002068C16821F40051C1602046CB
:103AA00001F03AFC2068016921F49041016120682D
:103AB000416921F02A0141612068C16841F4005147
:103AC000C1606564202084F8410084F84200656389
:103AD000002070BD2DE9F04F85B0002500950195BF
:103AE000029503950446DFF864830368D8480221F1
:103AF0000322DFF860C3202780264FF010094345DA
:103B000052D1C36943F40023C361C36903F40023A2
:103B10000493836943F0100383618069039200F08A
:103B2000100004904802CDE900016946E046604675
:103B3000FEF7C0FF3001CDE9000569464046029519
:103B4000FEF7B8FFDFF81483C3494046C0E900150B
:103B5000C0E90256C8F81050C8E90557C8F81C500B
:103B6000FEF7ECFE08B1FEF739FABC4FC4F83C8012
:103B70004437C8F82440C7E902563D61B6487D6124
:103B8000BD612830FD61C7E900093846FEF7D6FE61
:103B900008B1FEF723FAA7630022052134207C62D6
:103BA000FFF72AF9342033E0DFF8B4824FF0040B3A
:103BB000434532D1C36943F48013C361C36903F43D
:103BC00080130493836943F010038361836903F0D6
:103BD00010030493836943F0200383618069039297
:103BE00000F0200004904FF48050CDE900016946B8
:103BF0006046FEF75FFFCDE900B56946994802953A
:103C0000FEF758FF002205213520FFF7F5F8352093
:103C1000FFF7E4F805B0BDE8F08FDFF84C82DFF87D
:103C20004CC24FF4007A434554D1836943F4804336
:103C30008361836903F480430493836943F004033D
:103C400083618069CDE900A100F00400CDE9032083
:103C50006946E0466046FEF72DFF4FF48060CDE9EF
:103C60000005694640460295FEF724FFDFF8EC8127
:103C70007F4908F188084046C0E90015C0E90256AE
:103C8000C8F81050C8E90557C8F81C50FEF756FE92
:103C900008B1FEF7A3F9714FC4F83C80CC37C8F8DF
:103CA0002440C7E902563D6171487D61BD61143809
:103CB000FD61C7E900093846FEF740FE08B1FEF78E
:103CC0008DF9A7630022052125207C62FFF794F877
:103CD00025209DE7DFF89C81434552D1C36943F419
:103CE0000033C361C36903F400330493836943F071
:103CF000040383618069CDE900B100F00400CDE9DF
:103D000003206946E0466046FEF7D4FE0820CDE970
:103D10000005694640460295FEF7CCFEDFF8588163
:103D2000534940461431C0E90015C0E90256C8F8AD
:103D30001050C8E90557C8F81C50FEF7FFFD08B140
:103D4000FEF74CF94C4FC4F83C804437C8F8244087
:103D5000C7E902563D6146487D61BD612830FD617D
:103D6000C7E900093846FEF7E9FD08B1FEF736F964
:103D7000A7630022052126207C62FFF73DF826205C
:103D800046E7DFF8F8C063457FF444AFC36943F406
:103D90008023C361C36903F480230493836943F0E0
:103DA000200383618069DFF8BC8000F0200004906C
:103DB0004FF48070CDE90001039269464046FEF75A
:103DC00079FECDE900A5694640460295FEF772FEF0
:103DD0002B48416821F0300141F0E06141F03001B1
:103DE0004160DFF89480224908F18808404628396C
:103DF000C0E90015C0E90256C8F81050C8E90557D7
:103E0000C8F81C50FEF79AFD08B1FEF7E7F81A4F04
:103E1000C4F83C80CC37C8F82440C7E902563D615D
:103E200013487D61BD613C38FD61C7E90009384632
:103E3000FEF784FD08B1FEF7D1F8A7630022052143
:103E400027207C62FEF7D8FF2720E1E6004C0040E7
:103E5000001002400010014030040240B42F002046
:103E600000500040001401400038014000080140AB
:103E70005800024000440040C43000200048004088
:103E80000000014090F84230202B01D00220704702
:103E900021B11AB10023036301F09ABA01207047DF
:103EA00070B50068194A00241949904207D1194D8C
:103EB0002878C0F5807228780144174809E0174A2D
:103EC00090420BD1164D2878C0F5807228780144B5
:103ED00014480068FEF76DF82C7070BD12498842D6
:103EE00008D1124D28782978C0F580721048014415
:103EF0001048EEE710498842EFD1104D2878297814
:103F0000C0F580720E4801440E48E2E700380140D7
:103F10002F230020B3010020A00100200044004016
:103F2000B4010020A401002000480040B501002099
:103F30002F250020A8010020004C0040B6010020E1
:103F40002F260020AC01002070B500681C4A1D49D6
:103F5000904208D11C4C2078C0F1800520782A4678
:103F600001441A480AE01A4A90420ED1194C2078AE
:103F7000C0F1800520782A46014417480068FEF702
:103F800018F820782844207070BD1449884209D15F
:103F9000134C20782178C0F1800512482A4601444C
:103FA0001148EBE711498842EED1114C2078217875
:103FB000C0F180050F482A4601440F48DEE70000A3
:103FC000003801402F230020B3010020A001002071
:103FD00000440040B4010020A4010020004800403B
:103FE000B50100202F250020A8010020004C004032
:103FF000B60100202F260020AC0100202DE9F84357
:10400000044690F841001F4616460D46202802D06F
:104010000220BDE8F8837DB176B1002060642120E4
:1040200084F84100FEF750FEA6848046E684A0682E
:10403000B0F5805F02D003E00120EAE7206910B10B
:104040002E4600250EE000260CE08021204601F0DF
:1040500022FAA0B9AEB116F8010B21684860E08CD5
:10406000401EE084E08C43464FF000020097002899
:10407000EBD14FF04001204601F00DFA30B10320A2
:10408000C7E735F8020BC0F30800E6E7202084F804
:1040900041000020BDE77047FEE700003EB500216B
:1040A0001148009101910F4A0291026081600173F1
:1040B000017501244FF460220461C2614160FEF782
:1040C000A3F808B1FDF78AFF0B20CDE90004072013
:1040D000029069460448FEF715F8002801D0FDF764
:1040E0007DFF3EBD002401401C2E0020294808B55C
:1040F000416941F001014161416901F00101009113
:10410000416941F0020141614069002200F0020072
:10411000009005210C20FEF76FFE0C20FEF75EFEDE
:10412000002205210D20FEF767FE0D20FEF756FE4A
:10413000002205210E20FEF75FFE0E20FEF74EFE48
:10414000002205210F20FEF757FE0F20FEF746FE46
:10415000002205211020FEF74FFE1020FEF73EFE44
:10416000002205211120FEF747FE1120FEF736FE42
:10417000002205213A20FEF73FFE3A20FEF72EFEF0
:10418000002205213B20FEF737FEBDE808403B201A
:10419000FEF724BE0010024010B5A6B00020239008
:1041A000249023A801F033FD1C4C1C221C496061A3
:1041B0006846FCF735F80021684601F08DFD184986
:1041C00020601C221C3107A8FCF72AF8002107A850
:1041D00001F082FD124960601C2238310EA8FCF704
:1041E0001FF800210EA801F077FD0D49A0601C22E8
:1041F000543115A8FCF714F8002115A801F06CFD46
:104200000749E0601C2270311CA8FCF709F8002166
:104210001CA801F061FD206126B010BDD80100206E
:10422000D07E00082DE9F04F85B000255348009559
:10423000019502950395816941F0100181618169C1
:1042400001F010010491816941F0040181618169EB
:1042500001F004010491816941F0400181618169AB
:1042600001F040010491816941F02001816181697F
:1042700001F020010491816941F0080181618069A8
:10428000DFF8FC8000F008000490012240F60101F4
:104290004046FEF713FD002241F202014046FEF7C0
:1042A0000DFDDFF8E0B04FF4C05700223946584604
:1042B000FEF704FDDFF8D0900122D1024846FEF758
:1042C000FDFC00224FF480514846FEF7F7FCDFF872
:1042D000BCA0012208215046FEF7F0FC0124F81C86
:1042E000CDE900040226CDE9024669464046FEF7C4
:1042F000E1FB01AA4FF00308009782E8300169460C
:104300005846FEF7D7FBCDE90074CDE90246694671
:104310004846FEF7CFFB08208DE8710069465046FD
:10432000FEF7C8FB1A4DF810CDE900056946029466
:104330005046FEF7BFFBCDF80080CDE90154694639
:104340005846FEF7B7FB002205210620FEF754FD74
:104350000620FEF743FD002205210720FEF74CFD55
:104360000720FEF73BFD002205211720FEF744FD44
:104370001720FEF733FD05B0BDE8F08F00100240B6
:10438000000801400018014000140140000C0140E9
:10439000000011100C4810B50A4901604FF4E131DA
:1043A0004160002181600C22C160C0E9041281617A
:1043B000C161FFF75DFB002803D0BDE81040FDF7A9
:1043C0000DBE10BD004C00404C2E00200C4810B516
:1043D0000A4901604FF416514160002181600C22AE
:1043E000C160C0E904128161C161FFF741FB00288F
:1043F00003D0BDE81040FDF7F1BD10BD00500040F6
:10440000942E00200C4810B50A4901604FF4E131A8
:104410004160002181600C22C160C0E90412816109
:10442000C161FFF725FB002803D0BDE81040FDF770
:10443000D5BD10BD00380140DC2E00200C4810B561
:104440000A4901604FF4E1314160002181600C2292
:10445000C160C0E904128161C161FFF709FB002856
:1044600003D0BDE81040FDF7B9BD10BD00440040C9
:10447000242F00200C4810B50A4901604FF4E131A7
:104480004160002181600C22C160C0E90412816199
:10449000C161FFF7EDFA002803D0BDE81040FDF739
:1044A0009DBD10BD004800406C2F0020FEE7FEE7D8
:1044B0007FB5294D002440F6F346A879012822D182
:1044C000A878E978884206D1AC70EC703146234870
:1044D000FBF7CDFE17E000EB800101EBC0001F49A8
:1044E00000940194029403940144AC710D22684637
:1044F000FBF796FE0D226946022000F015FB0094A2
:10450000019402940394E879012824D128796979E7
:10451000884208D12C716C7104B03146BDE87040FE
:104520000F48FBF7A4BE00EB800101EBC0000C4973
:1045300000940194029403940144EC710D226846A6
:10454000FBF76EFE0D226946032000F0EDFA0094A1
:104550000194029403947FBD08000020D606002039
:10456000C7150020D0E94010814201D101207047D9
:1045700000207047D0F80411D0F80001491CCA1778
:1045800001EB126222F0FF02891A814201D101205F
:1045900070470020704700F5807003C8814201DB3E
:1045A000081A02E0C0F58070084480B2704700002D
:1045B00010B5807801280DD0052816D108220B49A6
:1045C00000F056FA09490822B0390520BDE810402C
:1045D00000F04EBA054908220839012000F048FAD7
:1045E00002490822B8390120F0E710BDE800002098
:1045F00070B54FF47A750F4C17E06D1EADB24FF0E9
:10460000010010D2207040F6F3410B48FBF72FFE5B
:104610004FF4FF710948FBF72AFE09490020087092
:104620000849087070BDFEF7FFF920780028E4D033
:10463000012070BD0E000020D6060020D804002006
:104640000A0000200B00002070B54FF47A750F4C63
:1046500017E06D1EADB24FF0010010D2207040F691
:10466000F3410B48FBF703FE4FF4FF710948FBF7DA
:10467000FEFD0949002008700849087070BDFEF76A
:10468000D3F920780028E4D0012070BD0F0000206D
:10469000C7150020C91300200C0000200D000020C9
:1046A0001CB50021019101AA009143189B78535435
:1046B000491CC9B20429F8D3104601F0A7F9164CD9
:1046C000206900EB4010810014A0616100F0E6FF5A
:1046D0006946606901F0EAF904F591749DF80000FB
:1046E00020729DF80100E0719DF80200A0729DF813
:1046F00003006072A4F58C720B21204601F047F98B
:10470000A4F58C700D220178E17240782073214667
:10471000012000F0ADF91CBD08000020416E676C5F
:1047200065436F756E74313D25640A001CB5002128
:10473000019101AA009143189B785354491CC9B2B6
:104740000429F8D3104601F061F9164C4FF4AA6021
:104750002169414314A0A16100F0A0FF6946A0694E
:1047600001F0A4F904F22F149DF8000020729DF8C6
:104770000100E0719DF80200A0729DF803006072D4
:10478000A4F223120B21204601F001F9A4F2231018
:104790000D220178E172407820732146052000F057
:1047A00067F91CBD08000020416E676C65436F759A
:1047B0006E74353D25640A001CB50021019101AAE3
:1047C000009143189B785354491CC9B20429F8D36B
:1047D000104601F01BF91449086900EB40108000F5
:1047E0004861694601F062F9104C9DF80000A4F59B
:1047F000997220729DF80100E0719DF80200A0728C
:104800009DF8030060720B21204601F0C0F8A4F56A
:1048100099700D220178E1724078207321460120C1
:1048200000F026F91CBD0000080000204401002013
:104830001CB50021019101AA009143189B785354A3
:10484000491CC9B20429F8D3104601F0DFF8144915
:104850004FF4AA62086950438861694601F026F95D
:10486000104C9DF80000A4F23D1220729DF801004A
:10487000E0719DF80200A0729DF8030060720B21A8
:10488000204601F084F8A4F23D100D220178E17277
:10489000407820732146052000F0EAF81CBD000096
:1048A00008000020510100202DE9F0418046FFF76B
:1048B00059FE28B94046FFF76EFE0546072802D28A
:1048C0000020BDE8F08100242746094E0CE0377037
:1048D00007494046FDF72DFB3078BB2802D1404602
:1048E000FDF756F9641CE4B2AC42F0D30120E8E7CE
:1048F000920100202DE9F0418046FFF733FE28B9F0
:104900004046FFF748FE0546062802D20020BDE8D3
:10491000F081002427460A4E0DE009497770491CB2
:104920004046FDF706FB7078012802D14046FDF7AE
:1049300057FA641CE4B2AC42EFD30120E7E7000071
:10494000920100202DE9F0418046FFF70BFE28B9C7
:104950004046FFF720FE0546062802D20020BDE8AB
:10496000F081002427460A4E0DE00949B770891CE2
:104970004046FDF7DEFAB078052802D14046FDF743
:1049800083FA641CE4B2AC42EFD30120E7E70000F5
:104990009201002070B50546FFF7E4FD0446284665
:1049A000FFF7F9FD194E2DE02846FFF7DBFD044621
:1049B0002846FFF7F0FD15492846C91CFDF7B9FA4E
:1049C000F078532812D004DC442807D04D2819D1A0
:1049D00010E0572806D0BB2814D10FE02846FCF77A
:1049E000AFFE0FE02846FCF71DFF0BE02846FCF762
:1049F00057FE07E02846FCF729FE03E00449284655
:104A0000FFF752FF002CCFD070BD000092010020B4
:104A10004C2E002010B5FDF7EFFA074C2078401C13
:104A2000C0B22070402803D1FCF73CFF002020706A
:104A3000BDE81040FFF73CBDB101002010B5FCF708
:104A4000FFFF07490860FCF7FBFF06490860FCF719
:104A5000F7FF05490860FCF7F3FF0449086010BD43
:104A6000A0010020A4010020A8010020AC0100202A
:104A70002DE9F0410E460025264C40F6F3414FF457
:104A8000FF7701281AD0052816D16079FF2837D280
:104A900000EB800101EBC0001F4908443146FBF7E1
:104AA000BFFB1E496079B27801F8102001EB40018C
:104AB000F2784A70401C6071BDE8F081E078FF2810
:104AC00014D200EB800101EBC000154908443146C7
:104AD000FBF7A6FB1349E078B27801F8102001EB50
:104AE0004001F2784A70401CE070E5E70C48FBF7A3
:104AF000BEFB39460B48FBF7BAFBA570E570DBE758
:104B00000548FBF7B4FB39460448FBF7B0FB2571B9
:104B10006571D1E708000020C7150020C9130020E7
:104B2000D6060020D80400202DE9F04114460D4699
:104B300001280CD002280DD0032825D0042843D109
:104B400022484FF47A73BDE8F041FFF757BA0A23C1
:104B50001F48F8E71F4E012211463046FEF7AEF817
:104B6000012202213046FEF7A9F80A2322462946EF
:104B70001948FFF743FA002201213046FEF79EF85C
:104B80000022022130461BE00122144FD60231469A
:104B90003846FEF793F84FF48058012241463846D4
:104BA000FEF78CF80A23224629460D48FFF726FA1D
:104BB000002231463846FEF781F800224146384649
:104BC000BDE8F041FEF77AB8BDE8F0814C2E002038
:104BD000DC2E002000080140242F0020001401409A
:104BE0006C2F002070B50B4D06460024287828B1A4
:104BF000082209493046FFF797FF2C70074D2878A7
:104C0000002805D0082206493046FFF78DFF2C709A
:104C100070BD000008000020F800002009000020FE
:104C2000080100200D22FFF723BF000010B5082265
:104C300011490120FFF71CFF0F4908220831052008
:104C4000FFF716FF0C49082210310120FFF710FF73
:104C50000949082218310520FFF70AFF06490822F2
:104C600020310120FFF704FF034908222831BDE865
:104C700010400520FFF7FCBEB000002010B5044630
:104C80008078012803D10D220649FFF7F1FEA078B4
:104C9000052806D103490D22BDE810400D31FFF76C
:104CA000E7BE10BD1001002010B5082242490120C6
:104CB000FFF7DEFE40490D22E0310120FFF7D8FE6C
:104CC0003D49082210310120FFF7D2FE3A4A062161
:104CD0001E3A02F13E0000F05AFE37481E3800F13D
:104CE0003E0102788A714078C87108220120FFF7DE
:104CF000BFFE3149082230310120FFF7B9FE2E49AD
:104D0000082250310120FFF7B3FE2B490822403121
:104D10000120FFF7ADFE2849082260310120FFF78E
:104D2000A7FE2549082270310120FFF7A1FE224984
:104D3000082208310520FFF79BFE1F490D22ED31A7
:104D40000520FFF795FE1C49082218310520FFF7C2
:104D50008FFE194A06211C3A02F1440000F017FEAA
:104D600015481C3800F1440102788A714078C871F6
:104D700008220520FFF77CFE0F4908223831052064
:104D8000FFF776FE0C49082258310520FFF770FE28
:104D90000949082248310520FFF76AFE0649082222
:104DA00068310520FFF764FE034908227831BDE829
:104DB00010400520FFF75CBE30000020074C4FF08C
:104DC000FF352946606900F053FFFFF723FE606955
:104DD00000F026FF0A2000F00DFFF2E7D8010020C6
:104DE000094C0A4E4FF0FF352946606900F040FF3C
:104DF00007493068FFF758FD606900F011FF0A208D
:104E000000F0F8FEF0E70000D8010020A00100202B
:104E1000DC2E0020094C0A4E4FF0FF352946606910
:104E200000F026FF07493068FFF7B4FD606900F025
:104E3000F7FE0A2000F0DEFEF0E70000D8010020B7
:104E4000AC0100204C2E0020094C0A4E4FF0FF35DB
:104E50002946606900F00CFF07493068FFF74AFDFA
:104E6000606900F0DDFE0A2000F0C4FEF0E70000FB
:104E7000D8010020A4010020242F0020094C0A4E54
:104E80004FF0FF352946606900F0F2FE07493068AF
:104E9000FFF758FD606900F0C3FE0A2000F0AAFE8B
:104EA000F0E70000D8010020A80100206C2F0020AE
:104EB00010B5502080F31188BFF34F8FBFF36F8F71
:104EC00002F050FE18B104494FF0805008600020F5
:104ED00080F3118810BD000004ED00E030B595B0FE
:104EE00028216846FBF7C3F914210AA8FBF7BFF98C
:104EF00018210FA8FBF7BBF901210804CDE9001028
:104F00000025029502240491CDE907400001099093
:104F10006846FEF775F908B172B6FEE70AA90F20D8
:104F200081E831004FF48060CDE90D0502210AA827
:104F3000FEF766F808B172B6FEE74FF40040119034
:104F40000F940FA8FDF7E6FF002801D072B6FEE728
:104F500015B030BD704700000148FEF748BB0000A7
:104F6000D4310020F0B502681C4B1D4D1D4E1E4F64
:104F70001E4C4FF0804C984209D0A04207D06045AB
:104F800005D0A84203D0B04201D0B84204D122F0EB
:104F9000700E4A6842EA0E02984209D0A04207D039
:104FA000604505D0A84203D0B04201D0B84203D139
:104FB00022F44075CA682A434D6922F080022A43D0
:104FC00002608A68C2620A688262984201D0A04286
:104FD00001D10969016301214161F0BD002C01404B
:104FE0000004004000080040000C00400034014074
:104FF00030B501780125314C01290ED0052920D189
:10500000214643782E4A0979062B02EB410233D020
:10501000102B31D0032B39D036E0284B4278294968
:105020009B78062A01EB430104D0102A02D0032A00
:105030000AD007E04978C078814203D1A5715B1C92
:10504000A37030BDA57130BD4978042908D0062968
:1050500002D0A3290BD107E00121FCF749FD06E0AE
:105060000121FCF751FE02E00121FCF77BFEA57156
:10507000A078401CA07030BD5278C078824203D125
:10508000E571491C217130BDE57130BD51780429AD
:1050900008D0062902D0A3290BD107E00521FCF78F
:1050A00027FD06E00521FCF72FFE02E00521FCF7B5
:1050B00059FEE5712079401C207130BD08000020A8
:1050C000C9130020D804002010B50448FEF79AFB4D
:1050D000BDE81040014800F03FBA00004C2E00200F
:1050E0000148FEF78FBB0000942E002010B5406AE7
:1050F0000021C185C184FEF783FB10BD70B5446AF1
:105100002068406994F84110C0F3C010002521299F
:1051100004D118B1E584204600F08EF8206840697B
:1051200094F84210C0F38010222904D118B1E5850B
:10513000204600F05AF8606C40F010006064204691
:10514000FEF75EFB70BD10B50146406A096809684C
:105150004FF0000289062ED4C28501680C3151E857
:10516000003F23F4807341E80034002CF5D101683E
:10517000143151E8003F23F0010341E80034002CD2
:10518000F5D10168143151E8003F23F0400341E8B4
:105190000034002CF5D1202180F84210016B012948
:1051A00009D101680C3151E8003F23F0100341E8B8
:1051B0000034002CF5D14263016B012902D0FEF7C7
:1051C0006FFE10BD818DFEF7F9FA10BD10B5406A73
:1051D00001214163016B012902D0FEF7B5FE10BD2C
:1051E000818D4908FEF7EAFA10BD01680C3151E8DB
:1051F000002F22F4907241E80023002BF5D10168C2
:10520000143151E8002F22F0010241E80023002B65
:10521000F5D1016B012909D101680C3151E8002F4A
:1052200022F0100241E80023002BF5D1202180F864
:10523000421000210163704701680C3151E8002FD2
:1052400022F0C00241E80023002BF5D1202180F894
:105250004110704708B590F84210222901D0022071
:1052600008BD82684FF480539A4201D1016921B18F
:10527000816A9A421BD04AB10AE00268816A526888
:10528000C2F308020A80816A891C08E0026972B1CF
:105290000268526802F07F020A70816A491C8162CA
:1052A000C18D491E0904090CC18503D01BE00268A9
:1052B0005268F1E70168CA6822F02002CA600168FA
:1052C000CA6822F48072CA6001684A6922F0010249
:1052D0004A61202180F8421000214163026B012ABB
:1052E00003D0FEF7DDFD002008BD016301680C312D
:1052F00051E8002F22F0100241E80023002BF5D1E5
:1053000001680A68D20602D50A6849680091818D51
:10531000FEF754FAE7E7000070B50446006801693B
:10532000E26821F44051114301612169A0680843FA
:10533000616908432168CA6841F20C639A430243D9
:10534000CA6020684169A26921F44071114341613A
:105350001E492068884202D1FDF718FF01E0FDF7E1
:1053600005FF00EBC00101EB0012606864218000C2
:10537000B2FBF0F3B3FBF1F36FF018067343B2FB2B
:10538000F0F5B2FBF0F605EB8305322303EB0515D0
:10539000B5FBF1F5B6FBF1F605F0F00505EB0615EA
:1053A000B2FBF0F6B2FBF0F0B0FBF1F06FF01802D8
:1053B000504306EB800003EB0010B0FBF1F02168D6
:1053C00000F00F002844886070BD000000380140E4
:1053D00038B581620446828500201346606422222B
:1053E00084F84220E56B1B4AAA62E56B1A4AEA621E
:1053F000E56B1A4A2A63E26B50630A462168E06B48
:10540000091DFDF7D9FA20680168406800902069FD
:1054100048B120680C3050E8001F41F4807140E82A
:105420000012002AF5D12068143050E8001F41F026
:10543000010140E80012002AF5D12068143050E83C
:10544000001F41F0400140E80012002AF5D1002081
:1054500038BD000047510008CD510008FD5000083C
:1054600081628285C28500214164222180F8421038
:10547000016921B10168CA6842F48072CA6001689A
:105480004A6942F001024A610068C16841F02001A6
:10549000C160002070472DE9F041984617460E463E
:1054A0000446069D27E0681C25D02DB1FDF70CFCB5
:1054B000A0EB0800A8421ED920680C3050E8001F5D
:1054C00021F4D07140E80012002AF5D12068143090
:1054D00050E8001F21F0010140E80012002AF5D138
:1054E000202084F8410084F84200002084F8400025
:1054F0000320BDE8F0812068006836EA000004D08F
:105500000020B842CFD00020F3E70120F9E70000E7
:1055100010B50448FEF776F9BDE81040014800F0E8
:105520001BB80000DC2E002010B50448FEF76AF915
:10553000BDE81040014800F00FB80000242F002003
:1055400010B50448FEF75EF9BDE81040014800F0D0
:1055500003B800006C2F002038B500683649884237
:1055600016D1364800680168C943C9062FD40168BE
:1055700040680090324800684068324CC0F5807046
:105580002178451A304821782A4601442F4818E0EE
:105590002F4988421CD12F4800680168C943C906B9
:1055A00015D40168406800902B48006840682B4C77
:1055B000C0F580702178451A294821782A4601448F
:1055C00028480068FCF7F5FC20782844207038BD96
:1055D0002549884216D1254800680168C943C90693
:1055E000F5D4016840680090214800684068214C6B
:1055F000C0F580702178451A1F4821782A46014459
:105600001E48DEE71E498842E1D11E480068016855
:10561000C943C906DBD40168406800901A48006895
:1056200040681A4CC0F580702178451A18482178D6
:105630002A4601441748C4E700380140DC2E002008
:105640003C300020B30100202F230020A0010020C7
:1056500000440040242F0020C4300020B40100206A
:105660002F240020A4010020004800406C2F0020BF
:105670004C310020B50100202F250020A80100207A
:10568000004C00404C2E0020B42F0020B60100201A
:105690002F260020AC010020FEE700000FB4054BD0
:1056A00010B503A9044A029800F096F810BC5DF802
:1056B00014FB0000C9590008680200200907090E00
:1056C000002804DB00F1E02080F80014704700F0AF
:1056D0000F0000F1E02080F8141D7047004870476B
:1056E0007402002030B528B1144C031F002021683B
:1056F0000A4605E0084630BD9A4203D81046526873
:10570000002AF9D1002800D041680BD00468A3EB2F
:105710000005A54204D11B681C440346046002E056
:10572000436000E023603AB11C68D51AA54203D15A
:1057300015682C441C6052685A6030BD6C02002011
:105740002DE9F04782460F4C10480D4E0E4F001BBE
:105750004FF0000820F007054FF001090022114624
:10576000504600F0ABF9002802D1306810B100209B
:10577000BDE8F0873C60C4E90058C6F80090EDE74A
:1057800070020020144700206C020020104F0020FF
:1057900001480068704700007402002002E008C859
:1057A000121F08C1002AFAD170477047002001E09B
:1057B00001C1121F002AFBD1704700000149086097
:1057C000704700007402002030380A2801D20120FE
:1057D00070470020704700002DE9FF4F89B09B46BD
:1057E0000446002506E025280BD05A460B99904721
:1057F000641C6D1C20780028F5D10DB02846BDE84A
:10580000F08F0027B8460122474900E0074314F80B
:10581000013F203B02FA03F00842F7D120782E28FE
:1058200019D114F8010F47F004072A280ED06FF0A1
:105830002F022078A0F1300109290CD808EB88014B
:1058400002EB410100EB0108641CF2E70A98641CBA
:1058500050F8048B0A9020780028CED0642808D015
:10586000692806D075281ED05A460B9990476D1CA2
:1058700058E00A994FF00A0901C90A91002802DA92
:1058800040422D2102E0390504D52B218DF820104E
:10589000012103E0F90704D02021F7E78A4608AE8A
:1058A0000DE00021FAE70A994FF00A0901C90A91AF
:1058B000F7E74946FBF7CBF8303106F8011D002821
:1058C000F7D1ADEB060000F12009780701D44FF0C5
:1058D0000108C84502DDA8EB090000E00020804671
:1058E000002706E008A85A46C05D0B9990476D1C3A
:1058F0007F1C5745F6DB04E030205A460B99904751
:105900006D1CB8F10001A8F10108F5DC05E016F8FE
:10591000010B5A460B9990476D1CB9F10001A9F192
:105920000109F4DC641C65E70928010030B583B087
:105930000446FFF72DFF05460020CDE90000024692
:1059400021466846FBF775F92846FFF737FFDDE982
:10595000000103B030BD10B500231A4604E030F852
:105960001240521C234492B28A42F8D398B210BD1E
:1059700070B500252C4603E0065D641C3544E4B296
:105980008C42F9D3E84300211170187070BDF0B556
:105990004FF6FF7300244AF201060EE0055D6B40EE
:1059A0000025DF0702D086EA530300E05B086D1C88
:1059B000EDB2082DF5D3641CA4B28C42EED3137063
:1059C000180A5070F0BD000013B54FF6FF730122A6
:1059D00069460248FEF712FB00981CBD4C2E0020C1
:1059E00030B541EA00210F205FF0010404FA00F312
:1059F0000B4201D0312300E03023C0F10F05401EDF
:105A00005355F3D50020107430BD0000064B10B57F
:105A1000002211461A61445C491CC9B244EA0222C0
:105A20000429F8D31A6110BD08000020EFF30580A7
:105A3000002801D001207047002070472DE9F04177
:105A40000646FAF72BFC044600254000FFF778FED7
:105A500002460020014630230DE0375C5754375C86
:105A60002C2F06D137187F782C2F02D1491C6D1CA2
:105A70005354401C491CA042EFDB002050542944E1
:105A8000104600F067FC002803D103A0FFF706FED4
:105A90000020BDE8F0810000E58685E5AD98E58849
:105AA00086E9858DE5A4B1E8B4A50A000870020A6C
:105AB0004A70020C8A70000EC87070472DE9F041E0
:105AC0000B3020F00706104D19E02068B04215D3C6
:105AD000B0420AD9871B201DD4F80480FAF7A0FB36
:105AE000A019C0E90078286004E060682860201DE3
:105AF000FAF796FB201D2660BDE8F081251D2C6875
:105B0000002CE2D10020F7E76C020020FDF7EAF854
:105B1000FFF7E4F9FEF786FBFEF7E8FAFEF756FC1E
:105B2000FEF770FCFEF78AFCFEF7A4FCFEF732FCE1
:105B3000FEF7B4FAFEF782FF20480068C16841F022
:105B40001001C1604FF4807422461D491B48FEF7C6
:105B500099F91C480068C16841F01001C1602246F3
:105B600019491848FEF78EF918480068C16841F0D5
:105B70001001C160224616491448FEF783F9154802
:105B80000068C16841F01001C16022461249114805
:105B9000FEF778F9A20011491148FDF7E8FD114818
:105BA000FCF744FA40F6B830FCF73EFFFFF77CF80C
:105BB000FEF7F2FA00F026F8FEE70000DC2E0020E7
:105BC0002F2300204C2E00202F260020242F0020E1
:105BD0002F2400206C2F00202F2500202F270020AD
:105BE000942E00201C2E00200021842800D0C11CEF
:105BF0000846704710B5002800D1012001F0A6FA30
:105C0000002010BD10B501F04BFB002010BD416815
:105C1000002902D0012001F025BC012001F016BCB2
:105C200038B50546002400200090FFF7FFFE90B134
:105C30006946284601F082FD012801D0FF2038BDC9
:105C4000009888B109494FF080500860BFF34F8F2A
:105C5000BFF36F8F08E000231A461946284601F06B
:105C6000B5FC012800D0FF24204638BD04ED00E03B
:105C700038B5054600200090002D11D00024B1F168
:105C8000FF3F0FD001B10C46FFF7D0FEC0B16A460E
:105C90000021284601F0A2FD012806D0FF2038BDD2
:105CA000802038BD4FF0FF34EEE7009880B10949FD
:105CB0004FF080500860BFF34F8FBFF36F8F07E046
:105CC0002146284601F0D8FD012801D0FF2038BD2B
:105CD000002038BD04ED00E030B585B004460D4627
:105CE0006169B4F90800002910D0A16971B1FFF70A
:105CF0007BFF6269A1690192029100902B462269A3
:105D00002168606801F0F0FE049010E0FFF76CFF7E
:105D100004A901910090208A2B4682B22168606814
:105D200001F0ACFE012802D005B0002030BD04987F
:105D300005B030BD2DE9F04104460F46194E756996
:105D40003068001D01F00EF948B93068012190F863
:105D50002C0001FA00F0B16921EA0000B061B4F151
:105D6000FF3F07D137B13068BDE8F041011D0E4853
:105D700001F03FB92C4430684460AC4206D2306830
:105D8000011DB068BDE8F04101F018B93068011D8F
:105D9000706801F013F9306B844200D23463BDE8BF
:105DA000F081000004020020F832002070B50446A3
:105DB00001F02CF91C4D2869401C2861286810B19D
:105DC000E86938B10CE02C602869012808D100F09E
:105DD00057F905E02868E16AC06A884200D82C605B
:105DE000E86A401CE862E06A0121AA698140114327
:105DF000A9610E4900EB800001EB8000211D01F03C
:105E0000F8F801F023F9E86900280CD02868E16A65
:105E1000C06A884207D206494FF080500860BFF33D
:105E20004F8FBFF36F8F70BD040200201C32002023
:105E300004ED00E070B50D4CE068002815D00C4E64
:105E400001F0E4F8F068C568281D01F08BF82069BE
:105E5000401E2061E068401EE06001F0F7F828462F
:105E600000F051F8E0680028EAD170BD040200207B
:105E7000E43200200B46026C002A0CD0C1681144A9
:105E8000C160D0F804C0614501D30168C160C16838
:105E90001846FAF7C5B970472DE9F0410446164691
:105EA0000027A56B226C002A10D0C6B1E068FAF773
:105EB000B7F9E168206C091AE1602268914202D2C8
:105EC0006168081AE060022E16D017E02068A8B9B1
:105ED000606801F0AFFE0746002060600EE0A06839
:105EE000FAF79EF9216CA0680844A06061688842B6
:105EF00004D32068A06001E005B16D1E681CA0639A
:105F00003846BDE8F08110B5044694F8C110002968
:105F10000BD0012911D0022914D0502080F3118810
:105F2000BFF34F8FBFF36F8FFEE7206B01F0A4F834
:105F30002046BDE8104001F09FB82046BDE8104063
:105F400001F09AB810BD416A002904D0006B0068C6
:105F5000C0F1070070470020704700004FF4A051C7
:105F6000104810F0070F06D0C01D20F007000D49A3
:105F7000411AC1F5A0510C4A10600023536001443E
:105F8000083921F00701103A11604B600B600B1AC1
:105F9000436001604068906050604FF00040D06006
:105FA000704700000C33002050020020074E4FF0D5
:105FB0008054074DFFF73EFF30680128FAD92C6066
:105FC000BFF34F8FBFF36F8FF4E700001C32002048
:105FD00004ED00E0002808D0002141600160C160AC
:105FE00000231A46194601F0F1BA7047034600989B
:105FF000002905D00260C3630164012101F09EBA4B
:106000000060F8E72DE9F0478146099E089D0A9C4B
:106010009A46521E206B00EB820020F007080027F2
:10602000002023180A5C83F834200A5C12B1401C5B
:106030008028F6D384F8B370072D00D30625E562D7
:10604000C4F8B450C4F8B870201D00F0B4FF04F1D7
:10605000180000F0B0FF2461C5F10700A061646280
:10606000C4F8BC7084F8C07052464946404600F0FF
:106070005FF92060002E00D03460BDE8F08700009A
:1060800070B500240F4D04EB840005EB800000F098
:1060900087FF641C072CF6D30B4800F081FF0B48E8
:1060A00000F07EFF0A4800F07BFF0A4800F078FF0E
:1060B000094800F075FF09480349416014318160C7
:1060C00070BD00001C320020A8320020BC3200202D
:1060D000D0320020E4320020F832002004020020F8
:1060E00010B4144900E011460A688242FBD34B68A1
:1060F00003EB010C844503D140681844486008460E
:106100000C68D0F804C00CEB0003A3420CD10A4B7E
:106110001B689A4206D05268624442600A6812685C
:10612000026002E0036000E00260814200D008608B
:1061300010BC7047500200204002002010B50446F9
:1061400000F064FFA06B20B1002400F07FFF204628
:1061500010BD0124F9E710B5044600F057FFA06B0D
:10616000E16B884201D1012400E0002400F06EFFC1
:10617000204610BD074948680068002805D04868D7
:10618000C068C0684068086370474FF0FF3008631C
:1061900070470000040200200A484068B0F1FF3F49
:1061A00007D0502080F31188BFF34F8FBFF36F8F5C
:1061B000FEE7502080F31188BFF34F8FBFF36F8F3E
:1061C000FEE700005802002070B5044600F01EFFF4
:1061D00094F94550002D0CDD606A50B104F12400A3
:1061E00001F0C8FD08B100F0E1FF681E45B2002DC6
:1061F000F2DC4FF0FF3684F8456000F027FF00F036
:1062000005FF94F94450002D0CDD206950B104F1D4
:10621000100001F0AFFD08B100F0C8FF681E45B2E4
:10622000002DF2DC84F84460BDE8704000F00EBF41
:106230002DE9F0410546002601F076F8334F386825
:1062400008B9FFF78BFEF86805424ED19DB10835BD
:1062500015F0070F0FD005F00700C0F10800054446
:1062600015F0070F07D0502080F31188BFF34F8F30
:10627000BFF36F8FFEE7002D37D07868854234D8A2
:1062800023490846046801E0214604466068A842A4
:1062900002D220680028F7D13868844225D00868E7
:1062A00000F10806206808606068411B10290FD9BA
:1062B000601910F0070F07D0502080F31188BFF34A
:1062C0004F8FBFF36F8FFEE741606560FFF708FFF8
:1062D00061687868401A7860BA68904200D2B86005
:1062E000F868084360600020206001F07FFD16F030
:1062F000070F07D0502080F31188BFF34F8FBFF3F3
:106300006F8FFEE73046BDE8F081000040020020BC
:106310005002002005490868002804D0086850F899
:10632000B82F521C02600868704700000402002069
:10633000001F4FF080730360001F21F00101016016
:10634000001F0349016014380260203870470000C4
:10635000996100082DE9F04704008A4616D054F8E8
:10636000047CD4F800903E1F564500D9564620467E
:10637000FFF7B8F905468846324621465046FFF7F2
:106380009DFB40B1C0F80090BDE8F087BDE8F04744
:106390000846FFF7D5B944E9017955B129686A186B
:1063A000211F8A4202D9611B091F2960C5F8048098
:1063B000EAE7024AC2F80080E6E700006C0200202B
:1063C0002DE9F04FE7B00F468346012904DA4FF07C
:1063D000FF3067B0BDE8F08F00264FF4807A354675
:1063E000B046344651466846F9F741FFE94698E021
:1063F0001BF80500242811D0002EF8D0A11C51450F
:1064000000DD00262A2810D009F80400641C781E3C
:106410006D1C854268D14FF0000885E0002EF6D152
:1064200001268DF800003446F1E7002109F8041038
:1064300009F1030603223DA1701CF9F73FFF20B3C9
:1064400003223BA13046F9F739FF30B3032239A1CB
:10645000701CF9F733FF48B3032237A1701CF9F71A
:106460002DFF60B3032235A1701CF9F727FF78B325
:10647000032233A1701CF9F721FF50B3032231A18D
:10648000B01EF9F71BFF70B343E0694640A800F067
:10649000B5FA502240A92C482EE0694640A800F0E9
:1064A00059F82948902240A9E83825E0694640A8D3
:1064B00000F0A0F92448582240A958381CE0694649
:1064C00040A800F01BFB20484C2240A9503013E0AC
:1064D00000E00AE0694640A800F092FB1A489822C2
:1064E00040A9A03008E00AE01BE0694640A800F09F
:1064F000D7FC402240A91548F9F792FE09E0694609
:1065000040A800F041FB124840990160BDF8041119
:10651000818051466846AD1CF9F7A9FE002401268A
:1065200075E7BD42FFF664AF404652E7475341006E
:1065300047474100474C4C0047535600524D4300DB
:106540005654470048585A00600300209804002021
:10655000000000202DE9F34FA9B00C4690216846B9
:10656000F9F785FE00252046FFF768FA9EA12490E2
:10657000F9F7B4FE64270446DFF87082DFF8709202
:10658000002623E10F2D7DD2DFE805F07C08468050
:1065900089BFCACFD4DBE2E5ECF3F8000222214642
:1065A00025A8F9F76FFE8DF896600222A11C26A897
:1065B000F9F768FE8DF89A600222211D27A8F9F7E5
:1065C00061FE8DF89E600222E11D28A8F9F75AFEAF
:1065D0008DF8A26025A8F9F79DFF039026A8F9F78A
:1065E00099FF049027A8F9F795FF059028A8F9F7D7
:1065F00091FF00EB80004000069003982146083090
:1066000003906846F9F751FE77A10020F9F766FE7E
:1066100004004FF002057DD0214607A8F9F745FE9A
:106620002046FFF783F982468B46FAF7A9F990FBDB
:10663000F7F464206043FAF771F952465B46FAF7C3
:1066400072F882468B46FAF79BF92590FAF766F9BD
:1066500052465B46FAF767F800224346FAF766F8B7
:10666000844625980B900A9400224B466046F9F721
:10667000B6FFFAF785F90C905BA10020F9F72EFE22
:10668000040000E09CE005F10105C4D020784E280C
:1066900003D000208DF8340092E00120FAE7214673
:1066A0000DF13500F9F701FE2046FFF73FF90546E9
:1066B0008A46FAF765F990FBF7F464206043FAF72D
:1066C0002DF92A465346FAF72EF805468A46FAF778
:1066D00057F98346FAF722F92A465346FAF723F880
:1066E00000224346FAF722F8CDE9114B00224B462F
:1066F000F9F775FFFAF744F913903BA10020F9F779
:10670000EDFD04004FF0050563D02078452805D045
:10671000002000E05DE08DF8500051E00120F8E736
:106720002046F9F7F7FE15904AE02046F9F7F2FE09
:10673000169045E00021204600F006FCCDE9180146
:106740003EE00021204600F0FFFBCDE91A0137E0D2
:1067500021461CA808E00021204600F0F5FBCDE909
:106760001E012DE0214620A8F9F79FFD28E005E055
:10677000FFE72046F9F7CEFE229021E00420FEF745
:10678000DFFF05462046F9F789FDC21E214628464F
:10679000F9F778FD2046F9F781FD28440A2200F830
:1067A000036C00212846F9F77DFEADF88C002846E1
:1067B000FEF798FF0CA10020F9F790FD0F2540B1DE
:1067C00009A10020F9F78AFD04466D1C002C7FF416
:1067D000D9AE2498FEF786FF902269462998F9F7EA
:1067E0001FFD2BB0BDE8F08F2C00000000004E40D4
:1067F0000000E03F2DE9F04F9BB00C468346582146
:106800006846F9F734FD00252046FFF717F978A10F
:106810001690F9F763FD04466426764FDFF8D881B9
:10682000D6E0072D42D2DFE805F0CD043A447B8460
:10683000C60021466846F9F738FD2046FFF776F88E
:1068400004468946FAF79CF890FBF6F5642105FBAF
:1068500001F0FAF763F84B462246F9F764FF0C465D
:106860008146FAF78DF88246FAF758F84A462346E9
:10687000F9F759FF00223B46F9F758FFCDE9035AD3
:1068800000224346F9F7ABFEFAF77AF8059058A1D3
:106890000020F9F723FD04004FF002057ED0207898
:1068A0004E2804D05FF000008DF818008AE0012027
:1068B000FAE721460DF11900F9F7F7FC2046FFF73A
:1068C00035F804468946FAF75BF890FBF6F5642143
:1068D00005FB01F0FAF722F84B462246F9F723FFB1
:1068E00004468946FAF74CF88246FAF717F84B4601
:1068F0002246F9F718FF00223B46F9F717FFCDE9CA
:106900000A5A00224346F9F76AFEFAF739F80C9062
:1069100037A10020F9F7E2FC04004FF004055AD03B
:106920002078452803D000208DF834004AE001206B
:10693000FAE70222214617A8F9F7A4FC00258DF8F2
:106940005E500222A11C18A8F9F79CFC8DF8625039
:106950000222211D19A8F9F795FC8DF86650022234
:10696000E11D1AA8F9F78EFC8DF86A5017A8F9F7FF
:10697000D1FD119018A8F9F7CDFD129019A8F9F7DB
:10698000C9FD13901AA8F9F7C5FD00EB800040007F
:106990001490119821460830119000E01BE00DF191
:1069A0003500F9F782FC12A10020F9F797FC0400EA
:1069B0004FF006050FD02078412817D05FF0000077
:1069C0008DF854000AA10020F9F788FC04466D1CDC
:1069D000002C7FF426AF1698FEF784FE58226946F5
:1069E0005846F9F71DFC1BB0BDE8F08F0120E7E722
:1069F0002C00000000004E400000E03F70B594B055
:106A00000D46064650216846F9F731FC0024284619
:106A1000FFF714F8054638A1F9F760FC5FE0122C87
:106A200058D2DFE804F0570912161A1E22262A2E21
:106A300032363A3E42464C5200784D2803D0002070
:106A40008DF8000046E00120FAE7F9F763FD0190B8
:106A500040E0F9F75FFD02903CE0F9F75BFD039041
:106A600038E0F9F757FD049034E0F9F753FD05904D
:106A700030E0F9F74FFD06902CE0F9F74BFD079059
:106A800028E0F9F747FD089024E0F9F743FD099065
:106A900020E0F9F73FFD0A901CE0F9F73BFD0B9071
:106AA00018E0F9F737FD0C9014E0F9F733FD0D907D
:106AB00010E0002100F048FACDE90E010AE00021C3
:106AC00000F042FACDE9100104E0002100F03CFAA8
:106AD000CDE9120108A10020F9F700FC641C002890
:106AE0009DD12846FEF7FEFD502269463046F9F753
:106AF00097FB14B070BD00002C00000070B594B07E
:106B00000D4606464C216846F9F7B1FB002428469D
:106B1000FEF794FF05461BA125E0082C20D2DFE8F4
:106B200004F01F04080C1014181CF9F7F3FC009073
:106B300016E0F9F7EFFC019012E0F9F7EBFC029098
:106B40000EE0F9F7E7FC03900AE0F9F7E3FC0490A4
:106B500006E0F9F7DFFC059002E0F9F7DBFC0690B0
:106B600008A10020641CF9F7B9FB0028D5D12846FC
:106B7000FEF7B8FD4C2269463046F9F751FB14B0D8
:106B800070BD00002C00000070B586B000250646E0
:106B90000C460395481C0495F9F780FB0246611CDE
:106BA0002046F9F73DFB2046F9F778FB204401AA7F
:106BB00000F8035C02A8831E009001950BA10295CA
:106BC0002046F9F7ADFBBDF80400ADF80C00BDF8A8
:106BD0000600ADF80E00BDF80800ADF810000398EF
:106BE0003060BDF81000B08006B070BD253034684C
:106BF000782C25303468782C2530346878000000F3
:106C00002DE9F34FABB00C4698216846F9F72FFBFE
:106C100000262046FEF712FF9EA12690F9F75EFBA4
:106C200064270446DFF87082DFF87092002522E1C5
:106C30000C2E48D2DFE806F0470642487F89C2CBD7
:106C4000D2D9FDFC0222214627A8F9F71BFB8DF8BB
:106C50009E500222A11C28A8F9F714FB8DF8A2501F
:106C60000222211D29A8F9F70DFB8DF8A650032259
:106C700004F108012AA8F9F705FB8DF8AA5027A806
:106C8000F9F748FC059028A8F9F744FC069029A8D4
:106C9000F9F740FC07902AA8F9F73CFC0890059802
:106CA0002146083005906846F9F7FFFA79A10020DF
:106CB000F9F714FB04004FF002067DD0207800B1F4
:106CC00001208DF82400D0E021460DF12500F9F7D0
:106CD000ECFA2046FEF72AFE04468A46F9F750FEF3
:106CE00090FBF7F6642106FB01F0F9F717FE534617
:106CF0002246F9F718FD04468A46F9F741FE834615
:106D0000F9F70CFE53462246F9F70DFD00224346E3
:106D1000F9F70CFDCDE90D6B00224B46F9F75FFC4E
:106D2000F9F72EFE0F905BA10020F9F7D7FA0400C7
:106D30004FF00406C1D020784E2804D05FF0000048
:106D40008DF8400091E00120FAE721460DF1410065
:106D5000F9F7ABFA2046FEF7E9FD0C468246F9F753
:106D60000FFE90FBF7F6642106FB01F0F9F7D6FD64
:106D700052462346F9F7D7FC04468A46F9F700FE47
:106D80008346F9F7CBFD53462246F9F7CCFC0022A7
:106D90004346F9F7CBFCCDE9146B00224B46F9F7DB
:106DA0001EFCF9F7EDFD16903AA10020F9F796FACE
:106DB00004004FF0060600E060E05FD02078452830
:106DC00003D000208DF85C004FE00120FAE700219D
:106DD000204600F0B9F8CDE9180146E00021204630
:106DE00000F0B2F8CDE91A013FE00222214627A8BF
:106DF000F9F748FA8DF89E500222A11C28A8F9F74D
:106E000041FA8DF8A2500222211D29A8F9F73AFA79
:106E10008DF8A65029A8F9F77DFB064628A8F9F7B2
:106E200079FB824627A8F9F775FB06F5FA6601E0BB
:106E300018E010E0CDE91E0A214620961CA8F9F7BB
:106E400034FA8DF8765013A10020F9F747FA0400C0
:106E50004FF00A0612D00021204600F075F8CDE967
:106E6000220102E020788DF890000AA10020F9F7B5
:106E700035FA0446761C002C7FF4DAAE2698FEF72D
:106E800031FC982269462B98F9F7CAF92DB0BDE874
:106E9000F08F00002C00000000004E400000E03F9A
:106EA00070B590B00D46064640216846F9F7DFF907
:106EB00000242846FEF7C2FD054622A1F9F70EFA86
:106EC00034E0092C2DD2DFE804F02C050B0F151946
:106ED0001F232900002100F037F8CDE9000120E050
:106EE00000788DF808001CE0002100F02DF8CDE9B5
:106EF000040116E000788DF8180012E0002100F07F
:106F000023F8CDE908010CE000788DF8280008E0AE
:106F1000002100F019F8CDE90C0102E000788DF8AD
:106F2000380008A10020F9F7D9F9641C0028C8D15D
:106F30002846FEF7D7FB402269463046F9F770F93C
:106F400010B070BD2C00000000B583B00A460021CF
:106F5000CDE9001101466846F9F76BFEDDE9000155
:106F600003B000BD0169436882689A608368426823
:106F70005A604A68824201D182684A6000220261F6
:106F80000868401E0860086870470000034B0360F3
:106F900003F1C4000860802010607047582B002067
:106FA00000F1080141604FF0FF328260C160016171
:106FB00000210160704700210161704710B4D1F8D1
:106FC00000C0BCF1FF3F02D000F1080202E00269FC
:106FD00004E01A4653681C686445FAD953684B604C
:106FE00099608A60516008610168491C016010BCA9
:106FF000704742684A6093688B60936859609160FB
:1070000008610168491C016070470000502080F34E
:107010001188BFF34F8FBFF36F8F0A494868401C38
:10702000486001280CD10848006810F0FF0F07D015
:10703000502080F31188BFF34F8FBFF36F8FFEE7AF
:10704000704700005802002004ED00E0094948683C
:10705000002806D0401E4860002801D180F3118826
:107060007047502080F31188BFF34F8FBFF36F8FAD
:10707000FEE700005802002070B5002827D0A0F1DC
:107080000804134D6068E968084207D1502080F376
:107090001188BFF34F8FBFF36F8FFEE722683AB1BD
:1070A000502080F31188BFF34F8FBFF36F8FFEE73F
:1070B0008843606000F038F9606869680844686077
:1070C0002046FFF70DF8BDE8704000F08FBE70BDA0
:1070D000400200204FF0E02000210161816105495C
:1070E0004FF47A720968B1FBF2F1491E4161072140
:1070F000016170470002002010B5F9F76BF81149E3
:1071000010280ED300F1E02090F8F0030A789042A6
:1071100007D2502080F31188BFF34F8FBFF36F8FDA
:10712000FEE709480068896800F4E060884207D9F2
:10713000502080F31188BFF34F8FBFF36F8FFEE7AE
:1071400010BD0000580200200CED00E010B5024612
:107150000020002A12D00F48806B38B1502080F3F5
:107160001188BFF34F8FBFF36F8FFEE700F0DCF89D
:1071700000211046FEF7DEFD00F038FE002807D1A2
:1071800005494FF080500860BFF34F8FBFF36F8FFA
:1071900010BD00000402002004ED00E002498A6AEC
:1071A00002604969416070470402002001490120E2
:1071B000486270470402002010B50C4600280BD02E
:1071C000094A126802F11801FFF7F8FE2046BDE8EF
:1071D00010400121FEF7AEBD502080F31188BFF3AF
:1071E0004F8FBFF36F8FFEE70402002070B5044697
:1071F00000284FD0D4F8B820AAB1D4F8B4008842FF
:1072000000D30146E06A884244D0012A42D1224D8F
:107210002A6894420FD1502080F31188BFF34F8F1A
:10722000BFF36F8FFEE7502080F31188BFF34F8FBD
:10723000BFF36F8FFEE7E162A26912F0004F02D147
:10724000C1F10701A161154E00EB8000616906EBF9
:10725000800081421ED1201DFFF784FE012158B914
:10726000E06A00EB800256F822202AB9AA6901FAE6
:1072700000F022EA0000A861E06AAA698140114397
:10728000A96100EB800006EB8000211DBDE8704085
:10729000FFF7AFBE70BD0000040200201C320020CA
:1072A00010B586B000240594049403AA04A905A887
:1072B000FFF76CFE05980499019102900023009459
:1072C00015A11748039A00F00FFC1649486308B14E
:1072D000012000E0002001280AD0B0F1FF3F19D1C1
:1072E000502080F31188BFF34F8FBFF36F8FFEE7FD
:1072F000502080F31188BFF34F8FBFF36F8F4FF093
:10730000FF3008630120C8614C6106B0BDE8104041
:1073100000F042B806B010BD49444C4500000000E2
:10732000AD5F0008040200200248816B491C8163A4
:107330007047000004020020154A906B002802D01C
:10734000012050627047002050629069B0FA80F0CE
:10735000C0F11F000F4900EB800051F8203073B1DD
:1073600001EB800041684968416000F108039942DF
:1073700001D1496841604068C06810607047502082
:1073800080F31188BFF34F8FBFF36F8FFEE70000CC
:10739000040200201C32002000B583B02849087880
:1073A0000290FF200870087801909DF804009DF875
:1073B000042000F0F000904207D0502080F31188A4
:1073C000BFF34F8FBFF36F8FFEE79DF804001D4B97
:1073D00000F050001870072098609DF8040010F02D
:1073E000800F0BD09868401E98609DF80400400004
:1073F00001909DF8040010F0800FF3D198680328E5
:1074000007D0502080F31188BFF34F8FBFF36F8FE9
:10741000FEE74FF440709860029808700A480168CF
:1074200041F470010160016841F070410160FFF7B3
:1074300051FE00205860F8F797FE03B0002000BD11
:1074400000E400E05802002020ED00E010B5024604
:107450000021012000F014F804462046FEF7BAFD92
:10746000204610BD38B50B46002200901146012081
:1074700000F02BF804462046FEF7ACFD204638BD50
:10748000F8B505460E461746002D14D0DEB105FBB3
:1074900006F04830FEF7CCFE044654B104F1480231
:1074A000002084F846003B46314628460094FEF70B
:1074B0009DFD2046F8BD502080F31188BFF34F8F0B
:1074C000BFF36F8FFEE70020E3E738B5049D002887
:1074D00004D05BB102B189B1C2B120E0502080F389
:1074E0001188BFF34F8FBFF36F8FFEE7502080F3FB
:1074F0001188BFF34F8FBFF36F8FFEE7502080F3EB
:107500001188BFF34F8FBFF36F8FFEE739B1502063
:1075100080F31188BFF34F8FBFF36F8FFEE74FF0FB
:10752000480CCDF800C01C46012384F846302B4699
:107530000094FEF75BFD204638BD000070B50446A0
:107540000D46002C25D0FFF761FD226CE16B206811
:1075500001FB020060600020A0632068A060E16B76
:10756000226C2068491E01FB0200E0604FF0FF30F2
:1075700084F8440084F845009DB104F11000FFF741
:107580000FFD04F12400FFF70BFDFFF75FFD012065
:1075900070BD502080F31188BFF34F8FBFF36F8F02
:1075A000FEE720690028F0D004F1100000F0E2FBB3
:1075B0000028EAD004494FF080500860BFF34F8F95
:1075C000BFF36F8FE1E7000004ED00E02DE9FF4716
:1075D00082B004468A461F460025002C03D0BAF12B
:1075E000000F08D011E0502080F31188BFF34F8FB7
:1075F000BFF36F8FFEE7206C38B1502080F3118805
:10760000BFF34F8FBFF36F8FFEE7022F0AD1E06BFE
:10761000012807D0502080F31188BFF34F8FBFF3AC
:107620006F8FFEE700F090FA48B9049838B1502007
:1076300080F31188BFF34F8FBFF36F8FFEE70026F3
:107640004FF08058DFF8F090FFF7E0FCA06BE16BA3
:10765000884205D3022F03D0049808B335B329E03C
:107660003A4651462046FEF717FC616A59B104F1CB
:10767000240000F07FFB68B1C9F80080BFF34F8F92
:10768000BFF36F8F06E028B1C9F80080BFF34F8FBA
:10769000BFF36F8FFFF7DAFC06B00120BDE8F0877B
:1076A000FFF7D4FC06B00020BDE8F0876846FFF77E
:1076B00075FD0125FFF7CAFCFFF736FEFFF7A6FCB4
:1076C00094F94400B0F1FF3F01D184F8446094F98B
:1076D0004500B0F1FF3F01D184F84560FFF7B6FCEB
:1076E00004A9684600F08AF940B12046FEF76CFD17
:1076F00000F07CFB06B00020BDE8F0872046FEF7D6
:107700002AFD90B104F110000499FFF755FD2046C1
:10771000FEF75AFD00F06AFB002895D1C9F80080F9
:10772000BFF34F8FBFF36F8F8EE72046FEF74CFD00
:1077300000F05CFB88E7000004ED00E070B5044653
:107740000D46002C09D0206C78B1502080F31188B0
:10775000BFF34F8FBFF36F8FFEE7502080F3118888
:10776000BFF34F8FBFF36F8FFEE7206848B96068A3
:1077700038B1502080F31188BFF34F8FBFF36F8F64
:10778000FEE7FFF7B9FC5020EFF3118680F3118874
:10779000BFF34F8FBFF36F8FA06BE16B814219D99D
:1077A00094F94520401CA063B2F1FF3F04D0501C67
:1077B00084F8450001200EE0606A0028FAD004F148
:1077C000240000F0D7FA0028F4D0002DF2D00120D8
:1077D0002860EFE7002086F3118870BD2DE9F0479F
:1077E000044689461746002C03D0B9F1000F08D093
:1077F00011E0502080F31188BFF34F8FBFF36F8FDC
:10780000FEE7206C38B1502080F31188BFF34F8F12
:10781000BFF36F8FFEE7FFF76FFC5020EFF3118887
:1078200080F31188BFF34F8FBFF36F8FA56BEDB15E
:1078300094F9446049462046FEF71CFB681EA0638D
:10784000B6F1FF3F04D0701C84F8440001200EE024
:1078500020690028FAD004F1100000F08BFA00280B
:10786000F4D0002FF2D001203860EFE7002088F339
:107870001188BDE8F08700002DE9F34383B004468A
:1078800000250026002C09D0206C78B1502080F310
:107890001188BFF34F8FBFF36F8FFEE7502080F347
:1078A0001188BFF34F8FBFF36F8FFEE700F04CF9E5
:1078B00048B9049838B1502080F31188BFF34F8F36
:1078C000BFF36F8FFEE700274FF08058DFF8289155
:1078D000FFF79CFBA06BC8B1401EA063206810B9E5
:1078E000FEF718FD6060206950B104F1100000F04F
:1078F00041FA28B1C9F80080BFF34F8FBFF36F8FF3
:10790000FFF7A4FB05B00120BDE8F083049808B19F
:107910007DB112E03EB1502080F31188BFF34F8F4C
:10792000BFF36F8FFEE7FFF791FB05B00020BDE8C6
:10793000F0836846FFF732FC0125FFF787FBFFF76E
:10794000F3FCFFF763FB94F94400B0F1FF3F01D172
:1079500084F8447094F94500B0F1FF3F01D184F8F8
:107960004570FFF773FB04A9684600F047F8D0B1F3
:107970002046FEF729FC00F039FA2046FEF7DEFB30
:107980000028A5D05EB1FFF741FB2046FEF7DBFAE9
:10799000626801461046FFF729FCFFF757FB05B068
:1079A0000020BDE8F0832046FEF7C8FBE8B1206860
:1079B00038B9FFF72BFB606800F08EF90646FFF739
:1079C00045FB04F124000499FFF7F6FB2046FEF77F
:1079D000FBFB00F00BFA00287FF47AAFC9F80080B7
:1079E000BFF34F8FBFF36F8F72E72046FEF7ECFBBC
:1079F00000F0FCF96CE7000004ED00E070B505460E
:107A00000C46002D15D0E4B1FFF700FBDFF868C08D
:107A1000DCF814006B68C11A2268B2F1FF3F18D07D
:107A20002E68DCF828C0664515D0834213D801249F
:107A30001DE0502080F31188BFF34F8FBFF36F8F8D
:107A4000FEE7502080F31188BFF34F8FBFF36F8F95
:107A5000FEE700240BE08A4206D9501A206028462F
:107A6000FFF79CFB002402E0002020600124FFF7C8
:107A7000EDFA204670BD0000040200202DE9F04F11
:107A800085B081460F9F0E9E8A4690469B464FEAE0
:107A90008800FEF7CDFB054628000AD0C420FEF77B
:107AA000C7FB04460CB1256304E02846FFF7E4FA5F
:107AB00000E000249CB1002084F8C10003905B46E4
:107AC000424651460197009602944846FEF79AFABC
:107AD0002046FEF76BF905B00120BDE8F08F05B038
:107AE0004FF0FF30BDE8F08F70B586B00646DDF888
:107AF00028C00C9C0B98002816D0ECB1C425049526
:107B00002063022084F8C100002005AD0390CDF869
:107B100000C0019502943046FEF774FA2046FEF745
:107B200045F9059806B070BD502080F31188BFF369
:107B30004F8FBFF36F8FFEE7502080F31188BFF3A4
:107B40004F8FBFF36F8FFEE70548C169002903D04F
:107B5000806B18B1002070470120704702207047E9
:107B6000040200202DE9F0470026304FB86B0028B2
:107B700008D0386A401C3862786A00B10126304665
:107B8000BDE8F0877869451C7D619DB9786800681B
:107B900038B1502080F31188BFF34F8FBFF36F8F40
:107BA000FEE77868B9687960B860B86A401CB86266
:107BB000FEF7E0FA386BDFF8788085420FD34FF09C
:107BC00001097868006838B17868C068C46860687E
:107BD00085420ED2386302E04FF0FF3038633868D8
:107BE000C06A00EB800058F820000128C4D90126A3
:107BF000C2E7201DFFF7B6F9A06A18B104F118001A
:107C0000FFF7B0F9E16ABA6909FA01F01043B86107
:107C100001EB810008EB8000211DFFF7EAF9E06A23
:107C20003968C96A8842CCD30126CAE70402002019
:107C30001C32002070B504460021002845D0244D98
:107C40002868844207D0502080F31188BFF34F8FFB
:107C5000BFF36F8FFEE7D4F8B80048B1401EC4F8F8
:107C6000B800D4F8B430E26A9A422ED040B12CE089
:107C7000502080F31188BFF34F8FBFF36F8FFEE763
:107C8000201DFFF76FF91349012258B9E06A00EB94
:107C9000800351F823302BB9AB6902FA00F023EAD4
:107CA0000000A861D4F8B400E062C0F10700A06150
:107CB000E06AAB6982401A43AA6100EB800001EBE5
:107CC0008000211DFFF795F90121084670BD0000D5
:107CD000040200201C32002070B504460020002C55
:107CE0003BD0224DE26A2968C96A8A4236D2A0692D
:107CF00010F0004F04D12868C06AC0F10700A061ED
:107D0000E06A1B4E00EB8000616906EB8000814257
:107D10001FD1201DFFF726F9012158B9E06A00EBB9
:107D2000800256F822202AB9AA6901FA00F022EA54
:107D30000000A8612868C06AE062AA698140114316
:107D4000A96100EB800006EB8000211DFFF751F9CF
:107D500002E02868C06AE062012070BDD4F8B41067
:107D60002A68D26A9142F8D2012070BD0402002034
:107D70001C32002070B5C068C468002C14D004F117
:107D80001800FFF7EFF8164DA86B0126A0B104F11B
:107D900018011448FFF72DF9E06A2968C96A88427A
:107DA0001CD901206E6270BD502080F31188BFF392
:107DB0004F8FBFF36F8FFEE7201DFFF7D3F8E06A08
:107DC000AA6906FA00F11143A961074900EB800096
:107DD00001EB8000211DFFF70CF9DDE7002070BDED
:107DE00004020020D03200201C3200202DE9F04790
:107DF0000024A0462D4DA86B002807D0FFF706F9F8
:107E0000A86B401EA863A86B40B149E0502080F3E6
:107E10001188BFF34F8FBFF36F8FFEE728690028EB
:107E20003ED0234F3868012600B3A7F1B409F868A3
:107E3000C46804F11800FFF795F8201DFFF792F8C9
:107E4000E06AAA6906FA00F11143A96100EB80001B
:107E500009EB8000211DFFF7CCF8E06A2968C96AA8
:107E6000884200D36E6238680028E0D10CB1FEF77A
:107E700081F92C6A44B1FFF775FE00B16E62641E91
:107E8000002CF8D100202862686A48B14FF0010840
:107E900008494FF080500860BFF34F8FBFF36F8FDA
:107EA000FFF7D4F84046BDE8F08700000402002048
:107EB000D032002004ED00E00100000000000000CE
:107EC00000000000050000000000000000000000AD
:107ED00050800008BD4D0008FDFF000000000000BC
:107EE000800000000000000000000000208000086A
:107EF000E14D0008020000000000000080000000CA
:107F000000000000000000002C800008154E000852
:107F1000FDFF0000000000008000000000000000E5
:107F20000000000038800008494E000802000000F0
:107F300000000000800000000000000000000000C1
:107F4000448000087D4E0008020000000000000090
:107F50008000000000000000000000000102020399
:107F60000405060708090A0B0C0D0E0F101001027C
:107F700002030405060708090A0B0C0D0E0F10106A
:107F800000000000000000000102030406070809C9
:107F90000000000001020304004040404040404017
:107FA00040404141414141404040404040404040CC
:107FB0004040404040404040400502020202020270
:107FC00002020202020202020220202020202020BF
:107FD00020202002020202020202909090909090D3
:107FE0001010101010101010101010101010101091
:107FF0001010101002020202020288888888888805
:1080000008080808080808080808080808080808F0
:10801000080808080202020240000000997F0008D8
:108020006D795461736B3032000000006D795461DA
:10803000736B3033000000006D795461736B303422
:10804000000000006D795461736B30350000000052
:1080500064656661756C745461736B007C800008A4
:108060000000002078020000881400089C810008AD
:108070007802002098540000AC570008E10320016A
:108080000113010622D43CC9F205081BC876101260
:10809000071CC8399D1019081B3819101E9A01F4C5
:1080A00028301019081BA8DF1022961B69E610194A
:1080B000081B68621012981C3289F01019081B887E
:1080C000741022971B38261019081B39A210129918
:1080D0002B32D84019081BD9B41012DC3A013019E0
:1080E000081930120312063D01640B05081B658F49
:1080F0001012041C0285CA1019081B844E1012A30A
:108100001C0174281019081B75AC401AA4A81A2960
:108110004019081CC9ADAA36415BAA050812065AC7
:108120000510390813011012D24302048C7F2A056E
:108130000D1B6A1A1A1AE80D2307D01BFCCC1A690A
:108140000D1BE9FC1A1ADE0D1FF830FFFF4FA01AB5
:10815000890D591A1907115BFF550D5FFEF0FFFFDE
:10816000CEC2271B05505B5A920D0725FAB0FFFFC0
:108170005AC01AAA951311111D1EAA041101113C0F
:10818000FCAA03103C1FAA0310021DFD29F9199235
:0C81900061035924F41AAA010118000030
:0400000508000131BD
:00000001FF
