Component: ARM Compiler 5.06 update 6 (build 750) Tool: armlink [4d35ed]

==============================================================================

Section Cross References

    startup_stm32f103xe.o(RESET) refers to startup_stm32f103xe.o(STACK) for __initial_sp
    startup_stm32f103xe.o(RESET) refers to startup_stm32f103xe.o(.text) for Reset_Handler
    startup_stm32f103xe.o(RESET) refers to stm32f1xx_it.o(i.NMI_Handler) for NMI_Handler
    startup_stm32f103xe.o(RESET) refers to stm32f1xx_it.o(i.HardFault_Handler) for HardFault_Handler
    startup_stm32f103xe.o(RESET) refers to stm32f1xx_it.o(i.MemManage_Handler) for MemManage_Handler
    startup_stm32f103xe.o(RESET) refers to stm32f1xx_it.o(i.BusFault_Handler) for BusFault_Handler
    startup_stm32f103xe.o(RESET) refers to stm32f1xx_it.o(i.UsageFault_Handler) for UsageFault_Handler
    startup_stm32f103xe.o(RESET) refers to stm32f1xx_it.o(i.SVC_Handler) for SVC_Handler
    startup_stm32f103xe.o(RESET) refers to stm32f1xx_it.o(i.DebugMon_Handler) for DebugMon_Handler
    startup_stm32f103xe.o(RESET) refers to stm32f1xx_it.o(i.PendSV_Handler) for PendSV_Handler
    startup_stm32f103xe.o(RESET) refers to stm32f1xx_it.o(i.SysTick_Handler) for SysTick_Handler
    startup_stm32f103xe.o(RESET) refers to stm32f1xx_it.o(i.EXTI0_IRQHandler) for EXTI0_IRQHandler
    startup_stm32f103xe.o(RESET) refers to stm32f1xx_it.o(i.EXTI1_IRQHandler) for EXTI1_IRQHandler
    startup_stm32f103xe.o(RESET) refers to stm32f1xx_it.o(i.DMA1_Channel2_IRQHandler) for DMA1_Channel2_IRQHandler
    startup_stm32f103xe.o(RESET) refers to stm32f1xx_it.o(i.DMA1_Channel3_IRQHandler) for DMA1_Channel3_IRQHandler
    startup_stm32f103xe.o(RESET) refers to stm32f1xx_it.o(i.DMA1_Channel4_IRQHandler) for DMA1_Channel4_IRQHandler
    startup_stm32f103xe.o(RESET) refers to stm32f1xx_it.o(i.DMA1_Channel5_IRQHandler) for DMA1_Channel5_IRQHandler
    startup_stm32f103xe.o(RESET) refers to stm32f1xx_it.o(i.DMA1_Channel6_IRQHandler) for DMA1_Channel6_IRQHandler
==============================================================================

Removing Unused input sections from the image.

    Removing gps.o(.rev16_text), (4 bytes).
    Removing gps.o(.revsh_text), (4 bytes).
    Removing gps.o(.rrx_text), (6 bytes).
    Removing roter.o(.rev16_text), (4 bytes).
    Removing roter.o(.revsh_text), (4 bytes).
    Removing roter.o(.rrx_text), (6 bytes).
    Removing roter.o(i.Angle1StateCalibration), (88 bytes).
    Removing roter.o(i.Angle1StopCalibration), (40 bytes).
    Removing roter.o(i.Angle5StateCalibration), (88 bytes).
    Removing roter.o(i.Angle5StopCalibration), (40 bytes).
    Removing main.o(.rev16_text), (4 bytes).
    Removing main.o(.revsh_text), (4 bytes).
    Removing main.o(.rrx_text), (6 bytes).
    Removing main.o(i.RoterTimeAdd), (180 bytes).
    Removing main.o(.bss), (200 bytes).
    Removing main.o(.data), (1 bytes).
    Removing main.o(.data), (1 bytes).
    Removing main.o(.data), (4 bytes).
==============================================================================

Image Symbol Table

    Local Symbols

    Symbol Name                              Value     Ov Type        Size  Object(Section)

    ../Core/Src/adc.c                        0x00000000   Number         0  adc.o ABSOLUTE
    ../Core/Src/dma.c                        0x00000000   Number         0  dma.o ABSOLUTE
    ../Core/Src/gpio.c                       0x00000000   Number         0  gpio.o ABSOLUTE
    ../Core/Src/main.c                       0x00000000   Number         0  main.o ABSOLUTE
    ../Core/Src/stm32f1xx_hal_msp.c          0x00000000   Number         0  stm32f1xx_hal_msp.o ABSOLUTE
    ../Core/Src/stm32f1xx_it.c               0x00000000   Number         0  stm32f1xx_it.o ABSOLUTE
    ../Core/Src/system_stm32f1xx.c           0x00000000   Number         0  system_stm32f1xx.o ABSOLUTE
    ../Core/Src/usart.c                      0x00000000   Number         0  usart.o ABSOLUTE
    ../Drivers/STM32F1xx_HAL_Driver/Src/stm32f1xx_hal.c 0x00000000   Number         0  stm32f1xx_hal.o ABSOLUTE
    ../Drivers/STM32F1xx_HAL_Driver/Src/stm32f1xx_hal_adc.c 0x00000000   Number         0  stm32f1xx_hal_adc.o ABSOLUTE
    ../Drivers/STM32F1xx_HAL_Driver/Src/stm32f1xx_hal_adc_ex.c 0x00000000   Number         0  stm32f1xx_hal_adc_ex.o ABSOLUTE
    ../Drivers/STM32F1xx_HAL_Driver/Src/stm32f1xx_hal_cortex.c 0x00000000   Number         0  stm32f1xx_hal_cortex.o ABSOLUTE
    ../Drivers/STM32F1xx_HAL_Driver/Src/stm32f1xx_hal_dma.c 0x00000000   Number         0  stm32f1xx_hal_dma.o ABSOLUTE
    ../Drivers/STM32F1xx_HAL_Driver/Src/stm32f1xx_hal_exti.c 0x00000000   Number         0  stm32f1xx_hal_exti.o ABSOLUTE
    ../Drivers/STM32F1xx_HAL_Driver/Src/stm32f1xx_hal_flash.c 0x00000000   Number         0  stm32f1xx_hal_flash.o ABSOLUTE
    ../Drivers/STM32F1xx_HAL_Driver/Src/stm32f1xx_hal_flash_ex.c 0x00000000   Number         0  stm32f1xx_hal_flash_ex.o ABSOLUTE
    ../Drivers/STM32F1xx_HAL_Driver/Src/stm32f1xx_hal_gpio.c 0x00000000   Number         0  stm32f1xx_hal_gpio.o ABSOLUTE
    ../Drivers/STM32F1xx_HAL_Driver/Src/stm32f1xx_hal_gpio_ex.c 0x00000000   Number         0  stm32f1xx_hal_gpio_ex.o ABSOLUTE
    ../Drivers/STM32F1xx_HAL_Driver/Src/stm32f1xx_hal_pwr.c 0x00000000   Number         0  stm32f1xx_hal_pwr.o ABSOLUTE
    ../Drivers/STM32F1xx_HAL_Driver/Src/stm32f1xx_hal_rcc.c 0x00000000   Number         0  stm32f1xx_hal_rcc.o ABSOLUTE
    ../Drivers/STM32F1xx_HAL_Driver/Src/stm32f1xx_hal_rcc_ex.c 0x00000000   Number         0  stm32f1xx_hal_rcc_ex.o ABSOLUTE
    ../Drivers/STM32F1xx_HAL_Driver/Src/stm32f1xx_hal_tim.c 0x00000000   Number         0  stm32f1xx_hal_tim.o ABSOLUTE
    ../Drivers/STM32F1xx_HAL_Driver/Src/stm32f1xx_hal_tim_ex.c 0x00000000   Number         0  stm32f1xx_hal_tim_ex.o ABSOLUTE
    ../Drivers/STM32F1xx_HAL_Driver/Src/stm32f1xx_hal_uart.c 0x00000000   Number         0  stm32f1xx_hal_uart.o ABSOLUTE
    ../clib/../cmprslib/zerorunl2.c          0x00000000   Number         0  __dczerorl2.o ABSOLUTE
    ../clib/microlib/ctype/ctype.c           0x00000000   Number         0  isalnum_o.o ABSOLUTE
    ../clib/microlib/ctype/ctype.c           0x00000000   Number         0  isalpha_o.o ABSOLUTE
    ../clib/microlib/ctype/ctype.c           0x00000000   Number         0  ctype_o.o ABSOLUTE
    ../clib/microlib/ctype/ctype.c           0x00000000   Number         0  isdigit_o.o ABSOLUTE
    ../clib/microlib/ctype/ctype.c           0x00000000   Number         0  islower_o.o ABSOLUTE
    ../clib/microlib/ctype/ctype.c           0x00000000   Number         0  isprint_o.o ABSOLUTE
    ../clib/microlib/ctype/ctype.c           0x00000000   Number         0  ispunct_o.o ABSOLUTE
    ../clib/microlib/ctype/ctype.c           0x00000000   Number         0  isspace_o.o ABSOLUTE
    ../clib/microlib/ctype/ctype.c           0x00000000   Number         0  ctype_c.o ABSOLUTE
    ../clib/microlib/ctype/ctype.c           0x00000000   Number         0  isupper_o.o ABSOLUTE
    ../clib/microlib/ctype/ctype.c           0x00000000   Number         0  isblank_o.o ABSOLUTE
    ../clib/microlib/ctype/ctype.c           0x00000000   Number         0  isxdigit_o.o ABSOLUTE
    ../clib/microlib/ctype/ctype.c           0x00000000   Number         0  isgraph_o.o ABSOLUTE
    ../clib/microlib/ctype/ctype.c           0x00000000   Number         0  isspace_c.o ABSOLUTE
    ../clib/microlib/ctype/ctype.c           0x00000000   Number         0  iscntrl_o.o ABSOLUTE
    ../clib/microlib/errno.c                 0x00000000   Number         0  errno.o ABSOLUTE
    ../clib/microlib/init/entry.s            0x00000000   Number         0  entry11b.o ABSOLUTE
    ../clib/microlib/init/entry.s            0x00000000   Number         0  entry8a.o ABSOLUTE
    ../clib/microlib/init/entry.s            0x00000000   Number         0  entry8b.o ABSOLUTE
    ../clib/microlib/init/entry.s            0x00000000   Number         0  entry9a.o ABSOLUTE
    ../clib/microlib/init/entry.s            0x00000000   Number         0  entry11a.o ABSOLUTE
    ../clib/microlib/init/entry.s            0x00000000   Number         0  entry10b.o ABSOLUTE
    ../clib/microlib/init/entry.s            0x00000000   Number         0  entry9b.o ABSOLUTE
    ../clib/microlib/init/entry.s            0x00000000   Number         0  entry.o ABSOLUTE
    ../clib/microlib/init/entry.s            0x00000000   Number         0  entry10a.o ABSOLUTE
    ../clib/microlib/init/entry.s            0x00000000   Number         0  entry2.o ABSOLUTE
    ../clib/microlib/init/entry.s            0x00000000   Number         0  entry5.o ABSOLUTE
    ../clib/microlib/init/entry.s            0x00000000   Number         0  entry7b.o ABSOLUTE
    ../clib/microlib/init/entry.s            0x00000000   Number         0  entry7a.o ABSOLUTE
    ../clib/microlib/longlong.c              0x00000000   Number         0  llsshr.o ABSOLUTE
    ../clib/microlib/longlong.c              0x00000000   Number         0  llshl.o ABSOLUTE
    ../clib/microlib/longlong.c              0x00000000   Number         0  llushr.o ABSOLUTE
    ../clib/microlib/malloc/malloc.c         0x00000000   Number         0  mallocra.o ABSOLUTE
    ../clib/microlib/malloc/malloc.c         0x00000000   Number         0  malloca.o ABSOLUTE
    ../clib/microlib/malloc/malloc.c         0x00000000   Number         0  malloc.o ABSOLUTE
    ../clib/microlib/malloc/malloc.c         0x00000000   Number         0  mallocr.o ABSOLUTE
    ../clib/microlib/malloc/mvars.c          0x00000000   Number         0  mvars.o ABSOLUTE
    ../clib/microlib/string/memcpy.c         0x00000000   Number         0  memmovea.o ABSOLUTE
    ../clib/microlib/string/memcpy.c         0x00000000   Number         0  memcpya.o ABSOLUTE
    ../clib/microlib/string/memcpy.c         0x00000000   Number         0  memmoveb.o ABSOLUTE
    ../clib/microlib/string/memcpy.c         0x00000000   Number         0  memcpyb.o ABSOLUTE
    ../clib/microlib/string/memset.c         0x00000000   Number         0  memseta.o ABSOLUTE
    ../clib/microlib/string/strcpy.c         0x00000000   Number         0  strcpy.o ABSOLUTE
    ../clib/microlib/string/strlen.c         0x00000000   Number         0  strlen.o ABSOLUTE
    ../clib/microlib/string/strncmp.c        0x00000000   Number         0  strncmp.o ABSOLUTE
    ../clib/microlib/string/strncpy.c        0x00000000   Number         0  strncpy.o ABSOLUTE
    ../clib/microlib/string/strtok.c         0x00000000   Number         0  strtok_r.o ABSOLUTE
    ../clib/microlib/string/strtok.c         0x00000000   Number         0  strtok.o ABSOLUTE
    ../clib/microlib/stubs.s                 0x00000000   Number         0  iusefp.o ABSOLUTE
    ../clib/scanf.c                          0x00000000   Number         0  _scanf.o ABSOLUTE
    ../clib/scanf.c                          0x00000000   Number         0  strtod.o ABSOLUTE
    ../clib/scanf.c                          0x00000000   Number         0  _strtoul.o ABSOLUTE
    ../clib/scanf.c                          0x00000000   Number         0  scanf_fp.o ABSOLUTE
    ../clib/scanf.c                          0x00000000   Number         0  scanf_char.o ABSOLUTE
    ../clib/scanf.c                          0x00000000   Number         0  _scanf_int.o ABSOLUTE
    ../clib/scanf.c                          0x00000000   Number         0  __0sscanf.o ABSOLUTE
    ../clib/scanf.c                          0x00000000   Number         0  _chval.o ABSOLUTE
    ../clib/scanf.c                          0x00000000   Number         0  strtol.o ABSOLUTE
    ../clib/scanf.c                          0x00000000   Number         0  _sgetc.o ABSOLUTE
    ../clib/scanf.c                          0x00000000   Number         0  atoi.o ABSOLUTE
    ../fplib/microlib/d2f.c                  0x00000000   Number         0  d2f.o ABSOLUTE
    ../fplib/microlib/f2d.c                  0x00000000   Number         0  f2d.o ABSOLUTE
    ../fplib/microlib/fpadd.c                0x00000000   Number         0  dadd.o ABSOLUTE
    ../fplib/microlib/fpadd.c                0x00000000   Number         0  fadd.o ABSOLUTE
    ../fplib/microlib/fpdiv.c                0x00000000   Number         0  ddiv.o ABSOLUTE
    ../fplib/microlib/fpepilogue.c           0x00000000   Number         0  depilogue.o ABSOLUTE
    ../fplib/microlib/fpepilogue.c           0x00000000   Number         0  fepilogue.o ABSOLUTE
    ../fplib/microlib/fpfix.c                0x00000000   Number         0  dfixui.o ABSOLUTE
    ../fplib/microlib/fpfix.c                0x00000000   Number         0  dfixi.o ABSOLUTE
    ../fplib/microlib/fpfix.c                0x00000000   Number         0  ffixui.o ABSOLUTE
    ../fplib/microlib/fpflt.c                0x00000000   Number         0  dfltui.o ABSOLUTE
    ../fplib/microlib/fpflt.c                0x00000000   Number         0  dflti.o ABSOLUTE
    ../fplib/microlib/fpflt.c                0x00000000   Number         0  dfltul.o ABSOLUTE
    ../fplib/microlib/fpmul.c                0x00000000   Number         0  dmul.o ABSOLUTE
    ../fplib/microlib/fpscalb.c              0x00000000   Number         0  dscalb.o ABSOLUTE
    ../mathlib/atof.c                        0x00000000   Number         0  atof.o ABSOLUTE
    ../mathlib/strtod.c                      0x00000000   Number         0  strtod.o ABSOLUTE
    ..\Core\Src\Roter.c                      0x00000000   Number         0  roter.o ABSOLUTE
    ..\Core\Src\adc.c                        0x00000000   Number         0  adc.o ABSOLUTE
    ..\Core\Src\dma.c                        0x00000000   Number         0  dma.o ABSOLUTE
    ..\Core\Src\gpio.c                       0x00000000   Number         0  gpio.o ABSOLUTE
    ..\Core\Src\gps.c                        0x00000000   Number         0  gps.o ABSOLUTE
    ..\Core\Src\main.c                       0x00000000   Number         0  main.o ABSOLUTE
    ..\Core\Src\stm32f1xx_hal_msp.c          0x00000000   Number         0  stm32f1xx_hal_msp.o ABSOLUTE
    ..\Core\Src\stm32f1xx_it.c               0x00000000   Number         0  stm32f1xx_it.o ABSOLUTE
    ..\Core\Src\system_stm32f1xx.c           0x00000000   Number         0  system_stm32f1xx.o ABSOLUTE
    ..\Core\Src\usart.c                      0x00000000   Number         0  usart.o ABSOLUTE
    ..\Drivers\STM32F1xx_HAL_Driver\Src\stm32f1xx_hal.c 0x00000000   Number         0  stm32f1xx_hal.o ABSOLUTE
    ..\Drivers\STM32F1xx_HAL_Driver\Src\stm32f1xx_hal_adc.c 0x00000000   Number         0  stm32f1xx_hal_adc.o ABSOLUTE
    ..\Drivers\STM32F1xx_HAL_Driver\Src\stm32f1xx_hal_adc_ex.c 0x00000000   Number         0  stm32f1xx_hal_adc_ex.o ABSOLUTE
    ..\Drivers\STM32F1xx_HAL_Driver\Src\stm32f1xx_hal_cortex.c 0x00000000   Number         0  stm32f1xx_hal_cortex.o ABSOLUTE
    ..\Drivers\STM32F1xx_HAL_Driver\Src\stm32f1xx_hal_dma.c 0x00000000   Number         0  stm32f1xx_hal_dma.o ABSOLUTE
    ..\Drivers\STM32F1xx_HAL_Driver\Src\stm32f1xx_hal_exti.c 0x00000000   Number         0  stm32f1xx_hal_exti.o ABSOLUTE
    ..\Drivers\STM32F1xx_HAL_Driver\Src\stm32f1xx_hal_flash.c 0x00000000   Number         0  stm32f1xx_hal_flash.o ABSOLUTE
    ..\Drivers\STM32F1xx_HAL_Driver\Src\stm32f1xx_hal_flash_ex.c 0x00000000   Number         0  stm32f1xx_hal_flash_ex.o ABSOLUTE
    ..\Drivers\STM32F1xx_HAL_Driver\Src\stm32f1xx_hal_gpio.c 0x00000000   Number         0  stm32f1xx_hal_gpio.o ABSOLUTE
    ..\Drivers\STM32F1xx_HAL_Driver\Src\stm32f1xx_hal_gpio_ex.c 0x00000000   Number         0  stm32f1xx_hal_gpio_ex.o ABSOLUTE
    ..\Drivers\STM32F1xx_HAL_Driver\Src\stm32f1xx_hal_pwr.c 0x00000000   Number         0  stm32f1xx_hal_pwr.o ABSOLUTE
    ..\Drivers\STM32F1xx_HAL_Driver\Src\stm32f1xx_hal_rcc.c 0x00000000   Number         0  stm32f1xx_hal_rcc.o ABSOLUTE
    ..\Drivers\STM32F1xx_HAL_Driver\Src\stm32f1xx_hal_rcc_ex.c 0x00000000   Number         0  stm32f1xx_hal_rcc_ex.o ABSOLUTE
    ..\Drivers\STM32F1xx_HAL_Driver\Src\stm32f1xx_hal_tim.c 0x00000000   Number         0  stm32f1xx_hal_tim.o ABSOLUTE
    ..\Drivers\STM32F1xx_HAL_Driver\Src\stm32f1xx_hal_tim_ex.c 0x00000000   Number         0  stm32f1xx_hal_tim_ex.o ABSOLUTE
    ..\Drivers\STM32F1xx_HAL_Driver\Src\stm32f1xx_hal_uart.c 0x00000000   Number         0  stm32f1xx_hal_uart.o ABSOLUTE
    ..\\Core\\Src\\Roter.c                   0x00000000   Number         0  roter.o ABSOLUTE
    ..\\Core\\Src\\gps.c                     0x00000000   Number         0  gps.o ABSOLUTE
    dc.s                                     0x00000000   Number         0  dc.o ABSOLUTE
    handlers.s                               0x00000000   Number         0  handlers.o ABSOLUTE
    init.s                                   0x00000000   Number         0  init.o ABSOLUTE
    startup_stm32f103xe.s                    0x00000000   Number         0  startup_stm32f103xe.o ABSOLUTE
    RESET                                    0x08000000   Section      304  startup_stm32f103xe.o(RESET)
    .ARM.Collect$$$$00000000                 0x08000130   Section        0  entry.o(.ARM.Collect$$$$00000000)
    .ARM.Collect$$$$00000001                 0x08000130   Section        4  entry2.o(.ARM.Collect$$$$00000001)
    .ARM.Collect$$$$00000004                 0x08000134   Section        4  entry5.o(.ARM.Collect$$$$00000004)
    .ARM.Collect$$$$00000008                 0x08000138   Section        0  entry7b.o(.ARM.Collect$$$$00000008)
    .ARM.Collect$$$$0000000A                 0x08000138   Section        0  entry8b.o(.ARM.Collect$$$$0000000A)
    .ARM.Collect$$$$0000000B                 0x08000138   Section        8  entry9a.o(.ARM.Collect$$$$0000000B)
    .ARM.Collect$$$$0000000D                 0x08000140   Section        0  entry10a.o(.ARM.Collect$$$$0000000D)
    .ARM.Collect$$$$0000000F                 0x08000140   Section        0  entry11a.o(.ARM.Collect$$$$0000000F)
    .ARM.Collect$$$$00002712                 0x08000140   Section        4  entry2.o(.ARM.Collect$$$$00002712)
    __lit__00000000                          0x08000140   Data           4  entry2.o(.ARM.Collect$$$$00002712)
    .text                                    0x08000144   Section       36  startup_stm32f103xe.o(.text)
    .text                                    0x08000168   Section        0  llushr.o(.text)
    .text                                    0x08000188   Section        0  memmovea.o(.text)
    .text                                    0x080001c8   Section        0  memseta.o(.text)
    .text                                    0x080001ec   Section        0  strncpy.o(.text)
    .text                                    0x08000204   Section        0  strlen.o(.text)
    .text                                    0x08000212   Section        0  strcpy.o(.text)
    .text                                    0x08000224   Section        0  strncmp.o(.text)
    .text                                    0x08000244   Section        0  strtok.o(.text)
    .text                                    0x08000288   Section        0  __0sscanf.o(.text)
    .text                                    0x080002c0   Section        0  _scanf_int.o(.text)
    .text                                    0x0800040c   Section        0  strtol.o(.text)
    .text                                    0x0800047c   Section        0  atoi.o(.text)
    .text                                    0x08000496   Section        0  fadd.o(.text)
    .text                                    0x08000546   Section        0  dadd.o(.text)
    .text                                    0x08000694   Section        0  dmul.o(.text)
    .text                                    0x08000778   Section        0  ddiv.o(.text)
    .text                                    0x08000856   Section        0  dscalb.o(.text)
    .text                                    0x08000884   Section        0  dflti.o(.text)
    .text                                    0x080008a6   Section        0  dfltui.o(.text)
    .text                                    0x080008c0   Section        0  ffixui.o(.text)
    .text                                    0x080008e8   Section        0  dfixi.o(.text)
    .text                                    0x08000926   Section        0  dfixui.o(.text)
    .text                                    0x08000958   Section        0  f2d.o(.text)
    .text                                    0x0800097e   Section        0  d2f.o(.text)
    .text                                    0x080009b6   Section        0  llshl.o(.text)
    .text                                    0x080009d4   Section        0  llsshr.o(.text)
    .text                                    0x080009f8   Section        0  ctype_o.o(.text)
    .text                                    0x08000a00   Section        0  isspace_o.o(.text)
    .text                                    0x08000a12   Section        0  _chval.o(.text)
    .text                                    0x08000a30   Section        0  scanf_char.o(.text)
    _scanf_char_input                        0x08000a31   Thumb Code    12  scanf_char.o(.text)
    .text                                    0x08000a58   Section        0  _sgetc.o(.text)
    .text                                    0x08000a98   Section        0  _strtoul.o(.text)
    .text                                    0x08000b38   Section        0  strtod.o(.text)
    _local_sscanf                            0x08000b39   Thumb Code    54  strtod.o(.text)
    .text                                    0x08000bd4   Section        0  fepilogue.o(.text)
    .text                                    0x08000bd4   Section        0  iusefp.o(.text)
    .text                                    0x08000c42   Section        0  depilogue.o(.text)
    .text                                    0x08000cfc   Section       36  init.o(.text)
    .text                                    0x08000d20   Section        0  _scanf.o(.text)
    .text                                    0x0800104c   Section        0  scanf_fp.o(.text)
    _fp_value                                0x0800104d   Thumb Code   296  scanf_fp.o(.text)
    .text                                    0x080013ac   Section        0  dfltul.o(.text)
    .text                                    0x080013c4   Section        0  __dczerorl2.o(.text)
    i.ADC_BAT_Test                           0x0800141c   Section        0  main.o(i.ADC_BAT_Test)
    i.ADC_ConversionStop_Disable             0x080014b4   Section        0  stm32f1xx_hal_adc.o(i.ADC_ConversionStop_Disable)
    i.ADC_Enable                             0x0800150c   Section        0  stm32f1xx_hal_adc.o(i.ADC_Enable)
    i.BusFault_Handler                       0x08001588   Section        0  stm32f1xx_it.o(i.BusFault_Handler)
    i.CopyAngleDataToUsart1                  0x0800158c   Section        0  main.o(i.CopyAngleDataToUsart1)
    i.CopyGpsDataToUsart1                    0x080015bc   Section        0  main.o(i.CopyGpsDataToUsart1)
    i.DMA1_Channel2_IRQHandler               0x08001638   Section        0  stm32f1xx_it.o(i.DMA1_Channel2_IRQHandler)
    i.DMA1_Channel3_IRQHandler               0x08001644   Section        0  stm32f1xx_it.o(i.DMA1_Channel3_IRQHandler)
    i.DMA1_Channel4_IRQHandler               0x08001650   Section        0  stm32f1xx_it.o(i.DMA1_Channel4_IRQHandler)
    i.DMA1_Channel5_IRQHandler               0x0800165c   Section        0  stm32f1xx_it.o(i.DMA1_Channel5_IRQHandler)
    i.DMA1_Channel6_IRQHandler               0x08001668   Section        0  stm32f1xx_it.o(i.DMA1_Channel6_IRQHandler)
    i.DMA1_Channel7_IRQHandler               0x08001674   Section        0  stm32f1xx_it.o(i.DMA1_Channel7_IRQHandler)
    i.DMA_SetConfig                          0x08001680   Section        0  stm32f1xx_hal_dma.o(i.DMA_SetConfig)
    DMA_SetConfig                            0x08001681   Thumb Code    42  stm32f1xx_hal_dma.o(i.DMA_SetConfig)
    i.DataParseCondition                     0x080016ac   Section        0  roter.o(i.DataParseCondition)
    i.DataParseLocation                      0x0800174c   Section        0  roter.o(i.DataParseLocation)
    i.DataParsePolice                        0x080017cc   Section        0  roter.o(i.DataParsePolice)
    i.DebugMon_Handler                       0x08001848   Section        0  stm32f1xx_it.o(i.DebugMon_Handler)
    i.EXTI0_IRQHandler                       0x0800184a   Section        0  stm32f1xx_it.o(i.EXTI0_IRQHandler)
    i.EXTI1_IRQHandler                       0x08001850   Section        0  stm32f1xx_it.o(i.EXTI1_IRQHandler)
    i.EXTI9_5_IRQHandler                     0x08001856   Section        0  stm32f1xx_it.o(i.EXTI9_5_IRQHandler)
    i.Error_Handler                          0x0800186c   Section        0  main.o(i.Error_Handler)
    i.FireGun                                0x08001870   Section        0  main.o(i.FireGun)
    i.HAL_ADCEx_Calibration_Start            0x08001888   Section        0  stm32f1xx_hal_adc_ex.o(i.HAL_ADCEx_Calibration_Start)
    i.HAL_ADC_ConfigChannel                  0x08001960   Section        0  stm32f1xx_hal_adc.o(i.HAL_ADC_ConfigChannel)
    i.HAL_ADC_GetValue                       0x08001a5c   Section        0  stm32f1xx_hal_adc.o(i.HAL_ADC_GetValue)
    i.HAL_ADC_Init                           0x08001a64   Section        0  stm32f1xx_hal_adc.o(i.HAL_ADC_Init)
    i.HAL_ADC_MspInit                        0x08001b84   Section        0  adc.o(i.HAL_ADC_MspInit)
    i.HAL_ADC_PollForConversion              0x08001bdc   Section        0  stm32f1xx_hal_adc.o(i.HAL_ADC_PollForConversion)
    i.HAL_ADC_Start                          0x08001d18   Section        0  stm32f1xx_hal_adc.o(i.HAL_ADC_Start)
    i.HAL_DMA_Abort                          0x08001dd8   Section        0  stm32f1xx_hal_dma.o(i.HAL_DMA_Abort)
    i.HAL_DMA_Abort_IT                       0x08001e20   Section        0  stm32f1xx_hal_dma.o(i.HAL_DMA_Abort_IT)
    i.HAL_DMA_IRQHandler                     0x08001f50   Section        0  stm32f1xx_hal_dma.o(i.HAL_DMA_IRQHandler)
    i.HAL_DMA_Init                           0x08002198   Section        0  stm32f1xx_hal_dma.o(i.HAL_DMA_Init)
    i.HAL_DMA_Start_IT                       0x08002214   Section        0  stm32f1xx_hal_dma.o(i.HAL_DMA_Start_IT)
    i.HAL_Delay                              0x08002284   Section        0  stm32f1xx_hal.o(i.HAL_Delay)
    i.HAL_GPIO_EXTI_Callback                 0x080022a8   Section        0  main.o(i.HAL_GPIO_EXTI_Callback)
    i.HAL_GPIO_EXTI_IRQHandler               0x080022e8   Section        0  stm32f1xx_hal_gpio.o(i.HAL_GPIO_EXTI_IRQHandler)
    i.HAL_GPIO_Init                          0x08002300   Section        0  stm32f1xx_hal_gpio.o(i.HAL_GPIO_Init)
    i.HAL_GPIO_ReadPin                       0x080024f8   Section        0  stm32f1xx_hal_gpio.o(i.HAL_GPIO_ReadPin)
    i.HAL_GPIO_TogglePin                     0x08002502   Section        0  stm32f1xx_hal_gpio.o(i.HAL_GPIO_TogglePin)
    i.HAL_GPIO_WritePin                      0x08002512   Section        0  stm32f1xx_hal_gpio.o(i.HAL_GPIO_WritePin)
    i.HAL_GetTick                            0x0800251c   Section        0  stm32f1xx_hal.o(i.HAL_GetTick)
    i.HAL_IncTick                            0x08002528   Section        0  stm32f1xx_hal.o(i.HAL_IncTick)
    i.HAL_Init                               0x08002538   Section        0  stm32f1xx_hal.o(i.HAL_Init)
    i.HAL_InitTick                           0x0800255c   Section        0  stm32f1xx_hal.o(i.HAL_InitTick)
    i.HAL_MspInit                            0x0800259c   Section        0  stm32f1xx_hal_msp.o(i.HAL_MspInit)
    i.HAL_NVIC_EnableIRQ                     0x080025d8   Section        0  stm32f1xx_hal_cortex.o(i.HAL_NVIC_EnableIRQ)
    i.HAL_NVIC_SetPriority                   0x080025f4   Section        0  stm32f1xx_hal_cortex.o(i.HAL_NVIC_SetPriority)
    i.HAL_NVIC_SetPriorityGrouping           0x08002634   Section        0  stm32f1xx_hal_cortex.o(i.HAL_NVIC_SetPriorityGrouping)
    i.HAL_RCCEx_GetPeriphCLKFreq             0x08002658   Section        0  stm32f1xx_hal_rcc_ex.o(i.HAL_RCCEx_GetPeriphCLKFreq)
    i.HAL_RCCEx_PeriphCLKConfig              0x08002710   Section        0  stm32f1xx_hal_rcc_ex.o(i.HAL_RCCEx_PeriphCLKConfig)
    i.HAL_RCC_ClockConfig                    0x080027fc   Section        0  stm32f1xx_hal_rcc.o(i.HAL_RCC_ClockConfig)
    i.HAL_RCC_GetPCLK1Freq                   0x08002928   Section        0  stm32f1xx_hal_rcc.o(i.HAL_RCC_GetPCLK1Freq)
    i.HAL_RCC_GetPCLK2Freq                   0x08002948   Section        0  stm32f1xx_hal_rcc.o(i.HAL_RCC_GetPCLK2Freq)
    i.HAL_RCC_GetSysClockFreq                0x08002968   Section        0  stm32f1xx_hal_rcc.o(i.HAL_RCC_GetSysClockFreq)
    i.HAL_RCC_OscConfig                      0x080029bc   Section        0  stm32f1xx_hal_rcc.o(i.HAL_RCC_OscConfig)
    i.HAL_SYSTICK_Config                     0x08002cdc   Section        0  stm32f1xx_hal_cortex.o(i.HAL_SYSTICK_Config)
    i.HAL_UARTEx_ReceiveToIdle_IT            0x08002d04   Section        0  stm32f1xx_hal_uart.o(i.HAL_UARTEx_ReceiveToIdle_IT)
    i.HAL_UARTEx_RxEventCallback             0x08002d54   Section        0  main.o(i.HAL_UARTEx_RxEventCallback)
    i.HAL_UART_ErrorCallback                 0x08002da8   Section        0  stm32f1xx_hal_uart.o(i.HAL_UART_ErrorCallback)
    i.HAL_UART_IRQHandler                    0x08002dac   Section        0  stm32f1xx_hal_uart.o(i.HAL_UART_IRQHandler)
    i.HAL_UART_Init                          0x08003018   Section        0  stm32f1xx_hal_uart.o(i.HAL_UART_Init)
    i.HAL_UART_MspInit                       0x0800307c   Section        0  usart.o(i.HAL_UART_MspInit)
    i.HAL_UART_Receive_IT                    0x080033f4   Section        0  stm32f1xx_hal_uart.o(i.HAL_UART_Receive_IT)
    i.HAL_UART_RxCpltCallback                0x08003410   Section        0  main.o(i.HAL_UART_RxCpltCallback)
    i.HAL_UART_Transmit                      0x08003468   Section        0  stm32f1xx_hal_uart.o(i.HAL_UART_Transmit)
    i.HAL_UART_Transmit_DMA                  0x08003504   Section        0  stm32f1xx_hal_uart.o(i.HAL_UART_Transmit_DMA)
    i.HAL_UART_TxCpltCallback                0x0800357c   Section        0  stm32f1xx_hal_uart.o(i.HAL_UART_TxCpltCallback)
    i.HAL_UART_TxHalfCpltCallback            0x0800357e   Section        0  stm32f1xx_hal_uart.o(i.HAL_UART_TxHalfCpltCallback)
    i.HardFault_Handler                      0x08003580   Section        0  stm32f1xx_it.o(i.HardFault_Handler)
    i.KeepmovingRoter                        0x080035a4   Section        0  roter.o(i.KeepmovingRoter)
    i.MX_ADC1_Init                           0x0800360c   Section        0  adc.o(i.MX_ADC1_Init)
    i.MX_DMA_Init                            0x0800365c   Section        0  dma.o(i.MX_DMA_Init)
    i.MX_GPIO_Init                           0x080036d8   Section        0  gpio.o(i.MX_GPIO_Init)
    i.MX_UART4_Init                          0x08003848   Section        0  usart.o(i.MX_UART4_Init)
    i.MX_UART5_Init                          0x08003880   Section        0  usart.o(i.MX_UART5_Init)
    i.MX_USART1_UART_Init                    0x080038b8   Section        0  usart.o(i.MX_USART1_UART_Init)
    i.MX_USART2_UART_Init                    0x080038f0   Section        0  usart.o(i.MX_USART2_UART_Init)
    i.MX_USART3_UART_Init                    0x08003928   Section        0  usart.o(i.MX_USART3_UART_Init)
    i.MemManage_Handler                      0x08003960   Section        0  stm32f1xx_it.o(i.MemManage_Handler)
    i.NMI_Handler                            0x08003962   Section        0  stm32f1xx_it.o(i.NMI_Handler)
    i.PendSV_Handler                         0x08003964   Section        0  stm32f1xx_it.o(i.PendSV_Handler)
    i.ProcessCmdBuffer                       0x08003968   Section        0  roter.o(i.ProcessCmdBuffer)
    i.RemovePoliceToRoter                    0x08003a1c   Section        0  roter.o(i.RemovePoliceToRoter)
    i.Roter1Error                            0x08003a5c   Section        0  main.o(i.Roter1Error)
    i.Roter5Error                            0x08003ab4   Section        0  main.o(i.Roter5Error)
    i.RoterAngle1                            0x08003b0c   Section        0  roter.o(i.RoterAngle1)
    i.RoterAngle5                            0x08003b80   Section        0  roter.o(i.RoterAngle5)
    i.RoterRelativeAngle1                    0x08003bf4   Section        0  roter.o(i.RoterRelativeAngle1)
    i.RoterRelativeAngle5                    0x08003c68   Section        0  roter.o(i.RoterRelativeAngle5)
    i.SVC_Handler                            0x08003cdc   Section        0  stm32f1xx_it.o(i.SVC_Handler)
    i.SendCmdToBuf                           0x08003ce0   Section        0  roter.o(i.SendCmdToBuf)
    i.SendDataByUART                         0x08003d98   Section        0  main.o(i.SendDataByUART)
    i.SetInching                             0x08003e30   Section        0  roter.o(i.SetInching)
    i.SetInit                                0x08003e38   Section        0  roter.o(i.SetInit)
    i.SetPeriodicity                         0x08003f50   Section        0  roter.o(i.SetPeriodicity)
    i.SetRestoration                         0x08003fa0   Section        0  roter.o(i.SetRestoration)
    i.SetRoterStop                           0x08003fcc   Section        0  roter.o(i.SetRoterStop)
    i.SysTick_Handler                        0x0800400c   Section        0  stm32f1xx_it.o(i.SysTick_Handler)
    i.SystemClock_Config                     0x08004010   Section        0  main.o(i.SystemClock_Config)
    i.SystemInit                             0x08004088   Section        0  system_stm32f1xx.o(i.SystemInit)
    i.UART2DataParse                         0x0800408c   Section        0  roter.o(i.UART2DataParse)
    i.UART2DataRecv                          0x08004168   Section        0  roter.o(i.UART2DataRecv)
    i.UART4_IRQHandler                       0x080041d0   Section        0  stm32f1xx_it.o(i.UART4_IRQHandler)
    i.UART5_IRQHandler                       0x080041dc   Section        0  stm32f1xx_it.o(i.UART5_IRQHandler)
    i.UART_DMAAbortOnError                   0x080041e8   Section        0  stm32f1xx_hal_uart.o(i.UART_DMAAbortOnError)
    UART_DMAAbortOnError                     0x080041e9   Thumb Code    16  stm32f1xx_hal_uart.o(i.UART_DMAAbortOnError)
    i.UART_DMAError                          0x080041f8   Section        0  stm32f1xx_hal_uart.o(i.UART_DMAError)
    UART_DMAError                            0x080041f9   Thumb Code    74  stm32f1xx_hal_uart.o(i.UART_DMAError)
    i.UART_DMATransmitCplt                   0x08004242   Section        0  stm32f1xx_hal_uart.o(i.UART_DMATransmitCplt)
    UART_DMATransmitCplt                     0x08004243   Thumb Code    66  stm32f1xx_hal_uart.o(i.UART_DMATransmitCplt)
    i.UART_DMATxHalfCplt                     0x08004284   Section        0  stm32f1xx_hal_uart.o(i.UART_DMATxHalfCplt)
    UART_DMATxHalfCplt                       0x08004285   Thumb Code    10  stm32f1xx_hal_uart.o(i.UART_DMATxHalfCplt)
    i.UART_EndRxTransfer                     0x0800428e   Section        0  stm32f1xx_hal_uart.o(i.UART_EndRxTransfer)
    UART_EndRxTransfer                       0x0800428f   Thumb Code    78  stm32f1xx_hal_uart.o(i.UART_EndRxTransfer)
    i.UART_EndTxTransfer                     0x080042dc   Section        0  stm32f1xx_hal_uart.o(i.UART_EndTxTransfer)
    UART_EndTxTransfer                       0x080042dd   Thumb Code    28  stm32f1xx_hal_uart.o(i.UART_EndTxTransfer)
    i.UART_Receive_IT                        0x080042f8   Section        0  stm32f1xx_hal_uart.o(i.UART_Receive_IT)
    UART_Receive_IT                          0x080042f9   Thumb Code   194  stm32f1xx_hal_uart.o(i.UART_Receive_IT)
    i.UART_SetConfig                         0x080043bc   Section        0  stm32f1xx_hal_uart.o(i.UART_SetConfig)
    UART_SetConfig                           0x080043bd   Thumb Code   178  stm32f1xx_hal_uart.o(i.UART_SetConfig)
    i.UART_Start_Receive_IT                  0x08004474   Section        0  stm32f1xx_hal_uart.o(i.UART_Start_Receive_IT)
    i.UART_WaitOnFlagUntilTimeout            0x080044aa   Section        0  stm32f1xx_hal_uart.o(i.UART_WaitOnFlagUntilTimeout)
    UART_WaitOnFlagUntilTimeout              0x080044ab   Thumb Code   120  stm32f1xx_hal_uart.o(i.UART_WaitOnFlagUntilTimeout)
    i.USART1DataRecv                         0x08004524   Section        0  main.o(i.USART1DataRecv)
    i.USART1_IRQHandler                      0x08004698   Section        0  stm32f1xx_it.o(i.USART1_IRQHandler)
    i.USART2_IRQHandler                      0x080046a4   Section        0  stm32f1xx_it.o(i.USART2_IRQHandler)
    i.USART3_IRQHandler                      0x080046b0   Section        0  stm32f1xx_it.o(i.USART3_IRQHandler)
    i.UsageFault_Handler                     0x080046bc   Section        0  stm32f1xx_it.o(i.UsageFault_Handler)
    i.__NVIC_SetPriority                     0x080046be   Section        0  stm32f1xx_hal_cortex.o(i.__NVIC_SetPriority)
    __NVIC_SetPriority                       0x080046bf   Thumb Code    32  stm32f1xx_hal_cortex.o(i.__NVIC_SetPriority)
    i.__aeabi_errno_addr                     0x080046e0   Section        0  errno.o(i.__aeabi_errno_addr)
    i.__free$realloc                         0x080046e8   Section        0  mallocr.o(i.__free$realloc)
    i.__malloc$realloc                       0x08004744   Section        0  mallocr.o(i.__malloc$realloc)
    i.__read_errno                           0x08004794   Section        0  errno.o(i.__read_errno)
    i.__scatterload_copy                     0x080047a0   Section       14  handlers.o(i.__scatterload_copy)
    i.__scatterload_null                     0x080047ae   Section        2  handlers.o(i.__scatterload_null)
    i.__scatterload_zeroinit                 0x080047b0   Section       14  handlers.o(i.__scatterload_zeroinit)
    i.__set_errno                            0x080047c0   Section        0  errno.o(i.__set_errno)
    i._is_digit                              0x080047cc   Section        0  scanf_fp.o(i._is_digit)
    i.atof                                   0x080047da   Section        0  atof.o(i.atof)
    i.calculate_checksum                     0x08004804   Section        0  main.o(i.calculate_checksum)
    i.check_sum                              0x0800481e   Section        0  roter.o(i.check_sum)
    i.crc16                                  0x0800483c   Section        0  roter.o(i.crc16)
    i.hexToBinChar                           0x08004874   Section        0  roter.o(i.hexToBinChar)
    i.hex_to_int                             0x080048a0   Section        0  roter.o(i.hex_to_int)
    i.insertZerosBetweenCommas               0x080048c0   Section        0  gps.o(i.insertZerosBetweenCommas)
    i.int_to_hex                             0x0800490e   Section        0  roter.o(i.int_to_hex)
    i.internal_alloc                         0x08004920   Section        0  mallocr.o(i.internal_alloc)
    internal_alloc                           0x08004921   Thumb Code    76  mallocr.o(i.internal_alloc)
    i.main                                   0x08004970   Section        0  main.o(i.main)
    i.realloc                                0x08004ae4   Section        0  mallocr.o(i.realloc)
    i.receive_gps_data                       0x08004b50   Section        0  gps.o(i.receive_gps_data)
    i.strGga_parse                           0x08004ce8   Section        0  gps.o(i.strGga_parse)
    i.strGll_parse                           0x08004f88   Section        0  gps.o(i.strGll_parse)
    i.strGsa_parse                           0x08005190   Section        0  gps.o(i.strGsa_parse)
    i.strGsv_parse                           0x08005290   Section        0  gps.o(i.strGsv_parse)
    i.strRHXZ_parse                          0x0800531c   Section        0  gps.o(i.strRHXZ_parse)
    i.strRmc_parse                           0x08005394   Section        0  gps.o(i.strRmc_parse)
    i.strVtg_parse                           0x08005634   Section        0  gps.o(i.strVtg_parse)
    i.strtod                                 0x080056dc   Section        0  strtod.o(i.strtod)
    .constdata                               0x080056f8   Section       18  stm32f1xx_hal_rcc.o(.constdata)
    aPredivFactorTable                       0x080056f8   Data           2  stm32f1xx_hal_rcc.o(.constdata)
    aPLLMULFactorTable                       0x080056fa   Data          16  stm32f1xx_hal_rcc.o(.constdata)
    .constdata                               0x0800570a   Section       18  stm32f1xx_hal_rcc_ex.o(.constdata)
    aPredivFactorTable                       0x0800570a   Data           2  stm32f1xx_hal_rcc_ex.o(.constdata)
    aPLLMULFactorTable                       0x0800570c   Data          16  stm32f1xx_hal_rcc_ex.o(.constdata)
    .constdata                               0x0800571c   Section       16  system_stm32f1xx.o(.constdata)
    .constdata                               0x0800572c   Section        8  system_stm32f1xx.o(.constdata)
    .constdata                               0x08005734   Section      129  ctype_o.o(.constdata)
    .constdata                               0x080057b8   Section        4  ctype_o.o(.constdata)
    table                                    0x080057b8   Data           4  ctype_o.o(.constdata)
    .data                                    0x20000000   Section        6  gps.o(.data)
    .data                                    0x20000008   Section      414  roter.o(.data)
    count1                                   0x20000015   Data           1  roter.o(.data)
    cmdLength                                0x20000016   Data           1  roter.o(.data)
    g_numCount                               0x2000003c   Data           4  roter.o(.data)
    .data                                    0x200001a6   Section       13  roter.o(.data)
    .data                                    0x200001b3   Section       13  roter.o(.data)
    .data                                    0x200001c0   Section       13  roter.o(.data)
    .data                                    0x200001cd   Section       13  roter.o(.data)
    .data                                    0x200001da   Section       38  main.o(.data)
    .data                                    0x20000200   Section       12  stm32f1xx_hal.o(.data)
    .data                                    0x2000020c   Section        4  system_stm32f1xx.o(.data)
    .data                                    0x20000210   Section        4  strtok.o(.data)
    state                                    0x20000210   Data           4  strtok.o(.data)
    .data                                    0x20000214   Section        4  mvars.o(.data)
    .data                                    0x20000218   Section        4  mvars.o(.data)
    .data                                    0x2000021c   Section        4  errno.o(.data)
    _errno                                   0x2000021c   Data           4  errno.o(.data)
    .bss                                     0x20000220   Section      608  gps.o(.bss)
    .bss                                     0x20000480   Section     7667  roter.o(.bss)
    .bss                                     0x20002274   Section     2086  main.o(.bss)
    .bss                                     0x20002a9a   Section        9  main.o(.bss)
    .bss                                     0x20002aa4   Section       48  adc.o(.bss)
    .bss                                     0x20002ad4   Section      768  usart.o(.bss)
    HEAP                                     0x20002dd8   Section     3072  startup_stm32f103xe.o(HEAP)
    STACK                                    0x200039d8   Section     3072  startup_stm32f103xe.o(STACK)

    Global Symbols

    Symbol Name                              Value     Ov Type        Size  Object(Section)

    BuildAttributes$$THM_ISAv4$P$D$K$B$S$PE$A:L22UL41UL21$X:L11$S22US41US21$IEEE1$IW$USESV6$~STKCKD$USESV7$~SHL$OTIME$ROPI$IEEEJ$EBA8$MICROLIB$REQ8$PRES8$EABIv2 0x00000000   Number         0  anon$$obj.o ABSOLUTE
    __ARM_use_no_argv                        0x00000000   Number         0  main.o ABSOLUTE
    __cpp_initialize__aeabi_                  - Undefined Weak Reference
    __cxa_finalize                            - Undefined Weak Reference
    _clock_init                               - Undefined Weak Reference
    _microlib_exit                            - Undefined Weak Reference
    _scanf_longlong                           - Undefined Weak Reference
    _scanf_string                             - Undefined Weak Reference
    __Vectors_Size                           0x00000130   Number         0  startup_stm32f103xe.o ABSOLUTE
    __Vectors                                0x08000000   Data           4  startup_stm32f103xe.o(RESET)
    __Vectors_End                            0x08000130   Data           0  startup_stm32f103xe.o(RESET)
    __main                                   0x08000131   Thumb Code     0  entry.o(.ARM.Collect$$$$00000000)
    _main_stk                                0x08000131   Thumb Code     0  entry2.o(.ARM.Collect$$$$00000001)
    _main_scatterload                        0x08000135   Thumb Code     0  entry5.o(.ARM.Collect$$$$00000004)
    __main_after_scatterload                 0x08000139   Thumb Code     0  entry5.o(.ARM.Collect$$$$00000004)
    _main_clock                              0x08000139   Thumb Code     0  entry7b.o(.ARM.Collect$$$$00000008)
    _main_cpp_init                           0x08000139   Thumb Code     0  entry8b.o(.ARM.Collect$$$$0000000A)
    _main_init                               0x08000139   Thumb Code     0  entry9a.o(.ARM.Collect$$$$0000000B)
    __rt_final_cpp                           0x08000141   Thumb Code     0  entry10a.o(.ARM.Collect$$$$0000000D)
    __rt_final_exit                          0x08000141   Thumb Code     0  entry11a.o(.ARM.Collect$$$$0000000F)
    Reset_Handler                            0x08000145   Thumb Code     8  startup_stm32f103xe.o(.text)
    ADC1_2_IRQHandler                        0x0800015f   Thumb Code     0  startup_stm32f103xe.o(.text)
    ADC3_IRQHandler                          0x0800015f   Thumb Code     0  startup_stm32f103xe.o(.text)
    CAN1_RX1_IRQHandler                      0x0800015f   Thumb Code     0  startup_stm32f103xe.o(.text)
    CAN1_SCE_IRQHandler                      0x0800015f   Thumb Code     0  startup_stm32f103xe.o(.text)
    DMA1_Channel1_IRQHandler                 0x0800015f   Thumb Code     0  startup_stm32f103xe.o(.text)
    DMA2_Channel1_IRQHandler                 0x0800015f   Thumb Code     0  startup_stm32f103xe.o(.text)
    DMA2_Channel2_IRQHandler                 0x0800015f   Thumb Code     0  startup_stm32f103xe.o(.text)
    DMA2_Channel3_IRQHandler                 0x0800015f   Thumb Code     0  startup_stm32f103xe.o(.text)
    DMA2_Channel4_5_IRQHandler               0x0800015f   Thumb Code     0  startup_stm32f103xe.o(.text)
    EXTI15_10_IRQHandler                     0x0800015f   Thumb Code     0  startup_stm32f103xe.o(.text)
    EXTI2_IRQHandler                         0x0800015f   Thumb Code     0  startup_stm32f103xe.o(.text)
    EXTI3_IRQHandler                         0x0800015f   Thumb Code     0  startup_stm32f103xe.o(.text)
    EXTI4_IRQHandler                         0x0800015f   Thumb Code     0  startup_stm32f103xe.o(.text)
    FLASH_IRQHandler                         0x0800015f   Thumb Code     0  startup_stm32f103xe.o(.text)
    FSMC_IRQHandler                          0x0800015f   Thumb Code     0  startup_stm32f103xe.o(.text)
    I2C1_ER_IRQHandler                       0x0800015f   Thumb Code     0  startup_stm32f103xe.o(.text)
    I2C1_EV_IRQHandler                       0x0800015f   Thumb Code     0  startup_stm32f103xe.o(.text)
    I2C2_ER_IRQHandler                       0x0800015f   Thumb Code     0  startup_stm32f103xe.o(.text)
    I2C2_EV_IRQHandler                       0x0800015f   Thumb Code     0  startup_stm32f103xe.o(.text)
    PVD_IRQHandler                           0x0800015f   Thumb Code     0  startup_stm32f103xe.o(.text)
    RCC_IRQHandler                           0x0800015f   Thumb Code     0  startup_stm32f103xe.o(.text)
    RTC_Alarm_IRQHandler                     0x0800015f   Thumb Code     0  startup_stm32f103xe.o(.text)
    RTC_IRQHandler                           0x0800015f   Thumb Code     0  startup_stm32f103xe.o(.text)
    SDIO_IRQHandler                          0x0800015f   Thumb Code     0  startup_stm32f103xe.o(.text)
    SPI1_IRQHandler                          0x0800015f   Thumb Code     0  startup_stm32f103xe.o(.text)
    SPI2_IRQHandler                          0x0800015f   Thumb Code     0  startup_stm32f103xe.o(.text)
    SPI3_IRQHandler                          0x0800015f   Thumb Code     0  startup_stm32f103xe.o(.text)
    TAMPER_IRQHandler                        0x0800015f   Thumb Code     0  startup_stm32f103xe.o(.text)
    TIM1_BRK_IRQHandler                      0x0800015f   Thumb Code     0  startup_stm32f103xe.o(.text)
    TIM1_CC_IRQHandler                       0x0800015f   Thumb Code     0  startup_stm32f103xe.o(.text)
    TIM1_TRG_COM_IRQHandler                  0x0800015f   Thumb Code     0  startup_stm32f103xe.o(.text)
    TIM1_UP_IRQHandler                       0x0800015f   Thumb Code     0  startup_stm32f103xe.o(.text)
    TIM2_IRQHandler                          0x0800015f   Thumb Code     0  startup_stm32f103xe.o(.text)
    TIM3_IRQHandler                          0x0800015f   Thumb Code     0  startup_stm32f103xe.o(.text)
    TIM4_IRQHandler                          0x0800015f   Thumb Code     0  startup_stm32f103xe.o(.text)
    TIM5_IRQHandler                          0x0800015f   Thumb Code     0  startup_stm32f103xe.o(.text)
    TIM6_IRQHandler                          0x0800015f   Thumb Code     0  startup_stm32f103xe.o(.text)
    TIM7_IRQHandler                          0x0800015f   Thumb Code     0  startup_stm32f103xe.o(.text)
    TIM8_BRK_IRQHandler                      0x0800015f   Thumb Code     0  startup_stm32f103xe.o(.text)
    TIM8_CC_IRQHandler                       0x0800015f   Thumb Code     0  startup_stm32f103xe.o(.text)
    TIM8_TRG_COM_IRQHandler                  0x0800015f   Thumb Code     0  startup_stm32f103xe.o(.text)
    TIM8_UP_IRQHandler                       0x0800015f   Thumb Code     0  startup_stm32f103xe.o(.text)
    USBWakeUp_IRQHandler                     0x0800015f   Thumb Code     0  startup_stm32f103xe.o(.text)
    USB_HP_CAN1_TX_IRQHandler                0x0800015f   Thumb Code     0  startup_stm32f103xe.o(.text)
    USB_LP_CAN1_RX0_IRQHandler               0x0800015f   Thumb Code     0  startup_stm32f103xe.o(.text)
    WWDG_IRQHandler                          0x0800015f   Thumb Code     0  startup_stm32f103xe.o(.text)
    __aeabi_llsr                             0x08000169   Thumb Code    32  llushr.o(.text)
    _ll_ushift_r                             0x08000169   Thumb Code     0  llushr.o(.text)
    ___aeabi_memcpy8$move                    0x08000189   Thumb Code     0  memmovea.o(.text)
    __aeabi_memcpy                           0x08000189   Thumb Code    64  memmovea.o(.text)
    __aeabi_memcpy4                          0x08000189   Thumb Code     0  memmovea.o(.text)
    __aeabi_memmove                          0x08000189   Thumb Code     0  memmovea.o(.text)
    __aeabi_memmove4                         0x08000189   Thumb Code     0  memmovea.o(.text)
    __aeabi_memmove8                         0x08000189   Thumb Code     0  memmovea.o(.text)
    __aeabi_memset                           0x080001c9   Thumb Code    14  memseta.o(.text)
    __aeabi_memset4                          0x080001c9   Thumb Code     0  memseta.o(.text)
    __aeabi_memset8                          0x080001c9   Thumb Code     0  memseta.o(.text)
    __aeabi_memclr                           0x080001d7   Thumb Code     4  memseta.o(.text)
    __aeabi_memclr4                          0x080001d7   Thumb Code     0  memseta.o(.text)
    __aeabi_memclr8                          0x080001d7   Thumb Code     0  memseta.o(.text)
    _memset$wrapper                          0x080001db   Thumb Code    18  memseta.o(.text)
    strncpy                                  0x080001ed   Thumb Code    24  strncpy.o(.text)
    strlen                                   0x08000205   Thumb Code    14  strlen.o(.text)
    strcpy                                   0x08000213   Thumb Code    18  strcpy.o(.text)
    strncmp                                  0x08000225   Thumb Code    30  strncmp.o(.text)
    strtok                                   0x08000245   Thumb Code    62  strtok.o(.text)
    __0sscanf                                0x08000289   Thumb Code    48  __0sscanf.o(.text)
    _scanf_int                               0x080002c1   Thumb Code   332  _scanf_int.o(.text)
    strtol                                   0x0800040d   Thumb Code   112  strtol.o(.text)
    atoi                                     0x0800047d   Thumb Code    26  atoi.o(.text)
    __aeabi_fadd                             0x08000497   Thumb Code   164  fadd.o(.text)
    __aeabi_fsub                             0x0800053b   Thumb Code     6  fadd.o(.text)
    __aeabi_frsub                            0x08000541   Thumb Code     6  fadd.o(.text)
    __aeabi_dadd                             0x08000547   Thumb Code   322  dadd.o(.text)
    __aeabi_dsub                             0x08000689   Thumb Code     6  dadd.o(.text)
    __aeabi_drsub                            0x0800068f   Thumb Code     6  dadd.o(.text)
    __aeabi_dmul                             0x08000695   Thumb Code   228  dmul.o(.text)
    __aeabi_ddiv                             0x08000779   Thumb Code   222  ddiv.o(.text)
    __ARM_scalbn                             0x08000857   Thumb Code    46  dscalb.o(.text)
    scalbn                                   0x08000857   Thumb Code     0  dscalb.o(.text)
    __aeabi_i2d                              0x08000885   Thumb Code    34  dflti.o(.text)
    __aeabi_ui2d                             0x080008a7   Thumb Code    26  dfltui.o(.text)
    __aeabi_f2uiz                            0x080008c1   Thumb Code    40  ffixui.o(.text)
    __aeabi_d2iz                             0x080008e9   Thumb Code    62  dfixi.o(.text)
    __aeabi_d2uiz                            0x08000927   Thumb Code    50  dfixui.o(.text)
    __aeabi_f2d                              0x08000959   Thumb Code    38  f2d.o(.text)
    __aeabi_d2f                              0x0800097f   Thumb Code    56  d2f.o(.text)
    __aeabi_llsl                             0x080009b7   Thumb Code    30  llshl.o(.text)
    _ll_shift_l                              0x080009b7   Thumb Code     0  llshl.o(.text)
    __aeabi_lasr                             0x080009d5   Thumb Code    36  llsshr.o(.text)
    _ll_sshift_r                             0x080009d5   Thumb Code     0  llsshr.o(.text)
    __rt_ctype_table                         0x080009f9   Thumb Code     4  ctype_o.o(.text)
    isspace                                  0x08000a01   Thumb Code    18  isspace_o.o(.text)
    _chval                                   0x08000a13   Thumb Code    28  _chval.o(.text)
    __vfscanf_char                           0x08000a3d   Thumb Code    20  scanf_char.o(.text)
    _sgetc                                   0x08000a59   Thumb Code    30  _sgetc.o(.text)
    _sbackspace                              0x08000a77   Thumb Code    34  _sgetc.o(.text)
    _strtoul                                 0x08000a99   Thumb Code   158  _strtoul.o(.text)
    __strtod_int                             0x08000b6f   Thumb Code    90  strtod.o(.text)
    __I$use$fp                               0x08000bd5   Thumb Code     0  iusefp.o(.text)
    _float_round                             0x08000bd5   Thumb Code    18  fepilogue.o(.text)
    _float_epilogue                          0x08000be7   Thumb Code    92  fepilogue.o(.text)
    _double_round                            0x08000c43   Thumb Code    30  depilogue.o(.text)
    _double_epilogue                         0x08000c61   Thumb Code   156  depilogue.o(.text)
    __scatterload                            0x08000cfd   Thumb Code    28  init.o(.text)
    __scatterload_rt2                        0x08000cfd   Thumb Code     0  init.o(.text)
    __vfscanf                                0x08000d21   Thumb Code   808  _scanf.o(.text)
    _scanf_real                              0x08001175   Thumb Code     0  scanf_fp.o(.text)
    _scanf_really_real                       0x08001175   Thumb Code   556  scanf_fp.o(.text)
    __aeabi_ul2d                             0x080013ad   Thumb Code    24  dfltul.o(.text)
    __decompress                             0x080013c5   Thumb Code     0  __dczerorl2.o(.text)
    __decompress1                            0x080013c5   Thumb Code    86  __dczerorl2.o(.text)
    ADC_BAT_Test                             0x0800141d   Thumb Code   120  main.o(i.ADC_BAT_Test)
    ADC_ConversionStop_Disable               0x080014b5   Thumb Code    86  stm32f1xx_hal_adc.o(i.ADC_ConversionStop_Disable)
    ADC_Enable                               0x0800150d   Thumb Code   114  stm32f1xx_hal_adc.o(i.ADC_Enable)
    BusFault_Handler                         0x08001589   Thumb Code     2  stm32f1xx_it.o(i.BusFault_Handler)
    CopyAngleDataToUsart1                    0x0800158d   Thumb Code    34  main.o(i.CopyAngleDataToUsart1)
    CopyGpsDataToUsart1                      0x080015bd   Thumb Code   106  main.o(i.CopyGpsDataToUsart1)
    DMA1_Channel2_IRQHandler                 0x08001639   Thumb Code     6  stm32f1xx_it.o(i.DMA1_Channel2_IRQHandler)
    DMA1_Channel3_IRQHandler                 0x08001645   Thumb Code     6  stm32f1xx_it.o(i.DMA1_Channel3_IRQHandler)
    DMA1_Channel4_IRQHandler                 0x08001651   Thumb Code     6  stm32f1xx_it.o(i.DMA1_Channel4_IRQHandler)
    DMA1_Channel5_IRQHandler                 0x0800165d   Thumb Code     6  stm32f1xx_it.o(i.DMA1_Channel5_IRQHandler)
    DMA1_Channel6_IRQHandler                 0x08001669   Thumb Code     6  stm32f1xx_it.o(i.DMA1_Channel6_IRQHandler)
    DMA1_Channel7_IRQHandler                 0x08001675   Thumb Code     6  stm32f1xx_it.o(i.DMA1_Channel7_IRQHandler)
    DataParseCondition                       0x080016ad   Thumb Code   148  roter.o(i.DataParseCondition)
    DataParseLocation                        0x0800174d   Thumb Code   124  roter.o(i.DataParseLocation)
    DataParsePolice                          0x080017cd   Thumb Code   116  roter.o(i.DataParsePolice)
    DebugMon_Handler                         0x08001849   Thumb Code     2  stm32f1xx_it.o(i.DebugMon_Handler)
    EXTI0_IRQHandler                         0x0800184b   Thumb Code     6  stm32f1xx_it.o(i.EXTI0_IRQHandler)
    EXTI1_IRQHandler                         0x08001851   Thumb Code     6  stm32f1xx_it.o(i.EXTI1_IRQHandler)
    EXTI9_5_IRQHandler                       0x08001857   Thumb Code    22  stm32f1xx_it.o(i.EXTI9_5_IRQHandler)
    Error_Handler                            0x0800186d   Thumb Code     4  main.o(i.Error_Handler)
    FireGun                                  0x08001871   Thumb Code    20  main.o(i.FireGun)
    HAL_ADCEx_Calibration_Start              0x08001889   Thumb Code   210  stm32f1xx_hal_adc_ex.o(i.HAL_ADCEx_Calibration_Start)
    HAL_ADC_ConfigChannel                    0x08001961   Thumb Code   240  stm32f1xx_hal_adc.o(i.HAL_ADC_ConfigChannel)
    HAL_ADC_GetValue                         0x08001a5d   Thumb Code     6  stm32f1xx_hal_adc.o(i.HAL_ADC_GetValue)
    HAL_ADC_Init                             0x08001a65   Thumb Code   272  stm32f1xx_hal_adc.o(i.HAL_ADC_Init)
    HAL_ADC_MspInit                          0x08001b85   Thumb Code    76  adc.o(i.HAL_ADC_MspInit)
    HAL_ADC_PollForConversion                0x08001bdd   Thumb Code   304  stm32f1xx_hal_adc.o(i.HAL_ADC_PollForConversion)
    HAL_ADC_Start                            0x08001d19   Thumb Code   184  stm32f1xx_hal_adc.o(i.HAL_ADC_Start)
    HAL_DMA_Abort                            0x08001dd9   Thumb Code    70  stm32f1xx_hal_dma.o(i.HAL_DMA_Abort)
    HAL_DMA_Abort_IT                         0x08001e21   Thumb Code   296  stm32f1xx_hal_dma.o(i.HAL_DMA_Abort_IT)
    HAL_DMA_IRQHandler                       0x08001f51   Thumb Code   552  stm32f1xx_hal_dma.o(i.HAL_DMA_IRQHandler)
    HAL_DMA_Init                             0x08002199   Thumb Code   112  stm32f1xx_hal_dma.o(i.HAL_DMA_Init)
    HAL_DMA_Start_IT                         0x08002215   Thumb Code   112  stm32f1xx_hal_dma.o(i.HAL_DMA_Start_IT)
    HAL_Delay                                0x08002285   Thumb Code    32  stm32f1xx_hal.o(i.HAL_Delay)
    HAL_GPIO_EXTI_Callback                   0x080022a9   Thumb Code    56  main.o(i.HAL_GPIO_EXTI_Callback)
    HAL_GPIO_EXTI_IRQHandler                 0x080022e9   Thumb Code    18  stm32f1xx_hal_gpio.o(i.HAL_GPIO_EXTI_IRQHandler)
    HAL_GPIO_Init                            0x08002301   Thumb Code   462  stm32f1xx_hal_gpio.o(i.HAL_GPIO_Init)
    HAL_GPIO_ReadPin                         0x080024f9   Thumb Code    10  stm32f1xx_hal_gpio.o(i.HAL_GPIO_ReadPin)
    HAL_GPIO_TogglePin                       0x08002503   Thumb Code    16  stm32f1xx_hal_gpio.o(i.HAL_GPIO_TogglePin)
    HAL_GPIO_WritePin                        0x08002513   Thumb Code    10  stm32f1xx_hal_gpio.o(i.HAL_GPIO_WritePin)
    HAL_GetTick                              0x0800251d   Thumb Code     6  stm32f1xx_hal.o(i.HAL_GetTick)
    HAL_IncTick                              0x08002529   Thumb Code    12  stm32f1xx_hal.o(i.HAL_IncTick)
    HAL_Init                                 0x08002539   Thumb Code    32  stm32f1xx_hal.o(i.HAL_Init)
    HAL_InitTick                             0x0800255d   Thumb Code    54  stm32f1xx_hal.o(i.HAL_InitTick)
    HAL_MspInit                              0x0800259d   Thumb Code    52  stm32f1xx_hal_msp.o(i.HAL_MspInit)
    HAL_NVIC_EnableIRQ                       0x080025d9   Thumb Code    26  stm32f1xx_hal_cortex.o(i.HAL_NVIC_EnableIRQ)
    HAL_NVIC_SetPriority                     0x080025f5   Thumb Code    60  stm32f1xx_hal_cortex.o(i.HAL_NVIC_SetPriority)
    HAL_NVIC_SetPriorityGrouping             0x08002635   Thumb Code    26  stm32f1xx_hal_cortex.o(i.HAL_NVIC_SetPriorityGrouping)
    HAL_RCCEx_GetPeriphCLKFreq               0x08002659   Thumb Code   164  stm32f1xx_hal_rcc_ex.o(i.HAL_RCCEx_GetPeriphCLKFreq)
    HAL_RCCEx_PeriphCLKConfig                0x08002711   Thumb Code   224  stm32f1xx_hal_rcc_ex.o(i.HAL_RCCEx_PeriphCLKConfig)
    HAL_RCC_ClockConfig                      0x080027fd   Thumb Code   280  stm32f1xx_hal_rcc.o(i.HAL_RCC_ClockConfig)
    HAL_RCC_GetPCLK1Freq                     0x08002929   Thumb Code    20  stm32f1xx_hal_rcc.o(i.HAL_RCC_GetPCLK1Freq)
    HAL_RCC_GetPCLK2Freq                     0x08002949   Thumb Code    20  stm32f1xx_hal_rcc.o(i.HAL_RCC_GetPCLK2Freq)
    HAL_RCC_GetSysClockFreq                  0x08002969   Thumb Code    64  stm32f1xx_hal_rcc.o(i.HAL_RCC_GetSysClockFreq)
    HAL_RCC_OscConfig                        0x080029bd   Thumb Code   778  stm32f1xx_hal_rcc.o(i.HAL_RCC_OscConfig)
    HAL_SYSTICK_Config                       0x08002cdd   Thumb Code    40  stm32f1xx_hal_cortex.o(i.HAL_SYSTICK_Config)
    HAL_UARTEx_ReceiveToIdle_IT              0x08002d05   Thumb Code    78  stm32f1xx_hal_uart.o(i.HAL_UARTEx_ReceiveToIdle_IT)
    HAL_UARTEx_RxEventCallback               0x08002d55   Thumb Code    68  main.o(i.HAL_UARTEx_RxEventCallback)
    HAL_UART_ErrorCallback                   0x08002da9   Thumb Code     2  stm32f1xx_hal_uart.o(i.HAL_UART_ErrorCallback)
    HAL_UART_IRQHandler                      0x08002dad   Thumb Code   616  stm32f1xx_hal_uart.o(i.HAL_UART_IRQHandler)
    HAL_UART_Init                            0x08003019   Thumb Code   100  stm32f1xx_hal_uart.o(i.HAL_UART_Init)
    HAL_UART_MspInit                         0x0800307d   Thumb Code   834  usart.o(i.HAL_UART_MspInit)
    HAL_UART_Receive_IT                      0x080033f5   Thumb Code    28  stm32f1xx_hal_uart.o(i.HAL_UART_Receive_IT)
    HAL_UART_RxCpltCallback                  0x08003411   Thumb Code    68  main.o(i.HAL_UART_RxCpltCallback)
    HAL_UART_Transmit                        0x08003469   Thumb Code   154  stm32f1xx_hal_uart.o(i.HAL_UART_Transmit)
    HAL_UART_Transmit_DMA                    0x08003505   Thumb Code   106  stm32f1xx_hal_uart.o(i.HAL_UART_Transmit_DMA)
    HAL_UART_TxCpltCallback                  0x0800357d   Thumb Code     2  stm32f1xx_hal_uart.o(i.HAL_UART_TxCpltCallback)
    HAL_UART_TxHalfCpltCallback              0x0800357f   Thumb Code     2  stm32f1xx_hal_uart.o(i.HAL_UART_TxHalfCpltCallback)
    HardFault_Handler                        0x08003581   Thumb Code    26  stm32f1xx_it.o(i.HardFault_Handler)
    KeepmovingRoter                          0x080035a5   Thumb Code   100  roter.o(i.KeepmovingRoter)
    MX_ADC1_Init                             0x0800360d   Thumb Code    72  adc.o(i.MX_ADC1_Init)
    MX_DMA_Init                              0x0800365d   Thumb Code   120  dma.o(i.MX_DMA_Init)
    MX_GPIO_Init                             0x080036d9   Thumb Code   344  gpio.o(i.MX_GPIO_Init)
    MX_UART4_Init                            0x08003849   Thumb Code    48  usart.o(i.MX_UART4_Init)
    MX_UART5_Init                            0x08003881   Thumb Code    48  usart.o(i.MX_UART5_Init)
    MX_USART1_UART_Init                      0x080038b9   Thumb Code    48  usart.o(i.MX_USART1_UART_Init)
    MX_USART2_UART_Init                      0x080038f1   Thumb Code    48  usart.o(i.MX_USART2_UART_Init)
    MX_USART3_UART_Init                      0x08003929   Thumb Code    48  usart.o(i.MX_USART3_UART_Init)
    MemManage_Handler                        0x08003961   Thumb Code     2  stm32f1xx_it.o(i.MemManage_Handler)
    NMI_Handler                              0x08003963   Thumb Code     2  stm32f1xx_it.o(i.NMI_Handler)
    PendSV_Handler                           0x08003965   Thumb Code     2  stm32f1xx_it.o(i.PendSV_Handler)
    ProcessCmdBuffer                         0x08003969   Thumb Code   168  roter.o(i.ProcessCmdBuffer)
    RemovePoliceToRoter                      0x08003a1d   Thumb Code    60  roter.o(i.RemovePoliceToRoter)
    Roter1Error                              0x08003a5d   Thumb Code    68  main.o(i.Roter1Error)
    Roter5Error                              0x08003ab5   Thumb Code    68  main.o(i.Roter5Error)
    RoterAngle1                              0x08003b0d   Thumb Code   108  roter.o(i.RoterAngle1)
    RoterAngle5                              0x08003b81   Thumb Code   108  roter.o(i.RoterAngle5)
    RoterRelativeAngle1                      0x08003bf5   Thumb Code   108  roter.o(i.RoterRelativeAngle1)
    RoterRelativeAngle5                      0x08003c69   Thumb Code   108  roter.o(i.RoterRelativeAngle5)
    SVC_Handler                              0x08003cdd   Thumb Code     2  stm32f1xx_it.o(i.SVC_Handler)
    SendCmdToBuf                             0x08003ce1   Thumb Code   164  roter.o(i.SendCmdToBuf)
    SendDataByUART                           0x08003d99   Thumb Code   132  main.o(i.SendDataByUART)
    SetInching                               0x08003e31   Thumb Code     6  roter.o(i.SetInching)
    SetInit                                  0x08003e39   Thumb Code   270  roter.o(i.SetInit)
    SetPeriodicity                           0x08003f51   Thumb Code    76  roter.o(i.SetPeriodicity)
    SetRestoration                           0x08003fa1   Thumb Code    40  roter.o(i.SetRestoration)
    SetRoterStop                             0x08003fcd   Thumb Code    60  roter.o(i.SetRoterStop)
    SysTick_Handler                          0x0800400d   Thumb Code     4  stm32f1xx_it.o(i.SysTick_Handler)
    SystemClock_Config                       0x08004011   Thumb Code   120  main.o(i.SystemClock_Config)
    SystemInit                               0x08004089   Thumb Code     2  system_stm32f1xx.o(i.SystemInit)
    UART2DataParse                           0x0800408d   Thumb Code   206  roter.o(i.UART2DataParse)
    UART2DataRecv                            0x08004169   Thumb Code    92  roter.o(i.UART2DataRecv)
    UART4_IRQHandler                         0x080041d1   Thumb Code     6  stm32f1xx_it.o(i.UART4_IRQHandler)
    UART5_IRQHandler                         0x080041dd   Thumb Code     6  stm32f1xx_it.o(i.UART5_IRQHandler)
    UART_Start_Receive_IT                    0x08004475   Thumb Code    54  stm32f1xx_hal_uart.o(i.UART_Start_Receive_IT)
    USART1DataRecv                           0x08004525   Thumb Code   344  main.o(i.USART1DataRecv)
    USART1_IRQHandler                        0x08004699   Thumb Code     6  stm32f1xx_it.o(i.USART1_IRQHandler)
    USART2_IRQHandler                        0x080046a5   Thumb Code     6  stm32f1xx_it.o(i.USART2_IRQHandler)
    USART3_IRQHandler                        0x080046b1   Thumb Code     6  stm32f1xx_it.o(i.USART3_IRQHandler)
    UsageFault_Handler                       0x080046bd   Thumb Code     2  stm32f1xx_it.o(i.UsageFault_Handler)
    __aeabi_errno_addr                       0x080046e1   Thumb Code     4  errno.o(i.__aeabi_errno_addr)
    __rt_errno_addr                          0x080046e1   Thumb Code     0  errno.o(i.__aeabi_errno_addr)
    free                                     0x080046e9   Thumb Code    88  mallocr.o(i.__free$realloc)
    malloc                                   0x08004745   Thumb Code    64  mallocr.o(i.__malloc$realloc)
    __read_errno                             0x08004795   Thumb Code     6  errno.o(i.__read_errno)
    __scatterload_copy                       0x080047a1   Thumb Code    14  handlers.o(i.__scatterload_copy)
    __scatterload_null                       0x080047af   Thumb Code     2  handlers.o(i.__scatterload_null)
    __scatterload_zeroinit                   0x080047b1   Thumb Code    14  handlers.o(i.__scatterload_zeroinit)
    __set_errno                              0x080047c1   Thumb Code     6  errno.o(i.__set_errno)
    _is_digit                                0x080047cd   Thumb Code    14  scanf_fp.o(i._is_digit)
    atof                                     0x080047db   Thumb Code    42  atof.o(i.atof)
    calculate_checksum                       0x08004805   Thumb Code    26  main.o(i.calculate_checksum)
    check_sum                                0x0800481f   Thumb Code    30  roter.o(i.check_sum)
    crc16                                    0x0800483d   Thumb Code    56  roter.o(i.crc16)
    hexToBinChar                             0x08004875   Thumb Code    42  roter.o(i.hexToBinChar)
    hex_to_int                               0x080048a1   Thumb Code    28  roter.o(i.hex_to_int)
    insertZerosBetweenCommas                 0x080048c1   Thumb Code    78  gps.o(i.insertZerosBetweenCommas)
    int_to_hex                               0x0800490f   Thumb Code    16  roter.o(i.int_to_hex)
    main                                     0x08004971   Thumb Code   328  main.o(i.main)
    realloc                                  0x08004ae5   Thumb Code   102  mallocr.o(i.realloc)
    receive_gps_data                         0x08004b51   Thumb Code   368  gps.o(i.receive_gps_data)
    strGga_parse                             0x08004ce9   Thumb Code   660  gps.o(i.strGga_parse)
    strGll_parse                             0x08004f89   Thumb Code   508  gps.o(i.strGll_parse)
    strGsa_parse                             0x08005191   Thumb Code   250  gps.o(i.strGsa_parse)
    strGsv_parse                             0x08005291   Thumb Code   134  gps.o(i.strGsv_parse)
    strRHXZ_parse                            0x0800531d   Thumb Code   100  gps.o(i.strRHXZ_parse)
    strRmc_parse                             0x08005395   Thumb Code   658  gps.o(i.strRmc_parse)
    strVtg_parse                             0x08005635   Thumb Code   164  gps.o(i.strVtg_parse)
    strtod                                   0x080056dd   Thumb Code    28  strtod.o(i.strtod)
    AHBPrescTable                            0x0800571c   Data          16  system_stm32f1xx.o(.constdata)
    APBPrescTable                            0x0800572c   Data           8  system_stm32f1xx.o(.constdata)
    __ctype_table                            0x08005734   Data         129  ctype_o.o(.constdata)
    Region$$Table$$Base                      0x080057bc   Number         0  anon$$obj.o(Region$$Table)
    Region$$Table$$Limit                     0x080057dc   Number         0  anon$$obj.o(Region$$Table)
    g_rhxz                                   0x20000000   Data           6  gps.o(.data)
    g_Comm2BufLen                            0x20000008   Data           1  roter.o(.data)
    Roter1Police1                            0x20000009   Data           1  roter.o(.data)
    Roter1Police5                            0x2000000a   Data           1  roter.o(.data)
    g_Roter1Cmd_head                         0x2000000b   Data           1  roter.o(.data)
    g_Roter1Cmd_tail                         0x2000000c   Data           1  roter.o(.data)
    g_Roter5Cmd_head                         0x2000000d   Data           1  roter.o(.data)
    g_Roter5Cmd_tail                         0x2000000e   Data           1  roter.o(.data)
    g_Roter1SendCmdOK                        0x2000000f   Data           1  roter.o(.data)
    g_Roter5SendCmdOK                        0x20000010   Data           1  roter.o(.data)
    stopCalibration1                         0x20000011   Data           1  roter.o(.data)
    stopCalibration5                         0x20000012   Data           1  roter.o(.data)
    HighCheckSum                             0x20000013   Data           1  roter.o(.data)
    LowCheckSum                              0x20000014   Data           1  roter.o(.data)
    g_crc1                                   0x20000017   Data           2  roter.o(.data)
    g_crc5                                   0x20000019   Data           2  roter.o(.data)
    AngleToImpulse1                          0x2000001c   Data           4  roter.o(.data)
    AngleToImpulse5                          0x20000020   Data           4  roter.o(.data)
    g_num                                    0x20000024   Data           4  roter.o(.data)
    g_ImpulseCount1                          0x20000028   Data           4  roter.o(.data)
    g_ImpulseCount5                          0x2000002c   Data           4  roter.o(.data)
    BiteTo                                   0x20000030   Data           4  roter.o(.data)
    g_AngleValue1                            0x20000034   Data           4  roter.o(.data)
    g_AngleValue5                            0x20000038   Data           4  roter.o(.data)
    AngleToImpulse1_1                        0x20000040   Data           4  roter.o(.data)
    AngleToImpulse5_1                        0x20000044   Data           4  roter.o(.data)
    setEnable1                               0x20000048   Data           8  roter.o(.data)
    setEnable5                               0x20000050   Data           8  roter.o(.data)
    setFineFraction1                         0x20000058   Data           8  roter.o(.data)
    setFineFraction5                         0x20000060   Data           8  roter.o(.data)
    setSpeed1                                0x20000068   Data           8  roter.o(.data)
    setSpeed5                                0x20000070   Data           8  roter.o(.data)
    setStartSpeed1                           0x20000078   Data           8  roter.o(.data)
    setStartSpeed5                           0x20000080   Data           8  roter.o(.data)
    setAccTime1                              0x20000088   Data           8  roter.o(.data)
    setAccTime5                              0x20000090   Data           8  roter.o(.data)
    setStopSpeed1                            0x20000098   Data           8  roter.o(.data)
    setStopSpeed5                            0x200000a0   Data           8  roter.o(.data)
    setStopTime1                             0x200000a8   Data           8  roter.o(.data)
    setStopTime5                             0x200000b0   Data           8  roter.o(.data)
    setSave1                                 0x200000b8   Data           8  roter.o(.data)
    setSave5                                 0x200000c0   Data           8  roter.o(.data)
    ReadCondition1                           0x200000c8   Data           8  roter.o(.data)
    ReadCondition5                           0x200000d0   Data           8  roter.o(.data)
    ReadLocation1                            0x200000d8   Data           8  roter.o(.data)
    ReadLocation5                            0x200000e0   Data           8  roter.o(.data)
    ReadPolice1                              0x200000e8   Data           8  roter.o(.data)
    ReadPolice5                              0x200000f0   Data           8  roter.o(.data)
    RemovePolice1                            0x200000f8   Data           8  roter.o(.data)
    RemovePolice5                            0x20000100   Data           8  roter.o(.data)
    RoterStop1                               0x20000108   Data           8  roter.o(.data)
    RoterStop5                               0x20000110   Data           8  roter.o(.data)
    RoterMoveFWD1                            0x20000118   Data           8  roter.o(.data)
    RoterMoveFWD5                            0x20000120   Data           8  roter.o(.data)
    RoterMoveREV1                            0x20000128   Data           8  roter.o(.data)
    RoterMoveREV5                            0x20000130   Data           8  roter.o(.data)
    RoterCondition1                          0x20000138   Data           8  roter.o(.data)
    Police1                                  0x20000140   Data           8  roter.o(.data)
    RoterCondition5                          0x20000148   Data           8  roter.o(.data)
    Police5                                  0x20000150   Data           8  roter.o(.data)
    setPoint1                                0x20000158   Data          13  roter.o(.data)
    setPoint5                                0x20000165   Data          13  roter.o(.data)
    setAngle1                                0x20000172   Data          13  roter.o(.data)
    setAngle5                                0x2000017f   Data          13  roter.o(.data)
    setRelativeAngle1                        0x2000018c   Data          13  roter.o(.data)
    setRelativeAngle5                        0x20000199   Data          13  roter.o(.data)
    setInching1_1                            0x200001a6   Data          13  roter.o(.data)
    setInching1_2                            0x200001b3   Data          13  roter.o(.data)
    setInching5_1                            0x200001c0   Data          13  roter.o(.data)
    setInching5_2                            0x200001cd   Data          13  roter.o(.data)
    g_GpsFlag                                0x200001da   Data           1  main.o(.data)
    g_GPSDataFlag                            0x200001db   Data           1  main.o(.data)
    g_fireGun1                               0x200001dc   Data           1  main.o(.data)
    g_fireGun2                               0x200001dd   Data           1  main.o(.data)
    g_RoterFlag                              0x200001de   Data           1  main.o(.data)
    g_GunFlag                                0x200001df   Data           1  main.o(.data)
    RXUsart1                                 0x200001e0   Data           1  main.o(.data)
    g_Comm2RxBuffer                          0x200001e1   Data           1  main.o(.data)
    Rx1_len                                  0x200001e2   Data           1  main.o(.data)
    Roter1CMDFlag                            0x200001e3   Data           1  main.o(.data)
    Roter5CMDFlag                            0x200001e4   Data           1  main.o(.data)
    GpsSize                                  0x200001e6   Data           2  main.o(.data)
    g_Comm1RxBuffer                          0x200001e8   Data           8  main.o(.data)
    g_FireGunSucess1                         0x200001f0   Data           8  main.o(.data)
    g_FireGunSucess2                         0x200001f8   Data           8  main.o(.data)
    uwTickFreq                               0x20000200   Data           1  stm32f1xx_hal.o(.data)
    uwTickPrio                               0x20000204   Data           4  stm32f1xx_hal.o(.data)
    uwTick                                   0x20000208   Data           4  stm32f1xx_hal.o(.data)
    SystemCoreClock                          0x2000020c   Data           4  system_stm32f1xx.o(.data)
    __microlib_freelist                      0x20000214   Data           4  mvars.o(.data)
    __microlib_freelist_initialised          0x20000218   Data           4  mvars.o(.data)
    g_gga                                    0x20000220   Data         144  gps.o(.bss)
    g_gll                                    0x200002b0   Data          88  gps.o(.bss)
    g_gsa                                    0x20000308   Data          80  gps.o(.bss)
    g_gsv                                    0x20000358   Data          76  gps.o(.bss)
    g_rmc                                    0x200003a8   Data         152  gps.o(.bss)
    g_vtg                                    0x20000440   Data          64  gps.o(.bss)
    g_Roter1CmdAddr                          0x20000480   Data         510  roter.o(.bss)
    g_Roter1CmdBuf                           0x2000067e   Data        3315  roter.o(.bss)
    g_Roter5CmdAddr                          0x20001371   Data         510  roter.o(.bss)
    g_Roter5CmdBuf                           0x2000156f   Data        3315  roter.o(.bss)
    hexToBin                                 0x20002262   Data          17  roter.o(.bss)
    g_Comm5RxBuffer                          0x20002274   Data        1024  main.o(.bss)
    g_Gpsbuffer                              0x20002674   Data        1024  main.o(.bss)
    g_GpsToHead                              0x20002a74   Data          28  main.o(.bss)
    g_AngleToHead                            0x20002a90   Data          10  main.o(.bss)
    g_RoterBuf                               0x20002a9a   Data           9  main.o(.bss)
    hadc1                                    0x20002aa4   Data          48  adc.o(.bss)
    huart4                                   0x20002ad4   Data          72  usart.o(.bss)
    huart5                                   0x20002b1c   Data          72  usart.o(.bss)
    huart1                                   0x20002b64   Data          72  usart.o(.bss)
    huart2                                   0x20002bac   Data          72  usart.o(.bss)
    huart3                                   0x20002bf4   Data          72  usart.o(.bss)
    hdma_usart1_rx                           0x20002c3c   Data          68  usart.o(.bss)
    hdma_usart1_tx                           0x20002c80   Data          68  usart.o(.bss)
    hdma_usart2_rx                           0x20002cc4   Data          68  usart.o(.bss)
    hdma_usart2_tx                           0x20002d08   Data          68  usart.o(.bss)
    hdma_usart3_rx                           0x20002d4c   Data          68  usart.o(.bss)
    hdma_usart3_tx                           0x20002d90   Data          68  usart.o(.bss)
    __heap_base                              0x20002dd8   Data           0  startup_stm32f103xe.o(HEAP)
    __heap_limit                             0x200039d8   Data           0  startup_stm32f103xe.o(HEAP)
    __initial_sp                             0x200045d8   Data           0  startup_stm32f103xe.o(STACK)



==============================================================================

Memory Map of the image

  Image Entry point : 0x08000131

  Load Region LR_IROM1 (Base: 0x08000000, Size: 0x000059fc, Max: 0x00040000, ABSOLUTE, COMPRESSED[0x00005914])

    Execution Region ER_IROM1 (Exec base: 0x08000000, Load base: 0x08000000, Size: 0x000057dc, Max: 0x00040000, ABSOLUTE)

    Exec Addr    Load Addr    Size         Type   Attr      Idx    E Section Name        Object

    0x08000000   0x08000000   0x00000130   Data   RO            3    RESET               startup_stm32f103xe.o
    0x08000130   0x08000130   0x00000000   Code   RO         2626  * .ARM.Collect$$$$00000000  mc_w.l(entry.o)
    0x08000130   0x08000130   0x00000004   Code   RO         2715    .ARM.Collect$$$$00000001  mc_w.l(entry2.o)
    0x08000134   0x08000134   0x00000004   Code   RO         2718    .ARM.Collect$$$$00000004  mc_w.l(entry5.o)
    0x08000138   0x08000138   0x00000000   Code   RO         2720    .ARM.Collect$$$$00000008  mc_w.l(entry7b.o)
    0x08000138   0x08000138   0x00000000   Code   RO         2722    .ARM.Collect$$$$0000000A  mc_w.l(entry8b.o)
    0x08000138   0x08000138   0x00000008   Code   RO         2723    .ARM.Collect$$$$0000000B  mc_w.l(entry9a.o)
    0x08000140   0x08000140   0x00000000   Code   RO         2725    .ARM.Collect$$$$0000000D  mc_w.l(entry10a.o)
    0x08000140   0x08000140   0x00000000   Code   RO         2727    .ARM.Collect$$$$0000000F  mc_w.l(entry11a.o)
    0x08000140   0x08000140   0x00000004   Code   RO         2716    .ARM.Collect$$$$00002712  mc_w.l(entry2.o)
    0x08000144   0x08000144   0x00000024   Code   RO            4    .text               startup_stm32f103xe.o
    0x08000168   0x08000168   0x00000020   Code   RO         2629    .text               mc_w.l(llushr.o)
    0x08000188   0x08000188   0x00000040   Code   RO         2633    .text               mc_w.l(memmovea.o)
    0x080001c8   0x080001c8   0x00000024   Code   RO         2635    .text               mc_w.l(memseta.o)
    0x080001ec   0x080001ec   0x00000018   Code   RO         2637    .text               mc_w.l(strncpy.o)
    0x08000204   0x08000204   0x0000000e   Code   RO         2639    .text               mc_w.l(strlen.o)
    0x08000212   0x08000212   0x00000012   Code   RO         2641    .text               mc_w.l(strcpy.o)
    0x08000224   0x08000224   0x0000001e   Code   RO         2643    .text               mc_w.l(strncmp.o)
    0x08000242   0x08000242   0x00000002   PAD
    0x08000244   0x08000244   0x00000044   Code   RO         2645    .text               mc_w.l(strtok.o)
    0x08000288   0x08000288   0x00000038   Code   RO         2683    .text               mc_w.l(__0sscanf.o)
    0x080002c0   0x080002c0   0x0000014c   Code   RO         2685    .text               mc_w.l(_scanf_int.o)
    0x0800040c   0x0800040c   0x00000070   Code   RO         2687    .text               mc_w.l(strtol.o)
    0x0800047c   0x0800047c   0x0000001a   Code   RO         2689    .text               mc_w.l(atoi.o)
    0x08000496   0x08000496   0x000000b0   Code   RO         2691    .text               mf_w.l(fadd.o)
    0x08000546   0x08000546   0x0000014e   Code   RO         2693    .text               mf_w.l(dadd.o)
    0x08000694   0x08000694   0x000000e4   Code   RO         2695    .text               mf_w.l(dmul.o)
    0x08000778   0x08000778   0x000000de   Code   RO         2697    .text               mf_w.l(ddiv.o)
    0x08000856   0x08000856   0x0000002e   Code   RO         2699    .text               mf_w.l(dscalb.o)
    0x08000884   0x08000884   0x00000022   Code   RO         2701    .text               mf_w.l(dflti.o)
    0x080008a6   0x080008a6   0x0000001a   Code   RO         2703    .text               mf_w.l(dfltui.o)
    0x080008c0   0x080008c0   0x00000028   Code   RO         2705    .text               mf_w.l(ffixui.o)
    0x080008e8   0x080008e8   0x0000003e   Code   RO         2707    .text               mf_w.l(dfixi.o)
    0x08000926   0x08000926   0x00000032   Code   RO         2709    .text               mf_w.l(dfixui.o)
    0x08000958   0x08000958   0x00000026   Code   RO         2711    .text               mf_w.l(f2d.o)
    0x0800097e   0x0800097e   0x00000038   Code   RO         2713    .text               mf_w.l(d2f.o)
    0x080009b6   0x080009b6   0x0000001e   Code   RO         2729    .text               mc_w.l(llshl.o)
    0x080009d4   0x080009d4   0x00000024   Code   RO         2731    .text               mc_w.l(llsshr.o)
    0x080009f8   0x080009f8   0x00000008   Code   RO         2733    .text               mc_w.l(ctype_o.o)
    0x08000a00   0x08000a00   0x00000012   Code   RO         2755    .text               mc_w.l(isspace_o.o)
    0x08000a12   0x08000a12   0x0000001c   Code   RO         2770    .text               mc_w.l(_chval.o)
    0x08000a2e   0x08000a2e   0x00000002   PAD
    0x08000a30   0x08000a30   0x00000028   Code   RO         2772    .text               mc_w.l(scanf_char.o)
    0x08000a58   0x08000a58   0x00000040   Code   RO         2774    .text               mc_w.l(_sgetc.o)
    0x08000a98   0x08000a98   0x0000009e   Code   RO         2776    .text               mc_w.l(_strtoul.o)
    0x08000b36   0x08000b36   0x00000002   PAD
    0x08000b38   0x08000b38   0x0000009c   Code   RO         2778    .text               mc_w.l(strtod.o)
    0x08000bd4   0x08000bd4   0x00000000   Code   RO         2780    .text               mc_w.l(iusefp.o)
    0x08000bd4   0x08000bd4   0x0000006e   Code   RO         2781    .text               mf_w.l(fepilogue.o)
    0x08000c42   0x08000c42   0x000000ba   Code   RO         2783    .text               mf_w.l(depilogue.o)
    0x08000cfc   0x08000cfc   0x00000024   Code   RO         2785    .text               mc_w.l(init.o)
    0x08000d20   0x08000d20   0x0000032c   Code   RO         2789    .text               mc_w.l(_scanf.o)
    0x0800104c   0x0800104c   0x00000360   Code   RO         2791    .text               mc_w.l(scanf_fp.o)
    0x080013ac   0x080013ac   0x00000018   Code   RO         2798    .text               mf_w.l(dfltul.o)
    0x080013c4   0x080013c4   0x00000056   Code   RO         2808    .text               mc_w.l(__dczerorl2.o)
    0x0800141a   0x0800141a   0x00000002   PAD
    0x0800141c   0x0800141c   0x00000098   Code   RO          400    i.ADC_BAT_Test      main.o
    0x080014b4   0x080014b4   0x00000056   Code   RO          931    i.ADC_ConversionStop_Disable  stm32f1xx_hal_adc.o
    0x0800150a   0x0800150a   0x00000002   PAD
    0x0800150c   0x0800150c   0x0000007c   Code   RO          935    i.ADC_Enable        stm32f1xx_hal_adc.o
    0x08001588   0x08001588   0x00000002   Code   RO          707    i.BusFault_Handler  stm32f1xx_it.o
    0x0800158a   0x0800158a   0x00000002   PAD
    0x0800158c   0x0800158c   0x00000030   Code   RO          401    i.CopyAngleDataToUsart1  main.o
    0x080015bc   0x080015bc   0x0000007c   Code   RO          402    i.CopyGpsDataToUsart1  main.o
    0x08001638   0x08001638   0x0000000c   Code   RO          708    i.DMA1_Channel2_IRQHandler  stm32f1xx_it.o
    0x08001644   0x08001644   0x0000000c   Code   RO          709    i.DMA1_Channel3_IRQHandler  stm32f1xx_it.o
    0x08001650   0x08001650   0x0000000c   Code   RO          710    i.DMA1_Channel4_IRQHandler  stm32f1xx_it.o
    0x0800165c   0x0800165c   0x0000000c   Code   RO          711    i.DMA1_Channel5_IRQHandler  stm32f1xx_it.o
    0x08001668   0x08001668   0x0000000c   Code   RO          712    i.DMA1_Channel6_IRQHandler  stm32f1xx_it.o
    0x08001674   0x08001674   0x0000000c   Code   RO          713    i.DMA1_Channel7_IRQHandler  stm32f1xx_it.o
    0x08001680   0x08001680   0x0000002a   Code   RO         1587    i.DMA_SetConfig     stm32f1xx_hal_dma.o
    0x080016aa   0x080016aa   0x00000002   PAD
    0x080016ac   0x080016ac   0x000000a0   Code   RO          198    i.DataParseCondition  roter.o
    0x0800174c   0x0800174c   0x00000080   Code   RO          199    i.DataParseLocation  roter.o
    0x080017cc   0x080017cc   0x0000007c   Code   RO          200    i.DataParsePolice   roter.o
    0x08001848   0x08001848   0x00000002   Code   RO          714    i.DebugMon_Handler  stm32f1xx_it.o
    0x0800184a   0x0800184a   0x00000006   Code   RO          715    i.EXTI0_IRQHandler  stm32f1xx_it.o
    0x08001850   0x08001850   0x00000006   Code   RO          716    i.EXTI1_IRQHandler  stm32f1xx_it.o
    0x08001856   0x08001856   0x00000016   Code   RO          717    i.EXTI9_5_IRQHandler  stm32f1xx_it.o
    0x0800186c   0x0800186c   0x00000004   Code   RO          403    i.Error_Handler     main.o
    0x08001870   0x08001870   0x00000018   Code   RO          404    i.FireGun           main.o
    0x08001888   0x08001888   0x000000d8   Code   RO         1111    i.HAL_ADCEx_Calibration_Start  stm32f1xx_hal_adc_ex.o
    0x08001960   0x08001960   0x000000fc   Code   RO          937    i.HAL_ADC_ConfigChannel  stm32f1xx_hal_adc.o
    0x08001a5c   0x08001a5c   0x00000006   Code   RO          944    i.HAL_ADC_GetValue  stm32f1xx_hal_adc.o
    0x08001a62   0x08001a62   0x00000002   PAD
    0x08001a64   0x08001a64   0x00000120   Code   RO          946    i.HAL_ADC_Init      stm32f1xx_hal_adc.o
    0x08001b84   0x08001b84   0x00000058   Code   RO          570    i.HAL_ADC_MspInit   adc.o
    0x08001bdc   0x08001bdc   0x0000013c   Code   RO          950    i.HAL_ADC_PollForConversion  stm32f1xx_hal_adc.o
    0x08001d18   0x08001d18   0x000000c0   Code   RO          952    i.HAL_ADC_Start     stm32f1xx_hal_adc.o
    0x08001dd8   0x08001dd8   0x00000046   Code   RO         1588    i.HAL_DMA_Abort     stm32f1xx_hal_dma.o
    0x08001e1e   0x08001e1e   0x00000002   PAD
    0x08001e20   0x08001e20   0x00000130   Code   RO         1589    i.HAL_DMA_Abort_IT  stm32f1xx_hal_dma.o
    0x08001f50   0x08001f50   0x00000248   Code   RO         1593    i.HAL_DMA_IRQHandler  stm32f1xx_hal_dma.o
    0x08002198   0x08002198   0x0000007c   Code   RO         1594    i.HAL_DMA_Init      stm32f1xx_hal_dma.o
    0x08002214   0x08002214   0x00000070   Code   RO         1598    i.HAL_DMA_Start_IT  stm32f1xx_hal_dma.o
    0x08002284   0x08002284   0x00000024   Code   RO         1214    i.HAL_Delay         stm32f1xx_hal.o
    0x080022a8   0x080022a8   0x00000040   Code   RO          405    i.HAL_GPIO_EXTI_Callback  main.o
    0x080022e8   0x080022e8   0x00000018   Code   RO         1523    i.HAL_GPIO_EXTI_IRQHandler  stm32f1xx_hal_gpio.o
    0x08002300   0x08002300   0x000001f8   Code   RO         1524    i.HAL_GPIO_Init     stm32f1xx_hal_gpio.o
    0x080024f8   0x080024f8   0x0000000a   Code   RO         1526    i.HAL_GPIO_ReadPin  stm32f1xx_hal_gpio.o
    0x08002502   0x08002502   0x00000010   Code   RO         1527    i.HAL_GPIO_TogglePin  stm32f1xx_hal_gpio.o
    0x08002512   0x08002512   0x0000000a   Code   RO         1528    i.HAL_GPIO_WritePin  stm32f1xx_hal_gpio.o
    0x0800251c   0x0800251c   0x0000000c   Code   RO         1218    i.HAL_GetTick       stm32f1xx_hal.o
    0x08002528   0x08002528   0x00000010   Code   RO         1224    i.HAL_IncTick       stm32f1xx_hal.o
    0x08002538   0x08002538   0x00000024   Code   RO         1225    i.HAL_Init          stm32f1xx_hal.o
    0x0800255c   0x0800255c   0x00000040   Code   RO         1226    i.HAL_InitTick      stm32f1xx_hal.o
    0x0800259c   0x0800259c   0x0000003c   Code   RO          871    i.HAL_MspInit       stm32f1xx_hal_msp.o
    0x080025d8   0x080025d8   0x0000001a   Code   RO         1684    i.HAL_NVIC_EnableIRQ  stm32f1xx_hal_cortex.o
    0x080025f2   0x080025f2   0x00000002   PAD
    0x080025f4   0x080025f4   0x00000040   Code   RO         1690    i.HAL_NVIC_SetPriority  stm32f1xx_hal_cortex.o
    0x08002634   0x08002634   0x00000024   Code   RO         1691    i.HAL_NVIC_SetPriorityGrouping  stm32f1xx_hal_cortex.o
    0x08002658   0x08002658   0x000000b8   Code   RO         1485    i.HAL_RCCEx_GetPeriphCLKFreq  stm32f1xx_hal_rcc_ex.o
    0x08002710   0x08002710   0x000000ec   Code   RO         1486    i.HAL_RCCEx_PeriphCLKConfig  stm32f1xx_hal_rcc_ex.o
    0x080027fc   0x080027fc   0x0000012c   Code   RO         1382    i.HAL_RCC_ClockConfig  stm32f1xx_hal_rcc.o
    0x08002928   0x08002928   0x00000020   Code   RO         1389    i.HAL_RCC_GetPCLK1Freq  stm32f1xx_hal_rcc.o
    0x08002948   0x08002948   0x00000020   Code   RO         1390    i.HAL_RCC_GetPCLK2Freq  stm32f1xx_hal_rcc.o
    0x08002968   0x08002968   0x00000054   Code   RO         1391    i.HAL_RCC_GetSysClockFreq  stm32f1xx_hal_rcc.o
    0x080029bc   0x080029bc   0x00000320   Code   RO         1394    i.HAL_RCC_OscConfig  stm32f1xx_hal_rcc.o
    0x08002cdc   0x08002cdc   0x00000028   Code   RO         1695    i.HAL_SYSTICK_Config  stm32f1xx_hal_cortex.o
    0x08002d04   0x08002d04   0x0000004e   Code   RO         2231    i.HAL_UARTEx_ReceiveToIdle_IT  stm32f1xx_hal_uart.o
    0x08002d52   0x08002d52   0x00000002   PAD
    0x08002d54   0x08002d54   0x00000054   Code   RO          406    i.HAL_UARTEx_RxEventCallback  main.o
    0x08002da8   0x08002da8   0x00000002   Code   RO         2246    i.HAL_UART_ErrorCallback  stm32f1xx_hal_uart.o
    0x08002daa   0x08002daa   0x00000002   PAD
    0x08002dac   0x08002dac   0x0000026c   Code   RO         2249    i.HAL_UART_IRQHandler  stm32f1xx_hal_uart.o
    0x08003018   0x08003018   0x00000064   Code   RO         2250    i.HAL_UART_Init     stm32f1xx_hal_uart.o
    0x0800307c   0x0800307c   0x00000378   Code   RO          636    i.HAL_UART_MspInit  usart.o
    0x080033f4   0x080033f4   0x0000001c   Code   RO         2255    i.HAL_UART_Receive_IT  stm32f1xx_hal_uart.o
    0x08003410   0x08003410   0x00000058   Code   RO          407    i.HAL_UART_RxCpltCallback  main.o
    0x08003468   0x08003468   0x0000009a   Code   RO         2258    i.HAL_UART_Transmit  stm32f1xx_hal_uart.o
    0x08003502   0x08003502   0x00000002   PAD
    0x08003504   0x08003504   0x00000078   Code   RO         2259    i.HAL_UART_Transmit_DMA  stm32f1xx_hal_uart.o
    0x0800357c   0x0800357c   0x00000002   Code   RO         2261    i.HAL_UART_TxCpltCallback  stm32f1xx_hal_uart.o
    0x0800357e   0x0800357e   0x00000002   Code   RO         2262    i.HAL_UART_TxHalfCpltCallback  stm32f1xx_hal_uart.o
    0x08003580   0x08003580   0x00000024   Code   RO          718    i.HardFault_Handler  stm32f1xx_it.o
    0x080035a4   0x080035a4   0x00000068   Code   RO          201    i.KeepmovingRoter   roter.o
    0x0800360c   0x0800360c   0x00000050   Code   RO          571    i.MX_ADC1_Init      adc.o
    0x0800365c   0x0800365c   0x0000007c   Code   RO          611    i.MX_DMA_Init       dma.o
    0x080036d8   0x080036d8   0x00000170   Code   RO          545    i.MX_GPIO_Init      gpio.o
    0x08003848   0x08003848   0x00000038   Code   RO          637    i.MX_UART4_Init     usart.o
    0x08003880   0x08003880   0x00000038   Code   RO          638    i.MX_UART5_Init     usart.o
    0x080038b8   0x080038b8   0x00000038   Code   RO          639    i.MX_USART1_UART_Init  usart.o
    0x080038f0   0x080038f0   0x00000038   Code   RO          640    i.MX_USART2_UART_Init  usart.o
    0x08003928   0x08003928   0x00000038   Code   RO          641    i.MX_USART3_UART_Init  usart.o
    0x08003960   0x08003960   0x00000002   Code   RO          719    i.MemManage_Handler  stm32f1xx_it.o
    0x08003962   0x08003962   0x00000002   Code   RO          720    i.NMI_Handler       stm32f1xx_it.o
    0x08003964   0x08003964   0x00000002   Code   RO          721    i.PendSV_Handler    stm32f1xx_it.o
    0x08003966   0x08003966   0x00000002   PAD
    0x08003968   0x08003968   0x000000b4   Code   RO          202    i.ProcessCmdBuffer  roter.o
    0x08003a1c   0x08003a1c   0x00000040   Code   RO          203    i.RemovePoliceToRoter  roter.o
    0x08003a5c   0x08003a5c   0x00000058   Code   RO          408    i.Roter1Error       main.o
    0x08003ab4   0x08003ab4   0x00000058   Code   RO          409    i.Roter5Error       main.o
    0x08003b0c   0x08003b0c   0x00000074   Code   RO          204    i.RoterAngle1       roter.o
    0x08003b80   0x08003b80   0x00000074   Code   RO          205    i.RoterAngle5       roter.o
    0x08003bf4   0x08003bf4   0x00000074   Code   RO          206    i.RoterRelativeAngle1  roter.o
    0x08003c68   0x08003c68   0x00000074   Code   RO          207    i.RoterRelativeAngle5  roter.o
    0x08003cdc   0x08003cdc   0x00000002   Code   RO          722    i.SVC_Handler       stm32f1xx_it.o
    0x08003cde   0x08003cde   0x00000002   PAD
    0x08003ce0   0x08003ce0   0x000000b8   Code   RO          208    i.SendCmdToBuf      roter.o
    0x08003d98   0x08003d98   0x00000098   Code   RO          411    i.SendDataByUART    main.o
    0x08003e30   0x08003e30   0x00000006   Code   RO          209    i.SetInching        roter.o
    0x08003e36   0x08003e36   0x00000002   PAD
    0x08003e38   0x08003e38   0x00000118   Code   RO          210    i.SetInit           roter.o
    0x08003f50   0x08003f50   0x00000050   Code   RO          211    i.SetPeriodicity    roter.o
    0x08003fa0   0x08003fa0   0x0000002c   Code   RO          212    i.SetRestoration    roter.o
    0x08003fcc   0x08003fcc   0x00000040   Code   RO          213    i.SetRoterStop      roter.o
    0x0800400c   0x0800400c   0x00000004   Code   RO          723    i.SysTick_Handler   stm32f1xx_it.o
    0x08004010   0x08004010   0x00000078   Code   RO          412    i.SystemClock_Config  main.o
    0x08004088   0x08004088   0x00000002   Code   RO         2584    i.SystemInit        system_stm32f1xx.o
    0x0800408a   0x0800408a   0x00000002   PAD
    0x0800408c   0x0800408c   0x000000dc   Code   RO          214    i.UART2DataParse    roter.o
    0x08004168   0x08004168   0x00000068   Code   RO          215    i.UART2DataRecv     roter.o
    0x080041d0   0x080041d0   0x0000000c   Code   RO          724    i.UART4_IRQHandler  stm32f1xx_it.o
    0x080041dc   0x080041dc   0x0000000c   Code   RO          725    i.UART5_IRQHandler  stm32f1xx_it.o
    0x080041e8   0x080041e8   0x00000010   Code   RO         2263    i.UART_DMAAbortOnError  stm32f1xx_hal_uart.o
    0x080041f8   0x080041f8   0x0000004a   Code   RO         2264    i.UART_DMAError     stm32f1xx_hal_uart.o
    0x08004242   0x08004242   0x00000042   Code   RO         2269    i.UART_DMATransmitCplt  stm32f1xx_hal_uart.o
    0x08004284   0x08004284   0x0000000a   Code   RO         2271    i.UART_DMATxHalfCplt  stm32f1xx_hal_uart.o
    0x0800428e   0x0800428e   0x0000004e   Code   RO         2273    i.UART_EndRxTransfer  stm32f1xx_hal_uart.o
    0x080042dc   0x080042dc   0x0000001c   Code   RO         2274    i.UART_EndTxTransfer  stm32f1xx_hal_uart.o
    0x080042f8   0x080042f8   0x000000c2   Code   RO         2275    i.UART_Receive_IT   stm32f1xx_hal_uart.o
    0x080043ba   0x080043ba   0x00000002   PAD
    0x080043bc   0x080043bc   0x000000b8   Code   RO         2276    i.UART_SetConfig    stm32f1xx_hal_uart.o
    0x08004474   0x08004474   0x00000036   Code   RO         2278    i.UART_Start_Receive_IT  stm32f1xx_hal_uart.o
    0x080044aa   0x080044aa   0x00000078   Code   RO         2279    i.UART_WaitOnFlagUntilTimeout  stm32f1xx_hal_uart.o
    0x08004522   0x08004522   0x00000002   PAD
    0x08004524   0x08004524   0x00000174   Code   RO          413    i.USART1DataRecv    main.o
    0x08004698   0x08004698   0x0000000c   Code   RO          726    i.USART1_IRQHandler  stm32f1xx_it.o
    0x080046a4   0x080046a4   0x0000000c   Code   RO          727    i.USART2_IRQHandler  stm32f1xx_it.o
    0x080046b0   0x080046b0   0x0000000c   Code   RO          728    i.USART3_IRQHandler  stm32f1xx_it.o
    0x080046bc   0x080046bc   0x00000002   Code   RO          729    i.UsageFault_Handler  stm32f1xx_it.o
    0x080046be   0x080046be   0x00000020   Code   RO         1697    i.__NVIC_SetPriority  stm32f1xx_hal_cortex.o
    0x080046de   0x080046de   0x00000002   PAD
    0x080046e0   0x080046e0   0x00000008   Code   RO         2763    i.__aeabi_errno_addr  mc_w.l(errno.o)
    0x080046e8   0x080046e8   0x0000005c   Code   RO         2659    i.__free$realloc    mc_w.l(mallocr.o)
    0x08004744   0x08004744   0x00000050   Code   RO         2660    i.__malloc$realloc  mc_w.l(mallocr.o)
    0x08004794   0x08004794   0x0000000c   Code   RO         2764    i.__read_errno      mc_w.l(errno.o)
    0x080047a0   0x080047a0   0x0000000e   Code   RO         2802    i.__scatterload_copy  mc_w.l(handlers.o)
    0x080047ae   0x080047ae   0x00000002   Code   RO         2803    i.__scatterload_null  mc_w.l(handlers.o)
    0x080047b0   0x080047b0   0x0000000e   Code   RO         2804    i.__scatterload_zeroinit  mc_w.l(handlers.o)
    0x080047be   0x080047be   0x00000002   PAD
    0x080047c0   0x080047c0   0x0000000c   Code   RO         2765    i.__set_errno       mc_w.l(errno.o)
    0x080047cc   0x080047cc   0x0000000e   Code   RO         2793    i._is_digit         mc_w.l(scanf_fp.o)
    0x080047da   0x080047da   0x0000002a   Code   RO         2619    i.atof              m_ws.l(atof.o)
    0x08004804   0x08004804   0x0000001a   Code   RO          414    i.calculate_checksum  main.o
    0x0800481e   0x0800481e   0x0000001e   Code   RO          216    i.check_sum         roter.o
    0x0800483c   0x0800483c   0x00000038   Code   RO          217    i.crc16             roter.o
    0x08004874   0x08004874   0x0000002a   Code   RO          218    i.hexToBinChar      roter.o
    0x0800489e   0x0800489e   0x00000002   PAD
    0x080048a0   0x080048a0   0x00000020   Code   RO          219    i.hex_to_int        roter.o
    0x080048c0   0x080048c0   0x0000004e   Code   RO           13    i.insertZerosBetweenCommas  gps.o
    0x0800490e   0x0800490e   0x00000010   Code   RO          220    i.int_to_hex        roter.o
    0x0800491e   0x0800491e   0x00000002   PAD
    0x08004920   0x08004920   0x00000050   Code   RO         2661    i.internal_alloc    mc_w.l(mallocr.o)
    0x08004970   0x08004970   0x00000174   Code   RO          415    i.main              main.o
    0x08004ae4   0x08004ae4   0x0000006c   Code   RO         2662    i.realloc           mc_w.l(mallocr.o)
    0x08004b50   0x08004b50   0x00000198   Code   RO           14    i.receive_gps_data  gps.o
    0x08004ce8   0x08004ce8   0x000002a0   Code   RO           15    i.strGga_parse      gps.o
    0x08004f88   0x08004f88   0x00000208   Code   RO           16    i.strGll_parse      gps.o
    0x08005190   0x08005190   0x00000100   Code   RO           17    i.strGsa_parse      gps.o
    0x08005290   0x08005290   0x0000008c   Code   RO           18    i.strGsv_parse      gps.o
    0x0800531c   0x0800531c   0x00000078   Code   RO           19    i.strRHXZ_parse     gps.o
    0x08005394   0x08005394   0x000002a0   Code   RO           20    i.strRmc_parse      gps.o
    0x08005634   0x08005634   0x000000a8   Code   RO           21    i.strVtg_parse      gps.o
    0x080056dc   0x080056dc   0x0000001c   Code   RO         2623    i.strtod            m_ws.l(strtod.o)
    0x080056f8   0x080056f8   0x00000012   Data   RO         1395    .constdata          stm32f1xx_hal_rcc.o
    0x0800570a   0x0800570a   0x00000012   Data   RO         1487    .constdata          stm32f1xx_hal_rcc_ex.o
    0x0800571c   0x0800571c   0x00000010   Data   RO         2585    .constdata          system_stm32f1xx.o
    0x0800572c   0x0800572c   0x00000008   Data   RO         2586    .constdata          system_stm32f1xx.o
    0x08005734   0x08005734   0x00000081   Data   RO         2734    .constdata          mc_w.l(ctype_o.o)
    0x080057b5   0x080057b5   0x00000003   PAD
    0x080057b8   0x080057b8   0x00000004   Data   RO         2735    .constdata          mc_w.l(ctype_o.o)
    0x080057bc   0x080057bc   0x00000020   Data   RO         2800    Region$$Table       anon$$obj.o


    Execution Region RW_IRAM1 (Exec base: 0x20000000, Load base: 0x080057dc, Size: 0x000045d8, Max: 0x0000c000, ABSOLUTE, COMPRESSED[0x00000138])

    Exec Addr    Load Addr    Size         Type   Attr      Idx    E Section Name        Object

    0x20000000   COMPRESSED   0x00000006   Data   RW           23    .data               gps.o
    0x20000006   COMPRESSED   0x00000002   PAD
    0x20000008   COMPRESSED   0x0000019e   Data   RW          222    .data               roter.o
    0x200001a6   COMPRESSED   0x0000000d   Data   RW          223    .data               roter.o
    0x200001b3   COMPRESSED   0x0000000d   Data   RW          224    .data               roter.o
    0x200001c0   COMPRESSED   0x0000000d   Data   RW          225    .data               roter.o
    0x200001cd   COMPRESSED   0x0000000d   Data   RW          226    .data               roter.o
    0x200001da   COMPRESSED   0x00000026   Data   RW          419    .data               main.o
    0x20000200   COMPRESSED   0x0000000c   Data   RW         1232    .data               stm32f1xx_hal.o
    0x2000020c   COMPRESSED   0x00000004   Data   RW         2587    .data               system_stm32f1xx.o
    0x20000210   COMPRESSED   0x00000004   Data   RW         2646    .data               mc_w.l(strtok.o)
    0x20000214   COMPRESSED   0x00000004   Data   RW         2761    .data               mc_w.l(mvars.o)
    0x20000218   COMPRESSED   0x00000004   Data   RW         2762    .data               mc_w.l(mvars.o)
    0x2000021c   COMPRESSED   0x00000004   Data   RW         2766    .data               mc_w.l(errno.o)
    0x20000220        -       0x00000260   Zero   RW           22    .bss                gps.o
    0x20000480        -       0x00001df3   Zero   RW          221    .bss                roter.o
    0x20002273   COMPRESSED   0x00000001   PAD
    0x20002274        -       0x00000826   Zero   RW          417    .bss                main.o
    0x20002a9a        -       0x00000009   Zero   RW          418    .bss                main.o
    0x20002aa3   COMPRESSED   0x00000001   PAD
    0x20002aa4        -       0x00000030   Zero   RW          572    .bss                adc.o
    0x20002ad4        -       0x00000300   Zero   RW          643    .bss                usart.o
    0x20002dd4   COMPRESSED   0x00000004   PAD
    0x20002dd8        -       0x00000c00   Zero   RW            2    HEAP                startup_stm32f103xe.o
    0x200039d8        -       0x00000c00   Zero   RW            1    STACK               startup_stm32f103xe.o


==============================================================================

Image component sizes


      Code (inc. data)   RO Data    RW Data    ZI Data      Debug   Object Name

       168         20          0          0         48       1549   adc.o
       124          4          0          0          0        746   dma.o
       368         24          0          0          0       1039   gpio.o
      3034        186          0          6        608     490953   gps.o
      1806        264          0         38       2095      11867   main.o
      2382        148          0        466       7667      18351   roter.o
        36          8        304          0       6144        776   startup_stm32f103xe.o
       164         28          0         12          0       6305   stm32f1xx_hal.o
      1264         58          0          0          0       6384   stm32f1xx_hal_adc.o
       216          6          0          0          0       1382   stm32f1xx_hal_adc_ex.o
       198         14          0          0          0      28791   stm32f1xx_hal_cortex.o
      1236         52          0          0          0       4942   stm32f1xx_hal_dma.o
       564         48          0          0          0       4583   stm32f1xx_hal_gpio.o
        60          8          0          0          0        818   stm32f1xx_hal_msp.o
      1248         86         18          0          0       4996   stm32f1xx_hal_rcc.o
       420         32         18          0          0       2441   stm32f1xx_hal_rcc_ex.o
      1930         24          0          0          0      14371   stm32f1xx_hal_uart.o
       220         76          0          0          0      34836   stm32f1xx_it.o
         2          0         24          4          0       1043   system_stm32f1xx.o
      1168         94          0          0        768       4852   usart.o

    ----------------------------------------------------------------------
     16644       1180        396        528      17336     641025   Object Totals
         0          0         32          0          0          0   (incl. Generated)
        36          0          0          2          6          0   (incl. Padding)

    ----------------------------------------------------------------------

      Code (inc. data)   RO Data    RW Data    ZI Data      Debug   Library Member Name

        42          0          0          0          0         84   atof.o
        28          0          0          0          0         80   strtod.o
        56          8          0          0          0         84   __0sscanf.o
        86          0          0          0          0          0   __dczerorl2.o
        28          0          0          0          0         68   _chval.o
       812          4          0          0          0        112   _scanf.o
       332          0          0          0          0         96   _scanf_int.o
        64          0          0          0          0         84   _sgetc.o
       158          0          0          0          0         92   _strtoul.o
        26          0          0          0          0         80   atoi.o
         8          4        133          0          0         68   ctype_o.o
         0          0          0          0          0          0   entry.o
         0          0          0          0          0          0   entry10a.o
         0          0          0          0          0          0   entry11a.o
         8          4          0          0          0          0   entry2.o
         4          0          0          0          0          0   entry5.o
         0          0          0          0          0          0   entry7b.o
         0          0          0          0          0          0   entry8b.o
         8          4          0          0          0          0   entry9a.o
        32         16          0          4          0        204   errno.o
        30          0          0          0          0          0   handlers.o
        36          8          0          0          0         68   init.o
        18          0          0          0          0         76   isspace_o.o
         0          0          0          0          0          0   iusefp.o
        30          0          0          0          0         68   llshl.o
        36          0          0          0          0         68   llsshr.o
        32          0          0          0          0         68   llushr.o
       360         30          0          0          0        356   mallocr.o
        64          0          0          0          0         76   memmovea.o
        36          0          0          0          0        108   memseta.o
         0          0          0          8          0          0   mvars.o
        40          8          0          0          0         84   scanf_char.o
       878         12          0          0          0        216   scanf_fp.o
        18          0          0          0          0         68   strcpy.o
        14          0          0          0          0         68   strlen.o
        30          0          0          0          0         80   strncmp.o
        24          0          0          0          0         76   strncpy.o
       156         12          0          0          0        120   strtod.o
        68          6          0          4          0         80   strtok.o
       112          0          0          0          0         88   strtol.o
        56          0          0          0          0         88   d2f.o
       334          0          0          0          0        148   dadd.o
       222          0          0          0          0        100   ddiv.o
       186          0          0          0          0        176   depilogue.o
        62          0          0          0          0         80   dfixi.o
        50          0          0          0          0         76   dfixui.o
        34          0          0          0          0         76   dflti.o
        26          0          0          0          0         76   dfltui.o
        24          0          0          0          0         76   dfltul.o
       228          0          0          0          0         96   dmul.o
        46          0          0          0          0         80   dscalb.o
        38          0          0          0          0         68   f2d.o
       176          0          0          0          0        140   fadd.o
       110          0          0          0          0        168   fepilogue.o
        40          0          0          0          0         68   ffixui.o

    ----------------------------------------------------------------------
      5316        116        136         16          0       4336   Library Totals
        10          0          3          0          0          0   (incl. Padding)

    ----------------------------------------------------------------------

      Code (inc. data)   RO Data    RW Data    ZI Data      Debug   Library Name

        70          0          0          0          0        164   m_ws.l
      3604        116        133         16          0       2656   mc_w.l
      1632          0          0          0          0       1516   mf_w.l

    ----------------------------------------------------------------------
      5316        116        136         16          0       4336   Library Totals

    ----------------------------------------------------------------------

==============================================================================


      Code (inc. data)   RO Data    RW Data    ZI Data      Debug   

     21960       1296        532        544      17336     636233   Grand Totals
     21960       1296        532        312      17336     636233   ELF Image Totals (compressed)
     21960       1296        532        312          0          0   ROM Totals

==============================================================================

    Total RO  Size (Code + RO Data)                22492 (  21.96kB)
    Total RW  Size (RW Data + ZI Data)             17880 (  17.46kB)
    Total ROM Size (Code + RO Data + RW Data)      22804 (  22.27kB)

==============================================================================

