:020000040800F2
:10000000D845002045010008633900088135000803
:100010006139000889150008BD460008000000008D
:10002000000000000000000000000000DD3C0008AF
:100030004918000800000000653900080D4000085C
:100040005F0100085F0100085F0100085F01000810
:100050005F0100085F0100084B18000851180008F4
:100060005F0100085F0100085F0100085F010008F0
:100070003916000845160008511600085D160008DC
:1000800069160008751600085F0100085F01000886
:100090005F0100085F0100085F01000857180008B1
:1000A0005F0100085F0100085F0100085F010008B0
:1000B0005F0100085F0100085F0100085F010008A0
:1000C0005F0100085F0100085F0100085F01000890
:1000D0005F01000899460008A5460008B1460008DF
:1000E0005F0100085F0100085F0100085F01000870
:1000F0005F0100085F0100085F0100085F01000860
:100100005F0100085F0100085F0100085F0100084F
:10011000D1410008DD4100085F0100085F010008CF
:100120005F0100085F0100085F0100085F0100082F
:10013000DFF80CD000F0E2FD0048004771490008EC
:10014000D84500200648804706480047FEE7FEE7FE
:10015000FEE7FEE7FEE7FEE7FEE7FEE7FEE7FEE777
:100160008940000831010008202A04DB203A21FAE6
:1001700002F00021704721FA02F3D040C2F12002C0
:10018000914008431946704710B5431A934209D26B
:100190008318881803E010F8011D03F8011D521E92
:1001A000F9D210BD40EA01039B0703D009E008C95A
:1001B000121F08C0042AFAD203E011F8013B00F82C
:1001C000013B521EF9D210BDD2B201E000F8012B62
:1001D000491EFBD270470022F6E710B513460A46C7
:1001E00004461946FFF7F0FF204610BD10B504463F
:1001F00004E00B7800F8013B03B1491C521EF8D211
:10020000204610BD421C10F8011B0029FBD1801AAA
:100210007047034611F8012B00F8012B002AF9D191
:100220001846704730B505460020034600E05B1CC9
:10023000934205D2EC5CC85C201A01D1002CF6D1A7
:1002400030BD000070B50F4D00B92868002412E0E1
:100250000A4602E09E4203D0521C1378002BF9D1CB
:10026000DAB2224305D02BB124B1002100F8011BE2
:1002700004E00446401C0678002EE9D128602046A0
:1002800070BD0000100200200FB400B58DB010A9A1
:1002900009900B9000914FF0FF300A9000200C90D5
:1002A00005480690054807906A4609A80F9900F08E
:1002B000C5FB0DB05DF814FB590A0008770A000869
:1002C0002DE9FF5F1D464FF0FF3BD5E90146914602
:1002D0005F464FF00008A9697F1C01988847296A8A
:1002E000824688470028F6D1BAF1FF3F0CD024F4AB
:1002F000C064002E19DD600614D5BAF12B0F09D0A9
:10030000BAF12D0F0ED103E0584604B0BDE8F09FBE
:1003100044F48064A9697F1C01988847761E824650
:10032000002E02DDBAF1300F03D0B9F1000F26D054
:1003300032E0A969761E44F400747F1C0198884756
:100340008246002E05DDBAF1780F06D0BAF1580FBB
:1003500003D0B9F1000F10D01EE0B9F1000F02D0A8
:10036000B9F1100F18D1A969761E24F400747F1C0E
:10037000019888478246102002E0082000E00A2009
:10038000814609E008FB0908A969761E44F4007457
:100390007F1C019888478246002E05DD494650465D
:1003A00000F037FB0028EDDAE96901988847A005DD
:1003B00002D46FF00100A8E7E00725D1600613D54D
:1003C000600502D5C8F1000000E0404629680A1D1A
:1003D0002A600968220501D5087015E0220701D5B9
:1003E000088011E008600FE02868011D296000689E
:1003F000210502D580F8008006E0210702D5A0F88B
:10040000008001E0C0F8008038467EE72DE9F04723
:1004100091460F4680460446002614F8015B2DB134
:1004200000F0EAFA0068405DC007F6D12B2D02D03B
:100430002D2D18D0641E4A463946204600F02CFB6C
:1004400027B13968A14201D1C7F8008071054FF08A
:1004500002040BD54042002803DD04F041F904609A
:10046000A007BDE8F08746F48066E4E70028F8DAE4
:1004700004F036F904606FF00040F2E770B506460C
:1004800004F02EF9046805460A2200213046FFF7E1
:10049000BDFF2C6070BDF0B480EA0102D40F4200B1
:1004A000B2EB410F02D20246084611464A0042D042
:1004B000C30DDDB2C1F3C752AD1A202D35DAC1F339
:1004C000160141F4000204B15242C5F1200602FABD
:1004D00006F12A411044B3EBD05F23D0C4B1012D03
:1004E000A0EBC35009DCF0BC4FF0004202EAC3525B
:1004F000DBB200F5000000F076BB400000F1807038
:1005000000EBC350A0F1807040EAD170490009E0CF
:10051000490841EAC071A0EBC35000F50000400853
:1005200000EBC350F0BC00F055BB6142012202EB6E
:100530004101001BF6E7F0BC704781F00041AAE7DB
:1005400080F00040A7E72DE9FE4F804681EA0300D6
:10055000C00F0C46009021F0004123F00045B8EB9D
:100560000200A94105D24046214690461C460B4652
:10057000024623F00040104347D0270DC7F30A007E
:10058000C3F30A510290401A019040286BDAC3F37A
:10059000130040F4801B0098924620B10023D2EB58
:1005A000030A63EB0B0B01985946C0F14002504619
:1005B00000F001FA06460D4650465946019A00F0F1
:1005C00009FA10EB08006141002487EA115284EA1D
:1005D000E7731A4340D0009A62B3019A012A4FEAA6
:1005E000075215DC001B61EB02014FF0004202EAEA
:1005F0000752CDE90042001C41F5801132462B46DE
:1006000000F02EFB03B0BDE8F08F40462146F9E72D
:10061000001B61EB0201001C41F5801300185B41D7
:100620002018A2F5001747EB030140EAD570B61970
:100630006D4111E06D084FEA360645EAC0754FEA94
:100640000752001B61EB0201001C41F580114908B3
:100650004FEA30000019514132462B4603B0BDE845
:10066000F04F00F0EEBA0098012240000023D0EBDA
:10067000020263EBE073009821464FEAE074B8EBA6
:10068000000061EB0401E9E783F000435BE781F0E0
:10069000004158E72DE9FE4F81EA030404F00044CD
:1006A00021F0004100944FF0000B23F0004350EA8A
:1006B00001045ED052EA03045BD0C3F30A54C1F3D1
:1006C0000A552C44A4F2F3340194A0FB0254C1F364
:1006D000130141F48011C3F3130343F4801301FBAE
:1006E000024400FB034E840A970A44EA815447EA15
:1006F0008357A4FB076802958D0A05FB07854FEA1F
:10070000932C04FB0C542705029D4FEA065847EA38
:100710001637B5EB08056EEB070C870E920E47EA0D
:10072000811742EA8312A7FB0201B6EB0B0164EBCF
:1007300000042B0D43EA0C335E1844EB1C50DA46E0
:100740005146E7FB0201C5F313044FEA0B3343EABA
:1007500014534FEA0432019C43EA0603A4F10C044B
:100760000294009CCDE900B400F07AFA03B0BDE831
:10077000F08F00200146F9E72DE9F04D81EA0304EE
:1007800004F0004B21F0004514464FF0000A23F01E
:10079000004150EA050220D054EA01021DD0C5F301
:1007A0000A570246C5F31303C1F31300C1F30A56F7
:1007B00040F4801543F48013A7EB0608101BD646BF
:1007C00008F2FD3873EB050002D308F1010801E0DF
:1007D00092185B41B8F1000F03DA00200146BDE832
:1007E000F08D00204FF48011064684460EE0171B62
:1007F00073EB050705D3121B63EB050306434CEAB5
:10080000010C49084FEA300092185B4150EA010799
:10081000EDD152EA030012D082EA040083EA050116
:10082000084305D0101BAB4106D20122002306E08D
:1008300000224FF0004302E06FF0010253101AEB68
:1008400006004CEB085110EB0A0041EB0B01BDE830
:10085000F04D00F0F6B970B521F0004303430CD021
:10086000C1F30A550024D5EB040564EB0403D61745
:10087000AD1AB34102DB0020014670BD201841EBE8
:10088000025170BD0EB5C10F80EAE0700844CA077E
:10089000002140F233438DE80E000A460B4600F07B
:1008A000DFF903B000BD0EB540F2334102910021E3
:1008B000CDE900110A460B4600F0D2F903B000BDA5
:1008C00020F00040C10DC0F3160040F400007F2965
:1008D00001DA00207047962903DCC1F19601C84077
:1008E000704796398840704770B5C1F30A5201F0DD
:1008F00000450024C1F3130140F2FF3341F480119D
:100900009A4201DA002070BD40F233439A42A2F2CB
:10091000334203DC5242FFF727FC00E090402C43B7
:10092000F1D0404270BDC1F30A5210B5C1F31301BA
:1009300040F2FF3341F480119A4201DA002010BDE9
:1009400040F233439A42A2F2334203DC5242FFF7B1
:100950000BFC10BD904010BD00F0004230F0004094
:100960000AD0C10D01F56071C0F3160042EA0151D1
:10097000C20840071143704700200146704701F04C
:10098000004330B421F0004150EA010206D00A0DC4
:10099000A2F56072C1F31301002A02DC30BC002012
:1009A0007047440F44EAC104C100E01830BC00EBBA
:1009B000C25000F00FB9202A04DB203A00FA02F1FD
:1009C000002070479140C2F1200320FA03F319433D
:1009D00090407047202A06DBCB17203A41FA02F0FC
:1009E00043EAE07306E041FA02F3D040C2F120028C
:1009F000914008431946704700487047B8570008AF
:100A000010B50446FFF7F8FF0068005D00F0010034
:100A100010BD3A2800D2303820F02002412A01D3FC
:100A2000A2F13700884201D34FF0FF307047000039
:100A3000026811441378016018467047D160044978
:100A400051610449116200211161114600F068B939
:100A5000310A0008010A0008426842B1016811F831
:100A6000013B23B1521EC0E9001218467047012114
:100A7000C160881E704742685AB1C368016843B9B3
:100A800083688B4205D0491E521CC0E90012002029
:100A900070474FF0FF3070472DE9F05F82460078D5
:100AA000002715468B460AF10104B946302801D0CB
:100AB0009DB113E014F8010B0127782803D05828C2
:100AC00001D045B10AE00DB1102D07D10027102546
:100AD00014F8010B02E0082500E00A250026B046C4
:100AE0000EE005FB080005FB06F1012701EB1046AF
:100AF0001FFA80F8B6F5803F00D3B94614F8010B11
:100B00002946FFF786FF0028EBDABBF1000F05D07E
:100B10000FB1641E00E05446CBF80040B9F1000F5D
:100B200006D003F0DDFD02210160C81EBDE8F09F84
:100B300048EA0640FAE700000FB4002300B589B088
:100B40000CA900910B996FF00042CB601E4B0693ED
:100B50001E4B07930423CDE901321D4A0892024639
:100B60006B46002000F006FB09B05DF814FB70B581
:100B700086B006464FF0FF300091CDE9010100201C
:100B800015460C4604903246694604A8FFF7D4FF88
:100B900002460498211825B108B1084600E0204615
:100BA0002860049800280DD0002A02DD00988842B1
:100BB00008D0081B0094CDE901043246694604A818
:100BC000FFF7BAFF06B070BD590A0008770A00089F
:100BD000010A00080029A8BF7047401C490008BF4F
:100BE00020F00100704710B4B0FA80FC00FA0CF05D
:100BF00050EA010404BF10BC704749B1CCF1200495
:100C000021FA04F411FA0CF118BF01212143084321
:100C1000A3EB0C01CB1D4FEA00614FEA102042BF4D
:100C2000002010BC704700EBC35010440029A4BF43
:100C300010BC7047401C490008BF20F0010010BCE8
:100C4000704710B5141E73F1000408DA401C41F11E
:100C5000000192185B411A4301D120F0010010BD40
:100C60002DE9F04D92469B4611B1B1FA81F202E0B6
:100C7000B0FA80F220329046FFF79DFE04460F4600
:100C800040EA0A0041EA0B0153465A46084313D092
:100C9000114653EA010019D0C8F140025046FFF74F
:100CA00063FA05460E46504659464246FFF783FE14
:100CB000084305D0012004E020463946BDE8F08D08
:100CC0000020054346EAE0762C4337430A98630543
:100CD000E40AA0EB08000022FD0A44EA47540A3067
:100CE00002D500200146E9E7010510196941DDE957
:100CF000084500196941BDE8F04DA2E7064C074DD3
:100D000006E0E06840F0010394E8070098471034DB
:100D1000AC42F6D3FFF710FABC570008DC570008C6
:100D20002DE9F34F8BB04FF0000801F10C000C4699
:100D30004FF0010B46460DF1080A0190626901214E
:100D400001989047051E2DD0252D2CD0216A88476B
:100D5000C0B16269012101989047216A8847002843
:100D6000F7D1411E62690198904700E0761CA169A5
:100D70000B988847216A88470028F7D1E1690B98CA
:100D80008847DBE7A1690B9888470746A84201D14D
:100D9000761CD3E7E1690B9888477F1C02D1B8F134
:100DA000000F6FD046E1002762693D463946019841
:100DB00090472A2804D162690121019890470125B2
:100DC000DFF884926269012101989047A0F1300117
:100DD0000A290AD24F45E5DC07EB870100EB410702
:100DE000303FDFD445F01005ECE7E90601D46FF0A1
:100DF00000476C280AD04C2814D0682815D06A28DF
:100E00000DD074281CD07A281AD01DE06269012107
:100E1000019890476C2802D045F0040514E045F095
:100E200002050DE045F020050AE062690121019804
:100E30009047682802D045F0080505E045F40065B4
:100E40006269012101989047C4E9015765283DD0A6
:100E500019DC58287AD00CDC452837D004DC25284A
:100E600026D0412831D131E046282FD047282CD137
:100E70002CE05B2877D0612828D063287CD06428B8
:100E800023D15AE0D0E06F2848D008DC66281DD076
:100E900067281BD0692821D06E2816D127E070283A
:100EA00045D0732868D0752847D078280DD14DE0FB
:100EB000A1690B988847054625283FF469AFE16989
:100EC0000B9888476D1C3FF46AAFB3E023466A462F
:100ED0006FF001000B9900F04DF99EE045F04000E5
:100EE0006060A80723464FF0000236D43EE0E807D2
:100EF0007FF447AF2068011D21600068290501D5F6
:100F000006701BE7290701D5068017E7A90703D557
:100F1000F117C0E9006111E706600FE745F04000F6
:100F20006060A80723464FF0080216D41EE040F682
:100F30000E0125EA0100606016E045F040006060A7
:100F4000A80723464FF00A0207D40FE045F04000FF
:100F50006060A80708D5234610226FF001000B99A6
:100F6000AFF3008059E007E0234610226FF0010044
:100F70000B99FFF7A5F950E04FF000094F464B469B
:100F8000632802D05B2806D040E0E80601D40120A7
:100F9000A06001273AE062690121019890475E282C
:100FA00005D14FF0010962694946019890472169CE
:100FB00039B900210A46534643F82120491C082923
:100FC000FADBB0B3216969B9C11700EBD1625311E3
:100FD0000AEB830122F01F02821A01200B68904065
:100FE00003430B6062690121019890475D28E8D1B5
:100FF000B9F1000F09D00020514651F82020D2430A
:1010000041F82020401C0828F7DB02AB224600975D
:101010006FF001000B99AFF3008000280CDA401C40
:1010200008D1BBF1000F05D04FF0FF300DB0BDE887
:10103000F08FFFE74046F9E7E90701D108F1010821
:1010400006444FF0000B79E6CCCCCC0C2DE9FF4FD9
:10105000087883B09946FF2805D0491C2D2804D074
:101060000024002008E000200BE00124F9E700EB59
:10107000800003EB4000491C0B78FF2BF7D104B133
:10108000404200230293147819461D462D2C01D0AE
:101090002B2C04D1521C2D2C13D000240294AA46D0
:1010A0001478FF2C0FD00A25A3FB057801FB0581DE
:1010B0004FF0000C03FB0C11521CE3194AEB010129
:1010C000EEE70124EAE7814453EA010002D019F572
:1010D000C87F06DA03980021C0E9001107B0BDE817
:1010E000F08F0025AE4E2F46DFF8B882184600F08C
:1010F0005DF9CDE90001B9F1000002DAC9F100049F
:1011000000E004460023A74A1AEB030B42EB045A03
:1011100012E0E00707D02A46334638464146FFF73B
:10112000B9FA074688462A46334610461946FFF75D
:10113000B1FA05460E466410002CEAD1DDE9000143
:10114000B9F1000F5A46534606DAFFF715FB3A4647
:101150004346FFF711FB05E0FFF79CFA3A4643468A
:10116000FFF798FA029A0AB181F00041039AC2E9A6
:101170000001B3E72DE9FF4F1F468DB0D7E90146C7
:101180004FF0FF382E2045464FF000090B90B9690B
:101190006D1C0E988847396A824688470028F6D128
:1011A000BAF1FF3F0AD024F4D064002E11DDBAF169
:1011B0002B0F08D0BAF12D0F0BD102E0404611B031
:1011C0008DE744F48064B9696D1C0E9888478246A7
:1011D000761E6946600501D52D2000E02B208DF894
:1011E000000001F1010B0DF1200809E0B9696D1C47
:1011F0000E98884782460F9844F40074761E056066
:10120000002E02DDBAF1300FF0D00B998A453ED1A5
:1012100044F0800406E00F99681CA9F1010944F428
:1012200000740860B9696D1C761E0E988847824666
:101230003028F0D02BE00B998A4505D1200603D445
:1012400044F08004761E18E0504603F0BFFA08B35D
:101250000DF11301761E44F400748B4508D2AAF1F7
:1012600030000BF8010B200607D5A9F1010003E0BF
:10127000200602D409F101008146A00502D50F998C
:10128000681C0860B9696D1C0E9888478246002E5C
:10129000D1DC53E0002E51DDBAF1650F02D0BAF176
:1012A000450F4BD1A00549D5B9696D1C24F4407494
:1012B000761E0E9888478246002E0CDD2B2804D01F
:1012C000BAF12D0F07D144F48074B9696D1C0E98E2
:1012D00088478246761EE00501D52D2100E02B21AE
:1012E00008F8011BCDF82C8021E00DF12901761EB4
:1012F00044F4007488450CD2AAF1300010F0FF00CD
:1013000088F8000002D10B99884509D908F1010835
:1013100006E0E00501D5244801E042F20F70814665
:10132000B9696D1C0E98884782460F980560002E9B
:1013300004DD504603F04AFA0028D6D1F9690E9828
:101340008847FF208BF8000088F8000000200690F6
:1013500007904B466A4608A906A8FFF777FEA00546
:1013600002D46FF001002AE714F0240F0AD0E0073E
:1013700014D1DDE906123868031D3B600068C0E93E
:1013800000120BE0DDE90601FFF7F9FA0146E0077C
:1013900004D13868021D3A600068016028460EE7F3
:1013A000000014400000F03FF1D8FFFF0EB540F2FE
:1013B000334202920022CDE900221346FFF750FC8F
:1013C00003B000BD70B58C1810F8015B15F0070371
:1013D00001D110F8013B2A1106D110F8012B03E0CE
:1013E00010F8016B01F8016B5B1EF9D12B0705D4D6
:1013F0000023521E0DD401F8013BFAE710F8013B1F
:10140000CB1A921C03E013F8015B01F8015B521E3A
:10141000F9D5A142D8D3002070BD000070B50025D9
:101420002C461C4800F078FC64211A4800F0D6FBDA
:1014300018B9184800F012FB0544641CE4B20A2CE9
:10144000EFD30A20B5FBF0F0FFF72DFA4FF066322C
:10145000114BFFF71FF96FF00B02FFF7FCF90F4C70
:101460000F4B2246FFF716F9FFF789FA0D49FFF7F0
:1014700064F8FFF771FA22460B4BFFF77DF9002263
:101480000A4BFFF707F9FFF77AFAFFF719FA08494D
:10149000C88070BDA42A002066660A40CDCCCCCCA2
:1014A000CCCC21400000A841CCCC204000005940C9
:1014B000902A002070B5044600688168C943C907B6
:1014C00017D1816821F00101816001F027F80546FC
:1014D0000AE000BF01F022F8401B022804D920686E
:1014E0008068C043C00706D020688068C043C0073A
:1014F000F0D0002070BDA06A40F01000A062E06A49
:1015000040F00100E062012070BD0000F8B5002647
:101510000446009600688168C943C9072DD08168D8
:1015200041F001018160164816490068B0FBF1F0F6
:1015300000E0401E00900028FBD100F0EFFF0546C0
:1015400016E000BF00F0EAFF401B022810D9206817
:101550008068C043C0070BD0A06A40F01000A062B2
:10156000E06A40F00100E06284F824600120F8BDE8
:1015700020688068C043C007E4D10020F8BD0000A7
:101580000C02002040420F00FEE7000010B5084C9E
:101590004AF6022004212080064800886080064820
:1015A0000088A080204603F02DF9208110BD0000A6
:1015B000902A0020340000203800002010B51A4C7A
:1015C0004AF6012020801948B0F880106180B0F8F8
:1015D0007C10A180B0F87810E180818A2181018B94
:1015E0006181818BA181008CE081114890F83410D9
:1015F0002182818D10F8282F41EA0221618290F822
:101600002810A182018C007F41EA00200949E08274
:10161000D1E91001FFF787F920830D21204603F05F
:10162000F1F8608310BD0000742A0020A803002098
:101630002002002008030020014800F089BC0000BF
:10164000902D0020014800F083BC00004C2D0020AC
:10165000014800F07DBC0000802C0020014800F013
:1016600077BC00003C2C0020014800F071BC000059
:10167000C42C0020014800F06BBC0000082D0020A5
:1016800030B590F840500124AC40C56B6C600468E4
:1016900063604368102B036803D099600068C260E0
:1016A00030BD9A600068C16030BD0000F0B5002711
:1016B000234C1125234E01290ED005292ED1017965
:1016C000C078324603F0D6F8B17904F5A07030291D
:1016D00025D0312927D023E00179C078194A03F0B9
:1016E000C9F8B1791848302902D0312904D000E076
:1016F000F1790546477105E0F1793129F9D129469B
:10170000054641710E4B10480B335A1C062100BF91
:1017100003F085F8207BA871E07AE871F0BDF179DB
:101720000546477105E0F1793129F9D12946054689
:101730004171034B0B335A1C062102F59A70E7E7FF
:1017400008000020622200203801002010B51E4A47
:101750000129A2F1280412D005290FD14179117075
:1017600081795170C17891700079D070104603F082
:1017700097F8D4E90610B0FBF1F0206310BD417971
:10178000117081795170C17891700079D0700E48D4
:1017900003F086F8607A88B1E0696063607B401C82
:1017A000C0B26073012800F1010001D8607305E048
:1017B000C0B26073052801D1002060726169E069E0
:1017C000B0FBF1F0E06210BD30000020F0B5002663
:1017D00001271B4C012915D0052928D104F5A47532
:1017E000C17829710079687104F10B035A1C062134
:1017F000284603F014F8207BA871E07AE871287974
:10180000D0B917E00F4DC178A5F22D1329710079D9
:1018100068715A1C0621284603F001F8207BA87144
:10182000E07AE871287908B9687908B16770F0BD85
:101830006670F0BD687908B1A770F0BDA670F0BD04
:1018400008000020400100207047012000F04CBD3E
:10185000022000F049BD10B54FF4807000F044FD47
:10186000BDE810404FF4007000F03EBD72B6FEE7D8
:101870008178222905D1C078222802D1014901208E
:1018800048717047DA010020F8B50025044600953C
:1018900090F8240001280BD0012084F82400204671
:1018A000FFF708FE2046FFF731FE060002D050E0A9
:1018B0000220F8BDA06A20F4885040F00200A06227
:1018C000022000F0C9FE25490968B1FBF0F0400094
:1018D00000E0401E00900028FBD12068816841F0A4
:1018E0000801816000F01AFE074608E000F016FECD
:1018F000C01B0A2803D920688068000715D4206817
:1019000080680007F2D42068816841F0040181609A
:1019100000F004FE074612E000F000FEC01B0A289B
:101920000DD920688068400709D5A06A20F0020020
:1019300040F01000A06284F824500120F8BD206817
:1019400080684007E8D4A06A20F0020040F001005F
:10195000A06284F824503046F8BD00000C0200203C
:10196000F8B50024009490F824202546012A12D0CE
:10197000012280F824204A681F23072A0DD2066816
:10198000776B521E02EB820293409F430B68934099
:101990001F43776319E00220F8BD06680D2A0AD2BA
:1019A000376BD21F02EB820293409F430B68934038
:1019B0001F43376309E0F76A0D3A02EB8202934056
:1019C0009F430B6893401F43F7620A68072306682A
:1019D0000A2A0AD3F7680A3A02EB420293409F436D
:1019E0008B6893401F43F76008E0376902EB4202BF
:1019F00093409F438B6893401F4337610A68102AC6
:101A000001D0112A20D1124B02689A4217D1936853
:101A10001B0219D4936843F40003936009681029EA
:101A200012D10C490C4A0968B1FBF2F101EB8101BA
:101A3000490000E0491E00910029FBD104E0816AC1
:101A400041F020018162012480F824502046F8BD35
:101A5000002401400C02002040420F000068C06CCE
:101A6000704700002DE9F04104004FF000057FD0E1
:101A7000A06A002628B9E66284F82460204600F0B7
:101A800081F82046FFF716FDA16AC90600D420B1EF
:101A9000A06A40F01000A0626AE0A16A21F48851B7
:101AA00041F00201A162334923688B42E16904D10C
:101AB000B1F5402F01D14FF40021277B4FF4807CFA
:101AC00041EA470261680A43A168614508D00129DB
:101AD00006D0002194F814E0BEF1010F02D00AE014
:101AE0006146F7E7C7B1A76A47F02007A762E76A30
:101AF00047F00107E7625F6827F469470F435F60BB
:101B0000236899681C4F394011439960A168614569
:101B10000BD0012909D00CE0DFF860E0A7690EEBDB
:101B200047370F4347F40061E5E7218A0D05A5F526
:101B300080152168CB6A23F470032B43CB622168A4
:101B400089680F4B1940914208D1E662A16A21F0E1
:101B5000020141F00101A162BDE8F081A06A20F01C
:101B6000020040F01000A062E06A40F00100E06274
:101B70000120F1E7003C0140FDF7E1FF00E0FFFF3D
:101B8000FE0E1FFF00B585B000210091019102916A
:101B9000039100680E49884218D10E48816941F4CA
:101BA00000718161816901F400710491816941F0E2
:101BB000100181618069694600F0100004900220E4
:101BC000009003200190044800F09AFB05B000BD8E
:101BD0000024014000100240001001402DE9F843AC
:101BE00000270D460446009700F098FC80462068C8
:101BF0008168C90508D5A06A40F02000A06284F879
:101C000024700120BDE8F8834168C90503D4C06A87
:101C100010F4700F2AD0022000F01EFD3B49096825
:101C2000B1FBF0F62068036939490B424FEA6101C4
:101C30004FEAA1121FD1C3684FEA611C13EA0C0FCF
:101C400019D103690B4225D1C068104222D114205A
:101C500023E0681C0AD02DB100F060FCA0EB080066
:101C6000A84203D920680068800725D5206800684D
:101C70008007EED52DE003690B4202D1C168114205
:101C800006D0026923490A4206D1C068084203D13E
:101C9000542002E0292000E0FC204643009816E092
:101CA000681C11D02DB100F039FCA0EB0800A8424F
:101CB0000AD90098B04207D2A06A40F00400A0629E
:101CC00084F8247003209DE70098401C0090B042E7
:101CD000E6D321686FF012000860A06A40F400703B
:101CE000A06220688068C0F3424007280CD1207BA6
:101CF00050B9A06A20F48070A062A06AC00403D426
:101D0000A06A40F00100A06200207BE70C020020E6
:101D1000244992244992240070B5044690F8240086
:101D200001280DD0012084F824002046FFF7EEFBA7
:101D300002004FF0000005D084F82400104670BD6A
:101D4000022070BDA16A40F20123994341F48071E1
:101D5000A1621F4D23681F49AB4218D10E6816F4CB
:101D6000702F14D0A66A46F48016A6620E68760517
:101D700005D5A66A26F4005646F48056A662A66AE1
:101D8000F6040AD5E66A26F00606E66206E0A66ACA
:101D900026F48016A6625E68E9E7E06284F8240013
:101DA0006FF00200186020688368C3F34243072B7A
:101DB00005D1A84208D1096811F4702F04D08168B8
:101DC00041F480118160B9E7816841F4A001F9E72D
:101DD000002801400424014010B590F82110002291
:101DE000022905D00421816380F82020012010BD44
:101DF00001680B6823F00E030B6001680B6823F089
:101E000001030B6090F84030C46B012101FA03F329
:101E1000636080F8211080F82020104610BD00007B
:101E20002DE9F05F90F821100024022903D004214D
:101E30008163012485E001680A6822F00E020A60CD
:101E400001680A6822F001020A603F4E3E4FB21557
:101E5000DFF8F4C0DFF8F090DFF8ECA0DFF8E8B0CE
:101E6000DFF8E4E00168783F13011502ACF1640C7F
:101E7000A9F15009AAF13C0AABF1280BAEF1140EFE
:101E80004FF48018B14227D9B9420ED0614512D023
:101E900049451DD0514518D0594518D0714501D13B
:101EA000424615E0294EB14201D1012210E0274EF1
:101EB0001436B14201D110220AE0244E2836B14234
:101EC00006D0224A3C32914201D11A4600E02A460D
:101ED0001E49091F0A602BE0B94213D0614517D093
:101EE000494522D051451DD059451DD0714501D1DC
:101EF00042461AE0B14202D14FF0807215E0134E13
:101F0000B14201D1012210E0104E1436B14201D18C
:101F100010220AE00D4E2836B14206D00B4A3C3260
:101F2000914201D11A4600E02A46074980394A60A9
:101F3000012180F82110002180F82010416B01B1AF
:101F400088472046BDE8F09F800002400804024018
:101F50002DE9F05FC16B0A6801680B68046C4FF0F3
:101F6000040808FA04F8844D844E854FDFF814C243
:101F7000DFF81492DFF814A2DFF814B2DFF814E2ED
:101F800018EA020F65D05FEA437862D50A689206C4
:101F900003D40A6822F004020A60DFF8F0814FF4EB
:101FA0008062016808F1140813011402414524D924
:101FB000A9420DD0B1420FD0B9421AD0614515D017
:101FC000494515D0514501D1120312E0594501D1BF
:101FD00004220EE0714501D140220AE06D4D143516
:101FE000A94206D06B4A2832914201D11A4600E03C
:101FF00022466749091F0A6029E0A94213D0B1426D
:1020000015D0B94220D061451BD049451BD0514560
:1020100002D14FF4800217E0414502D14FF08062B7
:1020200012E0594501D104220EE0714501D1402250
:102030000AE0584D1435A94206D0564A283291423A
:1020400001D11A4600E022464B4908394A60C16A6C
:1020500071E04FF0020808FA04F818EA020F70D095
:102060005FEA83786DD50A68920606D40A6822F082
:102070000A020A60012180F82110DFF810814FF474
:102080000072016808F1140813011402414524D9B3
:10209000A9420DD0B1420FD0B9421AD0614515D036
:1020A000494515D0514501D1120312E0594501D1DE
:1020B00002220EE0714501D120220AE0354D14358F
:1020C000A94206D0334A2832914201D11A4600E093
:1020D00022462F49091F0A6029E0A94213D0B142C4
:1020E00015D0B94220D061451BD049451BD0514580
:1020F00002D14FF4001217E0414502D14FF00072B7
:1021000012E0594501D102220EE0714501D1202291
:102110000AE0204D1435A94206D01E4A28329142C9
:1021200001D11A4600E02246134908394A600021CD
:1021300080F82010816A00291CD0BDE8F05F0847B4
:10214000FFE70825A540154214D01A0712D50A68E2
:1021500022F00E020A6090F84020C36B012101FAC0
:1021600002F25A60816380F82110002180F820106B
:10217000016BE0E7BDE8F09F080002401C00024050
:102180003000024044000240580002406C0002400F
:10219000080402401C04024030B560B11A4B0268CA
:1021A00014219A4209D2194B1344B3FBF1F189006F
:1021B000016417490AE0012030BD134B5B42134410
:1021C000B3FBF1F1890001640F490839C1630221B1
:1021D00080F82110136843F6F0718B43F0E9011485
:1021E0002143D0E902452C4321430469214344693A
:1021F0002143846921431943116000214163012275
:1022000042770177084630BD08040240F8FFFDBF61
:102210000000024070B5044690F820000025012817
:102220000CD0012084F8200094F821600020012EB9
:1022300006D084F820000225284670BD022070BD1B
:10224000022684F82160A0632068066826F0010653
:1022500006602046FFF714FAE06A0028206801684B
:1022600002D041F00E0106E021F004010160206877
:10227000016841F00A0101602068016841F0010134
:102280000160D9E770B5044600F048F90546601CC6
:1022900002D004480078044400F040F9401BA042FA
:1022A000FAD370BD0002002070B504460A20FFF783
:1022B000E9FF4FF400710A4801250A4E8C4205D10E
:1022C00000F01AF9002800D0B57070BD4FF480718D
:1022D0008C42FAD100F010F90028F6D0F57070BDEC
:1022E00000180140DA010020044910B50A680242D2
:1022F00002D00860FFF7D8FF10BD000014040140B1
:102300002DE9F84FDFF8C8910024A9F1040B23460A
:102310000F2709F1040AABF1040ED1E00125A54015
:1023200006EA0502AA4276D1DFF8A8C14E68A6EBFC
:102330000C0866452BD00DDC032E34D005DC36B3FB
:10234000012E19D0022E2FD11BE0112E16D0122EE5
:102350002AD119E0B8F5881F19D006DCB8F5803FFE
:1023600015D0B8F5801F1FD111E0B8F5001F0ED0B1
:10237000B8F5041F18D10AE0CB6815E0CB681B1D27
:1023800012E0CB6808330FE0CB680C330CE08B68AD
:102390002BB1012B4FF0080303D0456104E0042367
:1023A00002E0056100E00023FF2A01D8064601E0B3
:1023B00000F104064FEA840501D9A5F12005D6F8FD
:1023C000008007FA05FC28EA0C0803FA05F548EA3C
:1023D0000508C6F800804D68ED0070D53E4DAE6929
:1023E00046F00106AE61AD6924F0030605F0010573
:1023F00000953A4D06EB050CDCF80850A607360FA1
:1024000007FA06F825EA0805DFF8D480404503D12D
:102410004FF0000825E052E0DFF8C880404502D1C7
:102420004FF001081DE0DFF8C080404502D14FF0B9
:10243000020816E0DFF8B480404502D14FF00308EF
:102440000FE0DFF8AC80404502D14FF0040808E00F
:10245000DFF8A080404502D14FF0050801E04FF0C1
:10246000060808FA06F848EA0508CCF808804D681E
:10247000D9F80060ED024D4601D5164300E09643C1
:102480002E604D68DAF80060AD02554601D516435E
:1024900000E096432E604D68DBF80060AD035D46BA
:1024A00001D5164300E096432E604D68DEF80060CB
:1024B000ED03754601D5164300E096432E60641C7B
:1024C0000A681646E2407FF429AFBDE8F88F0000A5
:1024D00008040140000011100010024000000140FB
:1024E00000080140000C01400010014000140140B0
:1024F00000180140001C01408068084000D0012005
:102500007047C26821EA02030A4043EA02410161BE
:1025100070470AB1016170470904FBE70148806810
:1025200070470000000200200248816802781144D0
:102530008160704700020020074810B5016841F033
:1025400010010160032000F075F8002000F006F88B
:1025500000F024F8002010BD0020024070B50D4DA1
:1025600004464FF47A712878B1FBF0F00A49096803
:10257000B1FBF0F000F0B2FB48B9102C07D20022FA
:102580002146501E00F036F800206C6070BD01201E
:1025900070BD0000000200200C0200200C4808B5AD
:1025A000816941F001018161816901F001010091BE
:1025B000C16941F08051C161C06900F08050009054
:1025C0000448416821F0E06141F00071416008BDBC
:1025D0000010024000000140002809DB00F01F024B
:1025E000012191404009800000F1E020C0F8001175
:1025F00070470000F0B40E4B1B680C46C3F3022377
:10260000C3F10705042D00D90425191D072901D29E
:10261000002300E0DB1E012606FA05F1491E2140D9
:1026200099409E40761E16403143F0BC02F047B8F8
:102630000CED00E0064900F0070208684FF6FF03C2
:10264000184040EA0220034A104308607047000027
:102650000CED00E00000FA0510B501460020274C03
:1026600004292FD00BDC012930D0022929D100F018
:102670006BF96168C1F38131491C49001FE00829E9
:1026800020D010291DD161682268D20119D51C48BB
:10269000C1F38342C903805C0AD56168184AC1F35B
:1026A0004041921E515C174AB2FBF1F1484301E0F0
:1026B000154948436168490203D440000321B0FB37
:1026C000F1F010BDBDE8104000F04EB9226AC2F32F
:1026D0000121012903D1920701D5C80310BD0229A8
:1026E00005D1626A920702D549F6404010BD032920
:1026F000FCD121688903F9D5044810BD00100240BF
:102700000C570008001BB70000093D00366E0100A1
:102710002DE9F84305460078354CC00754D0E069F0
:102720000026C00008D4E06940F08050E061E06914
:10273000012600F0805000902E480168C90512D48F
:102740000168804641F480710160FFF7E7FE0746AB
:1027500005E000BFFFF7E2FEC01B642823D8D8F8CD
:102760000000C005F6D5206A10F4407021D0A98879
:1027700001F4407181421CD0206A1F49012220F4DB
:1027800040700A6000220A602062C00711D0FFF783
:10279000C5FE074641F2883808E000BFFFF7BEFEDD
:1027A000C11B414502D90320BDE8F883206A800798
:1027B000F4D5206A696820F44070084320621EB195
:1027C000E06920F08050E0612878800705D56068D6
:1027D000A96820F44040084360602878C00605D509
:1027E0006068696920F48000084360600020DBE7CE
:1027F0000010024000700040400442422DE9F047C2
:102800000F46050061D0434E306800F00700B84223
:1028100009D2306820F0070038433060306800F09B
:102820000700B84251D128683B4C810712D54007B8
:1028300003D5606840F4E06060602878000703D545
:10284000606840F4605060606068A96820F0F00043
:10285000084360602878C00728D06868012810D035
:102860002168022810D0890700292EDA616821F03A
:10287000030101436160FFF751FE804641F2883950
:102880000DE021688903EFE78901EDE7FFF746FED8
:10289000A0EB0801494502D90320BDE8F087606834
:1028A000696800F00C00B0EB810FEFD1306800F0E8
:1028B0000700B8420BD9306820F007003843306079
:1028C000306800F00700B84201D00120E5E7287821
:1028D000400705D56068E96820F4E060084360605F
:1028E0002878000706D56068296920F4605040EA1E
:1028F000C100606000F038F86168084AC1F3031154
:10290000515CC8400649086006480068FFF726FE8B
:102910000020C2E700200240001002401C570008BF
:102920000C020020040200200448054900684968A0
:10293000044AC1F30221515CC84070470C020020D8
:10294000001002402C5700080448054900684968F7
:10295000044AC1F3C221515CC84070470C020020F8
:10296000001002402C5700080F4A516801F00C007B
:10297000042803D0082803D00C4870470C4870473F
:102980000C48C1F38343C903C05C0AD55168094AA6
:10299000C1F34041921E515C054A5043B0FBF1F037
:1029A00070470549484370470010024000127A0002
:1029B000001BB700FA56000800093D002DE9F84F4A
:1029C000040070D02078C04DC00749D06868C0F3BB
:1029D0008100012807D06868C0F38100022809D16E
:1029E0006868C00306D52868800339D56068002868
:1029F000E7D035E06068B0F5803F0BD010B1B0F59E
:102A0000A02F11D0286820F480302860286820F496
:102A1000802002E0286840F480302860606890B12F
:102A2000FFF77CFD06460AE0286840F48020286015
:102A3000F0E700BFFFF772FD801B642873D8286899
:102A40008003F7D50CE0FFF769FD064605E000BFFF
:102A5000FFF764FD801B6428F0D828688003F7D452
:102A600020789A4E80074FF001094FF0000839D5C1
:102A7000686810F00C0F07D06868C0F38100022866
:102A800009D16868C00306D42868800714D5206976
:102A9000012808D110E02069B0B1C6F80090FFF716
:102AA0003DFD074605E00AE1FFF738FDC01B02289F
:102AB000C4D828688007F7D52868616920F0F80035
:102AC00040EAC10028600DE0C6F80080FFF726FD4F
:102AD000074604E0FFF722FDC01B022823D8286820
:102AE0008007F7D4207800072CD57948A169D9B19F
:102AF000C0F80090FFF712FD074604E0FFF70EFD57
:102B0000C01B02280FD8686A8007F7D571484FF4B8
:102B1000FA510068B0FBF1F0009000BF0098411E30
:102B20000091FAD20EE080E0C0F80080FFF7F6FCDA
:102B3000074604E0FFF7F2FCC01B022875D8686A5C
:102B40008007F7D42078400760D5E8690027C000E7
:102B500008D4E86940F08050E861E869012700F096
:102B6000805000905C480168C90513D40168834611
:102B700041F480710160FFF7D1FC824606E000BF9E
:102B8000FFF7CCFCA0EB0A0064284ED8DBF800006D
:102B9000C005F5D5E06801280AD008B1052813D092
:102BA000286A20F001002862286A20F0040002E070
:102BB000286A40F001002862E06841F2883B98B141
:102BC000FFF7ACFC82460BE0286A40F00400286264
:102BD000EEE700BFFFF7A2FCA0EB0A0159455AD867
:102BE000286A8007F6D50CE0FFF798FC824605E0DE
:102BF000FFF794FCA0EB0A0159454CD8286A8007DE
:102C0000F6D41FB1E86920F08050E861E06988B32C
:102C10006968C1F38101022944D00228C6F86080A6
:102C200004D0FFF77BFC044638E034E0FFF776FC85
:102C3000074604E0FFF772FCC01B02282BD8286867
:102C40008001F7D4206AB0F5803F05D16868A1689B
:102C500020F4003008436860D4E90801084369683B
:102C600021F4741108436860C6F86090FFF756FCC1
:102C7000044606E025E000BFFFF750FC001B0228D9
:102C800009D828688001F7D51BE000BFFFF746FC94
:102C9000001B022802D90320BDE8F88F28688001B4
:102CA000F4D40EE00128F7D06868226A00F480317D
:102CB000914204D1616A00F47010884201D0012071
:102CC000EAE70020E8E7000000100240000042426E
:102CD000800442420C0200200070004010B5401EEB
:102CE000B0F1807F01D3012010BD4FF0E02460617E
:102CF0000F21601701F0E3FC0020A0610720206194
:102D0000002010BD18B5034690F84200202801D0DD
:102D1000022018BD61B15AB1012018630020586328
:102D2000184601F0A7FB0028F3D1196B012901D047
:102D3000012018BD19680A684968009119680C31AA
:102D400051E8002F42F0100241E80024002CF5D198
:102D500018BD000070B50D4600680F4988421AD1B1
:102D60000E4C607830B90E492A4601F58060FDF7B7
:102D70000BFAA58101208502607029460848FDF7FD
:102D80002AFA2078002806D12A46BDE87040044976
:102D90000448FFF7B7BF70BD00500040DA010020C3
:102DA000742200201C2B002070470000F8B5016839
:102DB00004460868CA684B6910F00F0F4FF0000511
:102DC00059D003F0010602F49077374365D0C1076C
:102DD00005D0D10503D5616C41F001016164410763
:102DE00005D5D90703D0616C41F002016164810708
:102DF00005D5D90703D0616C41F004016164010776
:102E000007D502F02001314303D0616C41F0080185
:102E10006164616C00293AD0800604D5900602D521
:102E2000204601F069FA20684069616CC0F38010A7
:102E3000090700D460B3204601F029FA20684069F0
:102E4000400621D52068143050E8001F21F04001D1
:102E500040E80012002AF5D1E06BA8B16D4941634A
:102E6000E06BFEF7DDFF002811D0E06B416B01B095
:102E7000BDE8F040084783060FD593060DD52046E0
:102E8000BDE8F84001F038BA2046FFF78DFFF8BDE5
:102E90002046FFF789FF6564F8BD266B2023012ECD
:102EA0007CD1C6067AD5D60678D5086848680090E1
:102EB00048694FF00206400640D5E16B086840685B
:102EC0000004000CE8D0A28D8242E5D9E085886933
:102ED00020282DD020680C3050E8001F21F480718C
:102EE00040E80012002AF5D12068143050E8001F95
:102EF00021F0010140E80012002AF5D120681430C9
:102F000050E8001F21F0400140E80012002AF5D1EE
:102F100084F84230256320680C3050E8001F21F00F
:102F2000100140E80012002AF5D1E06BFEF754FFD3
:102F30006663A08DE18D401A81B22AE0A08DE18DFB
:102F4000401A81B2E08D0028A6D00029A4D02268C2
:102F50000C3252E8000F20F4907042E80007002F76
:102F6000F5D12068143050E8002F22F0010240E82B
:102F70000027002FF5D184F84230256320680C30FB
:102F800050E8002F22F0100240E80023002BF5D17A
:102F900066632046FFF7DEFEF8BDFFE705062BD58A
:102FA000150629D594F841002128F5D1A068B0F57F
:102FB000805F01D12069B0B1206A411C2162216883
:102FC00000784860E08C401E0004000CE084E3D1EF
:102FD0002068C16821F08001C1602068C16841F0AB
:102FE0004001C160D8E7206A0088C0F3080048604B
:102FF000206A801C2062E5E74006CDD55006CBD57F
:10300000CA68204622F04002CA6084F8413000F0CD
:10301000B5FAC1E7E941000870B5040004D094F89E
:103020004100002510B106E0012070BD84F8405039
:10303000204600F023F8242084F841002068C1686D
:1030400021F40051C160204601F0B8F920680169FF
:1030500021F4904101612068416921F02A01416118
:103060002068C16841F40051C1606564202084F883
:10307000410084F842006563002070BD2DE9F04FE7
:1030800085B0002400940194029403940546CC4E2C
:10309000D0F800C0CB4802210322CB4B4FF4806A0A
:1030A000B44526D1C56945F40025C561C56905F457
:1030B00000250495856945F0100585618069CDE995
:1030C00000A100F01000CDE9032069461D46184616
:1030D000FFF716F9F014CDE900046946284602947A
:1030E000FFF70EF9002211463420FFF783FA34204F
:1030F00033E0B64EDFF8D8B24FF00409B44531D111
:10310000C56945F48015C561C56905F48015049548
:10311000856945F010058561856905F01005049500
:10312000856945F0200585618069039200F02000E3
:103130000490B014CDE9000169461846FFF7E0F8A5
:10314000CDE90094694658460294FFF7D9F8002269
:1031500011463520FFF74EFA3520FFF73DFA05B04E
:10316000BDE8F08FDFF86C829B4B10278026C445AA
:103170005AD1D0F818C04CF4804CC0F818C0D0F820
:1031800018C00CF4804CCDF810C0D0F818C04CF02A
:10319000040CC0F818C08069039200F00400049089
:1031A0005815CDE90001694698461846FFF7A8F87A
:1031B000CDE900A4694640460294FFF7A1F8DFF884
:1031C000208286494046B146C0E90014C0E9024663
:1031D000C8F81040C8F81440C8F81840C8F81C4097
:1031E000FEF7DAFF08B1FEF741FB7D4E7B48C5F8DC
:1031F0003C8044361438C8F824503060C6E9017465
:10320000C6E903947461B4613046F461FEF7C4FF0B
:1032100008B1FEF72BFBAE63002211462520756234
:10322000FFF7E8F9252098E7DFF8B881C4455DD1BC
:10323000D0F81CC04CF4003CC0F81CC0D0F81CC036
:103240000CF4003CCDF810C0D0F818C04CF0040CC1
:10325000C0F818C08069CDE9009100F00400CDE904
:103260000320694698461846FFF74AF80820CDE93A
:103270000004694640460294FFF742F8DFF8608197
:10328000564908F1880840461431C0E90014C0E9E5
:103290000246C8F81040C8F81440C8F81840B146B3
:1032A000C8F81C40FEF778FF08B1FEF7DFFA4C4E75
:1032B0004A48C5F83C80CC362830C8F824503060E5
:1032C000C6E90174C6E903947461B4613046F461DF
:1032D000FEF762FF08B1FEF7C9FAAE63002211469D
:1032E00026207562FFF786F9262036E73E4B9C457F
:1032F0007FF435AFC36943F48023C361C36903F42A
:1033000080230493836943F02003836180690392DF
:1033100000F0200004904FF48070CDE90001694670
:103320005846FEF7EDFF4FF40070CDE90004A146CA
:10333000694658460294FEF7E3FF2C48416821F0A5
:10334000300141F0E06141F030014160DFF8A080E0
:10335000224940462839C0E90014C0E90246C8F8AD
:103360001040C8F81440C8F81840C8F81C40FEF7D0
:1033700013FF08B1FEF77AFA1D4C1848C5F83C80D7
:1033800044343C38C8F82450C4E90007C4E9029624
:10339000C4F81090C4F81490C4F818902046C4F8EB
:1033A0001C90FEF7F9FE08B1FEF760FAAC6300224C
:1033B000114627206562FFF71DF92720CDE60000A2
:1033C000004C00400010024000100140005000403E
:1033D000001401400038014000080140580002403C
:1033E0003C2C002000440040004800400000014008
:1033F0004C2D002090F84230202B01D00220704745
:1034000021B11AB10023036301F034B801207047E1
:1034100010B500680F4988420ED10F4901F10E0323
:10342000087A8A791A54401C087201F07BF80A491C
:103430000122891D094808E00949884209D100F0A4
:1034400093FE054901220748C91DBDE81040FFF75A
:10345000D1BF10BD00380140DA010020642B0020EC
:1034600000440040AC2B00202DE9F843044690F8BE
:1034700041001F4616460D46202802D00220BDE816
:10348000F8837DB176B100206064212084F841008A
:10349000FFF744F8A6848046E684A068B0F5805F14
:1034A00002D003E00120EAE7206910B12E46002592
:1034B0000EE000260CE08021204600F0F6FFA0B9C7
:1034C000AEB116F8010B21684860E08C401EE08424
:1034D000E08C43464FF0000200970028EBD14FF0FC
:1034E0004001204600F0E1FF30B10320C7E735F886
:1034F000020BC0F30800E6E7202084F8410000201A
:10350000BDE7000070B5044690F84100202801D0C6
:10351000022070BD49B342B32162A284E28400203C
:103520006064212384F84130A56B114BAB62A56B1D
:10353000104BEB62A56B104B2B63A36B5863256894
:1035400013462A1DA06BFEF765FE21686FF0400050
:1035500008602068143050E8001F41F0800140E806
:103560000012002AF5D1002070BD012070BD0000BE
:103570004342000885420008F9410008704770473F
:10358000BFF34F8F05480168054A01F4E06111431C
:103590000160BFF34F8F00BFFDE700000CED00E0BE
:1035A0000400FA058178012910D005292BD1C178B2
:1035B000002928D10179F9B1112924D140791128A4
:1035C00021D111490822052000F08ABBC1780029C9
:1035D00019D1017949B1112915D14079112812D198
:1035E0000949082208390120EEE7407900280AD16C
:1035F000054908220831F6E74079002803D102493D
:1036000008221031DFE77047200100203EB500217D
:103610001148009101910F4A02910260816001738B
:10362000017501244FF460220461C2614160FEF71C
:1036300019FA08B1FEF71AF90B20CDE900040720AA
:10364000029069460448FEF78BF9002801D0FEF786
:103650000DF93EBD00240140A42A00201D4808B5F4
:10366000416941F0010141614069002200F001001F
:10367000009011460C20FEF7BDFF0C20FEF7ACFFBA
:10368000002211460D20FEF7B5FF0D20FEF7A4FF26
:10369000002211460E20FEF7ADFF0E20FEF79CFF24
:1036A000002211460F20FEF7A5FF0F20FEF794FF22
:1036B000002211461020FEF79DFF1020FEF78CFF20
:1036C000002211461120FEF795FFBDE808401120A9
:1036D000FEF782BF001002402DE9F04F85B00025B3
:1036E00053480095019502950395816941F01001B9
:1036F0008161816901F010010491816941F0040147
:103700008161816901F004010491816941F0400106
:103710008161816901F040010491816941F02001DA
:103720008161816901F020010491816941F0080102
:1037300081618069DFF8FC8000F0080004900122BC
:1037400040F601014046FEF7E4FE002241F202018C
:103750004046FEF7DEFEDFF8E0B04FF4C05700222F
:1037600039465846FEF7D5FEDFF8D0900122D10247
:103770004846FEF7CEFE00224FF480514846FEF741
:10378000C8FEDFF8BCA0012208215046FEF7C1FEAA
:103790000124F81CCDE900040226CDE90246694661
:1037A0004046FEF7ADFD01AA4FF00308009782E8FE
:1037B000300169465846FEF7A3FDCDE90074CDE916
:1037C000024669464846FEF79BFD08208DE87100D9
:1037D00069465046FEF794FD1A4DF810CDE90005F4
:1037E000694602945046FEF78BFDCDF80080CDE986
:1037F000015469465846FEF783FD00220521062044
:10380000FEF7F8FE0620FEF7E7FE0022052107205E
:10381000FEF7F0FE0720FEF7DFFE0022052117204D
:10382000FEF7E8FE1720FEF7D7FE05B0BDE8F08FE3
:10383000001002400008014000180140001401403F
:10384000000C0140000011100C4810B50A4901603D
:103850004FF4E1314160002181600C22C160C0E978
:1038600004128161C161FFF7D7FB002803D0BDE8D6
:103870001040FDF7FBBF10BD004C0040D42A0020D3
:103880000C4810B50A4901604FF4165141600021FF
:1038900081600C22C160C0E904128161C161FFF73F
:1038A000BBFB002803D0BDE81040FDF7DFBF10BD13
:1038B000005000401C2B00200C4810B50A49016044
:1038C0004FF4E1314160002181600C22C160C0E908
:1038D00004128161C161FFF79FFB002803D0BDE89E
:1038E0001040FDF7C3BF10BD00380140642B00201D
:1038F0000C4810B50A4901604FF4E13141600021E4
:1039000081600C22C160C0E904128161C161FFF7CE
:1039100083FB002803D0BDE81040FDF7A7BF10BD12
:1039200000440040AC2B00200C4810B50A4901604F
:103930004FF4E1314160002181600C22C160C0E997
:1039400004128161C161FFF767FB002803D0BDE865
:103950001040FDF78BBF10BD00480040F42B002045
:10396000FEE7FEE7704700007FB5294D002440F6D2
:10397000F346E879012822D1E8782979884206D1EE
:10398000EC702C7131462348FCF725FC17E000EB66
:10399000800101EBC0001F4900940194029403943C
:1039A0000144EC710D226846FCF7EEFB0D226946DE
:1039B000022000F0F1F90094019402940394287A13
:1039C000012824D16879A979884208D16C71AC7139
:1039D00004B03146BDE870400F48FCF7FCBB00EB7B
:1039E000800101EBC0000C490094019402940394FF
:1039F00001442C720D226846FCF7C6FB0D22694675
:103A0000022000F0C9F900940194029403947FBD50
:103A1000080000207E0600206F15002010B5807879
:103A200001280DD0052816D108220B4900F058F9BD
:103A300009490822B0390520BDE8104000F050B90E
:103A4000054908220839012000F04AF902490822F4
:103A5000B8390120F0E710BD0001002070B54FF427
:103A60007A750F4C17E06D1EADB24FF0010010D209
:103A7000207040F6F3410B48FCF7ADFB4FF4FF71AB
:103A80000948FCF7A8FB094900200870084908709C
:103A900070BDFEF7F7FB20780028E4D0012070BD50
:103AA0000F0000207E060020800400200B00002074
:103AB0000C00002070B54FF47A750F4C17E06D1EA6
:103AC000ADB24FF0010010D2207040F6F3410B4828
:103AD000FCF781FB4FF4FF710948FCF77CFB0949B7
:103AE000002008700849087070BDFEF7CBFB2078F5
:103AF0000028E4D0012070BD100000206F150020C8
:103B0000711300200D0000200E0000201CB50021C4
:103B1000019101AA009143189B785354491CC9B2E2
:103B20000429F8D3104600F0BBFE13494A69C8695E
:103B300050430862694600F0EAFE104C9DF8000010
:103B4000A4F25B1220729DF80100E0719DF8020062
:103B5000A0729DF8030060720B21204600F06EFEFB
:103B6000A4F25B100D220178E172407820732146A7
:103B7000012000F0B5F81CBD0800002072010020F3
:103B80001CB50021019101AA009143189B78535460
:103B9000491CC9B20429F8D3104600F081FE13492C
:103BA000D1E9062050434862694600F0B0FE104C4F
:103BB0009DF80000A4F5B37220729DF80100E07139
:103BC0009DF80200A0729DF8030060720B21204650
:103BD00000F034FEA4F5B3700D220178E172407854
:103BE00020732146052000F07BF81CBD0800002052
:103BF0007F0100201CB50021019101AA009143180A
:103C00009B785354491CC9B20429F8D3104600F0DC
:103C100047FE13494A69C86950430862694600F083
:103C200076FE104C9DF80000A4F2751220729DF8EB
:103C30000100E0719DF80200A0729DF8030060721F
:103C40000B21204600F0FAFDA4F275100D22017838
:103C5000E172407820732146012000F041F81CBD3C
:103C6000080000208C0100201CB50021019101AA50
:103C7000009143189B785354491CC9B20429F8D3C6
:103C8000104600F00DFE1349D1E90620504348626A
:103C9000694600F03CFE104C9DF80000A4F5C0728F
:103CA00020729DF80100E0719DF80200A0729DF85D
:103CB000030060720B21204600F0C0FDA4F5C07027
:103CC0000D220178E172407820732146052000F032
:103CD00007F81CBD08000020990100207047000073
:103CE0002DE9F0410E460025264C40F6F3414FF4F5
:103CF000FF7701281AD0052816D1A079FF2837D2DE
:103D000000EB800101EBC0001F4908443146FCF77D
:103D10003BFA1E49A079B27801F8102001EB40016E
:103D2000F2784A70401CA071BDE8F0812079FF282C
:103D300014D200EB800101EBC00015490844314664
:103D4000FCF722FA13492079B27801F8102001EB30
:103D50004001F2784A70401C2071E5E70C48FCF7FE
:103D60003AFA39460B48FCF736FAE5702571DBE77D
:103D70000548FCF730FA39460448FCF72CFA65711F
:103D8000A571D1E7080000206F15002071130020F5
:103D90007E0600208004002070B514460D460128E0
:103DA0000BD0022811D003282FD0042835D1BDE82C
:103DB000704064231948FFF757BB1948FFF7A2FB6F
:103DC00000282AD022462946F7E7164E012211463E
:103DD0003046FEF79EFB012202213046FEF799FB9A
:103DE0000A23224629461048FFF73EFB0022012104
:103DF0003046FEF78EFB002202213046FEF789FB9B
:103E0000BDE870403220FEF73DBA0848FFF77AFB64
:103E1000002802D022462946F7E770BDD42A0020A8
:103E2000642B002000080140AC2B0020F42B002064
:103E30000D22FFF755BF000010B5082242490120AE
:103E4000FFF74EFF0D2241490120FFF749FF3E4990
:103E5000082210310120FFF743FF3B4A0621313A87
:103E600002F1510000F0EAFC3748313800F151010D
:103E700002788A714078C87108220120FFF730FF6C
:103E80003149082230310120FFF72AFF2E4908224C
:103E900050310120FFF724FF2B4908224031012037
:103EA000FFF71EFF2849082260310120FFF718FFA5
:103EB0002549082270310120FFF712FF224908220C
:103EC00008310520FFF70CFF20490D220D31052098
:103ED000FFF706FF1C49082218310520FFF700FFF5
:103EE000194A06212F3A02F1570000F0A7FC1648A4
:103EF0002F3800F1570102788A714078C871082282
:103F00000520FFF7EDFE1049082238310520FFF7A4
:103F1000E7FE0D49082258310520FFF7E1FE0A4966
:103F2000082248310520FFF7DBFE074908226831E7
:103F30000520FFF7D5FE044908227831BDE810407E
:103F40000520FFF7CDBE00004800002058010020EA
:103F500010B5082211490120FFF7C2FE0F490822BF
:103F600008310520FFF7BCFE0C4908221031012062
:103F7000FFF7B6FE0949082218310520FFF7B0FE09
:103F80000649082220310120FFF7AAFE0349082232
:103F90002831BDE810400520FFF7A2BEC800002070
:103FA00010B504468078012803D10D220649FFF799
:103FB00097FEA078052806D103490D22BDE81040E0
:103FC0000D31FFF78DBE10BD5801002010B50179ED
:103FD00089B1012917D14079052814D108220A494D
:103FE0000120FFF77DFE084908220831BDE8104096
:103FF0000120FFF775BE4079012801D0052802D1C4
:1040000008220149F2E710BD08010020FEF78CBA32
:1040100030B595B028216846FCF7DDF814210AA8D0
:10402000FCF7D9F818210FA8FCF7D5F801210804EE
:10403000CDE900100025029502240491CDE9074046
:10404000000109906846FEF7B9FC08B172B6FEE7B8
:104050000AA90F2081E831004FF48060CDE90D05F9
:1040600002210AA8FEF7CAFB08B172B6FEE74FF4B8
:10407000004011900F940FA8FEF74AFB002801D0D2
:1040800072B6FEE715B030BD7047000030B5084687
:1040900009780125314C01290ED0052920D121466E
:1040A00043782F4A4979062B02EB410233D0102B7B
:1040B00031D0032B39D036E028494378294AC978D2
:1040C000062B02EB410204D0102B02D0032B0AD0A6
:1040D00007E05278C078824203D1E571491CE17053
:1040E00030BDE57130BD5178042908D0062902D0D1
:1040F000A3290BD107E00121FDF7D8FA06E0012141
:10410000FDF724FB02E00121FDF760FBE571E0789B
:10411000401CE07030BD5278C078824203D12572D5
:10412000491C617130BD257230BD5178042908D019
:10413000062902D0A3290BD107E00521FDF7B6FA25
:1041400006E00521FDF702FB02E00521FDF73EFB3D
:1041500025726079401C607130BD000008000020AD
:10416000711300208004002030B51648174C164DFE
:10417000017820782954401CC0B2207003280CD14B
:104180006978032904D0062919D0102917D004E032
:10419000A97802290FD004290FD0A17B884209D128
:1041A0000949FFF773FF0020286068602872FF212B
:1041B000A173207030BD072002E0092000E0082034
:1041C000A07330BDE10100209A2A002008000020E1
:1041D0000148FEF7EBBD0000D42A00200148FEF79D
:1041E000E5BD00001C2B002010B5406A0021C185F0
:1041F000C184FEF7D9FD10BD70B5446A20684069DE
:1042000094F84110C0F3C0100025212904D118B141
:10421000E584204600F062F82068406994F8421076
:10422000C0F38010222904D118B1E585204600F0A2
:104230002EF8606C40F0100060642046FEF7B4FD7C
:1042400070BD10B50146406A09680968890616D430
:104250000021C1840168143151E8002F22F080024E
:1042600041E80023002BF5D101680C3151E8002F03
:1042700042F0400241E80023002BF5D110BDFFF7CA
:104280007DF910BD10B5406AFFF779F910BD0168DE
:104290000C3151E8002F22F4907241E80023002BEA
:1042A000F5D10168143151E8002F22F0010241E8F4
:1042B0000023002BF5D1016B012909D101680C31D4
:1042C00051E8002F22F0100241E80023002BF5D125
:1042D000202180F8421000210163704701680C31F1
:1042E00051E8002F22F0C00241E80023002BF5D155
:1042F000202180F84110704708B590F8421022291B
:1043000001D0022008BD82684FF480539A4201D147
:10431000016921B1816A9A421BD04AB10AE0026860
:10432000816A5268C2F308020A80816A891C08E027
:10433000026972B10268526802F07F020A70816AF3
:10434000491C8162C18D491E0904090CC18503D035
:104350001BE002685268F1E70168CA6822F0200297
:10436000CA600168CA6822F48072CA6001684A693A
:1043700022F001024A61202180F8421000214163AD
:10438000026B012A03D0FFF743F8002008BD016348
:1043900001680C3151E8002F22F0100241E800239F
:1043A000002BF5D101680A68D20602D50A6849686F
:1043B0000091818DFEF7CEFCE7E7000070B5044662
:1043C00000680169E26821F44051114301612169EB
:1043D000A0680843616908432168CA6841F20C6318
:1043E0009A430243CA6020684169A26921F440717E
:1043F000114341611E492068884202D1FEF7A4FAA8
:1044000001E0FEF791FA00EBC00101EB00126068D9
:1044100064218000B2FBF0F3B3FBF1F36FF01806F8
:104420007343B2FBF0F5B2FBF0F605EB83053223E4
:1044300003EB0515B5FBF1F5B6FBF1F605F0F0055C
:1044400005EB0615B2FBF0F6B2FBF0F0B0FBF1F0B5
:104450006FF01802504306EB800003EB0010B0FB36
:10446000F1F0216800F00F002844886070BD000062
:104470000038014081628285C28500214164222189
:1044800080F84210016921B10168CA6842F4807263
:10449000CA6001684A6942F001024A610068C16865
:1044A00041F02001C160002070472DE9F04198469D
:1044B00017460E460446069D27E0681C25D02DB100
:1044C000FEF72CF8A0EB0800A8421ED920680C309B
:1044D00050E8001F21F4D07140E80012002AF5D105
:1044E0002068143050E8001F21F0010140E800125C
:1044F000002AF5D1202084F8410084F842000020F1
:1045000084F840000320BDE8F0812068006836EAA6
:10451000000004D00020B842CFD00020F3E70120F3
:10452000F9E700002DE9FC410024544E8DF80040CD
:104530008DF804403078A6F10E05BB2871D1707853
:10454000BB286ED0287A08286CD16B4601AA0621B8
:10455000304600F064F9B0799DF80410884218D113
:10456000F0799DF8001088427BD17078444E454F19
:10457000142872D2DFE800F0710A0E1A293542467B
:104580004A4E5151575B5F6265686B6E3B48FDF761
:104590006FF966E03A4A0B213B4800F04FF93A4880
:1045A0003178C1727178017301460AE0344A0B21F7
:1045B000364800F043F935483178C172717801739B
:1045C00001460520FFF734FC4BE02E4A0B21304812
:1045D00000F034F92E483978C172797801730146B8
:1045E0000AE0284A0B212B4800F028F9294839789D
:1045F000C1727978017301460120E3E71F48FFF794
:10460000BFFA2EE01D48FFF781FA2AE01B48FFF7AA
:10461000C7FC26E00120287023E01848FFF7FEF9C8
:104620001FE025E022E01548FFF7E4FA19E01348FF
:10463000FFF71AFB15E01148FFF7C8FC0F48FEF71B
:10464000B1FF0E48FEF7AEFF0C48FEF7ABFF0B487C
:10465000FEF7A8FF0948FEF7A5FFC5F80E40C5F80C
:104660001240C5F80E40C5F812402C72BDE8FC811E
:104670002C72C5F80E40C5F81240F7E7E80100209B
:104680001900002017000020C0010020CD010020EB
:10469000A6010020B30100200148FEF787BB0000FF
:1046A000642B00200148FEF781BB0000AC2B0020EA
:1046B0000148FEF77BBB0000F42B0020FEE7090752
:1046C000090E002804DB00F1E02080F80014704798
:1046D00000F00F0000F1E02080F8141D704700008A
:1046E000004870471C02002030B528B1144C031F4D
:1046F000002021680A4605E0084630BD9A4203D8EA
:1047000010465268002AF9D1002800D041680BD029
:104710000468A3EB0005A54204D11B681C440346B2
:10472000046002E0436000E023603AB11C68D51ADF
:10473000A54203D115682C441C6052685A6030BDF4
:10474000140200202DE9F04782460F4C10480D4E10
:104750000E4F001B4FF0000820F007054FF0010935
:1047600000221146504600F0DBF8002802D13068E4
:1047700010B10020BDE8F0873C60C4E90058C6F8DD
:104780000090EDE718020020DC2D0020140200202C
:10479000D839002001480068704700001C02002042
:1047A00002E008C8121F08C1002AFAD170477047FA
:1047B000002001E001C1121F002AFBD17047000058
:1047C00001490860704700001C02002030380A28A8
:1047D00001D2012070470020704730B583B00446F5
:1047E000FFF7D8FF05460020CDE90000024621462C
:1047F0006846FCF7BCF92846FFF7E2FFDDE9000157
:1048000003B030BD10B500231A4604E030F8124062
:10481000521C234492B28A42F8D398B210BD70B5AC
:1048200000252C4603E0065D641C3544E4B28C424E
:10483000F9D3E84300211170187070BDF0B54FF640
:10484000FF7300244AF201060EE0055D6B4000256F
:10485000DF0702D086EA530300E05B086D1CEDB26F
:10486000082DF5D3641CA4B28C42EED31370180A41
:104870005070F0BD30B541EA00210F205FF0010417
:1048800004FA00F30B4201D0312300E03023C0F1E1
:104890000F05401E5355F3D50020107430BD0000A5
:1048A000064B10B500221146DA61445C491CC9B2BE
:1048B00044EA02220429F8D3DA6110BD080000207E
:1048C0002DE9F0410646FBF79DFC0446002540001B
:1048D000FFF738FF02460020014630230DE0375C29
:1048E0005754375C2C2F06D137187F782C2F02D1E4
:1048F000491C6D1C5354401C491CA042EFDB002096
:1049000050542944BDE8F041104600F0EBB808705F
:10491000020A4A70020C8A70000EC87070470000CC
:104920002DE9F0410B3020F00706104D19E020680A
:10493000B04215D3B0420AD9871B201DD4F8048099
:10494000FBF722FCA019C0E90078286004E0606849
:104950002860201DFBF718FC201D2660BDE8F081B3
:10496000251D2C68002CE2D10020F7E7140200205E
:10497000FDF7E2FDFFF74CFBFEF7AEFEFEF76EFE25
:10498000FEF77EFFFEF798FFFEF7B2FFFEF7CCFFC3
:10499000FEF75AFFFEF73AFE012247494748FEF765
:1049A00029FD45490122491C4548FEF723FD4FF4E6
:1049B000806244494448FEF7A5F94448FCF764FF87
:1049C0004FF4FA60FDF75EFCFFF736FA3A4CDFF879
:1049D00000910025A41F6079C0B13E4F4FF40066DE
:1049E00031463846FDF78DFD4FF480584146384634
:1049F000FDF787FD4B20FDF745FC31463846FDF7B6
:104A000080FD41463846FDF77CFD65712079401CEC
:104A1000C0B22071192849D1A07830B126490822A6
:104A200010310120FFF7B8F9A570E07830B12249C4
:104A3000082218310120FFF7AFF9E570FCF7EEFC12
:104A4000FCF7A4FDFCF7BAFDFFF782FAFFF706F8C2
:104A5000FFF730F8607870B199F80010484621B936
:104A6000417811B999F8030040B1A189184800F0C4
:104A70006FF86570A581207810B106E06570FAE7DF
:104A80001C2215490120FFF787F913490A221C311E
:104A90000120FFF781F9082210490120FFF77CF976
:104AA00008220F490120FFF777F92571FEF75CFF17
:104AB0001E20FDF7E7FB8EE7E0010020642B0020BD
:104AC000AC2B0020742200201C2B0020A42A0020E4
:104AD0007426002000180140742A002038010020AC
:104AE000480100202DE9F04704008A4616D054F80A
:104AF000047CD4F800903E1F564500D95646204607
:104B0000FFF7F2FD05468846324621465046FFF73C
:104B100007FF40B1C0F80090BDE8F087BDE8F0475E
:104B20000846FFF70FBE44E9017955B129686A18B4
:104B3000211F8A4202D9611B091F2960C5F8048020
:104B4000EAE7024AC2F80080E6E70000140200200B
:104B50002DE9F04FE7B00F468346012904DA4FF004
:104B6000FF3067B0BDE8F08F00264FF4807A3446FE
:104B7000B046354651466846FBF72DFBE9469AE0BC
:104B80001BF80400242813D0002C10D0002EF6D0DF
:104B9000A91C514500DD00262A2810D009F805007F
:104BA0006D1C781E641C844268D14FF0000885E0BB
:104BB000002EF6D101268DF800003546F1E70020E1
:104BC00009F8050009F1030603223DA1701CFBF75B
:104BD00029FB20B303223BA13046FBF723FB30B374
:104BE000032239A1701CFBF71DFB48B3032237A138
:104BF000701CFBF717FB60B3032235A1701CFBF799
:104C000011FB78B3032233A1701CFBF70BFB50B3ED
:104C1000032231A1B01EFBF705FB70B343E06946E8
:104C200040A800F0B5FA502240A92C482EE0694671
:104C300040A800F059F82948902240A9E83825E01A
:104C4000694640A800F0A0F92448582240A95838E5
:104C50001CE0694640A800F01BFB20484C2240A9FC
:104C6000503013E000E00AE0694640A800F092FBF3
:104C70001A48982240A9A03008E00AE01BE06946E3
:104C800040A800F0D7FC402240A91548FBF77CFA69
:104C900009E0694640A800F041FB124840990160D4
:104CA000BDF80411818051466846A41CFBF793FAB5
:104CB0000025012675E7BC42FFF662AF404650E78B
:104CC0004753410047474100474C4C00475356006B
:104CD000524D43005654470048585A0008030020DC
:104CE00040040020000000202DE9F34FA9B00C463D
:104CF00090216846FBF76FFA00252046FFF7E0FD9C
:104D00009EA12490FBF79EFA64270446DFF8708288
:104D1000DFF87092002623E10F2D7DD2DFE805F049
:104D20007C08468089BFCACFD4DBE2E5ECF3F8000B
:104D30000222214625A8FBF759FA8DF89660022237
:104D4000A11C26A8FBF752FA8DF89A600222211DB9
:104D500027A8FBF74BFA8DF89E600222E11D28A8D8
:104D6000FBF744FA8DF8A26025A8FBF787FB0390B8
:104D700026A8FBF783FB049027A8FBF77FFB059091
:104D800028A8FBF77BFB00EB80004000069003980F
:104D90002146083003906846FBF73BFA77A10020D4
:104DA000FBF750FA04004FF002057DD0214607A81A
:104DB000FBF72FFA2046FFF710FD82468B46FBF7E4
:104DC00093FD90FBF7F464206043FBF75BFD5246D4
:104DD0005B46FBF75CFC82468B46FBF785FD259026
:104DE000FBF750FD52465B46FBF751FC0022434661
:104DF000FBF750FC844625980B900A9400224B4602
:104E00006046FBF7A0FBFBF76FFD0C905BA1002059
:104E1000FBF718FA040000E09CE005F10105C4D09E
:104E200020784E2803D000208DF8340092E0012035
:104E3000FAE721460DF13500FBF7EBF92046FFF7C5
:104E4000CCFC05468A46FBF74FFD90FBF7F4642047
:104E50006043FBF717FD2A465346FBF718FC05464F
:104E60008A46FBF741FD8346FBF70CFD2A46534675
:104E7000FBF70DFC00224346FBF70CFCCDE9114B80
:104E800000224B46FBF75FFBFBF72EFD13903BA187
:104E90000020FBF7D7F904004FF0050563D0207818
:104EA000452805D0002000E05DE08DF8500051E07D
:104EB0000120F8E72046FBF7E1FA15904AE020468A
:104EC000FBF7DCFA169045E00021204600F006FCD6
:104ED000CDE918013EE00021204600F0FFFBCDE9BE
:104EE0001A0137E021461CA808E00021204600F006
:104EF000F5FBCDE91E012DE0214620A8FBF789F93D
:104F000028E005E0FFE72046FBF7B8FA229021E011
:104F10000420FFF717FC05462046FBF773F9C21E75
:104F200021462846FBF762F92046FBF76BF9284437
:104F30000A2200F8036C00212846FBF767FAADF857
:104F40008C002846FFF7D0FB0CA10020FBF77AF974
:104F50000F2540B109A10020FBF774F904466D1C30
:104F6000002C7FF4D9AE2498FFF7BEFB902269464F
:104F70002998FBF709F92BB0BDE8F08F2C00000051
:104F800000004E400000E03F2DE9F04F9BB00C4682
:104F9000834658216846FBF71EF900252046FFF797
:104FA0008FFC78A11690FBF74DF904466426764FE6
:104FB000DFF8D881D6E0072D42D2DFE805F0CD0436
:104FC0003A447B84C60021466846FBF722F9204616
:104FD000FFF703FC04468946FBF786FC90FBF6F5D9
:104FE000642105FB01F0FBF74DFC4B462246FBF725
:104FF0004EFB0C468146FBF777FC8246FBF742FCF2
:105000004A462346FBF743FB00223B46FBF742FBA5
:10501000CDE9035A00224346FBF795FAFBF764FCFF
:10502000059058A10020FBF70DF904004FF0020590
:105030007ED020784E2804D05FF000008DF8180054
:105040008AE00120FAE721460DF11900FBF7E1F8AB
:105050002046FFF7C2FB04468946FBF745FC90FB60
:10506000F6F5642105FB01F0FBF70CFC4B462246EC
:10507000FBF70DFB04468946FBF736FC8246FBF73F
:1050800001FC4B462246FBF702FB00223B46FBF7A6
:1050900001FBCDE90A5A00224346FBF754FAFBF71D
:1050A00023FC0C9037A10020FBF7CCF804004FF054
:1050B00004055AD02078452803D000208DF834000C
:1050C0004AE00120FAE70222214617A8FBF78EF8F2
:1050D00000258DF85E500222A11C18A8FBF786F867
:1050E0008DF862500222211D19A8FBF77FF88DF878
:1050F00066500222E11D1AA8FBF778F88DF86A5075
:1051000017A8FBF7BBF9119018A8FBF7B7F9129095
:1051100019A8FBF7B3F913901AA8FBF7AFF900EB46
:10512000800040001490119821460830119000E052
:105130001BE00DF13500FBF76CF812A10020FBF726
:1051400081F804004FF006050FD02078412817D0D1
:105150005FF000008DF854000AA10020FBF772F800
:1051600004466D1C002C7FF426AF1698FFF7BCFA9E
:10517000582269465846FBF707F81BB0BDE8F08F88
:105180000120E7E72C00000000004E400000E03F57
:1051900070B594B00D46064650216846FBF71BF8E3
:1051A00000242846FFF78CFB054638A1FBF74AF898
:1051B0005FE0122C58D2DFE804F0570912161A1ECD
:1051C00022262A2E32363A3E42464C5200784D284C
:1051D00003D000208DF8000046E00120FAE7FBF73D
:1051E0004DF9019040E0FBF749F902903CE0FBF7F4
:1051F00045F9039038E0FBF741F9049034E0FBF700
:105200003DF9059030E0FBF739F906902CE0FBF70B
:1052100035F9079028E0FBF731F9089024E0FBF717
:105220002DF9099020E0FBF729F90A901CE0FBF723
:1052300025F90B9018E0FBF721F90C9014E0FBF72F
:105240001DF90D9010E0002100F048FACDE90E01A3
:105250000AE0002100F042FACDE9100104E000214B
:1052600000F03CFACDE9120108A10020FAF7EAFFAC
:10527000641C00289DD12846FFF736FA5022694663
:105280003046FAF781FF14B070BD00002C0000001A
:1052900070B594B00D4606464C216846FAF79BFF60
:1052A00000242846FFF70CFB05461BA125E0082C2F
:1052B00020D2DFE804F01F04080C1014181CFBF7C0
:1052C000DDF8009016E0FBF7D9F8019012E0FBF74B
:1052D000D5F802900EE0FBF7D1F803900AE0FBF757
:1052E000CDF8049006E0FBF7C9F8059002E0FBF763
:1052F000C5F8069008A10020641CFAF7A3FF002857
:10530000D5D12846FFF7F0F94C2269463046FAF726
:105310003BFF14B070BD00002C00000070B586B0DB
:10532000002506460C460395481C0495FAF76AFFCB
:105330000246611C2046FAF727FF2046FAF762FF73
:10534000204401AA00F8035C02A8831E0090019586
:105350000BA102952046FAF797FFBDF80400ADF8BF
:105360000C00BDF80600ADF80E00BDF80800ADF861
:10537000100003983060BDF81000B08006B070BD1A
:1053800025303468782C25303468782C2530346802
:10539000780000002DE9F34FABB00C469821684629
:1053A000FAF719FF00262046FFF78AFA9EA12690F9
:1053B000FAF748FF64270446DFF87082DFF870923E
:1053C000002522E10C2E48D2DFE806F047064248CD
:1053D0007F89C2CBD2D9FDFC0222214627A8FAF749
:1053E00005FF8DF89E500222A11C28A8FAF7FEFEA8
:1053F0008DF8A2500222211D29A8FAF7F7FE8DF898
:10540000A650032204F108012AA8FAF7EFFE8DF84E
:10541000AA5027A8FBF732F8059028A8FBF72EF82A
:10542000069029A8FBF72AF807902AA8FBF726F888
:10543000089005982146083005906846FAF7E9FE7D
:1054400079A10020FAF7FEFE04004FF002067DD09D
:10545000207800B101208DF82400D0E021460DF124
:105460002500FAF7D6FE2046FFF7B7F904468A462C
:10547000FBF73AFA90FBF7F6642106FB01F0FBF725
:1054800001FA53462246FBF702F904468A46FBF727
:105490002BFA8346FBF7F6F953462246FBF7F7F85B
:1054A00000224346FBF7F6F8CDE90D6B00224B4690
:1054B000FBF749F8FBF718FA0F905BA10020FAF709
:1054C000C1FE04004FF00406C1D020784E2804D05D
:1054D0005FF000008DF8400091E00120FAE72146DE
:1054E0000DF14100FAF795FE2046FFF776F90C46DC
:1054F0008246FBF7F9F990FBF7F6642106FB01F011
:10550000FBF7C0F952462346FBF7C1F804468A462A
:10551000FBF7EAF98346FBF7B5F953462246FBF75A
:10552000B6F800224346FBF7B5F8CDE9146B00222C
:105530004B46FBF708F8FBF7D7F916903AA1002085
:10554000FAF780FE04004FF0060600E060E05FD04E
:105550002078452803D000208DF85C004FE0012022
:10556000FAE70021204600F0B9F8CDE9180146E03D
:105570000021204600F0B2F8CDE91A013FE00222F6
:10558000214627A8FAF732FE8DF89E500222A11C70
:1055900028A8FAF72BFE8DF8A2500222211D29A877
:1055A000FAF724FE8DF8A65029A8FAF767FF0646F9
:1055B00028A8FAF763FF824627A8FAF75FFF06F5E7
:1055C000FA6601E018E010E0CDE91E0A21462096B7
:1055D0001CA8FAF71EFE8DF8765013A10020FAF7EA
:1055E00031FE04004FF00A0612D00021204600F0E0
:1055F00075F8CDE9220102E020788DF890000AA12B
:105600000020FAF71FFE0446761C002C7FF4DAAE69
:105610002698FFF769F8982269462B98FAF7B4FDA7
:105620002DB0BDE8F08F00002C00000000004E40BF
:105630000000E03F70B590B00D4606464021684638
:10564000FAF7C9FD00242846FFF73AF9054622A1DA
:10565000FAF7F8FD34E0092C2DD2DFE804F02C0530
:105660000B0F15191F232900002100F037F8CDE991
:10567000000120E000788DF808001CE0002100F017
:105680002DF8CDE9040116E000788DF8180012E03D
:10569000002100F023F8CDE908010CE000788DF836
:1056A000280008E0002100F019F8CDE90C0102E023
:1056B00000788DF8380008A10020FAF7C3FD641CBB
:1056C0000028C8D12846FFF70FF840226946304627
:1056D000FAF75AFD10B070BD2C00000000B583B081
:1056E0000A460021CDE9001101466846FBF73FFA62
:1056F000DDE9000103B000BD010202030405060755
:1057000008090A0B0C0D0E0F10100102020304050C
:10571000060708090A0B0C0D0E0F10100000000000
:105720000000000001020304060708090000000051
:10573000010203040040404040404040404041419D
:105740004141414040404040404040404040404056
:1057500040404040400502020202020202020202F0
:1057600002020202022020202020202020202002ED
:10577000020202020202909090909090101010107D
:105780001010101010101010101010101010101019
:1057900002020202020288888888888808080808AD
:1057A0000808080808080808080808080808080879
:1057B000020202024000000035570008DC570008D2
:1057C0000000002020020000C41300081459000843
:1057D00020020020B8430000B0470008F153010147
:1057E00052FF32E90326500513010622D43CC9F2C8
:1057F00005081BC8761012071CC8399D1019081B14
:10580000381910129A1CC8A873101E9A03E8A8DF52
:105810001022961B69E61019081B68621012981C6A
:105820003289F01019081B88741022971B38261033
:1058300019081B39A21012991C32D8301019081BF4
:10584000D9B41012DC3A01301908193012031206CB
:105850003D01640B05081B658F1012041C0285CAEC
:105860001019081B844E1012A31C0174281019086B
:105870001B75AC401AA4A81A294019081BC9AD1001
:1058800022C81B08341019083B09B0103C01C9F4A8
:10589000102C01C870102D0101C864101E0101C92F
:1058A000E0AA66415BAA050812065A0510390813DA
:1058B000011012D24302048C7F2A050D1B6A1A1AAA
:1058C0001AE80D2307D01BFCCC1A690D1BE9FC1A42
:1058D0001ADE0D1FF830FFFF4FA01A890D591A1953
:1058E00007115BFF550D5FFEF0FFFFCEC2271B05C2
:1058F000505B5A920D0716FAB0FFFF5AC01AAA86DB
:105900001311111D1EAA041101112AFCBD195661A3
:04591000031124F467
:0400000508000131BD
:00000001FF
