Component: ARM Compiler 5.06 update 4 (build 422) Tool: armlink [4d35d2]

==============================================================================

Section Cross References

    startup_stm32f103xe.o(RESET) refers to startup_stm32f103xe.o(STACK) for __initial_sp
    startup_stm32f103xe.o(RESET) refers to startup_stm32f103xe.o(.text) for Reset_Handler
    startup_stm32f103xe.o(RESET) refers to stm32f1xx_it.o(i.NMI_Handler) for NMI_Handler
    startup_stm32f103xe.o(RESET) refers to stm32f1xx_it.o(i.HardFault_Handler) for HardFault_Handler
    startup_stm32f103xe.o(RESET) refers to stm32f1xx_it.o(i.MemManage_Handler) for MemManage_Handler
    startup_stm32f103xe.o(RESET) refers to stm32f1xx_it.o(i.BusFault_Handler) for BusFault_Handler
    startup_stm32f103xe.o(RESET) refers to stm32f1xx_it.o(i.UsageFault_Handler) for UsageFault_Handler
    startup_stm32f103xe.o(RESET) refers to stm32f1xx_it.o(i.SVC_Handler) for SVC_Handler
    startup_stm32f103xe.o(RESET) refers to stm32f1xx_it.o(i.DebugMon_Handler) for DebugMon_Handler
    startup_stm32f103xe.o(RESET) refers to stm32f1xx_it.o(i.PendSV_Handler) for PendSV_Handler
    startup_stm32f103xe.o(RESET) refers to stm32f1xx_it.o(i.SysTick_Handler) for SysTick_Handler
    startup_stm32f103xe.o(RESET) refers to stm32f1xx_it.o(i.EXTI0_IRQHandler) for EXTI0_IRQHandler
    startup_stm32f103xe.o(RESET) refers to stm32f1xx_it.o(i.EXTI1_IRQHandler) for EXTI1_IRQHandler
    startup_stm32f103xe.o(RESET) refers to stm32f1xx_it.o(i.DMA1_Channel2_IRQHandler) for DMA1_Channel2_IRQHandler
    startup_stm32f103xe.o(RESET) refers to stm32f1xx_it.o(i.DMA1_Channel3_IRQHandler) for DMA1_Channel3_IRQHandler
    startup_stm32f103xe.o(RESET) refers to stm32f1xx_it.o(i.DMA1_Channel4_IRQHandler) for DMA1_Channel4_IRQHandler
    startup_stm32f103xe.o(RESET) refers to stm32f1xx_it.o(i.DMA1_Channel5_IRQHandler) for DMA1_Channel5_IRQHandler
    startup_stm32f103xe.o(RESET) refers to stm32f1xx_it.o(i.DMA1_Channel6_IRQHandler) for DMA1_Channel6_IRQHandler
==============================================================================

Removing Unused input sections from the image.

    Removing roter.o(.rev16_text), (4 bytes).
    Removing roter.o(.revsh_text), (4 bytes).
    Removing roter.o(.rrx_text), (6 bytes).
    Removing roter.o(i.SetInit), (276 bytes).
    Removing roter.o(i.SetPeriodicity), (80 bytes).
    Removing main.o(.rev16_text), (4 bytes).
    Removing main.o(.revsh_text), (4 bytes).
    Removing main.o(.rrx_text), (6 bytes).
    Removing main.o(.bss), (200 bytes).
    Removing main.o(.data), (1 bytes).
    Removing main.o(.data), (8 bytes).
    Removing gpio.o(.rev16_text), (4 bytes).
    Removing gpio.o(.revsh_text), (4 bytes).
    Removing gpio.o(.rrx_text), (6 bytes).
    Removing adc.o(.rev16_text), (4 bytes).
    Removing adc.o(.revsh_text), (4 bytes).
    Removing adc.o(.rrx_text), (6 bytes).
    Removing adc.o(i.HAL_ADC_MspDeInit), (40 bytes).
==============================================================================

Image Symbol Table

    Local Symbols

    Symbol Name                              Value     Ov Type        Size  Object(Section)

    ../Core/Src/adc.c                        0x00000000   Number         0  adc.o ABSOLUTE
    ../Core/Src/dma.c                        0x00000000   Number         0  dma.o ABSOLUTE
    ../Core/Src/gpio.c                       0x00000000   Number         0  gpio.o ABSOLUTE
    ../Core/Src/main.c                       0x00000000   Number         0  main.o ABSOLUTE
    ../Core/Src/stm32f1xx_hal_msp.c          0x00000000   Number         0  stm32f1xx_hal_msp.o ABSOLUTE
    ../Core/Src/stm32f1xx_it.c               0x00000000   Number         0  stm32f1xx_it.o ABSOLUTE
    ../Core/Src/system_stm32f1xx.c           0x00000000   Number         0  system_stm32f1xx.o ABSOLUTE
    ../Core/Src/tim.c                        0x00000000   Number         0  tim.o ABSOLUTE
    ../Core/Src/usart.c                      0x00000000   Number         0  usart.o ABSOLUTE
    ../Drivers/STM32F1xx_HAL_Driver/Src/stm32f1xx_hal.c 0x00000000   Number         0  stm32f1xx_hal.o ABSOLUTE
    ../Drivers/STM32F1xx_HAL_Driver/Src/stm32f1xx_hal_adc.c 0x00000000   Number         0  stm32f1xx_hal_adc.o ABSOLUTE
    ../Drivers/STM32F1xx_HAL_Driver/Src/stm32f1xx_hal_adc_ex.c 0x00000000   Number         0  stm32f1xx_hal_adc_ex.o ABSOLUTE
    ../Drivers/STM32F1xx_HAL_Driver/Src/stm32f1xx_hal_cortex.c 0x00000000   Number         0  stm32f1xx_hal_cortex.o ABSOLUTE
    ../Drivers/STM32F1xx_HAL_Driver/Src/stm32f1xx_hal_dma.c 0x00000000   Number         0  stm32f1xx_hal_dma.o ABSOLUTE
    ../Drivers/STM32F1xx_HAL_Driver/Src/stm32f1xx_hal_exti.c 0x00000000   Number         0  stm32f1xx_hal_exti.o ABSOLUTE
    ../Drivers/STM32F1xx_HAL_Driver/Src/stm32f1xx_hal_flash.c 0x00000000   Number         0  stm32f1xx_hal_flash.o ABSOLUTE
    ../Drivers/STM32F1xx_HAL_Driver/Src/stm32f1xx_hal_flash_ex.c 0x00000000   Number         0  stm32f1xx_hal_flash_ex.o ABSOLUTE
    ../Drivers/STM32F1xx_HAL_Driver/Src/stm32f1xx_hal_gpio.c 0x00000000   Number         0  stm32f1xx_hal_gpio.o ABSOLUTE
    ../Drivers/STM32F1xx_HAL_Driver/Src/stm32f1xx_hal_gpio_ex.c 0x00000000   Number         0  stm32f1xx_hal_gpio_ex.o ABSOLUTE
    ../Drivers/STM32F1xx_HAL_Driver/Src/stm32f1xx_hal_pwr.c 0x00000000   Number         0  stm32f1xx_hal_pwr.o ABSOLUTE
    ../Drivers/STM32F1xx_HAL_Driver/Src/stm32f1xx_hal_rcc.c 0x00000000   Number         0  stm32f1xx_hal_rcc.o ABSOLUTE
    ../Drivers/STM32F1xx_HAL_Driver/Src/stm32f1xx_hal_rcc_ex.c 0x00000000   Number         0  stm32f1xx_hal_rcc_ex.o ABSOLUTE
    ../Drivers/STM32F1xx_HAL_Driver/Src/stm32f1xx_hal_tim.c 0x00000000   Number         0  stm32f1xx_hal_tim.o ABSOLUTE
    ../Drivers/STM32F1xx_HAL_Driver/Src/stm32f1xx_hal_tim_ex.c 0x00000000   Number         0  stm32f1xx_hal_tim_ex.o ABSOLUTE
    ../Drivers/STM32F1xx_HAL_Driver/Src/stm32f1xx_hal_uart.c 0x00000000   Number         0  stm32f1xx_hal_uart.o ABSOLUTE
    ../clib/../cmprslib/zerorunl2.c          0x00000000   Number         0  __dczerorl2.o ABSOLUTE
    ../clib/microlib/ctype/ctype.c           0x00000000   Number         0  isgraph_o.o ABSOLUTE
    ../clib/microlib/ctype/ctype.c           0x00000000   Number         0  islower_o.o ABSOLUTE
    ../clib/microlib/ctype/ctype.c           0x00000000   Number         0  ctype_o.o ABSOLUTE
    ../clib/microlib/ctype/ctype.c           0x00000000   Number         0  isprint_o.o ABSOLUTE
    ../clib/microlib/ctype/ctype.c           0x00000000   Number         0  ispunct_o.o ABSOLUTE
    ../clib/microlib/ctype/ctype.c           0x00000000   Number         0  isspace_o.o ABSOLUTE
    ../clib/microlib/ctype/ctype.c           0x00000000   Number         0  isxdigit_o.o ABSOLUTE
    ../clib/microlib/ctype/ctype.c           0x00000000   Number         0  isspace_c.o ABSOLUTE
    ../clib/microlib/ctype/ctype.c           0x00000000   Number         0  ctype_c.o ABSOLUTE
    ../clib/microlib/ctype/ctype.c           0x00000000   Number         0  isupper_o.o ABSOLUTE
    ../clib/microlib/ctype/ctype.c           0x00000000   Number         0  isalnum_o.o ABSOLUTE
    ../clib/microlib/ctype/ctype.c           0x00000000   Number         0  isalpha_o.o ABSOLUTE
    ../clib/microlib/ctype/ctype.c           0x00000000   Number         0  isblank_o.o ABSOLUTE
    ../clib/microlib/ctype/ctype.c           0x00000000   Number         0  iscntrl_o.o ABSOLUTE
    ../clib/microlib/ctype/ctype.c           0x00000000   Number         0  isdigit_o.o ABSOLUTE
    ../clib/microlib/division.c              0x00000000   Number         0  uidiv.o ABSOLUTE
    ../clib/microlib/division.c              0x00000000   Number         0  uldiv.o ABSOLUTE
    ../clib/microlib/errno.c                 0x00000000   Number         0  errno.o ABSOLUTE
    ../clib/microlib/init/entry.s            0x00000000   Number         0  entry11b.o ABSOLUTE
    ../clib/microlib/init/entry.s            0x00000000   Number         0  entry8b.o ABSOLUTE
    ../clib/microlib/init/entry.s            0x00000000   Number         0  entry10b.o ABSOLUTE
    ../clib/microlib/init/entry.s            0x00000000   Number         0  entry11a.o ABSOLUTE
    ../clib/microlib/init/entry.s            0x00000000   Number         0  entry7a.o ABSOLUTE
    ../clib/microlib/init/entry.s            0x00000000   Number         0  entry2.o ABSOLUTE
    ../clib/microlib/init/entry.s            0x00000000   Number         0  entry5.o ABSOLUTE
    ../clib/microlib/init/entry.s            0x00000000   Number         0  entry8a.o ABSOLUTE
    ../clib/microlib/init/entry.s            0x00000000   Number         0  entry7b.o ABSOLUTE
    ../clib/microlib/init/entry.s            0x00000000   Number         0  entry9a.o ABSOLUTE
    ../clib/microlib/init/entry.s            0x00000000   Number         0  entry.o ABSOLUTE
    ../clib/microlib/init/entry.s            0x00000000   Number         0  entry9b.o ABSOLUTE
    ../clib/microlib/init/entry.s            0x00000000   Number         0  entry10a.o ABSOLUTE
    ../clib/microlib/longlong.c              0x00000000   Number         0  llshl.o ABSOLUTE
    ../clib/microlib/longlong.c              0x00000000   Number         0  llsshr.o ABSOLUTE
    ../clib/microlib/longlong.c              0x00000000   Number         0  llushr.o ABSOLUTE
    ../clib/microlib/malloc/malloc.c         0x00000000   Number         0  malloca.o ABSOLUTE
    ../clib/microlib/malloc/malloc.c         0x00000000   Number         0  mallocr.o ABSOLUTE
    ../clib/microlib/malloc/malloc.c         0x00000000   Number         0  malloc.o ABSOLUTE
    ../clib/microlib/malloc/malloc.c         0x00000000   Number         0  mallocra.o ABSOLUTE
    ../clib/microlib/malloc/mvars.c          0x00000000   Number         0  mvars.o ABSOLUTE
    ../clib/microlib/printf/printf.c         0x00000000   Number         0  printf2.o ABSOLUTE
    ../clib/microlib/printf/printf.c         0x00000000   Number         0  printf3.o ABSOLUTE
    ../clib/microlib/printf/printf.c         0x00000000   Number         0  printf4.o ABSOLUTE
    ../clib/microlib/printf/printf.c         0x00000000   Number         0  printf0.o ABSOLUTE
    ../clib/microlib/printf/printf.c         0x00000000   Number         0  printfb.o ABSOLUTE
    ../clib/microlib/printf/printf.c         0x00000000   Number         0  printf1.o ABSOLUTE
    ../clib/microlib/printf/printf.c         0x00000000   Number         0  printf6.o ABSOLUTE
    ../clib/microlib/printf/printf.c         0x00000000   Number         0  printf7.o ABSOLUTE
    ../clib/microlib/printf/printf.c         0x00000000   Number         0  printf8.o ABSOLUTE
    ../clib/microlib/printf/printf.c         0x00000000   Number         0  printf5.o ABSOLUTE
    ../clib/microlib/printf/printf.c         0x00000000   Number         0  printfa.o ABSOLUTE
    ../clib/microlib/printf/stubs.s          0x00000000   Number         0  stubs.o ABSOLUTE
    ../clib/microlib/string/memcpy.c         0x00000000   Number         0  memcpyb.o ABSOLUTE
    ../clib/microlib/string/memcpy.c         0x00000000   Number         0  memmoveb.o ABSOLUTE
    ../clib/microlib/string/memcpy.c         0x00000000   Number         0  memcpya.o ABSOLUTE
    ../clib/microlib/string/memcpy.c         0x00000000   Number         0  memmovea.o ABSOLUTE
    ../clib/microlib/string/memset.c         0x00000000   Number         0  memseta.o ABSOLUTE
    ../clib/microlib/string/strcpy.c         0x00000000   Number         0  strcpy.o ABSOLUTE
    ../clib/microlib/string/strlen.c         0x00000000   Number         0  strlen.o ABSOLUTE
    ../clib/microlib/string/strncmp.c        0x00000000   Number         0  strncmp.o ABSOLUTE
    ../clib/microlib/string/strncpy.c        0x00000000   Number         0  strncpy.o ABSOLUTE
    ../clib/microlib/string/strtok.c         0x00000000   Number         0  strtok_r.o ABSOLUTE
    ../clib/microlib/string/strtok.c         0x00000000   Number         0  strtok.o ABSOLUTE
    ../clib/microlib/stubs.s                 0x00000000   Number         0  iusefp.o ABSOLUTE
    ../clib/scanf.c                          0x00000000   Number         0  scanf_char.o ABSOLUTE
    ../clib/scanf.c                          0x00000000   Number         0  _chval.o ABSOLUTE
    ../clib/scanf.c                          0x00000000   Number         0  __0sscanf.o ABSOLUTE
    ../clib/scanf.c                          0x00000000   Number         0  _scanf_int.o ABSOLUTE
    ../clib/scanf.c                          0x00000000   Number         0  strtol.o ABSOLUTE
    ../clib/scanf.c                          0x00000000   Number         0  atoi.o ABSOLUTE
    ../clib/scanf.c                          0x00000000   Number         0  scanf_fp.o ABSOLUTE
    ../clib/scanf.c                          0x00000000   Number         0  _scanf.o ABSOLUTE
    ../clib/scanf.c                          0x00000000   Number         0  _sgetc.o ABSOLUTE
    ../clib/scanf.c                          0x00000000   Number         0  _strtoul.o ABSOLUTE
    ../clib/scanf.c                          0x00000000   Number         0  strtod.o ABSOLUTE
    ../fplib/microlib/d2f.c                  0x00000000   Number         0  d2f.o ABSOLUTE
    ../fplib/microlib/f2d.c                  0x00000000   Number         0  f2d.o ABSOLUTE
    ../fplib/microlib/fpadd.c                0x00000000   Number         0  dadd.o ABSOLUTE
    ../fplib/microlib/fpdiv.c                0x00000000   Number         0  ddiv.o ABSOLUTE
    ../fplib/microlib/fpepilogue.c           0x00000000   Number         0  fepilogue.o ABSOLUTE
    ../fplib/microlib/fpepilogue.c           0x00000000   Number         0  depilogue.o ABSOLUTE
    ../fplib/microlib/fpfix.c                0x00000000   Number         0  dfixui.o ABSOLUTE
    ../fplib/microlib/fpfix.c                0x00000000   Number         0  dfixi.o ABSOLUTE
    ../fplib/microlib/fpfix.c                0x00000000   Number         0  ffixui.o ABSOLUTE
    ../fplib/microlib/fpfix.c                0x00000000   Number         0  dfixul.o ABSOLUTE
    ../fplib/microlib/fpflt.c                0x00000000   Number         0  dfltul.o ABSOLUTE
    ../fplib/microlib/fpflt.c                0x00000000   Number         0  dfltui.o ABSOLUTE
    ../fplib/microlib/fpflt.c                0x00000000   Number         0  dflti.o ABSOLUTE
    ../fplib/microlib/fpmul.c                0x00000000   Number         0  dmul.o ABSOLUTE
    ../fplib/microlib/fpscalb.c              0x00000000   Number         0  dscalb.o ABSOLUTE
    ../mathlib/atof.c                        0x00000000   Number         0  atof.o ABSOLUTE
    ../mathlib/strtod.c                      0x00000000   Number         0  strtod.o ABSOLUTE
    ..\Core\Src\Roter.c                      0x00000000   Number         0  roter.o ABSOLUTE
    ..\Core\Src\adc.c                        0x00000000   Number         0  adc.o ABSOLUTE
    ..\Core\Src\dma.c                        0x00000000   Number         0  dma.o ABSOLUTE
    ..\Core\Src\gpio.c                       0x00000000   Number         0  gpio.o ABSOLUTE
    ..\Core\Src\gps.c                        0x00000000   Number         0  gps.o ABSOLUTE
    ..\Core\Src\main.c                       0x00000000   Number         0  main.o ABSOLUTE
    ..\Core\Src\stm32f1xx_hal_msp.c          0x00000000   Number         0  stm32f1xx_hal_msp.o ABSOLUTE
    ..\Core\Src\stm32f1xx_it.c               0x00000000   Number         0  stm32f1xx_it.o ABSOLUTE
    ..\Core\Src\system_stm32f1xx.c           0x00000000   Number         0  system_stm32f1xx.o ABSOLUTE
    ..\Core\Src\tim.c                        0x00000000   Number         0  tim.o ABSOLUTE
    ..\Core\Src\usart.c                      0x00000000   Number         0  usart.o ABSOLUTE
    ..\Drivers\STM32F1xx_HAL_Driver\Src\stm32f1xx_hal.c 0x00000000   Number         0  stm32f1xx_hal.o ABSOLUTE
    ..\Drivers\STM32F1xx_HAL_Driver\Src\stm32f1xx_hal_adc.c 0x00000000   Number         0  stm32f1xx_hal_adc.o ABSOLUTE
    ..\Drivers\STM32F1xx_HAL_Driver\Src\stm32f1xx_hal_adc_ex.c 0x00000000   Number         0  stm32f1xx_hal_adc_ex.o ABSOLUTE
    ..\Drivers\STM32F1xx_HAL_Driver\Src\stm32f1xx_hal_cortex.c 0x00000000   Number         0  stm32f1xx_hal_cortex.o ABSOLUTE
    ..\Drivers\STM32F1xx_HAL_Driver\Src\stm32f1xx_hal_dma.c 0x00000000   Number         0  stm32f1xx_hal_dma.o ABSOLUTE
    ..\Drivers\STM32F1xx_HAL_Driver\Src\stm32f1xx_hal_exti.c 0x00000000   Number         0  stm32f1xx_hal_exti.o ABSOLUTE
    ..\Drivers\STM32F1xx_HAL_Driver\Src\stm32f1xx_hal_flash.c 0x00000000   Number         0  stm32f1xx_hal_flash.o ABSOLUTE
    ..\Drivers\STM32F1xx_HAL_Driver\Src\stm32f1xx_hal_flash_ex.c 0x00000000   Number         0  stm32f1xx_hal_flash_ex.o ABSOLUTE
    ..\Drivers\STM32F1xx_HAL_Driver\Src\stm32f1xx_hal_gpio.c 0x00000000   Number         0  stm32f1xx_hal_gpio.o ABSOLUTE
    ..\Drivers\STM32F1xx_HAL_Driver\Src\stm32f1xx_hal_gpio_ex.c 0x00000000   Number         0  stm32f1xx_hal_gpio_ex.o ABSOLUTE
    ..\Drivers\STM32F1xx_HAL_Driver\Src\stm32f1xx_hal_pwr.c 0x00000000   Number         0  stm32f1xx_hal_pwr.o ABSOLUTE
    ..\Drivers\STM32F1xx_HAL_Driver\Src\stm32f1xx_hal_rcc.c 0x00000000   Number         0  stm32f1xx_hal_rcc.o ABSOLUTE
    ..\Drivers\STM32F1xx_HAL_Driver\Src\stm32f1xx_hal_rcc_ex.c 0x00000000   Number         0  stm32f1xx_hal_rcc_ex.o ABSOLUTE
    ..\Drivers\STM32F1xx_HAL_Driver\Src\stm32f1xx_hal_tim.c 0x00000000   Number         0  stm32f1xx_hal_tim.o ABSOLUTE
    ..\Drivers\STM32F1xx_HAL_Driver\Src\stm32f1xx_hal_tim_ex.c 0x00000000   Number         0  stm32f1xx_hal_tim_ex.o ABSOLUTE
    ..\Drivers\STM32F1xx_HAL_Driver\Src\stm32f1xx_hal_uart.c 0x00000000   Number         0  stm32f1xx_hal_uart.o ABSOLUTE
    ..\\Core\\Src\\Roter.c                   0x00000000   Number         0  roter.o ABSOLUTE
    cdrcmple.s                               0x00000000   Number         0  cdrcmple.o ABSOLUTE
    dc.s                                     0x00000000   Number         0  dc.o ABSOLUTE
    handlers.s                               0x00000000   Number         0  handlers.o ABSOLUTE
    init.s                                   0x00000000   Number         0  init.o ABSOLUTE
    startup_stm32f103xe.s                    0x00000000   Number         0  startup_stm32f103xe.o ABSOLUTE
    RESET                                    0x08000000   Section      304  startup_stm32f103xe.o(RESET)
    .ARM.Collect$$$$00000000                 0x08000130   Section        0  entry.o(.ARM.Collect$$$$00000000)
    .ARM.Collect$$$$00000001                 0x08000130   Section        4  entry2.o(.ARM.Collect$$$$00000001)
    .ARM.Collect$$$$00000004                 0x08000134   Section        4  entry5.o(.ARM.Collect$$$$00000004)
    .ARM.Collect$$$$00000008                 0x08000138   Section        0  entry7b.o(.ARM.Collect$$$$00000008)
    .ARM.Collect$$$$0000000A                 0x08000138   Section        0  entry8b.o(.ARM.Collect$$$$0000000A)
    .ARM.Collect$$$$0000000B                 0x08000138   Section        8  entry9a.o(.ARM.Collect$$$$0000000B)
    .ARM.Collect$$$$0000000D                 0x08000140   Section        0  entry10a.o(.ARM.Collect$$$$0000000D)
    .ARM.Collect$$$$0000000F                 0x08000140   Section        0  entry11a.o(.ARM.Collect$$$$0000000F)
    .ARM.Collect$$$$00002712                 0x08000140   Section        4  entry2.o(.ARM.Collect$$$$00002712)
    __lit__00000000                          0x08000140   Data           4  entry2.o(.ARM.Collect$$$$00002712)
    .text                                    0x08000144   Section       36  startup_stm32f103xe.o(.text)
    .text                                    0x08000168   Section        0  llushr.o(.text)
    .text                                    0x08000188   Section        0  memmovea.o(.text)
    .text                                    0x080001c8   Section        0  memseta.o(.text)
    .text                                    0x080001ec   Section        0  strncpy.o(.text)
    .text                                    0x08000204   Section        0  strlen.o(.text)
    .text                                    0x08000212   Section        0  strcpy.o(.text)
    .text                                    0x08000224   Section        0  strncmp.o(.text)
    .text                                    0x08000244   Section        0  strtok.o(.text)
    .text                                    0x08000288   Section        0  __0sscanf.o(.text)
    .text                                    0x080002c0   Section        0  _scanf_int.o(.text)
    .text                                    0x0800040c   Section        0  strtol.o(.text)
    .text                                    0x0800047c   Section        0  atoi.o(.text)
    .text                                    0x08000496   Section        0  dadd.o(.text)
    .text                                    0x080005e4   Section        0  dmul.o(.text)
    .text                                    0x080006c8   Section        0  dscalb.o(.text)
    .text                                    0x080006f6   Section        0  dflti.o(.text)
    .text                                    0x08000718   Section        0  dfltui.o(.text)
    .text                                    0x08000732   Section        0  ffixui.o(.text)
    .text                                    0x0800075a   Section        0  dfixi.o(.text)
    .text                                    0x08000798   Section        0  dfixui.o(.text)
    .text                                    0x080007ca   Section        0  f2d.o(.text)
    .text                                    0x080007f0   Section        0  d2f.o(.text)
    .text                                    0x08000828   Section        0  uidiv.o(.text)
    .text                                    0x08000854   Section        0  llshl.o(.text)
    .text                                    0x08000872   Section        0  llsshr.o(.text)
    .text                                    0x08000898   Section        0  ctype_o.o(.text)
    .text                                    0x080008a0   Section        0  isspace_o.o(.text)
    .text                                    0x080008b2   Section        0  _chval.o(.text)
    .text                                    0x080008d0   Section        0  scanf_char.o(.text)
    _scanf_char_input                        0x080008d1   Thumb Code    12  scanf_char.o(.text)
    .text                                    0x080008f8   Section        0  _sgetc.o(.text)
    .text                                    0x08000938   Section        0  _strtoul.o(.text)
    .text                                    0x080009d8   Section        0  strtod.o(.text)
    _local_sscanf                            0x080009d9   Thumb Code    54  strtod.o(.text)
    .text                                    0x08000a74   Section        0  fepilogue.o(.text)
    .text                                    0x08000a74   Section        0  iusefp.o(.text)
    .text                                    0x08000ae2   Section        0  depilogue.o(.text)
    .text                                    0x08000b9c   Section        0  ddiv.o(.text)
    .text                                    0x08000c7c   Section       36  init.o(.text)
    .text                                    0x08000ca0   Section        0  _scanf.o(.text)
    .text                                    0x08000fcc   Section        0  scanf_fp.o(.text)
    _fp_value                                0x08000fcd   Thumb Code   256  scanf_fp.o(.text)
    .text                                    0x08001304   Section        0  dfltul.o(.text)
    .text                                    0x0800131c   Section        0  __dczerorl2.o(.text)
    i.ADC_BAT_Test                           0x08001374   Section        0  main.o(i.ADC_BAT_Test)
    i.ADC_ConversionStop_Disable             0x08001400   Section        0  stm32f1xx_hal_adc.o(i.ADC_ConversionStop_Disable)
    i.ADC_Enable                             0x08001458   Section        0  stm32f1xx_hal_adc.o(i.ADC_Enable)
    i.BusFault_Handler                       0x080014d4   Section        0  stm32f1xx_it.o(i.BusFault_Handler)
    i.CopyAngleDataToUsart1                  0x080014d8   Section        0  main.o(i.CopyAngleDataToUsart1)
    i.CopyGpsDataToUsart1                    0x08001508   Section        0  main.o(i.CopyGpsDataToUsart1)
    i.DMA1_Channel2_IRQHandler               0x08001574   Section        0  stm32f1xx_it.o(i.DMA1_Channel2_IRQHandler)
    i.DMA1_Channel3_IRQHandler               0x08001580   Section        0  stm32f1xx_it.o(i.DMA1_Channel3_IRQHandler)
    i.DMA1_Channel4_IRQHandler               0x0800158c   Section        0  stm32f1xx_it.o(i.DMA1_Channel4_IRQHandler)
    i.DMA1_Channel5_IRQHandler               0x08001598   Section        0  stm32f1xx_it.o(i.DMA1_Channel5_IRQHandler)
    i.DMA1_Channel6_IRQHandler               0x080015a4   Section        0  stm32f1xx_it.o(i.DMA1_Channel6_IRQHandler)
    i.DMA1_Channel7_IRQHandler               0x080015b0   Section        0  stm32f1xx_it.o(i.DMA1_Channel7_IRQHandler)
    i.DataParseCondition                     0x080015bc   Section        0  roter.o(i.DataParseCondition)
    i.DataParseLocation                      0x0800165c   Section        0  roter.o(i.DataParseLocation)
    i.DataParsePolice                        0x080016b8   Section        0  roter.o(i.DataParsePolice)
    i.DebugMon_Handler                       0x08001734   Section        0  stm32f1xx_it.o(i.DebugMon_Handler)
    i.EXTI0_IRQHandler                       0x08001736   Section        0  stm32f1xx_it.o(i.EXTI0_IRQHandler)
    i.EXTI1_IRQHandler                       0x0800173c   Section        0  stm32f1xx_it.o(i.EXTI1_IRQHandler)
    i.EXTI9_5_IRQHandler                     0x08001742   Section        0  stm32f1xx_it.o(i.EXTI9_5_IRQHandler)
    i.Error_Handler                          0x08001758   Section        0  main.o(i.Error_Handler)
    i.FireGun                                0x0800175c   Section        0  main.o(i.FireGun)
    i.HAL_ADCEx_Calibration_Start            0x08001774   Section        0  stm32f1xx_hal_adc_ex.o(i.HAL_ADCEx_Calibration_Start)
    i.HAL_ADC_ConfigChannel                  0x0800184c   Section        0  stm32f1xx_hal_adc.o(i.HAL_ADC_ConfigChannel)
    i.HAL_ADC_GetValue                       0x08001948   Section        0  stm32f1xx_hal_adc.o(i.HAL_ADC_GetValue)
    i.HAL_ADC_Init                           0x08001950   Section        0  stm32f1xx_hal_adc.o(i.HAL_ADC_Init)
    i.HAL_ADC_MspInit                        0x08001a70   Section        0  adc.o(i.HAL_ADC_MspInit)
    i.HAL_ADC_PollForConversion              0x08001ac8   Section        0  stm32f1xx_hal_adc.o(i.HAL_ADC_PollForConversion)
    i.HAL_ADC_Start                          0x08001c04   Section        0  stm32f1xx_hal_adc.o(i.HAL_ADC_Start)
    i.HAL_DMA_Abort                          0x08001cc4   Section        0  stm32f1xx_hal_dma.o(i.HAL_DMA_Abort)
    i.HAL_DMA_Abort_IT                       0x08001d0c   Section        0  stm32f1xx_hal_dma.o(i.HAL_DMA_Abort_IT)
    i.HAL_DMA_IRQHandler                     0x08001e3c   Section        0  stm32f1xx_hal_dma.o(i.HAL_DMA_IRQHandler)
    i.HAL_DMA_Init                           0x08002084   Section        0  stm32f1xx_hal_dma.o(i.HAL_DMA_Init)
    i.HAL_Delay                              0x08002100   Section        0  stm32f1xx_hal.o(i.HAL_Delay)
    i.HAL_GPIO_EXTI_Callback                 0x08002124   Section        0  main.o(i.HAL_GPIO_EXTI_Callback)
    i.HAL_GPIO_EXTI_IRQHandler               0x08002154   Section        0  stm32f1xx_hal_gpio.o(i.HAL_GPIO_EXTI_IRQHandler)
    i.HAL_GPIO_Init                          0x0800216c   Section        0  stm32f1xx_hal_gpio.o(i.HAL_GPIO_Init)
    i.HAL_GPIO_TogglePin                     0x08002364   Section        0  stm32f1xx_hal_gpio.o(i.HAL_GPIO_TogglePin)
    i.HAL_GPIO_WritePin                      0x08002374   Section        0  stm32f1xx_hal_gpio.o(i.HAL_GPIO_WritePin)
    i.HAL_GetTick                            0x08002380   Section        0  stm32f1xx_hal.o(i.HAL_GetTick)
    i.HAL_IncTick                            0x0800238c   Section        0  stm32f1xx_hal.o(i.HAL_IncTick)
    i.HAL_Init                               0x0800239c   Section        0  stm32f1xx_hal.o(i.HAL_Init)
    i.HAL_InitTick                           0x080023c0   Section        0  stm32f1xx_hal.o(i.HAL_InitTick)
    i.HAL_MspInit                            0x08002400   Section        0  stm32f1xx_hal_msp.o(i.HAL_MspInit)
    i.HAL_NVIC_EnableIRQ                     0x0800243c   Section        0  stm32f1xx_hal_cortex.o(i.HAL_NVIC_EnableIRQ)
    i.HAL_NVIC_SetPriority                   0x08002458   Section        0  stm32f1xx_hal_cortex.o(i.HAL_NVIC_SetPriority)
    i.HAL_NVIC_SetPriorityGrouping           0x08002498   Section        0  stm32f1xx_hal_cortex.o(i.HAL_NVIC_SetPriorityGrouping)
    i.HAL_RCCEx_GetPeriphCLKFreq             0x080024bc   Section        0  stm32f1xx_hal_rcc_ex.o(i.HAL_RCCEx_GetPeriphCLKFreq)
    i.HAL_RCCEx_PeriphCLKConfig              0x08002574   Section        0  stm32f1xx_hal_rcc_ex.o(i.HAL_RCCEx_PeriphCLKConfig)
    i.HAL_RCC_ClockConfig                    0x08002660   Section        0  stm32f1xx_hal_rcc.o(i.HAL_RCC_ClockConfig)
    i.HAL_RCC_GetPCLK1Freq                   0x0800278c   Section        0  stm32f1xx_hal_rcc.o(i.HAL_RCC_GetPCLK1Freq)
    i.HAL_RCC_GetPCLK2Freq                   0x080027ac   Section        0  stm32f1xx_hal_rcc.o(i.HAL_RCC_GetPCLK2Freq)
    i.HAL_RCC_GetSysClockFreq                0x080027cc   Section        0  stm32f1xx_hal_rcc.o(i.HAL_RCC_GetSysClockFreq)
    i.HAL_RCC_OscConfig                      0x08002820   Section        0  stm32f1xx_hal_rcc.o(i.HAL_RCC_OscConfig)
    i.HAL_SYSTICK_Config                     0x08002b40   Section        0  stm32f1xx_hal_cortex.o(i.HAL_SYSTICK_Config)
    i.HAL_TIMEx_BreakCallback                0x08002b68   Section        0  stm32f1xx_hal_tim_ex.o(i.HAL_TIMEx_BreakCallback)
    i.HAL_TIMEx_CommutCallback               0x08002b6a   Section        0  stm32f1xx_hal_tim_ex.o(i.HAL_TIMEx_CommutCallback)
    i.HAL_TIMEx_MasterConfigSynchronization  0x08002b6c   Section        0  stm32f1xx_hal_tim_ex.o(i.HAL_TIMEx_MasterConfigSynchronization)
    i.HAL_TIM_Base_Init                      0x08002be8   Section        0  stm32f1xx_hal_tim.o(i.HAL_TIM_Base_Init)
    i.HAL_TIM_Base_MspInit                   0x08002c44   Section        0  tim.o(i.HAL_TIM_Base_MspInit)
    i.HAL_TIM_IC_CaptureCallback             0x08002c80   Section        0  stm32f1xx_hal_tim.o(i.HAL_TIM_IC_CaptureCallback)
    i.HAL_TIM_IRQHandler                     0x08002c82   Section        0  stm32f1xx_hal_tim.o(i.HAL_TIM_IRQHandler)
    i.HAL_TIM_OC_DelayElapsedCallback        0x08002de8   Section        0  stm32f1xx_hal_tim.o(i.HAL_TIM_OC_DelayElapsedCallback)
    i.HAL_TIM_PWM_PulseFinishedCallback      0x08002dea   Section        0  stm32f1xx_hal_tim.o(i.HAL_TIM_PWM_PulseFinishedCallback)
    i.HAL_TIM_PeriodElapsedCallback          0x08002dec   Section        0  stm32f1xx_hal_tim.o(i.HAL_TIM_PeriodElapsedCallback)
    i.HAL_TIM_TriggerCallback                0x08002dee   Section        0  stm32f1xx_hal_tim.o(i.HAL_TIM_TriggerCallback)
    i.HAL_UARTEx_ReceiveToIdle_IT            0x08002df0   Section        0  stm32f1xx_hal_uart.o(i.HAL_UARTEx_ReceiveToIdle_IT)
    i.HAL_UARTEx_RxEventCallback             0x08002e40   Section        0  main.o(i.HAL_UARTEx_RxEventCallback)
    i.HAL_UART_ErrorCallback                 0x08002e84   Section        0  stm32f1xx_hal_uart.o(i.HAL_UART_ErrorCallback)
    i.HAL_UART_IRQHandler                    0x08002e88   Section        0  stm32f1xx_hal_uart.o(i.HAL_UART_IRQHandler)
    i.HAL_UART_Init                          0x080030f4   Section        0  stm32f1xx_hal_uart.o(i.HAL_UART_Init)
    i.HAL_UART_MspInit                       0x08003158   Section        0  usart.o(i.HAL_UART_MspInit)
    i.HAL_UART_Receive_IT                    0x080034d0   Section        0  stm32f1xx_hal_uart.o(i.HAL_UART_Receive_IT)
    i.HAL_UART_RxCpltCallback                0x080034ec   Section        0  main.o(i.HAL_UART_RxCpltCallback)
    i.HAL_UART_Transmit                      0x08003544   Section        0  stm32f1xx_hal_uart.o(i.HAL_UART_Transmit)
    i.HAL_UART_TxCpltCallback                0x080035de   Section        0  stm32f1xx_hal_uart.o(i.HAL_UART_TxCpltCallback)
    i.HardFault_Handler                      0x080035e0   Section        0  stm32f1xx_it.o(i.HardFault_Handler)
    i.MX_ADC1_Init                           0x080035e4   Section        0  adc.o(i.MX_ADC1_Init)
    i.MX_DMA_Init                            0x08003634   Section        0  dma.o(i.MX_DMA_Init)
    i.MX_GPIO_Init                           0x080036b0   Section        0  gpio.o(i.MX_GPIO_Init)
    i.MX_TIM6_Init                           0x08003820   Section        0  tim.o(i.MX_TIM6_Init)
    i.MX_UART4_Init                          0x0800386c   Section        0  usart.o(i.MX_UART4_Init)
    i.MX_UART5_Init                          0x080038a4   Section        0  usart.o(i.MX_UART5_Init)
    i.MX_USART1_UART_Init                    0x080038dc   Section        0  usart.o(i.MX_USART1_UART_Init)
    i.MX_USART2_UART_Init                    0x08003914   Section        0  usart.o(i.MX_USART2_UART_Init)
    i.MX_USART3_UART_Init                    0x0800394c   Section        0  usart.o(i.MX_USART3_UART_Init)
    i.MemManage_Handler                      0x08003984   Section        0  stm32f1xx_it.o(i.MemManage_Handler)
    i.NMI_Handler                            0x08003986   Section        0  stm32f1xx_it.o(i.NMI_Handler)
    i.PendSV_Handler                         0x08003988   Section        0  stm32f1xx_it.o(i.PendSV_Handler)
    i.ProcessCmdBuffer                       0x0800398c   Section        0  roter.o(i.ProcessCmdBuffer)
    i.RemovePoliceToRoter                    0x08003a40   Section        0  roter.o(i.RemovePoliceToRoter)
    i.RoterAngle1                            0x08003a80   Section        0  roter.o(i.RoterAngle1)
    i.RoterAngle5                            0x08003af8   Section        0  roter.o(i.RoterAngle5)
    i.RoterRelativeAngle1                    0x08003b70   Section        0  roter.o(i.RoterRelativeAngle1)
    i.RoterRelativeAngle5                    0x08003be8   Section        0  roter.o(i.RoterRelativeAngle5)
    i.RoterTimeAdd                           0x08003c60   Section        0  main.o(i.RoterTimeAdd)
    i.SVC_Handler                            0x08003d14   Section        0  stm32f1xx_it.o(i.SVC_Handler)
    i.SendCmdToBuf                           0x08003d18   Section        0  roter.o(i.SendCmdToBuf)
    i.SendDataByUART                         0x08003dd0   Section        0  main.o(i.SendDataByUART)
    i.SetInching                             0x08003e54   Section        0  roter.o(i.SetInching)
    i.SetRestoration                         0x08003e5c   Section        0  roter.o(i.SetRestoration)
    i.SysTick_Handler                        0x08003e88   Section        0  stm32f1xx_it.o(i.SysTick_Handler)
    i.SystemClock_Config                     0x08003e8c   Section        0  main.o(i.SystemClock_Config)
    i.SystemInit                             0x08003f04   Section        0  system_stm32f1xx.o(i.SystemInit)
    i.TIM6_IRQHandler                        0x08003f08   Section        0  stm32f1xx_it.o(i.TIM6_IRQHandler)
    i.TIM_Base_SetConfig                     0x08003f14   Section        0  stm32f1xx_hal_tim.o(i.TIM_Base_SetConfig)
    i.UART2DataParse                         0x08003fa0   Section        0  roter.o(i.UART2DataParse)
    i.UART2DataRecv                          0x0800407c   Section        0  roter.o(i.UART2DataRecv)
    i.UART4_IRQHandler                       0x080040e4   Section        0  stm32f1xx_it.o(i.UART4_IRQHandler)
    i.UART5_IRQHandler                       0x080040f0   Section        0  stm32f1xx_it.o(i.UART5_IRQHandler)
    i.UART_DMAAbortOnError                   0x080040fc   Section        0  stm32f1xx_hal_uart.o(i.UART_DMAAbortOnError)
    UART_DMAAbortOnError                     0x080040fd   Thumb Code    16  stm32f1xx_hal_uart.o(i.UART_DMAAbortOnError)
    i.UART_EndRxTransfer                     0x0800410c   Section        0  stm32f1xx_hal_uart.o(i.UART_EndRxTransfer)
    UART_EndRxTransfer                       0x0800410d   Thumb Code    78  stm32f1xx_hal_uart.o(i.UART_EndRxTransfer)
    i.UART_Receive_IT                        0x0800415a   Section        0  stm32f1xx_hal_uart.o(i.UART_Receive_IT)
    UART_Receive_IT                          0x0800415b   Thumb Code   194  stm32f1xx_hal_uart.o(i.UART_Receive_IT)
    i.UART_SetConfig                         0x0800421c   Section        0  stm32f1xx_hal_uart.o(i.UART_SetConfig)
    UART_SetConfig                           0x0800421d   Thumb Code   178  stm32f1xx_hal_uart.o(i.UART_SetConfig)
    i.UART_Start_Receive_IT                  0x080042d4   Section        0  stm32f1xx_hal_uart.o(i.UART_Start_Receive_IT)
    i.UART_WaitOnFlagUntilTimeout            0x0800430a   Section        0  stm32f1xx_hal_uart.o(i.UART_WaitOnFlagUntilTimeout)
    UART_WaitOnFlagUntilTimeout              0x0800430b   Thumb Code   120  stm32f1xx_hal_uart.o(i.UART_WaitOnFlagUntilTimeout)
    i.USART1DataRecv                         0x08004384   Section        0  main.o(i.USART1DataRecv)
    i.USART1_IRQHandler                      0x080044c4   Section        0  stm32f1xx_it.o(i.USART1_IRQHandler)
    i.USART2_IRQHandler                      0x080044d0   Section        0  stm32f1xx_it.o(i.USART2_IRQHandler)
    i.USART3_IRQHandler                      0x080044dc   Section        0  stm32f1xx_it.o(i.USART3_IRQHandler)
    i.UsageFault_Handler                     0x080044e8   Section        0  stm32f1xx_it.o(i.UsageFault_Handler)
    i.__0printf$1                            0x080044ec   Section        0  printf1.o(i.__0printf$1)
    i.__NVIC_SetPriority                     0x0800450c   Section        0  stm32f1xx_hal_cortex.o(i.__NVIC_SetPriority)
    __NVIC_SetPriority                       0x0800450d   Thumb Code    32  stm32f1xx_hal_cortex.o(i.__NVIC_SetPriority)
    i.__aeabi_errno_addr                     0x0800452c   Section        0  errno.o(i.__aeabi_errno_addr)
    i.__free$realloc                         0x08004534   Section        0  mallocr.o(i.__free$realloc)
    i.__malloc$realloc                       0x08004590   Section        0  mallocr.o(i.__malloc$realloc)
    i.__read_errno                           0x080045e0   Section        0  errno.o(i.__read_errno)
    i.__scatterload_copy                     0x080045ec   Section       14  handlers.o(i.__scatterload_copy)
    i.__scatterload_null                     0x080045fa   Section        2  handlers.o(i.__scatterload_null)
    i.__scatterload_zeroinit                 0x080045fc   Section       14  handlers.o(i.__scatterload_zeroinit)
    i.__set_errno                            0x0800460c   Section        0  errno.o(i.__set_errno)
    i._is_digit                              0x08004618   Section        0  scanf_fp.o(i._is_digit)
    i._printf_core                           0x08004628   Section        0  printf1.o(i._printf_core)
    _printf_core                             0x08004629   Thumb Code   336  printf1.o(i._printf_core)
    i.atof                                   0x0800477c   Section        0  atof.o(i.atof)
    i.calculate_checksum                     0x080047a6   Section        0  main.o(i.calculate_checksum)
    i.check_sum                              0x080047c0   Section        0  roter.o(i.check_sum)
    i.crc16                                  0x080047de   Section        0  roter.o(i.crc16)
    i.fputc                                  0x08004818   Section        0  usart.o(i.fputc)
    i.hexToBinChar                           0x08004830   Section        0  roter.o(i.hexToBinChar)
    i.hex_to_int                             0x0800485c   Section        0  roter.o(i.hex_to_int)
    i.insertZerosBetweenCommas               0x0800487c   Section        0  gps.o(i.insertZerosBetweenCommas)
    i.int_to_hex                             0x080048ec   Section        0  roter.o(i.int_to_hex)
    i.internal_alloc                         0x080048fc   Section        0  mallocr.o(i.internal_alloc)
    internal_alloc                           0x080048fd   Thumb Code    76  mallocr.o(i.internal_alloc)
    i.main                                   0x0800494c   Section        0  main.o(i.main)
    i.realloc                                0x08004b04   Section        0  mallocr.o(i.realloc)
    i.receive_gps_data                       0x08004b70   Section        0  gps.o(i.receive_gps_data)
    i.strGga_parse                           0x08004d04   Section        0  gps.o(i.strGga_parse)
    i.strGll_parse                           0x08004fa4   Section        0  gps.o(i.strGll_parse)
    i.strGsa_parse                           0x080051ac   Section        0  gps.o(i.strGsa_parse)
    i.strGsv_parse                           0x080052ac   Section        0  gps.o(i.strGsv_parse)
    i.strRHXZ_parse                          0x08005338   Section        0  gps.o(i.strRHXZ_parse)
    i.strRmc_parse                           0x080053b0   Section        0  gps.o(i.strRmc_parse)
    i.strVtg_parse                           0x08005650   Section        0  gps.o(i.strVtg_parse)
    i.strtod                                 0x080056f8   Section        0  strtod.o(i.strtod)
    .constdata                               0x08005714   Section       18  stm32f1xx_hal_rcc.o(.constdata)
    aPredivFactorTable                       0x08005714   Data           2  stm32f1xx_hal_rcc.o(.constdata)
    aPLLMULFactorTable                       0x08005716   Data          16  stm32f1xx_hal_rcc.o(.constdata)
    .constdata                               0x08005726   Section       18  stm32f1xx_hal_rcc_ex.o(.constdata)
    aPredivFactorTable                       0x08005726   Data           2  stm32f1xx_hal_rcc_ex.o(.constdata)
    aPLLMULFactorTable                       0x08005728   Data          16  stm32f1xx_hal_rcc_ex.o(.constdata)
    .constdata                               0x08005738   Section       16  system_stm32f1xx.o(.constdata)
    .constdata                               0x08005748   Section        8  system_stm32f1xx.o(.constdata)
    .constdata                               0x08005750   Section      129  ctype_o.o(.constdata)
    .constdata                               0x080057d4   Section        4  ctype_o.o(.constdata)
    table                                    0x080057d4   Data           4  ctype_o.o(.constdata)
    .data                                    0x20000000   Section        6  gps.o(.data)
    .data                                    0x20000008   Section      342  roter.o(.data)
    cmdLength                                0x20000013   Data           1  roter.o(.data)
    .data                                    0x2000015e   Section       13  roter.o(.data)
    .data                                    0x2000016b   Section       13  roter.o(.data)
    .data                                    0x20000178   Section       13  roter.o(.data)
    .data                                    0x20000185   Section       13  roter.o(.data)
    .data                                    0x20000192   Section       52  main.o(.data)
    .data                                    0x200001c8   Section        4  usart.o(.data)
    .data                                    0x200001cc   Section       12  stm32f1xx_hal.o(.data)
    .data                                    0x200001d8   Section        4  system_stm32f1xx.o(.data)
    .data                                    0x200001dc   Section        4  strtok.o(.data)
    state                                    0x200001dc   Data           4  strtok.o(.data)
    .data                                    0x200001e0   Section        4  mvars.o(.data)
    .data                                    0x200001e4   Section        4  mvars.o(.data)
    .data                                    0x200001e8   Section        4  errno.o(.data)
    _errno                                   0x200001e8   Data           4  errno.o(.data)
    .bss                                     0x200001f0   Section      608  gps.o(.bss)
    .bss                                     0x20000450   Section     7667  roter.o(.bss)
    .bss                                     0x20002244   Section     1062  main.o(.bss)
    .bss                                     0x2000266a   Section        9  main.o(.bss)
    .bss                                     0x20002674   Section       48  adc.o(.bss)
    .bss                                     0x200026a4   Section       72  tim.o(.bss)
    .bss                                     0x200026ec   Section      768  usart.o(.bss)
    HEAP                                     0x200029f0   Section     2048  startup_stm32f103xe.o(HEAP)
    STACK                                    0x200031f0   Section     2048  startup_stm32f103xe.o(STACK)

    Global Symbols

    Symbol Name                              Value     Ov Type        Size  Object(Section)

    BuildAttributes$$THM_ISAv4$P$D$K$B$S$PE$A:L22UL41UL21$X:L11$S22US41US21$IEEE1$IW$USESV6$~STKCKD$USESV7$~SHL$OTIME$ROPI$IEEEJ$EBA8$MICROLIB$REQ8$PRES8$EABIv2 0x00000000   Number         0  anon$$obj.o ABSOLUTE
    __ARM_use_no_argv                        0x00000000   Number         0  main.o ABSOLUTE
    _printf_a                                0x00000000   Number         0  stubs.o ABSOLUTE
    _printf_c                                0x00000000   Number         0  stubs.o ABSOLUTE
    _printf_charcount                        0x00000000   Number         0  stubs.o ABSOLUTE
    _printf_d                                0x00000000   Number         0  stubs.o ABSOLUTE
    _printf_e                                0x00000000   Number         0  stubs.o ABSOLUTE
    _printf_f                                0x00000000   Number         0  stubs.o ABSOLUTE
    _printf_flags                            0x00000000   Number         0  stubs.o ABSOLUTE
    _printf_fp_dec                           0x00000000   Number         0  stubs.o ABSOLUTE
    _printf_fp_hex                           0x00000000   Number         0  stubs.o ABSOLUTE
    _printf_g                                0x00000000   Number         0  stubs.o ABSOLUTE
    _printf_i                                0x00000000   Number         0  stubs.o ABSOLUTE
    _printf_int_dec                          0x00000000   Number         0  stubs.o ABSOLUTE
    _printf_l                                0x00000000   Number         0  stubs.o ABSOLUTE
    _printf_lc                               0x00000000   Number         0  stubs.o ABSOLUTE
    _printf_ll                               0x00000000   Number         0  stubs.o ABSOLUTE
    _printf_lld                              0x00000000   Number         0  stubs.o ABSOLUTE
    _printf_lli                              0x00000000   Number         0  stubs.o ABSOLUTE
    _printf_llo                              0x00000000   Number         0  stubs.o ABSOLUTE
    _printf_llu                              0x00000000   Number         0  stubs.o ABSOLUTE
    _printf_llx                              0x00000000   Number         0  stubs.o ABSOLUTE
    _printf_longlong_dec                     0x00000000   Number         0  stubs.o ABSOLUTE
    _printf_longlong_hex                     0x00000000   Number         0  stubs.o ABSOLUTE
    _printf_longlong_oct                     0x00000000   Number         0  stubs.o ABSOLUTE
    _printf_ls                               0x00000000   Number         0  stubs.o ABSOLUTE
    _printf_mbtowc                           0x00000000   Number         0  stubs.o ABSOLUTE
    _printf_n                                0x00000000   Number         0  stubs.o ABSOLUTE
    _printf_o                                0x00000000   Number         0  stubs.o ABSOLUTE
    _printf_p                                0x00000000   Number         0  stubs.o ABSOLUTE
    _printf_percent                          0x00000000   Number         0  stubs.o ABSOLUTE
    _printf_pre_padding                      0x00000000   Number         0  stubs.o ABSOLUTE
    _printf_return_value                     0x00000000   Number         0  stubs.o ABSOLUTE
    _printf_s                                0x00000000   Number         0  stubs.o ABSOLUTE
    _printf_sizespec                         0x00000000   Number         0  stubs.o ABSOLUTE
    _printf_str                              0x00000000   Number         0  stubs.o ABSOLUTE
    _printf_truncate_signed                  0x00000000   Number         0  stubs.o ABSOLUTE
    _printf_truncate_unsigned                0x00000000   Number         0  stubs.o ABSOLUTE
    _printf_u                                0x00000000   Number         0  stubs.o ABSOLUTE
    _printf_wc                               0x00000000   Number         0  stubs.o ABSOLUTE
    _printf_wctomb                           0x00000000   Number         0  stubs.o ABSOLUTE
    _printf_widthprec                        0x00000000   Number         0  stubs.o ABSOLUTE
    _printf_x                                0x00000000   Number         0  stubs.o ABSOLUTE
    __cpp_initialize__aeabi_                  - Undefined Weak Reference
    __cxa_finalize                            - Undefined Weak Reference
    _clock_init                               - Undefined Weak Reference
    _microlib_exit                            - Undefined Weak Reference
    _scanf_longlong                           - Undefined Weak Reference
    _scanf_string                             - Undefined Weak Reference
    __Vectors_Size                           0x00000130   Number         0  startup_stm32f103xe.o ABSOLUTE
    __Vectors                                0x08000000   Data           4  startup_stm32f103xe.o(RESET)
    __Vectors_End                            0x08000130   Data           0  startup_stm32f103xe.o(RESET)
    __main                                   0x08000131   Thumb Code     0  entry.o(.ARM.Collect$$$$00000000)
    _main_stk                                0x08000131   Thumb Code     0  entry2.o(.ARM.Collect$$$$00000001)
    _main_scatterload                        0x08000135   Thumb Code     0  entry5.o(.ARM.Collect$$$$00000004)
    __main_after_scatterload                 0x08000139   Thumb Code     0  entry5.o(.ARM.Collect$$$$00000004)
    _main_clock                              0x08000139   Thumb Code     0  entry7b.o(.ARM.Collect$$$$00000008)
    _main_cpp_init                           0x08000139   Thumb Code     0  entry8b.o(.ARM.Collect$$$$0000000A)
    _main_init                               0x08000139   Thumb Code     0  entry9a.o(.ARM.Collect$$$$0000000B)
    __rt_final_cpp                           0x08000141   Thumb Code     0  entry10a.o(.ARM.Collect$$$$0000000D)
    __rt_final_exit                          0x08000141   Thumb Code     0  entry11a.o(.ARM.Collect$$$$0000000F)
    Reset_Handler                            0x08000145   Thumb Code     8  startup_stm32f103xe.o(.text)
    ADC1_2_IRQHandler                        0x0800015f   Thumb Code     0  startup_stm32f103xe.o(.text)
    ADC3_IRQHandler                          0x0800015f   Thumb Code     0  startup_stm32f103xe.o(.text)
    CAN1_RX1_IRQHandler                      0x0800015f   Thumb Code     0  startup_stm32f103xe.o(.text)
    CAN1_SCE_IRQHandler                      0x0800015f   Thumb Code     0  startup_stm32f103xe.o(.text)
    DMA1_Channel1_IRQHandler                 0x0800015f   Thumb Code     0  startup_stm32f103xe.o(.text)
    DMA2_Channel1_IRQHandler                 0x0800015f   Thumb Code     0  startup_stm32f103xe.o(.text)
    DMA2_Channel2_IRQHandler                 0x0800015f   Thumb Code     0  startup_stm32f103xe.o(.text)
    DMA2_Channel3_IRQHandler                 0x0800015f   Thumb Code     0  startup_stm32f103xe.o(.text)
    DMA2_Channel4_5_IRQHandler               0x0800015f   Thumb Code     0  startup_stm32f103xe.o(.text)
    EXTI15_10_IRQHandler                     0x0800015f   Thumb Code     0  startup_stm32f103xe.o(.text)
    EXTI2_IRQHandler                         0x0800015f   Thumb Code     0  startup_stm32f103xe.o(.text)
    EXTI3_IRQHandler                         0x0800015f   Thumb Code     0  startup_stm32f103xe.o(.text)
    EXTI4_IRQHandler                         0x0800015f   Thumb Code     0  startup_stm32f103xe.o(.text)
    FLASH_IRQHandler                         0x0800015f   Thumb Code     0  startup_stm32f103xe.o(.text)
    FSMC_IRQHandler                          0x0800015f   Thumb Code     0  startup_stm32f103xe.o(.text)
    I2C1_ER_IRQHandler                       0x0800015f   Thumb Code     0  startup_stm32f103xe.o(.text)
    I2C1_EV_IRQHandler                       0x0800015f   Thumb Code     0  startup_stm32f103xe.o(.text)
    I2C2_ER_IRQHandler                       0x0800015f   Thumb Code     0  startup_stm32f103xe.o(.text)
    I2C2_EV_IRQHandler                       0x0800015f   Thumb Code     0  startup_stm32f103xe.o(.text)
    PVD_IRQHandler                           0x0800015f   Thumb Code     0  startup_stm32f103xe.o(.text)
    RCC_IRQHandler                           0x0800015f   Thumb Code     0  startup_stm32f103xe.o(.text)
    RTC_Alarm_IRQHandler                     0x0800015f   Thumb Code     0  startup_stm32f103xe.o(.text)
    RTC_IRQHandler                           0x0800015f   Thumb Code     0  startup_stm32f103xe.o(.text)
    SDIO_IRQHandler                          0x0800015f   Thumb Code     0  startup_stm32f103xe.o(.text)
    SPI1_IRQHandler                          0x0800015f   Thumb Code     0  startup_stm32f103xe.o(.text)
    SPI2_IRQHandler                          0x0800015f   Thumb Code     0  startup_stm32f103xe.o(.text)
    SPI3_IRQHandler                          0x0800015f   Thumb Code     0  startup_stm32f103xe.o(.text)
    TAMPER_IRQHandler                        0x0800015f   Thumb Code     0  startup_stm32f103xe.o(.text)
    TIM1_BRK_IRQHandler                      0x0800015f   Thumb Code     0  startup_stm32f103xe.o(.text)
    TIM1_CC_IRQHandler                       0x0800015f   Thumb Code     0  startup_stm32f103xe.o(.text)
    TIM1_TRG_COM_IRQHandler                  0x0800015f   Thumb Code     0  startup_stm32f103xe.o(.text)
    TIM1_UP_IRQHandler                       0x0800015f   Thumb Code     0  startup_stm32f103xe.o(.text)
    TIM2_IRQHandler                          0x0800015f   Thumb Code     0  startup_stm32f103xe.o(.text)
    TIM3_IRQHandler                          0x0800015f   Thumb Code     0  startup_stm32f103xe.o(.text)
    TIM4_IRQHandler                          0x0800015f   Thumb Code     0  startup_stm32f103xe.o(.text)
    TIM5_IRQHandler                          0x0800015f   Thumb Code     0  startup_stm32f103xe.o(.text)
    TIM7_IRQHandler                          0x0800015f   Thumb Code     0  startup_stm32f103xe.o(.text)
    TIM8_BRK_IRQHandler                      0x0800015f   Thumb Code     0  startup_stm32f103xe.o(.text)
    TIM8_CC_IRQHandler                       0x0800015f   Thumb Code     0  startup_stm32f103xe.o(.text)
    TIM8_TRG_COM_IRQHandler                  0x0800015f   Thumb Code     0  startup_stm32f103xe.o(.text)
    TIM8_UP_IRQHandler                       0x0800015f   Thumb Code     0  startup_stm32f103xe.o(.text)
    USBWakeUp_IRQHandler                     0x0800015f   Thumb Code     0  startup_stm32f103xe.o(.text)
    USB_HP_CAN1_TX_IRQHandler                0x0800015f   Thumb Code     0  startup_stm32f103xe.o(.text)
    USB_LP_CAN1_RX0_IRQHandler               0x0800015f   Thumb Code     0  startup_stm32f103xe.o(.text)
    WWDG_IRQHandler                          0x0800015f   Thumb Code     0  startup_stm32f103xe.o(.text)
    __aeabi_llsr                             0x08000169   Thumb Code    32  llushr.o(.text)
    _ll_ushift_r                             0x08000169   Thumb Code     0  llushr.o(.text)
    ___aeabi_memcpy8$move                    0x08000189   Thumb Code     0  memmovea.o(.text)
    __aeabi_memcpy                           0x08000189   Thumb Code    64  memmovea.o(.text)
    __aeabi_memcpy4                          0x08000189   Thumb Code     0  memmovea.o(.text)
    __aeabi_memmove                          0x08000189   Thumb Code     0  memmovea.o(.text)
    __aeabi_memmove4                         0x08000189   Thumb Code     0  memmovea.o(.text)
    __aeabi_memmove8                         0x08000189   Thumb Code     0  memmovea.o(.text)
    __aeabi_memset                           0x080001c9   Thumb Code    14  memseta.o(.text)
    __aeabi_memset4                          0x080001c9   Thumb Code     0  memseta.o(.text)
    __aeabi_memset8                          0x080001c9   Thumb Code     0  memseta.o(.text)
    __aeabi_memclr                           0x080001d7   Thumb Code     4  memseta.o(.text)
    __aeabi_memclr4                          0x080001d7   Thumb Code     0  memseta.o(.text)
    __aeabi_memclr8                          0x080001d7   Thumb Code     0  memseta.o(.text)
    _memset$wrapper                          0x080001db   Thumb Code    18  memseta.o(.text)
    strncpy                                  0x080001ed   Thumb Code    24  strncpy.o(.text)
    strlen                                   0x08000205   Thumb Code    14  strlen.o(.text)
    strcpy                                   0x08000213   Thumb Code    18  strcpy.o(.text)
    strncmp                                  0x08000225   Thumb Code    30  strncmp.o(.text)
    strtok                                   0x08000245   Thumb Code    62  strtok.o(.text)
    __0sscanf                                0x08000289   Thumb Code    48  __0sscanf.o(.text)
    _scanf_int                               0x080002c1   Thumb Code   332  _scanf_int.o(.text)
    strtol                                   0x0800040d   Thumb Code   112  strtol.o(.text)
    atoi                                     0x0800047d   Thumb Code    26  atoi.o(.text)
    __aeabi_dadd                             0x08000497   Thumb Code   322  dadd.o(.text)
    __aeabi_dsub                             0x080005d9   Thumb Code     6  dadd.o(.text)
    __aeabi_drsub                            0x080005df   Thumb Code     6  dadd.o(.text)
    __aeabi_dmul                             0x080005e5   Thumb Code   228  dmul.o(.text)
    __ARM_scalbn                             0x080006c9   Thumb Code    46  dscalb.o(.text)
    scalbn                                   0x080006c9   Thumb Code     0  dscalb.o(.text)
    __aeabi_i2d                              0x080006f7   Thumb Code    34  dflti.o(.text)
    __aeabi_ui2d                             0x08000719   Thumb Code    26  dfltui.o(.text)
    __aeabi_f2uiz                            0x08000733   Thumb Code    40  ffixui.o(.text)
    __aeabi_d2iz                             0x0800075b   Thumb Code    62  dfixi.o(.text)
    __aeabi_d2uiz                            0x08000799   Thumb Code    50  dfixui.o(.text)
    __aeabi_f2d                              0x080007cb   Thumb Code    38  f2d.o(.text)
    __aeabi_d2f                              0x080007f1   Thumb Code    56  d2f.o(.text)
    __aeabi_uidiv                            0x08000829   Thumb Code     0  uidiv.o(.text)
    __aeabi_uidivmod                         0x08000829   Thumb Code    44  uidiv.o(.text)
    __aeabi_llsl                             0x08000855   Thumb Code    30  llshl.o(.text)
    _ll_shift_l                              0x08000855   Thumb Code     0  llshl.o(.text)
    __aeabi_lasr                             0x08000873   Thumb Code    36  llsshr.o(.text)
    _ll_sshift_r                             0x08000873   Thumb Code     0  llsshr.o(.text)
    __rt_ctype_table                         0x08000899   Thumb Code     4  ctype_o.o(.text)
    isspace                                  0x080008a1   Thumb Code    18  isspace_o.o(.text)
    _chval                                   0x080008b3   Thumb Code    28  _chval.o(.text)
    __vfscanf_char                           0x080008dd   Thumb Code    20  scanf_char.o(.text)
    _sgetc                                   0x080008f9   Thumb Code    30  _sgetc.o(.text)
    _sbackspace                              0x08000917   Thumb Code    34  _sgetc.o(.text)
    _strtoul                                 0x08000939   Thumb Code   158  _strtoul.o(.text)
    __strtod_int                             0x08000a0f   Thumb Code    90  strtod.o(.text)
    __I$use$fp                               0x08000a75   Thumb Code     0  iusefp.o(.text)
    _float_round                             0x08000a75   Thumb Code    18  fepilogue.o(.text)
    _float_epilogue                          0x08000a87   Thumb Code    92  fepilogue.o(.text)
    _double_round                            0x08000ae3   Thumb Code    30  depilogue.o(.text)
    _double_epilogue                         0x08000b01   Thumb Code   156  depilogue.o(.text)
    __aeabi_ddiv                             0x08000b9d   Thumb Code   222  ddiv.o(.text)
    __scatterload                            0x08000c7d   Thumb Code    28  init.o(.text)
    __scatterload_rt2                        0x08000c7d   Thumb Code     0  init.o(.text)
    __vfscanf                                0x08000ca1   Thumb Code   808  _scanf.o(.text)
    _scanf_real                              0x080010cd   Thumb Code     0  scanf_fp.o(.text)
    _scanf_really_real                       0x080010cd   Thumb Code   556  scanf_fp.o(.text)
    __aeabi_ul2d                             0x08001305   Thumb Code    24  dfltul.o(.text)
    __decompress                             0x0800131d   Thumb Code     0  __dczerorl2.o(.text)
    __decompress1                            0x0800131d   Thumb Code    86  __dczerorl2.o(.text)
    ADC_BAT_Test                             0x08001375   Thumb Code   120  main.o(i.ADC_BAT_Test)
    ADC_ConversionStop_Disable               0x08001401   Thumb Code    86  stm32f1xx_hal_adc.o(i.ADC_ConversionStop_Disable)
    ADC_Enable                               0x08001459   Thumb Code   114  stm32f1xx_hal_adc.o(i.ADC_Enable)
    BusFault_Handler                         0x080014d5   Thumb Code     2  stm32f1xx_it.o(i.BusFault_Handler)
    CopyAngleDataToUsart1                    0x080014d9   Thumb Code    34  main.o(i.CopyAngleDataToUsart1)
    CopyGpsDataToUsart1                      0x08001509   Thumb Code    92  main.o(i.CopyGpsDataToUsart1)
    DMA1_Channel2_IRQHandler                 0x08001575   Thumb Code     6  stm32f1xx_it.o(i.DMA1_Channel2_IRQHandler)
    DMA1_Channel3_IRQHandler                 0x08001581   Thumb Code     6  stm32f1xx_it.o(i.DMA1_Channel3_IRQHandler)
    DMA1_Channel4_IRQHandler                 0x0800158d   Thumb Code     6  stm32f1xx_it.o(i.DMA1_Channel4_IRQHandler)
    DMA1_Channel5_IRQHandler                 0x08001599   Thumb Code     6  stm32f1xx_it.o(i.DMA1_Channel5_IRQHandler)
    DMA1_Channel6_IRQHandler                 0x080015a5   Thumb Code     6  stm32f1xx_it.o(i.DMA1_Channel6_IRQHandler)
    DMA1_Channel7_IRQHandler                 0x080015b1   Thumb Code     6  stm32f1xx_it.o(i.DMA1_Channel7_IRQHandler)
    DataParseCondition                       0x080015bd   Thumb Code   152  roter.o(i.DataParseCondition)
    DataParseLocation                        0x0800165d   Thumb Code    86  roter.o(i.DataParseLocation)
    DataParsePolice                          0x080016b9   Thumb Code   118  roter.o(i.DataParsePolice)
    DebugMon_Handler                         0x08001735   Thumb Code     2  stm32f1xx_it.o(i.DebugMon_Handler)
    EXTI0_IRQHandler                         0x08001737   Thumb Code     6  stm32f1xx_it.o(i.EXTI0_IRQHandler)
    EXTI1_IRQHandler                         0x0800173d   Thumb Code     6  stm32f1xx_it.o(i.EXTI1_IRQHandler)
    EXTI9_5_IRQHandler                       0x08001743   Thumb Code    22  stm32f1xx_it.o(i.EXTI9_5_IRQHandler)
    Error_Handler                            0x08001759   Thumb Code     4  main.o(i.Error_Handler)
    FireGun                                  0x0800175d   Thumb Code    20  main.o(i.FireGun)
    HAL_ADCEx_Calibration_Start              0x08001775   Thumb Code   210  stm32f1xx_hal_adc_ex.o(i.HAL_ADCEx_Calibration_Start)
    HAL_ADC_ConfigChannel                    0x0800184d   Thumb Code   240  stm32f1xx_hal_adc.o(i.HAL_ADC_ConfigChannel)
    HAL_ADC_GetValue                         0x08001949   Thumb Code     6  stm32f1xx_hal_adc.o(i.HAL_ADC_GetValue)
    HAL_ADC_Init                             0x08001951   Thumb Code   272  stm32f1xx_hal_adc.o(i.HAL_ADC_Init)
    HAL_ADC_MspInit                          0x08001a71   Thumb Code    76  adc.o(i.HAL_ADC_MspInit)
    HAL_ADC_PollForConversion                0x08001ac9   Thumb Code   304  stm32f1xx_hal_adc.o(i.HAL_ADC_PollForConversion)
    HAL_ADC_Start                            0x08001c05   Thumb Code   184  stm32f1xx_hal_adc.o(i.HAL_ADC_Start)
    HAL_DMA_Abort                            0x08001cc5   Thumb Code    70  stm32f1xx_hal_dma.o(i.HAL_DMA_Abort)
    HAL_DMA_Abort_IT                         0x08001d0d   Thumb Code   296  stm32f1xx_hal_dma.o(i.HAL_DMA_Abort_IT)
    HAL_DMA_IRQHandler                       0x08001e3d   Thumb Code   552  stm32f1xx_hal_dma.o(i.HAL_DMA_IRQHandler)
    HAL_DMA_Init                             0x08002085   Thumb Code   112  stm32f1xx_hal_dma.o(i.HAL_DMA_Init)
    HAL_Delay                                0x08002101   Thumb Code    32  stm32f1xx_hal.o(i.HAL_Delay)
    HAL_GPIO_EXTI_Callback                   0x08002125   Thumb Code    42  main.o(i.HAL_GPIO_EXTI_Callback)
    HAL_GPIO_EXTI_IRQHandler                 0x08002155   Thumb Code    18  stm32f1xx_hal_gpio.o(i.HAL_GPIO_EXTI_IRQHandler)
    HAL_GPIO_Init                            0x0800216d   Thumb Code   462  stm32f1xx_hal_gpio.o(i.HAL_GPIO_Init)
    HAL_GPIO_TogglePin                       0x08002365   Thumb Code    16  stm32f1xx_hal_gpio.o(i.HAL_GPIO_TogglePin)
    HAL_GPIO_WritePin                        0x08002375   Thumb Code    10  stm32f1xx_hal_gpio.o(i.HAL_GPIO_WritePin)
    HAL_GetTick                              0x08002381   Thumb Code     6  stm32f1xx_hal.o(i.HAL_GetTick)
    HAL_IncTick                              0x0800238d   Thumb Code    12  stm32f1xx_hal.o(i.HAL_IncTick)
    HAL_Init                                 0x0800239d   Thumb Code    32  stm32f1xx_hal.o(i.HAL_Init)
    HAL_InitTick                             0x080023c1   Thumb Code    54  stm32f1xx_hal.o(i.HAL_InitTick)
    HAL_MspInit                              0x08002401   Thumb Code    52  stm32f1xx_hal_msp.o(i.HAL_MspInit)
    HAL_NVIC_EnableIRQ                       0x0800243d   Thumb Code    26  stm32f1xx_hal_cortex.o(i.HAL_NVIC_EnableIRQ)
    HAL_NVIC_SetPriority                     0x08002459   Thumb Code    60  stm32f1xx_hal_cortex.o(i.HAL_NVIC_SetPriority)
    HAL_NVIC_SetPriorityGrouping             0x08002499   Thumb Code    26  stm32f1xx_hal_cortex.o(i.HAL_NVIC_SetPriorityGrouping)
    HAL_RCCEx_GetPeriphCLKFreq               0x080024bd   Thumb Code   164  stm32f1xx_hal_rcc_ex.o(i.HAL_RCCEx_GetPeriphCLKFreq)
    HAL_RCCEx_PeriphCLKConfig                0x08002575   Thumb Code   224  stm32f1xx_hal_rcc_ex.o(i.HAL_RCCEx_PeriphCLKConfig)
    HAL_RCC_ClockConfig                      0x08002661   Thumb Code   280  stm32f1xx_hal_rcc.o(i.HAL_RCC_ClockConfig)
    HAL_RCC_GetPCLK1Freq                     0x0800278d   Thumb Code    20  stm32f1xx_hal_rcc.o(i.HAL_RCC_GetPCLK1Freq)
    HAL_RCC_GetPCLK2Freq                     0x080027ad   Thumb Code    20  stm32f1xx_hal_rcc.o(i.HAL_RCC_GetPCLK2Freq)
    HAL_RCC_GetSysClockFreq                  0x080027cd   Thumb Code    64  stm32f1xx_hal_rcc.o(i.HAL_RCC_GetSysClockFreq)
    HAL_RCC_OscConfig                        0x08002821   Thumb Code   778  stm32f1xx_hal_rcc.o(i.HAL_RCC_OscConfig)
    HAL_SYSTICK_Config                       0x08002b41   Thumb Code    40  stm32f1xx_hal_cortex.o(i.HAL_SYSTICK_Config)
    HAL_TIMEx_BreakCallback                  0x08002b69   Thumb Code     2  stm32f1xx_hal_tim_ex.o(i.HAL_TIMEx_BreakCallback)
    HAL_TIMEx_CommutCallback                 0x08002b6b   Thumb Code     2  stm32f1xx_hal_tim_ex.o(i.HAL_TIMEx_CommutCallback)
    HAL_TIMEx_MasterConfigSynchronization    0x08002b6d   Thumb Code   104  stm32f1xx_hal_tim_ex.o(i.HAL_TIMEx_MasterConfigSynchronization)
    HAL_TIM_Base_Init                        0x08002be9   Thumb Code    90  stm32f1xx_hal_tim.o(i.HAL_TIM_Base_Init)
    HAL_TIM_Base_MspInit                     0x08002c45   Thumb Code    50  tim.o(i.HAL_TIM_Base_MspInit)
    HAL_TIM_IC_CaptureCallback               0x08002c81   Thumb Code     2  stm32f1xx_hal_tim.o(i.HAL_TIM_IC_CaptureCallback)
    HAL_TIM_IRQHandler                       0x08002c83   Thumb Code   358  stm32f1xx_hal_tim.o(i.HAL_TIM_IRQHandler)
    HAL_TIM_OC_DelayElapsedCallback          0x08002de9   Thumb Code     2  stm32f1xx_hal_tim.o(i.HAL_TIM_OC_DelayElapsedCallback)
    HAL_TIM_PWM_PulseFinishedCallback        0x08002deb   Thumb Code     2  stm32f1xx_hal_tim.o(i.HAL_TIM_PWM_PulseFinishedCallback)
    HAL_TIM_PeriodElapsedCallback            0x08002ded   Thumb Code     2  stm32f1xx_hal_tim.o(i.HAL_TIM_PeriodElapsedCallback)
    HAL_TIM_TriggerCallback                  0x08002def   Thumb Code     2  stm32f1xx_hal_tim.o(i.HAL_TIM_TriggerCallback)
    HAL_UARTEx_ReceiveToIdle_IT              0x08002df1   Thumb Code    78  stm32f1xx_hal_uart.o(i.HAL_UARTEx_ReceiveToIdle_IT)
    HAL_UARTEx_RxEventCallback               0x08002e41   Thumb Code    52  main.o(i.HAL_UARTEx_RxEventCallback)
    HAL_UART_ErrorCallback                   0x08002e85   Thumb Code     2  stm32f1xx_hal_uart.o(i.HAL_UART_ErrorCallback)
    HAL_UART_IRQHandler                      0x08002e89   Thumb Code   616  stm32f1xx_hal_uart.o(i.HAL_UART_IRQHandler)
    HAL_UART_Init                            0x080030f5   Thumb Code   100  stm32f1xx_hal_uart.o(i.HAL_UART_Init)
    HAL_UART_MspInit                         0x08003159   Thumb Code   834  usart.o(i.HAL_UART_MspInit)
    HAL_UART_Receive_IT                      0x080034d1   Thumb Code    28  stm32f1xx_hal_uart.o(i.HAL_UART_Receive_IT)
    HAL_UART_RxCpltCallback                  0x080034ed   Thumb Code    68  main.o(i.HAL_UART_RxCpltCallback)
    HAL_UART_Transmit                        0x08003545   Thumb Code   154  stm32f1xx_hal_uart.o(i.HAL_UART_Transmit)
    HAL_UART_TxCpltCallback                  0x080035df   Thumb Code     2  stm32f1xx_hal_uart.o(i.HAL_UART_TxCpltCallback)
    HardFault_Handler                        0x080035e1   Thumb Code     2  stm32f1xx_it.o(i.HardFault_Handler)
    MX_ADC1_Init                             0x080035e5   Thumb Code    72  adc.o(i.MX_ADC1_Init)
    MX_DMA_Init                              0x08003635   Thumb Code   120  dma.o(i.MX_DMA_Init)
    MX_GPIO_Init                             0x080036b1   Thumb Code   344  gpio.o(i.MX_GPIO_Init)
    MX_TIM6_Init                             0x08003821   Thumb Code    66  tim.o(i.MX_TIM6_Init)
    MX_UART4_Init                            0x0800386d   Thumb Code    48  usart.o(i.MX_UART4_Init)
    MX_UART5_Init                            0x080038a5   Thumb Code    48  usart.o(i.MX_UART5_Init)
    MX_USART1_UART_Init                      0x080038dd   Thumb Code    48  usart.o(i.MX_USART1_UART_Init)
    MX_USART2_UART_Init                      0x08003915   Thumb Code    48  usart.o(i.MX_USART2_UART_Init)
    MX_USART3_UART_Init                      0x0800394d   Thumb Code    48  usart.o(i.MX_USART3_UART_Init)
    MemManage_Handler                        0x08003985   Thumb Code     2  stm32f1xx_it.o(i.MemManage_Handler)
    NMI_Handler                              0x08003987   Thumb Code     2  stm32f1xx_it.o(i.NMI_Handler)
    PendSV_Handler                           0x08003989   Thumb Code     2  stm32f1xx_it.o(i.PendSV_Handler)
    ProcessCmdBuffer                         0x0800398d   Thumb Code   168  roter.o(i.ProcessCmdBuffer)
    RemovePoliceToRoter                      0x08003a41   Thumb Code    60  roter.o(i.RemovePoliceToRoter)
    RoterAngle1                              0x08003a81   Thumb Code   110  roter.o(i.RoterAngle1)
    RoterAngle5                              0x08003af9   Thumb Code   110  roter.o(i.RoterAngle5)
    RoterRelativeAngle1                      0x08003b71   Thumb Code   110  roter.o(i.RoterRelativeAngle1)
    RoterRelativeAngle5                      0x08003be9   Thumb Code   110  roter.o(i.RoterRelativeAngle5)
    RoterTimeAdd                             0x08003c61   Thumb Code   134  main.o(i.RoterTimeAdd)
    SVC_Handler                              0x08003d15   Thumb Code     2  stm32f1xx_it.o(i.SVC_Handler)
    SendCmdToBuf                             0x08003d19   Thumb Code   164  roter.o(i.SendCmdToBuf)
    SendDataByUART                           0x08003dd1   Thumb Code   112  main.o(i.SendDataByUART)
    SetInching                               0x08003e55   Thumb Code     6  roter.o(i.SetInching)
    SetRestoration                           0x08003e5d   Thumb Code    40  roter.o(i.SetRestoration)
    SysTick_Handler                          0x08003e89   Thumb Code     4  stm32f1xx_it.o(i.SysTick_Handler)
    SystemClock_Config                       0x08003e8d   Thumb Code   120  main.o(i.SystemClock_Config)
    SystemInit                               0x08003f05   Thumb Code     2  system_stm32f1xx.o(i.SystemInit)
    TIM6_IRQHandler                          0x08003f09   Thumb Code     6  stm32f1xx_it.o(i.TIM6_IRQHandler)
    TIM_Base_SetConfig                       0x08003f15   Thumb Code   120  stm32f1xx_hal_tim.o(i.TIM_Base_SetConfig)
    UART2DataParse                           0x08003fa1   Thumb Code   206  roter.o(i.UART2DataParse)
    UART2DataRecv                            0x0800407d   Thumb Code    92  roter.o(i.UART2DataRecv)
    UART4_IRQHandler                         0x080040e5   Thumb Code     6  stm32f1xx_it.o(i.UART4_IRQHandler)
    UART5_IRQHandler                         0x080040f1   Thumb Code     6  stm32f1xx_it.o(i.UART5_IRQHandler)
    UART_Start_Receive_IT                    0x080042d5   Thumb Code    54  stm32f1xx_hal_uart.o(i.UART_Start_Receive_IT)
    USART1DataRecv                           0x08004385   Thumb Code   292  main.o(i.USART1DataRecv)
    USART1_IRQHandler                        0x080044c5   Thumb Code     6  stm32f1xx_it.o(i.USART1_IRQHandler)
    USART2_IRQHandler                        0x080044d1   Thumb Code     6  stm32f1xx_it.o(i.USART2_IRQHandler)
    USART3_IRQHandler                        0x080044dd   Thumb Code     6  stm32f1xx_it.o(i.USART3_IRQHandler)
    UsageFault_Handler                       0x080044e9   Thumb Code     2  stm32f1xx_it.o(i.UsageFault_Handler)
    __0printf$1                              0x080044ed   Thumb Code    22  printf1.o(i.__0printf$1)
    __1printf$1                              0x080044ed   Thumb Code     0  printf1.o(i.__0printf$1)
    __2printf                                0x080044ed   Thumb Code     0  printf1.o(i.__0printf$1)
    __aeabi_errno_addr                       0x0800452d   Thumb Code     4  errno.o(i.__aeabi_errno_addr)
    __rt_errno_addr                          0x0800452d   Thumb Code     0  errno.o(i.__aeabi_errno_addr)
    free                                     0x08004535   Thumb Code    88  mallocr.o(i.__free$realloc)
    malloc                                   0x08004591   Thumb Code    64  mallocr.o(i.__malloc$realloc)
    __read_errno                             0x080045e1   Thumb Code     6  errno.o(i.__read_errno)
    __scatterload_copy                       0x080045ed   Thumb Code    14  handlers.o(i.__scatterload_copy)
    __scatterload_null                       0x080045fb   Thumb Code     2  handlers.o(i.__scatterload_null)
    __scatterload_zeroinit                   0x080045fd   Thumb Code    14  handlers.o(i.__scatterload_zeroinit)
    __set_errno                              0x0800460d   Thumb Code     6  errno.o(i.__set_errno)
    _is_digit                                0x08004619   Thumb Code    14  scanf_fp.o(i._is_digit)
    atof                                     0x0800477d   Thumb Code    42  atof.o(i.atof)
    calculate_checksum                       0x080047a7   Thumb Code    26  main.o(i.calculate_checksum)
    check_sum                                0x080047c1   Thumb Code    30  roter.o(i.check_sum)
    crc16                                    0x080047df   Thumb Code    56  roter.o(i.crc16)
    fputc                                    0x08004819   Thumb Code    20  usart.o(i.fputc)
    hexToBinChar                             0x08004831   Thumb Code    42  roter.o(i.hexToBinChar)
    hex_to_int                               0x0800485d   Thumb Code    28  roter.o(i.hex_to_int)
    insertZerosBetweenCommas                 0x0800487d   Thumb Code    90  gps.o(i.insertZerosBetweenCommas)
    int_to_hex                               0x080048ed   Thumb Code    16  roter.o(i.int_to_hex)
    main                                     0x0800494d   Thumb Code   366  main.o(i.main)
    realloc                                  0x08004b05   Thumb Code   102  mallocr.o(i.realloc)
    receive_gps_data                         0x08004b71   Thumb Code   364  gps.o(i.receive_gps_data)
    strGga_parse                             0x08004d05   Thumb Code   660  gps.o(i.strGga_parse)
    strGll_parse                             0x08004fa5   Thumb Code   508  gps.o(i.strGll_parse)
    strGsa_parse                             0x080051ad   Thumb Code   250  gps.o(i.strGsa_parse)
    strGsv_parse                             0x080052ad   Thumb Code   134  gps.o(i.strGsv_parse)
    strRHXZ_parse                            0x08005339   Thumb Code   100  gps.o(i.strRHXZ_parse)
    strRmc_parse                             0x080053b1   Thumb Code   658  gps.o(i.strRmc_parse)
    strVtg_parse                             0x08005651   Thumb Code   164  gps.o(i.strVtg_parse)
    strtod                                   0x080056f9   Thumb Code    28  strtod.o(i.strtod)
    AHBPrescTable                            0x08005738   Data          16  system_stm32f1xx.o(.constdata)
    APBPrescTable                            0x08005748   Data           8  system_stm32f1xx.o(.constdata)
    __ctype_table                            0x08005750   Data         129  ctype_o.o(.constdata)
    Region$$Table$$Base                      0x080057d8   Number         0  anon$$obj.o(Region$$Table)
    Region$$Table$$Limit                     0x080057f8   Number         0  anon$$obj.o(Region$$Table)
    g_rhxz                                   0x20000000   Data           6  gps.o(.data)
    g_Comm2BufLen                            0x20000008   Data           1  roter.o(.data)
    Roter1Police1                            0x20000009   Data           1  roter.o(.data)
    Roter1Police5                            0x2000000a   Data           1  roter.o(.data)
    g_Roter1Cmd_head                         0x2000000b   Data           1  roter.o(.data)
    g_Roter1Cmd_tail                         0x2000000c   Data           1  roter.o(.data)
    g_Roter5Cmd_head                         0x2000000d   Data           1  roter.o(.data)
    g_Roter5Cmd_tail                         0x2000000e   Data           1  roter.o(.data)
    g_Roter1SendCmdOK                        0x2000000f   Data           1  roter.o(.data)
    g_Roter5SendCmdOK                        0x20000010   Data           1  roter.o(.data)
    HighCheckSum                             0x20000011   Data           1  roter.o(.data)
    LowCheckSum                              0x20000012   Data           1  roter.o(.data)
    g_crc1                                   0x20000014   Data           2  roter.o(.data)
    g_crc5                                   0x20000016   Data           2  roter.o(.data)
    g_num                                    0x20000018   Data           4  roter.o(.data)
    g_ImpulseCount1                          0x2000001c   Data           4  roter.o(.data)
    g_ImpulseCount5                          0x20000020   Data           4  roter.o(.data)
    BiteTo                                   0x20000024   Data           4  roter.o(.data)
    g_AngleValue1                            0x20000028   Data           4  roter.o(.data)
    g_AngleValue5                            0x2000002c   Data           4  roter.o(.data)
    setEnable1                               0x20000030   Data           8  roter.o(.data)
    setEnable5                               0x20000038   Data           8  roter.o(.data)
    setFineFraction1                         0x20000040   Data           8  roter.o(.data)
    setFineFraction5                         0x20000048   Data           8  roter.o(.data)
    setSpeed1                                0x20000050   Data           8  roter.o(.data)
    setSpeed5                                0x20000058   Data           8  roter.o(.data)
    setStartSpeed1                           0x20000060   Data           8  roter.o(.data)
    setStartSpeed5                           0x20000068   Data           8  roter.o(.data)
    setAccTime1                              0x20000070   Data           8  roter.o(.data)
    setAccTime5                              0x20000078   Data           8  roter.o(.data)
    setStopSpeed1                            0x20000080   Data           8  roter.o(.data)
    setStopSpeed5                            0x20000088   Data           8  roter.o(.data)
    setStopTime1                             0x20000090   Data           8  roter.o(.data)
    setStopTime5                             0x20000098   Data           8  roter.o(.data)
    setSave1                                 0x200000a0   Data           8  roter.o(.data)
    setSave5                                 0x200000a8   Data           8  roter.o(.data)
    ReadCondition1                           0x200000b0   Data           8  roter.o(.data)
    ReadCondition5                           0x200000b8   Data           8  roter.o(.data)
    ReadLocation1                            0x200000c0   Data           8  roter.o(.data)
    ReadLocation5                            0x200000c8   Data           8  roter.o(.data)
    ReadPolice1                              0x200000d0   Data           8  roter.o(.data)
    ReadPolice5                              0x200000d8   Data           8  roter.o(.data)
    RemovePolice1                            0x200000e0   Data           8  roter.o(.data)
    RemovePolice5                            0x200000e8   Data           8  roter.o(.data)
    RoterCondition1                          0x200000f0   Data           8  roter.o(.data)
    Police1                                  0x200000f8   Data           8  roter.o(.data)
    RoterCondition5                          0x20000100   Data           8  roter.o(.data)
    Police5                                  0x20000108   Data           8  roter.o(.data)
    setPoint1                                0x20000110   Data          13  roter.o(.data)
    setPoint5                                0x2000011d   Data          13  roter.o(.data)
    setAngle1                                0x2000012a   Data          13  roter.o(.data)
    setAngle5                                0x20000137   Data          13  roter.o(.data)
    setRelativeAngle1                        0x20000144   Data          13  roter.o(.data)
    setRelativeAngle5                        0x20000151   Data          13  roter.o(.data)
    setInching1_1                            0x2000015e   Data          13  roter.o(.data)
    setInching1_2                            0x2000016b   Data          13  roter.o(.data)
    setInching5_1                            0x20000178   Data          13  roter.o(.data)
    setInching5_2                            0x20000185   Data          13  roter.o(.data)
    g_GpsFlag                                0x20000192   Data           1  main.o(.data)
    g_RoterFlag                              0x20000193   Data           1  main.o(.data)
    g_GunFlag                                0x20000194   Data           1  main.o(.data)
    RXUsart1                                 0x20000195   Data           1  main.o(.data)
    g_Comm2RxBuffer                          0x20000196   Data           1  main.o(.data)
    Rx1_len                                  0x20000197   Data           1  main.o(.data)
    Roter1CMDFlag                            0x20000198   Data           1  main.o(.data)
    Roter5CMDFlag                            0x20000199   Data           1  main.o(.data)
    FireGun1                                 0x2000019a   Data           1  main.o(.data)
    FireGun2                                 0x2000019b   Data           1  main.o(.data)
    Limit1                                   0x2000019c   Data           1  main.o(.data)
    Limit2                                   0x2000019d   Data           1  main.o(.data)
    g_Comm1RxBuffer                          0x2000019e   Data           8  main.o(.data)
    g_FireGunSucess1                         0x200001a6   Data           8  main.o(.data)
    g_FireGunSucess2                         0x200001ae   Data           8  main.o(.data)
    g_Limit1                                 0x200001b6   Data           8  main.o(.data)
    g_Limit2                                 0x200001be   Data           8  main.o(.data)
    __stdout                                 0x200001c8   Data           4  usart.o(.data)
    uwTickFreq                               0x200001cc   Data           1  stm32f1xx_hal.o(.data)
    uwTickPrio                               0x200001d0   Data           4  stm32f1xx_hal.o(.data)
    uwTick                                   0x200001d4   Data           4  stm32f1xx_hal.o(.data)
    SystemCoreClock                          0x200001d8   Data           4  system_stm32f1xx.o(.data)
    __microlib_freelist                      0x200001e0   Data           4  mvars.o(.data)
    __microlib_freelist_initialised          0x200001e4   Data           4  mvars.o(.data)
    g_gga                                    0x200001f0   Data         144  gps.o(.bss)
    g_gll                                    0x20000280   Data          88  gps.o(.bss)
    g_gsa                                    0x200002d8   Data          80  gps.o(.bss)
    g_gsv                                    0x20000328   Data          76  gps.o(.bss)
    g_rmc                                    0x20000378   Data         152  gps.o(.bss)
    g_vtg                                    0x20000410   Data          64  gps.o(.bss)
    g_Roter1CmdAddr                          0x20000450   Data         510  roter.o(.bss)
    g_Roter1CmdBuf                           0x2000064e   Data        3315  roter.o(.bss)
    g_Roter5CmdAddr                          0x20001341   Data         510  roter.o(.bss)
    g_Roter5CmdBuf                           0x2000153f   Data        3315  roter.o(.bss)
    hexToBin                                 0x20002232   Data          17  roter.o(.bss)
    g_Comm5RxBuffer                          0x20002244   Data        1024  main.o(.bss)
    g_GpsToHead                              0x20002644   Data          28  main.o(.bss)
    g_AngleToHead                            0x20002660   Data          10  main.o(.bss)
    g_RoterBuf                               0x2000266a   Data           9  main.o(.bss)
    hadc1                                    0x20002674   Data          48  adc.o(.bss)
    htim6                                    0x200026a4   Data          72  tim.o(.bss)
    huart4                                   0x200026ec   Data          72  usart.o(.bss)
    huart5                                   0x20002734   Data          72  usart.o(.bss)
    huart1                                   0x2000277c   Data          72  usart.o(.bss)
    huart2                                   0x200027c4   Data          72  usart.o(.bss)
    huart3                                   0x2000280c   Data          72  usart.o(.bss)
    hdma_usart1_rx                           0x20002854   Data          68  usart.o(.bss)
    hdma_usart1_tx                           0x20002898   Data          68  usart.o(.bss)
    hdma_usart2_rx                           0x200028dc   Data          68  usart.o(.bss)
    hdma_usart2_tx                           0x20002920   Data          68  usart.o(.bss)
    hdma_usart3_rx                           0x20002964   Data          68  usart.o(.bss)
    hdma_usart3_tx                           0x200029a8   Data          68  usart.o(.bss)
    __heap_base                              0x200029f0   Data           0  startup_stm32f103xe.o(HEAP)
    __heap_limit                             0x200031f0   Data           0  startup_stm32f103xe.o(HEAP)
    __initial_sp                             0x200039f0   Data           0  startup_stm32f103xe.o(STACK)



==============================================================================

Memory Map of the image

  Image Entry point : 0x08000131

  Load Region LR_IROM1 (Base: 0x08000000, Size: 0x000059e4, Max: 0x00040000, ABSOLUTE, COMPRESSED[0x00005914])

    Execution Region ER_IROM1 (Base: 0x08000000, Size: 0x000057f8, Max: 0x00040000, ABSOLUTE)

    Base Addr    Size         Type   Attr      Idx    E Section Name        Object

    0x08000000   0x00000130   Data   RO            3    RESET               startup_stm32f103xe.o
    0x08000130   0x00000000   Code   RO         3560  * .ARM.Collect$$$$00000000  mc_w.l(entry.o)
    0x08000130   0x00000004   Code   RO         3906    .ARM.Collect$$$$00000001  mc_w.l(entry2.o)
    0x08000134   0x00000004   Code   RO         3909    .ARM.Collect$$$$00000004  mc_w.l(entry5.o)
    0x08000138   0x00000000   Code   RO         3911    .ARM.Collect$$$$00000008  mc_w.l(entry7b.o)
    0x08000138   0x00000000   Code   RO         3913    .ARM.Collect$$$$0000000A  mc_w.l(entry8b.o)
    0x08000138   0x00000008   Code   RO         3914    .ARM.Collect$$$$0000000B  mc_w.l(entry9a.o)
    0x08000140   0x00000000   Code   RO         3916    .ARM.Collect$$$$0000000D  mc_w.l(entry10a.o)
    0x08000140   0x00000000   Code   RO         3918    .ARM.Collect$$$$0000000F  mc_w.l(entry11a.o)
    0x08000140   0x00000004   Code   RO         3907    .ARM.Collect$$$$00002712  mc_w.l(entry2.o)
    0x08000144   0x00000024   Code   RO            4    .text               startup_stm32f103xe.o
    0x08000168   0x00000020   Code   RO         3563    .text               mc_w.l(llushr.o)
    0x08000188   0x00000040   Code   RO         3567    .text               mc_w.l(memmovea.o)
    0x080001c8   0x00000024   Code   RO         3569    .text               mc_w.l(memseta.o)
    0x080001ec   0x00000018   Code   RO         3571    .text               mc_w.l(strncpy.o)
    0x08000204   0x0000000e   Code   RO         3573    .text               mc_w.l(strlen.o)
    0x08000212   0x00000012   Code   RO         3575    .text               mc_w.l(strcpy.o)
    0x08000224   0x0000001e   Code   RO         3577    .text               mc_w.l(strncmp.o)
    0x08000242   0x00000002   PAD
    0x08000244   0x00000044   Code   RO         3579    .text               mc_w.l(strtok.o)
    0x08000288   0x00000038   Code   RO         3878    .text               mc_w.l(__0sscanf.o)
    0x080002c0   0x0000014c   Code   RO         3880    .text               mc_w.l(_scanf_int.o)
    0x0800040c   0x00000070   Code   RO         3882    .text               mc_w.l(strtol.o)
    0x0800047c   0x0000001a   Code   RO         3884    .text               mc_w.l(atoi.o)
    0x08000496   0x0000014e   Code   RO         3886    .text               mf_w.l(dadd.o)
    0x080005e4   0x000000e4   Code   RO         3888    .text               mf_w.l(dmul.o)
    0x080006c8   0x0000002e   Code   RO         3890    .text               mf_w.l(dscalb.o)
    0x080006f6   0x00000022   Code   RO         3892    .text               mf_w.l(dflti.o)
    0x08000718   0x0000001a   Code   RO         3894    .text               mf_w.l(dfltui.o)
    0x08000732   0x00000028   Code   RO         3896    .text               mf_w.l(ffixui.o)
    0x0800075a   0x0000003e   Code   RO         3898    .text               mf_w.l(dfixi.o)
    0x08000798   0x00000032   Code   RO         3900    .text               mf_w.l(dfixui.o)
    0x080007ca   0x00000026   Code   RO         3902    .text               mf_w.l(f2d.o)
    0x080007f0   0x00000038   Code   RO         3904    .text               mf_w.l(d2f.o)
    0x08000828   0x0000002c   Code   RO         3920    .text               mc_w.l(uidiv.o)
    0x08000854   0x0000001e   Code   RO         3924    .text               mc_w.l(llshl.o)
    0x08000872   0x00000024   Code   RO         3926    .text               mc_w.l(llsshr.o)
    0x08000896   0x00000002   PAD
    0x08000898   0x00000008   Code   RO         3928    .text               mc_w.l(ctype_o.o)
    0x080008a0   0x00000012   Code   RO         3950    .text               mc_w.l(isspace_o.o)
    0x080008b2   0x0000001c   Code   RO         3965    .text               mc_w.l(_chval.o)
    0x080008ce   0x00000002   PAD
    0x080008d0   0x00000028   Code   RO         3967    .text               mc_w.l(scanf_char.o)
    0x080008f8   0x00000040   Code   RO         3969    .text               mc_w.l(_sgetc.o)
    0x08000938   0x0000009e   Code   RO         3971    .text               mc_w.l(_strtoul.o)
    0x080009d6   0x00000002   PAD
    0x080009d8   0x0000009c   Code   RO         3973    .text               mc_w.l(strtod.o)
    0x08000a74   0x00000000   Code   RO         3975    .text               mc_w.l(iusefp.o)
    0x08000a74   0x0000006e   Code   RO         3976    .text               mf_w.l(fepilogue.o)
    0x08000ae2   0x000000ba   Code   RO         3978    .text               mf_w.l(depilogue.o)
    0x08000b9c   0x000000de   Code   RO         3980    .text               mf_w.l(ddiv.o)
    0x08000c7a   0x00000002   PAD
    0x08000c7c   0x00000024   Code   RO         3986    .text               mc_w.l(init.o)
    0x08000ca0   0x0000032c   Code   RO         3990    .text               mc_w.l(_scanf.o)
    0x08000fcc   0x00000338   Code   RO         3992    .text               mc_w.l(scanf_fp.o)
    0x08001304   0x00000018   Code   RO         3999    .text               mf_w.l(dfltul.o)
    0x0800131c   0x00000056   Code   RO         4009    .text               mc_w.l(__dczerorl2.o)
    0x08001372   0x00000002   PAD
    0x08001374   0x0000008c   Code   RO          355    i.ADC_BAT_Test      main.o
    0x08001400   0x00000056   Code   RO          928    i.ADC_ConversionStop_Disable  stm32f1xx_hal_adc.o
    0x08001456   0x00000002   PAD
    0x08001458   0x0000007c   Code   RO          932    i.ADC_Enable        stm32f1xx_hal_adc.o
    0x080014d4   0x00000002   Code   RO          702    i.BusFault_Handler  stm32f1xx_it.o
    0x080014d6   0x00000002   PAD
    0x080014d8   0x00000030   Code   RO          356    i.CopyAngleDataToUsart1  main.o
    0x08001508   0x0000006c   Code   RO          357    i.CopyGpsDataToUsart1  main.o
    0x08001574   0x0000000c   Code   RO          703    i.DMA1_Channel2_IRQHandler  stm32f1xx_it.o
    0x08001580   0x0000000c   Code   RO          704    i.DMA1_Channel3_IRQHandler  stm32f1xx_it.o
    0x0800158c   0x0000000c   Code   RO          705    i.DMA1_Channel4_IRQHandler  stm32f1xx_it.o
    0x08001598   0x0000000c   Code   RO          706    i.DMA1_Channel5_IRQHandler  stm32f1xx_it.o
    0x080015a4   0x0000000c   Code   RO          707    i.DMA1_Channel6_IRQHandler  stm32f1xx_it.o
    0x080015b0   0x0000000c   Code   RO          708    i.DMA1_Channel7_IRQHandler  stm32f1xx_it.o
    0x080015bc   0x000000a0   Code   RO           97    i.DataParseCondition  roter.o
    0x0800165c   0x0000005c   Code   RO           98    i.DataParseLocation  roter.o
    0x080016b8   0x0000007c   Code   RO           99    i.DataParsePolice   roter.o
    0x08001734   0x00000002   Code   RO          709    i.DebugMon_Handler  stm32f1xx_it.o
    0x08001736   0x00000006   Code   RO          710    i.EXTI0_IRQHandler  stm32f1xx_it.o
    0x0800173c   0x00000006   Code   RO          711    i.EXTI1_IRQHandler  stm32f1xx_it.o
    0x08001742   0x00000016   Code   RO          712    i.EXTI9_5_IRQHandler  stm32f1xx_it.o
    0x08001758   0x00000004   Code   RO          358    i.Error_Handler     main.o
    0x0800175c   0x00000018   Code   RO          359    i.FireGun           main.o
    0x08001774   0x000000d8   Code   RO         1108    i.HAL_ADCEx_Calibration_Start  stm32f1xx_hal_adc_ex.o
    0x0800184c   0x000000fc   Code   RO          934    i.HAL_ADC_ConfigChannel  stm32f1xx_hal_adc.o
    0x08001948   0x00000006   Code   RO          941    i.HAL_ADC_GetValue  stm32f1xx_hal_adc.o
    0x0800194e   0x00000002   PAD
    0x08001950   0x00000120   Code   RO          943    i.HAL_ADC_Init      stm32f1xx_hal_adc.o
    0x08001a70   0x00000058   Code   RO          512    i.HAL_ADC_MspInit   adc.o
    0x08001ac8   0x0000013c   Code   RO          947    i.HAL_ADC_PollForConversion  stm32f1xx_hal_adc.o
    0x08001c04   0x000000c0   Code   RO          949    i.HAL_ADC_Start     stm32f1xx_hal_adc.o
    0x08001cc4   0x00000046   Code   RO         1585    i.HAL_DMA_Abort     stm32f1xx_hal_dma.o
    0x08001d0a   0x00000002   PAD
    0x08001d0c   0x00000130   Code   RO         1586    i.HAL_DMA_Abort_IT  stm32f1xx_hal_dma.o
    0x08001e3c   0x00000248   Code   RO         1590    i.HAL_DMA_IRQHandler  stm32f1xx_hal_dma.o
    0x08002084   0x0000007c   Code   RO         1591    i.HAL_DMA_Init      stm32f1xx_hal_dma.o
    0x08002100   0x00000024   Code   RO         1211    i.HAL_Delay         stm32f1xx_hal.o
    0x08002124   0x00000030   Code   RO          360    i.HAL_GPIO_EXTI_Callback  main.o
    0x08002154   0x00000018   Code   RO         1520    i.HAL_GPIO_EXTI_IRQHandler  stm32f1xx_hal_gpio.o
    0x0800216c   0x000001f8   Code   RO         1521    i.HAL_GPIO_Init     stm32f1xx_hal_gpio.o
    0x08002364   0x00000010   Code   RO         1524    i.HAL_GPIO_TogglePin  stm32f1xx_hal_gpio.o
    0x08002374   0x0000000a   Code   RO         1525    i.HAL_GPIO_WritePin  stm32f1xx_hal_gpio.o
    0x0800237e   0x00000002   PAD
    0x08002380   0x0000000c   Code   RO         1215    i.HAL_GetTick       stm32f1xx_hal.o
    0x0800238c   0x00000010   Code   RO         1221    i.HAL_IncTick       stm32f1xx_hal.o
    0x0800239c   0x00000024   Code   RO         1222    i.HAL_Init          stm32f1xx_hal.o
    0x080023c0   0x00000040   Code   RO         1223    i.HAL_InitTick      stm32f1xx_hal.o
    0x08002400   0x0000003c   Code   RO          868    i.HAL_MspInit       stm32f1xx_hal_msp.o
    0x0800243c   0x0000001a   Code   RO         1681    i.HAL_NVIC_EnableIRQ  stm32f1xx_hal_cortex.o
    0x08002456   0x00000002   PAD
    0x08002458   0x00000040   Code   RO         1687    i.HAL_NVIC_SetPriority  stm32f1xx_hal_cortex.o
    0x08002498   0x00000024   Code   RO         1688    i.HAL_NVIC_SetPriorityGrouping  stm32f1xx_hal_cortex.o
    0x080024bc   0x000000b8   Code   RO         1482    i.HAL_RCCEx_GetPeriphCLKFreq  stm32f1xx_hal_rcc_ex.o
    0x08002574   0x000000ec   Code   RO         1483    i.HAL_RCCEx_PeriphCLKConfig  stm32f1xx_hal_rcc_ex.o
    0x08002660   0x0000012c   Code   RO         1379    i.HAL_RCC_ClockConfig  stm32f1xx_hal_rcc.o
    0x0800278c   0x00000020   Code   RO         1386    i.HAL_RCC_GetPCLK1Freq  stm32f1xx_hal_rcc.o
    0x080027ac   0x00000020   Code   RO         1387    i.HAL_RCC_GetPCLK2Freq  stm32f1xx_hal_rcc.o
    0x080027cc   0x00000054   Code   RO         1388    i.HAL_RCC_GetSysClockFreq  stm32f1xx_hal_rcc.o
    0x08002820   0x00000320   Code   RO         1391    i.HAL_RCC_OscConfig  stm32f1xx_hal_rcc.o
    0x08002b40   0x00000028   Code   RO         1692    i.HAL_SYSTICK_Config  stm32f1xx_hal_cortex.o
    0x08002b68   0x00000002   Code   RO         2887    i.HAL_TIMEx_BreakCallback  stm32f1xx_hal_tim_ex.o
    0x08002b6a   0x00000002   Code   RO         2888    i.HAL_TIMEx_CommutCallback  stm32f1xx_hal_tim_ex.o
    0x08002b6c   0x0000007c   Code   RO         2906    i.HAL_TIMEx_MasterConfigSynchronization  stm32f1xx_hal_tim_ex.o
    0x08002be8   0x0000005a   Code   RO         2183    i.HAL_TIM_Base_Init  stm32f1xx_hal_tim.o
    0x08002c42   0x00000002   PAD
    0x08002c44   0x0000003c   Code   RO          578    i.HAL_TIM_Base_MspInit  tim.o
    0x08002c80   0x00000002   Code   RO         2217    i.HAL_TIM_IC_CaptureCallback  stm32f1xx_hal_tim.o
    0x08002c82   0x00000166   Code   RO         2231    i.HAL_TIM_IRQHandler  stm32f1xx_hal_tim.o
    0x08002de8   0x00000002   Code   RO         2234    i.HAL_TIM_OC_DelayElapsedCallback  stm32f1xx_hal_tim.o
    0x08002dea   0x00000002   Code   RO         2261    i.HAL_TIM_PWM_PulseFinishedCallback  stm32f1xx_hal_tim.o
    0x08002dec   0x00000002   Code   RO         2269    i.HAL_TIM_PeriodElapsedCallback  stm32f1xx_hal_tim.o
    0x08002dee   0x00000002   Code   RO         2274    i.HAL_TIM_TriggerCallback  stm32f1xx_hal_tim.o
    0x08002df0   0x0000004e   Code   RO         3165    i.HAL_UARTEx_ReceiveToIdle_IT  stm32f1xx_hal_uart.o
    0x08002e3e   0x00000002   PAD
    0x08002e40   0x00000044   Code   RO          361    i.HAL_UARTEx_RxEventCallback  main.o
    0x08002e84   0x00000002   Code   RO         3180    i.HAL_UART_ErrorCallback  stm32f1xx_hal_uart.o
    0x08002e86   0x00000002   PAD
    0x08002e88   0x0000026c   Code   RO         3183    i.HAL_UART_IRQHandler  stm32f1xx_hal_uart.o
    0x080030f4   0x00000064   Code   RO         3184    i.HAL_UART_Init     stm32f1xx_hal_uart.o
    0x08003158   0x00000378   Code   RO          620    i.HAL_UART_MspInit  usart.o
    0x080034d0   0x0000001c   Code   RO         3189    i.HAL_UART_Receive_IT  stm32f1xx_hal_uart.o
    0x080034ec   0x00000058   Code   RO          362    i.HAL_UART_RxCpltCallback  main.o
    0x08003544   0x0000009a   Code   RO         3192    i.HAL_UART_Transmit  stm32f1xx_hal_uart.o
    0x080035de   0x00000002   Code   RO         3195    i.HAL_UART_TxCpltCallback  stm32f1xx_hal_uart.o
    0x080035e0   0x00000002   Code   RO          713    i.HardFault_Handler  stm32f1xx_it.o
    0x080035e2   0x00000002   PAD
    0x080035e4   0x00000050   Code   RO          513    i.MX_ADC1_Init      adc.o
    0x08003634   0x0000007c   Code   RO          553    i.MX_DMA_Init       dma.o
    0x080036b0   0x00000170   Code   RO          487    i.MX_GPIO_Init      gpio.o
    0x08003820   0x0000004c   Code   RO          579    i.MX_TIM6_Init      tim.o
    0x0800386c   0x00000038   Code   RO          621    i.MX_UART4_Init     usart.o
    0x080038a4   0x00000038   Code   RO          622    i.MX_UART5_Init     usart.o
    0x080038dc   0x00000038   Code   RO          623    i.MX_USART1_UART_Init  usart.o
    0x08003914   0x00000038   Code   RO          624    i.MX_USART2_UART_Init  usart.o
    0x0800394c   0x00000038   Code   RO          625    i.MX_USART3_UART_Init  usart.o
    0x08003984   0x00000002   Code   RO          714    i.MemManage_Handler  stm32f1xx_it.o
    0x08003986   0x00000002   Code   RO          715    i.NMI_Handler       stm32f1xx_it.o
    0x08003988   0x00000002   Code   RO          716    i.PendSV_Handler    stm32f1xx_it.o
    0x0800398a   0x00000002   PAD
    0x0800398c   0x000000b4   Code   RO          100    i.ProcessCmdBuffer  roter.o
    0x08003a40   0x00000040   Code   RO          101    i.RemovePoliceToRoter  roter.o
    0x08003a80   0x00000078   Code   RO          102    i.RoterAngle1       roter.o
    0x08003af8   0x00000078   Code   RO          103    i.RoterAngle5       roter.o
    0x08003b70   0x00000078   Code   RO          104    i.RoterRelativeAngle1  roter.o
    0x08003be8   0x00000078   Code   RO          105    i.RoterRelativeAngle5  roter.o
    0x08003c60   0x000000b4   Code   RO          363    i.RoterTimeAdd      main.o
    0x08003d14   0x00000002   Code   RO          717    i.SVC_Handler       stm32f1xx_it.o
    0x08003d16   0x00000002   PAD
    0x08003d18   0x000000b8   Code   RO          106    i.SendCmdToBuf      roter.o
    0x08003dd0   0x00000084   Code   RO          364    i.SendDataByUART    main.o
    0x08003e54   0x00000006   Code   RO          107    i.SetInching        roter.o
    0x08003e5a   0x00000002   PAD
    0x08003e5c   0x0000002c   Code   RO          110    i.SetRestoration    roter.o
    0x08003e88   0x00000004   Code   RO          718    i.SysTick_Handler   stm32f1xx_it.o
    0x08003e8c   0x00000078   Code   RO          365    i.SystemClock_Config  main.o
    0x08003f04   0x00000002   Code   RO         3518    i.SystemInit        system_stm32f1xx.o
    0x08003f06   0x00000002   PAD
    0x08003f08   0x0000000c   Code   RO          719    i.TIM6_IRQHandler   stm32f1xx_it.o
    0x08003f14   0x0000008c   Code   RO         2276    i.TIM_Base_SetConfig  stm32f1xx_hal_tim.o
    0x08003fa0   0x000000dc   Code   RO          111    i.UART2DataParse    roter.o
    0x0800407c   0x00000068   Code   RO          112    i.UART2DataRecv     roter.o
    0x080040e4   0x0000000c   Code   RO          720    i.UART4_IRQHandler  stm32f1xx_it.o
    0x080040f0   0x0000000c   Code   RO          721    i.UART5_IRQHandler  stm32f1xx_it.o
    0x080040fc   0x00000010   Code   RO         3197    i.UART_DMAAbortOnError  stm32f1xx_hal_uart.o
    0x0800410c   0x0000004e   Code   RO         3207    i.UART_EndRxTransfer  stm32f1xx_hal_uart.o
    0x0800415a   0x000000c2   Code   RO         3209    i.UART_Receive_IT   stm32f1xx_hal_uart.o
    0x0800421c   0x000000b8   Code   RO         3210    i.UART_SetConfig    stm32f1xx_hal_uart.o
    0x080042d4   0x00000036   Code   RO         3212    i.UART_Start_Receive_IT  stm32f1xx_hal_uart.o
    0x0800430a   0x00000078   Code   RO         3213    i.UART_WaitOnFlagUntilTimeout  stm32f1xx_hal_uart.o
    0x08004382   0x00000002   PAD
    0x08004384   0x00000140   Code   RO          366    i.USART1DataRecv    main.o
    0x080044c4   0x0000000c   Code   RO          722    i.USART1_IRQHandler  stm32f1xx_it.o
    0x080044d0   0x0000000c   Code   RO          723    i.USART2_IRQHandler  stm32f1xx_it.o
    0x080044dc   0x0000000c   Code   RO          724    i.USART3_IRQHandler  stm32f1xx_it.o
    0x080044e8   0x00000002   Code   RO          725    i.UsageFault_Handler  stm32f1xx_it.o
    0x080044ea   0x00000002   PAD
    0x080044ec   0x00000020   Code   RO         3634    i.__0printf$1       mc_w.l(printf1.o)
    0x0800450c   0x00000020   Code   RO         1694    i.__NVIC_SetPriority  stm32f1xx_hal_cortex.o
    0x0800452c   0x00000008   Code   RO         3958    i.__aeabi_errno_addr  mc_w.l(errno.o)
    0x08004534   0x0000005c   Code   RO         3854    i.__free$realloc    mc_w.l(mallocr.o)
    0x08004590   0x00000050   Code   RO         3855    i.__malloc$realloc  mc_w.l(mallocr.o)
    0x080045e0   0x0000000c   Code   RO         3959    i.__read_errno      mc_w.l(errno.o)
    0x080045ec   0x0000000e   Code   RO         4003    i.__scatterload_copy  mc_w.l(handlers.o)
    0x080045fa   0x00000002   Code   RO         4004    i.__scatterload_null  mc_w.l(handlers.o)
    0x080045fc   0x0000000e   Code   RO         4005    i.__scatterload_zeroinit  mc_w.l(handlers.o)
    0x0800460a   0x00000002   PAD
    0x0800460c   0x0000000c   Code   RO         3960    i.__set_errno       mc_w.l(errno.o)
    0x08004618   0x0000000e   Code   RO         3994    i._is_digit         mc_w.l(scanf_fp.o)
    0x08004626   0x00000002   PAD
    0x08004628   0x00000154   Code   RO         3641    i._printf_core      mc_w.l(printf1.o)
    0x0800477c   0x0000002a   Code   RO         3553    i.atof              m_ws.l(atof.o)
    0x080047a6   0x0000001a   Code   RO          367    i.calculate_checksum  main.o
    0x080047c0   0x0000001e   Code   RO          113    i.check_sum         roter.o
    0x080047de   0x00000038   Code   RO          114    i.crc16             roter.o
    0x08004816   0x00000002   PAD
    0x08004818   0x00000018   Code   RO          627    i.fputc             usart.o
    0x08004830   0x0000002a   Code   RO          115    i.hexToBinChar      roter.o
    0x0800485a   0x00000002   PAD
    0x0800485c   0x00000020   Code   RO          116    i.hex_to_int        roter.o
    0x0800487c   0x00000070   Code   RO           10    i.insertZerosBetweenCommas  gps.o
    0x080048ec   0x00000010   Code   RO          117    i.int_to_hex        roter.o
    0x080048fc   0x00000050   Code   RO         3856    i.internal_alloc    mc_w.l(mallocr.o)
    0x0800494c   0x000001b8   Code   RO          368    i.main              main.o
    0x08004b04   0x0000006c   Code   RO         3857    i.realloc           mc_w.l(mallocr.o)
    0x08004b70   0x00000194   Code   RO           11    i.receive_gps_data  gps.o
    0x08004d04   0x000002a0   Code   RO           12    i.strGga_parse      gps.o
    0x08004fa4   0x00000208   Code   RO           13    i.strGll_parse      gps.o
    0x080051ac   0x00000100   Code   RO           14    i.strGsa_parse      gps.o
    0x080052ac   0x0000008c   Code   RO           15    i.strGsv_parse      gps.o
    0x08005338   0x00000078   Code   RO           16    i.strRHXZ_parse     gps.o
    0x080053b0   0x000002a0   Code   RO           17    i.strRmc_parse      gps.o
    0x08005650   0x000000a8   Code   RO           18    i.strVtg_parse      gps.o
    0x080056f8   0x0000001c   Code   RO         3557    i.strtod            m_ws.l(strtod.o)
    0x08005714   0x00000012   Data   RO         1392    .constdata          stm32f1xx_hal_rcc.o
    0x08005726   0x00000012   Data   RO         1484    .constdata          stm32f1xx_hal_rcc_ex.o
    0x08005738   0x00000010   Data   RO         3519    .constdata          system_stm32f1xx.o
    0x08005748   0x00000008   Data   RO         3520    .constdata          system_stm32f1xx.o
    0x08005750   0x00000081   Data   RO         3929    .constdata          mc_w.l(ctype_o.o)
    0x080057d1   0x00000003   PAD
    0x080057d4   0x00000004   Data   RO         3930    .constdata          mc_w.l(ctype_o.o)
    0x080057d8   0x00000020   Data   RO         4001    Region$$Table       anon$$obj.o


    Execution Region RW_IRAM1 (Base: 0x20000000, Size: 0x000039f0, Max: 0x0000c000, ABSOLUTE, COMPRESSED[0x0000011c])

    Base Addr    Size         Type   Attr      Idx    E Section Name        Object

    0x20000000   0x00000006   Data   RW           20    .data               gps.o
    0x20000006   0x00000002   PAD
    0x20000008   0x00000156   Data   RW          119    .data               roter.o
    0x2000015e   0x0000000d   Data   RW          120    .data               roter.o
    0x2000016b   0x0000000d   Data   RW          121    .data               roter.o
    0x20000178   0x0000000d   Data   RW          122    .data               roter.o
    0x20000185   0x0000000d   Data   RW          123    .data               roter.o
    0x20000192   0x00000034   Data   RW          372    .data               main.o
    0x200001c6   0x00000002   PAD
    0x200001c8   0x00000004   Data   RW          629    .data               usart.o
    0x200001cc   0x0000000c   Data   RW         1229    .data               stm32f1xx_hal.o
    0x200001d8   0x00000004   Data   RW         3521    .data               system_stm32f1xx.o
    0x200001dc   0x00000004   Data   RW         3580    .data               mc_w.l(strtok.o)
    0x200001e0   0x00000004   Data   RW         3956    .data               mc_w.l(mvars.o)
    0x200001e4   0x00000004   Data   RW         3957    .data               mc_w.l(mvars.o)
    0x200001e8   0x00000004   Data   RW         3961    .data               mc_w.l(errno.o)
    0x200001ec   0x00000004   PAD
    0x200001f0   0x00000260   Zero   RW           19    .bss                gps.o
    0x20000450   0x00001df3   Zero   RW          118    .bss                roter.o
    0x20002243   0x00000001   PAD
    0x20002244   0x00000426   Zero   RW          370    .bss                main.o
    0x2000266a   0x00000009   Zero   RW          371    .bss                main.o
    0x20002673   0x00000001   PAD
    0x20002674   0x00000030   Zero   RW          514    .bss                adc.o
    0x200026a4   0x00000048   Zero   RW          580    .bss                tim.o
    0x200026ec   0x00000300   Zero   RW          628    .bss                usart.o
    0x200029ec   0x00000004   PAD
    0x200029f0   0x00000800   Zero   RW            2    HEAP                startup_stm32f103xe.o
    0x200031f0   0x00000800   Zero   RW            1    STACK               startup_stm32f103xe.o


==============================================================================

Image component sizes


      Code (inc. data)   RO Data    RW Data    ZI Data      Debug   Object Name

       168         20          0          0         48       1493   adc.o
       124          4          0          0          0        718   dma.o
       368         24          0          0          0       1015   gpio.o
      3064        208          0          6        608      18393   gps.o
      1746        278          0         52       1071      10750   main.o
      1834        130          0        394       7667     519843   roter.o
        36          8        304          0       4096        764   startup_stm32f103xe.o
       164         28          0         12          0       6197   stm32f1xx_hal.o
      1264         58          0          0          0       6268   stm32f1xx_hal_adc.o
       216          6          0          0          0       1358   stm32f1xx_hal_adc_ex.o
       198         14          0          0          0      28719   stm32f1xx_hal_cortex.o
      1082         52          0          0          0       3323   stm32f1xx_hal_dma.o
       554         48          0          0          0       3916   stm32f1xx_hal_gpio.o
        60          8          0          0          0        794   stm32f1xx_hal_msp.o
      1248         86         18          0          0       4904   stm32f1xx_hal_rcc.o
       420         32         18          0          0       2401   stm32f1xx_hal_rcc_ex.o
       598         20          0          0          0       6085   stm32f1xx_hal_tim.o
       128         20          0          0          0       2245   stm32f1xx_hal_tim_ex.o
      1630         10          0          0          0      10693   stm32f1xx_hal_uart.o
       198         72          0          0          0       9583   stm32f1xx_it.o
         2          0         24          4          0        999   system_stm32f1xx.o
       136         20          0          0         72       1418   tim.o
      1192         98          0          4        768       6472   usart.o

    ----------------------------------------------------------------------
     16466       1244        396        476      14336     648351   Object Totals
         0          0         32          0          0          0   (incl. Generated)
        36          0          0          4          6          0   (incl. Padding)

    ----------------------------------------------------------------------

      Code (inc. data)   RO Data    RW Data    ZI Data      Debug   Library Member Name

        42          0          0          0          0         84   atof.o
        28          0          0          0          0         80   strtod.o
        56          8          0          0          0         84   __0sscanf.o
        86          0          0          0          0          0   __dczerorl2.o
        28          0          0          0          0         68   _chval.o
       812          4          0          0          0        112   _scanf.o
       332          0          0          0          0         96   _scanf_int.o
        64          0          0          0          0         84   _sgetc.o
       158          0          0          0          0         92   _strtoul.o
        26          0          0          0          0         80   atoi.o
         8          4        133          0          0         68   ctype_o.o
         0          0          0          0          0          0   entry.o
         0          0          0          0          0          0   entry10a.o
         0          0          0          0          0          0   entry11a.o
         8          4          0          0          0          0   entry2.o
         4          0          0          0          0          0   entry5.o
         0          0          0          0          0          0   entry7b.o
         0          0          0          0          0          0   entry8b.o
         8          4          0          0          0          0   entry9a.o
        32         16          0          4          0        204   errno.o
        30          0          0          0          0          0   handlers.o
        36          8          0          0          0         68   init.o
        18          0          0          0          0         76   isspace_o.o
         0          0          0          0          0          0   iusefp.o
        30          0          0          0          0         68   llshl.o
        36          0          0          0          0         68   llsshr.o
        32          0          0          0          0         68   llushr.o
       360         30          0          0          0        356   mallocr.o
        64          0          0          0          0         76   memmovea.o
        36          0          0          0          0        108   memseta.o
         0          0          0          8          0          0   mvars.o
       372         14          0          0          0        184   printf1.o
        40          8          0          0          0         84   scanf_char.o
       838         12          0          0          0        216   scanf_fp.o
        18          0          0          0          0         68   strcpy.o
        14          0          0          0          0         68   strlen.o
        30          0          0          0          0         80   strncmp.o
        24          0          0          0          0         76   strncpy.o
       156         12          0          0          0        120   strtod.o
        68          6          0          4          0         80   strtok.o
       112          0          0          0          0         88   strtol.o
        44          0          0          0          0         80   uidiv.o
        56          0          0          0          0         88   d2f.o
       334          0          0          0          0        148   dadd.o
       222          0          0          0          0        100   ddiv.o
       186          0          0          0          0        176   depilogue.o
        62          0          0          0          0         80   dfixi.o
        50          0          0          0          0         76   dfixui.o
        34          0          0          0          0         76   dflti.o
        26          0          0          0          0         76   dfltui.o
        24          0          0          0          0         76   dfltul.o
       228          0          0          0          0         96   dmul.o
        46          0          0          0          0         80   dscalb.o
        38          0          0          0          0         68   f2d.o
       110          0          0          0          0        168   fepilogue.o
        40          0          0          0          0         68   ffixui.o

    ----------------------------------------------------------------------
      5522        130        136         16          4       4460   Library Totals
        16          0          3          0          4          0   (incl. Padding)

    ----------------------------------------------------------------------

      Code (inc. data)   RO Data    RW Data    ZI Data      Debug   Library Name

        70          0          0          0          0        164   m_ws.l
      3980        130        133         16          0       2920   mc_w.l
      1456          0          0          0          0       1376   mf_w.l

    ----------------------------------------------------------------------
      5522        130        136         16          4       4460   Library Totals

    ----------------------------------------------------------------------

==============================================================================


      Code (inc. data)   RO Data    RW Data    ZI Data      Debug   

     21988       1374        532        492      14340     643527   Grand Totals
     21988       1374        532        284      14340     643527   ELF Image Totals (compressed)
     21988       1374        532        284          0          0   ROM Totals

==============================================================================

    Total RO  Size (Code + RO Data)                22520 (  21.99kB)
    Total RW  Size (RW Data + ZI Data)             14832 (  14.48kB)
    Total ROM Size (Code + RO Data + RW Data)      22804 (  22.27kB)

==============================================================================

