:020000040800F2
:10000000F03900204501000887390008E135000873
:1000100085390008D5140008E944000800000000F4
:10002000000000000000000000000000153D000876
:10003000351700080000000089390008893E0008D3
:100040005F0100085F0100085F0100085F01000810
:100050005F0100085F010008371700083D1700081E
:100060005F0100085F0100085F0100085F010008F0
:1000700075150008811500088D15000899150008F0
:10008000A5150008B11500085F0100085F01000810
:100090005F0100085F0100085F01000843170008C6
:1000A0005F0100085F0100085F0100085F010008B0
:1000B0005F0100085F0100085F0100085F010008A0
:1000C0005F0100085F0100085F0100085F01000890
:1000D0005F010008C5440008D1440008DD44000861
:1000E0005F0100085F0100085F0100085F01000870
:1000F0005F0100085F0100085F0100085F01000860
:100100005F0100085F0100085F0100085F0100084F
:10011000E5400008F1400008093F00085F010008C1
:100120005F0100085F0100085F0100085F0100082F
:10013000DFF80CD000F0A2FD004800474D49000850
:10014000F03900200648804706480047FEE7FEE7F2
:10015000FEE7FEE7FEE7FEE7FEE7FEE7FEE7FEE777
:10016000053F000831010008202A04DB203A21FA6B
:1001700002F00021704721FA02F3D040C2F12002C0
:10018000914008431946704710B5431A934209D26B
:100190008318881803E010F8011D03F8011D521E92
:1001A000F9D210BD40EA01039B0703D009E008C95A
:1001B000121F08C0042AFAD203E011F8013B00F82C
:1001C000013B521EF9D210BDD2B201E000F8012B62
:1001D000491EFBD270470022F6E710B513460A46C7
:1001E00004461946FFF7F0FF204610BD10B504463F
:1001F00004E00B7800F8013B03B1491C521EF8D211
:10020000204610BD421C10F8011B0029FBD1801AAA
:100210007047034611F8012B00F8012B002AF9D191
:100220001846704730B505460020034600E05B1CC9
:10023000934205D2EC5CC85C201A01D1002CF6D1A7
:1002400030BD000070B50F4D00B92868002412E0E1
:100250000A4602E09E4203D0521C1378002BF9D1CB
:10026000DAB2224305D02BB124B1002100F8011BE2
:1002700004E00446401C0678002EE9D128602046A0
:1002800070BD0000DC0100200FB400B58DB010A9D6
:1002900009900B9000914FF0FF300A9000200C90D5
:1002A00005480690054807906A4609A80F9900F08E
:1002B00015FB0DB05DF814FBF908000817090008DC
:1002C0002DE9FF5F1D464FF0FF3BD5E90146914602
:1002D0005F464FF00008A9697F1C01988847296A8A
:1002E000824688470028F6D1BAF1FF3F0CD024F4AB
:1002F000C064002E19DD600614D5BAF12B0F09D0A9
:10030000BAF12D0F0ED103E0584604B0BDE8F09FBE
:1003100044F48064A9697F1C01988847761E824650
:10032000002E02DDBAF1300F03D0B9F1000F26D054
:1003300032E0A969761E44F400747F1C0198884756
:100340008246002E05DDBAF1780F06D0BAF1580FBB
:1003500003D0B9F1000F10D01EE0B9F1000F02D0A8
:10036000B9F1100F18D1A969761E24F400747F1C0E
:10037000019888478246102002E0082000E00A2009
:10038000814609E008FB0908A969761E44F4007457
:100390007F1C019888478246002E05DD494650465D
:1003A00000F087FA0028EDDAE96901988847A0058E
:1003B00002D46FF00100A8E7E00725D1600613D54D
:1003C000600502D5C8F1000000E0404629680A1D1A
:1003D0002A600968220501D5087015E0220701D5B9
:1003E000088011E008600FE02868011D296000689E
:1003F000210502D580F8008006E0210702D5A0F88B
:10040000008001E0C0F8008038467EE72DE9F04723
:1004100091460F4680460446002614F8015B2DB134
:1004200000F03AFA0068405DC007F6D12B2D02D0EB
:100430002D2D18D0641E4A463946204600F07CFA1D
:1004400027B13968A14201D1C7F8008071054FF08A
:1004500002040BD54042002803DD04F067F8046075
:10046000A007BDE8F08746F48066E4E70028F8DAE4
:1004700004F05CF804606FF00040F2E770B50646E7
:1004800004F054F8046805460A2200213046FFF7BC
:10049000BDFF2C6070BD2DE9FE4F804681EA030050
:1004A000C00F0C46009021F0004123F00045B8EB4E
:1004B0000200A94105D24046214690461C460B4603
:1004C000024623F00040104347D0270DC7F30A002F
:1004D000C3F30A510290401A019040286BDAC3F32B
:1004E000130040F4801B0098924620B10023D2EB09
:1004F000030A63EB0B0B01985946C0F140025046CA
:1005000000F0A8F906460D4650465946019A00F0FB
:10051000B0F910EB08006141002487EA115284EA27
:10052000E7731A4340D0009A62B3019A012A4FEA56
:10053000075215DC001B61EB02014FF0004202EA9A
:100540000752CDE90042001C41F5801132462B468E
:1005500000F0D6FA03B0BDE8F08F40462146F9E737
:10056000001B61EB0201001C41F5801300185B4188
:100570002018A2F5001747EB030140EAD570B61921
:100580006D4111E06D084FEA360645EAC0754FEA45
:100590000752001B61EB0201001C41F58011490864
:1005A0004FEA30000019514132462B4603B0BDE8F6
:1005B000F04F00F096BA0098012240000023D0EBE3
:1005C000020263EBE073009821464FEAE074B8EB57
:1005D000000061EB0401E9E783F000435BE781F091
:1005E000004158E72DE9FE4F81EA030404F000447E
:1005F00021F0004100944FF0000B23F0004350EA3B
:1006000001045ED052EA03045BD0C3F30A54C1F381
:100610000A552C44A4F2F3340194A0FB0254C1F314
:10062000130141F48011C3F3130343F4801301FB5E
:10063000024400FB034E840A970A44EA815447EAC5
:100640008357A4FB076802958D0A05FB07854FEACF
:10065000932C04FB0C542705029D4FEA065847EAE9
:100660001637B5EB08056EEB070C870E920E47EABE
:10067000811742EA8312A7FB0201B6EB0B0164EB80
:1006800000042B0D43EA0C335E1844EB1C50DA4691
:100690005146E7FB0201C5F313044FEA0B3343EA6B
:1006A00014534FEA0432019C43EA0603A4F10C04FC
:1006B0000294009CCDE900B400F022FA03B0BDE83A
:1006C000F08F00200146F9E770B521F000430343A5
:1006D0000CD0C1F30A550024D5EB040564EB0403E8
:1006E000D617AD1AB34102DB0020014670BD2018B9
:1006F00041EB025170BD0EB5C10F80EAE0700844B5
:10070000CA07002140F233438DE80E000A460B462B
:1007100000F0F6F903B000BD0EB540F2334102918E
:100720000021CDE900110A460B4600F0E9F903B0BB
:1007300000BD20F00040C10DC0F3160040F40000E1
:100740007F2901DA00207047962903DCC1F1960168
:10075000C840704796398840704770B5C1F30A5257
:1007600001F000450024C1F3130140F2FF3341F4CE
:1007700080119A4201DA002070BD40F233439A4260
:10078000A2F2334203DC5242FFF7EEFC00E090405D
:100790002C43F1D0404270BDC1F30A5210B5C1F3F1
:1007A000130140F2FF3341F480119A4201DA002034
:1007B00010BD40F233439A42A2F2334203DC52426C
:1007C000FFF7D2FC10BD904010BD00F0004230F0A9
:1007D00000400AD0C10D01F56071C0F3160042EA75
:1007E0000151C2084007114370470020014670477D
:1007F00001F0004330B421F0004150EA010206D07C
:100800000A0DA2F56072C1F31301002A02DC30BCAC
:1008100000207047440F44EAC104C100E01830BC16
:1008200000EBC25000F026B930B50B46014600205F
:100830002022012409E021FA02F59D4205D303FAA2
:1008400002F5491B04FA02F52844151EA2F1010223
:10085000F1DC30BD202A04DB203A00FA02F100204E
:1008600070479140C2F1200320FA03F319439040EE
:100870007047202A06DBCB17203A41FA02F043EA00
:10088000E07306E041FA02F3D040C2F12002914049
:10089000084319467047000000487047D4570008C5
:1008A00010B50446FFF7F8FF0068005D00F0010096
:1008B00010BD3A2800D2303820F02002412A01D35E
:1008C000A2F13700884201D34FF0FF30704700009B
:1008D000026811441378016018467047D1600449DA
:1008E00051610449116200211161114600F0D8B92B
:1008F000D1080008A1080008426842B1016811F857
:10090000013B23B1521EC0E9001218467047012175
:10091000C160881E704742685AB1C368016843B914
:1009200083688B4205D0491E521CC0E9001200208A
:1009300070474FF0FF3070472DE9F05F8246007836
:10094000002715468B460AF10104B946302801D02C
:100950009DB113E014F8010B0127782803D0582823
:1009600001D045B10AE00DB1102D07D100271025A7
:1009700014F8010B02E0082500E00A250026B04625
:100980000EE005FB080005FB06F1012701EB104610
:100990001FFA80F8B6F5803F00D3B94614F8010B72
:1009A0002946FFF786FF0028EBDABBF1000F05D0E0
:1009B0000FB1641E00E05446CBF80040B9F1000FBF
:1009C00006D003F0B3FD02210160C81EBDE8F09F10
:1009D00048EA0640FAE700000FB4002300B589B0EA
:1009E0000CA900910B996FF00042CB601E4B06934F
:1009F0001E4B07930423CDE901321D4A089202469B
:100A00006B46002000F062FB09B05DF814FB70B586
:100A100086B006464FF0FF300091CDE9010100207D
:100A200015460C4604903246694604A8FFF7D4FFE9
:100A300002460498211825B108B1084600E0204676
:100A40002860049800280DD0002A02DD0098884212
:100A500008D0081B0094CDE901043246694604A879
:100A6000FFF7BAFF06B070BDF908000817090008C3
:100A7000A10800080029A8BF7047401C490008BF12
:100A800020F00100704710B4B0FA80FC00FA0CF0BE
:100A900050EA010404BF10BC704749B1CCF12004F6
:100AA00021FA04F411FA0CF118BF01212143084383
:100AB000A3EB0C01CB1D4FEA00614FEA102042BFAF
:100AC000002010BC704700EBC35010440029A4BFA5
:100AD00010BC7047401C490008BF20F0010010BC4A
:100AE000704710B5141E73F1000408DA401C41F180
:100AF000000192185B411A4301D120F0010010BDA2
:100B00002DE9F04D92469B4611B1B1FA81F202E017
:100B1000B0FA80F220329046FFF79CFE04460F4662
:100B200040EA0A0041EA0B0153465A46084313D0F3
:100B3000114653EA010019D0C8F140025046FFF7B0
:100B400013FB05460E46504659464246FFF782FEC5
:100B5000084305D0012004E020463946BDE8F08D69
:100B60000020054346EAE0762C4337430A986305A4
:100B7000E40AA0EB08000022FD0A44EA47540A30C8
:100B800002D500200146E9E7010510196941DDE9B8
:100B9000084500196941BDE8F04DA2E72DE9F04D87
:100BA00081EA030404F0004B21F0004514464FF0A5
:100BB000000A23F0004150EA050220D054EA010265
:100BC0001DD0C5F30A570246C5F31303C1F3130042
:100BD000C1F30A5640F4801543F48013A7EB0608CE
:100BE000101BD64608F2FD3873EB050002D308F15E
:100BF000010801E092185B41B8F1000F03DA002010
:100C00000146BDE8F08D00204FF480110646844671
:100C10000EE0171B73EB050705D3121B63EB0503EF
:100C200006434CEA010C49084FEA300092185B4138
:100C300050EA0107EDD152EA030012D082EA040023
:100C400083EA0501084305D0101BAB4106D20122FF
:100C5000002306E000224FF0004302E06FF00102A3
:100C600053101AEB06004CEB085110EB0A0041EB55
:100C70000B01BDE8F04DFFF734BF0000064C074DF7
:100C800006E0E06840F0010394E80700984710345C
:100C9000AC42F6D3FFF750FAD8570008F8570008CF
:100CA0002DE9F34F8BB04FF0000801F10C000C461A
:100CB0004FF0010B46460DF1080A019062690121CF
:100CC00001989047051E2DD0252D2CD0216A8847EC
:100CD000C0B16269012101989047216A88470028C4
:100CE000F7D1411E62690198904700E0761CA16926
:100CF0000B988847216A88470028F7D1E1690B984B
:100D00008847DBE7A1690B9888470746A84201D1CD
:100D1000761CD3E7E1690B9888477F1C02D1B8F1B4
:100D2000000F6FD046E1002762693D4639460198C1
:100D300090472A2804D16269012101989047012532
:100D4000DFF884926269012101989047A0F1300197
:100D50000A290AD24F45E5DC07EB870100EB410782
:100D6000303FDFD445F01005ECE7E90601D46FF021
:100D700000476C280AD04C2814D0682815D06A285F
:100D80000DD074281CD07A281AD01DE06269012188
:100D9000019890476C2802D045F0040514E045F016
:100DA00002050DE045F020050AE062690121019885
:100DB0009047682802D045F0080505E045F4006535
:100DC0006269012101989047C4E9015765283DD027
:100DD00019DC58287AD00CDC452837D004DC2528CB
:100DE00026D0412831D131E046282FD047282CD1B8
:100DF0002CE05B2877D0612828D063287CD0642839
:100E000023D15AE0D0E06F2848D008DC66281DD0F6
:100E100067281BD0692821D06E2816D127E07028BA
:100E200045D0732868D0752847D078280DD14DE07B
:100E3000A1690B988847054625283FF469AFE16909
:100E40000B9888476D1C3FF46AAFB3E023466A46AF
:100E50006FF001000B9900F039F99EE045F0400079
:100E60006060A80723464FF0000236D43EE0E80752
:100E70007FF447AF2068011D21600068290501D576
:100E800006701BE7290701D5068017E7A90703D5D8
:100E9000F117C0E9006111E706600FE745F0400077
:100EA0006060A80723464FF0080216D41EE040F603
:100EB0000E0125EA0100606016E045F04000606028
:100EC000A80723464FF00A0207D40FE045F0400080
:100ED0006060A80708D5234610226FF001000B9927
:100EE000AFF3008059E007E0234610226FF00100C5
:100EF0000B99FFF7E5F950E04FF000094F464B46DC
:100F0000632802D05B2806D040E0E80601D4012027
:100F1000A06001273AE062690121019890475E28AC
:100F200005D14FF00109626949460198904721694E
:100F300039B900210A46534643F82120491C0829A3
:100F4000FADBB0B3216969B9C11700EBD162531163
:100F50000AEB830122F01F02821A01200B689040E5
:100F600003430B6062690121019890475D28E8D135
:100F7000B9F1000F09D00020514651F82020D2438A
:100F800041F82020401C0828F7DB02AB22460097DE
:100F90006FF001000B99AFF3008000280CDA401CC1
:100FA00008D1BBF1000F05D04FF0FF300DB0BDE808
:100FB000F08FFFE74046F9E7E90701D108F10108A2
:100FC00006444FF0000B79E6CCCCCC0C2DE9FF4F5A
:100FD000087881B09946FF2805D0491C2D2804D0F7
:100FE0000024002308E000230BE00124F9E703EBD1
:100FF000830300EB4303491C0878FF28F7D104B1B1
:101000005B4200200090147801462D2C01D02B2C3F
:1010100004D1521C2D2C12D00024009400251678E7
:10102000FF2E0ED00A24A0FB04C801FB0481002778
:1010300000FB0711521C16EB0C006941EFE701247D
:10104000EBE7994450EA01020ED00024AA4D26464F
:10105000DFF8A88200F056F982468B46B9F100000D
:1010600009DAC9F100071BE001980021C0E900116D
:1010700005B0BDE8F08F074612E0F80707D022461A
:101080002B4630464146FFF7ADFA064688462246D3
:101090002B4610461946FFF7A5FA04460D467F1069
:1010A000002FEAD1B9F1000F324643465046594667
:1010B00002DAFFF773FD01E0FFF794FA009A0AB134
:1010C00081F00041019AC2E90001D1E72DE9FF4F0B
:1010D0001F468DB0D7E901464FF0FF382E20454618
:1010E0004FF000090B90B9696D1C0E988847396A5A
:1010F000824688470028F6D1BAF1FF3F0AD024F48F
:10110000D064002E11DDBAF12B0F08D0BAF12D0FEB
:101110000BD102E0404611B0ABE744F48064B969FA
:101120006D1C0E9888478246761E6946600501D57B
:101130002D2000E02B208DF8000001F1010B0DF1B6
:10114000200809E0B9696D1C0E98884782460F98FF
:1011500044F40074761E0560002E02DDBAF1300FF3
:10116000F0D00B998A453ED144F0800406E00F99F7
:10117000681CA9F1010944F400740860B9696D1C88
:10118000761E0E98884782463028F0D02BE00B99C7
:101190008A4505D1200603D444F08004761E18E069
:1011A000504603F039FA08B30DF11301761E44F4EA
:1011B00000748B4508D2AAF130000BF8010B200611
:1011C00007D5A9F1010003E0200602D409F10100CE
:1011D0008146A00502D50F99681C0860B9696D1C8D
:1011E0000E9888478246002ED1DC53E0002E51DD58
:1011F000BAF1650F02D0BAF1450F4BD1A00549D520
:10120000B9696D1C24F44074761E0E988847824696
:10121000002E0CDD2B2804D0BAF12D0F07D144F499
:101220008074B9696D1C0E9888478246761EE00569
:1012300001D52D2100E02B2108F8011BCDF82C80D1
:1012400021E00DF12901761E44F4007488450CD28A
:10125000AAF1300010F0FF0088F8000002D10B99CD
:10126000884509D908F1010806E0E00501D52448C0
:1012700001E042F20F708146B9696D1C0E988847F3
:1012800082460F980560002E04DD504603F0C4F935
:101290000028D6D1F9690E988847FF208BF8000006
:1012A00088F800000020069007904B466A4608A97F
:1012B00006A8FFF78BFEA00502D46FF001002AE715
:1012C00014F0240F0AD0E00714D1DDE906123868C3
:1012D000031D3B600068C0E900120BE0DDE9060178
:1012E000FFF786FA0146E00704D13868021D3A602C
:1012F0000068016028460EE7000024400000F03F2F
:10130000F1D8FFFF0EB540F2334202920022CDE940
:1013100000221346FFF7F4FB03B000BD70B58C1834
:1013200010F8015B15F0070301D110F8013B2A11F9
:1013300006D110F8012B03E010F8016B01F8016BE6
:101340005B1EF9D12B0705D40023521E0DD401F8E2
:10135000013BFAE710F8013BCB1A921C03E013F8AB
:10136000015B01F8015B521EF9D5A142D8D30020E0
:1013700070BD000070B500252C461C4800F042FCF2
:1013800064211A4800F0A0FB18B9184800F0DCFAF4
:101390000544641CE4B20A2CEFD30A20B5FBF0F03C
:1013A000FFF7BAF94FF06632114BFFF71BF96FF0F8
:1013B0000B02FFF789F90322FFF786F9FFF718FA06
:1013C000FFF703FA4FF033320A4BFFF705F96FF0DE
:1013D0000202FFF779F90022074BFFF703F9FFF745
:1013E00007FAFFF7A6F90549C88070BD74260020EA
:1013F00066660A40333330400000594060260020C2
:1014000070B5044600688168C943C90717D181686F
:1014100021F00101816000F0B3FF05460AE000BF42
:1014200000F0AEFF401B022804D920688068C0434A
:10143000C00706D020688068C043C007F0D00020F5
:1014400070BDA06A40F01000A062E06A40F00100A8
:10145000E062012070BD0000F8B500260446009649
:1014600000688168C943C9072DD0816841F0010136
:101470008160164816490068B0FBF1F000E0401E9C
:1014800000900028FBD100F07BFF054616E000BF6E
:1014900000F076FF401B022810D920688068C04306
:1014A000C0070BD0A06A40F01000A062E06A40F0D4
:1014B0000100E06284F824600120F8BD20688068A3
:1014C000C043C007E4D10020F8BD0000D8010020CF
:1014D00040420F00FEE7000010B5084C4AF602201B
:1014E0000421208006480088608006480088A0808B
:1014F000204603F058F9208110BD0000602600202E
:10150000280000202C00002010B5164C4AF60120BF
:1015100020801548B0F880106180B0F87C10A18060
:10152000B0F87810E180818A2181018B6181818B03
:10153000A181008CE0810D4810F8341F218230F821
:101540000C1C6182017FA1820949008AE082D1E9F5
:101550001001FFF721F920830D21204603F023F924
:10156000608310BD4426002078030020F001002095
:10157000D8020020014800F061BC0000A82900202A
:10158000014800F05BBC000064290020014800F025
:1015900055BC000098280020014800F04FBC000016
:1015A00054280020014800F049BC0000DC2800203D
:1015B000014800F043BC000020290020F0B50027BE
:1015C000244C1125244E01290ED0052930D1017952
:1015D000C078324603F02CF9B17904F1F8003029D3
:1015E00027D0312929D025E00179C0781A4A03F0A3
:1015F0001FF91848B179E830302902D0312904D0D8
:1016000000E0F1790546477105E0F1793129F9D11A
:101610002946054641710F4B09335A1C062102F138
:10162000DE0000BF03F0CCF8A07AA871607AE87100
:10163000F0BDF1790546477105E0F1793129F9D11D
:10164000294605464171034B09335A1C062102F114
:10165000EE00E7E7080000203222002010B5154A0E
:101660000129A2F11C0413D0052910D14179117070
:1016700081795170C17891700079D070104603F073
:10168000EDF820694FF4AA6190FBF1F0606210BDA3
:101690004179117081795170C17891700079D07061
:1016A000044803F0DBF82069842190FBF1F020620C
:1016B00010BD000024000020F0B5002601271C4CBE
:1016C000012915D0052929D104F58075C178297122
:1016D0000079687104F109035A1C0621284603F0B9
:1016E0006FF8A07AA871607AE8712879D8B918E003
:1016F0000F4DC178F035A5F1E703297100796871C4
:101700005A1C0621284603F05BF8A07AA871607A7B
:10171000E871287908B9687908B16770F0BD66701A
:10172000F0BD687908B1A770F0BDA670F0BD0000EB
:10173000080000207047012000F00CBD022000F0DE
:1017400009BD10B54FF4807000F004FDBDE81040F5
:101750004FF4007000F0FEBC72B6FEE781782229DB
:1017600005D1C078222802D1014901208870704734
:1017700092010020F8B500250446009590F8240059
:1017800001280BD0012084F824002046FFF738FE02
:101790002046FFF761FE060002D050E00220F8BDAF
:1017A000A06A20F4885040F00200A062022000F0FD
:1017B00085FE25490968B1FBF0F0400000E0401EBD
:1017C00000900028FBD12068816841F00801816009
:1017D00000F0D6FD074608E000F0D2FDC01B0A2845
:1017E00003D920688068000715D420688068000746
:1017F000F2D42068816841F00401816000F0C0FDEE
:10180000074612E000F0BCFDC01B0A280DD9206875
:101810008068400709D5A06A20F0020040F010005F
:10182000A06284F824500120F8BD20688068400739
:10183000E8D4A06A20F0020040F00100A06284F821
:1018400024503046F8BD0000D8010020F8B500242F
:10185000009490F824202546012A12D0012280F815
:1018600024204A681F23072A0DD20668776B521E70
:1018700002EB820293409F430B6893401F437763C0
:1018800019E00220F8BD06680D2A0AD2376BD21F74
:1018900002EB820293409F430B6893401F433763E0
:1018A00009E0F76A0D3A02EB820293409F430B680E
:1018B00093401F43F7620A68072306680A2A0AD37F
:1018C000F7680A3A02EB420293409F438B689340C9
:1018D0001F43F76008E0376902EB420293409F43E1
:1018E0008B6893401F4337610A68102A01D0112A80
:1018F00020D1124B02689A4217D193681B0219D467
:10190000936843F4000393600968102912D10C49CD
:101910000C4A0968B1FBF2F101EB8101490000E0DA
:10192000491E00910029FBD104E0816A41F02001A9
:101930008162012480F824502046F8BD0024014033
:10194000D801002040420F000068C06C70470000C2
:101950002DE9F04104004FF000057FD0A06A002679
:1019600028B9E66284F82460204600F081F8204619
:10197000FFF746FDA16AC90600D420B1A06A40F075
:101980001000A0626AE0A16A21F4885141F00201CE
:10199000A162334923688B42E16904D1B1F5402F3C
:1019A00001D14FF40021277B4FF4807C41EA4702AC
:1019B00061680A43A168614508D0012906D0002169
:1019C00094F814E0BEF1010F02D00AE06146F7E797
:1019D000C7B1A76A47F02007A762E76A47F0010787
:1019E000E7625F6827F469470F435F60236899687F
:1019F0001C4F394011439960A16861450BD0012902
:101A000009D00CE0DFF860E0A7690EEB47370F4321
:101A100047F40061E5E7218A0D05A5F580152168E9
:101A2000CB6A23F470032B43CB62216889680F4B88
:101A30001940914208D1E662A16A21F0020141F009
:101A40000101A162BDE8F081A06A20F0020040F02F
:101A50001000A062E06A40F00100E0620120F1E7BE
:101A6000003C0140FDF7E1FF00E0FFFFFE0E1FFF1D
:101A700000B585B0002100910191029103910068A9
:101A80000E49884218D10E48816941F40071816184
:101A9000816901F400710491816941F01001816153
:101AA0008069694600F01000049002200090032035
:101AB0000190044800F05AFB05B000BD002401402D
:101AC00000100240001001402DE9F84300270D46A8
:101AD0000446009700F054FC804620688168C905E0
:101AE00008D5A06A40F02000A06284F8247001208C
:101AF000BDE8F8834168C90503D4C06A10F4700FCB
:101B00002AD0022000F0DAFC3B490968B1FBF0F66C
:101B10002068036939490B424FEA61014FEAA1127B
:101B20001FD1C3684FEA611C13EA0C0F19D1036976
:101B30000B4225D1C068104222D1142023E0681C3A
:101B40000AD02DB100F01CFCA0EB0800A84203D97C
:101B500020680068800725D5206800688007EED5DA
:101B60002DE003690B4202D1C168114206D002691F
:101B700023490A4206D1C068084203D1542002E03A
:101B8000292000E0FC204643009816E0681C11D094
:101B90002DB100F0F5FBA0EB0800A8420AD900988F
:101BA000B04207D2A06A40F00400A06284F824701A
:101BB00003209DE70098401C0090B042E6D32168C6
:101BC0006FF012000860A06A40F40070A062206804
:101BD0008068C0F3424007280CD1207B50B9A06A2E
:101BE00020F48070A062A06AC00403D4A06A40F010
:101BF0000100A06200207BE7D80100202449922444
:101C00004992240070B5044690F8240001280DD0B4
:101C1000012084F824002046FFF71EFC02004FF04C
:101C2000000005D084F82400104670BD022070BD6D
:101C3000A16A40F20123994341F48071A1621F4DD2
:101C400023681F49AB4218D10E6816F4702F14D0C8
:101C5000A66A46F48016A6620E68760505D5A66AC1
:101C600026F4005646F48056A662A66AF6040AD503
:101C7000E66A26F00606E66206E0A66A26F4801604
:101C8000A6625E68E9E7E06284F824006FF0020073
:101C9000186020688368C3F34243072B05D1A8422C
:101CA00008D1096811F4702F04D0816841F48011C3
:101CB0008160B9E7816841F4A001F9E7002801409B
:101CC0000424014010B590F821100022022905D00B
:101CD0000421816380F82020012010BD01680B6879
:101CE00023F00E030B6001680B6823F001030B6007
:101CF00090F84030C46B012101FA03F3636080F86F
:101D0000211080F82020104610BD00002DE9F05F62
:101D100090F821100024022903D0042181630124BA
:101D200085E001680A6822F00E020A6001680A680C
:101D300022F001020A603F4E3E4FB215DFF8F4C0B8
:101D4000DFF8F090DFF8ECA0DFF8E8B0DFF8E4E0CF
:101D50000168783F13011502ACF1640CA9F1500938
:101D6000AAF13C0AABF1280BAEF1140E4FF4801827
:101D7000B14227D9B9420ED0614512D049451DD094
:101D8000514518D0594518D0714501D1424615E04A
:101D9000294EB14201D1012210E0274E1436B14242
:101DA00001D110220AE0244E2836B14206D0224A40
:101DB0003C32914201D11A4600E02A461E49091FD1
:101DC0000A602BE0B94213D0614517D0494522D0B3
:101DD00051451DD059451DD0714501D142461AE0EB
:101DE000B14202D14FF0807215E0134EB14201D1E1
:101DF000012210E0104E1436B14201D110220AE047
:101E00000D4E2836B14206D00B4A3C32914201D1E8
:101E10001A4600E02A46074980394A60012180F8C5
:101E20002110002180F82010416B01B18847204625
:101E3000BDE8F09F80000240080402402DE9F05FF9
:101E4000C16B0A6801680B68046C4FF0040808FA5B
:101E500004F8844D844E854FDFF814C2DFF81492E5
:101E6000DFF814A2DFF814B2DFF814E218EA020F68
:101E700065D05FEA437862D50A68920603D40A689F
:101E800022F004020A60DFF8F0814FF480620168FA
:101E900008F1140813011402414524D9A9420DD0B8
:101EA000B1420FD0B9421AD0614515D0494515D07D
:101EB000514501D1120312E0594501D104220EE02F
:101EC000714501D140220AE06D4D1435A94206D07A
:101ED0006B4A2832914201D11A4600E022466749F6
:101EE000091F0A6029E0A94213D0B14215D0B942B6
:101EF00020D061451BD049451BD0514502D14FF43C
:101F0000800217E0414502D14FF0806212E059454E
:101F100001D104220EE0714501D140220AE0584D62
:101F20001435A94206D0564A2832914201D11A46A8
:101F300000E022464B4908394A60C16A71E04FF01F
:101F4000020808FA04F818EA020F70D05FEA8378F2
:101F50006DD50A68920606D40A6822F00A020A6061
:101F6000012180F82110DFF810814FF40072016820
:101F700008F1140813011402414524D9A9420DD0D7
:101F8000B1420FD0B9421AD0614515D0494515D09C
:101F9000514501D1120312E0594501D102220EE050
:101FA000714501D120220AE0354D1435A94206D0F1
:101FB000334A2832914201D11A4600E022462F4985
:101FC000091F0A6029E0A94213D0B14215D0B942D5
:101FD00020D061451BD049451BD0514502D14FF45B
:101FE000001217E0414502D14FF0007212E059454E
:101FF00001D102220EE0714501D120220AE0204DDC
:102000001435A94206D01E4A2832914201D11A46FF
:1020100000E02246134908394A60002180F8201068
:10202000816A00291CD0BDE8F05F0847FFE708255A
:10203000A540154214D01A0712D50A6822F00E02E4
:102040000A6090F84020C36B012101FA02F25A6045
:10205000816380F82110002180F82010016BE0E7F7
:10206000BDE8F09F080002401C0002403000024022
:1020700044000240580002406C0002400804024044
:102080001C04024030B560B11A4B026814219A4218
:1020900009D2194B1344B3FBF1F1890001641749CC
:1020A0000AE0012030BD134B5B421344B3FBF1F156
:1020B000890001640F490839C163022180F82110A9
:1020C000136843F6F0718B43F0E901142143D0E922
:1020D00002452C4321430469214344692143846917
:1020E00021431943116000214163012242770177A6
:1020F000084630BD08040240F8FFFDBF0000024062
:1021000070B5044600F03CF90546601C02D0044856
:102110000078044400F034F9401BA042FAD370BDAB
:10212000CC01002001220A49022809D0012809D047
:10213000B0F5007F08D0B0F5807F00D1CA7270473B
:102140000A7270478A727047022048727047000016
:1021500092010020044910B50A68024202D00860CA
:10216000FFF7E0FF10BD0000140401402DE9F84F17
:10217000DFF8C8910024A9F1040B23460F2709F1C9
:10218000040AABF1040ED1E00125A54006EA0502E0
:10219000AA4276D1DFF8A8C14E68A6EB0C086645C6
:1021A0002BD00DDC032E34D005DC36B3012E19D034
:1021B000022E2FD11BE0112E16D0122E2AD119E09B
:1021C000B8F5881F19D006DCB8F5803F15D0B8F5F2
:1021D000801F1FD111E0B8F5001F0ED0B8F5041F05
:1021E00018D10AE0CB6815E0CB681B1D12E0CB6864
:1021F00008330FE0CB680C330CE08B682BB1012B5C
:102200004FF0080303D0456104E0042302E00561B8
:1022100000E00023FF2A01D8064601E000F1040691
:102220004FEA840501D9A5F12005D6F8008007FA08
:1022300005FC28EA0C0803FA05F548EA0508C6F883
:1022400000804D68ED0070D53E4DAE6946F0010648
:10225000AE61AD6924F0030605F0010500953A4D25
:1022600006EB050CDCF80850A607360F07FA06F84F
:1022700025EA0805DFF8D480404503D14FF0000877
:1022800025E052E0DFF8C880404502D14FF0010858
:102290001DE0DFF8C080404502D14FF0020816E093
:1022A000DFF8B480404502D14FF003080FE0DFF8BB
:1022B000AC80404502D14FF0040808E0DFF8A08070
:1022C000404502D14FF0050801E04FF0060808FA3A
:1022D00006F848EA0508CCF808804D68D9F800608F
:1022E000ED024D4601D5164300E096432E604D6841
:1022F000DAF80060AD02554601D5164300E096437A
:102300002E604D68DBF80060AD035D4601D51643D5
:1023100000E096432E604D68DEF80060ED037546E0
:1023200001D5164300E096432E60641C0A681646E9
:10233000E2407FF429AFBDE8F88F000008040140B7
:102340000000111000100240000001400008014090
:10235000000C014000100140001401400018014031
:10236000001C0140C26821EA02030A4043EA02411C
:10237000016170470AB1016170470904FBE7000081
:102380000148806870470000CC0100200248816845
:102390000278114481607047CC010020074810B5D5
:1023A000016841F010010160032000F075F80F2072
:1023B00000F006F800F024F8002010BD00200240D4
:1023C00070B50D4D04464FF47A712878B1FBF0F0EA
:1023D0000A490968B1FBF0F000F0B2FB48B9102CD3
:1023E00007D200222146501E00F036F800206C6013
:1023F00070BD012070BD0000CC010020D80100207C
:102400000C4808B5816941F001018161816901F0E1
:1024100001010091C16941F08051C161C06900F0C2
:10242000805000900448416821F0E06141F0007163
:10243000416008BD0010024000000140002809DB97
:1024400000F01F02012191404009800000F1E020CE
:10245000C0F8001170470000F0B40E4B1B680C462A
:10246000C3F30223C3F10705042D00D90425191D68
:10247000072901D2002300E0DB1E012606FA05F140
:10248000491E214099409E40761E16403143F0BCC3
:1024900002F03CB80CED00E0064900F007020868C5
:1024A0004FF6FF03184040EA0220034A1043086039
:1024B000704700000CED00E00000FA0510B5014681
:1024C0000020274C04292FD00BDC012930D0022911
:1024D00029D100F06BF96168C1F38131491C4900D1
:1024E0001FE0082920D010291DD161682268D2017F
:1024F00019D51C48C1F38342C903805C0AD56168C1
:10250000184AC1F34041921E515C174AB2FBF1F1E7
:10251000484301E0154948436168490203D440003B
:102520000321B0FBF1F010BDBDE8104000F04EB942
:10253000226AC2F30121012903D1920701D5C80300
:1025400010BD022905D1626A920702D549F64040C2
:1025500010BD0329FCD121688903F9D5044810BDB9
:102560000010024028570008001BB70000093D007A
:10257000366E01002DE9F84305460078354CC0075A
:1025800054D0E0690026C00008D4E06940F08050D3
:10259000E061E069012600F0805000902E4801685B
:1025A000C90512D40168804641F480710160FFF7CB
:1025B000E7FE074605E000BFFFF7E2FEC01B642808
:1025C00023D8D8F80000C005F6D5206A10F4407072
:1025D00021D0A98801F4407181421CD0206A1F4992
:1025E000012220F440700A6000220A602062C007C5
:1025F00011D0FFF7C5FE074641F2883808E000BF5A
:10260000FFF7BEFEC11B414502D90320BDE8F88398
:10261000206A8007F4D5206A696820F44070084376
:1026200020621EB1E06920F08050E06128788007C8
:1026300005D56068A96820F44040084360602878A8
:10264000C00605D56068696920F4800008436060B1
:102650000020DBE7001002400070004040044242CE
:102660002DE9F0470F46050061D0434E306800F079
:102670000700B84209D2306820F0070038433060C4
:10268000306800F00700B84251D128683B4C810700
:1026900012D5400703D5606840F4E0606060287898
:1026A000000703D5606840F4605060606068A96806
:1026B00020F0F000084360602878C00728D06868E0
:1026C000012810D02168022810D0890700292EDAAD
:1026D000616821F0030101436160FFF751FE80460C
:1026E00041F288390DE021688903EFE78901EDE7C0
:1026F000FFF746FEA0EB0801494502D90320BDE8DB
:10270000F0876068696800F00C00B0EB810FEFD1D2
:10271000306800F00700B8420BD9306820F007009D
:1027200038433060306800F00700B84201D0012023
:10273000E5E72878400705D56068E96820F4E0609F
:10274000084360602878000706D56068296920F48E
:10275000605040EAC100606000F038F86168084AE3
:10276000C1F30311515CC84006490860064800687F
:10277000FFF726FE0020C2E70020024000100240C2
:1027800038570008D8010020D0010020044805492E
:1027900000684968044AC1F30221515CC84070478F
:1027A000D80100200010024048570008044805499D
:1027B00000684968044AC1F3C221515CC8407047AF
:1027C000D801002000100240485700080F4A516805
:1027D00001F00C00042803D0082803D00C487047EF
:1027E0000C4870470C48C1F38343C903C05C0AD549
:1027F0005168094AC1F34041921E515C054A504359
:10280000B0FBF1F0704705494843704700100240A3
:1028100000127A00001BB7001657000800093D009F
:102820002DE9F84F040070D02078C04DC00749D082
:102830006868C0F38100012807D06868C0F3810090
:10284000022809D16868C00306D52868800339D5F5
:1028500060680028E7D035E06068B0F5803F0BD0B5
:1028600010B1B0F5A02F11D0286820F48030286076
:10287000286820F4802002E0286840F48030286036
:10288000606890B1FFF77CFD06460AE0286840F4D6
:1028900080202860F0E700BFFFF772FD801B6428EE
:1028A00073D828688003F7D50CE0FFF769FD06466A
:1028B00005E000BFFFF764FD801B6428F0D828689E
:1028C0008003F7D420789A4E80074FF001094FF02B
:1028D000000839D5686810F00C0F07D06868C0F39D
:1028E0008100022809D16868C00306D428688007DF
:1028F00014D52069012808D110E02069B0B1C6F8CC
:102900000090FFF73DFD074605E00AE1FFF738FDBF
:10291000C01B0228C4D828688007F7D528686169D9
:1029200020F0F80040EAC10028600DE0C6F8008001
:10293000FFF726FD074604E0FFF722FDC01B022833
:1029400023D828688007F7D4207800072CD5794849
:10295000A169D9B1C0F80090FFF712FD074604E065
:10296000FFF70EFDC01B02280FD8686A8007F7D555
:1029700071484FF4FA510068B0FBF1F0009000BFCD
:102980000098411E0091FAD20EE080E0C0F800806D
:10299000FFF7F6FC074604E0FFF7F2FCC01B022835
:1029A00075D8686A8007F7D42078400760D5E86951
:1029B0000027C00008D4E86940F08050E861E86969
:1029C000012700F0805000905C480168C90513D4CD
:1029D0000168834641F480710160FFF7D1FC8246B3
:1029E00006E000BFFFF7CCFCA0EB0A0064284ED83D
:1029F000DBF80000C005F5D5E06801280AD008B171
:102A0000052813D0286A20F001002862286A20F0E7
:102A1000040002E0286A40F001002862E06841F208
:102A2000883B98B1FFF7ACFC82460BE0286A40F087
:102A300004002862EEE700BFFFF7A2FCA0EB0A014A
:102A400059455AD8286A8007F6D50CE0FFF798FC5C
:102A5000824605E0FFF794FCA0EB0A0159454CD8EB
:102A6000286A8007F6D41FB1E86920F08050E86139
:102A7000E06988B36968C1F38101022944D0022862
:102A8000C6F8608004D0FFF77BFC044638E034E0F1
:102A9000FFF776FC074604E0FFF772FCC01B022834
:102AA0002BD828688001F7D4206AB0F5803F05D183
:102AB0006868A16820F4003008436860D4E9080120
:102AC0000843696821F4741108436860C6F860908F
:102AD000FFF756FC044606E025E000BFFFF750FC78
:102AE000001B022809D828688001F7D51BE000BF29
:102AF000FFF746FC001B022802D90320BDE8F88F2F
:102B000028688001F4D40EE00128F7D06868226AB2
:102B100000F48031914204D1616A00F4701088425F
:102B200001D00120EAE70020E8E7000000100240A1
:102B30000000424280044242D80100200070004060
:102B400010B5401EB0F1807F01D3012010BD4FF0C1
:102B5000E02460610F21601701F0D8FC0020A06123
:102B600007202061002010BD7047704770B590F8B5
:102B70003C20012A2CD0012480F83C40022280F81D
:102B80003D2003685A689D6822F070060A68324347
:102B90005A60104B02689A420ED00F4B9A420BD0EB
:102BA000B2F1804F08D00D4B9A4205D00C4B9A429F
:102BB00002D00C4B9A4204D1496825F08003194396
:102BC000916080F83D40002180F83C10084670BDBF
:102BD000022070BD002C0140003401400004004080
:102BE00000080040000C004010B5040003D094F829
:102BF0003D0010B107E0012010BD002084F83C002A
:102C0000204600F01FF8022084F83D00211D2068B6
:102C100001F080F9012084F8460084F83E0084F831
:102C20003F0084F8400084F8410084F8420084F8B2
:102C3000430084F8440084F8450084F83D000020F7
:102C400010BD000008B500680B49884212D10B483E
:102C5000C16941F01001C161C069002200F010009B
:102C6000009011463620FFF7F7FBBDE808403620FC
:102C7000FFF7E4BB08BD0000001000400010024058
:102C8000704770B50446006801694FF00005C943FC
:102C9000890715D4C168C943890711D4E91E0161A8
:102CA00001202077206880698007204602D0FFF746
:102CB000E7FF04E000F098F8204600F096F825774A
:102CC00020680169C943490717D4C168C943490746
:102CD00013D46FF00401016102202077206880691D
:102CE00010F4407F204602D0FFF7CAFF04E000F056
:102CF0007BF8204600F079F8257720680169C94300
:102D0000090716D4C168C943090712D46FF0080136
:102D10000161042020772068C0698007204602D026
:102D2000FFF7AEFF04E000F05FF8204600F05DF82A
:102D3000257720680169C943C90617D4C168C9430A
:102D4000C90613D46FF010010161082020772068B4
:102D5000C06910F4407F204602D0FFF791FF04E0E5
:102D600000F042F8204600F040F82577206801691D
:102D7000C943C90708D1C168C943C90704D1891E1D
:102D80000161204600F032F820680169C943090654
:102D900009D4C168C943090605D46FF080010161F7
:102DA0002046FFF7E1FE20680169C943490609D4BE
:102DB000C168C943490605D46FF04001016120464E
:102DC00000F015F820680169C94389060BD4C16871
:102DD000C943890607D46FF0200101612046BDE890
:102DE0007040FFF7C2BE70BD7047704770477047B4
:102DF00018B5034690F84200202801D0022018BDE3
:102E000061B15AB10120186300205863184601F0DF
:102E100061FA0028F3D1196B012901D0012018BDF6
:102E200019680A684968009119680C3151E8002F47
:102E300042F0100241E80024002CF5D118BD00003A
:102E400010B500680B4A904213D10B4801F090FE78
:102E50004FF4806421460848FDF7BDF90748007823
:102E6000002806D12246BDE8104003490448FFF778
:102E7000BFBF10BD0050004044220020920100203E
:102E80003427002070470000F8B501680446086840
:102E9000CA684B6910F00F0F4FF0000559D003F0CE
:102EA000010602F49077374365D0C10705D0D105FC
:102EB00003D5616C41F001016164410705D5D90773
:102EC00003D0616C41F002016164810705D5D90727
:102ED00003D0616C41F004016164010707D502F081
:102EE0002001314303D0616C41F008016164616CE1
:102EF00000293AD0800604D5900602D5204601F07C
:102F00002CF920684069616CC0F38010090700D477
:102F100060B3204601F0FAF820684069400621D5E8
:102F20002068143050E8001F21F0400140E80012F2
:102F3000002AF5D1E06BA8B16D494163E06BFEF763
:102F4000E5FE002811D0E06B416B01B0BDE8F04018
:102F5000084783060FD593060DD52046BDE8F840F7
:102F600001F0FBB82046FFF78DFFF8BD2046FFF7C4
:102F700089FF6564F8BD266B2023012E7CD1C6062F
:102F80007AD5D60678D508684868009048694FF029
:102F90000206400640D5E16B086840680004000C5A
:102FA000E8D0A28D8242E5D9E085886920282DD01D
:102FB00020680C3050E8001F21F4807140E80012B6
:102FC000002AF5D12068143050E8001F21F00101DB
:102FD00040E80012002AF5D12068143050E8001FA4
:102FE00021F0400140E80012002AF5D184F8423077
:102FF000256320680C3050E8001F21F0100140E8E4
:103000000012002AF5D1E06BFEF75CFE6663A08D2E
:10301000E18D401A81B22AE0A08DE18D401A81B283
:10302000E08D0028A6D00029A4D022680C3252E8F6
:10303000000F20F4907042E80007002FF5D12068BF
:10304000143050E8002F22F0010240E80027002F42
:10305000F5D184F84230256320680C3050E8002F09
:1030600022F0100240E80023002BF5D166632046D1
:10307000FFF7E6FEF8BDFFE705062BD5150629D5B7
:1030800094F841002128F5D1A068B0F5805F01D106
:103090002069B0B1206A411C216221680078486033
:1030A000E08C401E0004000CE084E3D12068C1687D
:1030B00021F08001C1602068C16841F04001C16019
:1030C000D8E7206A0088C0F308004860206A801CA6
:1030D0002062E5E74006CDD55006CBD5CA6820462C
:1030E00022F04002CA6084F8413000F078FAC1E76B
:1030F000FD40000870B5040004D094F8410000259C
:1031000010B106E0012070BD84F84050204600F068
:1031100023F8242084F841002068C16821F400517C
:10312000C160204601F07AF82068016921F49041DD
:1031300001612068416921F02A0141612068C1686C
:1031400041F40051C1606564202084F8410084F896
:1031500042006563002070BD2DE9F04F85B000246A
:1031600000940194029403940546CC4ED0F800C01C
:10317000CB4802210322CB4B4FF4806AB44526D1C1
:10318000C56945F40025C561C56905F400250495A8
:10319000856945F0100585618069CDE900A100F0E1
:1031A0001000CDE9032069461D461846FEF7DEFFF4
:1031B000F014CDE90004694628460294FEF7D6FFD4
:1031C000002211463420FFF747F9342033E0B64E91
:1031D000DFF8D8B24FF00409B44531D1C56945F4E0
:1031E0008015C561C56905F480150495856945F0AC
:1031F00010058561856905F010050495856945F020
:10320000200585618069039200F020000490B014CD
:10321000CDE9000169461846FEF7A8FFCDE9009404
:10322000694658460294FEF7A1FF00221146352058
:10323000FFF712F93520FFF701F905B0BDE8F08F6F
:10324000DFF86C829B4B10278026C4455AD1D0F8FA
:1032500018C04CF4804CC0F818C0D0F818C00CF45A
:10326000804CCDF810C0D0F818C04CF0040CC0F859
:1032700018C08069039200F0040004905815CDE94D
:103280000001694698461846FEF770FFCDE900A494
:10329000694640460294FEF769FFDFF820828649BE
:1032A0004046B146C0E90014C0E90246C8F81040E3
:1032B000C8F81440C8F81840C8F81C40FEF7E2FEF1
:1032C00008B1FEF749FA7D4E7B48C5F83C8044368C
:1032D0001438C8F824503060C6E90174C6E9039474
:1032E0007461B4613046F461FEF7CCFE08B1FEF7BC
:1032F00033FAAE630022114625207562FFF7ACF861
:10330000252098E7DFF8B881C4455DD1D0F81CC00E
:103310004CF4003CC0F81CC0D0F81CC00CF4003CBD
:10332000CDF810C0D0F818C04CF0040CC0F818C08C
:103330008069CDE9009100F00400CDE903206946E1
:1033400098461846FEF712FF0820CDE900046946AA
:1033500040460294FEF70AFFDFF86081564908F103
:10336000880840461431C0E90014C0E90246C8F894
:103370001040C8F81440C8F81840B146C8F81C40BE
:10338000FEF780FE08B1FEF7E7F94C4E4A48C5F853
:103390003C80CC362830C8F824503060C6E901742F
:1033A000C6E903947461B4613046F461FEF76AFEC5
:1033B00008B1FEF7D1F9AE630022114626207562EE
:1033C000FFF74AF8262036E73E4B9C457FF435AFA1
:1033D000C36943F48023C361C36903F48023049366
:1033E000836943F0200383618069039200F0200029
:1033F00004904FF48070CDE9000169465846FEF70D
:10340000B5FE4FF40070CDE90004A1466946584668
:103410000294FEF7ABFE2C48416821F0300141F0E8
:10342000E06141F030014160DFF8A0802249404670
:103430002839C0E90014C0E90246C8F81040C8F8AD
:103440001440C8F81840C8F81C40FEF71BFE08B12D
:10345000FEF782F91D4C1848C5F83C8044343C38CE
:10346000C8F82450C4E90007C4E90296C4F81090D3
:10347000C4F81490C4F818902046C4F81C90FEF7C5
:1034800001FE08B1FEF768F9AC630022114627205F
:103490006562FEF7E1FF2720CDE60000004C00400A
:1034A0000010024000100140005000400014014094
:1034B0000038014000080140580002405428002014
:1034C0000044004000480040000001406429002002
:1034D00090F84230202B01D00220704721B11AB160
:1034E0000023036300F0F6BE0120704710B50068AA
:1034F0000F4988420ED10F4901F10C034879CA786F
:103500001A54401C487100F03DFF0A490122C91CB1
:10351000094808E00949884209D100F0AFFD054992
:1035200001220748091DBDE81040FFF7D1BF10BDBB
:1035300000380140920100207C2700200044004018
:10354000C42700202DE9F843044690F841001F46A7
:1035500016460D46202802D00220BDE8F8837DB132
:1035600076B100206064212084F84100FEF708FF56
:10357000A6848046E684A068B0F5805F02D003E0B0
:103580000120EAE7206910B12E4600250EE0002652
:103590000CE08021204600F0B8FEA0B9AEB116F8CC
:1035A000010B21684860E08C401EE084E08C4346BB
:1035B0004FF0000200970028EBD14FF04001204669
:1035C00000F0A3FE30B10320C7E735F8020BC0F3CB
:1035D0000800E6E7202084F841000020BDE770479E
:1035E000FEE700003EB500211148009101910F4A0D
:1035F0000291026081600173017501244FF4602221
:103600000461C2614160FEF7A3F908B1FEF7A4F8B6
:103610000B20CDE900040720029069460448FEF71C
:1036200015F9002801D0FEF797F83EBD00240140AF
:10363000742600201D4808B5416941F0010141612F
:103640004069002200F00100009011460C20FEF7B6
:1036500003FF0C20FEF7F2FE002211460D20FEF7BC
:10366000FBFE0D20FEF7EAFE002211460E20FEF7BB
:10367000F3FE0E20FEF7E2FE002211460F20FEF7B9
:10368000EBFE0F20FEF7DAFE002211461020FEF7B7
:10369000E3FE1020FEF7D2FE002211461120FEF7B5
:1036A000DBFEBDE808401120FEF7C8BE0010024056
:1036B0002DE9F04F85B000255348009501950295FE
:1036C0000395816941F010018161816901F0100168
:1036D0000491816941F004018161816901F0040173
:1036E0000491816941F040018161816901F04001EB
:1036F0000491816941F020018161816901F020011B
:103700000491816941F0080181618069DFF8FC80E2
:1037100000F008000490012240F601014046FEF747
:1037200029FE002241F202014046FEF723FEDFF8A7
:10373000E0B04FF4C057002239465846FEF71AFE53
:10374000DFF8D0900122D1024846FEF713FE002296
:103750004FF480514846FEF70DFEDFF8BCA0012271
:1037600008215046FEF706FE0124F81CCDE90004AE
:103770000226CDE9024669464046FEF7F7FC01AA5B
:103780004FF00308009782E8300169465846FEF77B
:10379000EDFCCDE90074CDE9024669464846FEF7E6
:1037A000E5FC08208DE8710069465046FEF7DEFC16
:1037B0001A4DF810CDE90005694602945046FEF70F
:1037C000D5FCCDF80080CDE9015469465846FEF796
:1037D000CDFC002211460620FEF73EFE0620FEF735
:1037E0002DFE002211460720FEF736FE0720FEF7C9
:1037F00025FE002211461720FEF72EFE1720FEF7A9
:103800001DFE05B0BDE8F08F001002400008014029
:103810000018014000140140000C0140000011108C
:103820001CB50024104800940E490194016042F236
:103830000F71C0E9011441F61F41C160802181610F
:10384000FFF7D2F908B1FDF787FF2020CDE900048A
:1038500069460548FFF78AF9002801D0FDF77CFF8B
:103860001CBD000000100040A42600200C4810B52C
:103870000A4901604FF4E1314160002181600C226E
:10388000C160C0E904128161C161FFF733FC002807
:1038900003D0BDE81040FDF75FBF10BD004C0040F5
:1038A000EC2600200C4810B50A4901604FF416516F
:1038B0004160002181600C22C160C0E90412816175
:1038C000C161FFF717FC002803D0BDE81040FDF7E9
:1038D00043BF10BD00500040342700200C4810B5F5
:1038E0000A4901604FF4E1314160002181600C22FE
:1038F000C160C0E904128161C161FFF7FBFB0028D0
:1039000003D0BDE81040FDF727BF10BD00380140CF
:103910007C2700200C4810B50A4901604FF4E131C2
:103920004160002181600C22C160C0E90412816104
:10393000C161FFF7DFFB002803D0BDE81040FDF7B1
:103940000BBF10BD00440040C42700200C4810B538
:103950000A4901604FF4E1314160002181600C228D
:10396000C160C0E904128161C161FFF7C3FB002897
:1039700003D0BDE81040FDF7EFBE10BD0048004089
:103980000C280020FEE7FEE7704700007FB5294DB8
:10399000002440F6F346E879012822D1E878297915
:1039A000884206D1EC702C7131462348FCF713FC99
:1039B00017E000EB800101EBC0001F490094019467
:1039C000029403940144EC710D226846FCF7DCFB81
:1039D0000D226946022000F0FBF900940194029444
:1039E0000394287A012824D16879A979884208D1DA
:1039F0006C71AC7104B03146BDE870400F48FCF703
:103A0000EABB00EB800101EBC0000C49009401947B
:103A10000294039401442C720D226846FCF7B4FB17
:103A20000D226946022000F0D3F90094019402941B
:103A300003947FBD080000204E0600203F150020A3
:103A400010B5807801280DD0052816D108220B4921
:103A500000F062F909490822B0390520BDE810409C
:103A600000F05AB9054908220839012000F054F93C
:103A700002490822B8390120F0E710BDE800002013
:103A80001CB50021019101AA009143189B78535461
:103A9000491CC9B20429F8D3104600F0DFFE1449CE
:103AA000086900EB401080004861694600F01EFF85
:103AB000104C9DF80000A4F58B7220729DF8010057
:103AC000E0719DF80200A0729DF8030060720B2166
:103AD000204600F084FEA4F58B700D220178E1727F
:103AE000407820732146012000F016F91CBD00002B
:103AF000080000202A0100201CB50021019101AA24
:103B0000009143189B785354491CC9B20429F8D337
:103B1000104600F0A3FE14494FF4AA62086950430E
:103B20008861694600F0E2FE104C9DF80000A4F2A6
:103B3000211220729DF80100E0719DF80200A07230
:103B40009DF8030060720B21204600F048FEA4F2AD
:103B500021100D220178E172407820732146052062
:103B600000F0DAF81CBD000008000020370100203A
:103B70001CB50021019101AA009143189B78535470
:103B8000491CC9B20429F8D3104600F067FE144955
:103B9000086900EB401080004861694600F0A6FE0D
:103BA000104C9DF80000A4F5987220729DF8010059
:103BB000E0719DF80200A0729DF8030060720B2175
:103BC000204600F00CFEA4F598700D220178E172F9
:103BD000407820732146012000F09EF81CBD0000B3
:103BE00008000020440100201CB50021019101AA19
:103BF000009143189B785354491CC9B20429F8D347
:103C0000104600F02BFE14494FF4AA620869504395
:103C10008861694600F06AFE104C9DF80000A4F22D
:103C20003B1220729DF80100E0719DF80200A07225
:103C30009DF8030060720B21204600F0D0FDA4F235
:103C40003B100D220178E172407820732146052057
:103C500000F062F81CBD00000800002051010020A7
:103C60002DE9F0472048214C0025017871B1A5715C
:103C70001F4E377877B1E571A2794FF0010840F611
:103C8000F3494FF4FF7A052A08D017E0A279521CB5
:103C9000A271EDE7E279521CE271EDE709B980F813
:103CA0000080A57149461348FCF795FA5146124821
:103CB000FCF791FA1148057011480570E079052864
:103CC0000FD10FB986F80080E57149460D48FCF721
:103CD00082FA51460C48FCF77EFA0C4805700C48F5
:103CE0000570BDE8F08700000F0000209201002061
:103CF000100000204E060020500400200B00002081
:103D00000C0000203F150020411300200D00002072
:103D10000E000020704700002DE9F0410E460025FE
:103D2000264C40F6F3414FF4FF7701281AD00528BE
:103D300016D1A079FF2837D200EB800101EBC0003B
:103D40001F4908443146FCF71FFA1E49A079B27892
:103D500001F8102001EB4001F2784A70401CA0717C
:103D6000BDE8F0812079FF2814D200EB800101EB3F
:103D7000C000154908443146FCF706FA134920797A
:103D8000B27801F8102001EB4001F2784A70401C33
:103D90002071E5E70C48FCF71EFA39460B48FCF7A2
:103DA0001AFAE5702571DBE70548FCF714FA394685
:103DB0000448FCF710FA6571A571D1E708000020EE
:103DC0003F150020411300204E0600205004002023
:103DD00070B514460D4601280BD002280CD00328DC
:103DE0002AD004282BD116486423BDE87040FFF781
:103DF000A9BB32231348F8E7134E0122114630467F
:103E0000FEF7B8FA012202213046FEF7B3FA0A2380
:103E1000224629460D48FFF795FB00220121304636
:103E2000FEF7A8FA002202213046FEF7A3FABDE809
:103E300070403220FEF764B964230548D5E770BDB1
:103E4000EC2600207C27002000080140C427002029
:103E50000C2800200D22FFF75FBF000010B50446BC
:103E60008078012803D10D220649FFF755FFA0787D
:103E7000052806D103490D22BDE810400D31FFF79A
:103E80004BBF10BD10010020FEF780BA30B595B0D1
:103E900028216846FCF79FF914210AA8FCF79BF932
:103EA00018210FA8FCF797F901210804CDE90010AB
:103EB0000025029502240491CDE9074000010990F4
:103EC0006846FEF7ADFC08B172B6FEE70AA90F20FE
:103ED00081E831004FF48060CDE90D0502210AA888
:103EE000FEF7BEFB08B172B6FEE74FF4004011903A
:103EF0000F940FA8FEF73EFB002801D072B6FEE734
:103F000015B030BD704700000148FEF7BABE000092
:103F1000A4260020F0B502681C4B1D4D1D4E1E4FFF
:103F20001E4C4FF0804C984209D0A04207D060450B
:103F300005D0A84203D0B04201D0B84204D122F04B
:103F4000700E4A6842EA0E02984209D0A04207D099
:103F5000604505D0A84203D0B04201D0B84203D199
:103F600022F44075CA682A434D6922F080022A4330
:103F700002608A68C2620A688262984201D0A042E6
:103F800001D10969016301214161F0BD002C0140AB
:103F90000004004000080040000C004000340140D4
:103FA00030B5084609780125314C01290ED0052984
:103FB00020D1214643782F4A4979062B02EB410252
:103FC00033D0102B31D0032B39D036E0284B427838
:103FD0002949DB78062A01EB430104D0102A02D0DC
:103FE000032A0AD007E04978C078814203D1E571FD
:103FF0005B1CE37030BDE57130BD4978042908D001
:10400000062902D0A3290BD107E00121FDF7D6FA3A
:1040100006E00121FDF722FB02E00121FDF74CFB48
:10402000E571E078401CE07030BD5278C078824283
:1040300003D12572491C617130BD257230BD5178A4
:10404000042908D0062902D0A3290BD107E00521B5
:10405000FDF7B4FA06E00521FDF700FB02E00521BB
:10406000FDF72AFB25726079401C607130BD0000AD
:1040700008000020411300205004002030B51648ED
:10408000174C164D017820782954401CC0B220707E
:1040900003280CD16978032904D0062919D01029E6
:1040A00017D004E0A97802290FD004290FD0E17AB3
:1040B000884209D10949FFF773FF00202860686032
:1040C0002872FF21E172207030BD072002E0092034
:1040D00000E00820E07230BD960100206A26002032
:1040E000080000200148FEF7CFBE0000EC260020AB
:1040F0000148FEF7C9BE00003427002010B5406A11
:104100000021C185C184FEF7BDFE10BD01680C31E0
:1041100051E8002F22F4907241E80023002BF5D1E2
:104120000168143151E8002F22F0010241E8002318
:10413000002BF5D1016B012909D101680C3151E83F
:10414000002F22F0100241E80023002BF5D120219E
:1041500080F8421000210163704708B590F84210C2
:10416000222901D0022008BD82684FF480539A4270
:1041700001D1016921B1816A9A421BD04AB10AE09A
:104180000268816A5268C2F308020A80816A891C47
:1041900008E0026972B10268526802F07F020A7098
:1041A000816A491C8162C18D491E0904090CC185BF
:1041B00003D01BE002685268F1E70168CA6822F088
:1041C0002002CA600168CA6822F48072CA6001686D
:1041D0004A6922F001024A61202180F84210002140
:1041E0004163026B012A03D0FFF780F9002008BD6C
:1041F000016301680C3151E8002F22F0100241E800
:104200000023002BF5D101680A68D20602D50A689E
:1042100049680091818DFEF713FEE7E770B504460B
:1042200000680169E26821F440511143016121698C
:10423000A0680843616908432168CA6841F20C63B9
:104240009A430243CA6020684169A26921F440711F
:10425000114341611E492068884202D1FEF7A6FA47
:1042600001E0FEF793FA00EBC00101EB0012606879
:1042700064218000B2FBF0F3B3FBF1F36FF018069A
:104280007343B2FBF0F5B2FBF0F605EB8305322386
:1042900003EB0515B5FBF1F5B6FBF1F605F0F005FE
:1042A00005EB0615B2FBF0F6B2FBF0F0B0FBF1F057
:1042B0006FF01802504306EB800003EB0010B0FBD8
:1042C000F1F0216800F00F002844886070BD000004
:1042D0000038014081628285C2850021416422212B
:1042E00080F84210016921B10168CA6842F4807205
:1042F000CA6001684A6942F001024A610068C16807
:1043000041F02001C160002070472DE9F04198463E
:1043100017460E460446069D27E0681C25D02DB1A1
:10432000FEF72EF8A0EB0800A8421ED920680C303A
:1043300050E8001F21F4D07140E80012002AF5D1A6
:104340002068143050E8001F21F0010140E80012FD
:10435000002AF5D1202084F8410084F84200002092
:1043600084F840000320BDE8F0812068006836EA48
:10437000000004D00020B842CFD00020F3E7012095
:10438000F9E700002DE9FC410024474E8DF800407C
:104390008DF804403078A6F10C05BB286FD17078F9
:1043A000BB287DD06879082878D16B4601AA062100
:1043B000304600F005FAB0799DF8041088426AD1C1
:1043C000F0799DF80010884265D17078374E384FEB
:1043D0000E285ED2DFE800F05D070B17273340445C
:1043E000484C4F4F55593048FDF7B8F953E02F4A24
:1043F0000B21304800F0F3F92E483178C172717802
:10440000017301460AE0294A0B212B4800F0E7F925
:1044100029483178C1727178017301465FF0050057
:10442000FFF718FD37E0224A0B21244800F0D7F9A6
:1044300022483978C1727978017301460AE01C4A32
:104440000B211F4800F0CBF91D483978C1727978EB
:10445000017301460120E3E71348FFF74DFB1AE023
:104460001148FFF70DFB16E00F48FFF7F7FC12E0CD
:10447000012028700FE00C48FFF7E2FA0BE00FE094
:104480000CE00948FFF774FB05E00748FFF7ACFBB9
:1044900001E0EC602C61EC602C616C71BDE8FC818A
:1044A0006C71EC602C61F9E79E0100201600002081
:1044B0001400002078010020850100205E0100200A
:1044C0006B0100200148FEF7DFBC00007C270020C4
:1044D0000148FEF7D9BC0000C42700200148FEF7C0
:1044E000D3BC00000C280020FEE700000FB4054BF1
:1044F00010B503A9044A029800F096F810BC5DF8C4
:1045000014FB000019480008C80100200907090E23
:10451000002804DB00F1E02080F80014704700F070
:104520000F0000F1E02080F8141D7047004870472C
:10453000E801002030B528B1144C031F0020216889
:104540000A4605E0084630BD9A4203D81046526834
:10455000002AF9D1002800D041680BD00468A3EBF1
:104560000005A54204D11B681C440346046002E018
:10457000436000E023603AB11C68D51AA54203D11C
:1045800015682C441C6052685A6030BDE001002060
:104590002DE9F04782460F4C10480D4E0E4F001B80
:1045A0004FF0000820F007054FF0010900221146E6
:1045B000504600F0A3F9002802D1306810B1002065
:1045C000BDE8F0873C60C4E90058C6F80090EDE70C
:1045D000E4010020F4290020E0010020F031002057
:1045E0000148006870470000E801002002E008C8A8
:1045F000121F08C1002AFAD170477047002001E05D
:1046000001C1121F002AFBD1704700000149086058
:1046100070470000E801002030380A2801D201204C
:1046200070470020704700002DE9FF4F89B09B467E
:104630000446002506E025280BD05A460B999047E2
:10464000641C6D1C20780028F5D10DB02846BDE80B
:10465000F08F0027B8460122474900E0074314F8CD
:10466000013F203B02FA03F00842F7D120782E28C0
:1046700019D114F8010F47F004072A280ED06FF063
:104680002F022078A0F1300109290CD808EB88010D
:1046900002EB410100EB0108641CF2E70A98641C7C
:1046A00050F8048B0A9020780028CED0642808D0D7
:1046B000692806D075281ED05A460B9990476D1C64
:1046C00058E00A994FF00A0901C90A91002802DA54
:1046D00040422D2102E0390504D52B218DF8201010
:1046E000012103E0F90704D02021F7E78A4608AE4C
:1046F0000DE00021FAE70A994FF00A0901C90A9171
:10470000F7E74946FCF790F8303106F8011D00281C
:10471000F7D1ADEB060000F12009780701D44FF086
:104720000108C84502DDA8EB090000E00020804632
:10473000002706E008A85A46C05D0B9990476D1CFB
:104740007F1C5745F6DB04E030205A460B99904712
:104750006D1CB8F10001A8F10108F5DC05E016F8C0
:10476000010B5A460B9990476D1CB9F10001A9F154
:104770000109F4DC641C65E70928010030B583B049
:104780000446FFF72DFF05460020CDE90000024654
:1047900021466846FCF73BF92846FFF737FFDDE97D
:1047A000000103B030BD10B500231A4604E030F814
:1047B0001240521C234492B28A42F8D398B210BDE0
:1047C00070B500252C4603E0065D641C3544E4B258
:1047D0008C42F9D3E84300211170187070BDF0B518
:1047E0004FF6FF7300244AF201060EE0055D6B40B0
:1047F0000025DF0702D086EA530300E05B086D1C4A
:10480000EDB2082DF5D3641CA4B28C42EED3137024
:10481000180A5070F0BD000013B54FF6FF73012267
:1048200069460248FEF78EFE00981CBD0C28002049
:1048300030B541EA00210F205FF0010404FA00F3D3
:104840000B4201D0312300E03023C0F10F05401EA0
:104850005355F3D50020107430BD0000064B10B541
:10486000002211461A61445C491CC9B244EA022282
:104870000429F8D31A6110BD080000202DE9F04189
:104880000646FBF7BFFC044600254000FFF780FE0C
:1048900002460020014630230DE0375C5754375C58
:1048A0002C2F06D137187F782C2F02D1491C6D1C74
:1048B0005354401C491CA042EFDB002050542944B3
:1048C000104600F01FF9002803D103A0FFF70EFEE9
:1048D0000020BDE8F0810000E58685E5AD98E5881B
:1048E00086E9858DE5A4B1E8B4A50A000870020A3E
:1048F0004A70020C8A70000EC87070472DE9F041B2
:104900000B3020F00706104D19E02068B04215D397
:10491000B0420AD9871B201DD4F80480FBF734FC71
:10492000A019C0E90078286004E060682860201DB4
:10493000FBF72AFC201D2660BDE8F081251D2C68B0
:10494000002CE2D10020F7E7E0010020FDF726FD72
:10495000FFF79CFAFEF7ACFEFEF76CFEFEF7A2FF37
:10496000FEF7BCFFFEF7D6FFFEF7F0FFFEF77EFF77
:10497000FEF738FEFEF754FF41F28830FDF7C0FB2A
:1049800001224E494E48FEF7A3FD4C490122491C25
:104990004C48FEF79DFD4FF480624B494B48FEF7B3
:1049A00027FA4B48FCF7E6FE444C4A4E4A4F002596
:1049B000E41EA078C8B1DFF824914FF48058414636
:1049C0004846FDF7CFFC4FF4006A51464846FDF7D4
:1049D000C9FC4B20FDF794FB41464846FDF7C2FC5D
:1049E00051464846FDF7BEFCA5706078401CC0B239
:1049F000607019285BD1307800B13570387800B11B
:104A00003D70207A80B12D49082211310120FFF735
:104A1000DFF92A49082211310320FFF7D9F9294685
:104A200025722FA0FFF762FD607A80B1234908222A
:104A300019310120FFF7CCF9204908221931032050
:104A4000FFF7C6F92946657228A0FFF74FFDA07A47
:104A500030B11A49082221310320FFF7B9F9A572B4
:104A6000E07A30B11549082229310320FFF7B0F967
:104A7000E572FCF77FFCFCF72FFDFCF745FDFFF727
:104A8000EFF81C221C490120FFF7A2F91A490A225B
:104A90001C310120FFF79CF9082218490120FFF77B
:104AA00097F9082216490120FFF792F96570FEF781
:104AB0006DFF2820FDF724FB7BE700009501002017
:104AC0007C270020C4270020442200203427002017
:104AD00074260020090000200A0000200018014070
:104AE000466C61673D25640A00000000466C616702
:104AF000323D25640A00000044260020F00000201A
:104B0000000100202DE9F04704008A4616D054F831
:104B1000047CD4F800903E1F564500D956462046E6
:104B2000FFF708FD05468846324621465046FFF706
:104B3000E5FE40B1C0F80090BDE8F087BDE8F04761
:104B40000846FFF725BD44E9017955B129686A187F
:104B5000211F8A4202D9611B091F2960C5F8048000
:104B6000EAE7024AC2F80080E6E70000E001002020
:104B70002DE9F04FE7B00F468346012904DA4FF0E4
:104B8000FF3067B0BDE8F08F00264FF4807A3546DD
:104B9000B046344651466846FBF71DFBE94698E0AF
:104BA0001BF80500242811D0002EF8D0A11C514577
:104BB00000DD00262A2810D009F80400641C781EA5
:104BC0006D1C854268D14FF0000885E0002EF6D1BB
:104BD00001268DF800003446F1E7002109F80410A1
:104BE00009F1030603223DA1701CFBF71BFB20B358
:104BF00003223BA13046FBF715FB30B3032239A15A
:104C0000701CFBF70FFB48B3032237A1701CFBF7A6
:104C100009FB60B3032235A1701CFBF703FB78B3DB
:104C2000032233A1701CFBF7FDFA50B3032231A11C
:104C3000B01EFBF7F7FA70B343E0694640A800F0F6
:104C4000B5FA502240A92C482EE0694640A800F051
:104C500059F82948902240A9E83825E0694640A83B
:104C600000F0A0F92448582240A958381CE06946B1
:104C700040A800F01BFB20484C2240A9503013E014
:104C800000E00AE0694640A800F092FB1A4898222A
:104C900040A9A03008E00AE01BE0694640A800F007
:104CA000D7FC402240A91548FBF76EFA09E0694697
:104CB00040A800F041FB124840990160BDF8041182
:104CC000818051466846AD1CFBF785FA0024012619
:104CD00075E7BD42FFF664AF404652E747534100D7
:104CE00047474100474C4C0047535600524D430044
:104CF0005654470048585A00D8020020100400209B
:104D0000000000202DE9F34FA9B00C469021684621
:104D1000FBF761FA00252046FFF7B0FD9EA1249025
:104D2000FBF790FA64270446DFF87082DFF8709290
:104D3000002623E10F2D7DD2DFE805F07C084680B8
:104D400089BFCACFD4DBE2E5ECF3F80002222146AA
:104D500025A8FBF74BFA8DF896600222A11C26A825
:104D6000FBF744FA8DF89A600222211D27A8FBF771
:104D70003DFA8DF89E600222E11D28A8FBF736FA65
:104D80008DF8A26025A8FBF779FB039026A8FBF716
:104D900075FB049027A8FBF771FB059028A8FBF78B
:104DA0006DFB00EB80004000069003982146083020
:104DB00003906846FBF72DFA77A10020FBF742FA33
:104DC00004004FF002057DD0214607A8FBF721FA29
:104DD0002046FFF7D3FC82468B46FBF7BEFC90FBD8
:104DE000F7F464206043FBF786FC52465B46FBF712
:104DF000F6FB82468B46FBF7B0FC2590FBF77BFC6D
:104E000052465B46FBF7EBFB00224346FBF7EAFB0F
:104E1000844625980B900A9400224B466046FBF787
:104E20003AFBFBF79AFC0C905BA10020FBF70AFA17
:104E3000040000E09CE005F10105C4D020784E2874
:104E400003D000208DF8340092E00120FAE72146DB
:104E50000DF13500FBF7DDF92046FFF78FFC054625
:104E60008A46FBF77AFC90FBF7F464206043FBF77B
:104E700042FC2A465346FBF7B2FB05468A46FBF73F
:104E80006CFC8346FBF737FC2A465346FBF7A7FB2F
:104E900000224346FBF7A6FBCDE9114B00224B460F
:104EA000FBF7F9FAFBF759FC13903BA10020FBF745
:104EB000C9F904004FF0050563D02078452805D0D6
:104EC000002000E05DE08DF8500051E00120F8E79F
:104ED0002046FBF7D3FA15904AE02046FBF7CEFABE
:104EE000169045E00021204600F006FCCDE91801AF
:104EF0003EE00021204600F0FFFBCDE91A0137E03B
:104F000021461CA808E00021204600F0F5FBCDE971
:104F10001E012DE0214620A8FBF77BF928E005E0E3
:104F2000FFE72046FBF7AAFA229021E00420FFF7D2
:104F30002FFB05462046FBF765F9C21E2146284691
:104F4000FBF754F92046FBF75DF928440A2200F8E4
:104F5000036C00212846FBF759FAADF88C0028466F
:104F6000FFF7E8FA0CA10020FBF76CF90F2540B120
:104F700009A10020FBF766F904466D1C002C7FF4A4
:104F8000D9AE2498FFF7D6FA902269462998FBF704
:104F9000FBF82BB0BDE8F08F2C00000000004E4065
:104FA0000000E03F2DE9F04F9BB00C4683465821AE
:104FB0006846FBF710F900252046FFF75FFC78A153
:104FC0001690FBF73FF904466426764FDFF8D88148
:104FD000D6E0072D42D2DFE805F0CD043A447B84C9
:104FE000C60021466846FBF714F92046FFF7C6FBCA
:104FF00004468946FBF7B1FB90FBF6F5642105FBFF
:1050000001F0FBF778FB4B462246FBF7E8FA0C462B
:105010008146FBF7A2FB8246FBF76DFB4A4623461F
:10502000FBF7DDFA00223B46FBF7DCFACDE9035A39
:1050300000224346FBF72FFAFBF78FFB059058A1A0
:105040000020FBF7FFF804004FF002057ED0207827
:105050004E2804D05FF000008DF818008AE001208F
:10506000FAE721460DF11900FBF7D3F82046FFF7C8
:1050700085FB04468946FBF770FB90FBF6F564213F
:1050800005FB01F0FBF737FB4B462246FBF7A7FA7F
:1050900004468946FBF761FB8246FBF72CFB4B4637
:1050A0002246FBF79CFA00223B46FBF79BFACDE930
:1050B0000A5A00224346FBF7EEF9FBF74EFB0C9031
:1050C00037A10020FBF7BEF804004FF004055AD0CA
:1050D0002078452803D000208DF834004AE00120D4
:1050E000FAE70222214617A8FBF780F800258DF881
:1050F0005E500222A11C18A8FBF778F88DF86250C8
:105100000222211D19A8FBF771F88DF866500222C2
:10511000E11D1AA8FBF76AF88DF86A5017A8FBF78B
:10512000ADF9119018A8FBF7A9F9129019A8FBF78F
:10513000A5F913901AA8FBF7A1F900EB8000400035
:105140001490119821460830119000E01BE00DF1F9
:105150003500FBF75EF812A10020FBF773F804009E
:105160004FF006050FD02078412817D05FF00000DF
:105170008DF854000AA10020FBF764F804466D1C6A
:10518000002C7FF426AF1698FFF7D4F95822694611
:105190005846FAF7F9FF1BB0BDE8F08F0120E7E7AA
:1051A0002C00000000004E400000E03F70B594B0BD
:1051B0000D46064650216846FBF70DF800242846A8
:1051C000FFF75CFB054638A1FBF73CF85FE0122CCB
:1051D00058D2DFE804F0570912161A1E22262A2E8A
:1051E00032363A3E42464C5200784D2803D00020D9
:1051F0008DF8000046E00120FAE7FBF73FF9019047
:1052000040E0FBF73BF902903CE0FBF737F90390F5
:1052100038E0FBF733F9049034E0FBF72FF9059001
:1052200030E0FBF72BF906902CE0FBF727F907900D
:1052300028E0FBF723F9089024E0FBF71FF9099019
:1052400020E0FBF71BF90A901CE0FBF717F90B9025
:1052500018E0FBF713F90C9014E0FBF70FF90D9031
:1052600010E0002100F048FACDE90E010AE000212B
:1052700000F042FACDE9100104E0002100F03CFA10
:10528000CDE9120108A10020FAF7DCFF641C002818
:105290009DD12846FFF74EF9502269463046FAF76D
:1052A00073FF14B070BD00002C00000070B594B006
:1052B0000D4606464C216846FAF78DFF0024284625
:1052C000FFF7DCFA05461BA125E0082C20D2DFE819
:1052D00004F01F04080C1014181CFBF7CFF8009002
:1052E00016E0FBF7CBF8019012E0FBF7C7F802904D
:1052F0000EE0FBF7C3F803900AE0FBF7BFF8049059
:1053000006E0FBF7BBF8059002E0FBF7B7F8069064
:1053100008A10020641CFAF795FF0028D5D1284683
:10532000FFF708F94C2269463046FAF72DFF14B012
:1053300070BD00002C00000070B586B00025064648
:105340000C460395481C0495FAF75CFF0246611C65
:105350002046FAF719FF2046FAF754FF204401AA25
:1053600000F8035C02A8831E009001950BA1029532
:105370002046FAF789FFBDF80400ADF80C00BDF82F
:105380000600ADF80E00BDF80800ADF81000039857
:105390003060BDF81000B08006B070BD25303468B4
:1053A000782C25303468782C25303468780000005B
:1053B0002DE9F34FABB00C4698216846FAF70BFF86
:1053C00000262046FFF75AFA9EA12690FAF73AFFE8
:1053D00064270446DFF87082DFF87092002522E12E
:1053E0000C2E48D2DFE806F0470642487F89C2CB40
:1053F000D2D9FDFC0222214627A8FAF7F7FE8DF844
:105400009E500222A11C28A8FAF7F0FE8DF8A250A7
:105410000222211D29A8FAF7E9FE8DF8A6500322E1
:1054200004F108012AA8FAF7E1FE8DF8AA5027A88E
:10543000FBF724F8059028A8FBF720F8069029A888
:10544000FBF71CF807902AA8FBF718F808900598B6
:105450002146083005906846FAF7DBFE79A1002066
:10546000FAF7F0FE04004FF002067DD0207800B17C
:1054700001208DF82400D0E021460DF12500FAF737
:10548000C8FE2046FFF77AF904468A46FBF765F91D
:1054900090FBF7F6642106FB01F0FBF72CF953466D
:1054A0002246FBF79CF804468A46FBF756F98346EA
:1054B000FBF721F953462246FBF791F800224346B9
:1054C000FBF790F8CDE90D6B00224B46FAF7E3FFAE
:1054D000FBF743F90F905BA10020FAF7B3FE04003D
:1054E0004FF00406C1D020784E2804D05FF00000B1
:1054F0008DF8400091E00120FAE721460DF14100CE
:10550000FAF787FE2046FFF739F90C468246FBF78B
:1055100024F990FBF7F6642106FB01F0FBF7EBF8AA
:1055200052462346FBF75BF804468A46FBF715F91B
:105530008346FBF7E0F853462246FBF750F800227B
:105540004346FBF74FF8CDE9146B00224B46FAF7C0
:10555000A2FFFBF702F916903AA10020FAF772FEBB
:1055600004004FF0060600E060E05FD02078452898
:1055700003D000208DF85C004FE00120FAE7002105
:10558000204600F0B9F8CDE9180146E00021204698
:1055900000F0B2F8CDE91A013FE00222214627A827
:1055A000FAF724FE8DF89E500222A11C28A8FAF7D3
:1055B0001DFE8DF8A2500222211D29A8FAF716FE21
:1055C0008DF8A65029A8FAF759FF064628A8FAF739
:1055D00055FF824627A8FAF751FF06F5FA6601E063
:1055E00018E010E0CDE91E0A214620961CA8FAF723
:1055F00010FE8DF8765013A10020FAF723FE040068
:105600004FF00A0612D00021204600F075F8CDE9CF
:10561000220102E020788DF890000AA10020FAF71C
:1056200011FE0446761C002C7FF4DAAE2698FEF7B5
:1056300081FF982269462B98FAF7A6FD2DB0BDE8A8
:10564000F08F00002C00000000004E400000E03F02
:1056500070B590B00D46064640216846FAF7BBFD8E
:1056600000242846FFF70AF9054622A1FAF7EAFDC9
:1056700034E0092C2DD2DFE804F02C050B0F1519AE
:105680001F232900002100F037F8CDE9000120E0B8
:1056900000788DF808001CE0002100F02DF8CDE91D
:1056A000040116E000788DF8180012E0002100F0E7
:1056B00023F8CDE908010CE000788DF8280008E017
:1056C000002100F019F8CDE90C0102E000788DF816
:1056D000380008A10020FAF7B5FD641C0028C8D1E5
:1056E0002846FEF727FF402269463046FAF74CFD70
:1056F00010B070BD2C00000000B583B00A46002138
:10570000CDE9001101466846FBF781F9DDE90001AA
:1057100003B000BD010202030405060708090A0BD5
:105720000C0D0E0F101001020203040506070809F4
:105730000A0B0C0D0E0F10100000000000000000FE
:105740000102030406070809000000000102030427
:105750000040404040404040404041414141414084
:105760004040404040404040404040404040404039
:1057700040050202020202020202020202020202C8
:1057800002202020202020202020200202020202CD
:105790000202909090909090101010101010101025
:1057A0001010101010101010101010100202020231
:1057B0000202888888888888080808080808080875
:1057C0000808080808080808080808080202020271
:1057D0004000000051570008F85700080000002062
:1057E000EC0100001C13000814590008EC01002013
:1057F00004380000FC450008F1230101021CFF13DE
:10580000010622D43CC9F205081BC8761012071CF9
:10581000C8399D101E0701F4381910129A1C64280B
:1058200030101E9A03E8A8DF1022961B69E61019B3
:10583000081B68621012981C3289F01019081B8826
:10584000741022971B38261019081B39A2101299C0
:105850002B32D84019081BD9B41012DC3A01301988
:10586000081930120312063D01640B05081B658FF1
:105870001012041C0285CA1019081B844E1012A3B2
:105880001C0174281019081B75AC401AA4A81A2909
:105890004019081CC9ADAA36415BAA050812065A70
:1058A0000510390813011012D24302048C7F2A0517
:1058B0000D1B6A1A1A1AE80D2307D01BFCCC1A69B3
:1058C0000D1BE9FC1A1ADE0D1FF830FFFF4FA01A5E
:1058D000890D591A1907115BFF550D5FFEF0FFFF87
:1058E000CEC2271B05505B5A920D0714FAB0FFFF7A
:1058F0005AC01AAA841311111D1EAA041101113CC9
:10590000FCAA03103C1FAA031062FD29D1196A6189
:04591000031124F467
:0400000508000131BD
:00000001FF
