:020000040800F2
:10000000483000204501000821270008432400084B
:100010001D270008A9050008012D000800000000A8
:10002000000000000000000000000000C9280008D7
:10003000AD0500080000000025270008CB280008B7
:100040005F0100085F0100085F0100085F01000810
:100050005F0100085F010008AF050008B90500084E
:100060005F0100085F0100085F0100085F010008F0
:100070005F0100085F0100085F0100085F010008E0
:100080005F0100085F0100085F0100085F010008D0
:100090005F0100085F0100085F010008C305000858
:1000A0005F0100085F0100085F0100085F010008B0
:1000B0005F0100085F0100085F0100085F010008A0
:1000C0005F0100085F0100085F0100085F01000890
:1000D0005F0100085F010008E12C0008F12C000816
:1000E0005F0100085F0100085F0100085F01000870
:1000F0005F0100085F0100085F0100085F01000860
:100100005F0100085F0100085F0100085F0100084F
:100110005F0100085F0100085F0100085F0100083F
:100120005F0100085F0100085F0100085F0100082F
:10013000DFF80CD000F078F800480047FD310008E7
:10014000483000200648804706480047FEE7FEE7A3
:10015000FEE7FEE7FEE7FEE7FEE7FEE7FEE7FEE777
:100160005329000831010008202A04DB203A21FA33
:1001700002F00021704721FA02F3D040C2F12002C0
:100180009140084319467047D2B201E000F8012BB4
:10019000491EFBD270470022F6E710B513460A4607
:1001A00004461946FFF7F0FF204610BD30B504465F
:1001B0000020034600E05B1C934203D2E05CCD5C70
:1001C000401BF8D030BD2DE9F05F05460020924677
:1001D0009B4688460646814640241BE02846414609
:1001E00047462246FFF7C0FF53465A46C01A914180
:1001F00010D311461846224600F028F82D1A67EB56
:1002000001084F4622460120002100F01FF817EB9D
:1002100000094E41201EA4F10104DFDC48463146AE
:100220002A464346BDE8F09F064C074D06E0E068CD
:1002300040F0010394E8070098471034AC42F6D32D
:10024000FFF77AFF6C3500088C350008202A04DBA4
:10025000203A00FA02F1002070479140C2F12003D9
:1002600020FA03F319439040704770B50446002507
:100270002068806800F0010018B32068806820F0D2
:1002800001002168886000F0F7FD054613E000F0EA
:10029000F3FD401B02280ED92068806800F00100A1
:1002A00048B1A06A40F01000A062E06A40F001008E
:1002B000E062012070BD2068806800F00100002825
:1002C000E5D10020F6E7000038B5044600F0D4FD83
:1002D000054620208DF80000200C8DF80100200A32
:1002E0008DF80200E0B28DF8030000F02FF9002233
:1002F00010210F4800F0BAFD4FF47A7304226946CA
:100300000C4801F0E2FB01221021094800F0AEFD8B
:1003100000BF00F011F80228FBD000F0ADFD401B3B
:1003200040F6B831884201D9032038BD0020FCE7EF
:10033000000801405C2700201CB512A00068019055
:1003400000221021104800F091FD4FF47A73012231
:1003500001A90E4801F0B9FB4FF47A7301226946F6
:100360000A4801F0F3FA01221021074800F07EFD4F
:100370009DF8000000F0010008B102201CBD002023
:10038000FCE7000005000000000801405C27002099
:1003900010B500F059F8FFF7CFFF10BDF8B50546CE
:1003A0000C46164603208DF80000200C8DF8010045
:1003B000200A8DF80200E0B28DF80300002210211F
:1003C0000D4800F053FD4FF47A73042269460B4840
:1003D00001F07BFBB2B24FF47A732946074801F073
:1003E000B5FA08B10120F8BD01221021024800F041
:1003F0003DFD0020F7E70000000801405C270020D9
:1004000038B504460DA000680090002210210C4869
:1004100000F02CFD4FF47A7304226946094801F07C
:1004200054FB4FF47A7302222146064801F08EFAFB
:1004300001221021024800F019FD38BD9000000093
:10044000000801405C27002008B50AA00068009061
:1004500000221021084800F009FD4FF47A730222AF
:100460006946064801F031FB01221021024800F0E4
:10047000FDFC08BD66990000000801405C270020D3
:100480002DE9F84F81460D46174600F0F5FC8246EF
:10049000002401E004F58074AC42FBD9661BBE4227
:1004A00000D93E462C4605EB070800BF02208DF818
:1004B0000000200C8DF80100200A8DF80200E0B247
:1004C0008DF8030000F042F8002210211D4800F0D2
:1004D000CDFC4FF47A73042269461B4801F0F5FA0B
:1004E00010B10120BDE8F88FB2B24FF47A734946DB
:1004F000154801F0EAFA08B10120F3E701221021C2
:10050000104800F0B3FC00BFFFF716FF0228FBD035
:1005100000F0B2FCA0EB0A00B0F57A7F01D903200D
:10052000E0E73444B14404F58070404502D9A8EBBB
:10053000040001E04FF4807006464445B6D3002025
:10054000D0E70000000801405C27002038B513A068
:100550000068009000F090FC044600221021104832
:1005600000F084FC4FF47A73012269460D4801F0D3
:10057000ACFA012210210A4800F078FC00BFFFF716
:10058000DBFE0228FBD000F077FC001BB0F57A7F81
:1005900001D9032038BD0020FCE700000600000060
:1005A000000801405C27002000BFFEE7704710B53F
:1005B000012000F0ADFA10BD10B5022000F0A8FA3D
:1005C00010BD10B54FF4807000F0A2FA4FF4007027
:1005D00000F09EFA10BD72B600BFFEE738B50246C5
:1005E00000230020009000BF92F82400012801D1D0
:1005F000022038BD012082F8240000BF4868072887
:1006000012D21068406B0C79641E04EB84051F2421
:10061000AC40A0430D796D1E05EB85050C68AC4020
:1006200020431468606327E048680D2812D21068E0
:10063000006B0C79E41F04EB84051F24AC40A0433D
:100640000D79ED1F05EB85050C68AC40204314685F
:10065000206311E01068C06A0C790D3C04EB84053E
:100660001F24AC40A0430D790D3D05EB85050C68BA
:10067000AC4020431468E06208680A2812D310686E
:10068000C0680C780A3C04EB44050724AC40A04346
:100690000D780A3D05EB45058C68AC402043146895
:1006A000E0600FE0106800690C7804EB4405072453
:1006B000AC40A0430D7805EB45058C68AC40204369
:1006C000146820610868102802D00868112827D112
:1006D000174C1068A0421ED11068806800F400001A
:1006E000F0B91068806840F400001468A0600868E1
:1006F000102815D10F4800680F4CB0FBF4F000EB48
:1007000080004000009002E00098401E0090009899
:100710000028F9D104E0906A40F0200090620123A3
:1007200000BF002082F8240000BF184661E70000E7
:10073000002401401400002040420F002DE9F04148
:100740000446002700250026A84614B90120BDE86C
:10075000F081A06810B1207D00B100BFA06A30B95F
:100760000020E06284F82400204600F097F820463C
:10077000FFF77BFD0746A06A00F01000002873D148
:10078000002F7ED1A06A20F4885040F00200A062C1
:100790003F4AD4E90001904208D1E069B0F5402F0A
:1007A00002D14FF4002002E0E06900E0E06901437B
:1007B000207B41EA40000643A068B0F5807F02D06C
:1007C000A068012802D14FF4807000E000200543AA
:1007D000207D012811D1207B38B9A069401E4FF43B
:1007E000006141EA4030054307E0A06A40F0200084
:1007F000A062E06A40F00100E0622068406820F4F6
:100800006940284321684860206880682149084081
:10081000304321688860A068B0F5807F02D0A0686E
:10082000012802D14FF4807000E00020B0F5807FF5
:1008300003D1208A401E4FEA00582068C06A20F485
:10084000700040EA08002168C86220688068124988
:100850000840B04209D10020E062A06A20F0020006
:1008600040F00100A06211E00BE0A06A20F002005D
:1008700040F01000A062E06A40F00100E062012751
:1008800004E0A06A40F01000A062012738465EE74D
:10089000003C0140FDF7E1FFFE0E1FFF10B586B0E2
:1008A00004460020029003900490059014492068AB
:1008B000884222D100BF1348806940F4007011497A
:1008C00088610846806900F40070019000BF00BF95
:1008D00000BF0846806940F01000886108468069C2
:1008E00000F01000019000BF00BF02200290032022
:1008F000039002A9044800F019F906B010BD0000E9
:100900000024014000100240001001400146002276
:1009100091F82100022808D00420886300BF00203D
:1009200081F8200000BF012070470868006820F0AF
:100930000E000B6818600868006820F001000B6862
:10094000186091F8403001209840CB6B586001202E
:1009500081F8210000BF002081F8200000BF104670
:10096000E2E7000070B50446002594F82100022853
:1009700003D00420A0630125C1E02068006820F0B6
:100980000E00216808602068006820F001002168DE
:1009900008605C492068884252D95A4978392068F1
:1009A000884201D1012047E05649643920688842D5
:1009B00001D1102040E0534950392068884201D1CC
:1009C000801539E04F493C392068884201D18014B4
:1009D00032E04C4928392068884202D14FF48030F7
:1009E0002AE0484914392068884202D14FF4801027
:1009F00022E044492068884201D140041CE0424979
:100A00002068884201D1012016E03F491431206856
:100A1000884201D110200FE03B49283120688842EC
:100A200001D1801508E038493C312068884201D165
:100A3000801401E04FF480303349091F086051E011
:100A4000304978392068884201D1012047E02D499A
:100A500064392068884201D1102040E0294950398A
:100A60002068884201D1801539E026493C39206848
:100A7000884201D1801432E0224928392068884216
:100A800002D14FF480302AE01E4914392068884290
:100A900002D14FF4801022E01A492068884201D127
:100AA00040041CE018492068884201D1012016E06A
:100AB000154914312068884201D110200FE01249F5
:100AC00028312068884201D1801508E00E493C3168
:100AD0002068884201D1801401E04FF48030094938
:100AE00080394860012084F8210000BF002084F88C
:100AF000200000BF606B10B12046616B884728461C
:100B000070BD0000800002400804024070470000F1
:100B100010B5044604480068204020B10248046033
:100B20002046FFF7F3FF10BD140401402DE9F847FC
:100B3000024600239C467BE14FF0010808FA03F4CB
:100B4000D1F8008008EA0400A0427DD1DFF8F4A2C9
:100B5000D1F80480A8EB0A09D0453AD014DCB8F1EA
:100B6000030F50D009DCB8F1000F31D0B8F1010FFC
:100B70001CD0B8F1020F49D120E0B8F1110F18D004
:100B8000B8F1120F42D11EE0B9F5881F25D006DC5E
:100B9000B9F5803F20D0B9F5801F37D11AE0B9F5FB
:100BA000001F18D0B9F5041F30D117E0D1F80CC0E0
:100BB0002DE0D1F80C8008F1040C28E0D1F80C806D
:100BC00008F1080C23E0D1F80C8008F10C0C1EE0B1
:100BD00000BF00BF00BF00BF00BF00BFD1F808804A
:100BE000B8F1000F02D14FF0040C0BE0D1F80880EF
:100BF000B8F1010F03D14FF0080C146102E04FF07F
:100C0000080C546103E04FF0000C00E000BF00BF8F
:100C1000FF2801D8904601E002F104084646FF286B
:100C200002D84FEA830803E0A3F108084FEA8808D6
:100C30004746D6F800804FF00F0909FA07F928EA6D
:100C400009080CFA07F900E07AE048EA0908C6F852
:100C50000080D1F8048008F08058B8F1805F6FD12F
:100C600000BFDFF8E481D8F8188048F00108DFF809
:100C7000D891C9F81880C846D8F8188008F001083B
:100C8000CDF8008000BF00BF4FEAB9384FEA9309A2
:100C900058F829504FEA83784FEA18794FF00F0837
:100CA00008FA09F825EA0805DFF8A081424502D1D3
:100CB0004FF0000824E0DFF89881424502D14FF060
:100CC00001081DE0DFF88C81424502D14FF0020897
:100CD00016E0DFF88481424502D14FF003080FE0AF
:100CE000DFF87881424502D14FF0040808E0DFF8D0
:100CF0007081424502D14FF0050801E04FF006082F
:100D00004FEA83794FEA197908FA09F848EA0505A4
:100D1000DFF850814FEA930948F82950D1F8048050
:100D200008F48018B8F5801F0BD1DFF83C81D8F8A3
:100D3000008048EA0008DFF83091C9F800800AE036
:100D400075E0DFF82481D8F8008028EA0008DFF891
:100D50001891C9F80080D1F8048008F40018B8F59B
:100D6000001F0ED1DFF8008108F10408D8F80080D8
:100D700048EA0008DFF8F09009F10409C9F800809A
:100D80000DE0DFF8E48008F10408D8F8008028EAD4
:100D90000008DFF8D49009F10409C9F80080D1F8FF
:100DA000048008F40038B8F5003F0ED1DFF8B880B1
:100DB000A8F10408D8F8008048EA0008DFF8A890F5
:100DC000A9F10409C9F800800DE0DFF89C80A8F1C2
:100DD0000408D8F8008028EA0008DFF88C90A9F110
:100DE0000409C9F80080D1F8048008F48038B8F507
:100DF000803F0ED1DFF87080A8F10808D8F8008095
:100E000048EA0008DFF86090A9F10809C9F80080F5
:100E10000DE0DFF85480A8F10808D8F8008028EA2F
:100E20000008DFF84490A9F10809C9F800805B1CAC
:100E3000D1F8008028FA03F8B8F1000F7FF47CAEF7
:100E4000BDE8F887000011100010024000080140C2
:100E5000000C014000100140001401400018014046
:100E6000001C014008000140080401400AB1016172
:100E700001E00B04036170470148006870470000FF
:100E80000800002003480068034909780844014924
:100E900008607047080000201000002010B50848C6
:100EA000006840F0100006490860032000F0A8F830
:100EB0000F2000F007F800F02BF8002010BD000014
:100EC0000020024070B504460E4800784FF47A7155
:100ED000B1FBF0F00C490968B1FBF0F5284600F0D1
:100EE000F2FF08B1012070BD102C07D2002221466C
:100EF000501E00F047F80548046001E00120F2E7C9
:100F00000020F0E710000020140000200C0000205A
:100F100008B500BF1148806940F001000F498861A1
:100F20000846806900F00100009000BF00BF00BFCC
:100F30000846C06940F08050C8610846C06900F0AA
:100F40008050009000BF00BF00BF0549486820F0F6
:100F5000E06040F00070486000BF08BD0010024033
:100F60000000014001460846002809DB00F01F038D
:100F700001229A4043099B0003F1E023C3F80021BA
:100F800000BF70472DE9F05F80460D4616460027EA
:100F900001F0C8FE074639462A46334601F00700ED
:100FA000C0F1070ABAF1040F02D94FF0040A01E0B8
:100FB000C0F1070AD14600F1040ABAF1070F02D2C4
:100FC0004FF0000A01E0A0F1030AD4464FF0010AF5
:100FD0000AFA09FAAAF1010A0AEA020A0AFA0CFA5A
:100FE0004FF0010B0BFA0CFBABF1010B0BEA030BFF
:100FF0004AEA0B042146404601F09CFEBDE8F09F02
:1010000000BF00F00702064B19684FF6FF031940B6
:10101000044B0B4343EA0221014B196000BF7047A8
:101020000CED00E00000FA05F8B5044600260025A6
:10103000207800F0010000286BD000274348C069E9
:1010400000F0805070B900BF4048C06940F0805047
:101050003E49C8610846C06900F08050009000BF5A
:1010600000BF01273A48006800F48070B0B93848E2
:10107000006840F4807036490860FFF7FDFE0646C0
:1010800006E0FFF7F9FE801B642801D90320F8BDB4
:101090002F48006800F480700028F2D02B48006AC6
:1010A00000F440752DB3A08800F44070A84220D011
:1010B0002648006A20F44075012026490860002077
:1010C00008602248056205F0010090B1FFF7D4FEE8
:1010D000064608E0FFF7D0FE801B41F288318842C7
:1010E00001D90320D3E71948006A00F00200002864
:1010F000F0D01648006A20F4407061680843134934
:101100000862012F04D10846C06920F08050C861F0
:1011100000BF207800F00200022807D10B48406889
:1011200020F44040A168084308494860207800F056
:101130001000102807D10548406820F4800061693C
:101140000843024948600020A1E700000010024067
:10115000007000404004424270B504460D460CB990
:10116000012070BD5A48006800F00700A8420ED266
:101170005748006820F00700284355490860084692
:10118000006800F00700A84201D00120E9E72078BC
:1011900000F0020002281DD1207800F0040004288D
:1011A00005D14C48406840F4E0604A4948602078E6
:1011B00000F00800082805D14648406840F4605017
:1011C000444948604348406820F0F000A168084363
:1011D00040494860207800F0010078B36068012839
:1011E00006D13C48006800F4003090B90120B8E70F
:1011F0006068022806D13748006800F0007040B9E6
:101200000120AEE73348006800F0020008B9012071
:10121000A7E73048406820F00300616808432D4983
:101220004860FFF729FE064609E0FFF725FE801B10
:1012300041F28831884202D9032092E707E025482D
:10124000406800F00C006168B0EB810FEDD12048E0
:10125000006800F00700A8420ED91D48006820F081
:10126000070028431A4908600846006800F0070094
:10127000A84201D0012074E7207800F0040004287F
:1012800007D11448406820F4E060E1680843114940
:101290004860207800F00800082808D10D48406810
:1012A00020F46050216940EAC1000A49486000F01A
:1012B0003FF808494968C1F30311074A515CC84027
:1012C0000649086006480068FFF7FCFD002048E773
:1012D0000020024000100240523500081400002097
:1012E0000C00002001480068704700001400002036
:1012F00000B5FFF7F7FF04494968C1F30221034A2B
:10130000515CC84000BD000000100240623500087A
:1013100000B5FFF7E7FF04494968C1F3C221034A5A
:10132000515CC84000BD000000100240623500085A
:1013300070B500210022002400230020134D6968AD
:1013400001F00C05F5B1042D02D0082D19D101E0F2
:101350000F4819E00F4DC1F38346AB5D01F48035B2
:1013600055B10A4D6D68C5F340450B4E725D084D91
:101370005D43B5FBF2F402E0084D03FB05F42046A3
:1013800002E000BF064800BF00BF70BD0010024071
:10139000001BB700403500085035000800093D002B
:1013A00000127A00F8B504460CB90120F8BD207887
:1013B00000F00100002878D0F848406800F00C00E8
:1013C00004280CD0F548406800F00C00082811D122
:1013D000F248406800F48030B0F5803F0AD1EF4811
:1013E000006800F4003000285FD0606800285CD1FD
:1013F0000120DBE700BF6068B0F5803F06D1E74819
:10140000006840F48030E549086028E0606858B919
:10141000E248006820F48030E0490860084600682F
:1014200020F4802008601AE06068B0F5A02F0BD18E
:10143000DA48006840F48020D8490860084600680F
:1014400040F4803008600AE0D448006820F480301E
:10145000D24908600846006820F48020086000BF78
:10146000606888B1FFF708FD054606E0FFF704FD58
:10147000401B642801D9032098E7C848006800F49D
:1014800000300028F2D010E0FFF7F6FC054606E039
:10149000FFF7F2FC401B642801D9032086E7BF4810
:1014A000006800F400300028F2D1207800F002003B
:1014B000022857D1B948406800F00C0050B1B74835
:1014C000406800F00C00082818D1B448406800F4C7
:1014D000803098B9B148006800F0020020B120695E
:1014E000012801D0012061E7AC48006820F0F80035
:1014F000616940EAC100A949086033E02069E8B1A8
:101500000120A7490860FFF7B7FC054606E0FFF792
:10151000B3FC401B022801D9032047E79F4800681D
:1015200000F002000028F2D09C48006820F0F8008B
:10153000616940EAC1009949086013E000209849B8
:101540000860FFF799FC054606E0FFF795FC401B95
:10155000022801D9032029E79048006800F0020022
:101560000028F2D1207800F0080008282DD1A069C9
:10157000B8B101208B490860FFF77EFC054606E004
:10158000FFF77AFC401B022801D903200EE78348AD
:10159000406A00F002000028F2D0012001F0C4F8F7
:1015A00013E000207F490860FFF766FC054606E06F
:1015B000FFF762FC401B022801D90320F6E67748BA
:1015C000406A00F002000028F2D1207800F0040008
:1015D000042873D100277148C06900F0805070B9A9
:1015E00000BF6E48C06940F080506C49C861084631
:1015F000C06900F08050009000BF00BF01276A481A
:10160000006800F48070B0B96748006840F48070EA
:1016100065490860FFF730FC054606E0FFF72CFC43
:10162000401B642801D90320C0E65F48006800F42D
:1016300080700028F2D000BFE068012806D157482A
:10164000006A40F001005549086227E0E06858B997
:101650005248006A20F00100504908620846006ABA
:1016600020F00400086219E0E06805280BD14B481F
:10167000006A40F00400494908620846006A40F0E8
:10168000010008620AE04548006A20F00100434971
:1016900008620846006A20F00400086200BFE068A3
:1016A000A0B1FFF7E9FB054609E0FFF7E5FB401BAA
:1016B00041F28831884202D9032077E622E0374898
:1016C000006A00F002000028EFD012E0FFF7D4FB20
:1016D000054608E0FFF7D0FB401B41F28831884205
:1016E00001D9032062E62D48006A00F002000028BC
:1016F000F0D1012F05D12948C06920F08050274939
:10170000C86100BFE069C8B32448406800F00C001D
:10171000082860D0E069022848D1002020490866E6
:10172000FFF7AAFB054606E0FFF7A6FB401B0228D1
:1017300001D903203AE61948006800F0007000283B
:10174000F2D1206AB0F5803F07D11448406820F4F8
:101750000030A168084311494860D4E908010843F2
:101760000E49496821F4741108430C49486001206E
:101770000B490866FFF780FB054607E03DE0FFF7F1
:101780007BFB401B022801D903200FE603480068B9
:1017900000F000700028F2D02FE00000001002409E
:1017A0000000424280044242007000400020144980
:1017B0000866FFF761FB054606E0FFF75DFB401B8F
:1017C000022801D90320F1E50E48006800F00070FE
:1017D0000028F2D111E0E069012800D1E6E50948CE
:1017E000466806F48031206A814204D106F4701103
:1017F000606A814201D00120D8E50020D6E50000D2
:10180000000042420010024010B504460CB901200D
:1018100010BD606A38B96068B0F5827F00D105E01C
:101820000021E16102E00021216161610021A162EA
:1018300094F8510028B9002084F85000204600F0A8
:1018400043F8022084F851002068006820F040002E
:1018500021680860A08800F48270218901F40441A5
:101860000843A18901F400610843217C01F00201D1
:101870000843217D01F001010843218B01F400712F
:101880000843217F01F0380108432021095D01F060
:1018900080010843218D01F400510843216808604C
:1018A0000421A06901EA1040216848602068C069ED
:1018B00020F400602168C86100206065012084F880
:1018C00051000020A4E7000010B586B004460020B7
:1018D00002900390049005901949206888422DD108
:1018E00000BF1848806940F4805016498861084656
:1018F000806900F48050019000BF00BF00BF08461F
:10190000806940F0040088610846806900F00400A6
:10191000019000BF00BFA02002900220039003208E
:10192000059002A90848FFF701F940200290002025
:101930000390049002A90448FFF7F8F806B010BD20
:101940000030014000100240000801402DE9F8433A
:101950000446884616461D464FF0000994F851008B
:10196000012802D04FF00209A8E06068B0F5827F3C
:101970000DD1A06858B9042084F85100334642467E
:1019800041462046009500F07EF9BDE8F88300BF8F
:1019900094F85000012801D10220F6E7012084F8D4
:1019A000500000BFFFF768FA0746B8F1000F00D0FB
:1019B00016B94FF0010981E0042084F8510000209D
:1019C0006065C4F83880A687E6872063A086E08635
:1019D00020646064A068B0F5004F0BD120680068F7
:1019E00020F04000216808602068006820F48040F2
:1019F000216808602068006800F04000402805D099
:101A00002068006840F0400021680860E06810BB72
:101A10001DE02068806800F0010050B12068007B64
:101A2000A16B0870A06B401CA063E08F401EE08794
:101A30000DE0FFF721FAC01BA84201D3681C00B9D2
:101A40002DB94FF00309012084F8510036E0E08FF2
:101A50000028DED121E01DE02068806800F0010050
:101A600050B12068C068A16B0880A06B801CA06387
:101A7000E08F401EE0870DE0FFF7FEF9C01BA84293
:101A800001D3681C00B92DB94FF00309012084F877
:101A9000510013E0E08F0028DED13A462946204667
:101AA00000F056FE08B120206065606D10B14FF067
:101AB000010902E0012084F8510000BF00BF0020AE
:101AC00084F8500000BF48465FE72DE9F84F044610
:101AD000884616461D464FF0000A00BF94F8500095
:101AE000012802D10220BDE8F88F012084F85000BF
:101AF00000BFFFF7C1F90746B14694F8510001282D
:101B000002D04FF0020AB7E0B8F1000F00D016B9CA
:101B10004FF0010AB0E0032084F851000020606516
:101B2000C4F83080A686E686A063A087E08760645C
:101B30002064A068B0F5004F0BD12068006820F049
:101B40004000216808602068006840F480402168F7
:101B500008602068006800F04000402805D0206838
:101B6000006840F0400021680860E068B0F5006F50
:101B700032D1606810B1B9F1010F09D1206B008832
:101B80002168C860206B801C2063E08E401EE086C8
:101B90001EE02068806800F0020002280AD1206B55
:101BA00000882168C860206B801C2063E08E401E86
:101BB000E0860DE0FFF760F9C01BA84201D3681C66
:101BC00000B92DB94FF0030A012084F8510053E009
:101BD000E08E0028DDD131E0606810B1B9F1010F6D
:101BE00009D1206B007821680873206B401C2063AA
:101BF000E08E401EE0861EE02068806800F0020053
:101C000002280AD1206B007821680873206B401CE1
:101C10002063E08E401EE0860DE0FFF72DF9C01B2B
:101C2000A84201D3681C00B92DB94FF0030A012066
:101C300084F8510020E0E08E0028DDD13A462946A4
:101C4000204600F0C1FD08B120206065A06850B9B1
:101C500000BF002000902068C06800902068806865
:101C6000009000BF00BF606D10B14FF0010A02E0AC
:101C7000012084F8510000BF00BF002084F850000C
:101C800000BF50462FE72DE9FF5F04468846914686
:101C90001D460E9E012002900020019000BF94F886
:101CA0005000012803D1022004B0BDE8F09F0120BC
:101CB00084F8500000BFFFF7DFF8074694F851B0F2
:101CC00060680390AA46BBF1010F0BD00398B0F5F2
:101CD000827F04D1A06810B9BBF1040F02D00220AA
:101CE0000190E9E0B8F1000F03D0B9F1000F00D086
:101CF00015B901200190DFE094F85100042802D0CA
:101D0000052084F8510000206065C4F83890E5870C
:101D1000A587C4F83080E586A586206460642068C5
:101D2000006800F04000402805D02068006840F0BE
:101D3000400021680860E068B0F5006F4DD1606830
:101D400010B1BAF1010F09D1206B00882168C86079
:101D5000206B801C2063E08E401EE08636E0206809
:101D6000806800F00200022810D1E08E70B1029865
:101D700001280BD1206B00882168C860206B801C73
:101D80002063E08E401EE08600200290206880687C
:101D900000F0010068B1E08F58B12068C068A16B05
:101DA0000880A06B801CA063E08F401EE0870120AC
:101DB0000290FFF761F8C01BB04207D3701C28B136
:101DC00003200190012084F8510075E0E08E002886
:101DD000C5D1E08F0028C2D14DE0606810B1BAF1E2
:101DE000010F09D1206B007821680873206B401C1B
:101DF0002063E08E401EE08637E02068806800F0B7
:101E00000200022810D1E08E70B1029801280BD197
:101E1000206B007821680873206B401C2063E08EE3
:101E2000401EE086002002902068806800F00100DB
:101E300068B1E08F58B12068C068A16B0870A06BD2
:101E4000401CA063E08F401EE08701200290FFF756
:101E500013F8C01BB04201D3701C00B92EB9032087
:101E60000190012084F8510026E0E08E0028C4D1C2
:101E7000E08F0028C1D13A463146204600F0A4FC4C
:101E800020B1012001902020606515E0A06850B9C4
:101E900000BF002000902068C06800902068806823
:101EA000009000BF00BF606D10B10120019002E002
:101EB000012084F8510000BF00BF002084F85000CA
:101EC00000BF0198F0E670B504462546681EB0F1E3
:101ED000807F01D301200FE0681E4FF0E0214861B0
:101EE0000F214FF0FF3000F025FF00204FF0E021E0
:101EF000886107200861002070BD704770470000AE
:101F00002DE9F84F0446206805682068C6682068F7
:101F100047694FF00009CA4605F00F09B9F1000FF3
:101F20000AD105F0200038B106F0200020B120468B
:101F300000F060FDBDE8F88FB9F1000F7BD007F02D
:101F4000010018B906F49070002874D005F0010063
:101F500030B106F4807018B1606C40F0010060642C
:101F600005F0040030B107F0010018B1606C40F0DA
:101F70000200606405F0020030B107F0010018B102
:101F8000606C40F00400606405F0080048B106F0A1
:101F9000200010B907F0010018B1606C40F0080093
:101FA0006064606C002845D005F0200028B106F080
:101FB000200010B1204600F01DFD20684069C0F3EC
:101FC000801A606C00F0080010B9BAF1000F2CD034
:101FD000204600F0C9FC2068406900F0400000B3D2
:101FE00000BF00BF2168143151E8001F21F04000FC
:101FF0002168143141E80002002AF3D100BFE06BF0
:1020000050B17748E16B4863E06BFEF7ABFC88B1F9
:10201000E06B416B88470DE02046FFF76FFF09E05A
:1020200009E02046FFF76AFF04E02046FFF766FF5D
:10203000002060647EE7206B012877D105F0100056
:10204000002873D006F010000028FAD000BF00204E
:10205000009020680068009020684068009000BFF1
:1020600000BF2068406900F0400000285FD0E06BAE
:10207000006840681FFA80F8B8F1000F55D0A08DB5
:10208000404552DDA4F82E80E06B8069202843D0C3
:1020900000BF00BF21680C3151E8001F21F480709F
:1020A00021680C3141E80002002AF3D100BF00BFD3
:1020B00000BF2168143151E8001F21F001002168A0
:1020C000143141E80002002AF3D100BF00BF00BF75
:1020D0002168143151E8001F21F0400021681431BB
:1020E00041E80002002AF3D100BF202084F842001A
:1020F0000020206300BF00BF21680C3151E8001FA1
:1021000021F0100021680C3141E80002002AF3D1CF
:1021100000BFE06BFEF7FAFB02206063A08DE28D4A
:10212000801A81B22046FFF7E8FE03E742E0A08D67
:10213000E18D401A1FFA80F8E08DD0B3B8F1000F9E
:1021400037D000BF00BF21680C3151E8001F21F4D7
:10215000907021680C3141E80002002AF3D100BFE1
:1021600000BF00BF2168143151E8001F21F00100B9
:102170002168143141E80002002AF3D100BF202079
:1021800084F842000020206300BF00BF21680C31AA
:1021900051E8001F21F0100021680C3141E80002D5
:1021A000002AF3D100BF0220606341462046FFF7BA
:1021B000A4FEBFE605F0800030B106F0800018B143
:1021C000204600F013FDB5E605F0400030B106F002
:1021D000400018B1204600F0FDFBABE600BFA9E6C9
:1021E0005529000810B504460CB9012010BDA0699E
:1021F00000B100E000BF94F8410028B9002084F845
:102200004000204600F02AF8242084F8410020688D
:10221000C06820F400502168C860204600F068FCC7
:102220002068006920F490402168086120684069B6
:1022300020F02A00216848612068C06840F40050FE
:102240002168C86000206064202084F8410084F880
:1022500042000020606300BFC8E7000010B586B0F0
:1022600004460020029003900490059041492068A4
:10227000884236D100BF4048C06940F400303E4932
:10228000C8610846C06900F40030019000BF00BF7B
:1022900000BF0846806940F00400886108468069F4
:1022A00000F00400019000BF00BF04200290022053
:1022B00003900320059002A93048FEF737FC082060
:1022C000029000200390049002A92C48FEF72EFCF7
:1022D000002211462620FEF755FE2620FEF742FE7C
:1022E00045E027492068884241D100BF2248C069A3
:1022F00040F480202049C8610846C06900F480206D
:10230000019000BF00BF00BF0846806940F0200078
:1023100088610846806900F02000019000BF00BF7E
:1023200088150290022003900320059002A9154809
:10233000FEF7FCFB4FF40070029000200390049025
:1023400002A91048FEF7F2FB00BF0F49486820F0D1
:10235000300040F0E06040F03000486000BF0022F4
:1023600011462720FEF70EFE2720FEF7FBFD06B0E4
:1023700010BD000000440040001002400008014071
:1023800000480040001401400000014070472DE962
:10239000F84F04460E46174699464FF0000A94F847
:1023A000410020284AD106B117B90120BDE8F88FB5
:1023B00000206064212084F84100FEF75DFD824624
:1023C000A784E784A068B0F5805F04D1206910B9C4
:1023D0000025B04602E035464FF000081BE05346AA
:1023E000002280212046CDF8009000F02FFC08B19B
:1023F0000320DBE745B9B8F80000C0F30800216806
:10240000486008F1020803E02878216848606D1CE4
:10241000E08C401EE084E08C0028E0D1534600228E
:1024200040212046CDF8009000F010FC08B10320B8
:10243000BCE7202084F841000020B7E70220B5E780
:10244000704700BFFEE700000EB50020009001902D
:1024500002901248124908600021114881600173FE
:1024600001754FF46021C16100200D4948600121D0
:102470000B480161FEF762F908B1FEF7ACF80B20DA
:102480000090012001900720029069460448FEF761
:10249000A5F808B1FEF79FF80EBD0000002401402A
:1024A0002C27002000B585B00020019002900390F9
:1024B000049000BF6648806940F01000644988615C
:1024C0000846806900F01000009000BF00BF00BF08
:1024D0000846806940F0040088610846806900F081
:1024E0000400009000BF00BF00BF0846806940F0B4
:1024F000400088610846806900F04000009000BFFD
:1025000000BF00BF0846806940F02000886108468F
:10251000806900F02000009000BF00BF00BF0846A7
:10252000806940F0080088610846806900F0080072
:10253000009000BF00BF012240F611014548FEF7A0
:1025400095FC002241F202014248FEF78FFC002276
:102550004FF4C0514048FEF789FC0122D1023F48A8
:10256000FEF784FC00224FF480513C48FEF77EFCCD
:10257000012208213A48FEF779FC41F60300019058
:102580000120029003900220049001A93148FEF737
:10259000CDFA1020019001200290039003200490B6
:1025A00001A92C48FEF7C2FA4FF4C0500190012057
:1025B0000290002003900320049001A92648FEF712
:1025C000B5FA4FF4C0500190012002900390022010
:1025D000049001A92148FEF7A9FA082001900120E2
:1025E0000290002003900220049001A91C48FEF7ED
:1025F0009DFA4FF4407001901A4802900120039018
:1026000001A91748FEF792FA03200190154802909D
:102610000120039001A91048FEF788FA0022114614
:102620000620FEF7AFFC0620FEF79CFC00221146B8
:102630000720FEF7A7FC0720FEF794FC00221146B6
:102640001720FEF79FFC1720FEF78CFC05B000BD9D
:102650000010024000080140001801400014014031
:10266000000C01400000111010B50E480E49086022
:102670004FF48270486000210B488160C1600161A5
:1026800041614FF4007181611021C161002101623B
:10269000416281620A21C162FFF7B6F808B1FDF715
:1026A0009AFF10BD003001405C27002010B50B4898
:1026B0000B4908604FF4E130486000210848816010
:1026C000C16001610C21416100218161C161FFF79D
:1026D00089FD08B1FDF77FFF10BD000000440040F8
:1026E000B427002010B50B480B4908604FF4E130C7
:1026F0004860002108488160C16001610C2141618E
:1027000000218161C161FFF76DFD08B1FDF763FF35
:1027100010BD000000480040FC27002000BFFEE77D
:1027200000BFFEE77047000008B508490968C908FE
:102730004FF47A72B1FBF2F14143009100BF00BF48
:1027400000994A1E00920029F9D108BD140000200A
:10275000F8B504460E4615466068B0F5827F0DD187
:10276000A068B0F5004F03D0A068B0F5806F05D128
:102770002068006820F04000216808606068B0F5BB
:10278000827F11D1A068B0F5806F0DD13346002251
:1027900001212046009500F02BF898B1606D40F0C3
:1027A000200060650320F8BD3346002280212046CA
:1027B000009500F01DF828B1606D40F020006065C4
:1027C0000320F0E70020EEE7F8B504460D46164674
:1027D0002B46002280212046009600F009F828B1FF
:1027E000606D40F0200060650320F8BD0020FCE72C
:1027F0002DE9F84F04460D4690461E46DDF8289018
:10280000FEF73AFBA0EB0900371AFEF735FB8246CC
:102810002C480068C0F3CB307843009045E0701C32
:10282000002842D0FEF728FBA0EB0A00B84200D2F5
:10283000A7BB2068406820F0E0002168486060681D
:10284000B0F5827F0DD1A068B0F5004F03D0A0682D
:10285000B0F5806F05D12068006820F04000216845
:102860000860A06AB0F5005F0DD100BF2068006865
:1028700020F40050216808602068006840F400508F
:102880002168086000BF012084F8510000BF0020CB
:1028900084F8500000BF0320BDE8F88FFFE70098E0
:1028A00000B900270098401E0090206880682840EA
:1028B000A84201D1012000E000204045AFD1002016
:1028C000EAE7000014000020704710B5FEF7DAFABE
:1028D00010BD00B595B028210BA8FDF75CFC1421B4
:1028E00006A8FDF758FC18216846FDF754FC0120A6
:1028F0000B9000040C9000200D9001200F900220FE
:102900001290C1031391C10414910BA8FEF74AFD64
:1029100008B1FDF760FE0F2006900220079000200E
:1029200008904FF48060099000200A90022106A8C8
:10293000FEF712FC08B1FDF74EFE02200090800366
:1029400002906846FEF770FB08B1FDF744FE15B033
:1029500000BD704770B505466C6A0020E085E084D4
:102960002046FFF7CBFA70BD00BF00BF02680C32F3
:1029700052E8002F22F4907102680C3242E80013F2
:10298000002BF3D100BF00BF00BF0268143252E831
:10299000002F22F001010268143242E80013002BDC
:1029A000F3D100BF016B01290ED100BF00BF026847
:1029B0000C3252E8002F22F0100102680C3242E87B
:1029C0000013002BF3D100BF202180F8421000211A
:1029D0000163704710B504462068C06820F04000CD
:1029E0002168C860202084F841002046FFF728FDB8
:1029F000002010BDF8B5044694F84200222875D195
:102A0000A068B0F5805F0CD1206950B90025A66A96
:102A100020684068C0F308003080A06A801CA06273
:102A200015E0A56A0026A068B0F5805F03D0A06815
:102A300028B9206918B920684068287004E0206827
:102A4000406800F07F002870A06A401CA062E08D02
:102A5000401E80B2E085002846D12068C06820F082
:102A600020002168C8602068C06820F48070216858
:102A7000C8602068406920F001002168486120207A
:102A800084F8420000206063206B012826D10020DA
:102A9000206300BF00BF21680C3151E8001F21F006
:102AA000100021680C3141E80002002AF3D100BF78
:102AB0002068006800F0100010280AD100BF002034
:102AC000009020680068009020684068009000BF77
:102AD00000BFA18D2046FFF710FA02E02046FFF765
:102AE00055FC0020F8BD01E00020FBE70220F9E7DB
:102AF00070B504462168096921F44051E268114328
:102B0000226811612269A1681143626941EA0205E4
:102B10002168C96841F20C62914329432268D1605F
:102B20002168496921F44071A26911432268516109
:102B30002D4A2168914202D1FEF7EAFB01E0FEF73F
:102B4000D7FB00EBC00101EB001162689200B1FB02
:102B5000F2F100EBC00202EB001263689B00B2FBD3
:102B6000F3F26423B2FBF3F202EBC20303EB0212B3
:102B7000A1EB8201322202EB01116422B1FBF2F1DE
:102B800001F0F00100EBC00202EB001263689B0051
:102B9000B2FBF3F26423B2FBF3F201EB021200EB9F
:102BA000C00101EB001163689B00B1FBF3F100EB86
:102BB000C00303EB00136668B600B3FBF6F36426AC
:102BC000B3FBF6F303EBC30606EB0313A1EB8301A0
:102BD000322303EB01116423B1FBF3F101F00F0188
:102BE00011442268916070BD00380140014691F89F
:102BF0004100212828D18868B0F5805F0BD1086991
:102C000048B90A6A1088C0F308000B685860086A5F
:102C1000801C086205E00B6A581C086218780B6873
:102C20005860C88C401E80B2C88458B90868C06813
:102C300020F080000B68D8600868C06840F0400051
:102C40000B68D860002070470220FCE72DE9F041B6
:102C500004460D4617469846069E34E0701C88B31D
:102C60002EB1FEF709F9A0EB0800B0422BD900BF46
:102C700000BF21680C3151E8001F21F4D070216899
:102C80000C3141E80002002AF3D100BF00BF00BFB1
:102C90002168143151E8001F21F00100216814312E
:102CA00041E80002002AF3D100BF202084F841004F
:102CB00084F8420000BF002084F8400000BF0320D9
:102CC000BDE8F081FFE7206800682840A84201D1F4
:102CD000012000E00020B842C0D00020F0E7000052
:102CE00010B50248FFF70CF910BD0000B427002012
:102CF00010B50248FFF704F910BD0000FC270020C2
:102D000000BFFEE70FB4054B10B503A9044A0298B3
:102D100000F034F810BC5DF814FB0000E13100084D
:102D20001800002002480068C0F30220704700002D
:102D30000CED00E010B5002804DB0A07130E054A6D
:102D4000135406E00A07140E034A00F00F031B1F7A
:102D5000D45410BD00E400E018ED00E002E008C823
:102D6000121F08C1002AFAD170477047002001E005
:102D700001C1121F002AFBD1704700002DE9FF4F4F
:102D80008DB00F460546002606E025280BD0DDE96C
:102D90000F1290476D1C761C28780028F5D111B0D1
:102DA0003046BDE8F08F0024A246A1460122EC493E
:102DB00000E0044315F8013F203B02FA03F008420B
:102DC000F7D128782A2810D06FF02F022878A0F1A8
:102DD0003001092914D80AEB8A0102EB410144F0C1
:102DE000020400EB010A6D1CF0E701CF5FEA000A64
:102DF00003D544F40054CAF1000A44F002046D1CE7
:102E000028782E2817D115F8010F44F004042A2839
:102E10000ED06FF02F022878A0F1300109290AD8CE
:102E200009EB890102EB410100EB01096D1CF2E79E
:102E300057F8049B6D1C28786C280FD006DC4C28B2
:102E400017D068280DD06A2814D104E0742810D057
:102E50007A280FD10DE044F400140AE044F4801401
:102E600001E044F440146978814202D104F58014F1
:102E70006D1C6D1C2A786E2A1FD00CDC632A31D0A1
:102E800004DC002A8BD0582A11D1A3E0642A68D030
:102E9000692A0CD165E0732A2ED004DC6F2A73D026
:102EA000702A04D19BE0752A6FD0782A6ED0104624
:102EB000DDE90F129047761C50E1C4F3025002285E
:102EC00006D0032809D0042801CF09D0066045E1C7
:102ED00001CFF117C0E9006140E101CF06803DE17B
:102EE00006703BE117F8040B8DF8000000208DF808
:102EF0000100EB46012003E057F804BB4FF0FF3020
:102F000061074FF0000102D40DE008F1010188468D
:102F100049450FDA8045F8DB1BF808100029F4D189
:102F200008E008F1010188468142FADB1BF808102D
:102F30000029F6D1DDE90F23AAEB080081462146DE
:102F400000F036F9304400EB080604E0DDE90F122A
:102F50001BF8010B9047B8F10108F7D2214648460B
:102F6000F7E00A21C4F302534FF0000B0891022B43
:102F700004D001CFC117032B09D00AE0FF1D27F0B1
:102F80000707F7E8020108E032E01FE020E000B2A6
:102F9000C117042B01D140B2C117031E71F1000308
:102FA00007DA4FF0000CD0EB0C006CEB01012D2385
:102FB00002E0230504D52B238DF82430012303E000
:102FC000E30701D02023F7E7984658E00A2110E0F4
:102FD00010210EE010204FF0000B08900CE01021A3
:102FE0004FF0000B44F004044FF00809089103E08F
:102FF00008214FF0000B0891C4F30253022B04D0B8
:1030000001CF0021032B06D006E0FF1D27F00707A4
:10301000F7E8020103E080B2042B00D1C0B24FF008
:10302000000823072BD5702A07D0DDF820C08CF0CC
:10303000100C5CEA0B0C05D00EE040238DF8243018
:10304000012308E050EA010306D030238DF8243034
:103050008DF8252002239846DDF820C08CF0080C5E
:103060005CEA0B0C0BD150EA010301D1630706D5D2
:1030700030238DF824304FF00108A9F10109582AB6
:1030800004D038A20B9208AA0A920BE03AA2F9E700
:103090005B46089AFDF797F80B9B9B5C0A9A521EB9
:1030A0000A92137050EA0102F2D10A98ADEB0000C7
:1030B00000F1200B600702D524F4803401E04FF0CA
:1030C0000109D94502DDA9EB0B0000E0002000EB6F
:1030D0000B0141440890AAEB010AE00306D4DDE9A4
:1030E0000F232146504600F063F806444FF00009D4
:1030F00008E009A911F80900DDE90F12904709F16C
:103100000109761CC145F4DBE0030CD5DDE90F2392
:103110002146504600F04CF8064404E0DDE90F1269
:1031200030209047761C0899481E08900029F5DC4D
:1031300008E00A980A990078491C0A91DDE90F1203
:103140009047761CBBF10001ABF1010BF1DC21468D
:103150005046DDE90F2300F019F806446D1C1BE60C
:10316000092801003031323334353637383961625D
:103170006364656600000000303132333435363721
:103180003839414243444546000000002DE9F041F2
:10319000044600251E461746880404D405E0394637
:1031A0002020B0476D1C641EF9D52846BDE8F0818B
:1031B0002DE9F041044600251E469046C80301D57E
:1031C000302700E02027880404D505E04146384632
:1031D000B0476D1C641EF9D52846BDE8F08100009B
:1031E00013B50C464FF6FF73012269460248FFF7FC
:1031F000CEF800981CBD0000B4270020FDF74EFE5D
:10320000FFF767FBFFF74EF9FFF76CFAFFF71CF9C2
:10321000FFF72AFAFFF74AFA72A0FFF773FDFDF7EE
:10322000B7F87748FDF7ECF875480078EF2801D03B
:10323000012000E0002072494978162901D00121BF
:1032400000E00021084318B16EA0FFF75BFD19E014
:1032500073A0FFF757FD0020764908600BE068482F
:10326000744A1268815C74A0FFF74CFD71480068D5
:10327000401C704908606F4800680228EFD35FA0C7
:10328000FFF740FD0020FDF71FF818B96CA0FFF70D
:1032900039FD02E070A0FFF735FD002065490860A8
:1032A0000FE0644801787348624A12688154002133
:1032B0007148604A126881545E480068401C5D494C
:1032C00008605C48006841F288318842E9D30A46C8
:1032D00000216848FDF7D4F818B968A0FFF712FD7F
:1032E00002E06BA0FFF70EFD41F288320021624838
:1032F000FDF754F818B96DA0FFF704FD02E070A0C7
:10330000FFF700FD75A0FFF7FDFC002049490860AC
:103310000BE05948474A1268815C75A0FFF7F2FC40
:1033200044480068401C434908604248006841F234
:1033300088318842EDD371A0FFF7E4FC41F2883276
:103340004D494C48FCF732FF18B96EA0FFF7DAFC84
:1033500002E073A0FFF7D6FC0020FCF7B5FF18B918
:1033600037A0FFF7CFFC02E03BA0FFF7CBFC41F218
:10337000883200214048FDF711F818B94BA0FFF73B
:10338000C1FC02E04EA0FFF7BDFC54A0FFF7BAFC61
:103390000020284908600BE03748264A1268815C03
:1033A00053A0FFF7AFFC23480068401C2149086088
:1033B0002048006841F288318842EDD34FA0FFF7E2
:1033C000A1FC41F288322C492A48FCF7EFFE18B9DB
:1033D0004CA0FFF797FC02E051A0FFF793FC00BF61
:1033E000FEE700000D0A205350492D573235517821
:1033F00078204578616D706C65200D0A0D0A00001B
:1034000000000020736F6D657468696E67207772C5
:103410006F6E6720696E205374657031200D0A004D
:1034200020573235517878204944206973203A205A
:1034300000000000040000203078253032582000C1
:10344000205153504920457261736520426C6F636F
:103450006B204F4B210D0A00736F6D657468696EA8
:10346000672077726F6E6720696E205374657032C3
:103470000D0A00001C000020A4130020205153500E
:1034800049205772697465204F4B210D0A000000D6
:10349000736F6D657468696E672077726F6E6720F1
:1034A000696E2053746570330D0A0000205153502B
:1034B000492052656164206F6B0D0A0D0A000000FF
:1034C000736F6D657468696E672077726F6E6720C1
:1034D000696E2053746570340D0A000051535049D1
:1034E00020526561642044617461203A200D0A0015
:1034F0003078253032582020000000000D0A0D0AD7
:1035000000000000205732355136344656205175A0
:1035100061645350492054657374204F4B0D0A0069
:103520002057323551363446562051756164535018
:103530004920546573742046616C73650D0A000060
:1035400002030405060708090A0B0C0D0E0F1010E4
:103550000102000000000000000001020304060751
:103560000809000000000102030400008C35000877
:10357000000000201C0000005C2D0008A835000899
:103580001C0000202C3000006C2D00080000000002
:10359000000000000000000010000000010000001A
:0835A0000024F400000000000B
:0400000508000131BD
:00000001FF
