:020000040800F2
:10000000983C0020450100084F3E0008C53A000812
:100010004D3E0008291700087D4D00080000000033
:100020000000000000000000000000007D43000808
:10003000611C000800000000513E000899460008BD
:100040005F0100085F0100085F0100085F01000810
:100050005F0100085F010008931C0008991C00085C
:100060005F0100085F0100085F0100085F010008F0
:10007000E1180008ED180008F91800080519000833
:10008000111900081D1900085F0100085F01000830
:100090005F0100085F0100085F0100089F1C000865
:1000A0005F0100085F0100085F0100085F010008B0
:1000B0005F0100085F0100085F0100085F010008A0
:1000C0005F0100085F0100085F0100085F01000890
:1000D0005F010008A54C0008BD4C0008C94C000891
:1000E0005F0100085F0100085F0100085F01000870
:1000F0005F0100085F0100085F0100085F01000860
:100100005F0100085F0100085F0100085F0100084F
:100110005D480008754800085F0100085F0100089D
:100120005F0100085F01000829190008351900085F
:10013000DFF80CD000F0A2FD00480047E1510008B4
:10014000983C00200648804706480047FEE7FEE747
:10015000FEE7FEE7FEE7FEE7FEE7FEE7FEE7FEE777
:100160001547000831010008202A04DB203A21FA53
:1001700002F00021704721FA02F3D040C2F12002C0
:10018000914008431946704710B5431A934209D26B
:100190008318881803E010F8011D03F8011D521E92
:1001A000F9D210BD40EA01039B0703D009E008C95A
:1001B000121F08C0042AFAD203E011F8013B00F82C
:1001C000013B521EF9D210BDD2B201E000F8012B62
:1001D000491EFBD270470022F6E710B513460A46C7
:1001E00004461946FFF7F0FF204610BD10B504463F
:1001F00004E00B7800F8013B03B1491C521EF8D211
:10020000204610BD421C10F8011B0029FBD1801AAA
:100210007047034611F8012B00F8012B002AF9D191
:100220001846704730B505460020034600E05B1CC9
:10023000934205D2EC5CC85C201A01D1002CF6D1A7
:1002400030BD000070B50F4D00B92868002412E0E1
:100250000A4602E09E4203D0521C1378002BF9D1CB
:10026000DAB2224305D02BB124B1002100F8011BE2
:1002700004E00446401C0678002EE9D128602046A0
:1002800070BD0000E00100200FB400B58DB010A9D2
:1002900009900B9000914FF0FF300A9000200C90D5
:1002A00005480690054807906A4609A80F9900F08E
:1002B00015FB0DB05DF814FBF908000817090008DC
:1002C0002DE9FF5F1D464FF0FF3BD5E90146914602
:1002D0005F464FF00008A9697F1C01988847296A8A
:1002E000824688470028F6D1BAF1FF3F0CD024F4AB
:1002F000C064002E19DD600614D5BAF12B0F09D0A9
:10030000BAF12D0F0ED103E0584604B0BDE8F09FBE
:1003100044F48064A9697F1C01988847761E824650
:10032000002E02DDBAF1300F03D0B9F1000F26D054
:1003300032E0A969761E44F400747F1C0198884756
:100340008246002E05DDBAF1780F06D0BAF1580FBB
:1003500003D0B9F1000F10D01EE0B9F1000F02D0A8
:10036000B9F1100F18D1A969761E24F400747F1C0E
:10037000019888478246102002E0082000E00A2009
:10038000814609E008FB0908A969761E44F4007457
:100390007F1C019888478246002E05DD494650465D
:1003A00000F087FA0028EDDAE96901988847A0058E
:1003B00002D46FF00100A8E7E00725D1600613D54D
:1003C000600502D5C8F1000000E0404629680A1D1A
:1003D0002A600968220501D5087015E0220701D5B9
:1003E000088011E008600FE02868011D296000689E
:1003F000210502D580F8008006E0210702D5A0F88B
:10040000008001E0C0F8008038467EE72DE9F04723
:1004100091460F4680460446002614F8015B2DB134
:1004200000F03AFA0068405DC007F6D12B2D02D0EB
:100430002D2D18D0641E4A463946204600F07CFA1D
:1004400027B13968A14201D1C7F8008071054FF08A
:1004500002040BD54042002803DD04F0B1FC046027
:10046000A007BDE8F08746F48066E4E70028F8DAE4
:1004700004F0A6FC04606FF00040F2E770B5064699
:1004800004F09EFC046805460A2200213046FFF76E
:10049000BDFF2C6070BD2DE9FE4F804681EA030050
:1004A000C00F0C46009021F0004123F00045B8EB4E
:1004B0000200A94105D24046214690461C460B4603
:1004C000024623F00040104347D0270DC7F30A002F
:1004D000C3F30A510290401A019040286BDAC3F32B
:1004E000130040F4801B0098924620B10023D2EB09
:1004F000030A63EB0B0B01985946C0F140025046CA
:1005000000F0A8F906460D4650465946019A00F0FB
:10051000B0F910EB08006141002487EA115284EA27
:10052000E7731A4340D0009A62B3019A012A4FEA56
:10053000075215DC001B61EB02014FF0004202EA9A
:100540000752CDE90042001C41F5801132462B468E
:1005500000F0D6FA03B0BDE8F08F40462146F9E737
:10056000001B61EB0201001C41F5801300185B4188
:100570002018A2F5001747EB030140EAD570B61921
:100580006D4111E06D084FEA360645EAC0754FEA45
:100590000752001B61EB0201001C41F58011490864
:1005A0004FEA30000019514132462B4603B0BDE8F6
:1005B000F04F00F096BA0098012240000023D0EBE3
:1005C000020263EBE073009821464FEAE074B8EB57
:1005D000000061EB0401E9E783F000435BE781F091
:1005E000004158E72DE9FE4F81EA030404F000447E
:1005F00021F0004100944FF0000B23F0004350EA3B
:1006000001045ED052EA03045BD0C3F30A54C1F381
:100610000A552C44A4F2F3340194A0FB0254C1F314
:10062000130141F48011C3F3130343F4801301FB5E
:10063000024400FB034E840A970A44EA815447EAC5
:100640008357A4FB076802958D0A05FB07854FEACF
:10065000932C04FB0C542705029D4FEA065847EAE9
:100660001637B5EB08056EEB070C870E920E47EABE
:10067000811742EA8312A7FB0201B6EB0B0164EB80
:1006800000042B0D43EA0C335E1844EB1C50DA4691
:100690005146E7FB0201C5F313044FEA0B3343EA6B
:1006A00014534FEA0432019C43EA0603A4F10C04FC
:1006B0000294009CCDE900B400F022FA03B0BDE83A
:1006C000F08F00200146F9E770B521F000430343A5
:1006D0000CD0C1F30A550024D5EB040564EB0403E8
:1006E000D617AD1AB34102DB0020014670BD2018B9
:1006F00041EB025170BD0EB5C10F80EAE0700844B5
:10070000CA07002140F233438DE80E000A460B462B
:1007100000F0F6F903B000BD0EB540F2334102918E
:100720000021CDE900110A460B4600F0E9F903B0BB
:1007300000BD20F00040C10DC0F3160040F40000E1
:100740007F2901DA00207047962903DCC1F1960168
:10075000C840704796398840704770B5C1F30A5257
:1007600001F000450024C1F3130140F2FF3341F4CE
:1007700080119A4201DA002070BD40F233439A4260
:10078000A2F2334203DC5242FFF7EEFC00E090405D
:100790002C43F1D0404270BDC1F30A5210B5C1F3F1
:1007A000130140F2FF3341F480119A4201DA002034
:1007B00010BD40F233439A42A2F2334203DC52426C
:1007C000FFF7D2FC10BD904010BD00F0004230F0A9
:1007D00000400AD0C10D01F56071C0F3160042EA75
:1007E0000151C2084007114370470020014670477D
:1007F00001F0004330B421F0004150EA010206D07C
:100800000A0DA2F56072C1F31301002A02DC30BCAC
:1008100000207047440F44EAC104C100E01830BC16
:1008200000EBC25000F026B930B50B46014600205F
:100830002022012409E021FA02F59D4205D303FAA2
:1008400002F5491B04FA02F52844151EA2F1010223
:10085000F1DC30BD202A04DB203A00FA02F100204E
:1008600070479140C2F1200320FA03F319439040EE
:100870007047202A06DBCB17203A41FA02F043EA00
:10088000E07306E041FA02F3D040C2F12002914049
:10089000084319467047000000487047805F000811
:1008A00010B50446FFF7F8FF0068005D00F0010096
:1008B00010BD3A2800D2303820F02002412A01D35E
:1008C000A2F13700884201D34FF0FF30704700009B
:1008D000026811441378016018467047D1600449DA
:1008E00051610449116200211161114600F0D8B92B
:1008F000D1080008A1080008426842B1016811F857
:10090000013B23B1521EC0E9001218467047012175
:10091000C160881E704742685AB1C368016843B914
:1009200083688B4205D0491E521CC0E9001200208A
:1009300070474FF0FF3070472DE9F05F8246007836
:10094000002715468B460AF10104B946302801D02C
:100950009DB113E014F8010B0127782803D0582823
:1009600001D045B10AE00DB1102D07D100271025A7
:1009700014F8010B02E0082500E00A250026B04625
:100980000EE005FB080005FB06F1012701EB104610
:100990001FFA80F8B6F5803F00D3B94614F8010B72
:1009A0002946FFF786FF0028EBDABBF1000F05D0E0
:1009B0000FB1641E00E05446CBF80040B9F1000FBF
:1009C00006D004F0FDF902210160C81EBDE8F09FC9
:1009D00048EA0640FAE700000FB4002300B589B0EA
:1009E0000CA900910B996FF00042CB601E4B06934F
:1009F0001E4B07930423CDE901321D4A089202469B
:100A00006B46002000F062FB09B05DF814FB70B586
:100A100086B006464FF0FF300091CDE9010100207D
:100A200015460C4604903246694604A8FFF7D4FFE9
:100A300002460498211825B108B1084600E0204676
:100A40002860049800280DD0002A02DD0098884212
:100A500008D0081B0094CDE901043246694604A879
:100A6000FFF7BAFF06B070BDF908000817090008C3
:100A7000A10800080029A8BF7047401C490008BF12
:100A800020F00100704710B4B0FA80FC00FA0CF0BE
:100A900050EA010404BF10BC704749B1CCF12004F6
:100AA00021FA04F411FA0CF118BF01212143084383
:100AB000A3EB0C01CB1D4FEA00614FEA102042BFAF
:100AC000002010BC704700EBC35010440029A4BFA5
:100AD00010BC7047401C490008BF20F0010010BC4A
:100AE000704710B5141E73F1000408DA401C41F180
:100AF000000192185B411A4301D120F0010010BDA2
:100B00002DE9F04D92469B4611B1B1FA81F202E017
:100B1000B0FA80F220329046FFF79CFE04460F4662
:100B200040EA0A0041EA0B0153465A46084313D0F3
:100B3000114653EA010019D0C8F140025046FFF7B0
:100B400013FB05460E46504659464246FFF782FEC5
:100B5000084305D0012004E020463946BDE8F08D69
:100B60000020054346EAE0762C4337430A986305A4
:100B7000E40AA0EB08000022FD0A44EA47540A30C8
:100B800002D500200146E9E7010510196941DDE9B8
:100B9000084500196941BDE8F04DA2E72DE9F04D87
:100BA00081EA030404F0004B21F0004514464FF0A5
:100BB000000A23F0004150EA050220D054EA010265
:100BC0001DD0C5F30A570246C5F31303C1F3130042
:100BD000C1F30A5640F4801543F48013A7EB0608CE
:100BE000101BD64608F2FD3873EB050002D308F15E
:100BF000010801E092185B41B8F1000F03DA002010
:100C00000146BDE8F08D00204FF480110646844671
:100C10000EE0171B73EB050705D3121B63EB0503EF
:100C200006434CEA010C49084FEA300092185B4138
:100C300050EA0107EDD152EA030012D082EA040023
:100C400083EA0501084305D0101BAB4106D20122FF
:100C5000002306E000224FF0004302E06FF00102A3
:100C600053101AEB06004CEB085110EB0A0041EB55
:100C70000B01BDE8F04DFFF734BF0000064C074DF7
:100C800006E0E06840F0010394E80700984710345C
:100C9000AC42F6D3FFF750FA845F0008A45F000867
:100CA0002DE9F34F8BB04FF0000801F10C000C461A
:100CB0004FF0010B46460DF1080A019062690121CF
:100CC00001989047051E2DD0252D2CD0216A8847EC
:100CD000C0B16269012101989047216A88470028C4
:100CE000F7D1411E62690198904700E0761CA16926
:100CF0000B988847216A88470028F7D1E1690B984B
:100D00008847DBE7A1690B9888470746A84201D1CD
:100D1000761CD3E7E1690B9888477F1C02D1B8F1B4
:100D2000000F6FD046E1002762693D4639460198C1
:100D300090472A2804D16269012101989047012532
:100D4000DFF884926269012101989047A0F1300197
:100D50000A290AD24F45E5DC07EB870100EB410782
:100D6000303FDFD445F01005ECE7E90601D46FF021
:100D700000476C280AD04C2814D0682815D06A285F
:100D80000DD074281CD07A281AD01DE06269012188
:100D9000019890476C2802D045F0040514E045F016
:100DA00002050DE045F020050AE062690121019885
:100DB0009047682802D045F0080505E045F4006535
:100DC0006269012101989047C4E9015765283DD027
:100DD00019DC58287AD00CDC452837D004DC2528CB
:100DE00026D0412831D131E046282FD047282CD1B8
:100DF0002CE05B2877D0612828D063287CD0642839
:100E000023D15AE0D0E06F2848D008DC66281DD0F6
:100E100067281BD0692821D06E2816D127E07028BA
:100E200045D0732868D0752847D078280DD14DE07B
:100E3000A1690B988847054625283FF469AFE16909
:100E40000B9888476D1C3FF46AAFB3E023466A46AF
:100E50006FF001000B9900F039F99EE045F0400079
:100E60006060A80723464FF0000236D43EE0E80752
:100E70007FF447AF2068011D21600068290501D576
:100E800006701BE7290701D5068017E7A90703D5D8
:100E9000F117C0E9006111E706600FE745F0400077
:100EA0006060A80723464FF0080216D41EE040F603
:100EB0000E0125EA0100606016E045F04000606028
:100EC000A80723464FF00A0207D40FE045F0400080
:100ED0006060A80708D5234610226FF001000B9927
:100EE000AFF3008059E007E0234610226FF00100C5
:100EF0000B99FFF7E5F950E04FF000094F464B46DC
:100F0000632802D05B2806D040E0E80601D4012027
:100F1000A06001273AE062690121019890475E28AC
:100F200005D14FF00109626949460198904721694E
:100F300039B900210A46534643F82120491C0829A3
:100F4000FADBB0B3216969B9C11700EBD162531163
:100F50000AEB830122F01F02821A01200B689040E5
:100F600003430B6062690121019890475D28E8D135
:100F7000B9F1000F09D00020514651F82020D2438A
:100F800041F82020401C0828F7DB02AB22460097DE
:100F90006FF001000B99AFF3008000280CDA401CC1
:100FA00008D1BBF1000F05D04FF0FF300DB0BDE808
:100FB000F08FFFE74046F9E7E90701D108F10108A2
:100FC00006444FF0000B79E6CCCCCC0C2DE9FF4F5A
:100FD000087881B09946FF2805D0491C2D2804D0F7
:100FE0000024002308E000230BE00124F9E703EBD1
:100FF000830300EB4303491C0878FF28F7D104B1B1
:101000005B4200200090147801462D2C01D02B2C3F
:1010100004D1521C2D2C12D00024009400251678E7
:10102000FF2E0ED00A24A0FB04C801FB0481002778
:1010300000FB0711521C16EB0C006941EFE701247D
:10104000EBE7994450EA01020ED00024AA4D26464F
:10105000DFF8A88200F056F982468B46B9F100000D
:1010600009DAC9F100071BE001980021C0E900116D
:1010700005B0BDE8F08F074612E0F80707D022461A
:101080002B4630464146FFF7ADFA064688462246D3
:101090002B4610461946FFF7A5FA04460D467F1069
:1010A000002FEAD1B9F1000F324643465046594667
:1010B00002DAFFF773FD01E0FFF794FA009A0AB134
:1010C00081F00041019AC2E90001D1E72DE9FF4F0B
:1010D0001F468DB0D7E901464FF0FF382E20454618
:1010E0004FF000090B90B9696D1C0E988847396A5A
:1010F000824688470028F6D1BAF1FF3F0AD024F48F
:10110000D064002E11DDBAF12B0F08D0BAF12D0FEB
:101110000BD102E0404611B0ABE744F48064B969FA
:101120006D1C0E9888478246761E6946600501D57B
:101130002D2000E02B208DF8000001F1010B0DF1B6
:10114000200809E0B9696D1C0E98884782460F98FF
:1011500044F40074761E0560002E02DDBAF1300FF3
:10116000F0D00B998A453ED144F0800406E00F99F7
:10117000681CA9F1010944F400740860B9696D1C88
:10118000761E0E98884782463028F0D02BE00B99C7
:101190008A4505D1200603D444F08004761E18E069
:1011A000504603F083FE08B30DF11301761E44F49C
:1011B00000748B4508D2AAF130000BF8010B200611
:1011C00007D5A9F1010003E0200602D409F10100CE
:1011D0008146A00502D50F99681C0860B9696D1C8D
:1011E0000E9888478246002ED1DC53E0002E51DD58
:1011F000BAF1650F02D0BAF1450F4BD1A00549D520
:10120000B9696D1C24F44074761E0E988847824696
:10121000002E0CDD2B2804D0BAF12D0F07D144F499
:101220008074B9696D1C0E9888478246761EE00569
:1012300001D52D2100E02B2108F8011BCDF82C80D1
:1012400021E00DF12901761E44F4007488450CD28A
:10125000AAF1300010F0FF0088F8000002D10B99CD
:10126000884509D908F1010806E0E00501D52448C0
:1012700001E042F20F708146B9696D1C0E988847F3
:1012800082460F980560002E04DD504603F00EFEE6
:101290000028D6D1F9690E988847FF208BF8000006
:1012A00088F800000020069007904B466A4608A97F
:1012B00006A8FFF78BFEA00502D46FF001002AE715
:1012C00014F0240F0AD0E00714D1DDE906123868C3
:1012D000031D3B600068C0E900120BE0DDE9060178
:1012E000FFF786FA0146E00704D13868021D3A602C
:1012F0000068016028460EE7000024400000F03F2F
:10130000F1D8FFFF0EB540F2334202920022CDE940
:1013100000221346FFF7F4FB03B000BD70B58C1834
:1013200010F8015B15F0070301D110F8013B2A11F9
:1013300006D110F8012B03E010F8016B01F8016BE6
:101340005B1EF9D12B0705D40023521E0DD401F8E2
:10135000013BFAE710F8013BCB1A921C03E013F8AB
:10136000015B01F8015B521EF9D5A142D8D30020E0
:1013700070BD000070B500252C461C4800F036FFFB
:1013800064211A4800F094FE18B9184800F0D0FD06
:101390000544641CE4B20A2CEFD30A20B5FBF0F03C
:1013A000FFF7BAF94FF06632114BFFF71BF96FF0F8
:1013B0000B02FFF789F90322FFF786F9FFF718FA06
:1013C000FFF703FA4FF033320A4BFFF705F96FF0DE
:1013D0000202FFF779F90022074BFFF703F9FFF745
:1013E00007FAFFF7A6F90549C88070BDE02800207C
:1013F00066660A403333304000005940D42800204C
:1014000070B5044600688168C943C90717D181686F
:1014100021F00101816001F0EFFA05460AE000BF0A
:1014200001F0EAFA401B022804D920688068C04312
:10143000C00706D020688068C043C007F0D00020F5
:1014400070BDA06A40F01000A062E06A40F00100A8
:10145000E062012070BD0000F8B500260446009649
:1014600000688168C943C9072DD0816841F0010136
:101470008160164816490068B0FBF1F000E0401E9C
:1014800000900028FBD101F0B7FA054616E000BF36
:1014900001F0B2FA401B022810D920688068C043CE
:1014A000C0070BD0A06A40F01000A062E06A40F0D4
:1014B0000100E06284F824600120F8BD20688068A3
:1014C000C043C007E4D10020F8BD0000DC010020CB
:1014D00040420F0070B5054600241249284600F02E
:1014E000C0FB641CE4B2022CF7D30E48401E4078C7
:1014F000432802D044280AD012E000240949284693
:1015000000F0AFFB641CE4B21D2CF7D308E000240C
:101510000449284600F0A5FB641CE4B2202CF7D354
:10152000012070BD9301002070B5054600242149BB
:10153000284600F096FB01221E49104602F07CFF6F
:10154000641CE4B2022CF2D31A4E761E7078432843
:1015500003D0442820D0002070BD0024154928461F
:1015600000F07FFB641CE4B21D2CF7D34FF47A70BB
:1015700001F0F2F810A11348FEF74BFE1148FEF7F8
:1015800041FE82B20F49042002F056FF40F6B83007
:1015900001F0E2F8012009E000240649284600F0A5
:1015A00060FB641CE4B2202CF7D30020B070012053
:1015B00070BD00009301002041542B455849540D43
:1015C0000A0000004B22002070B5264E05467078B8
:1015D000442817D1711C284600F043FB7078452839
:1015E00011D049280ED10122711C104602F024FFAF
:1015F00000241C492846491C00F033FB641CE4B25B
:101600000C2CF6D370BD002416492846491C00F066
:1016100028FB641CE4B2062CF6D3707853280CD057
:101620004528EFD100240F492846491C00F019FB3A
:10163000641CE4B2072CF6D370BD00240949284687
:10164000491C00F00EFB641CE4B2062CF6D306A184
:101650001548FEF7DEFDBDE8704064221249042003
:1016600002F0EABE92010020616161616161616125
:10167000616161616161616161616161616161615A
:101680006161616161616161616161616161776530
:1016900072746976696264626876646276696268A7
:1016A0007666640D0A0000004B22002070B50546E6
:1016B000174900F0D6FA1648401E4078412826D136
:1016C00000241349284600F0CCFA641CE4B2072C2D
:1016D000F7D310A11048FEF79CFD0F48FEF792FDCE
:1016E00082B20D49042002F0A7FE4FF47A7001F097
:1016F00033F80AA10848FEF78CFD0748FEF782FD83
:10170000BDE8704082B20449042002F095BE70BD6D
:10171000930100202B2B2B004B22002041542B4DFA
:1017200041433F0D0A000000FEE7000070B502F0E3
:1017300031FC02F05BFC02F0E7FEFFF71BFE00F05D
:101740006FF800F085F81C222C49012002F074FE8D
:101750000A222B49012002F06FFE082229490120AC
:1017600002F06AFE08222849012002F065FE274C9B
:10177000A078B0B11C222149042002F05DFE0A22AB
:101780001F49042002F058FE08221E49042002F0DE
:1017900053FE08221C49042002F04EFE042002F0F1
:1017A0008FFEE078002550B108221949012002F08F
:1017B00043FE08221649042002F03EFEE57020791F
:1017C00050B108221349012002F036FE08221149C7
:1017D000042002F031FE2571607928B108220E49FB
:1017E000042002F029FE6571A079002805D00822A6
:1017F0000A49042002F020FEA57170BDB82800201F
:10180000D4280020F00000200001002092010020D8
:10181000AA010020B2010020BA010020C20100206C
:1018200010B5084C4AF602200421208006480088A2
:10183000608006480088A080204603F0FEFB2081DF
:1018400010BD0000D4280020280000202C0000201B
:1018500010B5164C4AF6012020801548B0F88010CB
:101860006180B0F87C10A180B0F87810E180818AA6
:101870002181018B6181818BA181008CE0810D48E8
:1018800010F8341F218230F80C1C6182017FA18284
:101890000949008AE082D1E91001FEF77DFF20832B
:1018A0000D21204603F0C9FB608310BDB82800203D
:1018B00080030020F8010020E002002010B54FF462
:1018C000847003F0AFFA0446FF20C4F80401411C01
:1018D000C4F800012046FEF77EFC204610BD000043
:1018E000014800F09FBD0000542C0020014800F08A
:1018F00099BD0000102C0020014800F093BD0000AD
:10190000442B0020014800F08DBD0000002B00207A
:10191000014800F087BD0000882B0020014800F03E
:1019200081BD0000CC2B0020014800F07BBD0000F1
:10193000782A0020014800F075BD0000BC2A002074
:1019400030B590F840500124AC40C56B6C60046821
:1019500063604368102B036803D099600068C2601D
:1019600030BD9A600068C16030BD0000F0B500274E
:10197000244C1125244E01290ED0052930D101799E
:10198000C078324603F09EFBB17904F1F8003029AB
:1019900027D0312929D025E00179C0781A4A03F0EF
:1019A00091FB1848B179E830302902D0312904D0B0
:1019B00000E0F1790546477105E0F1793129F9D167
:1019C0002946054641710F4B09335A1C062102F185
:1019D000DE0000BF03F03EFBA07AA871607AE871D8
:1019E000F0BDF1790546477105E0F1793129F9D16A
:1019F000294605464171034B09335A1C062102F161
:101A0000EE00E7E7080000203A2200202DE9F0412F
:101A100086B0002552A180468DF804508DF80C50F8
:101A2000D1E90001CDE904014F49404600F019F920
:101A30004D4E3078411E0D2970D88DF811000024CC
:101A400004AF4949404600F00CF93919641C30785C
:101A5000E4B28870062CF4D3082204A9032002F013
:101A6000EBFC01AB03AA062104A803F0F3FA9DF8EE
:101A700016009DF80C1088426BD19DF817009DF858
:101A80000410884265D19DF81100384C384E0E285C
:101A90005DD2DFE800F05C070B1726323F44484C6C
:101AA0005050545804A800F033F952E02F4A0B214B
:101AB000304803F0DEFA2F482178C1726178017353
:101AC00001460AE0294A0B212B4803F0D2FA2A48A2
:101AD0002178C172617801730146052002F010FD82
:101AE00037E0234A0B21254803F0C3FA2348317815
:101AF000C1727178017301460AE01D4A0B2120482A
:101B000003F0B7FA1E483178C1727178017301464B
:101B10000120E3E704A802F0DBFA1AE01EE004A8C3
:101B200002F090FA15E004A802F016FD11E0154944
:101B3000012008700DE004A802F00CFA09E004A8E6
:101B400002F00CFB05E004A802F044FB01E0049560
:101B500005950495059506B0BDE8F0810020FAE7EB
:101B6000BB000000000000009201002016000020D1
:101B70001400002078010020850100205E01002073
:101B80006B010020A501002010B5154A0129A2F122
:101B90001C0413D0052910D141791170817951703D
:101BA000C17891700079D070104603F0A1FA2069D5
:101BB0004FF4AA6190FBF1F0606210BD41791170A1
:101BC00081795170C17891700079D070044803F028
:101BD0008FFA2069842190FBF1F0206210BD000093
:101BE00024000020F0B5002601271C4C012915D047
:101BF000052929D104F58075C178297100796871AA
:101C000004F109035A1C0621284603F023FAA07A9E
:101C1000A871607AE8712879D8B918E00F4DC178B9
:101C2000F035A5F1E7032971007968715A1C062186
:101C3000284603F00FFAA07AA871607AE871287933
:101C400008B9687908B16770F0BD6670F0BD687951
:101C500008B1A770F0BDA670F0BD0000080000201C
:101C6000704710B50C46034602F04EF910B14FF024
:101C7000FF3010BDD3F80021521CD01702EB1060CA
:101C800020F0FF00101AC3F80001185C207000203B
:101C900010BD012000F09ABD022000F097BD10B5E4
:101CA0004FF4807000F092FDBDE810404FF40070DA
:101CB00000F08CBD10B50C46034602F02DF910B1B2
:101CC0004FF0FF3010BDD3F80421521CD01702EBA7
:101CD000106020F0FF00101AC3F804011C5400200B
:101CE00010BDF0B516460D46074600240AE02978D7
:101CF0003846FFF7DFFF002802DA4FF0FF30F0BD73
:101D0000641C6D1CB442F2D30020F0BD72B6FEE735
:101D10008178222905D1C078222802D101490120E9
:101D200008707047A701002070B50A4C2078002881
:101D30000FD0094E4FF480552946304600F04EFE34
:101D4000C82000F009FD2946304600F047FE00207B
:101D5000207070BDA701002000180140F8B50025D3
:101D60000446009590F8240001280BD0012084F847
:101D700024002046FFF744FB2046FFF76DFB0600DA
:101D800002D050E00220F8BDA06A20F4885040F054
:101D90000200A062022000F0CDFE25490968B1FBD7
:101DA000F0F0400000E0401E00900028FBD12068C9
:101DB000816841F00801816000F01EFE074608E0DE
:101DC00000F01AFEC01B0A2803D9206880680007AB
:101DD00015D4206880680007F2D42068816841F03B
:101DE0000401816000F008FE074612E000F004FEE6
:101DF000C01B0A280DD920688068400709D5A06A51
:101E000020F0020040F01000A06284F8245001206D
:101E1000F8BD206880684007E8D4A06A20F002007E
:101E200040F00100A06284F824503046F8BD000064
:101E3000DC010020F8B50024009490F82420254609
:101E4000012A12D0012280F824204A681F23072A81
:101E50000DD20668776B521E02EB820293409F43BD
:101E60000B6893401F43776319E00220F8BD0668B2
:101E70000D2A0AD2376BD21F02EB820293409F4396
:101E80000B6893401F43376309E0F76A0D3A02EB92
:101E9000820293409F430B6893401F43F7620A6896
:101EA000072306680A2A0AD3F7680A3A02EB4202B5
:101EB00093409F438B6893401F43F76008E0376966
:101EC00002EB420293409F438B6893401F4337616C
:101ED0000A68102A01D0112A20D1124B02689A42B6
:101EE00017D193681B0219D4936843F400039360DD
:101EF0000968102912D10C490C4A0968B1FBF2F1AA
:101F000001EB8101490000E0491E00910029FBD14D
:101F100004E0816A41F020018162012480F82450AC
:101F20002046F8BD00240140DC01002040420F00A3
:101F30000068C06C704700002DE9F04104004FF0CC
:101F400000057FD0A06A002628B9E66284F82460E4
:101F5000204600F081F82046FFF752FAA16AC90630
:101F600000D420B1A06A40F01000A0626AE0A16A2B
:101F700021F4885141F00201A162334923688B4268
:101F8000E16904D1B1F5402F01D14FF40021277B45
:101F90004FF4807C41EA470261680A43A1686145C9
:101FA00008D0012906D0002194F814E0BEF1010FF9
:101FB00002D00AE06146F7E7C7B1A76A47F02007F9
:101FC000A762E76A47F00107E7625F6827F469479D
:101FD0000F435F60236899681C4F39401143996033
:101FE000A16861450BD0012909D00CE0DFF860E061
:101FF000A7690EEB47370F4347F40061E5E7218AF5
:102000000D05A5F580152168CB6A23F470032B43D9
:10201000CB62216889680F4B1940914208D1E66272
:10202000A16A21F0020141F00101A162BDE8F08145
:10203000A06A20F0020040F01000A062E06A40F0C8
:102040000100E0620120F1E7003C0140FDF7E1FF03
:1020500000E0FFFFFE0E1FFF00B585B000210091DC
:1020600001910291039100680E49884218D10E48EF
:10207000816941F400718161816901F40071049109
:10208000816941F0100181618069694600F01000AA
:1020900004900220009003200190044800F0A2FB6D
:1020A00005B000BD002401400010024000100140B6
:1020B0002DE9F84300270D460446009700F09CFCEC
:1020C000804620688168C90508D5A06A40F02000D4
:1020D000A06284F824700120BDE8F8834168C90536
:1020E00003D4C06A10F4700F2AD0022000F022FD41
:1020F0003B490968B1FBF0F62068036939490B4296
:102100004FEA61014FEAA1121FD1C3684FEA611C77
:1021100013EA0C0F19D103690B4225D1C068104294
:1021200022D1142023E0681C0AD02DB100F064FCF9
:10213000A0EB0800A84203D920680068800725D5D5
:10214000206800688007EED52DE003690B4202D1BC
:10215000C168114206D0026923490A4206D1C0680B
:10216000084203D1542002E0292000E0FC2046432D
:10217000009816E0681C11D02DB100F03DFCA0EBDA
:102180000800A8420AD90098B04207D2A06A40F0DD
:102190000400A06284F8247003209DE70098401C8E
:1021A0000090B042E6D321686FF012000860A06A88
:1021B00040F40070A06220688068C0F342400728A5
:1021C0000CD1207B50B9A06A20F48070A062A06A74
:1021D000C00403D4A06A40F00100A06200207BE7A5
:1021E000DC010020244992244992240070B5044661
:1021F00090F8240001280DD0012084F82400204606
:10220000FFF72AF902004FF0000005D084F82400FF
:10221000104670BD022070BDA16A40F201239943AF
:1022200041F48071A1621F4D23681F49AB4218D150
:102230000E6816F4702F14D0A66A46F48016A662B3
:102240000E68760505D5A66A26F4005646F4805633
:10225000A662A66AF6040AD5E66A26F00606E662D3
:1022600006E0A66A26F48016A6625E68E9E7E062E8
:1022700084F824006FF00200186020688368C3F3BC
:102280004243072B05D1A84208D1096811F4702FE9
:1022900004D0816841F480118160B9E7816841F41C
:1022A000A001F9E7002801400424014010B590F88E
:1022B00021100022022905D00421816380F820200A
:1022C000012010BD01680B6823F00E030B6001684C
:1022D0000B6823F001030B6090F84030C46B0121C0
:1022E00001FA03F3636080F8211080F82020104683
:1022F00010BD00002DE9F05F90F8211000240229A4
:1023000003D004218163012485E001680A6822F07A
:102310000E020A6001680A6822F001020A603F4E5C
:102320003E4FB215DFF8F4C0DFF8F090DFF8ECA014
:10233000DFF8E8B0DFF8E4E00168783F1301150248
:10234000ACF1640CA9F15009AAF13C0AABF1280BDD
:10235000AEF1140E4FF48018B14227D9B9420ED015
:10236000614512D049451DD0514518D0594518D066
:10237000714501D1424615E0294EB14201D10122F9
:1023800010E0274E1436B14201D110220AE0244E4B
:102390002836B14206D0224A3C32914201D11A4637
:1023A00000E02A461E49091F0A602BE0B94213D0FB
:1023B000614517D0494522D051451DD059451DD002
:1023C000714501D142461AE0B14202D14FF080720C
:1023D00015E0134EB14201D1012210E0104E143627
:1023E000B14201D110220AE00D4E2836B14206D08A
:1023F0000B4A3C32914201D11A4600E02A46074975
:1024000080394A60012180F82110002180F82010D5
:10241000416B01B188472046BDE8F09F8000024033
:10242000080402402DE9F05FC16B0A6801680B687F
:10243000046C4FF0040808FA04F8844D844E854F6C
:10244000DFF814C2DFF81492DFF814A2DFF814B238
:10245000DFF814E218EA020F65D05FEA437862D52C
:102460000A68920603D40A6822F004020A60DFF8C0
:10247000F0814FF48062016808F11408130114021E
:10248000414524D9A9420DD0B1420FD0B9421AD04A
:10249000614515D0494515D0514501D1120312E0CF
:1024A000594501D104220EE0714501D140220AE0D4
:1024B0006D4D1435A94206D06B4A2832914201D1A4
:1024C0001A4600E022466749091F0A6029E0A9422E
:1024D00013D0B14215D0B94220D061451BD0494537
:1024E0001BD0514502D14FF4800217E0414502D183
:1024F0004FF0806212E0594501D104220EE071458F
:1025000001D140220AE0584D1435A94206D0564A5E
:102510002832914201D11A4600E022464B4908393F
:102520004A60C16A71E04FF0020808FA04F818EA3C
:10253000020F70D05FEA83786DD50A68920606D4E0
:102540000A6822F00A020A60012180F82110DFF8EF
:1025500010814FF40072016808F11408130114028D
:10256000414524D9A9420DD0B1420FD0B9421AD069
:10257000614515D0494515D0514501D1120312E0EE
:10258000594501D102220EE0714501D120220AE015
:10259000354D1435A94206D0334A2832914201D133
:1025A0001A4600E022462F49091F0A6029E0A94285
:1025B00013D0B14215D0B94220D061451BD0494556
:1025C0001BD0514502D14FF4001217E0414502D112
:1025D0004FF0007212E0594501D102220EE0714520
:1025E00001D120220AE0204D1435A94206D01E4A0E
:1025F0002832914201D11A4600E022461349083997
:102600004A60002180F82010816A00291CD0BDE8B2
:10261000F05F0847FFE70825A540154214D01A07C8
:1026200012D50A6822F00E020A6090F84020C36BAF
:10263000012101FA02F25A60816380F82110002121
:1026400080F82010016BE0E7BDE8F09F0800024031
:102650001C0002403000024044000240580002408A
:102660006C000240080402401C04024030B560B116
:102670001A4B026814219A4209D2194B1344B3FB36
:10268000F1F18900016417490AE0012030BD134BC4
:102690005B421344B3FBF1F1890001640F4908392F
:1026A000C163022180F82110136843F6F0718B4357
:1026B000F0E901142143D0E902452C432143046988
:1026C0002143446921438469214319431160002156
:1026D0004163012242770177084630BD0804024079
:1026E000F8FFFDBF0000024070B5044690F82000DE
:1026F000002501280CD0012084F8200094F82160E6
:102700000020012E06D084F820000225284670BD46
:10271000022070BD022684F82160A063206806684C
:1027200026F0010606602046FFF70AF9E06A002855
:102730002068016802D041F00E0106E021F004019A
:1027400001602068016841F00A01016020680168A9
:1027500041F001010160D9E770B5044600F04CF981
:102760000546601C02D004480078044400F044F997
:10277000401BA042FAD370BDD001002010B5044622
:1027800000F03AF90C490A68821A052A0DD308604C
:102790000120022C0AD0012C0AD0B4F5007F09D008
:1027A000B4F5807F01D10549087010BD0449FBE7ED
:1027B0000449F9E70449F7E7CC010020980100201B
:1027C000950100209601002097010020044910B5D2
:1027D0000A68024202D00860FFF7D0FF10BD000077
:1027E000140401402DE9F84FDFF8C8910024A9F145
:1027F000040B23460F2709F1040AABF1040ED1E0C4
:102800000125A54006EA0502AA4276D1DFF8A8C153
:102810004E68A6EB0C0866452BD00DDC032E34D099
:1028200005DC36B3012E19D0022E2FD11BE0112E5C
:1028300016D0122E2AD119E0B8F5881F19D006DC5F
:10284000B8F5803F15D0B8F5801F1FD111E0B8F55D
:10285000001F0ED0B8F5041F18D10AE0CB6815E0B0
:10286000CB681B1D12E0CB6808330FE0CB680C333C
:102870000CE08B682BB1012B4FF0080303D04561AE
:1028800004E0042302E0056100E00023FF2A01D8F0
:10289000064601E000F104064FEA840501D9A5F1DE
:1028A0002005D6F8008007FA05FC28EA0C0803FA90
:1028B00005F548EA0508C6F800804D68ED0070D5BA
:1028C0003E4DAE6946F00106AE61AD6924F00306E7
:1028D00005F0010500953A4D06EB050CDCF80850B3
:1028E000A607360F07FA06F825EA0805DFF8D480B0
:1028F000404503D14FF0000825E052E0DFF8C880E2
:10290000404502D14FF001081DE0DFF8C08040458E
:1029100002D14FF0020816E0DFF8B480404502D142
:102920004FF003080FE0DFF8AC80404502D14FF0D4
:10293000040808E0DFF8A080404502D14FF0050808
:1029400001E04FF0060808FA06F848EA0508CCF856
:1029500008804D68D9F80060ED024D4601D5164358
:1029600000E096432E604D68DAF80060AD025546EF
:1029700001D5164300E096432E604D68DBF80060F9
:10298000AD035D4601D5164300E096432E604D68C9
:10299000DEF80060ED03754601D5164300E096436E
:1029A0002E60641C0A681646E2407FF429AFBDE839
:1029B000F88F0000080401400000111000100240D0
:1029C0000000014000080140000C014000100140DF
:1029D0000014014000180140001C0140C26821EAB7
:1029E00002030A4043EA0241016170470AB10161F2
:1029F00070470904FBE70000014880687047000049
:102A0000D00100200248816802781144816070473B
:102A1000D0010020074810B5016841F010010160A5
:102A2000032000F075F80F2000F006F800F024F8FD
:102A3000002010BD0020024070B50D4D04464FF43B
:102A40007A712878B1FBF0F00A490968B1FBF0F01F
:102A500000F0B2FB48B9102C07D200222146501ECC
:102A600000F036F800206C6070BD012070BD0000E1
:102A7000D0010020DC0100200C4808B5816941F03C
:102A800001018161816901F001010091C16941F099
:102A90008051C161C06900F08050009004484168D5
:102AA00021F0E06141F00071416008BD001002407A
:102AB00000000140002809DB00F01F0201219140C5
:102AC0004009800000F1E020C0F8001170470000CC
:102AD000F0B40E4B1B680C46C3F30223C3F1070589
:102AE000042D00D90425191D072901D2002300E077
:102AF000DB1E012606FA05F1491E214099409E4041
:102B0000761E16403143F0BC02F04AB90CED00E0ED
:102B1000064900F0070208684FF6FF03184040EA34
:102B20000220034A10430860704700000CED00E0EB
:102B30000000FA0510B501460020274C04292FD0CB
:102B40000BDC012930D0022929D100F06BF9616832
:102B5000C1F38131491C49001FE0082920D0102908
:102B60001DD161682268D20119D51C48C1F3834286
:102B7000C903805C0AD56168184AC1F34041921EBE
:102B8000515C174AB2FBF1F1484301E01549484353
:102B90006168490203D440000321B0FBF1F010BD8D
:102BA000BDE8104000F04EB9226AC2F301210129AC
:102BB00003D1920701D5C80310BD022905D1626A6D
:102BC000920702D549F6404010BD0329FCD1216887
:102BD0008903F9D5044810BD00100240D45E0008F6
:102BE000001BB70000093D00366E01002DE9F843D7
:102BF00005460078354CC00754D0E0690026C00077
:102C000008D4E06940F08050E061E069012600F0FE
:102C1000805000902E480168C90512D40168804692
:102C200041F480710160FFF7E7FE074605E000BF51
:102C3000FFF7E2FEC01B642823D8D8F80000C005C7
:102C4000F6D5206A10F4407021D0A98801F44071B3
:102C500081421CD0206A1F49012220F440700A6082
:102C600000220A602062C00711D0FFF7C5FE0746A8
:102C700041F2883808E000BFFFF7BEFEC11B4145A6
:102C800002D90320BDE8F883206A8007F4D5206AC2
:102C9000696820F44070084320621EB1E06920F0AA
:102CA0008050E0612878800705D56068A96820F425
:102CB0004040084360602878C00605D560686969AF
:102CC00020F48000084360600020DBE70010024031
:102CD00000700040400442422DE9F0470F460500D5
:102CE00061D0434E306800F00700B84209D2306826
:102CF00020F0070038433060306800F00700B84229
:102D000051D128683B4C810712D5400703D5606834
:102D100040F4E06060602878000703D5606840F404
:102D2000605060606068A96820F0F000084360604F
:102D30002878C00728D06868012810D021680228A8
:102D400010D0890700292EDA616821F003010143C0
:102D50006160FFF751FE804641F288390DE021683D
:102D60008903EFE78901EDE7FFF746FEA0EB0801D5
:102D7000494502D90320BDE8F0876068696800F022
:102D80000C00B0EB810FEFD1306800F00700B842C3
:102D90000BD9306820F0070038433060306800F00D
:102DA0000700B84201D00120E5E72878400705D5A3
:102DB0006068E96820F4E0600843606028780007F4
:102DC00006D56068296920F4605040EAC10060605F
:102DD00000F038F86168084AC1F30311515CC8403B
:102DE0000649086006480068FFF726FE0020C2E793
:102DF0000020024000100240E45E0008DC010020D8
:102E0000D40100200448054900684968044AC1F318
:102E10000221515CC8407047DC01002000100240D4
:102E2000F45E00080448054900684968044AC1F393
:102E3000C221515CC8407047DC01002000100240F4
:102E4000F45E00080F4A516801F00C00042803D01A
:102E5000082803D00C4870470C4870470C48C1F351
:102E60008343C903C05C0AD55168094AC1F3404194
:102E7000921E515C054A5043B0FBF1F07047054982
:102E8000484370470010024000127A00001BB70050
:102E9000C25E000800093D002DE9F84F040070D023
:102EA0002078C04DC00749D06868C0F38100012870
:102EB00007D06868C0F38100022809D16868C003A0
:102EC00006D52868800339D560680028E7D035E04A
:102ED0006068B0F5803F0BD010B1B0F5A02F11D0D5
:102EE000286820F480302860286820F4802002E0E0
:102EF000286840F480302860606890B1FFF77CFD5E
:102F000006460AE0286840F480202860F0E700BF09
:102F1000FFF772FD801B642873D828688003F7D5FB
:102F20000CE0FFF769FD064605E000BFFFF764FD12
:102F3000801B6428F0D828688003F7D420789A4E44
:102F400080074FF001094FF0000839D5686810F08C
:102F50000C0F07D06868C0F38100022809D16868A7
:102F6000C00306D42868800714D52069012808D139
:102F700010E02069B0B1C6F80090FFF73DFD0746AC
:102F800005E00AE1FFF738FDC01B0228C4D8286815
:102F90008007F7D52868616920F0F80040EAC10091
:102FA00028600DE0C6F80080FFF726FD074604E024
:102FB000FFF722FDC01B022823D828688007F7D41A
:102FC000207800072CD57948A169D9B1C0F80090C4
:102FD000FFF712FD074604E0FFF70EFDC01B0228B5
:102FE0000FD8686A8007F7D571484FF4FA51006826
:102FF000B0FBF1F0009000BF0098411E0091FAD2A2
:103000000EE080E0C0F80080FFF7F6FC074604E021
:10301000FFF7F2FCC01B022875D8686A8007F7D456
:103020002078400760D5E8690027C00008D4E86927
:1030300040F08050E861E869012700F0805000907E
:103040005C480168C90513D40168834641F4807166
:103050000160FFF7D1FC824606E000BFFFF7CCFC21
:10306000A0EB0A0064284ED8DBF80000C005F5D5B7
:10307000E06801280AD008B1052813D0286A20F09A
:1030800001002862286A20F0040002E0286A40F06B
:1030900001002862E06841F2883B98B1FFF7ACFC80
:1030A00082460BE0286A40F004002862EEE700BF89
:1030B000FFF7A2FCA0EB0A0159455AD8286A8007FD
:1030C000F6D50CE0FFF798FC824605E0FFF794FC8C
:1030D000A0EB0A0159454CD8286A8007F6D41FB1E5
:1030E000E86920F08050E861E06988B36968C1F35D
:1030F0008101022944D00228C6F8608004D0FFF77D
:103100007BFC044638E034E0FFF776FC074604E039
:10311000FFF772FCC01B02282BD828688001F7D467
:10312000206AB0F5803F05D16868A16820F40030BE
:1031300008436860D4E908010843696821F4741100
:1031400008436860C6F86090FFF756FC044606E046
:1031500025E000BFFFF750FC001B022809D82868B3
:103160008001F7D51BE000BFFFF746FC001B0228DB
:1031700002D90320BDE8F88F28688001F4D40EE05E
:103180000128F7D06868226A00F48031914204D1A6
:10319000616A00F47010884201D00120EAE7002043
:1031A000E8E7000000100240000042428004424272
:1031B000DC0100200070004010B5401EB0F1807F9F
:1031C00001D3012010BD4FF0E02460610F21601792
:1031D00001F0E6FD0020A06107202061002010BD65
:1031E00018B5034690F84200202801D0022018BDEF
:1031F00061B15AB10120186300205863184601F0EC
:10320000F9FC0028F3D1196B012901D0012018BD68
:1032100019680A684968009119680C3151E8002F53
:1032200042F0100241E80024002CF5D118BD000046
:1032300010B500680B4A904213D10B4802F06EF8AB
:103240004FF4806421460848FCF7C5FF0748007822
:10325000002806D12246BDE8104003490448FFF784
:10326000BFBF10BD00500040AF240020A5010020CA
:103270005829002070470000F8B501680446086826
:10328000CA684B6910F00F0F4FF0000559D003F0DA
:10329000010602F49077374365D0C10705D0D10508
:1032A00003D5616C41F001016164410705D5D9077F
:1032B00003D0616C41F002016164810705D5D90733
:1032C00003D0616C41F004016164010707D502F08D
:1032D0002001314303D0616C41F008016164616CED
:1032E00000293AD0800604D5900602D5204601F088
:1032F0007BFB20684069616CC0F38010090700D433
:1033000060B3204601F03BFB20684069400621D5B0
:103310002068143050E8001F21F0400140E80012FE
:10332000002AF5D1E06BA8B16D494163E06BFEF76F
:10333000E1FF002811D0E06B416B01B0BDE8F04027
:10334000084783060FD593060DD52046BDE8F84003
:1033500001F04ABB2046FFF78DFFF8BD2046FFF77E
:1033600089FF6564F8BD266B2023012E7CD1C6063B
:103370007AD5D60678D508684868009048694FF035
:103380000206400640D5E16B086840680004000C66
:10339000E8D0A28D8242E5D9E085886920282DD029
:1033A00020680C3050E8001F21F4807140E80012C2
:1033B000002AF5D12068143050E8001F21F00101E7
:1033C00040E80012002AF5D12068143050E8001FB0
:1033D00021F0400140E80012002AF5D184F8423083
:1033E000256320680C3050E8001F21F0100140E8F0
:1033F0000012002AF5D1E06BFEF758FF6663A08D3E
:10340000E18D401A81B22AE0A08DE18D401A81B28F
:10341000E08D0028A6D00029A4D022680C3252E802
:10342000000F20F4907042E80007002FF5D12068CB
:10343000143050E8002F22F0010240E80027002F4E
:10344000F5D184F84230256320680C3050E8002F15
:1034500022F0100240E80023002BF5D166632046DD
:10346000FFF7E6FEF8BDFFE705062BD5150629D5C3
:1034700094F841002128F5D1A068B0F5805F01D112
:103480002069B0B1206A411C21622168007848603F
:10349000E08C401E0004000CE084E3D12068C16889
:1034A00021F08001C1602068C16841F04001C16025
:1034B000D8E7206A0088C0F308004860206A801CB2
:1034C0002062E5E74006CDD55006CBD5CA68204638
:1034D00022F04002CA6084F8413000F0F2FAC1E7FD
:1034E0008148000870B5040004D094F8410000251C
:1034F00010B106E0012070BD84F84050204600F075
:1035000023F8242084F841002068C16821F4005188
:10351000C160204601F0CAFA2068016921F4904197
:1035200001612068416921F02A0141612068C16878
:1035300041F40051C1606564202084F8410084F8A2
:1035400042006563002070BD2DE9F04F85B0002575
:1035500000950195029503950446DFF8748303688E
:10356000DC4802210322DFF870C310268027434580
:1035700054D1C36943F40023C361C36903F4002336
:103580000493836943F0100383618069039200F020
:10359000100004904802CDE900016946E04660460B
:1035A000FFF720F9F001CDE9000569464046029594
:1035B000FFF718F9DFF82883C8494046B946C0E943
:1035C0000015C0E902572021C8F81050C8E905517C
:1035D000C8F81C50FFF74AF808B1FEF797FBC04F38
:1035E000BE48C4F83C8044372830C8F824403860CE
:1035F000C7E90165C7E903957D61BD613846FD6195
:10360000FFF734F808B1FEF781FBA76300221146EB
:1036100034207C62FFF75CFA342035E0DFF8C482A6
:10362000DFF8C4B24FF00409434532D1C36943F413
:103630008013C361C36903F480130493836943F067
:1036400010038361836903F010030493836943F0DB
:10365000200383618069039200F0200004904FF4FE
:103660008050CDE9000169466046FFF7BBF8CDE91F
:103670000095694658460295FFF7B4F800221146B6
:103680003520FFF725FA3520FFF714FA05B0BDE81D
:10369000F08FDFF85882DFF858C24FF4007A4345C4
:1036A00056D1836943F480438361836903F4804383
:1036B0000493836943F0040383618069CDE900A129
:1036C00000F00400CDE903206946E0466046FFF7BC
:1036D00089F84FF48060CDE90005694640460295BF
:1036E000FFF780F8DFF8F881824908F18808404642
:1036F000B946C0E90015C0E902572021C8F81050AA
:10370000C8E90551C8F81C50FEF7B0FF08B1FEF734
:10371000FDFA734F7748C4F83C80CC371438C8F8AA
:1037200024403860C7E90165C7E903957D61BD6143
:103730003846FD61FEF79AFF08B1FEF7E7FAA76386
:103740000022114625207C62FFF7C2F925209BE765
:10375000DFF8A481434555D1C36943F40033C36105
:10376000C36903F400330493836943F00403836162
:103770008069CDE9009100F00400CDE9032069469D
:10378000E0466046FFF72EF80820CDE900056946BF
:1037900040460295FFF726F8DFF86081554940461C
:1037A0001431C0E90015C0E90257C8F81050C8F834
:1037B0001450C8F81850B946C8F81C50FEF756FF08
:1037C00008B1FEF7A3FA4D4F4A48C4F83C8044378D
:1037D0002830C8F824403860C7E90165C7E9039577
:1037E0007D61BD613846FD61FEF740FF08B1FEF71F
:1037F0008DFAA7630022114626207C62FFF768F944
:10380000262041E7DFF8F8C063457FF43FAFC36986
:1038100043F48023C361C36903F480230493836961
:1038200043F0200383618069039200F0200004903C
:103830004FF48070CDE9000169465846FEF7D2FF8B
:10384000CDE900A5694658460295FEF7CBFF2D4805
:10385000416821F0300141F0E06141F03001416008
:10386000DFF89880234908F1880840462839C0E9E4
:103870000015C0E90257C8F81050C8F81450C8F82D
:103880001850B946C8F81C50FEF7F0FE08B1FEF714
:103890003DFA1A4F1748C4F83C80CC373C38C8F87A
:1038A00024403860C7E90165C7E903957D61BD61C2
:1038B0003846FD61FEF7DAFE08B1FEF727FAA76386
:1038C0000022114627207C62FFF702F92720DBE661
:1038D000004C004000100240001001403004024043
:1038E000782A0020005000400014014000380140B8
:1038F000000801405800024000440040882B00208E
:10390000004800400000014090F84230202B01D0D8
:103910000220704721B11AB10023036301F022B9DC
:103920000120704790F84230202B01D002207047D0
:1039300021B11AB10023036301F05CB90120704783
:1039400070B5006814490025884208D1134C2078CE
:103950002178C0F5807212480144124816E01249DD
:10396000884208D100F046FFBDE8704001220F49AF
:103970000F48FFF7D7BF0F4988420BD10E4C207874
:103980002178C0F580720D4801440D480068FEF7AB
:10399000A8F9257070BD000000380140A801002082
:1039A000AF2200209C01002000440040A401002020
:1039B000E8290020004C0040A9010020AF2300208E
:1039C000A001002070B500680F49884209D10F4C52
:1039D00020782178C0F180050D482A4601440D4821
:1039E0000BE00D4988420ED10C4C20782178C0F1B3
:1039F00080050B482A4601440A480068FEF771F921
:103A000020782844207070BD00380140A8010020B3
:103A1000AF2200209C010020004C0040A9010020A2
:103A2000AF230020A00100202DE9F843044690F8C0
:103A300041001F4616460D46202802D00220BDE850
:103A4000F8837DB176B100206064212084F84100C4
:103A5000FEF7D2FFA6848046E684A068B0F5805FBA
:103A600002D003E00120EAE7206910B12E460025CC
:103A70000EE000260CE08021204601F0D6F8A0B927
:103A8000AEB116F8010B21684860E08C401EE0845E
:103A9000E08C43464FF0000200970028EBD14FF036
:103AA0004001204601F0C1F830B10320C7E735F8E6
:103AB000020BC0F30800E6E7202084F84100002054
:103AC000BDE77047FEE700003EB5002111480091B8
:103AD00001910F4A02910260816001730175012416
:103AE0004FF460220461C2614160FEF725FA08B11B
:103AF000FEF70CF90B20CDE900040720029069467F
:103B00000448FEF797F9002801D0FEF7FFF83EBD04
:103B100000240140E0280020294808B5416941F00F
:103B200001014161416901F001010091416941F0E8
:103B3000020141614069002200F00200009011463C
:103B40000C20FEF7C5FF0C20FEF7B4FF0022114643
:103B50000D20FEF7BDFF0D20FEF7ACFF0022114641
:103B60000E20FEF7B5FF0E20FEF7A4FF002211463F
:103B70000F20FEF7ADFF0F20FEF79CFF002211463D
:103B80001020FEF7A5FF1020FEF794FF002211463B
:103B90001120FEF79DFF1120FEF78CFF0022114639
:103BA0003A20FEF795FF3A20FEF784FF00221146E7
:103BB0003B20FEF78DFFBDE808403B20FEF77ABFB3
:103BC000001002402DE9F04F85B0002553480095C4
:103BD000019502950395816941F010018161816928
:103BE00001F010010491816941F004018161816952
:103BF00001F004010491816941F040018161816912
:103C000001F040010491816941F0200181618169E5
:103C100001F020010491816941F00801816180690E
:103C2000DFF8FC8000F008000490012240F601015A
:103C30004046FEF7DBFE002241F202014046FEF75D
:103C4000D5FEDFF8E0B04FF4C057002239465846A1
:103C5000FEF7CCFEDFF8D0900122D1024846FEF7F5
:103C6000C5FE00224FF480514846FEF7BFFEDFF844
:103C7000BCA0012208215046FEF7B8FE0124F81C22
:103C8000CDE900040226CDE9024669464046FEF72A
:103C9000A9FD01AA4FF00308009782E830016946A8
:103CA0005846FEF79FFDCDE90074CDE9024669460E
:103CB0004846FEF797FD08208DE87100694650469A
:103CC000FEF790FD1A4DF810CDE900056946029403
:103CD0005046FEF787FDCDF80080CDE901546946D6
:103CE0005846FEF77FFD002211460620FEF7F0FE43
:103CF0000620FEF7DFFE002211460720FEF7E8FE51
:103D00000720FEF7D7FE002211461720FEF7E0FE3F
:103D10001720FEF7CFFE05B0BDE8F08F001002407F
:103D2000000801400018014000140140000C01404F
:103D3000000011100C4810B50A4901604FF4E13140
:103D40004160002181600C22C160C0E904128161E0
:103D5000C161FFF7C7FB002803D0BDE81040FDF7A5
:103D6000D5BF10BD004C0040102900200C4810B5F4
:103D70000A4901604FF416514160002181600C2214
:103D8000C160C0E904128161C161FFF7ABFB00288B
:103D900003D0BDE81040FDF7B9BF10BD0050004092
:103DA000582900200C4810B50A4901604FF4E13150
:103DB0004160002181600C22C160C0E90412816170
:103DC000C161FFF78FFB002803D0BDE81040FDF76D
:103DD0009DBF10BD00380140A02900200C4810B53F
:103DE0000A4901604FF4E1314160002181600C22F9
:103DF000C160C0E904128161C161FFF773FB002853
:103E000003D0BDE81040FDF781BF10BD0044004065
:103E1000E82900200C4810B50A4901604FF4E1314F
:103E20004160002181600C22C160C0E904128161FF
:103E3000C161FFF757FB002803D0BDE81040FDF734
:103E400065BF10BD00480040302A0020FEE7FEE7B5
:103E5000704700007FB5294D002440F6F346E8790D
:103E6000012822D1E8782979884206D1EC702C719A
:103E700031462348FCF7AFF917E000EB800101EB76
:103E8000C0001F4900940194029403940144EC7112
:103E90000D226846FCF778F90D226946022000F0F1
:103EA000CBFA0094019402940394287A012824D137
:103EB0006879A979884208D16C71AC7104B0314637
:103EC000BDE870400F48FCF786B900EB800101EBBC
:103ED000C0000C49009401940294039401442C7294
:103EE0000D226846FCF750F90D226946022000F0C9
:103EF000A3FA00940194029403947FBD080000206B
:103F00005606002047150020D0E94010814201D11B
:103F10000120704700207047D0F80411D0F800014C
:103F2000491CCA1701EB126222F0FF02891A814272
:103F300001D1012070470020704700F5807003C850
:103F4000814201DB081A02E0C0F58070084480B2AB
:103F50007047000010B5807801280DD0052816D1D3
:103F600008220B4900F00CFA09490822B039052053
:103F7000BDE8104000F004BA0549082208390120C4
:103F800000F0FEF902490822B8390120F0E710BD1F
:103F9000E800002070B54FF47A750F4C17E06D1EE5
:103FA000ADB24FF0010010D2207040F6F3410B4843
:103FB000FCF711F94FF4FF710948FCF70CF90949B6
:103FC000002008700849087070BDFEF7C5FB207816
:103FD0000028E4D0012070BD0F000020560600200C
:103FE000580400200B0000200C00002070B54FF496
:103FF0007A750F4C17E06D1EADB24FF0010010D274
:10400000207040F6F3410B48FCF7E5F84FF4FF71E0
:104010000948FCF7E0F809490020087008490870D1
:1040200070BDFEF799FB20780028E4D0012070BD18
:104030001000002047150020491300200D0000202B
:104040000E0000201CB50021019101AA0091431827
:104050009B785354491CC9B20429F8D3104601F087
:1040600047F8164C206900EB4010810014A06161F4
:1040700000F086FE6946606901F082F804F59174EB
:104080009DF8000020729DF80100E0719DF802008B
:10409000A0729DF803006072A4F58B720B2120467C
:1040A00000F0E7FFA4F58B700D220178E1724078F3
:1040B00020732146012000F063F91CBD0800002098
:1040C000416E676C65436F756E74313D25640A00FF
:1040D0001CB50021019101AA009143189B7853540B
:1040E000491CC9B20429F8D3104601F001F8164C56
:1040F0004FF4AA602169414314A0A16100F040FE81
:104100006946A06901F03CF804F22F149DF8000004
:1041100020729DF80100E0719DF80200A0729DF8E8
:1041200003006072A4F221120B21204600F0A1FFCF
:10413000A4F221100D220178E1724078207321460B
:10414000052000F01DF91CBD08000020416E676CC1
:1041500065436F756E74353D25640A001CB50021FA
:10416000019101AA009143189B785354491CC9B28C
:104170000429F8D3104600F0BBFF1449086900EB8E
:10418000401080004861694600F0FAFF104C9DF82D
:104190000000A4F5987220729DF80100E0719DF86E
:1041A0000200A0729DF8030060720B21204600F00F
:1041B00060FFA4F598700D220178E17240782073B9
:1041C0002146012000F0DCF81CBD000008000020A2
:1041D000440100201CB50021019101AA009143185F
:1041E0009B785354491CC9B20429F8D3104600F0F7
:1041F0007FFF14494FF4AA620869504388616946F9
:1042000000F0BEFF104C9DF80000A4F23B1220729B
:104210009DF80100E0719DF80200A0729DF8030076
:1042200060720B21204600F024FFA4F23B100D2207
:104230000178E172407820732146052000F0A0F853
:104240001CBD000008000020510100202DE9F041B4
:104250008046FFF759FE00281BD14046FFF76DFE50
:104260000446072815D301460BA000F089FD002560
:104270002F46104E0BE037700E494046FDF7F1FC1B
:104280003078BB2802D14046FDF7C0FB6D1CA5422B
:10429000F1DBBDE8F081000020717565756553693B
:1042A0007A65206973202B2B2B2B2B2B2025640A5E
:1042B000000000009201002070B50546FFF724FEC3
:1042C00004462846FFF739FE194E2DE02846FFF731
:1042D0001BFE04462846FFF730FE15492846491CB8
:1042E000FDF7BFFC7078532812D004DC442807D0B7
:1042F0004D2819D110E0572806D0BB2814D10FE063
:104300002846FDF761F90FE02846FDF7CFF90BE0ED
:104310002846FDF709F907E02846FDF7DBF803E03A
:1043200004492846FFF792FF002CCFD070BD000053
:10433000920100201029002010B5FDF7F5FC074C74
:104340002078401CC0B22070192803D1FDF7EEF987
:1043500000202070BDE81040FFF77CBDA6010020C2
:1043600010B5FDF7ABFA03490860FDF7A7FA02495B
:10437000086010BD9C010020A001002070470000D3
:104380002DE9F0410E460025264C40F6F3414FF44E
:10439000FF7701281AD0052816D1A079FF2837D237
:1043A00000EB800101EBC0001F4908443146FBF7D8
:1043B000EBFE1E49A079B27801F8102001EB400114
:1043C000F2784A70401CA071BDE8F0812079FF2886
:1043D00014D200EB800101EBC000154908443146BE
:1043E000FBF7D2FE13492079B27801F8102001EBD7
:1043F0004001F2784A70401C2071E5E70C48FBF759
:10440000EAFE39460B48FBF7E6FEE5702571DBE76F
:104410000548FBF7E0FE39460448FBF7DCFE657112
:10442000A571D1E70800002047150020491300209E
:10443000560600205804002070B514460D46012889
:104440000CD002280DD003282BD004282CD11748DB
:104450004FF47A73BDE87040FFF7E6BA0A231448B8
:10446000F8E7144E012211463046FEF7BFFA01224A
:1044700002213046FEF7BAFA0A23224629460E48A0
:10448000FFF7D2FA002201213046FEF7AFFA0022F0
:1044900002213046FEF7AAFABDE870403220FEF74E
:1044A0005BB964230548D5E770BD000010290020E2
:1044B000A029002000080140E8290020302A00201F
:1044C00070B50B4D06460024287828B1082209490A
:1044D0003046FFF7B1FF2C70074D2878002805D033
:1044E000082206493046FFF7A7FF2C7070BD000078
:1044F00009000020F80000200A0000200801002028
:104500000D22FFF73DBF000010B508221149012020
:10451000FFF736FF0F49082208310520FFF730FF6B
:104520000C49082210310120FFF72AFF094908220F
:1045300018310520FFF724FF064908222031012009
:10454000FFF71EFF034908222831BDE8104005206F
:10455000FFF716BFB000002010B504468078012890
:1045600003D10D220649FFF70BFFA078052806D1DD
:1045700003490D22BDE810400D31FFF701BF10BD0A
:104580001001002010B5082242490120FFF7F8FE73
:1045900040490D22E0310120FFF7F2FE3D4908229B
:1045A00010310120FFF7ECFE3A4A06211C3A02F1D5
:1045B0003C0000F05EFD37481C3800F13C010278F9
:1045C0008A714078C87108220120FFF7D9FE31496D
:1045D000082230310120FFF7D3FE2E490822503146
:1045E0000120FFF7CDFE2B49082240310120FFF7C3
:1045F000C7FE2849082260310120FFF7C1FE254986
:10460000082270310120FFF7BBFE22490822083141
:104610000520FFF7B5FE1F490D22ED310520FFF7FC
:10462000AFFE1C49082218310520FFF7A9FE194AE0
:1046300006211A3A02F1420000F01BFD15481A3813
:1046400000F1420102788A714078C8710822052081
:10465000FFF796FE0F49082238310520FFF790FE3C
:104660000C49082258310520FFF78AFE0949082223
:1046700048310520FFF784FE0649082268310520ED
:10468000FFF77EFE034908227831BDE8104005207F
:10469000FFF776BE30000020FEF7B4B930B595B014
:1046A00028216846FBF797FD14210AA8FBF793FD24
:1046B00018210FA8FBF78FFD01210804CDE9001098
:1046C0000025029502240491CDE9074000010990DC
:1046D0006846FEF7E1FB08B172B6FEE70AA90F20B3
:1046E00081E831004FF48060CDE90D0502210AA870
:1046F000FEF7F2FA08B172B6FEE74FF400401190EF
:104700000F940FA8FEF772FA002801D072B6FEE7E8
:1047100015B030BD7047000030B508460978012556
:10472000314C01290ED0052920D1214643782F4A4A
:104730004979062B02EB410233D0102B31D0032BE9
:1047400039D036E0284B42782949DB78062A01EB3C
:10475000430104D0102A02D0032A0AD007E0497886
:10476000C078814203D1E5715B1CE37030BDE57117
:1047700030BD4978042908D0062902D0A3290BD1DD
:1047800007E00121FDF7F2F806E00121FDF7FCF951
:1047900002E00121FDF726FAE571E078401CE070A7
:1047A00030BD5278C078824203D12572491C6171B4
:1047B00030BD257230BD5178042908D0062902D0B9
:1047C000A3290BD107E00521FDF7D0F806E005216C
:1047D000FDF7DAF902E00521FDF704FA25726079A8
:1047E000401C607130BD000008000020491300200B
:1047F0005804002030B51648174C164D0178207823
:104800002954401CC0B2207003280CD169780329B8
:1048100004D0062919D0102917D004E0A97802295C
:104820000FD004290FD0E17A884209D10949FFF756
:1048300073FF0020286068602872FF21E1722070F9
:1048400030BD072002E0092000E00820E07230BD02
:10485000A4010020AF2800200800002010B5044863
:10486000FEF70AFDBDE81040014800F033BA000031
:10487000102900200148FEF7FFBC00005829002045
:1048800010B5406A0021C185C184FEF7F3FC10BD5C
:1048900070B5446A2068406994F84110C0F3C010B4
:1048A0000025212904D118B1E584204600F08EF8B6
:1048B0002068406994F84210C0F38010222904D186
:1048C00018B1E585204600F05AF8606C40F0100001
:1048D00060642046FEF7CEFC70BD10B50146406A0C
:1048E000096809684FF0000289062ED4C285016864
:1048F0000C3151E8003F23F4807341E80034002C70
:10490000F5D10168143151E8003F23F0010341E87B
:104910000034002CF5D10168143151E8003F23F038
:10492000400341E80034002CF5D1202180F84210EA
:10493000016B012909D101680C3151E8003F23F0D6
:10494000100341E80034002CF5D14263016B0129CA
:1049500002D0FEF7F5FF10BD818DFEF769FC10BD9A
:1049600010B5406A01214163016B012902D0FFF7B4
:1049700029F810BD818D4908FEF75AFC10BD016869
:104980000C3151E8002F22F4907241E80023002BF3
:10499000F5D10168143151E8002F22F0010241E8FD
:1049A0000023002BF5D1016B012909D101680C31DD
:1049B00051E8002F22F0100241E80023002BF5D12E
:1049C000202180F8421000210163704701680C31FA
:1049D00051E8002F22F0C00241E80023002BF5D15E
:1049E000202180F84110704708B590F84210222924
:1049F00001D0022008BD82684FF480539A4201D151
:104A0000016921B1816A9A421BD04AB10AE0026869
:104A1000816A5268C2F308020A80816A891C08E030
:104A2000026972B10268526802F07F020A70816AFC
:104A3000491C8162C18D491E0904090CC18503D03E
:104A40001BE002685268F1E70168CA6822F02002A0
:104A5000CA600168CA6822F48072CA6001684A6943
:104A600022F001024A61202180F8421000214163B6
:104A7000026B012A03D0FEF763FF002008BD01632B
:104A800001680C3151E8002F22F0100241E80023A8
:104A9000002BF5D101680A68D20602D50A68496878
:104AA0000091818DFEF7C4FBE7E7000070B5044676
:104AB00000680169E26821F44051114301612169F4
:104AC000A0680843616908432168CA6841F20C6321
:104AD0009A430243CA6020684169A26921F4407187
:104AE000114341611E492068884202D1FEF79AF9BC
:104AF00001E0FEF787F900EBC00101EB00126068EE
:104B000064218000B2FBF0F3B3FBF1F36FF0180601
:104B10007343B2FBF0F5B2FBF0F605EB83053223ED
:104B200003EB0515B5FBF1F5B6FBF1F605F0F00565
:104B300005EB0615B2FBF0F6B2FBF0F0B0FBF1F0BE
:104B40006FF01802504306EB800003EB0010B0FB3F
:104B5000F1F0216800F00F002844886070BD00006B
:104B60000038014038B58162044682850020134632
:104B70006064222284F84220E56B1B4AAA62E56B3E
:104B80001A4AEA62E56B1A4A2A63E26B50630A46E4
:104B90002168E06B091DFDF7A7FD206801684068EA
:104BA0000090206948B120680C3050E8001F41F4A3
:104BB000807140E80012002AF5D12068143050E8D6
:104BC000001F41F0010140E80012002AF5D12068E1
:104BD000143050E8001F41F0400140E80012002A64
:104BE000F5D1002038BD0000DB480008614900080D
:104BF0009148000881628285C2850021416422219A
:104C000080F84210016921B10168CA6842F48072DB
:104C1000CA6001684A6942F001024A610068C168DD
:104C200041F02001C160002070472DE9F041984615
:104C300017460E460446069D27E0681C25D02DB178
:104C4000FDF7DAFEA0EB0800A8421ED920680C3060
:104C500050E8001F21F4D07140E80012002AF5D17D
:104C60002068143050E8001F21F0010140E80012D4
:104C7000002AF5D1202084F8410084F84200002069
:104C800084F840000320BDE8F0812068006836EA1F
:104C9000000004D00020B842CFD00020F3E701206C
:104CA000F9E7000010B50448FEF7E6FABDE8104049
:104CB000014800F00FB80000A02900200148FEF7CD
:104CC000DBBA0000E82900200148FEF7D5BA000051
:104CD000302A002038B500681C49884216D11C488B
:104CE00000680168C943C9062FD401684068009074
:104CF000184800684068184CC0F580702178451A43
:104D0000164821782A460144154818E0154988427A
:104D10001BD1154800680168C943C90615D401684C
:104D200040680090114800684068114CC0F58070E0
:104D30002178451A0F4821782A4601440E48006818
:104D4000FCF7CFFF20782844207038BD00380140A0
:104D5000A0290020002B0020A8010020AF22002065
:104D60009C010020004C004010290020782A0020DF
:104D7000A9010020AF230020A0010020FEE70000D1
:104D80000FB4054B10B503A9044A029800F096F839
:104D900010BC5DF814FB0000AD500008E4010020D9
:104DA0000907090E002804DB00F1E02080F8001458
:104DB000704700F00F0000F1E02080F8141D7047EC
:104DC00000487047F001002030B528B1144C031F93
:104DD000002021680A4605E0084630BD9A4203D803
:104DE00010465268002AF9D1002800D041680BD043
:104DF0000468A3EB0005A54204D11B681C440346CC
:104E0000046002E0436000E023603AB11C68D51AF8
:104E1000A54203D115682C441C6052685A6030BD0D
:104E2000E80100202DE9F04782460F4C10480D4E56
:104E30000E4F001B4FF0000820F007054FF001094E
:104E400000221146504600F0A3F9002802D1306834
:104E500010B10020BDE8F0873C60C4E90058C6F8F6
:104E60000090EDE7EC0100209C2C0020E8010020E0
:104E7000983400200148006870470000F0010020CD
:104E800002E008C8121F08C1002AFAD17047704713
:104E9000002001E001C1121F002AFBD17047000071
:104EA0000149086070470000F001002030380A28EE
:104EB00001D2012070470020704700002DE9FF4F0C
:104EC00089B09B460446002506E025280BD05A46AB
:104ED0000B999047641C6D1C20780028F5D10DB00B
:104EE0002846BDE8F08F0027B8460122474900E078
:104EF000074314F8013F203B02FA03F00842F7D1C0
:104F000020782E2819D114F8010F47F004072A2819
:104F10000ED06FF02F022078A0F1300109290CD8B3
:104F200008EB880102EB410100EB0108641CF2E789
:104F30000A98641C50F8048B0A9020780028CED080
:104F4000642808D0692806D075281ED05A460B99C7
:104F500090476D1C58E00A994FF00A0901C90A915F
:104F6000002802DA40422D2102E0390504D52B2128
:104F70008DF82010012103E0F90704D02021F7E784
:104F80008A4608AE0DE00021FAE70A994FF00A09B7
:104F900001C90A91F7E74946FBF746FC303106F8AC
:104FA000011D0028F7D1ADEB060000F120097807BC
:104FB00001D44FF00108C84502DDA8EB090000E06C
:104FC00000208046002706E008A85A46C05D0B99DD
:104FD00090476D1C7F1C5745F6DB04E030205A4695
:104FE0000B9990476D1CB8F10001A8F10108F5DCA0
:104FF00005E016F8010B5A460B9990476D1CB9F164
:105000000001A9F10109F4DC641C65E7092801002D
:1050100030B583B00446FFF72DFF05460020CDE9EB
:105020000000024621466846FBF7F1FC2846FFF7E0
:1050300037FFDDE9000103B030BD10B500231A468B
:1050400004E030F81240521C234492B28A42F8D352
:1050500098B210BD70B500252C4603E0065D641CB7
:105060003544E4B28C42F9D3E84300211170187042
:1050700070BDF0B54FF6FF7300244AF201060EE052
:10508000055D6B400025DF0702D086EA530300E090
:105090005B086D1CEDB2082DF5D3641CA4B28C42E4
:1050A000EED31370180A5070F0BD000013B54FF620
:1050B000FF73012269460248FEF7B6FC00981CBD4A
:1050C000302A002030B541EA00210F205FF00104B2
:1050D00004FA00F30B4201D0312300E03023C0F189
:1050E0000F05401E5355F3D50020107430BD00004D
:1050F000064B10B5002211461A61445C491CC9B226
:1051000044EA02220429F8D31A6110BD08000020E5
:105110002DE9F0410646FBF775F8044600254000EE
:10512000FFF780FE02460020014630230DE0375C89
:105130005754375C2C2F06D137187F782C2F02D18B
:10514000491C6D1C5354401C491CA042EFDB00203D
:1051500050542944104600F0ABF8002803D103A0B6
:10516000FFF70EFE0020BDE8F0810000E58685E532
:10517000AD98E58886E9858DE5A4B1E8B4A50A0077
:105180000870020A4A70020C8A70000EC8707047DC
:105190002DE9F0410B3020F00706104D19E0206892
:1051A000B04215D3B0420AD9871B201DD4F8048021
:1051B000FAF7EAFFA019C0E90078286004E0606807
:1051C0002860201DFAF7E0FF201D2660BDE8F08171
:1051D000251D2C68002CE2D10020F7E7E801002013
:1051E000FDF718FCFFF75AFAFEF7ECFCFEF794FC0B
:1051F000FEF7BCFDFEF7D6FDFEF7F0FDFEF70AFE5A
:10520000FEF798FDFEF760FCFFF7AAF81D4800685E
:10521000C16841F01001C1604FF4807422461A4900
:105220001848FEF771FB19480068C16841F0100189
:10523000C160224616491548FEF766FB0122154952
:105240001548FEF76FFBA20014491548FDF7C8FF8B
:105250001448FCF783FD40F6B830FDF77DFAFFF700
:1052600091F9114D114C07492868FEF7EFFF0749E6
:105270002068FFF721F8FFF75FF82820FDF76CFAA8
:10528000F1E70000A0290020AF2200201029002013
:10529000AF230020A4010020E8290020AF24002033
:1052A00058290020E02800209C010020A0010020B7
:1052B0002DE9F04704008A4616D054F8047CD4F84F
:1052C00000903E1F564500D956462046FFF77CFD0C
:1052D00005468846324621465046FFF759FF40B101
:1052E000C0F80090BDE8F087BDE8F0470846FFF73A
:1052F00099BD44E9017955B129686A18211F8A428C
:1053000002D9611B091F2960C5F80480EAE7024A37
:10531000C2F80080E6E70000E80100202DE9F04F28
:10532000E7B00F468346012904DA4FF0FF3067B03B
:10533000BDE8F08F00264FF4807A3546B0463446FB
:1053400051466846FAF747FFE94698E01BF8050022
:10535000242811D0002EF8D0A11C514500DD0026D4
:105360002A2810D009F80400641C781E6D1C8542A0
:1053700068D14FF0000885E0002EF6D101268DF8A7
:1053800000003446F1E7002109F8041009F1030692
:1053900003223DA1701CFAF745FF20B303223BA175
:1053A0003046FAF73FFF30B3032239A1701CFAF7F9
:1053B00039FF48B3032237A1701CFAF733FF60B3FB
:1053C000032235A1701CFAF72DFF78B3032233A115
:1053D000701CFAF727FF50B3032231A1B01EFAF771
:1053E00021FF70B343E0694640A800F0B5FA5022AF
:1053F00040A92C482EE0694640A800F059F82948F9
:10540000902240A9E83825E0694640A800F0A0F9BC
:105410002448582240A958381CE0694640A800F0AA
:105420001BFB20484C2240A9503013E000E00AE06A
:10543000694640A800F092FB1A48982240A9A03083
:1054400008E00AE01BE0694640A800F0D7FC4022D3
:1054500040A91548FAF798FE09E0694640A800F00F
:1054600041FB124840990160BDF80411818051460A
:105470006846AD1CFAF7AFFE0024012675E7BD4271
:10548000FFF664AF404652E74753410047474100AB
:10549000474C4C0047535600524D4300565447006A
:1054A00048585A00E00200201804002000000020A4
:1054B0002DE9F34FA9B00C4690216846FAF78BFE10
:1054C00000252046FFF724FE9EA12490FAF7BAFE9D
:1054D00064270446DFF87082DFF87092002623E12B
:1054E0000F2D7DD2DFE805F07C08468089BFCACF4A
:1054F000D4DBE2E5ECF3F8000222214625A8FAF716
:1055000075FE8DF896600222A11C26A8FAF76EFEA1
:105510008DF89A600222211D27A8FAF767FE8DF800
:105520009E600222E11D28A8FAF760FE8DF8A260B5
:1055300025A8FAF7A3FF039026A8FAF79FFF049087
:1055400027A8FAF79BFF059028A8FAF797FF00EB2A
:10555000800040000690039821460830039068467A
:10556000FAF757FE77A10020FAF76CFE04004FF01F
:1055700002057DD0214607A8FAF74BFE2046FFF72B
:1055800047FD82468B46FBF7E8F890FBF7F4642072
:105590006043FBF7B0F852465B46FBF720F88246C3
:1055A0008B46FBF7DAF82590FBF7A5F852465B46E9
:1055B000FBF715F800224346FBF714F884462598BC
:1055C0000B900A9400224B466046FAF764FFFBF703
:1055D000C4F80C905BA10020FAF734FE040000E050
:1055E0009CE005F10105C4D020784E2803D00020AE
:1055F0008DF8340092E00120FAE721460DF13500E4
:10560000FAF707FE2046FFF703FD05468A46FBF73B
:10561000A4F890FBF7F464206043FBF76CF82A468B
:105620005346FAF7DCFF05468A46FBF796F88346B1
:10563000FBF761F82A465346FAF7D1FF00224346AA
:10564000FAF7D0FFCDE9114B00224B46FAF723FFC2
:10565000FBF783F813903BA10020FAF7F3FD040059
:105660004FF0050563D02078452805D0002000E0E4
:105670005DE08DF8500051E00120F8E72046FAF790
:10568000FDFE15904AE02046FAF7F8FE169045E038
:105690000021204600F006FCCDE918013EE0002183
:1056A000204600F0FFFBCDE91A0137E021461CA897
:1056B00008E00021204600F0F5FBCDE91E012DE0B9
:1056C000214620A8FAF7A5FD28E005E0FFE72046DF
:1056D000FAF7D4FE229021E00420FFF7A3FB054651
:1056E0002046FAF78FFDC21E21462846FAF77EFDB6
:1056F0002046FAF787FD28440A2200F8036C0021AF
:105700002846FAF783FEADF88C002846FFF75CFBCD
:105710000CA10020FAF796FD0F2540B109A1002049
:10572000FAF790FD04466D1C002C7FF4D9AE249846
:10573000FFF74AFB902269462998FAF725FD2BB01E
:10574000BDE8F08F2C00000000004E400000E03F5C
:105750002DE9F04F9BB00C46834658216846FAF776
:105760003AFD00252046FFF7D3FC78A11690FAF702
:1057700069FD04466426764FDFF8D881D6E0072D10
:1057800042D2DFE805F0CD043A447B84C6002146CE
:105790006846FAF73EFD2046FFF73AFC0446894684
:1057A000FAF7DBFF90FBF6F5642105FB01F0FAF751
:1057B000A2FF4B462246FAF712FF0C468146FAF743
:1057C000CCFF8246FAF797FF4A462346FAF707FFCF
:1057D00000223B46FAF706FFCDE9035A0022434672
:1057E000FAF759FEFAF7B9FF059058A10020FAF729
:1057F00029FD04004FF002057ED020784E2804D009
:105800005FF000008DF818008AE00120FAE72146D9
:105810000DF11900FAF7FDFC2046FFF7F9FB0446ED
:105820008946FAF79AFF90FBF6F5642105FB01F033
:10583000FAF761FF4B462246FAF7D1FE0446894645
:10584000FAF78BFF8246FAF756FF4B462246FAF7E5
:10585000C6FE00223B46FAF7C5FECDE90A5A0022F1
:105860004346FAF718FEFAF778FF0C9037A10020AC
:10587000FAF7E8FC04004FF004055AD020784528D8
:1058800003D000208DF834004AE00120FAE702221C
:10589000214617A8FAF7AAFC00258DF85E500222CF
:1058A000A11C18A8FAF7A2FC8DF862500222211D53
:1058B00019A8FAF79BFC8DF866500222E11D1AA880
:1058C000FAF794FC8DF86A5017A8FAF7D7FD1190F3
:1058D00018A8FAF7D3FD129019A8FAF7CFFD139084
:1058E0001AA8FAF7CBFD00EB800040001490119845
:1058F00021460830119000E01BE00DF13500FAF769
:1059000088FC12A10020FAF79DFC04004FF0060568
:105910000FD02078412817D05FF000008DF8540098
:105920000AA10020FAF78EFC04466D1C002C7FF4BF
:1059300026AF1698FFF748FA582269465846FAF7F4
:1059400023FC1BB0BDE8F08F0120E7E72C0000002E
:1059500000004E400000E03F70B594B00D46064692
:1059600050216846FAF737FC00242846FFF7D0FBA1
:10597000054638A1FAF766FC5FE0122C58D2DFE842
:1059800004F0570912161A1E22262A2E32363A3EE3
:1059900042464C5200784D2803D000208DF800007C
:1059A00046E00120FAE7FAF769FD019040E0FAF7D6
:1059B00065FD02903CE0FAF761FD039038E0FAF7EC
:1059C0005DFD049034E0FAF759FD059030E0FAF7F8
:1059D00055FD06902CE0FAF751FD079028E0FAF704
:1059E0004DFD089024E0FAF749FD099020E0FAF710
:1059F00045FD0A901CE0FAF741FD0B9018E0FAF71C
:105A00003DFD0C9014E0FAF739FD0D9010E00021F7
:105A100000F048FACDE90E010AE0002100F042FA58
:105A2000CDE9100104E0002100F03CFACDE91201BB
:105A300008A10020FAF706FC641C00289DD1284626
:105A4000FFF7C2F9502269463046FAF79DFB14B0C1
:105A500070BD00002C00000070B594B00D460646E5
:105A60004C216846FAF7B7FB00242846FFF750FBA5
:105A700005461BA125E0082C20D2DFE804F01F0416
:105A8000080C1014181CFAF7F9FC009016E0FAF74D
:105A9000F5FC019012E0FAF7F1FC02900EE0FAF743
:105AA000EDFC03900AE0FAF7E9FC049006E0FAF74F
:105AB000E5FC059002E0FAF7E1FC069008A1002061
:105AC000641CFAF7BFFB0028D5D12846FFF77CF904
:105AD0004C2269463046FAF757FB14B070BD0000FF
:105AE0002C00000070B586B0002506460C460395D4
:105AF000481C0495FAF786FB0246611C2046FAF71B
:105B000043FB2046FAF77EFB204401AA00F8035C21
:105B100002A8831E009001950BA102952046FAF77A
:105B2000B3FBBDF80400ADF80C00BDF80600ADF8FD
:105B30000E00BDF80800ADF8100003983060BDF805
:105B40001000B08006B070BD25303468782C253048
:105B50003468782C25303468780000002DE9F34F44
:105B6000ABB00C4698216846FAF735FB0026204674
:105B7000FFF7CEFA9EA12690FAF764FB642704464D
:105B8000DFF87082DFF87092002522E10C2E48D2F7
:105B9000DFE806F0470642487F89C2CBD2D9FDFC38
:105BA0000222214627A8FAF721FB8DF89E500222F7
:105BB000A11C28A8FAF71AFB8DF8A2500222211D79
:105BC00029A8FAF713FB8DF8A650032204F1080167
:105BD0002AA8FAF70BFB8DF8AA5027A8FAF74EFC73
:105BE000059028A8FAF74AFC069029A8FAF746FC7F
:105BF00007902AA8FAF742FC089005982146083039
:105C000005906846FAF705FB79A10020FAF71AFB20
:105C100004004FF002067DD0207800B101208DF8FD
:105C20002400D0E021460DF12500FAF7F2FA2046D3
:105C3000FFF7EEF904468A46FAF78FFD90FBF7F678
:105C4000642106FB01F0FAF756FD53462246FAF7A7
:105C5000C6FC04468A46FAF780FD8346FAF74BFDF8
:105C600053462246FAF7BBFC00224346FAF7BAFC39
:105C7000CDE90D6B00224B46FAF70DFCFAF76DFDEE
:105C80000F905BA10020FAF7DDFA04004FF0040644
:105C9000C1D020784E2804D05FF000008DF840007D
:105CA00091E00120FAE721460DF14100FAF7B1FA3F
:105CB0002046FFF7ADF90C468246FAF74EFD90FB01
:105CC000F7F6642106FB01F0FAF715FD524623466C
:105CD000FAF785FC04468A46FAF73FFD8346FAF751
:105CE0000AFD53462246FAF77AFC00224346FAF7A9
:105CF00079FCCDE9146B00224B46FAF7CCFBFAF79E
:105D00002CFD16903AA10020FAF79CFA04004FF0FF
:105D1000060600E060E05FD02078452803D0002030
:105D20008DF85C004FE00120FAE70021204600F0EA
:105D3000B9F8CDE9180146E00021204600F0B2F89C
:105D4000CDE91A013FE00222214627A8FAF74EFAD0
:105D50008DF89E500222A11C28A8FAF747FA8DF868
:105D6000A2500222211D29A8FAF740FA8DF8A65068
:105D700029A8FAF783FB064628A8FAF77FFB824694
:105D800027A8FAF77BFB06F5FA6601E018E010E0B9
:105D9000CDE91E0A214620961CA8FAF73AFA8DF89A
:105DA000765013A10020FAF74DFA04004FF00A06CE
:105DB00012D00021204600F075F8CDE9220102E062
:105DC00020788DF890000AA10020FAF73BFA0446EB
:105DD000761C002C7FF4DAAE2698FEF7F5FF9822A9
:105DE00069462B98FAF7D0F92DB0BDE8F08F000086
:105DF0002C00000000004E400000E03F70B590B065
:105E00000D46064640216846FAF7E5F90024284683
:105E1000FFF77EF9054622A1FAF714FA34E0092CBF
:105E20002DD2DFE804F02C050B0F15191F232900D4
:105E3000002100F037F8CDE9000120E000788DF86E
:105E400008001CE0002100F02DF8CDE9040116E067
:105E500000788DF8180012E0002100F023F8CDE959
:105E600008010CE000788DF8280008E0002100F01F
:105E700019F8CDE90C0102E000788DF8380008A18E
:105E80000020FAF7DFF9641C0028C8D12846FEF785
:105E90009BFF402269463046FAF776F910B070BD94
:105EA0002C00000000B583B00A460021CDE90011A6
:105EB00001466846FAF7ABFDDDE9000103B000BD1D
:105EC000010202030405060708090A0B0C0D0E0F58
:105ED0001010010202030405060708090A0B0C0D45
:105EE0000E0F10100000000000000000010203046B
:105EF00006070809000000000102030400404040BA
:105F0000404040404040414141414140404040408C
:105F10004040404040404040404040404005020238
:105F200002020202020202020202020202202020F7
:105F30002020202020202002020202020202909053
:105F40009090909010101010101010101010101051
:105F500010101010101010100202020202028888A5
:105F600088888888080808080808080808080808B1
:105F70000808080808080808020202024000000099
:105F8000FD5E0008A45F000800000020F40100008E
:105F90001C130008C0600008F4010020A43A0000AF
:105FA000904E0008F1230101021CFF13010622D4C8
:105FB0003CC9F205081BC8761012071CC8399D1091
:105FC00019081B3819101E9A01F428301019081BE3
:105FD000A8DF1022961B69E61019081B68621012D0
:105FE000981C3289F01019081B88741022971B38EE
:105FF000261019081B39A21012992B32D840190803
:106000001BD9B41012DC3A013019081930120312EE
:10601000063D01640B05081B658F1012041C0285E8
:10602000CA1019081B844E1012A31C0174281019E1
:10603000081B75AC401AA4A81A294019081CC9AD40
:10604000AA36415BAA050812065A05103908130141
:106050001012D24302048C7F2A050D1B6A1A1A1AE9
:10606000E80D2307D01BFCCC1A690D1BE9FC1A1A9A
:10607000DE0D1FF830FFFF4FA01A890D591A1907BE
:10608000115BFF550D5FFEF0FFFFCEC2271B0550D1
:106090005B5A920D0718FAB0FFFF5AC01AAA88136C
:1060A00011111D1EAA041101113CFCAA03103C1F72
:1060B000AA031062FD29D5196E61031524F40000AE
:0400000508000131BD
:00000001FF
