Component: ARM Compiler 5.06 update 4 (build 422) Tool: armlink [4d35d2]

==============================================================================

Section Cross References

    startup_stm32f103xe.o(RESET) refers to startup_stm32f103xe.o(STACK) for __initial_sp
    startup_stm32f103xe.o(RESET) refers to startup_stm32f103xe.o(.text) for Reset_Handler
    startup_stm32f103xe.o(RESET) refers to stm32f1xx_it.o(i.NMI_Handler) for NMI_Handler
    startup_stm32f103xe.o(RESET) refers to stm32f1xx_it.o(i.HardFault_Handler) for HardFault_Handler
    startup_stm32f103xe.o(RESET) refers to stm32f1xx_it.o(i.MemManage_Handler) for MemManage_Handler
    startup_stm32f103xe.o(RESET) refers to stm32f1xx_it.o(i.BusFault_Handler) for BusFault_Handler
    startup_stm32f103xe.o(RESET) refers to stm32f1xx_it.o(i.UsageFault_Handler) for UsageFault_Handler
    startup_stm32f103xe.o(RESET) refers to stm32f1xx_it.o(i.SVC_Handler) for SVC_Handler
    startup_stm32f103xe.o(RESET) refers to stm32f1xx_it.o(i.DebugMon_Handler) for DebugMon_Handler
    startup_stm32f103xe.o(RESET) refers to stm32f1xx_it.o(i.PendSV_Handler) for PendSV_Handler
    startup_stm32f103xe.o(RESET) refers to stm32f1xx_it.o(i.SysTick_Handler) for SysTick_Handler
    startup_stm32f103xe.o(RESET) refers to stm32f1xx_it.o(i.EXTI0_IRQHandler) for EXTI0_IRQHandler
    startup_stm32f103xe.o(RESET) refers to stm32f1xx_it.o(i.EXTI1_IRQHandler) for EXTI1_IRQHandler
    startup_stm32f103xe.o(RESET) refers to stm32f1xx_it.o(i.DMA1_Channel2_IRQHandler) for DMA1_Channel2_IRQHandler
    startup_stm32f103xe.o(RESET) refers to stm32f1xx_it.o(i.DMA1_Channel3_IRQHandler) for DMA1_Channel3_IRQHandler
    startup_stm32f103xe.o(RESET) refers to stm32f1xx_it.o(i.DMA1_Channel4_IRQHandler) for DMA1_Channel4_IRQHandler
    startup_stm32f103xe.o(RESET) refers to stm32f1xx_it.o(i.DMA1_Channel5_IRQHandler) for DMA1_Channel5_IRQHandler
    startup_stm32f103xe.o(RESET) refers to stm32f1xx_it.o(i.DMA1_Channel6_IRQHandler) for DMA1_Channel6_IRQHandler
==============================================================================

Removing Unused input sections from the image.

    Removing roter.o(.rev16_text), (4 bytes).
    Removing roter.o(.revsh_text), (4 bytes).
    Removing roter.o(.rrx_text), (6 bytes).
    Removing control.o(.rev16_text), (4 bytes).
    Removing control.o(.revsh_text), (4 bytes).
    Removing control.o(.rrx_text), (6 bytes).
    Removing control.o(i.RoterTimeAdd), (180 bytes).
    Removing main.o(.rev16_text), (4 bytes).
    Removing main.o(.revsh_text), (4 bytes).
    Removing main.o(.rrx_text), (6 bytes).
    Removing main.o(.data), (1 bytes).
    Removing main.o(.data), (1 bytes).
    Removing main.o(.data), (1 bytes).
    Removing main.o(.data), (1 bytes).
    Removing gpio.o(.rev16_text), (4 bytes).
    Removing gpio.o(.revsh_text), (4 bytes).
    Removing gpio.o(.rrx_text), (6 bytes).
    Removing adc.o(.rev16_text), (4 bytes).
==============================================================================

Image Symbol Table

    Local Symbols

    Symbol Name                              Value     Ov Type        Size  Object(Section)

    ../Core/Src/adc.c                        0x00000000   Number         0  adc.o ABSOLUTE
    ../Core/Src/dma.c                        0x00000000   Number         0  dma.o ABSOLUTE
    ../Core/Src/gpio.c                       0x00000000   Number         0  gpio.o ABSOLUTE
    ../Core/Src/main.c                       0x00000000   Number         0  main.o ABSOLUTE
    ../Core/Src/stm32f1xx_hal_msp.c          0x00000000   Number         0  stm32f1xx_hal_msp.o ABSOLUTE
    ../Core/Src/stm32f1xx_it.c               0x00000000   Number         0  stm32f1xx_it.o ABSOLUTE
    ../Core/Src/system_stm32f1xx.c           0x00000000   Number         0  system_stm32f1xx.o ABSOLUTE
    ../Core/Src/usart.c                      0x00000000   Number         0  usart.o ABSOLUTE
    ../Drivers/STM32F1xx_HAL_Driver/Src/stm32f1xx_hal.c 0x00000000   Number         0  stm32f1xx_hal.o ABSOLUTE
    ../Drivers/STM32F1xx_HAL_Driver/Src/stm32f1xx_hal_adc.c 0x00000000   Number         0  stm32f1xx_hal_adc.o ABSOLUTE
    ../Drivers/STM32F1xx_HAL_Driver/Src/stm32f1xx_hal_adc_ex.c 0x00000000   Number         0  stm32f1xx_hal_adc_ex.o ABSOLUTE
    ../Drivers/STM32F1xx_HAL_Driver/Src/stm32f1xx_hal_cortex.c 0x00000000   Number         0  stm32f1xx_hal_cortex.o ABSOLUTE
    ../Drivers/STM32F1xx_HAL_Driver/Src/stm32f1xx_hal_dma.c 0x00000000   Number         0  stm32f1xx_hal_dma.o ABSOLUTE
    ../Drivers/STM32F1xx_HAL_Driver/Src/stm32f1xx_hal_exti.c 0x00000000   Number         0  stm32f1xx_hal_exti.o ABSOLUTE
    ../Drivers/STM32F1xx_HAL_Driver/Src/stm32f1xx_hal_flash.c 0x00000000   Number         0  stm32f1xx_hal_flash.o ABSOLUTE
    ../Drivers/STM32F1xx_HAL_Driver/Src/stm32f1xx_hal_flash_ex.c 0x00000000   Number         0  stm32f1xx_hal_flash_ex.o ABSOLUTE
    ../Drivers/STM32F1xx_HAL_Driver/Src/stm32f1xx_hal_gpio.c 0x00000000   Number         0  stm32f1xx_hal_gpio.o ABSOLUTE
    ../Drivers/STM32F1xx_HAL_Driver/Src/stm32f1xx_hal_gpio_ex.c 0x00000000   Number         0  stm32f1xx_hal_gpio_ex.o ABSOLUTE
    ../Drivers/STM32F1xx_HAL_Driver/Src/stm32f1xx_hal_pwr.c 0x00000000   Number         0  stm32f1xx_hal_pwr.o ABSOLUTE
    ../Drivers/STM32F1xx_HAL_Driver/Src/stm32f1xx_hal_rcc.c 0x00000000   Number         0  stm32f1xx_hal_rcc.o ABSOLUTE
    ../Drivers/STM32F1xx_HAL_Driver/Src/stm32f1xx_hal_rcc_ex.c 0x00000000   Number         0  stm32f1xx_hal_rcc_ex.o ABSOLUTE
    ../Drivers/STM32F1xx_HAL_Driver/Src/stm32f1xx_hal_tim.c 0x00000000   Number         0  stm32f1xx_hal_tim.o ABSOLUTE
    ../Drivers/STM32F1xx_HAL_Driver/Src/stm32f1xx_hal_tim_ex.c 0x00000000   Number         0  stm32f1xx_hal_tim_ex.o ABSOLUTE
    ../Drivers/STM32F1xx_HAL_Driver/Src/stm32f1xx_hal_uart.c 0x00000000   Number         0  stm32f1xx_hal_uart.o ABSOLUTE
    ../clib/../cmprslib/zerorunl2.c          0x00000000   Number         0  __dczerorl2.o ABSOLUTE
    ../clib/microlib/ctype/ctype.c           0x00000000   Number         0  ctype_c.o ABSOLUTE
    ../clib/microlib/ctype/ctype.c           0x00000000   Number         0  islower_o.o ABSOLUTE
    ../clib/microlib/ctype/ctype.c           0x00000000   Number         0  isspace_c.o ABSOLUTE
    ../clib/microlib/ctype/ctype.c           0x00000000   Number         0  isxdigit_o.o ABSOLUTE
    ../clib/microlib/ctype/ctype.c           0x00000000   Number         0  isupper_o.o ABSOLUTE
    ../clib/microlib/ctype/ctype.c           0x00000000   Number         0  isspace_o.o ABSOLUTE
    ../clib/microlib/ctype/ctype.c           0x00000000   Number         0  ispunct_o.o ABSOLUTE
    ../clib/microlib/ctype/ctype.c           0x00000000   Number         0  isprint_o.o ABSOLUTE
    ../clib/microlib/ctype/ctype.c           0x00000000   Number         0  isgraph_o.o ABSOLUTE
    ../clib/microlib/ctype/ctype.c           0x00000000   Number         0  isdigit_o.o ABSOLUTE
    ../clib/microlib/ctype/ctype.c           0x00000000   Number         0  iscntrl_o.o ABSOLUTE
    ../clib/microlib/ctype/ctype.c           0x00000000   Number         0  isblank_o.o ABSOLUTE
    ../clib/microlib/ctype/ctype.c           0x00000000   Number         0  isalpha_o.o ABSOLUTE
    ../clib/microlib/ctype/ctype.c           0x00000000   Number         0  isalnum_o.o ABSOLUTE
    ../clib/microlib/ctype/ctype.c           0x00000000   Number         0  ctype_o.o ABSOLUTE
    ../clib/microlib/division.c              0x00000000   Number         0  uldiv.o ABSOLUTE
    ../clib/microlib/division.c              0x00000000   Number         0  uidiv.o ABSOLUTE
    ../clib/microlib/errno.c                 0x00000000   Number         0  errno.o ABSOLUTE
    ../clib/microlib/init/entry.s            0x00000000   Number         0  entry.o ABSOLUTE
    ../clib/microlib/init/entry.s            0x00000000   Number         0  entry7b.o ABSOLUTE
    ../clib/microlib/init/entry.s            0x00000000   Number         0  entry7a.o ABSOLUTE
    ../clib/microlib/init/entry.s            0x00000000   Number         0  entry9b.o ABSOLUTE
    ../clib/microlib/init/entry.s            0x00000000   Number         0  entry8a.o ABSOLUTE
    ../clib/microlib/init/entry.s            0x00000000   Number         0  entry2.o ABSOLUTE
    ../clib/microlib/init/entry.s            0x00000000   Number         0  entry8b.o ABSOLUTE
    ../clib/microlib/init/entry.s            0x00000000   Number         0  entry11a.o ABSOLUTE
    ../clib/microlib/init/entry.s            0x00000000   Number         0  entry5.o ABSOLUTE
    ../clib/microlib/init/entry.s            0x00000000   Number         0  entry10b.o ABSOLUTE
    ../clib/microlib/init/entry.s            0x00000000   Number         0  entry9a.o ABSOLUTE
    ../clib/microlib/init/entry.s            0x00000000   Number         0  entry10a.o ABSOLUTE
    ../clib/microlib/init/entry.s            0x00000000   Number         0  entry11b.o ABSOLUTE
    ../clib/microlib/longlong.c              0x00000000   Number         0  llshl.o ABSOLUTE
    ../clib/microlib/longlong.c              0x00000000   Number         0  llushr.o ABSOLUTE
    ../clib/microlib/longlong.c              0x00000000   Number         0  llsshr.o ABSOLUTE
    ../clib/microlib/malloc/malloc.c         0x00000000   Number         0  mallocra.o ABSOLUTE
    ../clib/microlib/malloc/malloc.c         0x00000000   Number         0  malloca.o ABSOLUTE
    ../clib/microlib/malloc/malloc.c         0x00000000   Number         0  mallocr.o ABSOLUTE
    ../clib/microlib/malloc/malloc.c         0x00000000   Number         0  malloc.o ABSOLUTE
    ../clib/microlib/malloc/mvars.c          0x00000000   Number         0  mvars.o ABSOLUTE
    ../clib/microlib/printf/printf.c         0x00000000   Number         0  printf6.o ABSOLUTE
    ../clib/microlib/printf/printf.c         0x00000000   Number         0  printf0.o ABSOLUTE
    ../clib/microlib/printf/printf.c         0x00000000   Number         0  printfa.o ABSOLUTE
    ../clib/microlib/printf/printf.c         0x00000000   Number         0  printf8.o ABSOLUTE
    ../clib/microlib/printf/printf.c         0x00000000   Number         0  printf1.o ABSOLUTE
    ../clib/microlib/printf/printf.c         0x00000000   Number         0  printf2.o ABSOLUTE
    ../clib/microlib/printf/printf.c         0x00000000   Number         0  printf3.o ABSOLUTE
    ../clib/microlib/printf/printf.c         0x00000000   Number         0  printf4.o ABSOLUTE
    ../clib/microlib/printf/printf.c         0x00000000   Number         0  printf5.o ABSOLUTE
    ../clib/microlib/printf/printf.c         0x00000000   Number         0  printfb.o ABSOLUTE
    ../clib/microlib/printf/printf.c         0x00000000   Number         0  printf7.o ABSOLUTE
    ../clib/microlib/printf/stubs.s          0x00000000   Number         0  stubs.o ABSOLUTE
    ../clib/microlib/stdio/streams.c         0x00000000   Number         0  stdout.o ABSOLUTE
    ../clib/microlib/string/memcpy.c         0x00000000   Number         0  memcpyb.o ABSOLUTE
    ../clib/microlib/string/memcpy.c         0x00000000   Number         0  memmoveb.o ABSOLUTE
    ../clib/microlib/string/memcpy.c         0x00000000   Number         0  memmovea.o ABSOLUTE
    ../clib/microlib/string/memcpy.c         0x00000000   Number         0  memcpya.o ABSOLUTE
    ../clib/microlib/string/memset.c         0x00000000   Number         0  memseta.o ABSOLUTE
    ../clib/microlib/string/strcpy.c         0x00000000   Number         0  strcpy.o ABSOLUTE
    ../clib/microlib/string/strlen.c         0x00000000   Number         0  strlen.o ABSOLUTE
    ../clib/microlib/string/strncmp.c        0x00000000   Number         0  strncmp.o ABSOLUTE
    ../clib/microlib/string/strncpy.c        0x00000000   Number         0  strncpy.o ABSOLUTE
    ../clib/microlib/string/strtok.c         0x00000000   Number         0  strtok.o ABSOLUTE
    ../clib/microlib/string/strtok.c         0x00000000   Number         0  strtok_r.o ABSOLUTE
    ../clib/microlib/stubs.s                 0x00000000   Number         0  iusefp.o ABSOLUTE
    ../clib/scanf.c                          0x00000000   Number         0  scanf_char.o ABSOLUTE
    ../clib/scanf.c                          0x00000000   Number         0  _chval.o ABSOLUTE
    ../clib/scanf.c                          0x00000000   Number         0  _scanf.o ABSOLUTE
    ../clib/scanf.c                          0x00000000   Number         0  _strtoul.o ABSOLUTE
    ../clib/scanf.c                          0x00000000   Number         0  atoi.o ABSOLUTE
    ../clib/scanf.c                          0x00000000   Number         0  __0sscanf.o ABSOLUTE
    ../clib/scanf.c                          0x00000000   Number         0  strtod.o ABSOLUTE
    ../clib/scanf.c                          0x00000000   Number         0  _scanf_int.o ABSOLUTE
    ../clib/scanf.c                          0x00000000   Number         0  strtol.o ABSOLUTE
    ../clib/scanf.c                          0x00000000   Number         0  scanf_fp.o ABSOLUTE
    ../clib/scanf.c                          0x00000000   Number         0  _sgetc.o ABSOLUTE
    ../fplib/microlib/d2f.c                  0x00000000   Number         0  d2f.o ABSOLUTE
    ../fplib/microlib/f2d.c                  0x00000000   Number         0  f2d.o ABSOLUTE
    ../fplib/microlib/fpadd.c                0x00000000   Number         0  dadd.o ABSOLUTE
    ../fplib/microlib/fpdiv.c                0x00000000   Number         0  ddiv.o ABSOLUTE
    ../fplib/microlib/fpepilogue.c           0x00000000   Number         0  fepilogue.o ABSOLUTE
    ../fplib/microlib/fpepilogue.c           0x00000000   Number         0  depilogue.o ABSOLUTE
    ../fplib/microlib/fpfix.c                0x00000000   Number         0  ffixui.o ABSOLUTE
    ../fplib/microlib/fpfix.c                0x00000000   Number         0  dfixul.o ABSOLUTE
    ../fplib/microlib/fpfix.c                0x00000000   Number         0  dfixi.o ABSOLUTE
    ../fplib/microlib/fpfix.c                0x00000000   Number         0  dfixui.o ABSOLUTE
    ../fplib/microlib/fpflt.c                0x00000000   Number         0  dfltui.o ABSOLUTE
    ../fplib/microlib/fpflt.c                0x00000000   Number         0  dfltul.o ABSOLUTE
    ../fplib/microlib/fpflt.c                0x00000000   Number         0  dflti.o ABSOLUTE
    ../fplib/microlib/fpmul.c                0x00000000   Number         0  dmul.o ABSOLUTE
    ../fplib/microlib/fpscalb.c              0x00000000   Number         0  dscalb.o ABSOLUTE
    ../mathlib/atof.c                        0x00000000   Number         0  atof.o ABSOLUTE
    ../mathlib/strtod.c                      0x00000000   Number         0  strtod.o ABSOLUTE
    ..\Core\Src\Roter.c                      0x00000000   Number         0  roter.o ABSOLUTE
    ..\Core\Src\adc.c                        0x00000000   Number         0  adc.o ABSOLUTE
    ..\Core\Src\control.c                    0x00000000   Number         0  control.o ABSOLUTE
    ..\Core\Src\dma.c                        0x00000000   Number         0  dma.o ABSOLUTE
    ..\Core\Src\gpio.c                       0x00000000   Number         0  gpio.o ABSOLUTE
    ..\Core\Src\gps.c                        0x00000000   Number         0  gps.o ABSOLUTE
    ..\Core\Src\main.c                       0x00000000   Number         0  main.o ABSOLUTE
    ..\Core\Src\queue.c                      0x00000000   Number         0  queue.o ABSOLUTE
    ..\Core\Src\stm32f1xx_hal_msp.c          0x00000000   Number         0  stm32f1xx_hal_msp.o ABSOLUTE
    ..\Core\Src\stm32f1xx_it.c               0x00000000   Number         0  stm32f1xx_it.o ABSOLUTE
    ..\Core\Src\system_stm32f1xx.c           0x00000000   Number         0  system_stm32f1xx.o ABSOLUTE
    ..\Core\Src\usart.c                      0x00000000   Number         0  usart.o ABSOLUTE
    ..\Drivers\STM32F1xx_HAL_Driver\Src\stm32f1xx_hal.c 0x00000000   Number         0  stm32f1xx_hal.o ABSOLUTE
    ..\Drivers\STM32F1xx_HAL_Driver\Src\stm32f1xx_hal_adc.c 0x00000000   Number         0  stm32f1xx_hal_adc.o ABSOLUTE
    ..\Drivers\STM32F1xx_HAL_Driver\Src\stm32f1xx_hal_adc_ex.c 0x00000000   Number         0  stm32f1xx_hal_adc_ex.o ABSOLUTE
    ..\Drivers\STM32F1xx_HAL_Driver\Src\stm32f1xx_hal_cortex.c 0x00000000   Number         0  stm32f1xx_hal_cortex.o ABSOLUTE
    ..\Drivers\STM32F1xx_HAL_Driver\Src\stm32f1xx_hal_dma.c 0x00000000   Number         0  stm32f1xx_hal_dma.o ABSOLUTE
    ..\Drivers\STM32F1xx_HAL_Driver\Src\stm32f1xx_hal_exti.c 0x00000000   Number         0  stm32f1xx_hal_exti.o ABSOLUTE
    ..\Drivers\STM32F1xx_HAL_Driver\Src\stm32f1xx_hal_flash.c 0x00000000   Number         0  stm32f1xx_hal_flash.o ABSOLUTE
    ..\Drivers\STM32F1xx_HAL_Driver\Src\stm32f1xx_hal_flash_ex.c 0x00000000   Number         0  stm32f1xx_hal_flash_ex.o ABSOLUTE
    ..\Drivers\STM32F1xx_HAL_Driver\Src\stm32f1xx_hal_gpio.c 0x00000000   Number         0  stm32f1xx_hal_gpio.o ABSOLUTE
    ..\Drivers\STM32F1xx_HAL_Driver\Src\stm32f1xx_hal_gpio_ex.c 0x00000000   Number         0  stm32f1xx_hal_gpio_ex.o ABSOLUTE
    ..\Drivers\STM32F1xx_HAL_Driver\Src\stm32f1xx_hal_pwr.c 0x00000000   Number         0  stm32f1xx_hal_pwr.o ABSOLUTE
    ..\Drivers\STM32F1xx_HAL_Driver\Src\stm32f1xx_hal_rcc.c 0x00000000   Number         0  stm32f1xx_hal_rcc.o ABSOLUTE
    ..\Drivers\STM32F1xx_HAL_Driver\Src\stm32f1xx_hal_rcc_ex.c 0x00000000   Number         0  stm32f1xx_hal_rcc_ex.o ABSOLUTE
    ..\Drivers\STM32F1xx_HAL_Driver\Src\stm32f1xx_hal_tim.c 0x00000000   Number         0  stm32f1xx_hal_tim.o ABSOLUTE
    ..\Drivers\STM32F1xx_HAL_Driver\Src\stm32f1xx_hal_tim_ex.c 0x00000000   Number         0  stm32f1xx_hal_tim_ex.o ABSOLUTE
    ..\Drivers\STM32F1xx_HAL_Driver\Src\stm32f1xx_hal_uart.c 0x00000000   Number         0  stm32f1xx_hal_uart.o ABSOLUTE
    ..\\Core\\Src\\Roter.c                   0x00000000   Number         0  roter.o ABSOLUTE
    ..\\Core\\Src\\control.c                 0x00000000   Number         0  control.o ABSOLUTE
    cdrcmple.s                               0x00000000   Number         0  cdrcmple.o ABSOLUTE
    dc.s                                     0x00000000   Number         0  dc.o ABSOLUTE
    handlers.s                               0x00000000   Number         0  handlers.o ABSOLUTE
    init.s                                   0x00000000   Number         0  init.o ABSOLUTE
    startup_stm32f103xe.s                    0x00000000   Number         0  startup_stm32f103xe.o ABSOLUTE
    RESET                                    0x08000000   Section      304  startup_stm32f103xe.o(RESET)
    .ARM.Collect$$$$00000000                 0x08000130   Section        0  entry.o(.ARM.Collect$$$$00000000)
    .ARM.Collect$$$$00000001                 0x08000130   Section        4  entry2.o(.ARM.Collect$$$$00000001)
    .ARM.Collect$$$$00000004                 0x08000134   Section        4  entry5.o(.ARM.Collect$$$$00000004)
    .ARM.Collect$$$$00000008                 0x08000138   Section        0  entry7b.o(.ARM.Collect$$$$00000008)
    .ARM.Collect$$$$0000000A                 0x08000138   Section        0  entry8b.o(.ARM.Collect$$$$0000000A)
    .ARM.Collect$$$$0000000B                 0x08000138   Section        8  entry9a.o(.ARM.Collect$$$$0000000B)
    .ARM.Collect$$$$0000000D                 0x08000140   Section        0  entry10a.o(.ARM.Collect$$$$0000000D)
    .ARM.Collect$$$$0000000F                 0x08000140   Section        0  entry11a.o(.ARM.Collect$$$$0000000F)
    .ARM.Collect$$$$00002712                 0x08000140   Section        4  entry2.o(.ARM.Collect$$$$00002712)
    __lit__00000000                          0x08000140   Data           4  entry2.o(.ARM.Collect$$$$00002712)
    .text                                    0x08000144   Section       36  startup_stm32f103xe.o(.text)
    .text                                    0x08000168   Section        0  llushr.o(.text)
    .text                                    0x08000188   Section        0  memmovea.o(.text)
    .text                                    0x080001c8   Section        0  memseta.o(.text)
    .text                                    0x080001ec   Section        0  strncpy.o(.text)
    .text                                    0x08000204   Section        0  strlen.o(.text)
    .text                                    0x08000212   Section        0  strcpy.o(.text)
    .text                                    0x08000224   Section        0  strncmp.o(.text)
    .text                                    0x08000244   Section        0  strtok.o(.text)
    .text                                    0x08000288   Section        0  __0sscanf.o(.text)
    .text                                    0x080002c0   Section        0  _scanf_int.o(.text)
    .text                                    0x0800040c   Section        0  strtol.o(.text)
    .text                                    0x0800047c   Section        0  atoi.o(.text)
    .text                                    0x08000496   Section        0  dadd.o(.text)
    .text                                    0x080005e4   Section        0  dmul.o(.text)
    .text                                    0x080006c8   Section        0  dscalb.o(.text)
    .text                                    0x080006f6   Section        0  dflti.o(.text)
    .text                                    0x08000718   Section        0  dfltui.o(.text)
    .text                                    0x08000732   Section        0  ffixui.o(.text)
    .text                                    0x0800075a   Section        0  dfixi.o(.text)
    .text                                    0x08000798   Section        0  dfixui.o(.text)
    .text                                    0x080007ca   Section        0  f2d.o(.text)
    .text                                    0x080007f0   Section        0  d2f.o(.text)
    .text                                    0x08000828   Section        0  uidiv.o(.text)
    .text                                    0x08000854   Section        0  llshl.o(.text)
    .text                                    0x08000872   Section        0  llsshr.o(.text)
    .text                                    0x08000898   Section        0  ctype_o.o(.text)
    .text                                    0x080008a0   Section        0  isspace_o.o(.text)
    .text                                    0x080008b2   Section        0  _chval.o(.text)
    .text                                    0x080008d0   Section        0  scanf_char.o(.text)
    _scanf_char_input                        0x080008d1   Thumb Code    12  scanf_char.o(.text)
    .text                                    0x080008f8   Section        0  _sgetc.o(.text)
    .text                                    0x08000938   Section        0  _strtoul.o(.text)
    .text                                    0x080009d8   Section        0  strtod.o(.text)
    _local_sscanf                            0x080009d9   Thumb Code    54  strtod.o(.text)
    .text                                    0x08000a74   Section        0  iusefp.o(.text)
    .text                                    0x08000a74   Section        0  fepilogue.o(.text)
    .text                                    0x08000ae2   Section        0  depilogue.o(.text)
    .text                                    0x08000b9c   Section        0  ddiv.o(.text)
    .text                                    0x08000c7c   Section       36  init.o(.text)
    .text                                    0x08000ca0   Section        0  _scanf.o(.text)
    .text                                    0x08000fcc   Section        0  scanf_fp.o(.text)
    _fp_value                                0x08000fcd   Thumb Code   256  scanf_fp.o(.text)
    .text                                    0x08001304   Section        0  dfltul.o(.text)
    .text                                    0x0800131c   Section        0  __dczerorl2.o(.text)
    i.ADC_BAT_Test                           0x08001374   Section        0  control.o(i.ADC_BAT_Test)
    i.ADC_ConversionStop_Disable             0x08001400   Section        0  stm32f1xx_hal_adc.o(i.ADC_ConversionStop_Disable)
    i.ADC_Enable                             0x08001458   Section        0  stm32f1xx_hal_adc.o(i.ADC_Enable)
    i.BlueHostConnect                        0x080014d4   Section        0  control.o(i.BlueHostConnect)
    i.BlueSlaveConnect                       0x08001528   Section        0  control.o(i.BlueSlaveConnect)
    i.BlueStart                              0x080015c8   Section        0  control.o(i.BlueStart)
    i.BlueWeakUp                             0x080016ac   Section        0  control.o(i.BlueWeakUp)
    i.BusFault_Handler                       0x08001728   Section        0  stm32f1xx_it.o(i.BusFault_Handler)
    i.ControlFuntion                         0x0800172c   Section        0  control.o(i.ControlFuntion)
    i.CopyAngleDataToUsart1                  0x08001820   Section        0  control.o(i.CopyAngleDataToUsart1)
    i.CopyGpsDataToUsart1                    0x08001850   Section        0  control.o(i.CopyGpsDataToUsart1)
    i.Create_Empty_Queue                     0x080018bc   Section        0  queue.o(i.Create_Empty_Queue)
    i.DMA1_Channel2_IRQHandler               0x080018e0   Section        0  stm32f1xx_it.o(i.DMA1_Channel2_IRQHandler)
    i.DMA1_Channel3_IRQHandler               0x080018ec   Section        0  stm32f1xx_it.o(i.DMA1_Channel3_IRQHandler)
    i.DMA1_Channel4_IRQHandler               0x080018f8   Section        0  stm32f1xx_it.o(i.DMA1_Channel4_IRQHandler)
    i.DMA1_Channel5_IRQHandler               0x08001904   Section        0  stm32f1xx_it.o(i.DMA1_Channel5_IRQHandler)
    i.DMA1_Channel6_IRQHandler               0x08001910   Section        0  stm32f1xx_it.o(i.DMA1_Channel6_IRQHandler)
    i.DMA1_Channel7_IRQHandler               0x0800191c   Section        0  stm32f1xx_it.o(i.DMA1_Channel7_IRQHandler)
    i.DMA2_Channel3_IRQHandler               0x08001928   Section        0  stm32f1xx_it.o(i.DMA2_Channel3_IRQHandler)
    i.DMA2_Channel4_5_IRQHandler             0x08001934   Section        0  stm32f1xx_it.o(i.DMA2_Channel4_5_IRQHandler)
    i.DMA_SetConfig                          0x08001940   Section        0  stm32f1xx_hal_dma.o(i.DMA_SetConfig)
    DMA_SetConfig                            0x08001941   Thumb Code    42  stm32f1xx_hal_dma.o(i.DMA_SetConfig)
    i.DataParseCondition                     0x0800196c   Section        0  roter.o(i.DataParseCondition)
    i.DataParseFunction                      0x08001a0c   Section        0  control.o(i.DataParseFunction)
    i.DataParseLocation                      0x08001b88   Section        0  roter.o(i.DataParseLocation)
    i.DataParsePolice                        0x08001be4   Section        0  roter.o(i.DataParsePolice)
    i.DebugMon_Handler                       0x08001c60   Section        0  stm32f1xx_it.o(i.DebugMon_Handler)
    i.Dequeue                                0x08001c62   Section        0  queue.o(i.Dequeue)
    i.EXTI0_IRQHandler                       0x08001c92   Section        0  stm32f1xx_it.o(i.EXTI0_IRQHandler)
    i.EXTI1_IRQHandler                       0x08001c98   Section        0  stm32f1xx_it.o(i.EXTI1_IRQHandler)
    i.EXTI9_5_IRQHandler                     0x08001c9e   Section        0  stm32f1xx_it.o(i.EXTI9_5_IRQHandler)
    i.Enqueue                                0x08001cb4   Section        0  queue.o(i.Enqueue)
    i.Enqueue_Bytes                          0x08001ce2   Section        0  queue.o(i.Enqueue_Bytes)
    i.Error_Handler                          0x08001d0c   Section        0  main.o(i.Error_Handler)
    i.FireGun                                0x08001d10   Section        0  control.o(i.FireGun)
    i.FireGunControl                         0x08001d28   Section        0  control.o(i.FireGunControl)
    i.HAL_ADCEx_Calibration_Start            0x08001d5c   Section        0  stm32f1xx_hal_adc_ex.o(i.HAL_ADCEx_Calibration_Start)
    i.HAL_ADC_ConfigChannel                  0x08001e34   Section        0  stm32f1xx_hal_adc.o(i.HAL_ADC_ConfigChannel)
    i.HAL_ADC_GetValue                       0x08001f30   Section        0  stm32f1xx_hal_adc.o(i.HAL_ADC_GetValue)
    i.HAL_ADC_Init                           0x08001f38   Section        0  stm32f1xx_hal_adc.o(i.HAL_ADC_Init)
    i.HAL_ADC_MspInit                        0x08002058   Section        0  adc.o(i.HAL_ADC_MspInit)
    i.HAL_ADC_PollForConversion              0x080020b0   Section        0  stm32f1xx_hal_adc.o(i.HAL_ADC_PollForConversion)
    i.HAL_ADC_Start                          0x080021ec   Section        0  stm32f1xx_hal_adc.o(i.HAL_ADC_Start)
    i.HAL_DMA_Abort                          0x080022ac   Section        0  stm32f1xx_hal_dma.o(i.HAL_DMA_Abort)
    i.HAL_DMA_Abort_IT                       0x080022f4   Section        0  stm32f1xx_hal_dma.o(i.HAL_DMA_Abort_IT)
    i.HAL_DMA_IRQHandler                     0x08002424   Section        0  stm32f1xx_hal_dma.o(i.HAL_DMA_IRQHandler)
    i.HAL_DMA_Init                           0x0800266c   Section        0  stm32f1xx_hal_dma.o(i.HAL_DMA_Init)
    i.HAL_DMA_Start_IT                       0x080026e8   Section        0  stm32f1xx_hal_dma.o(i.HAL_DMA_Start_IT)
    i.HAL_Delay                              0x08002758   Section        0  stm32f1xx_hal.o(i.HAL_Delay)
    i.HAL_GPIO_EXTI_Callback                 0x0800277c   Section        0  stm32f1xx_it.o(i.HAL_GPIO_EXTI_Callback)
    i.HAL_GPIO_EXTI_IRQHandler               0x080027cc   Section        0  stm32f1xx_hal_gpio.o(i.HAL_GPIO_EXTI_IRQHandler)
    i.HAL_GPIO_Init                          0x080027e4   Section        0  stm32f1xx_hal_gpio.o(i.HAL_GPIO_Init)
    i.HAL_GPIO_TogglePin                     0x080029dc   Section        0  stm32f1xx_hal_gpio.o(i.HAL_GPIO_TogglePin)
    i.HAL_GPIO_WritePin                      0x080029ec   Section        0  stm32f1xx_hal_gpio.o(i.HAL_GPIO_WritePin)
    i.HAL_GetTick                            0x080029f8   Section        0  stm32f1xx_hal.o(i.HAL_GetTick)
    i.HAL_IncTick                            0x08002a04   Section        0  stm32f1xx_hal.o(i.HAL_IncTick)
    i.HAL_Init                               0x08002a14   Section        0  stm32f1xx_hal.o(i.HAL_Init)
    i.HAL_InitTick                           0x08002a38   Section        0  stm32f1xx_hal.o(i.HAL_InitTick)
    i.HAL_MspInit                            0x08002a78   Section        0  stm32f1xx_hal_msp.o(i.HAL_MspInit)
    i.HAL_NVIC_EnableIRQ                     0x08002ab4   Section        0  stm32f1xx_hal_cortex.o(i.HAL_NVIC_EnableIRQ)
    i.HAL_NVIC_SetPriority                   0x08002ad0   Section        0  stm32f1xx_hal_cortex.o(i.HAL_NVIC_SetPriority)
    i.HAL_NVIC_SetPriorityGrouping           0x08002b10   Section        0  stm32f1xx_hal_cortex.o(i.HAL_NVIC_SetPriorityGrouping)
    i.HAL_RCCEx_GetPeriphCLKFreq             0x08002b34   Section        0  stm32f1xx_hal_rcc_ex.o(i.HAL_RCCEx_GetPeriphCLKFreq)
    i.HAL_RCCEx_PeriphCLKConfig              0x08002bec   Section        0  stm32f1xx_hal_rcc_ex.o(i.HAL_RCCEx_PeriphCLKConfig)
    i.HAL_RCC_ClockConfig                    0x08002cd8   Section        0  stm32f1xx_hal_rcc.o(i.HAL_RCC_ClockConfig)
    i.HAL_RCC_GetPCLK1Freq                   0x08002e04   Section        0  stm32f1xx_hal_rcc.o(i.HAL_RCC_GetPCLK1Freq)
    i.HAL_RCC_GetPCLK2Freq                   0x08002e24   Section        0  stm32f1xx_hal_rcc.o(i.HAL_RCC_GetPCLK2Freq)
    i.HAL_RCC_GetSysClockFreq                0x08002e44   Section        0  stm32f1xx_hal_rcc.o(i.HAL_RCC_GetSysClockFreq)
    i.HAL_RCC_OscConfig                      0x08002e98   Section        0  stm32f1xx_hal_rcc.o(i.HAL_RCC_OscConfig)
    i.HAL_SYSTICK_Config                     0x080031b8   Section        0  stm32f1xx_hal_cortex.o(i.HAL_SYSTICK_Config)
    i.HAL_UARTEx_ReceiveToIdle_IT            0x080031e0   Section        0  stm32f1xx_hal_uart.o(i.HAL_UARTEx_ReceiveToIdle_IT)
    i.HAL_UARTEx_RxEventCallback             0x08003230   Section        0  stm32f1xx_it.o(i.HAL_UARTEx_RxEventCallback)
    i.HAL_UART_ErrorCallback                 0x08003274   Section        0  stm32f1xx_hal_uart.o(i.HAL_UART_ErrorCallback)
    i.HAL_UART_IRQHandler                    0x08003278   Section        0  stm32f1xx_hal_uart.o(i.HAL_UART_IRQHandler)
    i.HAL_UART_Init                          0x080034e4   Section        0  stm32f1xx_hal_uart.o(i.HAL_UART_Init)
    i.HAL_UART_MspInit                       0x08003548   Section        0  usart.o(i.HAL_UART_MspInit)
    i.HAL_UART_Receive_DMA                   0x08003908   Section        0  stm32f1xx_hal_uart.o(i.HAL_UART_Receive_DMA)
    i.HAL_UART_Receive_IT                    0x08003924   Section        0  stm32f1xx_hal_uart.o(i.HAL_UART_Receive_IT)
    i.HAL_UART_RxCpltCallback                0x08003940   Section        0  stm32f1xx_it.o(i.HAL_UART_RxCpltCallback)
    i.HAL_UART_RxHalfCpltCallback            0x080039c4   Section        0  stm32f1xx_it.o(i.HAL_UART_RxHalfCpltCallback)
    i.HAL_UART_Transmit                      0x08003a28   Section        0  stm32f1xx_hal_uart.o(i.HAL_UART_Transmit)
    i.HAL_UART_TxCpltCallback                0x08003ac2   Section        0  stm32f1xx_hal_uart.o(i.HAL_UART_TxCpltCallback)
    i.HardFault_Handler                      0x08003ac4   Section        0  stm32f1xx_it.o(i.HardFault_Handler)
    i.MX_ADC1_Init                           0x08003ac8   Section        0  adc.o(i.MX_ADC1_Init)
    i.MX_DMA_Init                            0x08003b18   Section        0  dma.o(i.MX_DMA_Init)
    i.MX_GPIO_Init                           0x08003bc4   Section        0  gpio.o(i.MX_GPIO_Init)
    i.MX_UART4_Init                          0x08003d34   Section        0  usart.o(i.MX_UART4_Init)
    i.MX_UART5_Init                          0x08003d6c   Section        0  usart.o(i.MX_UART5_Init)
    i.MX_USART1_UART_Init                    0x08003da4   Section        0  usart.o(i.MX_USART1_UART_Init)
    i.MX_USART2_UART_Init                    0x08003ddc   Section        0  usart.o(i.MX_USART2_UART_Init)
    i.MX_USART3_UART_Init                    0x08003e14   Section        0  usart.o(i.MX_USART3_UART_Init)
    i.MemManage_Handler                      0x08003e4c   Section        0  stm32f1xx_it.o(i.MemManage_Handler)
    i.NMI_Handler                            0x08003e4e   Section        0  stm32f1xx_it.o(i.NMI_Handler)
    i.PendSV_Handler                         0x08003e50   Section        0  stm32f1xx_it.o(i.PendSV_Handler)
    i.ProcessCmdBuffer                       0x08003e54   Section        0  roter.o(i.ProcessCmdBuffer)
    i.Queue_Is_Empty                         0x08003f08   Section        0  queue.o(i.Queue_Is_Empty)
    i.Queue_Is_Full                          0x08003f18   Section        0  queue.o(i.Queue_Is_Full)
    i.Queue_Size                             0x08003f3a   Section        0  queue.o(i.Queue_Size)
    i.RemovePoliceToRoter                    0x08003f54   Section        0  roter.o(i.RemovePoliceToRoter)
    i.Roter1Error                            0x08003f94   Section        0  control.o(i.Roter1Error)
    i.Roter5Error                            0x08003fec   Section        0  control.o(i.Roter5Error)
    i.RoterAngle1                            0x08004044   Section        0  roter.o(i.RoterAngle1)
    i.RoterAngle5                            0x080040d0   Section        0  roter.o(i.RoterAngle5)
    i.RoterRelativeAngle1                    0x0800415c   Section        0  roter.o(i.RoterRelativeAngle1)
    i.RoterRelativeAngle5                    0x080041d4   Section        0  roter.o(i.RoterRelativeAngle5)
    i.STM32_Comm1_Parse                      0x0800424c   Section        0  control.o(i.STM32_Comm1_Parse)
    i.STM32_Comm4_Parse                      0x080042b8   Section        0  control.o(i.STM32_Comm4_Parse)
    i.STM32_Control                          0x08004338   Section        0  control.o(i.STM32_Control)
    i.STM32_Queue_Init                       0x08004360   Section        0  control.o(i.STM32_Queue_Init)
    i.SVC_Handler                            0x0800437c   Section        0  stm32f1xx_it.o(i.SVC_Handler)
    i.SendCmdToBuf                           0x08004380   Section        0  roter.o(i.SendCmdToBuf)
    i.SendDataByUART                         0x08004438   Section        0  control.o(i.SendDataByUART)
    i.SendRoterPolice                        0x080044c0   Section        0  control.o(i.SendRoterPolice)
    i.SetInching                             0x08004500   Section        0  roter.o(i.SetInching)
    i.SetPeriodicity                         0x08004508   Section        0  roter.o(i.SetPeriodicity)
    i.SetRestoration                         0x08004558   Section        0  roter.o(i.SetRestoration)
    i.SetRoterInit                           0x08004584   Section        0  roter.o(i.SetRoterInit)
    i.SysTick_Handler                        0x08004698   Section        0  stm32f1xx_it.o(i.SysTick_Handler)
    i.SystemClock_Config                     0x0800469c   Section        0  main.o(i.SystemClock_Config)
    i.SystemInit                             0x08004714   Section        0  system_stm32f1xx.o(i.SystemInit)
    i.UART2DataParse                         0x08004718   Section        0  roter.o(i.UART2DataParse)
    i.UART2DataRecv                          0x080047f4   Section        0  roter.o(i.UART2DataRecv)
    i.UART4_IRQHandler                       0x0800485c   Section        0  stm32f1xx_it.o(i.UART4_IRQHandler)
    i.UART5_IRQHandler                       0x08004874   Section        0  stm32f1xx_it.o(i.UART5_IRQHandler)
    i.UART_DMAAbortOnError                   0x08004880   Section        0  stm32f1xx_hal_uart.o(i.UART_DMAAbortOnError)
    UART_DMAAbortOnError                     0x08004881   Thumb Code    16  stm32f1xx_hal_uart.o(i.UART_DMAAbortOnError)
    i.UART_DMAError                          0x08004890   Section        0  stm32f1xx_hal_uart.o(i.UART_DMAError)
    UART_DMAError                            0x08004891   Thumb Code    74  stm32f1xx_hal_uart.o(i.UART_DMAError)
    i.UART_DMAReceiveCplt                    0x080048da   Section        0  stm32f1xx_hal_uart.o(i.UART_DMAReceiveCplt)
    UART_DMAReceiveCplt                      0x080048db   Thumb Code   134  stm32f1xx_hal_uart.o(i.UART_DMAReceiveCplt)
    i.UART_DMARxHalfCplt                     0x08004960   Section        0  stm32f1xx_hal_uart.o(i.UART_DMARxHalfCplt)
    UART_DMARxHalfCplt                       0x08004961   Thumb Code    30  stm32f1xx_hal_uart.o(i.UART_DMARxHalfCplt)
    i.UART_EndRxTransfer                     0x0800497e   Section        0  stm32f1xx_hal_uart.o(i.UART_EndRxTransfer)
    UART_EndRxTransfer                       0x0800497f   Thumb Code    78  stm32f1xx_hal_uart.o(i.UART_EndRxTransfer)
    i.UART_EndTxTransfer                     0x080049cc   Section        0  stm32f1xx_hal_uart.o(i.UART_EndTxTransfer)
    UART_EndTxTransfer                       0x080049cd   Thumb Code    28  stm32f1xx_hal_uart.o(i.UART_EndTxTransfer)
    i.UART_Receive_IT                        0x080049e8   Section        0  stm32f1xx_hal_uart.o(i.UART_Receive_IT)
    UART_Receive_IT                          0x080049e9   Thumb Code   194  stm32f1xx_hal_uart.o(i.UART_Receive_IT)
    i.UART_SetConfig                         0x08004aac   Section        0  stm32f1xx_hal_uart.o(i.UART_SetConfig)
    UART_SetConfig                           0x08004aad   Thumb Code   178  stm32f1xx_hal_uart.o(i.UART_SetConfig)
    i.UART_Start_Receive_DMA                 0x08004b64   Section        0  stm32f1xx_hal_uart.o(i.UART_Start_Receive_DMA)
    i.UART_Start_Receive_IT                  0x08004bf4   Section        0  stm32f1xx_hal_uart.o(i.UART_Start_Receive_IT)
    i.UART_WaitOnFlagUntilTimeout            0x08004c2a   Section        0  stm32f1xx_hal_uart.o(i.UART_WaitOnFlagUntilTimeout)
    UART_WaitOnFlagUntilTimeout              0x08004c2b   Thumb Code   120  stm32f1xx_hal_uart.o(i.UART_WaitOnFlagUntilTimeout)
    i.USART1_IRQHandler                      0x08004ca4   Section        0  stm32f1xx_it.o(i.USART1_IRQHandler)
    i.USART2_IRQHandler                      0x08004cbc   Section        0  stm32f1xx_it.o(i.USART2_IRQHandler)
    i.USART3_IRQHandler                      0x08004cc8   Section        0  stm32f1xx_it.o(i.USART3_IRQHandler)
    i.USER_UART_IRQHandler                   0x08004cd4   Section        0  stm32f1xx_it.o(i.USER_UART_IRQHandler)
    i.UsageFault_Handler                     0x08004d7c   Section        0  stm32f1xx_it.o(i.UsageFault_Handler)
    i.__0printf$1                            0x08004d80   Section        0  printf1.o(i.__0printf$1)
    i.__NVIC_SetPriority                     0x08004da0   Section        0  stm32f1xx_hal_cortex.o(i.__NVIC_SetPriority)
    __NVIC_SetPriority                       0x08004da1   Thumb Code    32  stm32f1xx_hal_cortex.o(i.__NVIC_SetPriority)
    i.__aeabi_errno_addr                     0x08004dc0   Section        0  errno.o(i.__aeabi_errno_addr)
    i.__free$realloc                         0x08004dc8   Section        0  mallocr.o(i.__free$realloc)
    i.__malloc$realloc                       0x08004e24   Section        0  mallocr.o(i.__malloc$realloc)
    i.__read_errno                           0x08004e74   Section        0  errno.o(i.__read_errno)
    i.__scatterload_copy                     0x08004e80   Section       14  handlers.o(i.__scatterload_copy)
    i.__scatterload_null                     0x08004e8e   Section        2  handlers.o(i.__scatterload_null)
    i.__scatterload_zeroinit                 0x08004e90   Section       14  handlers.o(i.__scatterload_zeroinit)
    i.__set_errno                            0x08004ea0   Section        0  errno.o(i.__set_errno)
    i._is_digit                              0x08004eac   Section        0  scanf_fp.o(i._is_digit)
    i._printf_core                           0x08004ebc   Section        0  printf1.o(i._printf_core)
    _printf_core                             0x08004ebd   Thumb Code   336  printf1.o(i._printf_core)
    i.atof                                   0x08005010   Section        0  atof.o(i.atof)
    i.calculate_checksum                     0x0800503a   Section        0  control.o(i.calculate_checksum)
    i.check_sum                              0x08005054   Section        0  roter.o(i.check_sum)
    i.crc16                                  0x08005072   Section        0  roter.o(i.crc16)
    i.fputc                                  0x080050ac   Section        0  usart.o(i.fputc)
    i.hexToBinChar                           0x080050c4   Section        0  roter.o(i.hexToBinChar)
    i.hex_to_int                             0x080050f0   Section        0  roter.o(i.hex_to_int)
    i.insertZerosBetweenCommas               0x08005110   Section        0  gps.o(i.insertZerosBetweenCommas)
    i.int_to_hex                             0x08005180   Section        0  roter.o(i.int_to_hex)
    i.internal_alloc                         0x08005190   Section        0  mallocr.o(i.internal_alloc)
    internal_alloc                           0x08005191   Thumb Code    76  mallocr.o(i.internal_alloc)
    i.main                                   0x080051e0   Section        0  main.o(i.main)
    i.realloc                                0x080052b0   Section        0  mallocr.o(i.realloc)
    i.receive_gps_data                       0x0800531c   Section        0  gps.o(i.receive_gps_data)
    i.strGga_parse                           0x080054b0   Section        0  gps.o(i.strGga_parse)
    i.strGll_parse                           0x08005750   Section        0  gps.o(i.strGll_parse)
    i.strGsa_parse                           0x08005958   Section        0  gps.o(i.strGsa_parse)
    i.strGsv_parse                           0x08005a58   Section        0  gps.o(i.strGsv_parse)
    i.strRHXZ_parse                          0x08005ae4   Section        0  gps.o(i.strRHXZ_parse)
    i.strRmc_parse                           0x08005b5c   Section        0  gps.o(i.strRmc_parse)
    i.strVtg_parse                           0x08005dfc   Section        0  gps.o(i.strVtg_parse)
    i.strtod                                 0x08005ea4   Section        0  strtod.o(i.strtod)
    .constdata                               0x08005ec0   Section       18  stm32f1xx_hal_rcc.o(.constdata)
    aPredivFactorTable                       0x08005ec0   Data           2  stm32f1xx_hal_rcc.o(.constdata)
    aPLLMULFactorTable                       0x08005ec2   Data          16  stm32f1xx_hal_rcc.o(.constdata)
    .constdata                               0x08005ed2   Section       18  stm32f1xx_hal_rcc_ex.o(.constdata)
    aPredivFactorTable                       0x08005ed2   Data           2  stm32f1xx_hal_rcc_ex.o(.constdata)
    aPLLMULFactorTable                       0x08005ed4   Data          16  stm32f1xx_hal_rcc_ex.o(.constdata)
    .constdata                               0x08005ee4   Section       16  system_stm32f1xx.o(.constdata)
    .constdata                               0x08005ef4   Section        8  system_stm32f1xx.o(.constdata)
    .constdata                               0x08005efc   Section      129  ctype_o.o(.constdata)
    .constdata                               0x08005f80   Section        4  ctype_o.o(.constdata)
    table                                    0x08005f80   Data           4  ctype_o.o(.constdata)
    .data                                    0x20000000   Section        6  gps.o(.data)
    .data                                    0x20000008   Section      342  roter.o(.data)
    cmdLength                                0x20000013   Data           1  roter.o(.data)
    .data                                    0x2000015e   Section       13  roter.o(.data)
    .data                                    0x2000016b   Section       13  roter.o(.data)
    .data                                    0x20000178   Section       13  roter.o(.data)
    .data                                    0x20000185   Section       13  roter.o(.data)
    .data                                    0x20000192   Section        9  control.o(.data)
    .data                                    0x2000019c   Section        4  queue.o(.data)
    .data                                    0x200001a0   Section        4  queue.o(.data)
    .data                                    0x200001a4   Section        1  main.o(.data)
    .data                                    0x200001a5   Section        1  main.o(.data)
    .data                                    0x200001a6   Section        1  main.o(.data)
    .data                                    0x200001a7   Section        1  main.o(.data)
    .data                                    0x200001a8   Section        1  main.o(.data)
    .data                                    0x200001a9   Section        1  main.o(.data)
    .data                                    0x200001aa   Section        8  main.o(.data)
    .data                                    0x200001b2   Section        8  main.o(.data)
    .data                                    0x200001ba   Section        8  main.o(.data)
    .data                                    0x200001c2   Section        8  main.o(.data)
    .data                                    0x200001cc   Section        4  stm32f1xx_it.o(.data)
    lastDebounceTime                         0x200001cc   Data           4  stm32f1xx_it.o(.data)
    .data                                    0x200001d0   Section       12  stm32f1xx_hal.o(.data)
    .data                                    0x200001dc   Section        4  system_stm32f1xx.o(.data)
    .data                                    0x200001e0   Section        4  strtok.o(.data)
    state                                    0x200001e0   Data           4  strtok.o(.data)
    .data                                    0x200001e4   Section        4  stdout.o(.data)
    .data                                    0x200001e8   Section        4  mvars.o(.data)
    .data                                    0x200001ec   Section        4  mvars.o(.data)
    .data                                    0x200001f0   Section        4  errno.o(.data)
    _errno                                   0x200001f0   Data           4  errno.o(.data)
    .bss                                     0x200001f8   Section      608  gps.o(.bss)
    .bss                                     0x20000458   Section     7667  roter.o(.bss)
    .bss                                     0x2000224b   Section      100  control.o(.bss)
    .bss                                     0x200022af   Section     1536  main.o(.bss)
    .bss                                     0x200028af   Section        9  main.o(.bss)
    .bss                                     0x200028b8   Section       28  main.o(.bss)
    .bss                                     0x200028d4   Section       10  main.o(.bss)
    .bss                                     0x200028e0   Section       48  adc.o(.bss)
    .bss                                     0x20002910   Section      904  usart.o(.bss)
    HEAP                                     0x20002c98   Section     2048  startup_stm32f103xe.o(HEAP)
    STACK                                    0x20003498   Section     2048  startup_stm32f103xe.o(STACK)

    Global Symbols

    Symbol Name                              Value     Ov Type        Size  Object(Section)

    BuildAttributes$$THM_ISAv4$P$D$K$B$S$PE$A:L22UL41UL21$X:L11$S22US41US21$IEEE1$IW$USESV6$~STKCKD$USESV7$~SHL$OTIME$ROPI$IEEEJ$EBA8$MICROLIB$REQ8$PRES8$EABIv2 0x00000000   Number         0  anon$$obj.o ABSOLUTE
    __ARM_use_no_argv                        0x00000000   Number         0  main.o ABSOLUTE
    _printf_a                                0x00000000   Number         0  stubs.o ABSOLUTE
    _printf_c                                0x00000000   Number         0  stubs.o ABSOLUTE
    _printf_charcount                        0x00000000   Number         0  stubs.o ABSOLUTE
    _printf_d                                0x00000000   Number         0  stubs.o ABSOLUTE
    _printf_e                                0x00000000   Number         0  stubs.o ABSOLUTE
    _printf_f                                0x00000000   Number         0  stubs.o ABSOLUTE
    _printf_flags                            0x00000000   Number         0  stubs.o ABSOLUTE
    _printf_fp_dec                           0x00000000   Number         0  stubs.o ABSOLUTE
    _printf_fp_hex                           0x00000000   Number         0  stubs.o ABSOLUTE
    _printf_g                                0x00000000   Number         0  stubs.o ABSOLUTE
    _printf_i                                0x00000000   Number         0  stubs.o ABSOLUTE
    _printf_int_dec                          0x00000000   Number         0  stubs.o ABSOLUTE
    _printf_l                                0x00000000   Number         0  stubs.o ABSOLUTE
    _printf_lc                               0x00000000   Number         0  stubs.o ABSOLUTE
    _printf_ll                               0x00000000   Number         0  stubs.o ABSOLUTE
    _printf_lld                              0x00000000   Number         0  stubs.o ABSOLUTE
    _printf_lli                              0x00000000   Number         0  stubs.o ABSOLUTE
    _printf_llo                              0x00000000   Number         0  stubs.o ABSOLUTE
    _printf_llu                              0x00000000   Number         0  stubs.o ABSOLUTE
    _printf_llx                              0x00000000   Number         0  stubs.o ABSOLUTE
    _printf_longlong_dec                     0x00000000   Number         0  stubs.o ABSOLUTE
    _printf_longlong_hex                     0x00000000   Number         0  stubs.o ABSOLUTE
    _printf_longlong_oct                     0x00000000   Number         0  stubs.o ABSOLUTE
    _printf_ls                               0x00000000   Number         0  stubs.o ABSOLUTE
    _printf_mbtowc                           0x00000000   Number         0  stubs.o ABSOLUTE
    _printf_n                                0x00000000   Number         0  stubs.o ABSOLUTE
    _printf_o                                0x00000000   Number         0  stubs.o ABSOLUTE
    _printf_p                                0x00000000   Number         0  stubs.o ABSOLUTE
    _printf_percent                          0x00000000   Number         0  stubs.o ABSOLUTE
    _printf_pre_padding                      0x00000000   Number         0  stubs.o ABSOLUTE
    _printf_return_value                     0x00000000   Number         0  stubs.o ABSOLUTE
    _printf_s                                0x00000000   Number         0  stubs.o ABSOLUTE
    _printf_sizespec                         0x00000000   Number         0  stubs.o ABSOLUTE
    _printf_str                              0x00000000   Number         0  stubs.o ABSOLUTE
    _printf_truncate_signed                  0x00000000   Number         0  stubs.o ABSOLUTE
    _printf_truncate_unsigned                0x00000000   Number         0  stubs.o ABSOLUTE
    _printf_u                                0x00000000   Number         0  stubs.o ABSOLUTE
    _printf_wc                               0x00000000   Number         0  stubs.o ABSOLUTE
    _printf_wctomb                           0x00000000   Number         0  stubs.o ABSOLUTE
    _printf_widthprec                        0x00000000   Number         0  stubs.o ABSOLUTE
    _printf_x                                0x00000000   Number         0  stubs.o ABSOLUTE
    __cpp_initialize__aeabi_                  - Undefined Weak Reference
    __cxa_finalize                            - Undefined Weak Reference
    _clock_init                               - Undefined Weak Reference
    _microlib_exit                            - Undefined Weak Reference
    _scanf_longlong                           - Undefined Weak Reference
    _scanf_string                             - Undefined Weak Reference
    __Vectors_Size                           0x00000130   Number         0  startup_stm32f103xe.o ABSOLUTE
    __Vectors                                0x08000000   Data           4  startup_stm32f103xe.o(RESET)
    __Vectors_End                            0x08000130   Data           0  startup_stm32f103xe.o(RESET)
    __main                                   0x08000131   Thumb Code     0  entry.o(.ARM.Collect$$$$00000000)
    _main_stk                                0x08000131   Thumb Code     0  entry2.o(.ARM.Collect$$$$00000001)
    _main_scatterload                        0x08000135   Thumb Code     0  entry5.o(.ARM.Collect$$$$00000004)
    __main_after_scatterload                 0x08000139   Thumb Code     0  entry5.o(.ARM.Collect$$$$00000004)
    _main_clock                              0x08000139   Thumb Code     0  entry7b.o(.ARM.Collect$$$$00000008)
    _main_cpp_init                           0x08000139   Thumb Code     0  entry8b.o(.ARM.Collect$$$$0000000A)
    _main_init                               0x08000139   Thumb Code     0  entry9a.o(.ARM.Collect$$$$0000000B)
    __rt_final_cpp                           0x08000141   Thumb Code     0  entry10a.o(.ARM.Collect$$$$0000000D)
    __rt_final_exit                          0x08000141   Thumb Code     0  entry11a.o(.ARM.Collect$$$$0000000F)
    Reset_Handler                            0x08000145   Thumb Code     8  startup_stm32f103xe.o(.text)
    ADC1_2_IRQHandler                        0x0800015f   Thumb Code     0  startup_stm32f103xe.o(.text)
    ADC3_IRQHandler                          0x0800015f   Thumb Code     0  startup_stm32f103xe.o(.text)
    CAN1_RX1_IRQHandler                      0x0800015f   Thumb Code     0  startup_stm32f103xe.o(.text)
    CAN1_SCE_IRQHandler                      0x0800015f   Thumb Code     0  startup_stm32f103xe.o(.text)
    DMA1_Channel1_IRQHandler                 0x0800015f   Thumb Code     0  startup_stm32f103xe.o(.text)
    DMA2_Channel1_IRQHandler                 0x0800015f   Thumb Code     0  startup_stm32f103xe.o(.text)
    DMA2_Channel2_IRQHandler                 0x0800015f   Thumb Code     0  startup_stm32f103xe.o(.text)
    EXTI15_10_IRQHandler                     0x0800015f   Thumb Code     0  startup_stm32f103xe.o(.text)
    EXTI2_IRQHandler                         0x0800015f   Thumb Code     0  startup_stm32f103xe.o(.text)
    EXTI3_IRQHandler                         0x0800015f   Thumb Code     0  startup_stm32f103xe.o(.text)
    EXTI4_IRQHandler                         0x0800015f   Thumb Code     0  startup_stm32f103xe.o(.text)
    FLASH_IRQHandler                         0x0800015f   Thumb Code     0  startup_stm32f103xe.o(.text)
    FSMC_IRQHandler                          0x0800015f   Thumb Code     0  startup_stm32f103xe.o(.text)
    I2C1_ER_IRQHandler                       0x0800015f   Thumb Code     0  startup_stm32f103xe.o(.text)
    I2C1_EV_IRQHandler                       0x0800015f   Thumb Code     0  startup_stm32f103xe.o(.text)
    I2C2_ER_IRQHandler                       0x0800015f   Thumb Code     0  startup_stm32f103xe.o(.text)
    I2C2_EV_IRQHandler                       0x0800015f   Thumb Code     0  startup_stm32f103xe.o(.text)
    PVD_IRQHandler                           0x0800015f   Thumb Code     0  startup_stm32f103xe.o(.text)
    RCC_IRQHandler                           0x0800015f   Thumb Code     0  startup_stm32f103xe.o(.text)
    RTC_Alarm_IRQHandler                     0x0800015f   Thumb Code     0  startup_stm32f103xe.o(.text)
    RTC_IRQHandler                           0x0800015f   Thumb Code     0  startup_stm32f103xe.o(.text)
    SDIO_IRQHandler                          0x0800015f   Thumb Code     0  startup_stm32f103xe.o(.text)
    SPI1_IRQHandler                          0x0800015f   Thumb Code     0  startup_stm32f103xe.o(.text)
    SPI2_IRQHandler                          0x0800015f   Thumb Code     0  startup_stm32f103xe.o(.text)
    SPI3_IRQHandler                          0x0800015f   Thumb Code     0  startup_stm32f103xe.o(.text)
    TAMPER_IRQHandler                        0x0800015f   Thumb Code     0  startup_stm32f103xe.o(.text)
    TIM1_BRK_IRQHandler                      0x0800015f   Thumb Code     0  startup_stm32f103xe.o(.text)
    TIM1_CC_IRQHandler                       0x0800015f   Thumb Code     0  startup_stm32f103xe.o(.text)
    TIM1_TRG_COM_IRQHandler                  0x0800015f   Thumb Code     0  startup_stm32f103xe.o(.text)
    TIM1_UP_IRQHandler                       0x0800015f   Thumb Code     0  startup_stm32f103xe.o(.text)
    TIM2_IRQHandler                          0x0800015f   Thumb Code     0  startup_stm32f103xe.o(.text)
    TIM3_IRQHandler                          0x0800015f   Thumb Code     0  startup_stm32f103xe.o(.text)
    TIM4_IRQHandler                          0x0800015f   Thumb Code     0  startup_stm32f103xe.o(.text)
    TIM5_IRQHandler                          0x0800015f   Thumb Code     0  startup_stm32f103xe.o(.text)
    TIM6_IRQHandler                          0x0800015f   Thumb Code     0  startup_stm32f103xe.o(.text)
    TIM7_IRQHandler                          0x0800015f   Thumb Code     0  startup_stm32f103xe.o(.text)
    TIM8_BRK_IRQHandler                      0x0800015f   Thumb Code     0  startup_stm32f103xe.o(.text)
    TIM8_CC_IRQHandler                       0x0800015f   Thumb Code     0  startup_stm32f103xe.o(.text)
    TIM8_TRG_COM_IRQHandler                  0x0800015f   Thumb Code     0  startup_stm32f103xe.o(.text)
    TIM8_UP_IRQHandler                       0x0800015f   Thumb Code     0  startup_stm32f103xe.o(.text)
    USBWakeUp_IRQHandler                     0x0800015f   Thumb Code     0  startup_stm32f103xe.o(.text)
    USB_HP_CAN1_TX_IRQHandler                0x0800015f   Thumb Code     0  startup_stm32f103xe.o(.text)
    USB_LP_CAN1_RX0_IRQHandler               0x0800015f   Thumb Code     0  startup_stm32f103xe.o(.text)
    WWDG_IRQHandler                          0x0800015f   Thumb Code     0  startup_stm32f103xe.o(.text)
    __aeabi_llsr                             0x08000169   Thumb Code    32  llushr.o(.text)
    _ll_ushift_r                             0x08000169   Thumb Code     0  llushr.o(.text)
    ___aeabi_memcpy8$move                    0x08000189   Thumb Code     0  memmovea.o(.text)
    __aeabi_memcpy                           0x08000189   Thumb Code    64  memmovea.o(.text)
    __aeabi_memcpy4                          0x08000189   Thumb Code     0  memmovea.o(.text)
    __aeabi_memmove                          0x08000189   Thumb Code     0  memmovea.o(.text)
    __aeabi_memmove4                         0x08000189   Thumb Code     0  memmovea.o(.text)
    __aeabi_memmove8                         0x08000189   Thumb Code     0  memmovea.o(.text)
    __aeabi_memset                           0x080001c9   Thumb Code    14  memseta.o(.text)
    __aeabi_memset4                          0x080001c9   Thumb Code     0  memseta.o(.text)
    __aeabi_memset8                          0x080001c9   Thumb Code     0  memseta.o(.text)
    __aeabi_memclr                           0x080001d7   Thumb Code     4  memseta.o(.text)
    __aeabi_memclr4                          0x080001d7   Thumb Code     0  memseta.o(.text)
    __aeabi_memclr8                          0x080001d7   Thumb Code     0  memseta.o(.text)
    _memset$wrapper                          0x080001db   Thumb Code    18  memseta.o(.text)
    strncpy                                  0x080001ed   Thumb Code    24  strncpy.o(.text)
    strlen                                   0x08000205   Thumb Code    14  strlen.o(.text)
    strcpy                                   0x08000213   Thumb Code    18  strcpy.o(.text)
    strncmp                                  0x08000225   Thumb Code    30  strncmp.o(.text)
    strtok                                   0x08000245   Thumb Code    62  strtok.o(.text)
    __0sscanf                                0x08000289   Thumb Code    48  __0sscanf.o(.text)
    _scanf_int                               0x080002c1   Thumb Code   332  _scanf_int.o(.text)
    strtol                                   0x0800040d   Thumb Code   112  strtol.o(.text)
    atoi                                     0x0800047d   Thumb Code    26  atoi.o(.text)
    __aeabi_dadd                             0x08000497   Thumb Code   322  dadd.o(.text)
    __aeabi_dsub                             0x080005d9   Thumb Code     6  dadd.o(.text)
    __aeabi_drsub                            0x080005df   Thumb Code     6  dadd.o(.text)
    __aeabi_dmul                             0x080005e5   Thumb Code   228  dmul.o(.text)
    __ARM_scalbn                             0x080006c9   Thumb Code    46  dscalb.o(.text)
    scalbn                                   0x080006c9   Thumb Code     0  dscalb.o(.text)
    __aeabi_i2d                              0x080006f7   Thumb Code    34  dflti.o(.text)
    __aeabi_ui2d                             0x08000719   Thumb Code    26  dfltui.o(.text)
    __aeabi_f2uiz                            0x08000733   Thumb Code    40  ffixui.o(.text)
    __aeabi_d2iz                             0x0800075b   Thumb Code    62  dfixi.o(.text)
    __aeabi_d2uiz                            0x08000799   Thumb Code    50  dfixui.o(.text)
    __aeabi_f2d                              0x080007cb   Thumb Code    38  f2d.o(.text)
    __aeabi_d2f                              0x080007f1   Thumb Code    56  d2f.o(.text)
    __aeabi_uidiv                            0x08000829   Thumb Code     0  uidiv.o(.text)
    __aeabi_uidivmod                         0x08000829   Thumb Code    44  uidiv.o(.text)
    __aeabi_llsl                             0x08000855   Thumb Code    30  llshl.o(.text)
    _ll_shift_l                              0x08000855   Thumb Code     0  llshl.o(.text)
    __aeabi_lasr                             0x08000873   Thumb Code    36  llsshr.o(.text)
    _ll_sshift_r                             0x08000873   Thumb Code     0  llsshr.o(.text)
    __rt_ctype_table                         0x08000899   Thumb Code     4  ctype_o.o(.text)
    isspace                                  0x080008a1   Thumb Code    18  isspace_o.o(.text)
    _chval                                   0x080008b3   Thumb Code    28  _chval.o(.text)
    __vfscanf_char                           0x080008dd   Thumb Code    20  scanf_char.o(.text)
    _sgetc                                   0x080008f9   Thumb Code    30  _sgetc.o(.text)
    _sbackspace                              0x08000917   Thumb Code    34  _sgetc.o(.text)
    _strtoul                                 0x08000939   Thumb Code   158  _strtoul.o(.text)
    __strtod_int                             0x08000a0f   Thumb Code    90  strtod.o(.text)
    __I$use$fp                               0x08000a75   Thumb Code     0  iusefp.o(.text)
    _float_round                             0x08000a75   Thumb Code    18  fepilogue.o(.text)
    _float_epilogue                          0x08000a87   Thumb Code    92  fepilogue.o(.text)
    _double_round                            0x08000ae3   Thumb Code    30  depilogue.o(.text)
    _double_epilogue                         0x08000b01   Thumb Code   156  depilogue.o(.text)
    __aeabi_ddiv                             0x08000b9d   Thumb Code   222  ddiv.o(.text)
    __scatterload                            0x08000c7d   Thumb Code    28  init.o(.text)
    __scatterload_rt2                        0x08000c7d   Thumb Code     0  init.o(.text)
    __vfscanf                                0x08000ca1   Thumb Code   808  _scanf.o(.text)
    _scanf_real                              0x080010cd   Thumb Code     0  scanf_fp.o(.text)
    _scanf_really_real                       0x080010cd   Thumb Code   556  scanf_fp.o(.text)
    __aeabi_ul2d                             0x08001305   Thumb Code    24  dfltul.o(.text)
    __decompress                             0x0800131d   Thumb Code     0  __dczerorl2.o(.text)
    __decompress1                            0x0800131d   Thumb Code    86  __dczerorl2.o(.text)
    ADC_BAT_Test                             0x08001375   Thumb Code   120  control.o(i.ADC_BAT_Test)
    ADC_ConversionStop_Disable               0x08001401   Thumb Code    86  stm32f1xx_hal_adc.o(i.ADC_ConversionStop_Disable)
    ADC_Enable                               0x08001459   Thumb Code   114  stm32f1xx_hal_adc.o(i.ADC_Enable)
    BlueHostConnect                          0x080014d5   Thumb Code    80  control.o(i.BlueHostConnect)
    BlueSlaveConnect                         0x08001529   Thumb Code   138  control.o(i.BlueSlaveConnect)
    BlueStart                                0x080015c9   Thumb Code   156  control.o(i.BlueStart)
    BlueWeakUp                               0x080016ad   Thumb Code   100  control.o(i.BlueWeakUp)
    BusFault_Handler                         0x08001729   Thumb Code     2  stm32f1xx_it.o(i.BusFault_Handler)
    ControlFuntion                           0x0800172d   Thumb Code   208  control.o(i.ControlFuntion)
    CopyAngleDataToUsart1                    0x08001821   Thumb Code    34  control.o(i.CopyAngleDataToUsart1)
    CopyGpsDataToUsart1                      0x08001851   Thumb Code    92  control.o(i.CopyGpsDataToUsart1)
    Create_Empty_Queue                       0x080018bd   Thumb Code    34  queue.o(i.Create_Empty_Queue)
    DMA1_Channel2_IRQHandler                 0x080018e1   Thumb Code     6  stm32f1xx_it.o(i.DMA1_Channel2_IRQHandler)
    DMA1_Channel3_IRQHandler                 0x080018ed   Thumb Code     6  stm32f1xx_it.o(i.DMA1_Channel3_IRQHandler)
    DMA1_Channel4_IRQHandler                 0x080018f9   Thumb Code     6  stm32f1xx_it.o(i.DMA1_Channel4_IRQHandler)
    DMA1_Channel5_IRQHandler                 0x08001905   Thumb Code     6  stm32f1xx_it.o(i.DMA1_Channel5_IRQHandler)
    DMA1_Channel6_IRQHandler                 0x08001911   Thumb Code     6  stm32f1xx_it.o(i.DMA1_Channel6_IRQHandler)
    DMA1_Channel7_IRQHandler                 0x0800191d   Thumb Code     6  stm32f1xx_it.o(i.DMA1_Channel7_IRQHandler)
    DMA2_Channel3_IRQHandler                 0x08001929   Thumb Code     6  stm32f1xx_it.o(i.DMA2_Channel3_IRQHandler)
    DMA2_Channel4_5_IRQHandler               0x08001935   Thumb Code     6  stm32f1xx_it.o(i.DMA2_Channel4_5_IRQHandler)
    DataParseCondition                       0x0800196d   Thumb Code   152  roter.o(i.DataParseCondition)
    DataParseFunction                        0x08001a0d   Thumb Code   340  control.o(i.DataParseFunction)
    DataParseLocation                        0x08001b89   Thumb Code    86  roter.o(i.DataParseLocation)
    DataParsePolice                          0x08001be5   Thumb Code   118  roter.o(i.DataParsePolice)
    DebugMon_Handler                         0x08001c61   Thumb Code     2  stm32f1xx_it.o(i.DebugMon_Handler)
    Dequeue                                  0x08001c63   Thumb Code    48  queue.o(i.Dequeue)
    EXTI0_IRQHandler                         0x08001c93   Thumb Code     6  stm32f1xx_it.o(i.EXTI0_IRQHandler)
    EXTI1_IRQHandler                         0x08001c99   Thumb Code     6  stm32f1xx_it.o(i.EXTI1_IRQHandler)
    EXTI9_5_IRQHandler                       0x08001c9f   Thumb Code    22  stm32f1xx_it.o(i.EXTI9_5_IRQHandler)
    Enqueue                                  0x08001cb5   Thumb Code    46  queue.o(i.Enqueue)
    Enqueue_Bytes                            0x08001ce3   Thumb Code    42  queue.o(i.Enqueue_Bytes)
    Error_Handler                            0x08001d0d   Thumb Code     4  main.o(i.Error_Handler)
    FireGun                                  0x08001d11   Thumb Code    20  control.o(i.FireGun)
    FireGunControl                           0x08001d29   Thumb Code    44  control.o(i.FireGunControl)
    HAL_ADCEx_Calibration_Start              0x08001d5d   Thumb Code   210  stm32f1xx_hal_adc_ex.o(i.HAL_ADCEx_Calibration_Start)
    HAL_ADC_ConfigChannel                    0x08001e35   Thumb Code   240  stm32f1xx_hal_adc.o(i.HAL_ADC_ConfigChannel)
    HAL_ADC_GetValue                         0x08001f31   Thumb Code     6  stm32f1xx_hal_adc.o(i.HAL_ADC_GetValue)
    HAL_ADC_Init                             0x08001f39   Thumb Code   272  stm32f1xx_hal_adc.o(i.HAL_ADC_Init)
    HAL_ADC_MspInit                          0x08002059   Thumb Code    76  adc.o(i.HAL_ADC_MspInit)
    HAL_ADC_PollForConversion                0x080020b1   Thumb Code   304  stm32f1xx_hal_adc.o(i.HAL_ADC_PollForConversion)
    HAL_ADC_Start                            0x080021ed   Thumb Code   184  stm32f1xx_hal_adc.o(i.HAL_ADC_Start)
    HAL_DMA_Abort                            0x080022ad   Thumb Code    70  stm32f1xx_hal_dma.o(i.HAL_DMA_Abort)
    HAL_DMA_Abort_IT                         0x080022f5   Thumb Code   296  stm32f1xx_hal_dma.o(i.HAL_DMA_Abort_IT)
    HAL_DMA_IRQHandler                       0x08002425   Thumb Code   552  stm32f1xx_hal_dma.o(i.HAL_DMA_IRQHandler)
    HAL_DMA_Init                             0x0800266d   Thumb Code   112  stm32f1xx_hal_dma.o(i.HAL_DMA_Init)
    HAL_DMA_Start_IT                         0x080026e9   Thumb Code   112  stm32f1xx_hal_dma.o(i.HAL_DMA_Start_IT)
    HAL_Delay                                0x08002759   Thumb Code    32  stm32f1xx_hal.o(i.HAL_Delay)
    HAL_GPIO_EXTI_Callback                   0x0800277d   Thumb Code    60  stm32f1xx_it.o(i.HAL_GPIO_EXTI_Callback)
    HAL_GPIO_EXTI_IRQHandler                 0x080027cd   Thumb Code    18  stm32f1xx_hal_gpio.o(i.HAL_GPIO_EXTI_IRQHandler)
    HAL_GPIO_Init                            0x080027e5   Thumb Code   462  stm32f1xx_hal_gpio.o(i.HAL_GPIO_Init)
    HAL_GPIO_TogglePin                       0x080029dd   Thumb Code    16  stm32f1xx_hal_gpio.o(i.HAL_GPIO_TogglePin)
    HAL_GPIO_WritePin                        0x080029ed   Thumb Code    10  stm32f1xx_hal_gpio.o(i.HAL_GPIO_WritePin)
    HAL_GetTick                              0x080029f9   Thumb Code     6  stm32f1xx_hal.o(i.HAL_GetTick)
    HAL_IncTick                              0x08002a05   Thumb Code    12  stm32f1xx_hal.o(i.HAL_IncTick)
    HAL_Init                                 0x08002a15   Thumb Code    32  stm32f1xx_hal.o(i.HAL_Init)
    HAL_InitTick                             0x08002a39   Thumb Code    54  stm32f1xx_hal.o(i.HAL_InitTick)
    HAL_MspInit                              0x08002a79   Thumb Code    52  stm32f1xx_hal_msp.o(i.HAL_MspInit)
    HAL_NVIC_EnableIRQ                       0x08002ab5   Thumb Code    26  stm32f1xx_hal_cortex.o(i.HAL_NVIC_EnableIRQ)
    HAL_NVIC_SetPriority                     0x08002ad1   Thumb Code    60  stm32f1xx_hal_cortex.o(i.HAL_NVIC_SetPriority)
    HAL_NVIC_SetPriorityGrouping             0x08002b11   Thumb Code    26  stm32f1xx_hal_cortex.o(i.HAL_NVIC_SetPriorityGrouping)
    HAL_RCCEx_GetPeriphCLKFreq               0x08002b35   Thumb Code   164  stm32f1xx_hal_rcc_ex.o(i.HAL_RCCEx_GetPeriphCLKFreq)
    HAL_RCCEx_PeriphCLKConfig                0x08002bed   Thumb Code   224  stm32f1xx_hal_rcc_ex.o(i.HAL_RCCEx_PeriphCLKConfig)
    HAL_RCC_ClockConfig                      0x08002cd9   Thumb Code   280  stm32f1xx_hal_rcc.o(i.HAL_RCC_ClockConfig)
    HAL_RCC_GetPCLK1Freq                     0x08002e05   Thumb Code    20  stm32f1xx_hal_rcc.o(i.HAL_RCC_GetPCLK1Freq)
    HAL_RCC_GetPCLK2Freq                     0x08002e25   Thumb Code    20  stm32f1xx_hal_rcc.o(i.HAL_RCC_GetPCLK2Freq)
    HAL_RCC_GetSysClockFreq                  0x08002e45   Thumb Code    64  stm32f1xx_hal_rcc.o(i.HAL_RCC_GetSysClockFreq)
    HAL_RCC_OscConfig                        0x08002e99   Thumb Code   778  stm32f1xx_hal_rcc.o(i.HAL_RCC_OscConfig)
    HAL_SYSTICK_Config                       0x080031b9   Thumb Code    40  stm32f1xx_hal_cortex.o(i.HAL_SYSTICK_Config)
    HAL_UARTEx_ReceiveToIdle_IT              0x080031e1   Thumb Code    78  stm32f1xx_hal_uart.o(i.HAL_UARTEx_ReceiveToIdle_IT)
    HAL_UARTEx_RxEventCallback               0x08003231   Thumb Code    52  stm32f1xx_it.o(i.HAL_UARTEx_RxEventCallback)
    HAL_UART_ErrorCallback                   0x08003275   Thumb Code     2  stm32f1xx_hal_uart.o(i.HAL_UART_ErrorCallback)
    HAL_UART_IRQHandler                      0x08003279   Thumb Code   616  stm32f1xx_hal_uart.o(i.HAL_UART_IRQHandler)
    HAL_UART_Init                            0x080034e5   Thumb Code   100  stm32f1xx_hal_uart.o(i.HAL_UART_Init)
    HAL_UART_MspInit                         0x08003549   Thumb Code   904  usart.o(i.HAL_UART_MspInit)
    HAL_UART_Receive_DMA                     0x08003909   Thumb Code    28  stm32f1xx_hal_uart.o(i.HAL_UART_Receive_DMA)
    HAL_UART_Receive_IT                      0x08003925   Thumb Code    28  stm32f1xx_hal_uart.o(i.HAL_UART_Receive_IT)
    HAL_UART_RxCpltCallback                  0x08003941   Thumb Code    86  stm32f1xx_it.o(i.HAL_UART_RxCpltCallback)
    HAL_UART_RxHalfCpltCallback              0x080039c5   Thumb Code    68  stm32f1xx_it.o(i.HAL_UART_RxHalfCpltCallback)
    HAL_UART_Transmit                        0x08003a29   Thumb Code   154  stm32f1xx_hal_uart.o(i.HAL_UART_Transmit)
    HAL_UART_TxCpltCallback                  0x08003ac3   Thumb Code     2  stm32f1xx_hal_uart.o(i.HAL_UART_TxCpltCallback)
    HardFault_Handler                        0x08003ac5   Thumb Code     2  stm32f1xx_it.o(i.HardFault_Handler)
    MX_ADC1_Init                             0x08003ac9   Thumb Code    72  adc.o(i.MX_ADC1_Init)
    MX_DMA_Init                              0x08003b19   Thumb Code   168  dma.o(i.MX_DMA_Init)
    MX_GPIO_Init                             0x08003bc5   Thumb Code   344  gpio.o(i.MX_GPIO_Init)
    MX_UART4_Init                            0x08003d35   Thumb Code    48  usart.o(i.MX_UART4_Init)
    MX_UART5_Init                            0x08003d6d   Thumb Code    48  usart.o(i.MX_UART5_Init)
    MX_USART1_UART_Init                      0x08003da5   Thumb Code    48  usart.o(i.MX_USART1_UART_Init)
    MX_USART2_UART_Init                      0x08003ddd   Thumb Code    48  usart.o(i.MX_USART2_UART_Init)
    MX_USART3_UART_Init                      0x08003e15   Thumb Code    48  usart.o(i.MX_USART3_UART_Init)
    MemManage_Handler                        0x08003e4d   Thumb Code     2  stm32f1xx_it.o(i.MemManage_Handler)
    NMI_Handler                              0x08003e4f   Thumb Code     2  stm32f1xx_it.o(i.NMI_Handler)
    PendSV_Handler                           0x08003e51   Thumb Code     2  stm32f1xx_it.o(i.PendSV_Handler)
    ProcessCmdBuffer                         0x08003e55   Thumb Code   168  roter.o(i.ProcessCmdBuffer)
    Queue_Is_Empty                           0x08003f09   Thumb Code    16  queue.o(i.Queue_Is_Empty)
    Queue_Is_Full                            0x08003f19   Thumb Code    34  queue.o(i.Queue_Is_Full)
    Queue_Size                               0x08003f3b   Thumb Code    24  queue.o(i.Queue_Size)
    RemovePoliceToRoter                      0x08003f55   Thumb Code    60  roter.o(i.RemovePoliceToRoter)
    Roter1Error                              0x08003f95   Thumb Code    68  control.o(i.Roter1Error)
    Roter5Error                              0x08003fed   Thumb Code    68  control.o(i.Roter5Error)
    RoterAngle1                              0x08004045   Thumb Code   120  roter.o(i.RoterAngle1)
    RoterAngle5                              0x080040d1   Thumb Code   120  roter.o(i.RoterAngle5)
    RoterRelativeAngle1                      0x0800415d   Thumb Code   110  roter.o(i.RoterRelativeAngle1)
    RoterRelativeAngle5                      0x080041d5   Thumb Code   110  roter.o(i.RoterRelativeAngle5)
    STM32_Comm1_Parse                        0x0800424d   Thumb Code    74  control.o(i.STM32_Comm1_Parse)
    STM32_Comm4_Parse                        0x080042b9   Thumb Code   118  control.o(i.STM32_Comm4_Parse)
    STM32_Control                            0x08004339   Thumb Code    36  control.o(i.STM32_Control)
    STM32_Queue_Init                         0x08004361   Thumb Code    20  control.o(i.STM32_Queue_Init)
    SVC_Handler                              0x0800437d   Thumb Code     2  stm32f1xx_it.o(i.SVC_Handler)
    SendCmdToBuf                             0x08004381   Thumb Code   164  roter.o(i.SendCmdToBuf)
    SendDataByUART                           0x08004439   Thumb Code   114  control.o(i.SendDataByUART)
    SendRoterPolice                          0x080044c1   Thumb Code    46  control.o(i.SendRoterPolice)
    SetInching                               0x08004501   Thumb Code     6  roter.o(i.SetInching)
    SetPeriodicity                           0x08004509   Thumb Code    76  roter.o(i.SetPeriodicity)
    SetRestoration                           0x08004559   Thumb Code    40  roter.o(i.SetRestoration)
    SetRoterInit                             0x08004585   Thumb Code   272  roter.o(i.SetRoterInit)
    SysTick_Handler                          0x08004699   Thumb Code     4  stm32f1xx_it.o(i.SysTick_Handler)
    SystemClock_Config                       0x0800469d   Thumb Code   120  main.o(i.SystemClock_Config)
    SystemInit                               0x08004715   Thumb Code     2  system_stm32f1xx.o(i.SystemInit)
    UART2DataParse                           0x08004719   Thumb Code   206  roter.o(i.UART2DataParse)
    UART2DataRecv                            0x080047f5   Thumb Code    92  roter.o(i.UART2DataRecv)
    UART4_IRQHandler                         0x0800485d   Thumb Code    18  stm32f1xx_it.o(i.UART4_IRQHandler)
    UART5_IRQHandler                         0x08004875   Thumb Code     6  stm32f1xx_it.o(i.UART5_IRQHandler)
    UART_Start_Receive_DMA                   0x08004b65   Thumb Code   130  stm32f1xx_hal_uart.o(i.UART_Start_Receive_DMA)
    UART_Start_Receive_IT                    0x08004bf5   Thumb Code    54  stm32f1xx_hal_uart.o(i.UART_Start_Receive_IT)
    USART1_IRQHandler                        0x08004ca5   Thumb Code    18  stm32f1xx_it.o(i.USART1_IRQHandler)
    USART2_IRQHandler                        0x08004cbd   Thumb Code     6  stm32f1xx_it.o(i.USART2_IRQHandler)
    USART3_IRQHandler                        0x08004cc9   Thumb Code     6  stm32f1xx_it.o(i.USART3_IRQHandler)
    USER_UART_IRQHandler                     0x08004cd5   Thumb Code   120  stm32f1xx_it.o(i.USER_UART_IRQHandler)
    UsageFault_Handler                       0x08004d7d   Thumb Code     2  stm32f1xx_it.o(i.UsageFault_Handler)
    __0printf$1                              0x08004d81   Thumb Code    22  printf1.o(i.__0printf$1)
    __1printf$1                              0x08004d81   Thumb Code     0  printf1.o(i.__0printf$1)
    __2printf                                0x08004d81   Thumb Code     0  printf1.o(i.__0printf$1)
    __aeabi_errno_addr                       0x08004dc1   Thumb Code     4  errno.o(i.__aeabi_errno_addr)
    __rt_errno_addr                          0x08004dc1   Thumb Code     0  errno.o(i.__aeabi_errno_addr)
    free                                     0x08004dc9   Thumb Code    88  mallocr.o(i.__free$realloc)
    malloc                                   0x08004e25   Thumb Code    64  mallocr.o(i.__malloc$realloc)
    __read_errno                             0x08004e75   Thumb Code     6  errno.o(i.__read_errno)
    __scatterload_copy                       0x08004e81   Thumb Code    14  handlers.o(i.__scatterload_copy)
    __scatterload_null                       0x08004e8f   Thumb Code     2  handlers.o(i.__scatterload_null)
    __scatterload_zeroinit                   0x08004e91   Thumb Code    14  handlers.o(i.__scatterload_zeroinit)
    __set_errno                              0x08004ea1   Thumb Code     6  errno.o(i.__set_errno)
    _is_digit                                0x08004ead   Thumb Code    14  scanf_fp.o(i._is_digit)
    atof                                     0x08005011   Thumb Code    42  atof.o(i.atof)
    calculate_checksum                       0x0800503b   Thumb Code    26  control.o(i.calculate_checksum)
    check_sum                                0x08005055   Thumb Code    30  roter.o(i.check_sum)
    crc16                                    0x08005073   Thumb Code    56  roter.o(i.crc16)
    fputc                                    0x080050ad   Thumb Code    20  usart.o(i.fputc)
    hexToBinChar                             0x080050c5   Thumb Code    42  roter.o(i.hexToBinChar)
    hex_to_int                               0x080050f1   Thumb Code    28  roter.o(i.hex_to_int)
    insertZerosBetweenCommas                 0x08005111   Thumb Code    90  gps.o(i.insertZerosBetweenCommas)
    int_to_hex                               0x08005181   Thumb Code    16  roter.o(i.int_to_hex)
    main                                     0x080051e1   Thumb Code   162  main.o(i.main)
    realloc                                  0x080052b1   Thumb Code   102  mallocr.o(i.realloc)
    receive_gps_data                         0x0800531d   Thumb Code   364  gps.o(i.receive_gps_data)
    strGga_parse                             0x080054b1   Thumb Code   660  gps.o(i.strGga_parse)
    strGll_parse                             0x08005751   Thumb Code   508  gps.o(i.strGll_parse)
    strGsa_parse                             0x08005959   Thumb Code   250  gps.o(i.strGsa_parse)
    strGsv_parse                             0x08005a59   Thumb Code   134  gps.o(i.strGsv_parse)
    strRHXZ_parse                            0x08005ae5   Thumb Code   100  gps.o(i.strRHXZ_parse)
    strRmc_parse                             0x08005b5d   Thumb Code   658  gps.o(i.strRmc_parse)
    strVtg_parse                             0x08005dfd   Thumb Code   164  gps.o(i.strVtg_parse)
    strtod                                   0x08005ea5   Thumb Code    28  strtod.o(i.strtod)
    AHBPrescTable                            0x08005ee4   Data          16  system_stm32f1xx.o(.constdata)
    APBPrescTable                            0x08005ef4   Data           8  system_stm32f1xx.o(.constdata)
    __ctype_table                            0x08005efc   Data         129  ctype_o.o(.constdata)
    Region$$Table$$Base                      0x08005f84   Number         0  anon$$obj.o(Region$$Table)
    Region$$Table$$Limit                     0x08005fa4   Number         0  anon$$obj.o(Region$$Table)
    g_rhxz                                   0x20000000   Data           6  gps.o(.data)
    g_Comm2BufLen                            0x20000008   Data           1  roter.o(.data)
    Roter1Police1                            0x20000009   Data           1  roter.o(.data)
    Roter1Police5                            0x2000000a   Data           1  roter.o(.data)
    g_Roter1Cmd_head                         0x2000000b   Data           1  roter.o(.data)
    g_Roter1Cmd_tail                         0x2000000c   Data           1  roter.o(.data)
    g_Roter5Cmd_head                         0x2000000d   Data           1  roter.o(.data)
    g_Roter5Cmd_tail                         0x2000000e   Data           1  roter.o(.data)
    g_Roter1SendCmdOK                        0x2000000f   Data           1  roter.o(.data)
    g_Roter5SendCmdOK                        0x20000010   Data           1  roter.o(.data)
    HighCheckSum                             0x20000011   Data           1  roter.o(.data)
    LowCheckSum                              0x20000012   Data           1  roter.o(.data)
    g_crc1                                   0x20000014   Data           2  roter.o(.data)
    g_crc5                                   0x20000016   Data           2  roter.o(.data)
    g_num                                    0x20000018   Data           4  roter.o(.data)
    g_ImpulseCount1                          0x2000001c   Data           4  roter.o(.data)
    g_ImpulseCount5                          0x20000020   Data           4  roter.o(.data)
    BiteTo                                   0x20000024   Data           4  roter.o(.data)
    g_AngleValue1                            0x20000028   Data           4  roter.o(.data)
    g_AngleValue5                            0x2000002c   Data           4  roter.o(.data)
    setEnable1                               0x20000030   Data           8  roter.o(.data)
    setEnable5                               0x20000038   Data           8  roter.o(.data)
    setFineFraction1                         0x20000040   Data           8  roter.o(.data)
    setFineFraction5                         0x20000048   Data           8  roter.o(.data)
    setSpeed1                                0x20000050   Data           8  roter.o(.data)
    setSpeed5                                0x20000058   Data           8  roter.o(.data)
    setStartSpeed1                           0x20000060   Data           8  roter.o(.data)
    setStartSpeed5                           0x20000068   Data           8  roter.o(.data)
    setAccTime1                              0x20000070   Data           8  roter.o(.data)
    setAccTime5                              0x20000078   Data           8  roter.o(.data)
    setStopSpeed1                            0x20000080   Data           8  roter.o(.data)
    setStopSpeed5                            0x20000088   Data           8  roter.o(.data)
    setStopTime1                             0x20000090   Data           8  roter.o(.data)
    setStopTime5                             0x20000098   Data           8  roter.o(.data)
    setSave1                                 0x200000a0   Data           8  roter.o(.data)
    setSave5                                 0x200000a8   Data           8  roter.o(.data)
    ReadCondition1                           0x200000b0   Data           8  roter.o(.data)
    ReadCondition5                           0x200000b8   Data           8  roter.o(.data)
    ReadLocation1                            0x200000c0   Data           8  roter.o(.data)
    ReadLocation5                            0x200000c8   Data           8  roter.o(.data)
    ReadPolice1                              0x200000d0   Data           8  roter.o(.data)
    ReadPolice5                              0x200000d8   Data           8  roter.o(.data)
    RemovePolice1                            0x200000e0   Data           8  roter.o(.data)
    RemovePolice5                            0x200000e8   Data           8  roter.o(.data)
    RoterCondition1                          0x200000f0   Data           8  roter.o(.data)
    Police1                                  0x200000f8   Data           8  roter.o(.data)
    RoterCondition5                          0x20000100   Data           8  roter.o(.data)
    Police5                                  0x20000108   Data           8  roter.o(.data)
    setPoint1                                0x20000110   Data          13  roter.o(.data)
    setPoint5                                0x2000011d   Data          13  roter.o(.data)
    setAngle1                                0x2000012a   Data          13  roter.o(.data)
    setAngle5                                0x20000137   Data          13  roter.o(.data)
    setRelativeAngle1                        0x20000144   Data          13  roter.o(.data)
    setRelativeAngle5                        0x20000151   Data          13  roter.o(.data)
    setInching1_1                            0x2000015e   Data          13  roter.o(.data)
    setInching1_2                            0x2000016b   Data          13  roter.o(.data)
    setInching5_1                            0x20000178   Data          13  roter.o(.data)
    setInching5_2                            0x20000185   Data          13  roter.o(.data)
    RecvData1                                0x20000192   Data           1  control.o(.data)
    RecvData4                                0x20000193   Data           1  control.o(.data)
    BlueOKFlag                               0x20000194   Data           1  control.o(.data)
    FireGun1                                 0x20000195   Data           1  control.o(.data)
    FireGun2                                 0x20000196   Data           1  control.o(.data)
    Limit1                                   0x20000197   Data           1  control.o(.data)
    Limit2                                   0x20000198   Data           1  control.o(.data)
    Roter1CMDFlag                            0x20000199   Data           1  control.o(.data)
    Roter5CMDFlag                            0x2000019a   Data           1  control.o(.data)
    QUART1                                   0x2000019c   Data           4  queue.o(.data)
    QUART4                                   0x200001a0   Data           4  queue.o(.data)
    g_Comm2RxBuffer                          0x200001a4   Data           1  main.o(.data)
    g_GpsFlag                                0x200001a5   Data           1  main.o(.data)
    g_RoterTimeFlag                          0x200001a6   Data           1  main.o(.data)
    g_GunFlag                                0x200001a7   Data           1  main.o(.data)
    RX1_Offset                               0x200001a8   Data           1  main.o(.data)
    RX4_Offset                               0x200001a9   Data           1  main.o(.data)
    g_FireGunSucess1                         0x200001aa   Data           8  main.o(.data)
    g_FireGunSucess2                         0x200001b2   Data           8  main.o(.data)
    g_Limit1                                 0x200001ba   Data           8  main.o(.data)
    g_Limit2                                 0x200001c2   Data           8  main.o(.data)
    uwTickFreq                               0x200001d0   Data           1  stm32f1xx_hal.o(.data)
    uwTickPrio                               0x200001d4   Data           4  stm32f1xx_hal.o(.data)
    uwTick                                   0x200001d8   Data           4  stm32f1xx_hal.o(.data)
    SystemCoreClock                          0x200001dc   Data           4  system_stm32f1xx.o(.data)
    __stdout                                 0x200001e4   Data           4  stdout.o(.data)
    __microlib_freelist                      0x200001e8   Data           4  mvars.o(.data)
    __microlib_freelist_initialised          0x200001ec   Data           4  mvars.o(.data)
    g_gga                                    0x200001f8   Data         144  gps.o(.bss)
    g_gll                                    0x20000288   Data          88  gps.o(.bss)
    g_gsa                                    0x200002e0   Data          80  gps.o(.bss)
    g_gsv                                    0x20000330   Data          76  gps.o(.bss)
    g_rmc                                    0x20000380   Data         152  gps.o(.bss)
    g_vtg                                    0x20000418   Data          64  gps.o(.bss)
    g_Roter1CmdAddr                          0x20000458   Data         510  roter.o(.bss)
    g_Roter1CmdBuf                           0x20000656   Data        3315  roter.o(.bss)
    g_Roter5CmdAddr                          0x20001349   Data         510  roter.o(.bss)
    g_Roter5CmdBuf                           0x20001547   Data        3315  roter.o(.bss)
    hexToBin                                 0x2000223a   Data          17  roter.o(.bss)
    Rxbuffer                                 0x2000224b   Data         100  control.o(.bss)
    g_Comm1RxBuffer                          0x200022af   Data         256  main.o(.bss)
    g_Comm4RxBuffer                          0x200023af   Data         256  main.o(.bss)
    g_Comm5RxBuffer                          0x200024af   Data        1024  main.o(.bss)
    g_RoterBuf                               0x200028af   Data           9  main.o(.bss)
    g_GpsToHead                              0x200028b8   Data          28  main.o(.bss)
    g_AngleToHead                            0x200028d4   Data          10  main.o(.bss)
    hadc1                                    0x200028e0   Data          48  adc.o(.bss)
    huart4                                   0x20002910   Data          72  usart.o(.bss)
    huart5                                   0x20002958   Data          72  usart.o(.bss)
    huart1                                   0x200029a0   Data          72  usart.o(.bss)
    huart2                                   0x200029e8   Data          72  usart.o(.bss)
    huart3                                   0x20002a30   Data          72  usart.o(.bss)
    hdma_uart4_rx                            0x20002a78   Data          68  usart.o(.bss)
    hdma_uart4_tx                            0x20002abc   Data          68  usart.o(.bss)
    hdma_usart1_rx                           0x20002b00   Data          68  usart.o(.bss)
    hdma_usart1_tx                           0x20002b44   Data          68  usart.o(.bss)
    hdma_usart2_rx                           0x20002b88   Data          68  usart.o(.bss)
    hdma_usart2_tx                           0x20002bcc   Data          68  usart.o(.bss)
    hdma_usart3_rx                           0x20002c10   Data          68  usart.o(.bss)
    hdma_usart3_tx                           0x20002c54   Data          68  usart.o(.bss)
    __heap_base                              0x20002c98   Data           0  startup_stm32f103xe.o(HEAP)
    __heap_limit                             0x20003498   Data           0  startup_stm32f103xe.o(HEAP)
    __initial_sp                             0x20003c98   Data           0  startup_stm32f103xe.o(STACK)



==============================================================================

Memory Map of the image

  Image Entry point : 0x08000131

  Load Region LR_IROM1 (Base: 0x08000000, Size: 0x00006198, Max: 0x00040000, ABSOLUTE, COMPRESSED[0x000060c0])

    Execution Region ER_IROM1 (Base: 0x08000000, Size: 0x00005fa4, Max: 0x00040000, ABSOLUTE)

    Base Addr    Size         Type   Attr      Idx    E Section Name        Object

    0x08000000   0x00000130   Data   RO            3    RESET               startup_stm32f103xe.o
    0x08000130   0x00000000   Code   RO         2764  * .ARM.Collect$$$$00000000  mc_w.l(entry.o)
    0x08000130   0x00000004   Code   RO         3110    .ARM.Collect$$$$00000001  mc_w.l(entry2.o)
    0x08000134   0x00000004   Code   RO         3113    .ARM.Collect$$$$00000004  mc_w.l(entry5.o)
    0x08000138   0x00000000   Code   RO         3115    .ARM.Collect$$$$00000008  mc_w.l(entry7b.o)
    0x08000138   0x00000000   Code   RO         3117    .ARM.Collect$$$$0000000A  mc_w.l(entry8b.o)
    0x08000138   0x00000008   Code   RO         3118    .ARM.Collect$$$$0000000B  mc_w.l(entry9a.o)
    0x08000140   0x00000000   Code   RO         3120    .ARM.Collect$$$$0000000D  mc_w.l(entry10a.o)
    0x08000140   0x00000000   Code   RO         3122    .ARM.Collect$$$$0000000F  mc_w.l(entry11a.o)
    0x08000140   0x00000004   Code   RO         3111    .ARM.Collect$$$$00002712  mc_w.l(entry2.o)
    0x08000144   0x00000024   Code   RO            4    .text               startup_stm32f103xe.o
    0x08000168   0x00000020   Code   RO         2767    .text               mc_w.l(llushr.o)
    0x08000188   0x00000040   Code   RO         2771    .text               mc_w.l(memmovea.o)
    0x080001c8   0x00000024   Code   RO         2773    .text               mc_w.l(memseta.o)
    0x080001ec   0x00000018   Code   RO         2775    .text               mc_w.l(strncpy.o)
    0x08000204   0x0000000e   Code   RO         2777    .text               mc_w.l(strlen.o)
    0x08000212   0x00000012   Code   RO         2779    .text               mc_w.l(strcpy.o)
    0x08000224   0x0000001e   Code   RO         2781    .text               mc_w.l(strncmp.o)
    0x08000242   0x00000002   PAD
    0x08000244   0x00000044   Code   RO         2783    .text               mc_w.l(strtok.o)
    0x08000288   0x00000038   Code   RO         3082    .text               mc_w.l(__0sscanf.o)
    0x080002c0   0x0000014c   Code   RO         3084    .text               mc_w.l(_scanf_int.o)
    0x0800040c   0x00000070   Code   RO         3086    .text               mc_w.l(strtol.o)
    0x0800047c   0x0000001a   Code   RO         3088    .text               mc_w.l(atoi.o)
    0x08000496   0x0000014e   Code   RO         3090    .text               mf_w.l(dadd.o)
    0x080005e4   0x000000e4   Code   RO         3092    .text               mf_w.l(dmul.o)
    0x080006c8   0x0000002e   Code   RO         3094    .text               mf_w.l(dscalb.o)
    0x080006f6   0x00000022   Code   RO         3096    .text               mf_w.l(dflti.o)
    0x08000718   0x0000001a   Code   RO         3098    .text               mf_w.l(dfltui.o)
    0x08000732   0x00000028   Code   RO         3100    .text               mf_w.l(ffixui.o)
    0x0800075a   0x0000003e   Code   RO         3102    .text               mf_w.l(dfixi.o)
    0x08000798   0x00000032   Code   RO         3104    .text               mf_w.l(dfixui.o)
    0x080007ca   0x00000026   Code   RO         3106    .text               mf_w.l(f2d.o)
    0x080007f0   0x00000038   Code   RO         3108    .text               mf_w.l(d2f.o)
    0x08000828   0x0000002c   Code   RO         3125    .text               mc_w.l(uidiv.o)
    0x08000854   0x0000001e   Code   RO         3129    .text               mc_w.l(llshl.o)
    0x08000872   0x00000024   Code   RO         3131    .text               mc_w.l(llsshr.o)
    0x08000896   0x00000002   PAD
    0x08000898   0x00000008   Code   RO         3133    .text               mc_w.l(ctype_o.o)
    0x080008a0   0x00000012   Code   RO         3155    .text               mc_w.l(isspace_o.o)
    0x080008b2   0x0000001c   Code   RO         3170    .text               mc_w.l(_chval.o)
    0x080008ce   0x00000002   PAD
    0x080008d0   0x00000028   Code   RO         3172    .text               mc_w.l(scanf_char.o)
    0x080008f8   0x00000040   Code   RO         3174    .text               mc_w.l(_sgetc.o)
    0x08000938   0x0000009e   Code   RO         3176    .text               mc_w.l(_strtoul.o)
    0x080009d6   0x00000002   PAD
    0x080009d8   0x0000009c   Code   RO         3178    .text               mc_w.l(strtod.o)
    0x08000a74   0x00000000   Code   RO         3180    .text               mc_w.l(iusefp.o)
    0x08000a74   0x0000006e   Code   RO         3181    .text               mf_w.l(fepilogue.o)
    0x08000ae2   0x000000ba   Code   RO         3183    .text               mf_w.l(depilogue.o)
    0x08000b9c   0x000000de   Code   RO         3185    .text               mf_w.l(ddiv.o)
    0x08000c7a   0x00000002   PAD
    0x08000c7c   0x00000024   Code   RO         3191    .text               mc_w.l(init.o)
    0x08000ca0   0x0000032c   Code   RO         3195    .text               mc_w.l(_scanf.o)
    0x08000fcc   0x00000338   Code   RO         3197    .text               mc_w.l(scanf_fp.o)
    0x08001304   0x00000018   Code   RO         3204    .text               mf_w.l(dfltul.o)
    0x0800131c   0x00000056   Code   RO         3214    .text               mc_w.l(__dczerorl2.o)
    0x08001372   0x00000002   PAD
    0x08001374   0x0000008c   Code   RO          360    i.ADC_BAT_Test      control.o
    0x08001400   0x00000056   Code   RO         1069    i.ADC_ConversionStop_Disable  stm32f1xx_hal_adc.o
    0x08001456   0x00000002   PAD
    0x08001458   0x0000007c   Code   RO         1073    i.ADC_Enable        stm32f1xx_hal_adc.o
    0x080014d4   0x00000054   Code   RO          361    i.BlueHostConnect   control.o
    0x08001528   0x000000a0   Code   RO          362    i.BlueSlaveConnect  control.o
    0x080015c8   0x000000e4   Code   RO          363    i.BlueStart         control.o
    0x080016ac   0x0000007c   Code   RO          364    i.BlueWeakUp        control.o
    0x08001728   0x00000002   Code   RO          809    i.BusFault_Handler  stm32f1xx_it.o
    0x0800172a   0x00000002   PAD
    0x0800172c   0x000000f4   Code   RO          365    i.ControlFuntion    control.o
    0x08001820   0x00000030   Code   RO          366    i.CopyAngleDataToUsart1  control.o
    0x08001850   0x0000006c   Code   RO          367    i.CopyGpsDataToUsart1  control.o
    0x080018bc   0x00000022   Code   RO          522    i.Create_Empty_Queue  queue.o
    0x080018de   0x00000002   PAD
    0x080018e0   0x0000000c   Code   RO          810    i.DMA1_Channel2_IRQHandler  stm32f1xx_it.o
    0x080018ec   0x0000000c   Code   RO          811    i.DMA1_Channel3_IRQHandler  stm32f1xx_it.o
    0x080018f8   0x0000000c   Code   RO          812    i.DMA1_Channel4_IRQHandler  stm32f1xx_it.o
    0x08001904   0x0000000c   Code   RO          813    i.DMA1_Channel5_IRQHandler  stm32f1xx_it.o
    0x08001910   0x0000000c   Code   RO          814    i.DMA1_Channel6_IRQHandler  stm32f1xx_it.o
    0x0800191c   0x0000000c   Code   RO          815    i.DMA1_Channel7_IRQHandler  stm32f1xx_it.o
    0x08001928   0x0000000c   Code   RO          816    i.DMA2_Channel3_IRQHandler  stm32f1xx_it.o
    0x08001934   0x0000000c   Code   RO          817    i.DMA2_Channel4_5_IRQHandler  stm32f1xx_it.o
    0x08001940   0x0000002a   Code   RO         1725    i.DMA_SetConfig     stm32f1xx_hal_dma.o
    0x0800196a   0x00000002   PAD
    0x0800196c   0x000000a0   Code   RO           97    i.DataParseCondition  roter.o
    0x08001a0c   0x0000017c   Code   RO          368    i.DataParseFunction  control.o
    0x08001b88   0x0000005c   Code   RO           98    i.DataParseLocation  roter.o
    0x08001be4   0x0000007c   Code   RO           99    i.DataParsePolice   roter.o
    0x08001c60   0x00000002   Code   RO          818    i.DebugMon_Handler  stm32f1xx_it.o
    0x08001c62   0x00000030   Code   RO          523    i.Dequeue           queue.o
    0x08001c92   0x00000006   Code   RO          819    i.EXTI0_IRQHandler  stm32f1xx_it.o
    0x08001c98   0x00000006   Code   RO          820    i.EXTI1_IRQHandler  stm32f1xx_it.o
    0x08001c9e   0x00000016   Code   RO          821    i.EXTI9_5_IRQHandler  stm32f1xx_it.o
    0x08001cb4   0x0000002e   Code   RO          524    i.Enqueue           queue.o
    0x08001ce2   0x0000002a   Code   RO          525    i.Enqueue_Bytes     queue.o
    0x08001d0c   0x00000004   Code   RO          578    i.Error_Handler     main.o
    0x08001d10   0x00000018   Code   RO          369    i.FireGun           control.o
    0x08001d28   0x00000034   Code   RO          370    i.FireGunControl    control.o
    0x08001d5c   0x000000d8   Code   RO         1249    i.HAL_ADCEx_Calibration_Start  stm32f1xx_hal_adc_ex.o
    0x08001e34   0x000000fc   Code   RO         1075    i.HAL_ADC_ConfigChannel  stm32f1xx_hal_adc.o
    0x08001f30   0x00000006   Code   RO         1082    i.HAL_ADC_GetValue  stm32f1xx_hal_adc.o
    0x08001f36   0x00000002   PAD
    0x08001f38   0x00000120   Code   RO         1084    i.HAL_ADC_Init      stm32f1xx_hal_adc.o
    0x08002058   0x00000058   Code   RO          672    i.HAL_ADC_MspInit   adc.o
    0x080020b0   0x0000013c   Code   RO         1088    i.HAL_ADC_PollForConversion  stm32f1xx_hal_adc.o
    0x080021ec   0x000000c0   Code   RO         1090    i.HAL_ADC_Start     stm32f1xx_hal_adc.o
    0x080022ac   0x00000046   Code   RO         1726    i.HAL_DMA_Abort     stm32f1xx_hal_dma.o
    0x080022f2   0x00000002   PAD
    0x080022f4   0x00000130   Code   RO         1727    i.HAL_DMA_Abort_IT  stm32f1xx_hal_dma.o
    0x08002424   0x00000248   Code   RO         1731    i.HAL_DMA_IRQHandler  stm32f1xx_hal_dma.o
    0x0800266c   0x0000007c   Code   RO         1732    i.HAL_DMA_Init      stm32f1xx_hal_dma.o
    0x080026e8   0x00000070   Code   RO         1736    i.HAL_DMA_Start_IT  stm32f1xx_hal_dma.o
    0x08002758   0x00000024   Code   RO         1352    i.HAL_Delay         stm32f1xx_hal.o
    0x0800277c   0x00000050   Code   RO          822    i.HAL_GPIO_EXTI_Callback  stm32f1xx_it.o
    0x080027cc   0x00000018   Code   RO         1661    i.HAL_GPIO_EXTI_IRQHandler  stm32f1xx_hal_gpio.o
    0x080027e4   0x000001f8   Code   RO         1662    i.HAL_GPIO_Init     stm32f1xx_hal_gpio.o
    0x080029dc   0x00000010   Code   RO         1665    i.HAL_GPIO_TogglePin  stm32f1xx_hal_gpio.o
    0x080029ec   0x0000000a   Code   RO         1666    i.HAL_GPIO_WritePin  stm32f1xx_hal_gpio.o
    0x080029f6   0x00000002   PAD
    0x080029f8   0x0000000c   Code   RO         1356    i.HAL_GetTick       stm32f1xx_hal.o
    0x08002a04   0x00000010   Code   RO         1362    i.HAL_IncTick       stm32f1xx_hal.o
    0x08002a14   0x00000024   Code   RO         1363    i.HAL_Init          stm32f1xx_hal.o
    0x08002a38   0x00000040   Code   RO         1364    i.HAL_InitTick      stm32f1xx_hal.o
    0x08002a78   0x0000003c   Code   RO         1009    i.HAL_MspInit       stm32f1xx_hal_msp.o
    0x08002ab4   0x0000001a   Code   RO         1822    i.HAL_NVIC_EnableIRQ  stm32f1xx_hal_cortex.o
    0x08002ace   0x00000002   PAD
    0x08002ad0   0x00000040   Code   RO         1828    i.HAL_NVIC_SetPriority  stm32f1xx_hal_cortex.o
    0x08002b10   0x00000024   Code   RO         1829    i.HAL_NVIC_SetPriorityGrouping  stm32f1xx_hal_cortex.o
    0x08002b34   0x000000b8   Code   RO         1623    i.HAL_RCCEx_GetPeriphCLKFreq  stm32f1xx_hal_rcc_ex.o
    0x08002bec   0x000000ec   Code   RO         1624    i.HAL_RCCEx_PeriphCLKConfig  stm32f1xx_hal_rcc_ex.o
    0x08002cd8   0x0000012c   Code   RO         1520    i.HAL_RCC_ClockConfig  stm32f1xx_hal_rcc.o
    0x08002e04   0x00000020   Code   RO         1527    i.HAL_RCC_GetPCLK1Freq  stm32f1xx_hal_rcc.o
    0x08002e24   0x00000020   Code   RO         1528    i.HAL_RCC_GetPCLK2Freq  stm32f1xx_hal_rcc.o
    0x08002e44   0x00000054   Code   RO         1529    i.HAL_RCC_GetSysClockFreq  stm32f1xx_hal_rcc.o
    0x08002e98   0x00000320   Code   RO         1532    i.HAL_RCC_OscConfig  stm32f1xx_hal_rcc.o
    0x080031b8   0x00000028   Code   RO         1833    i.HAL_SYSTICK_Config  stm32f1xx_hal_cortex.o
    0x080031e0   0x0000004e   Code   RO         2369    i.HAL_UARTEx_ReceiveToIdle_IT  stm32f1xx_hal_uart.o
    0x0800322e   0x00000002   PAD
    0x08003230   0x00000044   Code   RO          823    i.HAL_UARTEx_RxEventCallback  stm32f1xx_it.o
    0x08003274   0x00000002   Code   RO         2384    i.HAL_UART_ErrorCallback  stm32f1xx_hal_uart.o
    0x08003276   0x00000002   PAD
    0x08003278   0x0000026c   Code   RO         2387    i.HAL_UART_IRQHandler  stm32f1xx_hal_uart.o
    0x080034e4   0x00000064   Code   RO         2388    i.HAL_UART_Init     stm32f1xx_hal_uart.o
    0x08003548   0x000003c0   Code   RO          738    i.HAL_UART_MspInit  usart.o
    0x08003908   0x0000001c   Code   RO         2392    i.HAL_UART_Receive_DMA  stm32f1xx_hal_uart.o
    0x08003924   0x0000001c   Code   RO         2393    i.HAL_UART_Receive_IT  stm32f1xx_hal_uart.o
    0x08003940   0x00000084   Code   RO          824    i.HAL_UART_RxCpltCallback  stm32f1xx_it.o
    0x080039c4   0x00000064   Code   RO          825    i.HAL_UART_RxHalfCpltCallback  stm32f1xx_it.o
    0x08003a28   0x0000009a   Code   RO         2396    i.HAL_UART_Transmit  stm32f1xx_hal_uart.o
    0x08003ac2   0x00000002   Code   RO         2399    i.HAL_UART_TxCpltCallback  stm32f1xx_hal_uart.o
    0x08003ac4   0x00000002   Code   RO          826    i.HardFault_Handler  stm32f1xx_it.o
    0x08003ac6   0x00000002   PAD
    0x08003ac8   0x00000050   Code   RO          673    i.MX_ADC1_Init      adc.o
    0x08003b18   0x000000ac   Code   RO          713    i.MX_DMA_Init       dma.o
    0x08003bc4   0x00000170   Code   RO          647    i.MX_GPIO_Init      gpio.o
    0x08003d34   0x00000038   Code   RO          739    i.MX_UART4_Init     usart.o
    0x08003d6c   0x00000038   Code   RO          740    i.MX_UART5_Init     usart.o
    0x08003da4   0x00000038   Code   RO          741    i.MX_USART1_UART_Init  usart.o
    0x08003ddc   0x00000038   Code   RO          742    i.MX_USART2_UART_Init  usart.o
    0x08003e14   0x00000038   Code   RO          743    i.MX_USART3_UART_Init  usart.o
    0x08003e4c   0x00000002   Code   RO          827    i.MemManage_Handler  stm32f1xx_it.o
    0x08003e4e   0x00000002   Code   RO          828    i.NMI_Handler       stm32f1xx_it.o
    0x08003e50   0x00000002   Code   RO          829    i.PendSV_Handler    stm32f1xx_it.o
    0x08003e52   0x00000002   PAD
    0x08003e54   0x000000b4   Code   RO          100    i.ProcessCmdBuffer  roter.o
    0x08003f08   0x00000010   Code   RO          526    i.Queue_Is_Empty    queue.o
    0x08003f18   0x00000022   Code   RO          527    i.Queue_Is_Full     queue.o
    0x08003f3a   0x00000018   Code   RO          528    i.Queue_Size        queue.o
    0x08003f52   0x00000002   PAD
    0x08003f54   0x00000040   Code   RO          101    i.RemovePoliceToRoter  roter.o
    0x08003f94   0x00000058   Code   RO          371    i.Roter1Error       control.o
    0x08003fec   0x00000058   Code   RO          372    i.Roter5Error       control.o
    0x08004044   0x0000008c   Code   RO          102    i.RoterAngle1       roter.o
    0x080040d0   0x0000008c   Code   RO          103    i.RoterAngle5       roter.o
    0x0800415c   0x00000078   Code   RO          104    i.RoterRelativeAngle1  roter.o
    0x080041d4   0x00000078   Code   RO          105    i.RoterRelativeAngle5  roter.o
    0x0800424c   0x0000006c   Code   RO          374    i.STM32_Comm1_Parse  control.o
    0x080042b8   0x00000080   Code   RO          375    i.STM32_Comm4_Parse  control.o
    0x08004338   0x00000028   Code   RO          376    i.STM32_Control     control.o
    0x08004360   0x0000001c   Code   RO          377    i.STM32_Queue_Init  control.o
    0x0800437c   0x00000002   Code   RO          830    i.SVC_Handler       stm32f1xx_it.o
    0x0800437e   0x00000002   PAD
    0x08004380   0x000000b8   Code   RO          106    i.SendCmdToBuf      roter.o
    0x08004438   0x00000088   Code   RO          378    i.SendDataByUART    control.o
    0x080044c0   0x00000040   Code   RO          379    i.SendRoterPolice   control.o
    0x08004500   0x00000006   Code   RO          107    i.SetInching        roter.o
    0x08004506   0x00000002   PAD
    0x08004508   0x00000050   Code   RO          108    i.SetPeriodicity    roter.o
    0x08004558   0x0000002c   Code   RO          109    i.SetRestoration    roter.o
    0x08004584   0x00000114   Code   RO          110    i.SetRoterInit      roter.o
    0x08004698   0x00000004   Code   RO          831    i.SysTick_Handler   stm32f1xx_it.o
    0x0800469c   0x00000078   Code   RO          579    i.SystemClock_Config  main.o
    0x08004714   0x00000002   Code   RO         2722    i.SystemInit        system_stm32f1xx.o
    0x08004716   0x00000002   PAD
    0x08004718   0x000000dc   Code   RO          111    i.UART2DataParse    roter.o
    0x080047f4   0x00000068   Code   RO          112    i.UART2DataRecv     roter.o
    0x0800485c   0x00000018   Code   RO          832    i.UART4_IRQHandler  stm32f1xx_it.o
    0x08004874   0x0000000c   Code   RO          833    i.UART5_IRQHandler  stm32f1xx_it.o
    0x08004880   0x00000010   Code   RO         2401    i.UART_DMAAbortOnError  stm32f1xx_hal_uart.o
    0x08004890   0x0000004a   Code   RO         2402    i.UART_DMAError     stm32f1xx_hal_uart.o
    0x080048da   0x00000086   Code   RO         2403    i.UART_DMAReceiveCplt  stm32f1xx_hal_uart.o
    0x08004960   0x0000001e   Code   RO         2405    i.UART_DMARxHalfCplt  stm32f1xx_hal_uart.o
    0x0800497e   0x0000004e   Code   RO         2411    i.UART_EndRxTransfer  stm32f1xx_hal_uart.o
    0x080049cc   0x0000001c   Code   RO         2412    i.UART_EndTxTransfer  stm32f1xx_hal_uart.o
    0x080049e8   0x000000c2   Code   RO         2413    i.UART_Receive_IT   stm32f1xx_hal_uart.o
    0x08004aaa   0x00000002   PAD
    0x08004aac   0x000000b8   Code   RO         2414    i.UART_SetConfig    stm32f1xx_hal_uart.o
    0x08004b64   0x00000090   Code   RO         2415    i.UART_Start_Receive_DMA  stm32f1xx_hal_uart.o
    0x08004bf4   0x00000036   Code   RO         2416    i.UART_Start_Receive_IT  stm32f1xx_hal_uart.o
    0x08004c2a   0x00000078   Code   RO         2417    i.UART_WaitOnFlagUntilTimeout  stm32f1xx_hal_uart.o
    0x08004ca2   0x00000002   PAD
    0x08004ca4   0x00000018   Code   RO          834    i.USART1_IRQHandler  stm32f1xx_it.o
    0x08004cbc   0x0000000c   Code   RO          835    i.USART2_IRQHandler  stm32f1xx_it.o
    0x08004cc8   0x0000000c   Code   RO          836    i.USART3_IRQHandler  stm32f1xx_it.o
    0x08004cd4   0x000000a8   Code   RO          837    i.USER_UART_IRQHandler  stm32f1xx_it.o
    0x08004d7c   0x00000002   Code   RO          838    i.UsageFault_Handler  stm32f1xx_it.o
    0x08004d7e   0x00000002   PAD
    0x08004d80   0x00000020   Code   RO         2838    i.__0printf$1       mc_w.l(printf1.o)
    0x08004da0   0x00000020   Code   RO         1835    i.__NVIC_SetPriority  stm32f1xx_hal_cortex.o
    0x08004dc0   0x00000008   Code   RO         3163    i.__aeabi_errno_addr  mc_w.l(errno.o)
    0x08004dc8   0x0000005c   Code   RO         3058    i.__free$realloc    mc_w.l(mallocr.o)
    0x08004e24   0x00000050   Code   RO         3059    i.__malloc$realloc  mc_w.l(mallocr.o)
    0x08004e74   0x0000000c   Code   RO         3164    i.__read_errno      mc_w.l(errno.o)
    0x08004e80   0x0000000e   Code   RO         3208    i.__scatterload_copy  mc_w.l(handlers.o)
    0x08004e8e   0x00000002   Code   RO         3209    i.__scatterload_null  mc_w.l(handlers.o)
    0x08004e90   0x0000000e   Code   RO         3210    i.__scatterload_zeroinit  mc_w.l(handlers.o)
    0x08004e9e   0x00000002   PAD
    0x08004ea0   0x0000000c   Code   RO         3165    i.__set_errno       mc_w.l(errno.o)
    0x08004eac   0x0000000e   Code   RO         3199    i._is_digit         mc_w.l(scanf_fp.o)
    0x08004eba   0x00000002   PAD
    0x08004ebc   0x00000154   Code   RO         2845    i._printf_core      mc_w.l(printf1.o)
    0x08005010   0x0000002a   Code   RO         2757    i.atof              m_ws.l(atof.o)
    0x0800503a   0x0000001a   Code   RO          380    i.calculate_checksum  control.o
    0x08005054   0x0000001e   Code   RO          113    i.check_sum         roter.o
    0x08005072   0x00000038   Code   RO          114    i.crc16             roter.o
    0x080050aa   0x00000002   PAD
    0x080050ac   0x00000018   Code   RO          744    i.fputc             usart.o
    0x080050c4   0x0000002a   Code   RO          115    i.hexToBinChar      roter.o
    0x080050ee   0x00000002   PAD
    0x080050f0   0x00000020   Code   RO          116    i.hex_to_int        roter.o
    0x08005110   0x00000070   Code   RO           10    i.insertZerosBetweenCommas  gps.o
    0x08005180   0x00000010   Code   RO          117    i.int_to_hex        roter.o
    0x08005190   0x00000050   Code   RO         3060    i.internal_alloc    mc_w.l(mallocr.o)
    0x080051e0   0x000000d0   Code   RO          580    i.main              main.o
    0x080052b0   0x0000006c   Code   RO         3061    i.realloc           mc_w.l(mallocr.o)
    0x0800531c   0x00000194   Code   RO           11    i.receive_gps_data  gps.o
    0x080054b0   0x000002a0   Code   RO           12    i.strGga_parse      gps.o
    0x08005750   0x00000208   Code   RO           13    i.strGll_parse      gps.o
    0x08005958   0x00000100   Code   RO           14    i.strGsa_parse      gps.o
    0x08005a58   0x0000008c   Code   RO           15    i.strGsv_parse      gps.o
    0x08005ae4   0x00000078   Code   RO           16    i.strRHXZ_parse     gps.o
    0x08005b5c   0x000002a0   Code   RO           17    i.strRmc_parse      gps.o
    0x08005dfc   0x000000a8   Code   RO           18    i.strVtg_parse      gps.o
    0x08005ea4   0x0000001c   Code   RO         2761    i.strtod            m_ws.l(strtod.o)
    0x08005ec0   0x00000012   Data   RO         1533    .constdata          stm32f1xx_hal_rcc.o
    0x08005ed2   0x00000012   Data   RO         1625    .constdata          stm32f1xx_hal_rcc_ex.o
    0x08005ee4   0x00000010   Data   RO         2723    .constdata          system_stm32f1xx.o
    0x08005ef4   0x00000008   Data   RO         2724    .constdata          system_stm32f1xx.o
    0x08005efc   0x00000081   Data   RO         3134    .constdata          mc_w.l(ctype_o.o)
    0x08005f7d   0x00000003   PAD
    0x08005f80   0x00000004   Data   RO         3135    .constdata          mc_w.l(ctype_o.o)
    0x08005f84   0x00000020   Data   RO         3206    Region$$Table       anon$$obj.o


    Execution Region RW_IRAM1 (Base: 0x20000000, Size: 0x00003c98, Max: 0x0000c000, ABSOLUTE, COMPRESSED[0x0000011c])

    Base Addr    Size         Type   Attr      Idx    E Section Name        Object

    0x20000000   0x00000006   Data   RW           20    .data               gps.o
    0x20000006   0x00000002   PAD
    0x20000008   0x00000156   Data   RW          119    .data               roter.o
    0x2000015e   0x0000000d   Data   RW          120    .data               roter.o
    0x2000016b   0x0000000d   Data   RW          121    .data               roter.o
    0x20000178   0x0000000d   Data   RW          122    .data               roter.o
    0x20000185   0x0000000d   Data   RW          123    .data               roter.o
    0x20000192   0x00000009   Data   RW          382    .data               control.o
    0x2000019b   0x00000001   PAD
    0x2000019c   0x00000004   Data   RW          529    .data               queue.o
    0x200001a0   0x00000004   Data   RW          530    .data               queue.o
    0x200001a4   0x00000001   Data   RW          585    .data               main.o
    0x200001a5   0x00000001   Data   RW          586    .data               main.o
    0x200001a6   0x00000001   Data   RW          587    .data               main.o
    0x200001a7   0x00000001   Data   RW          588    .data               main.o
    0x200001a8   0x00000001   Data   RW          591    .data               main.o
    0x200001a9   0x00000001   Data   RW          594    .data               main.o
    0x200001aa   0x00000008   Data   RW          595    .data               main.o
    0x200001b2   0x00000008   Data   RW          596    .data               main.o
    0x200001ba   0x00000008   Data   RW          597    .data               main.o
    0x200001c2   0x00000008   Data   RW          598    .data               main.o
    0x200001ca   0x00000002   PAD
    0x200001cc   0x00000004   Data   RW          839    .data               stm32f1xx_it.o
    0x200001d0   0x0000000c   Data   RW         1370    .data               stm32f1xx_hal.o
    0x200001dc   0x00000004   Data   RW         2725    .data               system_stm32f1xx.o
    0x200001e0   0x00000004   Data   RW         2784    .data               mc_w.l(strtok.o)
    0x200001e4   0x00000004   Data   RW         3124    .data               mc_w.l(stdout.o)
    0x200001e8   0x00000004   Data   RW         3161    .data               mc_w.l(mvars.o)
    0x200001ec   0x00000004   Data   RW         3162    .data               mc_w.l(mvars.o)
    0x200001f0   0x00000004   Data   RW         3166    .data               mc_w.l(errno.o)
    0x200001f4   0x00000004   PAD
    0x200001f8   0x00000260   Zero   RW           19    .bss                gps.o
    0x20000458   0x00001df3   Zero   RW          118    .bss                roter.o
    0x2000224b   0x00000064   Zero   RW          381    .bss                control.o
    0x200022af   0x00000600   Zero   RW          581    .bss                main.o
    0x200028af   0x00000009   Zero   RW          582    .bss                main.o
    0x200028b8   0x0000001c   Zero   RW          583    .bss                main.o
    0x200028d4   0x0000000a   Zero   RW          584    .bss                main.o
    0x200028de   0x00000002   PAD
    0x200028e0   0x00000030   Zero   RW          674    .bss                adc.o
    0x20002910   0x00000388   Zero   RW          745    .bss                usart.o
    0x20002c98   0x00000800   Zero   RW            2    HEAP                startup_stm32f103xe.o
    0x20003498   0x00000800   Zero   RW            1    STACK               startup_stm32f103xe.o


==============================================================================

Image component sizes


      Code (inc. data)   RO Data    RW Data    ZI Data      Debug   Object Name

       168         20          0          0         48       1517   adc.o
      2298        410          0          9        100      13065   control.o
       172          4          0          0          0        782   dma.o
       368         24          0          0          0       1023   gpio.o
      3064        208          0          6        608      18473   gps.o
       332         46          0         38       1583       4375   main.o
       244          0          0          8          0       4659   queue.o
      2230        158          0        394       7667     490559   roter.o
        36          8        304          0       4096        768   startup_stm32f103xe.o
       164         28          0         12          0       6241   stm32f1xx_hal.o
      1264         58          0          0          0       6320   stm32f1xx_hal_adc.o
       216          6          0          0          0       1366   stm32f1xx_hal_adc_ex.o
       198         14          0          0          0      28755   stm32f1xx_hal_cortex.o
      1236         52          0          0          0       4886   stm32f1xx_hal_dma.o
       554         48          0          0          0       3940   stm32f1xx_hal_gpio.o
        60          8          0          0          0        802   stm32f1xx_hal_msp.o
      1248         86         18          0          0       4948   stm32f1xx_hal_rcc.o
       420         32         18          0          0       2417   stm32f1xx_hal_rcc_ex.o
      2068         24          0          0          0      14553   stm32f1xx_hal_uart.o
       782        240          0          4          0      14206   stm32f1xx_it.o
         2          0         24          4          0       1019   system_stm32f1xx.o
      1264        100          0          0        904       5388   usart.o

    ----------------------------------------------------------------------
     18430       1574        396        480      15008     630062   Object Totals
         0          0         32          0          0          0   (incl. Generated)
        42          0          0          5          2          0   (incl. Padding)

    ----------------------------------------------------------------------

      Code (inc. data)   RO Data    RW Data    ZI Data      Debug   Library Member Name

        42          0          0          0          0         84   atof.o
        28          0          0          0          0         80   strtod.o
        56          8          0          0          0         84   __0sscanf.o
        86          0          0          0          0          0   __dczerorl2.o
        28          0          0          0          0         68   _chval.o
       812          4          0          0          0        112   _scanf.o
       332          0          0          0          0         96   _scanf_int.o
        64          0          0          0          0         84   _sgetc.o
       158          0          0          0          0         92   _strtoul.o
        26          0          0          0          0         80   atoi.o
         8          4        133          0          0         68   ctype_o.o
         0          0          0          0          0          0   entry.o
         0          0          0          0          0          0   entry10a.o
         0          0          0          0          0          0   entry11a.o
         8          4          0          0          0          0   entry2.o
         4          0          0          0          0          0   entry5.o
         0          0          0          0          0          0   entry7b.o
         0          0          0          0          0          0   entry8b.o
         8          4          0          0          0          0   entry9a.o
        32         16          0          4          0        204   errno.o
        30          0          0          0          0          0   handlers.o
        36          8          0          0          0         68   init.o
        18          0          0          0          0         76   isspace_o.o
         0          0          0          0          0          0   iusefp.o
        30          0          0          0          0         68   llshl.o
        36          0          0          0          0         68   llsshr.o
        32          0          0          0          0         68   llushr.o
       360         30          0          0          0        356   mallocr.o
        64          0          0          0          0         76   memmovea.o
        36          0          0          0          0        108   memseta.o
         0          0          0          8          0          0   mvars.o
       372         14          0          0          0        184   printf1.o
        40          8          0          0          0         84   scanf_char.o
       838         12          0          0          0        216   scanf_fp.o
         0          0          0          4          0          0   stdout.o
        18          0          0          0          0         68   strcpy.o
        14          0          0          0          0         68   strlen.o
        30          0          0          0          0         80   strncmp.o
        24          0          0          0          0         76   strncpy.o
       156         12          0          0          0        120   strtod.o
        68          6          0          4          0         80   strtok.o
       112          0          0          0          0         88   strtol.o
        44          0          0          0          0         80   uidiv.o
        56          0          0          0          0         88   d2f.o
       334          0          0          0          0        148   dadd.o
       222          0          0          0          0        100   ddiv.o
       186          0          0          0          0        176   depilogue.o
        62          0          0          0          0         80   dfixi.o
        50          0          0          0          0         76   dfixui.o
        34          0          0          0          0         76   dflti.o
        26          0          0          0          0         76   dfltui.o
        24          0          0          0          0         76   dfltul.o
       228          0          0          0          0         96   dmul.o
        46          0          0          0          0         80   dscalb.o
        38          0          0          0          0         68   f2d.o
       110          0          0          0          0        168   fepilogue.o
        40          0          0          0          0         68   ffixui.o

    ----------------------------------------------------------------------
      5522        130        136         20          4       4460   Library Totals
        16          0          3          0          4          0   (incl. Padding)

    ----------------------------------------------------------------------

      Code (inc. data)   RO Data    RW Data    ZI Data      Debug   Library Name

        70          0          0          0          0        164   m_ws.l
      3980        130        133         20          0       2920   mc_w.l
      1456          0          0          0          0       1376   mf_w.l

    ----------------------------------------------------------------------
      5522        130        136         20          4       4460   Library Totals

    ----------------------------------------------------------------------

==============================================================================


      Code (inc. data)   RO Data    RW Data    ZI Data      Debug   

     23952       1704        532        500      15012     624250   Grand Totals
     23952       1704        532        284      15012     624250   ELF Image Totals (compressed)
     23952       1704        532        284          0          0   ROM Totals

==============================================================================

    Total RO  Size (Code + RO Data)                24484 (  23.91kB)
    Total RW  Size (RW Data + ZI Data)             15512 (  15.15kB)
    Total ROM Size (Code + RO Data + RW Data)      24768 (  24.19kB)

==============================================================================

